{
  "contractName": "AmountLimitedCron",
  "abi": [
    {
      "inputs": [
        {
          "internalType": "contract Fund",
          "name": "_fund",
          "type": "address"
        },
        {
          "internalType": "contract Reserve",
          "name": "_reserve",
          "type": "address"
        },
        {
          "internalType": "contract Oracle",
          "name": "_oracle",
          "type": "address"
        },
        {
          "internalType": "address",
          "name": "_uniswapRouterAddress",
          "type": "address"
        },
        {
          "internalType": "uint256",
          "name": "_commission",
          "type": "uint256"
        }
      ],
      "stateMutability": "nonpayable",
      "type": "constructor"
    },
    {
      "inputs": [],
      "name": "applicationAddress",
      "outputs": [
        {
          "internalType": "address",
          "name": "",
          "type": "address"
        }
      ],
      "stateMutability": "view",
      "type": "function"
    },
    {
      "inputs": [],
      "name": "commission",
      "outputs": [
        {
          "internalType": "uint256",
          "name": "",
          "type": "uint256"
        }
      ],
      "stateMutability": "view",
      "type": "function"
    },
    {
      "inputs": [],
      "name": "fund",
      "outputs": [
        {
          "internalType": "contract Fund",
          "name": "",
          "type": "address"
        }
      ],
      "stateMutability": "view",
      "type": "function"
    },
    {
      "inputs": [
        {
          "internalType": "address",
          "name": "",
          "type": "address"
        }
      ],
      "name": "jobNativeBalances",
      "outputs": [
        {
          "internalType": "uint256",
          "name": "",
          "type": "uint256"
        }
      ],
      "stateMutability": "view",
      "type": "function"
    },
    {
      "inputs": [
        {
          "internalType": "address",
          "name": "",
          "type": "address"
        },
        {
          "internalType": "address",
          "name": "",
          "type": "address"
        }
      ],
      "name": "jobTokenBalances",
      "outputs": [
        {
          "internalType": "uint256",
          "name": "",
          "type": "uint256"
        }
      ],
      "stateMutability": "view",
      "type": "function"
    },
    {
      "inputs": [
        {
          "internalType": "address",
          "name": "",
          "type": "address"
        }
      ],
      "name": "jobUserCount",
      "outputs": [
        {
          "internalType": "uint32",
          "name": "",
          "type": "uint32"
        }
      ],
      "stateMutability": "view",
      "type": "function"
    },
    {
      "inputs": [
        {
          "internalType": "address",
          "name": "",
          "type": "address"
        },
        {
          "internalType": "uint256",
          "name": "",
          "type": "uint256"
        }
      ],
      "name": "jobs",
      "outputs": [
        {
          "internalType": "address",
          "name": "ownerAddress",
          "type": "address"
        },
        {
          "internalType": "bool",
          "name": "isActive",
          "type": "bool"
        },
        {
          "internalType": "enum AmountLimitedCron.ContractTypes",
          "name": "contractType",
          "type": "uint8"
        },
        {
          "internalType": "address",
          "name": "contractAddress",
          "type": "address"
        },
        {
          "internalType": "uint64",
          "name": "recurringInterval",
          "type": "uint64"
        },
        {
          "internalType": "uint256",
          "name": "amount",
          "type": "uint256"
        },
        {
          "internalType": "enum AmountLimitedCron.Operations",
          "name": "operation",
          "type": "uint8"
        },
        {
          "internalType": "uint256",
          "name": "createdAt",
          "type": "uint256"
        },
        {
          "internalType": "uint256",
          "name": "lastExecution",
          "type": "uint256"
        }
      ],
      "stateMutability": "view",
      "type": "function"
    },
    {
      "inputs": [],
      "name": "oracle",
      "outputs": [
        {
          "internalType": "contract Oracle",
          "name": "",
          "type": "address"
        }
      ],
      "stateMutability": "view",
      "type": "function"
    },
    {
      "inputs": [],
      "name": "ownerAddress",
      "outputs": [
        {
          "internalType": "address",
          "name": "",
          "type": "address"
        }
      ],
      "stateMutability": "view",
      "type": "function"
    },
    {
      "inputs": [],
      "name": "reserve",
      "outputs": [
        {
          "internalType": "contract Reserve",
          "name": "",
          "type": "address"
        }
      ],
      "stateMutability": "view",
      "type": "function"
    },
    {
      "inputs": [],
      "name": "uniswapRouter",
      "outputs": [
        {
          "internalType": "contract IUniswapV2Router02",
          "name": "",
          "type": "address"
        }
      ],
      "stateMutability": "view",
      "type": "function"
    },
    {
      "stateMutability": "payable",
      "type": "receive"
    },
    {
      "inputs": [
        {
          "internalType": "address",
          "name": "newApplicationAddress",
          "type": "address"
        }
      ],
      "name": "updateApplicationAddress",
      "outputs": [],
      "stateMutability": "nonpayable",
      "type": "function"
    },
    {
      "inputs": [
        {
          "internalType": "uint256",
          "name": "newCommission",
          "type": "uint256"
        }
      ],
      "name": "updateCommission",
      "outputs": [],
      "stateMutability": "nonpayable",
      "type": "function"
    },
    {
      "inputs": [],
      "name": "deposit",
      "outputs": [],
      "stateMutability": "payable",
      "type": "function"
    },
    {
      "inputs": [
        {
          "internalType": "address",
          "name": "_token",
          "type": "address"
        },
        {
          "internalType": "uint256",
          "name": "_amount",
          "type": "uint256"
        }
      ],
      "name": "depositToken",
      "outputs": [],
      "stateMutability": "payable",
      "type": "function"
    },
    {
      "inputs": [
        {
          "internalType": "uint256",
          "name": "_amount",
          "type": "uint256"
        }
      ],
      "name": "withdraw",
      "outputs": [],
      "stateMutability": "payable",
      "type": "function"
    },
    {
      "inputs": [
        {
          "internalType": "address",
          "name": "_token",
          "type": "address"
        },
        {
          "internalType": "uint256",
          "name": "_amount",
          "type": "uint256"
        }
      ],
      "name": "withdrawToken",
      "outputs": [],
      "stateMutability": "payable",
      "type": "function"
    },
    {
      "inputs": [
        {
          "internalType": "uint64",
          "name": "_recurringInterval",
          "type": "uint64"
        },
        {
          "internalType": "address",
          "name": "_contractAddress",
          "type": "address"
        },
        {
          "internalType": "uint256",
          "name": "_amount",
          "type": "uint256"
        }
      ],
      "name": "createRecurringMirroredBuyJob",
      "outputs": [],
      "stateMutability": "payable",
      "type": "function"
    },
    {
      "inputs": [
        {
          "internalType": "uint64",
          "name": "_recurringInterval",
          "type": "uint64"
        },
        {
          "internalType": "address",
          "name": "_contractAddress",
          "type": "address"
        },
        {
          "internalType": "uint256",
          "name": "_amount",
          "type": "uint256"
        }
      ],
      "name": "createRecurringMirroredSellJob",
      "outputs": [],
      "stateMutability": "payable",
      "type": "function"
    },
    {
      "inputs": [
        {
          "internalType": "uint64",
          "name": "_recurringInterval",
          "type": "uint64"
        },
        {
          "internalType": "address",
          "name": "_contractAddress",
          "type": "address"
        },
        {
          "internalType": "uint256",
          "name": "_amount",
          "type": "uint256"
        }
      ],
      "name": "createRecurringErc20BuyJob",
      "outputs": [],
      "stateMutability": "payable",
      "type": "function"
    },
    {
      "inputs": [
        {
          "internalType": "uint64",
          "name": "_recurringInterval",
          "type": "uint64"
        },
        {
          "internalType": "address",
          "name": "_contractAddress",
          "type": "address"
        },
        {
          "internalType": "uint256",
          "name": "_amount",
          "type": "uint256"
        }
      ],
      "name": "createRecurringErc20SellJob",
      "outputs": [],
      "stateMutability": "payable",
      "type": "function"
    },
    {
      "inputs": [
        {
          "internalType": "uint64",
          "name": "_recurringInterval",
          "type": "uint64"
        },
        {
          "internalType": "address",
          "name": "_contractAddress",
          "type": "address"
        },
        {
          "internalType": "uint256",
          "name": "_amount",
          "type": "uint256"
        }
      ],
      "name": "createRecurringPortfolioBuyJob",
      "outputs": [],
      "stateMutability": "payable",
      "type": "function"
    },
    {
      "inputs": [
        {
          "internalType": "uint64",
          "name": "_recurringInterval",
          "type": "uint64"
        },
        {
          "internalType": "address",
          "name": "_contractAddress",
          "type": "address"
        },
        {
          "internalType": "uint256",
          "name": "_amount",
          "type": "uint256"
        }
      ],
      "name": "createRecurringPortfolioSellJob",
      "outputs": [],
      "stateMutability": "payable",
      "type": "function"
    },
    {
      "inputs": [
        {
          "internalType": "uint32",
          "name": "jobIndex",
          "type": "uint32"
        }
      ],
      "name": "toggleJobActiveState",
      "outputs": [],
      "stateMutability": "nonpayable",
      "type": "function"
    },
    {
      "inputs": [
        {
          "internalType": "address",
          "name": "_jobUserAddress",
          "type": "address"
        },
        {
          "internalType": "uint32",
          "name": "_jobIndex",
          "type": "uint32"
        }
      ],
      "name": "executeJob",
      "outputs": [],
      "stateMutability": "nonpayable",
      "type": "function"
    }
  ],
  "bytecode": "0x60806040523480156200001157600080fd5b506040516200434738038062004347833981810160405281019062000037919062000315565b336000806101000a81548173ffffffffffffffffffffffffffffffffffffffff021916908373ffffffffffffffffffffffffffffffffffffffff16021790555084600360006101000a81548173ffffffffffffffffffffffffffffffffffffffff021916908373ffffffffffffffffffffffffffffffffffffffff16021790555083600460006101000a81548173ffffffffffffffffffffffffffffffffffffffff021916908373ffffffffffffffffffffffffffffffffffffffff16021790555082600560006101000a81548173ffffffffffffffffffffffffffffffffffffffff021916908373ffffffffffffffffffffffffffffffffffffffff16021790555081600660006101000a81548173ffffffffffffffffffffffffffffffffffffffff021916908373ffffffffffffffffffffffffffffffffffffffff1602179055508060028190555050505050506200039d565b600080fd5b600073ffffffffffffffffffffffffffffffffffffffff82169050919050565b6000620001bf8262000192565b9050919050565b6000620001d382620001b2565b9050919050565b620001e581620001c6565b8114620001f157600080fd5b50565b6000815190506200020581620001da565b92915050565b6000620002188262000192565b9050919050565b60006200022c826200020b565b9050919050565b6200023e816200021f565b81146200024a57600080fd5b50565b6000815190506200025e8162000233565b92915050565b600062000271826200020b565b9050919050565b620002838162000264565b81146200028f57600080fd5b50565b600081519050620002a38162000278565b92915050565b620002b4816200020b565b8114620002c057600080fd5b50565b600081519050620002d481620002a9565b92915050565b6000819050919050565b620002ef81620002da565b8114620002fb57600080fd5b50565b6000815190506200030f81620002e4565b92915050565b600080600080600060a086880312156200033457620003336200018d565b5b60006200034488828901620001f4565b955050602062000357888289016200024d565b94505060406200036a8882890162000292565b93505060606200037d88828901620002c3565b92505060806200039088828901620002fe565b9150509295509295909350565b613f9a80620003ad6000396000f3fe60806040526004361061016a5760003560e01c80638f84aa09116100d1578063b970781e1161008a578063d0e30db011610064578063d0e30db0146104dc578063e1489191146104e6578063fbe109b314610511578063ff019d931461052d57610171565b8063b970781e14610479578063c704b3e814610495578063cd3293de146104b157610171565b80638f84aa091461039957806392aac9df146103c45780639d55fba7146103e05780639e281a9814610409578063a3ca003714610425578063b60d42881461044e57610171565b80636f82f8fd116101235780636f82f8fd14610259578063735de9f71461029e5780637dc0d1d0146102c95780638bed9d18146102f45780638c9ecbf81461031f5780638f0cbe451461035c57610171565b80630757249f146101765780630bc5b8961461019f5780632786e402146101dc5780632e1a7d4d146102055780632fc727d014610221578063338b5dea1461023d57610171565b3661017157005b600080fd5b34801561018257600080fd5b5061019d60048036038101906101989190612dc2565b610549565b005b3480156101ab57600080fd5b506101c660048036038101906101c19190612e02565b610921565b6040516101d39190612e5b565b60405180910390f35b3480156101e857600080fd5b5061020360048036038101906101fe9190612e76565b610946565b005b61021f600480360381019061021a9190612ecf565b610992565b005b61023b60048036038101906102369190612f3c565b610aba565b005b61025760048036038101906102529190612f8f565b610ae1565b005b34801561026557600080fd5b50610280600480360381019061027b9190612f8f565b610c3d565b604051610295999897969594939291906130c7565b60405180910390f35b3480156102aa57600080fd5b506102b3610d23565b6040516102c091906131b3565b60405180910390f35b3480156102d557600080fd5b506102de610d49565b6040516102eb91906131ef565b60405180910390f35b34801561030057600080fd5b50610309610d6f565b604051610316919061320a565b60405180910390f35b34801561032b57600080fd5b5061034660048036038101906103419190612e76565b610d95565b6040516103539190613234565b60405180910390f35b34801561036857600080fd5b50610383600480360381019061037e9190612e76565b610db8565b6040516103909190612e5b565b60405180910390f35b3480156103a557600080fd5b506103ae610dd0565b6040516103bb919061320a565b60405180910390f35b6103de60048036038101906103d99190612f3c565b610df4565b005b3480156103ec57600080fd5b5061040760048036038101906104029190612ecf565b610e1b565b005b610423600480360381019061041e9190612f8f565b610e2d565b005b34801561043157600080fd5b5061044c6004803603810190610447919061324f565b611008565b005b34801561045a57600080fd5b506104636112da565b60405161047091906132af565b60405180910390f35b610493600480360381019061048e9190612f3c565b611300565b005b6104af60048036038101906104aa9190612f3c565b611326565b005b3480156104bd57600080fd5b506104c661134d565b6040516104d391906132eb565b60405180910390f35b6104e4611373565b005b3480156104f257600080fd5b506104fb6113cb565b6040516105089190612e5b565b60405180910390f35b61052b60048036038101906105269190612f3c565b6113d1565b005b61054760048036038101906105429190612f3c565b6113f7565b005b61055161141e565b6000600a60008473ffffffffffffffffffffffffffffffffffffffff1673ffffffffffffffffffffffffffffffffffffffff1681526020019081526020016000208263ffffffff16815481106105aa576105a9613306565b5b9060005260206000209060060201604051806101200160405290816000820160009054906101000a900473ffffffffffffffffffffffffffffffffffffffff1673ffffffffffffffffffffffffffffffffffffffff1673ffffffffffffffffffffffffffffffffffffffff1681526020016000820160149054906101000a900460ff161515151581526020016000820160159054906101000a900460ff16600281111561065a57610659612ff9565b5b600281111561066c5761066b612ff9565b5b81526020016001820160009054906101000a900473ffffffffffffffffffffffffffffffffffffffff1673ffffffffffffffffffffffffffffffffffffffff1673ffffffffffffffffffffffffffffffffffffffff1681526020016001820160149054906101000a900467ffffffffffffffff1667ffffffffffffffff1667ffffffffffffffff168152602001600282015481526020016003820160009054906101000a900460ff16600181111561072757610726612ff9565b5b600181111561073957610738612ff9565b5b81526020016004820154815260200160058201548152505090508060200151610797576040517f08c379a000000000000000000000000000000000000000000000000000000000815260040161078e90613392565b60405180910390fd5b42816080015167ffffffffffffffff168261010001516107b791906133e1565b11156107f8576040517f08c379a00000000000000000000000000000000000000000000000000000000081526004016107ef90613461565b60405180910390fd5b6001600281111561080c5761080b612ff9565b5b8160400151600281111561082357610822612ff9565b5b0361083657610831816114b0565b6108af565b60028081111561084957610848612ff9565b5b816040015160028111156108605761085f612ff9565b5b036108735761086e816117ef565b6108ae565b6000600281111561088757610886612ff9565b5b8160400151600281111561089e5761089d612ff9565b5b036108ad576108ac81611be4565b5b5b5b42600a60008573ffffffffffffffffffffffffffffffffffffffff1673ffffffffffffffffffffffffffffffffffffffff1681526020019081526020016000208363ffffffff168154811061090757610906613306565b5b906000526020600020906006020160050181905550505050565b6008602052816000526040600020602052806000526040600020600091509150505481565b61094e61209a565b80600160006101000a81548173ffffffffffffffffffffffffffffffffffffffff021916908373ffffffffffffffffffffffffffffffffffffffff16021790555050565b6000600760003373ffffffffffffffffffffffffffffffffffffffff1673ffffffffffffffffffffffffffffffffffffffff16815260200190815260200160002054905081811015610a19576040517f08c379a0000000000000000000000000000000000000000000000000000000008152600401610a10906134cd565b60405180910390fd5b81600760003373ffffffffffffffffffffffffffffffffffffffff1673ffffffffffffffffffffffffffffffffffffffff1681526020019081526020016000206000828254610a6891906134ed565b925050819055503373ffffffffffffffffffffffffffffffffffffffff166108fc839081150290604051600060405180830381858888f19350505050158015610ab5573d6000803e3d6000fd5b505050565b610ac261212a565b82610acc81612171565b610adb846002600186866121db565b50505050565b60008273ffffffffffffffffffffffffffffffffffffffff166323b872dd3330856040518463ffffffff1660e01b8152600401610b2093929190613521565b6020604051808303816000875af1158015610b3f573d6000803e3d6000fd5b505050506040513d601f19601f82011682018060405250810190610b639190613584565b905080610ba5576040517f08c379a0000000000000000000000000000000000000000000000000000000008152600401610b9c906135fd565b60405180910390fd5b81600860003373ffffffffffffffffffffffffffffffffffffffff1673ffffffffffffffffffffffffffffffffffffffff16815260200190815260200160002060008573ffffffffffffffffffffffffffffffffffffffff1673ffffffffffffffffffffffffffffffffffffffff1681526020019081526020016000206000828254610c3191906133e1565b92505081905550505050565b600a6020528160005260406000208181548110610c5957600080fd5b9060005260206000209060060201600091509150508060000160009054906101000a900473ffffffffffffffffffffffffffffffffffffffff16908060000160149054906101000a900460ff16908060000160159054906101000a900460ff16908060010160009054906101000a900473ffffffffffffffffffffffffffffffffffffffff16908060010160149054906101000a900467ffffffffffffffff16908060020154908060030160009054906101000a900460ff16908060040154908060050154905089565b600660009054906101000a900473ffffffffffffffffffffffffffffffffffffffff1681565b600560009054906101000a900473ffffffffffffffffffffffffffffffffffffffff1681565b600160009054906101000a900473ffffffffffffffffffffffffffffffffffffffff1681565b60096020528060005260406000206000915054906101000a900463ffffffff1681565b60076020528060005260406000206000915090505481565b60008054906101000a900473ffffffffffffffffffffffffffffffffffffffff1681565b610dfc61212a565b82610e0681612171565b610e15846002600086866121db565b50505050565b610e2361209a565b8060028190555050565b6000600860003373ffffffffffffffffffffffffffffffffffffffff1673ffffffffffffffffffffffffffffffffffffffff16815260200190815260200160002060008473ffffffffffffffffffffffffffffffffffffffff1673ffffffffffffffffffffffffffffffffffffffff16815260200190815260200160002054905081811015610ef1576040517f08c379a0000000000000000000000000000000000000000000000000000000008152600401610ee890613669565b60405180910390fd5b81600860003373ffffffffffffffffffffffffffffffffffffffff1673ffffffffffffffffffffffffffffffffffffffff16815260200190815260200160002060008573ffffffffffffffffffffffffffffffffffffffff1673ffffffffffffffffffffffffffffffffffffffff1681526020019081526020016000206000828254610f7d91906134ed565b925050819055508273ffffffffffffffffffffffffffffffffffffffff1663a9059cbb33846040518363ffffffff1660e01b8152600401610fbf929190613689565b6020604051808303816000875af1158015610fde573d6000803e3d6000fd5b505050506040513d601f19601f820116820180604052508101906110029190613584565b50505050565b6000600a60003373ffffffffffffffffffffffffffffffffffffffff1673ffffffffffffffffffffffffffffffffffffffff1681526020019081526020016000208263ffffffff168154811061106157611060613306565b5b9060005260206000209060060201604051806101200160405290816000820160009054906101000a900473ffffffffffffffffffffffffffffffffffffffff1673ffffffffffffffffffffffffffffffffffffffff1673ffffffffffffffffffffffffffffffffffffffff1681526020016000820160149054906101000a900460ff161515151581526020016000820160159054906101000a900460ff16600281111561111157611110612ff9565b5b600281111561112357611122612ff9565b5b81526020016001820160009054906101000a900473ffffffffffffffffffffffffffffffffffffffff1673ffffffffffffffffffffffffffffffffffffffff1673ffffffffffffffffffffffffffffffffffffffff1681526020016001820160149054906101000a900467ffffffffffffffff1667ffffffffffffffff1667ffffffffffffffff168152602001600282015481526020016003820160009054906101000a900460ff1660018111156111de576111dd612ff9565b5b60018111156111f0576111ef612ff9565b5b815260200160048201548152602001600582015481525050905060008160e0015111611251576040517f08c379a0000000000000000000000000000000000000000000000000000000008152600401611248906136fe565b60405180910390fd5b806020015115600a60003373ffffffffffffffffffffffffffffffffffffffff1673ffffffffffffffffffffffffffffffffffffffff1681526020019081526020016000208363ffffffff16815481106112ae576112ad613306565b5b906000526020600020906006020160000160146101000a81548160ff0219169083151502179055505050565b600360009054906101000a900473ffffffffffffffffffffffffffffffffffffffff1681565b61130861212a565b8261131281612171565b6113208460018086866121db565b50505050565b61132e61212a565b8261133881612171565b611347846001600086866121db565b50505050565b600460009054906101000a900473ffffffffffffffffffffffffffffffffffffffff1681565b34600760003373ffffffffffffffffffffffffffffffffffffffff1673ffffffffffffffffffffffffffffffffffffffff16815260200190815260200160002060008282546113c291906133e1565b92505081905550565b60025481565b6113d961212a565b826113e381612171565b6113f18460008086866121db565b50505050565b6113ff61212a565b8261140981612171565b611418846000600186866121db565b50505050565b600160009054906101000a900473ffffffffffffffffffffffffffffffffffffffff1673ffffffffffffffffffffffffffffffffffffffff163373ffffffffffffffffffffffffffffffffffffffff16146114ae576040517f08c379a00000000000000000000000000000000000000000000000000000000081526004016114a59061376a565b60405180910390fd5b565b600060076000836000015173ffffffffffffffffffffffffffffffffffffffff1673ffffffffffffffffffffffffffffffffffffffff168152602001908152602001600020549050600060025490506000600181111561151357611512612ff9565b5b8360c00151600181111561152a57611529612ff9565b5b0361167f576000600560009054906101000a900473ffffffffffffffffffffffffffffffffffffffff1673ffffffffffffffffffffffffffffffffffffffff166341976e0985606001516040518263ffffffff1660e01b8152600401611590919061320a565b6040805180830381865afa1580156115ac573d6000803e3d6000fd5b505050506040513d601f19601f820116820180604052508101906115d0919061379f565b5090506000670de0b6b3a7640000838660a00151846115ef91906137df565b6115f991906133e1565b61160391906133e1565b905083811115611648576040517f08c379a000000000000000000000000000000000000000000000000000000000815260040161163f90613885565b60405180910390fd5b600061165c86606001518760a001516124ca565b9050611677866060015187600001518860a001518488612670565b5050506117ea565b60018081111561169257611691612ff9565b5b8360c0015160018111156116a9576116a8612ff9565b5b036117e957818111156116f1576040517f08c379a00000000000000000000000000000000000000000000000000000000081526004016116e890613885565b60405180910390fd5b600060086000856000015173ffffffffffffffffffffffffffffffffffffffff1673ffffffffffffffffffffffffffffffffffffffff1681526020019081526020016000206000856060015173ffffffffffffffffffffffffffffffffffffffff1673ffffffffffffffffffffffffffffffffffffffff1681526020019081526020016000205490508360a001518110156117c1576040517f08c379a00000000000000000000000000000000000000000000000000000000081526004016117b890613669565b60405180910390fd5b60006117d585606001518660a001516127da565b90506117e6856000015182856128d6565b50505b5b505050565b600060076000836000015173ffffffffffffffffffffffffffffffffffffffff1673ffffffffffffffffffffffffffffffffffffffff168152602001908152602001600020549050600060025490506000600181111561185257611851612ff9565b5b8360c00151600181111561186957611868612ff9565b5b03611ab5576000600360009054906101000a900473ffffffffffffffffffffffffffffffffffffffff1673ffffffffffffffffffffffffffffffffffffffff1663fcd802b16040518163ffffffff1660e01b8152600401608060405180830381865afa1580156118dd573d6000803e3d6000fd5b505050506040513d601f19601f8201168201806040525081019061190191906138df565b50925050506000818560a00151600360009054906101000a900473ffffffffffffffffffffffffffffffffffffffff1673ffffffffffffffffffffffffffffffffffffffff16635b1dac606040518163ffffffff1660e01b8152600401602060405180830381865afa15801561197b573d6000803e3d6000fd5b505050506040513d601f19601f8201168201806040525081019061199f9190613946565b6119a991906137df565b6119b391906133e1565b90508383826119c291906133e1565b1115611a03576040517f08c379a00000000000000000000000000000000000000000000000000000000081526004016119fa90613885565b60405180910390fd5b600360009054906101000a900473ffffffffffffffffffffffffffffffffffffffff1673ffffffffffffffffffffffffffffffffffffffff1663d1a93d18828760a001516040518363ffffffff1660e01b8152600401611a639190612e5b565b6000604051808303818588803b158015611a7c57600080fd5b505af1158015611a90573d6000803e3d6000fd5b5050505050611aae856060015186600001518760a001518487612670565b5050611bdf565b600180811115611ac857611ac7612ff9565b5b8360c001516001811115611adf57611ade612ff9565b5b03611bde5781811115611b27576040517f08c379a0000000000000000000000000000000000000000000000000000000008152600401611b1e90613885565b60405180910390fd5b6000600360009054906101000a900473ffffffffffffffffffffffffffffffffffffffff1673ffffffffffffffffffffffffffffffffffffffff16634ba8ae818560a001516040518263ffffffff1660e01b8152600401611b889190612e5b565b6020604051808303816000875af1158015611ba7573d6000803e3d6000fd5b505050506040513d601f19601f82011682018060405250810190611bcb9190613946565b9050611bdc846000015182846128d6565b505b5b505050565b600081606001519050600060076000846000015173ffffffffffffffffffffffffffffffffffffffff1673ffffffffffffffffffffffffffffffffffffffff168152602001908152602001600020549050600060025490506000600560009054906101000a900473ffffffffffffffffffffffffffffffffffffffff1673ffffffffffffffffffffffffffffffffffffffff166341976e0986606001516040518263ffffffff1660e01b8152600401611c9d919061320a565b6040805180830381865afa158015611cb9573d6000803e3d6000fd5b505050506040513d601f19601f82011682018060405250810190611cdd919061379f565b50905060006001811115611cf457611cf3612ff9565b5b8560c001516001811115611d0b57611d0a612ff9565b5b03611eba5760008560a0015182611d2291906137df565b905060008573ffffffffffffffffffffffffffffffffffffffff1663e14891916040518163ffffffff1660e01b8152600401602060405180830381865afa158015611d71573d6000803e3d6000fd5b505050506040513d601f19601f82011682018060405250810190611d959190613946565b90506000670de0b6b3a7640000828685611daf91906133e1565b611db991906133e1565b611dc391906133e1565b905085811115611e08576040517f08c379a0000000000000000000000000000000000000000000000000000000008152600401611dff90613885565b60405180910390fd5b60008773ffffffffffffffffffffffffffffffffffffffff1663a0712d688486611e3291906133e1565b8b60a001516040518363ffffffff1660e01b8152600401611e539190612e5b565b60206040518083038185885af1158015611e71573d6000803e3d6000fd5b50505050506040513d601f19601f82011682018060405250810190611e969190613946565b9050611eb189606001518a600001518b60a00151848a612670565b50505050612093565b600180811115611ecd57611ecc612ff9565b5b8560c001516001811115611ee457611ee3612ff9565b5b036120925782821115611f2c576040517f08c379a0000000000000000000000000000000000000000000000000000000008152600401611f2390613885565b60405180910390fd5b600060086000876000015173ffffffffffffffffffffffffffffffffffffffff1673ffffffffffffffffffffffffffffffffffffffff1681526020019081526020016000206000876060015173ffffffffffffffffffffffffffffffffffffffff1673ffffffffffffffffffffffffffffffffffffffff1681526020019081526020016000205490508560a00151811015611ffc576040517f08c379a0000000000000000000000000000000000000000000000000000000008152600401611ff390613669565b60405180910390fd5b60008573ffffffffffffffffffffffffffffffffffffffff166342966c688860a001516040518263ffffffff1660e01b815260040161203b9190612e5b565b6020604051808303816000875af115801561205a573d6000803e3d6000fd5b505050506040513d601f19601f8201168201806040525081019061207e9190613946565b905061208f876000015182866128d6565b50505b5b5050505050565b60008054906101000a900473ffffffffffffffffffffffffffffffffffffffff1673ffffffffffffffffffffffffffffffffffffffff163373ffffffffffffffffffffffffffffffffffffffff1614612128576040517f08c379a000000000000000000000000000000000000000000000000000000000815260040161211f906139e5565b60405180910390fd5b565b60025434101561216f576040517f08c379a000000000000000000000000000000000000000000000000000000000815260040161216690613a51565b60405180910390fd5b565b60058167ffffffffffffffff16101580156121995750620806888167ffffffffffffffff1611155b6121d8576040517f08c379a00000000000000000000000000000000000000000000000000000000081526004016121cf90613ae3565b60405180910390fd5b50565b60006040518061012001604052803373ffffffffffffffffffffffffffffffffffffffff16815260200160011515815260200186600281111561222157612220612ff9565b5b81526020018473ffffffffffffffffffffffffffffffffffffffff1681526020018767ffffffffffffffff16815260200183815260200185600181111561226b5761226a612ff9565b5b815260200142815260200160008152509050600960003373ffffffffffffffffffffffffffffffffffffffff1673ffffffffffffffffffffffffffffffffffffffff168152602001908152602001600020600081819054906101000a900463ffffffff16809291906122dc90613b03565b91906101000a81548163ffffffff021916908363ffffffff16021790555050600a60003373ffffffffffffffffffffffffffffffffffffffff1673ffffffffffffffffffffffffffffffffffffffff16815260200190815260200160002081908060018154018082558091505060019003906000526020600020906006020160009091909190915060008201518160000160006101000a81548173ffffffffffffffffffffffffffffffffffffffff021916908373ffffffffffffffffffffffffffffffffffffffff16021790555060208201518160000160146101000a81548160ff02191690831515021790555060408201518160000160156101000a81548160ff021916908360028111156123f6576123f5612ff9565b5b021790555060608201518160010160006101000a81548173ffffffffffffffffffffffffffffffffffffffff021916908373ffffffffffffffffffffffffffffffffffffffff16021790555060808201518160010160146101000a81548167ffffffffffffffff021916908367ffffffffffffffff16021790555060a0820151816002015560c08201518160030160006101000a81548160ff021916908360018111156124a6576124a5612ff9565b5b021790555060e0820151816004015561010082015181600501555050505050505050565b600080601e426124da91906133e1565b90506000600660009054906101000a900473ffffffffffffffffffffffffffffffffffffffff1673ffffffffffffffffffffffffffffffffffffffff1663fb3bdb418561252688612a06565b30866040518563ffffffff1660e01b81526004016125479493929190613bed565b6000604051808303816000875af1158015612566573d6000803e3d6000fd5b505050506040513d6000823e3d601f19601f8201168201806040525081019061258f9190613d92565b905060003373ffffffffffffffffffffffffffffffffffffffff16476040516125b790613e0c565b60006040518083038185875af1925050503d80600081146125f4576040519150601f19603f3d011682016040523d82523d6000602084013e6125f9565b606091505b505090508061263d576040517f08c379a000000000000000000000000000000000000000000000000000000000815260040161263490613e6d565b60405180910390fd5b816001835161264c91906134ed565b8151811061265d5761265c613306565b5b6020026020010151935050505092915050565b600460009054906101000a900473ffffffffffffffffffffffffffffffffffffffff1673ffffffffffffffffffffffffffffffffffffffff1663d0e30db0826040518263ffffffff1660e01b81526004016000604051808303818588803b1580156126da57600080fd5b505af11580156126ee573d6000803e3d6000fd5b505050505081816126ff91906133e1565b600760008673ffffffffffffffffffffffffffffffffffffffff1673ffffffffffffffffffffffffffffffffffffffff168152602001908152602001600020600082825461274d91906134ed565b925050819055508473ffffffffffffffffffffffffffffffffffffffff1663a9059cbb85856040518363ffffffff1660e01b815260040161278f929190613689565b6020604051808303816000875af11580156127ae573d6000803e3d6000fd5b505050506040513d601f19601f820116820180604052508101906127d29190613584565b505050505050565b600080601e426127ea91906133e1565b90506000600660009054906101000a900473ffffffffffffffffffffffffffffffffffffffff1673ffffffffffffffffffffffffffffffffffffffff166318cbafe585600161283889612b8d565b30876040518663ffffffff1660e01b815260040161285a959493929190613ec8565b6000604051808303816000875af1158015612879573d6000803e3d6000fd5b505050506040513d6000823e3d601f19601f820116820180604052508101906128a29190613d92565b905080600182516128b391906134ed565b815181106128c4576128c3613306565b5b60200260200101519250505092915050565b600460009054906101000a900473ffffffffffffffffffffffffffffffffffffffff1673ffffffffffffffffffffffffffffffffffffffff1663d0e30db0826040518263ffffffff1660e01b81526004016000604051808303818588803b15801561294057600080fd5b505af1158015612954573d6000803e3d6000fd5b505050505080600760008573ffffffffffffffffffffffffffffffffffffffff1673ffffffffffffffffffffffffffffffffffffffff16815260200190815260200160002060008282546129a891906134ed565b925050819055508273ffffffffffffffffffffffffffffffffffffffff166108fc82846129d591906134ed565b9081150290604051600060405180830381858888f19350505050158015612a00573d6000803e3d6000fd5b50505050565b60606000600267ffffffffffffffff811115612a2557612a24613c4f565b5b604051908082528060200260200182016040528015612a535781602001602082028036833780820191505090505b509050600660009054906101000a900473ffffffffffffffffffffffffffffffffffffffff1673ffffffffffffffffffffffffffffffffffffffff1663ad5c46486040518163ffffffff1660e01b8152600401602060405180830381865afa158015612ac3573d6000803e3d6000fd5b505050506040513d601f19601f82011682018060405250810190612ae79190613f37565b81600081518110612afb57612afa613306565b5b602002602001019073ffffffffffffffffffffffffffffffffffffffff16908173ffffffffffffffffffffffffffffffffffffffff16815250508281600181518110612b4a57612b49613306565b5b602002602001019073ffffffffffffffffffffffffffffffffffffffff16908173ffffffffffffffffffffffffffffffffffffffff168152505080915050919050565b60606000600267ffffffffffffffff811115612bac57612bab613c4f565b5b604051908082528060200260200182016040528015612bda5781602001602082028036833780820191505090505b5090508281600081518110612bf257612bf1613306565b5b602002602001019073ffffffffffffffffffffffffffffffffffffffff16908173ffffffffffffffffffffffffffffffffffffffff1681525050600660009054906101000a900473ffffffffffffffffffffffffffffffffffffffff1673ffffffffffffffffffffffffffffffffffffffff1663ad5c46486040518163ffffffff1660e01b8152600401602060405180830381865afa158015612c99573d6000803e3d6000fd5b505050506040513d601f19601f82011682018060405250810190612cbd9190613f37565b81600181518110612cd157612cd0613306565b5b602002602001019073ffffffffffffffffffffffffffffffffffffffff16908173ffffffffffffffffffffffffffffffffffffffff168152505080915050919050565b6000604051905090565b600080fd5b600080fd5b600073ffffffffffffffffffffffffffffffffffffffff82169050919050565b6000612d5382612d28565b9050919050565b612d6381612d48565b8114612d6e57600080fd5b50565b600081359050612d8081612d5a565b92915050565b600063ffffffff82169050919050565b612d9f81612d86565b8114612daa57600080fd5b50565b600081359050612dbc81612d96565b92915050565b60008060408385031215612dd957612dd8612d1e565b5b6000612de785828601612d71565b9250506020612df885828601612dad565b9150509250929050565b60008060408385031215612e1957612e18612d1e565b5b6000612e2785828601612d71565b9250506020612e3885828601612d71565b9150509250929050565b6000819050919050565b612e5581612e42565b82525050565b6000602082019050612e706000830184612e4c565b92915050565b600060208284031215612e8c57612e8b612d1e565b5b6000612e9a84828501612d71565b91505092915050565b612eac81612e42565b8114612eb757600080fd5b50565b600081359050612ec981612ea3565b92915050565b600060208284031215612ee557612ee4612d1e565b5b6000612ef384828501612eba565b91505092915050565b600067ffffffffffffffff82169050919050565b612f1981612efc565b8114612f2457600080fd5b50565b600081359050612f3681612f10565b92915050565b600080600060608486031215612f5557612f54612d1e565b5b6000612f6386828701612f27565b9350506020612f7486828701612d71565b9250506040612f8586828701612eba565b9150509250925092565b60008060408385031215612fa657612fa5612d1e565b5b6000612fb485828601612d71565b9250506020612fc585828601612eba565b9150509250929050565b612fd881612d48565b82525050565b60008115159050919050565b612ff381612fde565b82525050565b7f4e487b7100000000000000000000000000000000000000000000000000000000600052602160045260246000fd5b6003811061303957613038612ff9565b5b50565b600081905061304a82613028565b919050565b600061305a8261303c565b9050919050565b61306a8161304f565b82525050565b61307981612efc565b82525050565b600281106130905761308f612ff9565b5b50565b60008190506130a18261307f565b919050565b60006130b182613093565b9050919050565b6130c1816130a6565b82525050565b6000610120820190506130dd600083018c612fcf565b6130ea602083018b612fea565b6130f7604083018a613061565b6131046060830189612fcf565b6131116080830188613070565b61311e60a0830187612e4c565b61312b60c08301866130b8565b61313860e0830185612e4c565b613146610100830184612e4c565b9a9950505050505050505050565b6000819050919050565b600061317961317461316f84612d28565b613154565b612d28565b9050919050565b600061318b8261315e565b9050919050565b600061319d82613180565b9050919050565b6131ad81613192565b82525050565b60006020820190506131c860008301846131a4565b92915050565b60006131d982613180565b9050919050565b6131e9816131ce565b82525050565b600060208201905061320460008301846131e0565b92915050565b600060208201905061321f6000830184612fcf565b92915050565b61322e81612d86565b82525050565b60006020820190506132496000830184613225565b92915050565b60006020828403121561326557613264612d1e565b5b600061327384828501612dad565b91505092915050565b60006132878261315e565b9050919050565b60006132998261327c565b9050919050565b6132a98161328e565b82525050565b60006020820190506132c460008301846132a0565b92915050565b60006132d582613180565b9050919050565b6132e5816132ca565b82525050565b600060208201905061330060008301846132dc565b92915050565b7f4e487b7100000000000000000000000000000000000000000000000000000000600052603260045260246000fd5b600082825260208201905092915050565b7f4a6f62206d757374206265206163746976650000000000000000000000000000600082015250565b600061337c601283613335565b915061338782613346565b602082019050919050565b600060208201905081810360008301526133ab8161336f565b9050919050565b7f4e487b7100000000000000000000000000000000000000000000000000000000600052601160045260246000fd5b60006133ec82612e42565b91506133f783612e42565b925082820190508082111561340f5761340e6133b2565b5b92915050565b7f4a6f62206e6f7420726561647920666f7220657865637574696f6e2079657400600082015250565b600061344b601f83613335565b915061345682613415565b602082019050919050565b6000602082019050818103600083015261347a8161343e565b9050919050565b7f496e73756666696369656e742062616c616e6365210000000000000000000000600082015250565b60006134b7601583613335565b91506134c282613481565b602082019050919050565b600060208201905081810360008301526134e6816134aa565b9050919050565b60006134f882612e42565b915061350383612e42565b925082820390508181111561351b5761351a6133b2565b5b92915050565b60006060820190506135366000830186612fcf565b6135436020830185612fcf565b6135506040830184612e4c565b949350505050565b61356181612fde565b811461356c57600080fd5b50565b60008151905061357e81613558565b92915050565b60006020828403121561359a57613599612d1e565b5b60006135a88482850161356f565b91505092915050565b7f556e61626c6520746f206465706f73697420746f6b656e732100000000000000600082015250565b60006135e7601983613335565b91506135f2826135b1565b602082019050919050565b60006020820190508181036000830152613616816135da565b9050919050565b7f496e73756666696369656e7420746f6b656e2062616c616e6365210000000000600082015250565b6000613653601b83613335565b915061365e8261361d565b602082019050919050565b6000602082019050818103600083015261368281613646565b9050919050565b600060408201905061369e6000830185612fcf565b6136ab6020830184612e4c565b9392505050565b7f4a6f6220646f65736e2774206578697374000000000000000000000000000000600082015250565b60006136e8601183613335565b91506136f3826136b2565b602082019050919050565b60006020820190508181036000830152613717816136db565b9050919050565b7f43616c6c6572206d75737420626520746865206170706c69636174696f6e2100600082015250565b6000613754601f83613335565b915061375f8261371e565b602082019050919050565b6000602082019050818103600083015261378381613747565b9050919050565b60008151905061379981612ea3565b92915050565b600080604083850312156137b6576137b5612d1e565b5b60006137c48582860161378a565b92505060206137d58582860161378a565b9150509250929050565b60006137ea82612e42565b91506137f583612e42565b9250817fffffffffffffffffffffffffffffffffffffffffffffffffffffffffffffffff048311821515161561382e5761382d6133b2565b5b828202905092915050565b7f496e73756666696369656e7420757365722062616c616e636521000000000000600082015250565b600061386f601a83613335565b915061387a82613839565b602082019050919050565b6000602082019050818103600083015261389e81613862565b9050919050565b600061ffff82169050919050565b6138bc816138a5565b81146138c757600080fd5b50565b6000815190506138d9816138b3565b92915050565b600080600080608085870312156138f9576138f8612d1e565b5b60006139078782880161356f565b9450506020613918878288016138ca565b93505060406139298782880161378a565b925050606061393a8782880161356f565b91505092959194509250565b60006020828403121561395c5761395b612d1e565b5b600061396a8482850161378a565b91505092915050565b7f43616c6c6572206d7573742062652074686520636f6e7472616374206f776e6560008201527f7221000000000000000000000000000000000000000000000000000000000000602082015250565b60006139cf602283613335565b91506139da82613973565b604082019050919050565b600060208201905081810360008301526139fe816139c2565b9050919050565b7f4d696e2e20636f6d6d697373696f6e2068617320746f20626520706169642100600082015250565b6000613a3b601f83613335565b9150613a4682613a05565b602082019050919050565b60006020820190508181036000830152613a6a81613a2e565b9050919050565b7f496e74657276616c2073686f756c64206265206265747765656e203520616e6460008201527f20353235393630206d696e757465730000000000000000000000000000000000602082015250565b6000613acd602f83613335565b9150613ad882613a71565b604082019050919050565b60006020820190508181036000830152613afc81613ac0565b9050919050565b6000613b0e82612d86565b915063ffffffff8203613b2457613b236133b2565b5b600182019050919050565b600081519050919050565b600082825260208201905092915050565b6000819050602082019050919050565b613b6481612d48565b82525050565b6000613b768383613b5b565b60208301905092915050565b6000602082019050919050565b6000613b9a82613b2f565b613ba48185613b3a565b9350613baf83613b4b565b8060005b83811015613be0578151613bc78882613b6a565b9750613bd283613b82565b925050600181019050613bb3565b5085935050505092915050565b6000608082019050613c026000830187612e4c565b8181036020830152613c148186613b8f565b9050613c236040830185612fcf565b613c306060830184612e4c565b95945050505050565b600080fd5b6000601f19601f8301169050919050565b7f4e487b7100000000000000000000000000000000000000000000000000000000600052604160045260246000fd5b613c8782613c3e565b810181811067ffffffffffffffff82111715613ca657613ca5613c4f565b5b80604052505050565b6000613cb9612d14565b9050613cc58282613c7e565b919050565b600067ffffffffffffffff821115613ce557613ce4613c4f565b5b602082029050602081019050919050565b600080fd5b6000613d0e613d0984613cca565b613caf565b90508083825260208201905060208402830185811115613d3157613d30613cf6565b5b835b81811015613d5a5780613d46888261378a565b845260208401935050602081019050613d33565b5050509392505050565b600082601f830112613d7957613d78613c39565b5b8151613d89848260208601613cfb565b91505092915050565b600060208284031215613da857613da7612d1e565b5b600082015167ffffffffffffffff811115613dc657613dc5612d23565b5b613dd284828501613d64565b91505092915050565b600081905092915050565b50565b6000613df6600083613ddb565b9150613e0182613de6565b600082019050919050565b6000613e1782613de9565b9150819050919050565b7f726566756e64206661696c656400000000000000000000000000000000000000600082015250565b6000613e57600d83613335565b9150613e6282613e21565b602082019050919050565b60006020820190508181036000830152613e8681613e4a565b9050919050565b6000819050919050565b6000613eb2613ead613ea884613e8d565b613154565b612e42565b9050919050565b613ec281613e97565b82525050565b600060a082019050613edd6000830188612e4c565b613eea6020830187613eb9565b8181036040830152613efc8186613b8f565b9050613f0b6060830185612fcf565b613f186080830184612e4c565b9695505050505050565b600081519050613f3181612d5a565b92915050565b600060208284031215613f4d57613f4c612d1e565b5b6000613f5b84828501613f22565b9150509291505056fea264697066735822122068a503d025f47be376e1abe2283c6f69f7926db085e3e2127bb4a9395cbf74d264736f6c63430008100033",
  "immutableReferences": {},
  "source": "pragma solidity ^0.8.16;\n\nimport \"./interfaces/IERC20.sol\";\nimport \"./interfaces/IUniswapV2Router02.sol\";\nimport \"./Fund.sol\";\nimport \"./Reserve.sol\";\nimport \"./Oracle.sol\";\nimport \"./Mirrored.sol\";\nimport \"./TokenERC20.sol\";\n\ncontract AmountLimitedCron {\n    enum Operations {\n        Buy,\n        Sell\n    }\n\n    enum ContractTypes {\n        Mirrored,\n        ERC20,\n        Portfolio\n    }\n\n    struct Job {\n        address ownerAddress;\n        bool isActive;\n        ContractTypes contractType;\n        address contractAddress;\n        uint64 recurringInterval;\n        uint256 amount;\n        Operations operation;\n        uint256 createdAt;\n        uint256 lastExecution;\n    }\n\n    address public ownerAddress;\n    address public applicationAddress;\n    uint256 public commission;\n\n    Fund public fund;\n    Reserve public reserve;\n    Oracle public oracle;\n    IUniswapV2Router02 public uniswapRouter;\n\n    mapping(address => uint256) public jobNativeBalances;\n    mapping(address => mapping(address => uint256)) public jobTokenBalances;\n    mapping(address => uint32) public jobUserCount;\n    mapping(address => Job[]) public jobs;\n\n    constructor(\n        Fund _fund,\n        Reserve _reserve,\n        Oracle _oracle,\n        address _uniswapRouterAddress,\n        uint256 _commission\n    ) {\n        ownerAddress = msg.sender;\n        fund = _fund;\n        reserve = _reserve;\n        oracle = _oracle;\n        uniswapRouter = IUniswapV2Router02(_uniswapRouterAddress);\n        commission = _commission;\n    }\n\n    function _onlyOwner() private view {\n        require(\n            msg.sender == ownerAddress,\n            \"Caller must be the contract owner!\"\n        );\n    }\n\n    modifier onlyOwner() {\n        _onlyOwner();\n        _;\n    }\n\n    function _onlyApplication() private view {\n        require(\n            msg.sender == applicationAddress,\n            \"Caller must be the application!\"\n        );\n    }\n\n    modifier onlyApplication() {\n        _onlyApplication();\n        _;\n    }\n\n    function _mustHaveCorrectInputs(uint64 _interval) private pure {\n        require(\n            _interval >= 5 && _interval <= 525960,\n            \"Interval should be between 5 and 525960 minutes\"\n        );\n    }\n\n    modifier mustHaveCorrectInputs(uint64 _interval) {\n        _mustHaveCorrectInputs(_interval);\n        _;\n    }\n\n    function _mustPayCommission() private view {\n        require(msg.value >= commission, \"Min. commission has to be paid!\");\n    }\n\n    modifier mustPayCommission() {\n        _mustPayCommission();\n        _;\n    }\n\n    function updateApplicationAddress(address newApplicationAddress)\n        public\n        onlyOwner\n    {\n        applicationAddress = newApplicationAddress;\n    }\n\n    function updateCommission(uint256 newCommission) public onlyOwner {\n        commission = newCommission;\n    }\n\n    function deposit() public payable {\n        jobNativeBalances[msg.sender] += msg.value;\n    }\n\n    function depositToken(address _token, uint256 _amount) public payable {\n        bool success = IERC20(_token).transferFrom(\n            msg.sender,\n            address(this),\n            _amount\n        );\n        require(success, \"Unable to deposit tokens!\");\n        jobTokenBalances[msg.sender][_token] += _amount;\n    }\n\n    function withdraw(uint256 _amount) public payable {\n        uint256 balance = jobNativeBalances[msg.sender];\n        {\n            require(balance >= _amount, \"Insufficient balance!\");\n        }\n        jobNativeBalances[msg.sender] -= _amount;\n        payable(msg.sender).transfer(_amount);\n    }\n\n    function withdrawToken(address _token, uint256 _amount) public payable {\n        uint256 balance = jobTokenBalances[msg.sender][_token];\n        {\n            require(balance >= _amount, \"Insufficient token balance!\");\n        }\n        jobTokenBalances[msg.sender][_token] -= _amount;\n        IERC20(_token).transfer(msg.sender, _amount);\n    }\n\n    function createRecurringMirroredBuyJob(\n        uint64 _recurringInterval,\n        address _contractAddress,\n        uint256 _amount\n    )\n        external\n        payable\n        mustPayCommission\n        mustHaveCorrectInputs(_recurringInterval)\n    {\n        _createRecurringJob(\n            _recurringInterval,\n            ContractTypes.Mirrored,\n            Operations.Buy,\n            _contractAddress,\n            _amount\n        );\n    }\n\n    function createRecurringMirroredSellJob(\n        uint64 _recurringInterval,\n        address _contractAddress,\n        uint256 _amount\n    )\n        external\n        payable\n        mustPayCommission\n        mustHaveCorrectInputs(_recurringInterval)\n    {\n        _createRecurringJob(\n            _recurringInterval,\n            ContractTypes.Mirrored,\n            Operations.Sell,\n            _contractAddress,\n            _amount\n        );\n    }\n\n    function createRecurringErc20BuyJob(\n        uint64 _recurringInterval,\n        address _contractAddress,\n        uint256 _amount\n    )\n        external\n        payable\n        mustPayCommission\n        mustHaveCorrectInputs(_recurringInterval)\n    {\n        _createRecurringJob(\n            _recurringInterval,\n            ContractTypes.ERC20,\n            Operations.Buy,\n            _contractAddress,\n            _amount\n        );\n    }\n\n    function createRecurringErc20SellJob(\n        uint64 _recurringInterval,\n        address _contractAddress,\n        uint256 _amount\n    )\n        external\n        payable\n        mustPayCommission\n        mustHaveCorrectInputs(_recurringInterval)\n    {\n        _createRecurringJob(\n            _recurringInterval,\n            ContractTypes.ERC20,\n            Operations.Sell,\n            _contractAddress,\n            _amount\n        );\n    }\n\n    function createRecurringPortfolioBuyJob(\n        uint64 _recurringInterval,\n        address _contractAddress,\n        uint256 _amount\n    )\n        external\n        payable\n        mustPayCommission\n        mustHaveCorrectInputs(_recurringInterval)\n    {\n        _createRecurringJob(\n            _recurringInterval,\n            ContractTypes.Portfolio,\n            Operations.Buy,\n            _contractAddress,\n            _amount\n        );\n    }\n\n    function createRecurringPortfolioSellJob(\n        uint64 _recurringInterval,\n        address _contractAddress,\n        uint256 _amount\n    )\n        external\n        payable\n        mustPayCommission\n        mustHaveCorrectInputs(_recurringInterval)\n    {\n        _createRecurringJob(\n            _recurringInterval,\n            ContractTypes.Portfolio,\n            Operations.Sell,\n            _contractAddress,\n            _amount\n        );\n    }\n\n    function toggleJobActiveState(uint32 jobIndex) external {\n        Job memory job = jobs[msg.sender][jobIndex];\n        require(job.createdAt > 0, \"Job doesn't exist\");\n        jobs[msg.sender][jobIndex].isActive = !job.isActive;\n    }\n\n    function executeJob(address _jobUserAddress, uint32 _jobIndex)\n        external\n        onlyApplication\n    {\n        Job memory job = jobs[_jobUserAddress][_jobIndex];\n\n        require(job.isActive, \"Job must be active\");\n        require(\n            job.lastExecution + job.recurringInterval <= block.timestamp,\n            \"Job not ready for execution yet\"\n        );\n\n        if (job.contractType == ContractTypes.ERC20) {\n            _executeErc20Job(job);\n        } else if (job.contractType == ContractTypes.Portfolio) {\n            _executePortfolioJob(job);\n        } else if (job.contractType == ContractTypes.Mirrored) {\n            _executeMirroredJob(job);\n        }\n\n        jobs[_jobUserAddress][_jobIndex].lastExecution = block.timestamp;\n    }\n\n    receive() external payable {}\n\n    //** INTERNAL **/\n\n    function _executeErc20Job(Job memory _job) internal {\n        uint256 balance = jobNativeBalances[_job.ownerAddress];\n        uint256 cronCommission = commission;\n\n        if (_job.operation == Operations.Buy) {\n            (uint256 price, ) = oracle.getPrice(_job.contractAddress);\n            uint256 estimatedCost = (price * _job.amount) +\n                cronCommission +\n                1 ether;\n\n            require(estimatedCost <= balance, \"Insufficient user balance!\");\n\n            uint256 actualCost = _convertToErc20(\n                _job.contractAddress,\n                _job.amount\n            );\n            _deductCommissionAndTransferTokenToOwner(\n                _job.contractAddress,\n                _job.ownerAddress,\n                _job.amount,\n                actualCost,\n                cronCommission\n            );\n        } else if (_job.operation == Operations.Sell) {\n            require(cronCommission <= balance, \"Insufficient user balance!\");\n\n            uint256 tokenBalance = jobTokenBalances[_job.ownerAddress][\n                _job.contractAddress\n            ];\n            require(tokenBalance >= _job.amount, \"Insufficient token balance!\");\n\n            uint256 received = _convertFromErc20(\n                _job.contractAddress,\n                _job.amount\n            );\n            _deductCommissionAndTransferNativeToOwner(\n                _job.ownerAddress,\n                received,\n                cronCommission\n            );\n        }\n    }\n\n    function _executeMirroredJob(Job memory _job) internal {\n        Mirrored mirroredAsset = Mirrored(_job.contractAddress);\n        uint256 balance = jobNativeBalances[_job.ownerAddress];\n        uint256 cronCommission = commission;\n        (uint256 price, ) = oracle.getPrice(_job.contractAddress);\n\n        if (_job.operation == Operations.Buy) {\n            uint256 cost = price * _job.amount;\n            uint256 mirroredCommission = mirroredAsset.commission();\n            uint256 estimatedCost = cost +\n                cronCommission +\n                mirroredCommission +\n                1 ether;\n\n            require(estimatedCost <= balance, \"Insufficient user balance!\");\n\n            uint256 actualCost = mirroredAsset.mint{\n                value: cost + mirroredCommission\n            }(_job.amount);\n\n            _deductCommissionAndTransferTokenToOwner(\n                _job.contractAddress,\n                _job.ownerAddress,\n                _job.amount,\n                actualCost,\n                cronCommission\n            );\n        } else if (_job.operation == Operations.Sell) {\n            require(cronCommission <= balance, \"Insufficient user balance!\");\n\n            uint256 tokenBalance = jobTokenBalances[_job.ownerAddress][\n                _job.contractAddress\n            ];\n            require(tokenBalance >= _job.amount, \"Insufficient token balance!\");\n\n            uint256 received = mirroredAsset.burn(_job.amount);\n            _deductCommissionAndTransferNativeToOwner(\n                _job.ownerAddress,\n                received,\n                cronCommission\n            );\n        }\n    }\n\n    function _executePortfolioJob(Job memory _job) internal {\n        uint256 balance = jobNativeBalances[_job.ownerAddress];\n        uint256 cronCommission = commission;\n\n        if (_job.operation == Operations.Buy) {\n            (, , uint256 fundCommission, ) = fund.properties();\n            uint256 cost = (fund.getSharePrice() * _job.amount) +\n                fundCommission;\n            require(\n                cost + cronCommission <= balance,\n                \"Insufficient user balance!\"\n            );\n\n            fund.buyShares{value: cost}(_job.amount);\n            _deductCommissionAndTransferTokenToOwner(\n                _job.contractAddress,\n                _job.ownerAddress,\n                _job.amount,\n                cost,\n                cronCommission\n            );\n        } else if (_job.operation == Operations.Sell) {\n            require(cronCommission <= balance, \"Insufficient user balance!\");\n            uint256 received = fund.sellShares(_job.amount);\n            _deductCommissionAndTransferNativeToOwner(\n                _job.ownerAddress,\n                received,\n                cronCommission\n            );\n        }\n    }\n\n    function _deductCommissionAndTransferNativeToOwner(\n        address _ownerAddress,\n        uint256 _received,\n        uint256 _commission\n    ) internal {\n        reserve.deposit{value: _commission}();\n        jobNativeBalances[_ownerAddress] -= _commission;\n        payable(_ownerAddress).transfer(_received - _commission);\n    }\n\n    function _deductCommissionAndTransferTokenToOwner(\n        address _tokenAddress,\n        address _ownerAddress,\n        uint256 _received,\n        uint256 _cost,\n        uint256 _commission\n    ) internal {\n        reserve.deposit{value: _commission}();\n        jobNativeBalances[_ownerAddress] -= (_commission + _cost);\n        IERC20(_tokenAddress).transfer(_ownerAddress, _received);\n    }\n\n    function _createRecurringJob(\n        uint64 _recurringInterval,\n        ContractTypes _contractType,\n        Operations _opertaion,\n        address _contractAddress,\n        uint256 _amount\n    ) internal {\n        Job memory newJob = Job(\n            msg.sender,\n            true,\n            _contractType,\n            _contractAddress,\n            _recurringInterval,\n            _amount,\n            _opertaion,\n            block.timestamp,\n            0\n        );\n\n        jobUserCount[msg.sender]++;\n        jobs[msg.sender].push(newJob);\n    }\n\n    function _convertToErc20(address assetAddress, uint256 amount)\n        internal\n        returns (uint256)\n    {\n        uint256 deadline = block.timestamp + 30;\n        uint256[] memory amounts = uniswapRouter.swapETHForExactTokens(\n            amount,\n            _getPathForNativeToErc20(assetAddress),\n            address(this),\n            deadline\n        );\n\n        // refund leftover ETH to user\n        (bool success, ) = msg.sender.call{value: address(this).balance}(\"\");\n        require(success, \"refund failed\");\n\n        return amounts[amounts.length - 1];\n    }\n\n    function _convertFromErc20(address assetAddress, uint256 amount)\n        internal\n        returns (uint256)\n    {\n        uint256 deadline = block.timestamp + 30;\n        uint256[] memory amounts = uniswapRouter.swapExactTokensForETH(\n            amount,\n            1,\n            _getPathForErc20ToNative(assetAddress),\n            address(this),\n            deadline\n        );\n\n        return amounts[amounts.length - 1];\n    }\n\n    function _getPathForNativeToErc20(address assetAddress)\n        private\n        view\n        returns (address[] memory)\n    {\n        address[] memory path = new address[](2);\n        path[0] = uniswapRouter.WETH();\n        path[1] = assetAddress;\n\n        return path;\n    }\n\n    function _getPathForErc20ToNative(address assetAddress)\n        private\n        view\n        returns (address[] memory)\n    {\n        address[] memory path = new address[](2);\n        path[0] = assetAddress;\n        path[1] = uniswapRouter.WETH();\n\n        return path;\n    }\n}\n",
  "sourcePath": "/home/d4fttasiii/git/portfolium/src/fund-contract/contracts/AmountLimitedCron.sol",
  "compiler": {
    "name": "solc",
    "version": "0.8.16+commit.07a7930e.Emscripten.clang"
  },
  "schemaVersion": "3.4.9",
  "updatedAt": "2022-11-29T17:14:35.896Z",
  "devdoc": {
    "kind": "dev",
    "methods": {},
    "version": 1
  },
  "userdoc": {
    "kind": "user",
    "methods": {},
    "version": 1
  }
}