{
  "contractName": "AmountLimitedCron",
  "abi": [
    {
      "inputs": [
        {
          "internalType": "contract Portfolium",
          "name": "_fund",
          "type": "address"
        },
        {
          "internalType": "contract Reserve",
          "name": "_reserve",
          "type": "address"
        },
        {
          "internalType": "contract Oracle",
          "name": "_oracle",
          "type": "address"
        },
        {
          "internalType": "address",
          "name": "_uniswapRouterAddress",
          "type": "address"
        },
        {
          "internalType": "uint256",
          "name": "_commission",
          "type": "uint256"
        }
      ],
      "stateMutability": "nonpayable",
      "type": "constructor"
    },
    {
      "inputs": [],
      "name": "applicationAddress",
      "outputs": [
        {
          "internalType": "address",
          "name": "",
          "type": "address"
        }
      ],
      "stateMutability": "view",
      "type": "function"
    },
    {
      "inputs": [],
      "name": "commission",
      "outputs": [
        {
          "internalType": "uint256",
          "name": "",
          "type": "uint256"
        }
      ],
      "stateMutability": "view",
      "type": "function"
    },
    {
      "inputs": [],
      "name": "fund",
      "outputs": [
        {
          "internalType": "contract Portfolium",
          "name": "",
          "type": "address"
        }
      ],
      "stateMutability": "view",
      "type": "function"
    },
    {
      "inputs": [
        {
          "internalType": "address",
          "name": "",
          "type": "address"
        }
      ],
      "name": "jobNativeBalances",
      "outputs": [
        {
          "internalType": "uint256",
          "name": "",
          "type": "uint256"
        }
      ],
      "stateMutability": "view",
      "type": "function"
    },
    {
      "inputs": [
        {
          "internalType": "address",
          "name": "",
          "type": "address"
        },
        {
          "internalType": "address",
          "name": "",
          "type": "address"
        }
      ],
      "name": "jobTokenBalances",
      "outputs": [
        {
          "internalType": "uint256",
          "name": "",
          "type": "uint256"
        }
      ],
      "stateMutability": "view",
      "type": "function"
    },
    {
      "inputs": [
        {
          "internalType": "address",
          "name": "",
          "type": "address"
        }
      ],
      "name": "jobUserCount",
      "outputs": [
        {
          "internalType": "uint32",
          "name": "",
          "type": "uint32"
        }
      ],
      "stateMutability": "view",
      "type": "function"
    },
    {
      "inputs": [
        {
          "internalType": "address",
          "name": "",
          "type": "address"
        },
        {
          "internalType": "uint256",
          "name": "",
          "type": "uint256"
        }
      ],
      "name": "jobs",
      "outputs": [
        {
          "internalType": "address",
          "name": "ownerAddress",
          "type": "address"
        },
        {
          "internalType": "bool",
          "name": "isActive",
          "type": "bool"
        },
        {
          "internalType": "enum AmountLimitedCron.ContractTypes",
          "name": "contractType",
          "type": "uint8"
        },
        {
          "internalType": "address",
          "name": "contractAddress",
          "type": "address"
        },
        {
          "internalType": "uint64",
          "name": "recurringInterval",
          "type": "uint64"
        },
        {
          "internalType": "uint256",
          "name": "amount",
          "type": "uint256"
        },
        {
          "internalType": "enum AmountLimitedCron.Operations",
          "name": "operation",
          "type": "uint8"
        },
        {
          "internalType": "uint256",
          "name": "createdAt",
          "type": "uint256"
        },
        {
          "internalType": "uint256",
          "name": "lastExecution",
          "type": "uint256"
        }
      ],
      "stateMutability": "view",
      "type": "function"
    },
    {
      "inputs": [],
      "name": "oracle",
      "outputs": [
        {
          "internalType": "contract Oracle",
          "name": "",
          "type": "address"
        }
      ],
      "stateMutability": "view",
      "type": "function"
    },
    {
      "inputs": [],
      "name": "ownerAddress",
      "outputs": [
        {
          "internalType": "address",
          "name": "",
          "type": "address"
        }
      ],
      "stateMutability": "view",
      "type": "function"
    },
    {
      "inputs": [],
      "name": "reserve",
      "outputs": [
        {
          "internalType": "contract Reserve",
          "name": "",
          "type": "address"
        }
      ],
      "stateMutability": "view",
      "type": "function"
    },
    {
      "inputs": [],
      "name": "uniswapRouter",
      "outputs": [
        {
          "internalType": "contract IUniswapV2Router02",
          "name": "",
          "type": "address"
        }
      ],
      "stateMutability": "view",
      "type": "function"
    },
    {
      "stateMutability": "payable",
      "type": "receive"
    },
    {
      "inputs": [
        {
          "internalType": "address",
          "name": "newApplicationAddress",
          "type": "address"
        }
      ],
      "name": "updateApplicationAddress",
      "outputs": [],
      "stateMutability": "nonpayable",
      "type": "function"
    },
    {
      "inputs": [
        {
          "internalType": "uint256",
          "name": "newCommission",
          "type": "uint256"
        }
      ],
      "name": "updateCommission",
      "outputs": [],
      "stateMutability": "nonpayable",
      "type": "function"
    },
    {
      "inputs": [],
      "name": "deposit",
      "outputs": [],
      "stateMutability": "payable",
      "type": "function"
    },
    {
      "inputs": [
        {
          "internalType": "address",
          "name": "_token",
          "type": "address"
        },
        {
          "internalType": "uint256",
          "name": "_amount",
          "type": "uint256"
        }
      ],
      "name": "depositToken",
      "outputs": [],
      "stateMutability": "payable",
      "type": "function"
    },
    {
      "inputs": [
        {
          "internalType": "uint256",
          "name": "_amount",
          "type": "uint256"
        }
      ],
      "name": "withdraw",
      "outputs": [],
      "stateMutability": "payable",
      "type": "function"
    },
    {
      "inputs": [
        {
          "internalType": "address",
          "name": "_token",
          "type": "address"
        },
        {
          "internalType": "uint256",
          "name": "_amount",
          "type": "uint256"
        }
      ],
      "name": "withdrawToken",
      "outputs": [],
      "stateMutability": "payable",
      "type": "function"
    },
    {
      "inputs": [
        {
          "internalType": "uint64",
          "name": "_recurringInterval",
          "type": "uint64"
        },
        {
          "internalType": "address",
          "name": "_contractAddress",
          "type": "address"
        },
        {
          "internalType": "uint256",
          "name": "_amount",
          "type": "uint256"
        }
      ],
      "name": "createRecurringMirroredBuyJob",
      "outputs": [],
      "stateMutability": "payable",
      "type": "function"
    },
    {
      "inputs": [
        {
          "internalType": "uint64",
          "name": "_recurringInterval",
          "type": "uint64"
        },
        {
          "internalType": "address",
          "name": "_contractAddress",
          "type": "address"
        },
        {
          "internalType": "uint256",
          "name": "_amount",
          "type": "uint256"
        }
      ],
      "name": "createRecurringMirroredSellJob",
      "outputs": [],
      "stateMutability": "payable",
      "type": "function"
    },
    {
      "inputs": [
        {
          "internalType": "uint64",
          "name": "_recurringInterval",
          "type": "uint64"
        },
        {
          "internalType": "address",
          "name": "_contractAddress",
          "type": "address"
        },
        {
          "internalType": "uint256",
          "name": "_amount",
          "type": "uint256"
        }
      ],
      "name": "createRecurringErc20BuyJob",
      "outputs": [],
      "stateMutability": "payable",
      "type": "function"
    },
    {
      "inputs": [
        {
          "internalType": "uint64",
          "name": "_recurringInterval",
          "type": "uint64"
        },
        {
          "internalType": "address",
          "name": "_contractAddress",
          "type": "address"
        },
        {
          "internalType": "uint256",
          "name": "_amount",
          "type": "uint256"
        }
      ],
      "name": "createRecurringErc20SellJob",
      "outputs": [],
      "stateMutability": "payable",
      "type": "function"
    },
    {
      "inputs": [
        {
          "internalType": "uint64",
          "name": "_recurringInterval",
          "type": "uint64"
        },
        {
          "internalType": "address",
          "name": "_contractAddress",
          "type": "address"
        },
        {
          "internalType": "uint256",
          "name": "_amount",
          "type": "uint256"
        }
      ],
      "name": "createRecurringPortfolioBuyJob",
      "outputs": [],
      "stateMutability": "payable",
      "type": "function"
    },
    {
      "inputs": [
        {
          "internalType": "uint64",
          "name": "_recurringInterval",
          "type": "uint64"
        },
        {
          "internalType": "address",
          "name": "_contractAddress",
          "type": "address"
        },
        {
          "internalType": "uint256",
          "name": "_amount",
          "type": "uint256"
        }
      ],
      "name": "createRecurringPortfolioSellJob",
      "outputs": [],
      "stateMutability": "payable",
      "type": "function"
    },
    {
      "inputs": [
        {
          "internalType": "uint32",
          "name": "jobIndex",
          "type": "uint32"
        }
      ],
      "name": "toggleJobActiveState",
      "outputs": [],
      "stateMutability": "nonpayable",
      "type": "function"
    },
    {
      "inputs": [
        {
          "internalType": "address",
          "name": "_jobUserAddress",
          "type": "address"
        },
        {
          "internalType": "uint32",
          "name": "_jobIndex",
          "type": "uint32"
        }
      ],
      "name": "executeJob",
      "outputs": [],
      "stateMutability": "nonpayable",
      "type": "function"
    }
  ],
  "bytecode": "0x60806040523480156200001157600080fd5b50604051620041ee380380620041ee833981810160405281019062000037919062000301565b336000806101000a81548173ffffffffffffffffffffffffffffffffffffffff021916908373ffffffffffffffffffffffffffffffffffffffff16021790555084600360006101000a81548173ffffffffffffffffffffffffffffffffffffffff021916908373ffffffffffffffffffffffffffffffffffffffff16021790555083600460006101000a81548173ffffffffffffffffffffffffffffffffffffffff021916908373ffffffffffffffffffffffffffffffffffffffff16021790555082600560006101000a81548173ffffffffffffffffffffffffffffffffffffffff021916908373ffffffffffffffffffffffffffffffffffffffff16021790555081600660006101000a81548173ffffffffffffffffffffffffffffffffffffffff021916908373ffffffffffffffffffffffffffffffffffffffff16021790555080600281905550505050505062000389565b600080fd5b600073ffffffffffffffffffffffffffffffffffffffff82169050919050565b6000620001bf8262000192565b9050919050565b6000620001d382620001b2565b9050919050565b620001e581620001c6565b8114620001f157600080fd5b50565b6000815190506200020581620001da565b92915050565b60006200021882620001b2565b9050919050565b6200022a816200020b565b81146200023657600080fd5b50565b6000815190506200024a816200021f565b92915050565b60006200025d82620001b2565b9050919050565b6200026f8162000250565b81146200027b57600080fd5b50565b6000815190506200028f8162000264565b92915050565b620002a081620001b2565b8114620002ac57600080fd5b50565b600081519050620002c08162000295565b92915050565b6000819050919050565b620002db81620002c6565b8114620002e757600080fd5b50565b600081519050620002fb81620002d0565b92915050565b600080600080600060a0868803121562000320576200031f6200018d565b5b60006200033088828901620001f4565b9550506020620003438882890162000239565b945050604062000356888289016200027e565b93505060606200036988828901620002af565b92505060806200037c88828901620002ea565b9150509295509295909350565b613e5580620003996000396000f3fe60806040526004361061016a5760003560e01c80638f84aa09116100d1578063b970781e1161008a578063d0e30db011610064578063d0e30db0146104dc578063e1489191146104e6578063fbe109b314610511578063ff019d931461052d57610171565b8063b970781e14610479578063c704b3e814610495578063cd3293de146104b157610171565b80638f84aa091461039957806392aac9df146103c45780639d55fba7146103e05780639e281a9814610409578063a3ca003714610425578063b60d42881461044e57610171565b80636f82f8fd116101235780636f82f8fd14610259578063735de9f71461029e5780637dc0d1d0146102c95780638bed9d18146102f45780638c9ecbf81461031f5780638f0cbe451461035c57610171565b80630757249f146101765780630bc5b8961461019f5780632786e402146101dc5780632e1a7d4d146102055780632fc727d014610221578063338b5dea1461023d57610171565b3661017157005b600080fd5b34801561018257600080fd5b5061019d60048036038101906101989190612d30565b610549565b005b3480156101ab57600080fd5b506101c660048036038101906101c19190612d70565b610921565b6040516101d39190612dc9565b60405180910390f35b3480156101e857600080fd5b5061020360048036038101906101fe9190612de4565b610946565b005b61021f600480360381019061021a9190612e3d565b610992565b005b61023b60048036038101906102369190612eaa565b610aba565b005b61025760048036038101906102529190612efd565b610ae1565b005b34801561026557600080fd5b50610280600480360381019061027b9190612efd565b610c3d565b60405161029599989796959493929190613035565b60405180910390f35b3480156102aa57600080fd5b506102b3610d23565b6040516102c09190613121565b60405180910390f35b3480156102d557600080fd5b506102de610d49565b6040516102eb919061315d565b60405180910390f35b34801561030057600080fd5b50610309610d6f565b6040516103169190613178565b60405180910390f35b34801561032b57600080fd5b5061034660048036038101906103419190612de4565b610d95565b60405161035391906131a2565b60405180910390f35b34801561036857600080fd5b50610383600480360381019061037e9190612de4565b610db8565b6040516103909190612dc9565b60405180910390f35b3480156103a557600080fd5b506103ae610dd0565b6040516103bb9190613178565b60405180910390f35b6103de60048036038101906103d99190612eaa565b610df4565b005b3480156103ec57600080fd5b5061040760048036038101906104029190612e3d565b610e1b565b005b610423600480360381019061041e9190612efd565b610e2d565b005b34801561043157600080fd5b5061044c600480360381019061044791906131bd565b611008565b005b34801561045a57600080fd5b506104636112da565b604051610470919061320b565b60405180910390f35b610493600480360381019061048e9190612eaa565b611300565b005b6104af60048036038101906104aa9190612eaa565b611326565b005b3480156104bd57600080fd5b506104c661134d565b6040516104d39190613247565b60405180910390f35b6104e4611373565b005b3480156104f257600080fd5b506104fb6113cb565b6040516105089190612dc9565b60405180910390f35b61052b60048036038101906105269190612eaa565b6113d1565b005b61054760048036038101906105429190612eaa565b6113f7565b005b61055161141e565b6000600a60008473ffffffffffffffffffffffffffffffffffffffff1673ffffffffffffffffffffffffffffffffffffffff1681526020019081526020016000208263ffffffff16815481106105aa576105a9613262565b5b9060005260206000209060060201604051806101200160405290816000820160009054906101000a900473ffffffffffffffffffffffffffffffffffffffff1673ffffffffffffffffffffffffffffffffffffffff1673ffffffffffffffffffffffffffffffffffffffff1681526020016000820160149054906101000a900460ff161515151581526020016000820160159054906101000a900460ff16600281111561065a57610659612f67565b5b600281111561066c5761066b612f67565b5b81526020016001820160009054906101000a900473ffffffffffffffffffffffffffffffffffffffff1673ffffffffffffffffffffffffffffffffffffffff1673ffffffffffffffffffffffffffffffffffffffff1681526020016001820160149054906101000a900467ffffffffffffffff1667ffffffffffffffff1667ffffffffffffffff168152602001600282015481526020016003820160009054906101000a900460ff16600181111561072757610726612f67565b5b600181111561073957610738612f67565b5b81526020016004820154815260200160058201548152505090508060200151610797576040517f08c379a000000000000000000000000000000000000000000000000000000000815260040161078e906132ee565b60405180910390fd5b42816080015167ffffffffffffffff168261010001516107b7919061333d565b11156107f8576040517f08c379a00000000000000000000000000000000000000000000000000000000081526004016107ef906133bd565b60405180910390fd5b6001600281111561080c5761080b612f67565b5b8160400151600281111561082357610822612f67565b5b0361083657610831816114b0565b6108af565b60028081111561084957610848612f67565b5b816040015160028111156108605761085f612f67565b5b036108735761086e816117ef565b6108ae565b6000600281111561088757610886612f67565b5b8160400151600281111561089e5761089d612f67565b5b036108ad576108ac81611b52565b5b5b5b42600a60008573ffffffffffffffffffffffffffffffffffffffff1673ffffffffffffffffffffffffffffffffffffffff1681526020019081526020016000208363ffffffff168154811061090757610906613262565b5b906000526020600020906006020160050181905550505050565b6008602052816000526040600020602052806000526040600020600091509150505481565b61094e612008565b80600160006101000a81548173ffffffffffffffffffffffffffffffffffffffff021916908373ffffffffffffffffffffffffffffffffffffffff16021790555050565b6000600760003373ffffffffffffffffffffffffffffffffffffffff1673ffffffffffffffffffffffffffffffffffffffff16815260200190815260200160002054905081811015610a19576040517f08c379a0000000000000000000000000000000000000000000000000000000008152600401610a1090613429565b60405180910390fd5b81600760003373ffffffffffffffffffffffffffffffffffffffff1673ffffffffffffffffffffffffffffffffffffffff1681526020019081526020016000206000828254610a689190613449565b925050819055503373ffffffffffffffffffffffffffffffffffffffff166108fc839081150290604051600060405180830381858888f19350505050158015610ab5573d6000803e3d6000fd5b505050565b610ac2612098565b82610acc816120df565b610adb84600260018686612149565b50505050565b60008273ffffffffffffffffffffffffffffffffffffffff166323b872dd3330856040518463ffffffff1660e01b8152600401610b209392919061347d565b6020604051808303816000875af1158015610b3f573d6000803e3d6000fd5b505050506040513d601f19601f82011682018060405250810190610b6391906134e0565b905080610ba5576040517f08c379a0000000000000000000000000000000000000000000000000000000008152600401610b9c90613559565b60405180910390fd5b81600860003373ffffffffffffffffffffffffffffffffffffffff1673ffffffffffffffffffffffffffffffffffffffff16815260200190815260200160002060008573ffffffffffffffffffffffffffffffffffffffff1673ffffffffffffffffffffffffffffffffffffffff1681526020019081526020016000206000828254610c31919061333d565b92505081905550505050565b600a6020528160005260406000208181548110610c5957600080fd5b9060005260206000209060060201600091509150508060000160009054906101000a900473ffffffffffffffffffffffffffffffffffffffff16908060000160149054906101000a900460ff16908060000160159054906101000a900460ff16908060010160009054906101000a900473ffffffffffffffffffffffffffffffffffffffff16908060010160149054906101000a900467ffffffffffffffff16908060020154908060030160009054906101000a900460ff16908060040154908060050154905089565b600660009054906101000a900473ffffffffffffffffffffffffffffffffffffffff1681565b600560009054906101000a900473ffffffffffffffffffffffffffffffffffffffff1681565b600160009054906101000a900473ffffffffffffffffffffffffffffffffffffffff1681565b60096020528060005260406000206000915054906101000a900463ffffffff1681565b60076020528060005260406000206000915090505481565b60008054906101000a900473ffffffffffffffffffffffffffffffffffffffff1681565b610dfc612098565b82610e06816120df565b610e1584600260008686612149565b50505050565b610e23612008565b8060028190555050565b6000600860003373ffffffffffffffffffffffffffffffffffffffff1673ffffffffffffffffffffffffffffffffffffffff16815260200190815260200160002060008473ffffffffffffffffffffffffffffffffffffffff1673ffffffffffffffffffffffffffffffffffffffff16815260200190815260200160002054905081811015610ef1576040517f08c379a0000000000000000000000000000000000000000000000000000000008152600401610ee8906135c5565b60405180910390fd5b81600860003373ffffffffffffffffffffffffffffffffffffffff1673ffffffffffffffffffffffffffffffffffffffff16815260200190815260200160002060008573ffffffffffffffffffffffffffffffffffffffff1673ffffffffffffffffffffffffffffffffffffffff1681526020019081526020016000206000828254610f7d9190613449565b925050819055508273ffffffffffffffffffffffffffffffffffffffff1663a9059cbb33846040518363ffffffff1660e01b8152600401610fbf9291906135e5565b6020604051808303816000875af1158015610fde573d6000803e3d6000fd5b505050506040513d601f19601f8201168201806040525081019061100291906134e0565b50505050565b6000600a60003373ffffffffffffffffffffffffffffffffffffffff1673ffffffffffffffffffffffffffffffffffffffff1681526020019081526020016000208263ffffffff168154811061106157611060613262565b5b9060005260206000209060060201604051806101200160405290816000820160009054906101000a900473ffffffffffffffffffffffffffffffffffffffff1673ffffffffffffffffffffffffffffffffffffffff1673ffffffffffffffffffffffffffffffffffffffff1681526020016000820160149054906101000a900460ff161515151581526020016000820160159054906101000a900460ff16600281111561111157611110612f67565b5b600281111561112357611122612f67565b5b81526020016001820160009054906101000a900473ffffffffffffffffffffffffffffffffffffffff1673ffffffffffffffffffffffffffffffffffffffff1673ffffffffffffffffffffffffffffffffffffffff1681526020016001820160149054906101000a900467ffffffffffffffff1667ffffffffffffffff1667ffffffffffffffff168152602001600282015481526020016003820160009054906101000a900460ff1660018111156111de576111dd612f67565b5b60018111156111f0576111ef612f67565b5b815260200160048201548152602001600582015481525050905060008160e0015111611251576040517f08c379a00000000000000000000000000000000000000000000000000000000081526004016112489061365a565b60405180910390fd5b806020015115600a60003373ffffffffffffffffffffffffffffffffffffffff1673ffffffffffffffffffffffffffffffffffffffff1681526020019081526020016000208363ffffffff16815481106112ae576112ad613262565b5b906000526020600020906006020160000160146101000a81548160ff0219169083151502179055505050565b600360009054906101000a900473ffffffffffffffffffffffffffffffffffffffff1681565b611308612098565b82611312816120df565b611320846001808686612149565b50505050565b61132e612098565b82611338816120df565b61134784600160008686612149565b50505050565b600460009054906101000a900473ffffffffffffffffffffffffffffffffffffffff1681565b34600760003373ffffffffffffffffffffffffffffffffffffffff1673ffffffffffffffffffffffffffffffffffffffff16815260200190815260200160002060008282546113c2919061333d565b92505081905550565b60025481565b6113d9612098565b826113e3816120df565b6113f1846000808686612149565b50505050565b6113ff612098565b82611409816120df565b61141884600060018686612149565b50505050565b600160009054906101000a900473ffffffffffffffffffffffffffffffffffffffff1673ffffffffffffffffffffffffffffffffffffffff163373ffffffffffffffffffffffffffffffffffffffff16146114ae576040517f08c379a00000000000000000000000000000000000000000000000000000000081526004016114a5906136c6565b60405180910390fd5b565b600060076000836000015173ffffffffffffffffffffffffffffffffffffffff1673ffffffffffffffffffffffffffffffffffffffff168152602001908152602001600020549050600060025490506000600181111561151357611512612f67565b5b8360c00151600181111561152a57611529612f67565b5b0361167f576000600560009054906101000a900473ffffffffffffffffffffffffffffffffffffffff1673ffffffffffffffffffffffffffffffffffffffff166341976e0985606001516040518263ffffffff1660e01b81526004016115909190613178565b6040805180830381865afa1580156115ac573d6000803e3d6000fd5b505050506040513d601f19601f820116820180604052508101906115d091906136fb565b5090506000670de0b6b3a7640000838660a00151846115ef919061373b565b6115f9919061333d565b611603919061333d565b905083811115611648576040517f08c379a000000000000000000000000000000000000000000000000000000000815260040161163f906137e1565b60405180910390fd5b600061165c86606001518760a00151612438565b9050611677866060015187600001518860a0015184886125de565b5050506117ea565b60018081111561169257611691612f67565b5b8360c0015160018111156116a9576116a8612f67565b5b036117e957818111156116f1576040517f08c379a00000000000000000000000000000000000000000000000000000000081526004016116e8906137e1565b60405180910390fd5b600060086000856000015173ffffffffffffffffffffffffffffffffffffffff1673ffffffffffffffffffffffffffffffffffffffff1681526020019081526020016000206000856060015173ffffffffffffffffffffffffffffffffffffffff1673ffffffffffffffffffffffffffffffffffffffff1681526020019081526020016000205490508360a001518110156117c1576040517f08c379a00000000000000000000000000000000000000000000000000000000081526004016117b8906135c5565b60405180910390fd5b60006117d585606001518660a00151612748565b90506117e685600001518285612844565b50505b5b505050565b600060076000836000015173ffffffffffffffffffffffffffffffffffffffff1673ffffffffffffffffffffffffffffffffffffffff168152602001908152602001600020549050600060025490506000600181111561185257611851612f67565b5b8360c00151600181111561186957611868612f67565b5b03611a1d576000600360009054906101000a900473ffffffffffffffffffffffffffffffffffffffff1673ffffffffffffffffffffffffffffffffffffffff166350faad7285606001518660a001516040518363ffffffff1660e01b81526004016118d59291906135e5565b602060405180830381865afa1580156118f2573d6000803e3d6000fd5b505050506040513d601f19601f820116820180604052508101906119169190613801565b9050828282611925919061333d565b1115611966576040517f08c379a000000000000000000000000000000000000000000000000000000000815260040161195d906137e1565b60405180910390fd5b600360009054906101000a900473ffffffffffffffffffffffffffffffffffffffff1673ffffffffffffffffffffffffffffffffffffffff16636945b1238286606001518760a001516040518463ffffffff1660e01b81526004016119cc9291906135e5565b6000604051808303818588803b1580156119e557600080fd5b505af11580156119f9573d6000803e3d6000fd5b5050505050611a17846060015185600001518660a0015184866125de565b50611b4d565b600180811115611a3057611a2f612f67565b5b8360c001516001811115611a4757611a46612f67565b5b03611b4c5781811115611a8f576040517f08c379a0000000000000000000000000000000000000000000000000000000008152600401611a86906137e1565b60405180910390fd5b6000600360009054906101000a900473ffffffffffffffffffffffffffffffffffffffff1673ffffffffffffffffffffffffffffffffffffffff1663b51d053485606001518660a001516040518363ffffffff1660e01b8152600401611af69291906135e5565b6020604051808303816000875af1158015611b15573d6000803e3d6000fd5b505050506040513d601f19601f82011682018060405250810190611b399190613801565b9050611b4a84600001518284612844565b505b5b505050565b600081606001519050600060076000846000015173ffffffffffffffffffffffffffffffffffffffff1673ffffffffffffffffffffffffffffffffffffffff168152602001908152602001600020549050600060025490506000600560009054906101000a900473ffffffffffffffffffffffffffffffffffffffff1673ffffffffffffffffffffffffffffffffffffffff166341976e0986606001516040518263ffffffff1660e01b8152600401611c0b9190613178565b6040805180830381865afa158015611c27573d6000803e3d6000fd5b505050506040513d601f19601f82011682018060405250810190611c4b91906136fb565b50905060006001811115611c6257611c61612f67565b5b8560c001516001811115611c7957611c78612f67565b5b03611e285760008560a0015182611c90919061373b565b905060008573ffffffffffffffffffffffffffffffffffffffff1663e14891916040518163ffffffff1660e01b8152600401602060405180830381865afa158015611cdf573d6000803e3d6000fd5b505050506040513d601f19601f82011682018060405250810190611d039190613801565b90506000670de0b6b3a7640000828685611d1d919061333d565b611d27919061333d565b611d31919061333d565b905085811115611d76576040517f08c379a0000000000000000000000000000000000000000000000000000000008152600401611d6d906137e1565b60405180910390fd5b60008773ffffffffffffffffffffffffffffffffffffffff1663a0712d688486611da0919061333d565b8b60a001516040518363ffffffff1660e01b8152600401611dc19190612dc9565b60206040518083038185885af1158015611ddf573d6000803e3d6000fd5b50505050506040513d601f19601f82011682018060405250810190611e049190613801565b9050611e1f89606001518a600001518b60a00151848a6125de565b50505050612001565b600180811115611e3b57611e3a612f67565b5b8560c001516001811115611e5257611e51612f67565b5b036120005782821115611e9a576040517f08c379a0000000000000000000000000000000000000000000000000000000008152600401611e91906137e1565b60405180910390fd5b600060086000876000015173ffffffffffffffffffffffffffffffffffffffff1673ffffffffffffffffffffffffffffffffffffffff1681526020019081526020016000206000876060015173ffffffffffffffffffffffffffffffffffffffff1673ffffffffffffffffffffffffffffffffffffffff1681526020019081526020016000205490508560a00151811015611f6a576040517f08c379a0000000000000000000000000000000000000000000000000000000008152600401611f61906135c5565b60405180910390fd5b60008573ffffffffffffffffffffffffffffffffffffffff166342966c688860a001516040518263ffffffff1660e01b8152600401611fa99190612dc9565b6020604051808303816000875af1158015611fc8573d6000803e3d6000fd5b505050506040513d601f19601f82011682018060405250810190611fec9190613801565b9050611ffd87600001518286612844565b50505b5b5050505050565b60008054906101000a900473ffffffffffffffffffffffffffffffffffffffff1673ffffffffffffffffffffffffffffffffffffffff163373ffffffffffffffffffffffffffffffffffffffff1614612096576040517f08c379a000000000000000000000000000000000000000000000000000000000815260040161208d906138a0565b60405180910390fd5b565b6002543410156120dd576040517f08c379a00000000000000000000000000000000000000000000000000000000081526004016120d49061390c565b60405180910390fd5b565b60058167ffffffffffffffff16101580156121075750620806888167ffffffffffffffff1611155b612146576040517f08c379a000000000000000000000000000000000000000000000000000000000815260040161213d9061399e565b60405180910390fd5b50565b60006040518061012001604052803373ffffffffffffffffffffffffffffffffffffffff16815260200160011515815260200186600281111561218f5761218e612f67565b5b81526020018473ffffffffffffffffffffffffffffffffffffffff1681526020018767ffffffffffffffff1681526020018381526020018560018111156121d9576121d8612f67565b5b815260200142815260200160008152509050600960003373ffffffffffffffffffffffffffffffffffffffff1673ffffffffffffffffffffffffffffffffffffffff168152602001908152602001600020600081819054906101000a900463ffffffff168092919061224a906139be565b91906101000a81548163ffffffff021916908363ffffffff16021790555050600a60003373ffffffffffffffffffffffffffffffffffffffff1673ffffffffffffffffffffffffffffffffffffffff16815260200190815260200160002081908060018154018082558091505060019003906000526020600020906006020160009091909190915060008201518160000160006101000a81548173ffffffffffffffffffffffffffffffffffffffff021916908373ffffffffffffffffffffffffffffffffffffffff16021790555060208201518160000160146101000a81548160ff02191690831515021790555060408201518160000160156101000a81548160ff0219169083600281111561236457612363612f67565b5b021790555060608201518160010160006101000a81548173ffffffffffffffffffffffffffffffffffffffff021916908373ffffffffffffffffffffffffffffffffffffffff16021790555060808201518160010160146101000a81548167ffffffffffffffff021916908367ffffffffffffffff16021790555060a0820151816002015560c08201518160030160006101000a81548160ff0219169083600181111561241457612413612f67565b5b021790555060e0820151816004015561010082015181600501555050505050505050565b600080601e42612448919061333d565b90506000600660009054906101000a900473ffffffffffffffffffffffffffffffffffffffff1673ffffffffffffffffffffffffffffffffffffffff1663fb3bdb418561249488612974565b30866040518563ffffffff1660e01b81526004016124b59493929190613aa8565b6000604051808303816000875af11580156124d4573d6000803e3d6000fd5b505050506040513d6000823e3d601f19601f820116820180604052508101906124fd9190613c4d565b905060003373ffffffffffffffffffffffffffffffffffffffff164760405161252590613cc7565b60006040518083038185875af1925050503d8060008114612562576040519150601f19603f3d011682016040523d82523d6000602084013e612567565b606091505b50509050806125ab576040517f08c379a00000000000000000000000000000000000000000000000000000000081526004016125a290613d28565b60405180910390fd5b81600183516125ba9190613449565b815181106125cb576125ca613262565b5b6020026020010151935050505092915050565b600460009054906101000a900473ffffffffffffffffffffffffffffffffffffffff1673ffffffffffffffffffffffffffffffffffffffff1663d0e30db0826040518263ffffffff1660e01b81526004016000604051808303818588803b15801561264857600080fd5b505af115801561265c573d6000803e3d6000fd5b5050505050818161266d919061333d565b600760008673ffffffffffffffffffffffffffffffffffffffff1673ffffffffffffffffffffffffffffffffffffffff16815260200190815260200160002060008282546126bb9190613449565b925050819055508473ffffffffffffffffffffffffffffffffffffffff1663a9059cbb85856040518363ffffffff1660e01b81526004016126fd9291906135e5565b6020604051808303816000875af115801561271c573d6000803e3d6000fd5b505050506040513d601f19601f8201168201806040525081019061274091906134e0565b505050505050565b600080601e42612758919061333d565b90506000600660009054906101000a900473ffffffffffffffffffffffffffffffffffffffff1673ffffffffffffffffffffffffffffffffffffffff166318cbafe58560016127a689612afb565b30876040518663ffffffff1660e01b81526004016127c8959493929190613d83565b6000604051808303816000875af11580156127e7573d6000803e3d6000fd5b505050506040513d6000823e3d601f19601f820116820180604052508101906128109190613c4d565b905080600182516128219190613449565b8151811061283257612831613262565b5b60200260200101519250505092915050565b600460009054906101000a900473ffffffffffffffffffffffffffffffffffffffff1673ffffffffffffffffffffffffffffffffffffffff1663d0e30db0826040518263ffffffff1660e01b81526004016000604051808303818588803b1580156128ae57600080fd5b505af11580156128c2573d6000803e3d6000fd5b505050505080600760008573ffffffffffffffffffffffffffffffffffffffff1673ffffffffffffffffffffffffffffffffffffffff16815260200190815260200160002060008282546129169190613449565b925050819055508273ffffffffffffffffffffffffffffffffffffffff166108fc82846129439190613449565b9081150290604051600060405180830381858888f1935050505015801561296e573d6000803e3d6000fd5b50505050565b60606000600267ffffffffffffffff81111561299357612992613b0a565b5b6040519080825280602002602001820160405280156129c15781602001602082028036833780820191505090505b509050600660009054906101000a900473ffffffffffffffffffffffffffffffffffffffff1673ffffffffffffffffffffffffffffffffffffffff1663ad5c46486040518163ffffffff1660e01b8152600401602060405180830381865afa158015612a31573d6000803e3d6000fd5b505050506040513d601f19601f82011682018060405250810190612a559190613df2565b81600081518110612a6957612a68613262565b5b602002602001019073ffffffffffffffffffffffffffffffffffffffff16908173ffffffffffffffffffffffffffffffffffffffff16815250508281600181518110612ab857612ab7613262565b5b602002602001019073ffffffffffffffffffffffffffffffffffffffff16908173ffffffffffffffffffffffffffffffffffffffff168152505080915050919050565b60606000600267ffffffffffffffff811115612b1a57612b19613b0a565b5b604051908082528060200260200182016040528015612b485781602001602082028036833780820191505090505b5090508281600081518110612b6057612b5f613262565b5b602002602001019073ffffffffffffffffffffffffffffffffffffffff16908173ffffffffffffffffffffffffffffffffffffffff1681525050600660009054906101000a900473ffffffffffffffffffffffffffffffffffffffff1673ffffffffffffffffffffffffffffffffffffffff1663ad5c46486040518163ffffffff1660e01b8152600401602060405180830381865afa158015612c07573d6000803e3d6000fd5b505050506040513d601f19601f82011682018060405250810190612c2b9190613df2565b81600181518110612c3f57612c3e613262565b5b602002602001019073ffffffffffffffffffffffffffffffffffffffff16908173ffffffffffffffffffffffffffffffffffffffff168152505080915050919050565b6000604051905090565b600080fd5b600080fd5b600073ffffffffffffffffffffffffffffffffffffffff82169050919050565b6000612cc182612c96565b9050919050565b612cd181612cb6565b8114612cdc57600080fd5b50565b600081359050612cee81612cc8565b92915050565b600063ffffffff82169050919050565b612d0d81612cf4565b8114612d1857600080fd5b50565b600081359050612d2a81612d04565b92915050565b60008060408385031215612d4757612d46612c8c565b5b6000612d5585828601612cdf565b9250506020612d6685828601612d1b565b9150509250929050565b60008060408385031215612d8757612d86612c8c565b5b6000612d9585828601612cdf565b9250506020612da685828601612cdf565b9150509250929050565b6000819050919050565b612dc381612db0565b82525050565b6000602082019050612dde6000830184612dba565b92915050565b600060208284031215612dfa57612df9612c8c565b5b6000612e0884828501612cdf565b91505092915050565b612e1a81612db0565b8114612e2557600080fd5b50565b600081359050612e3781612e11565b92915050565b600060208284031215612e5357612e52612c8c565b5b6000612e6184828501612e28565b91505092915050565b600067ffffffffffffffff82169050919050565b612e8781612e6a565b8114612e9257600080fd5b50565b600081359050612ea481612e7e565b92915050565b600080600060608486031215612ec357612ec2612c8c565b5b6000612ed186828701612e95565b9350506020612ee286828701612cdf565b9250506040612ef386828701612e28565b9150509250925092565b60008060408385031215612f1457612f13612c8c565b5b6000612f2285828601612cdf565b9250506020612f3385828601612e28565b9150509250929050565b612f4681612cb6565b82525050565b60008115159050919050565b612f6181612f4c565b82525050565b7f4e487b7100000000000000000000000000000000000000000000000000000000600052602160045260246000fd5b60038110612fa757612fa6612f67565b5b50565b6000819050612fb882612f96565b919050565b6000612fc882612faa565b9050919050565b612fd881612fbd565b82525050565b612fe781612e6a565b82525050565b60028110612ffe57612ffd612f67565b5b50565b600081905061300f82612fed565b919050565b600061301f82613001565b9050919050565b61302f81613014565b82525050565b60006101208201905061304b600083018c612f3d565b613058602083018b612f58565b613065604083018a612fcf565b6130726060830189612f3d565b61307f6080830188612fde565b61308c60a0830187612dba565b61309960c0830186613026565b6130a660e0830185612dba565b6130b4610100830184612dba565b9a9950505050505050505050565b6000819050919050565b60006130e76130e26130dd84612c96565b6130c2565b612c96565b9050919050565b60006130f9826130cc565b9050919050565b600061310b826130ee565b9050919050565b61311b81613100565b82525050565b60006020820190506131366000830184613112565b92915050565b6000613147826130ee565b9050919050565b6131578161313c565b82525050565b6000602082019050613172600083018461314e565b92915050565b600060208201905061318d6000830184612f3d565b92915050565b61319c81612cf4565b82525050565b60006020820190506131b76000830184613193565b92915050565b6000602082840312156131d3576131d2612c8c565b5b60006131e184828501612d1b565b91505092915050565b60006131f5826130ee565b9050919050565b613205816131ea565b82525050565b600060208201905061322060008301846131fc565b92915050565b6000613231826130ee565b9050919050565b61324181613226565b82525050565b600060208201905061325c6000830184613238565b92915050565b7f4e487b7100000000000000000000000000000000000000000000000000000000600052603260045260246000fd5b600082825260208201905092915050565b7f4a6f62206d757374206265206163746976650000000000000000000000000000600082015250565b60006132d8601283613291565b91506132e3826132a2565b602082019050919050565b60006020820190508181036000830152613307816132cb565b9050919050565b7f4e487b7100000000000000000000000000000000000000000000000000000000600052601160045260246000fd5b600061334882612db0565b915061335383612db0565b925082820190508082111561336b5761336a61330e565b5b92915050565b7f4a6f62206e6f7420726561647920666f7220657865637574696f6e2079657400600082015250565b60006133a7601f83613291565b91506133b282613371565b602082019050919050565b600060208201905081810360008301526133d68161339a565b9050919050565b7f496e73756666696369656e742062616c616e6365210000000000000000000000600082015250565b6000613413601583613291565b915061341e826133dd565b602082019050919050565b6000602082019050818103600083015261344281613406565b9050919050565b600061345482612db0565b915061345f83612db0565b92508282039050818111156134775761347661330e565b5b92915050565b60006060820190506134926000830186612f3d565b61349f6020830185612f3d565b6134ac6040830184612dba565b949350505050565b6134bd81612f4c565b81146134c857600080fd5b50565b6000815190506134da816134b4565b92915050565b6000602082840312156134f6576134f5612c8c565b5b6000613504848285016134cb565b91505092915050565b7f556e61626c6520746f206465706f73697420746f6b656e732100000000000000600082015250565b6000613543601983613291565b915061354e8261350d565b602082019050919050565b6000602082019050818103600083015261357281613536565b9050919050565b7f496e73756666696369656e7420746f6b656e2062616c616e6365210000000000600082015250565b60006135af601b83613291565b91506135ba82613579565b602082019050919050565b600060208201905081810360008301526135de816135a2565b9050919050565b60006040820190506135fa6000830185612f3d565b6136076020830184612dba565b9392505050565b7f4a6f6220646f65736e2774206578697374000000000000000000000000000000600082015250565b6000613644601183613291565b915061364f8261360e565b602082019050919050565b6000602082019050818103600083015261367381613637565b9050919050565b7f43616c6c6572206d75737420626520746865206170706c69636174696f6e2100600082015250565b60006136b0601f83613291565b91506136bb8261367a565b602082019050919050565b600060208201905081810360008301526136df816136a3565b9050919050565b6000815190506136f581612e11565b92915050565b6000806040838503121561371257613711612c8c565b5b6000613720858286016136e6565b9250506020613731858286016136e6565b9150509250929050565b600061374682612db0565b915061375183612db0565b9250817fffffffffffffffffffffffffffffffffffffffffffffffffffffffffffffffff048311821515161561378a5761378961330e565b5b828202905092915050565b7f496e73756666696369656e7420757365722062616c616e636521000000000000600082015250565b60006137cb601a83613291565b91506137d682613795565b602082019050919050565b600060208201905081810360008301526137fa816137be565b9050919050565b60006020828403121561381757613816612c8c565b5b6000613825848285016136e6565b91505092915050565b7f43616c6c6572206d7573742062652074686520636f6e7472616374206f776e6560008201527f7221000000000000000000000000000000000000000000000000000000000000602082015250565b600061388a602283613291565b91506138958261382e565b604082019050919050565b600060208201905081810360008301526138b98161387d565b9050919050565b7f4d696e2e20636f6d6d697373696f6e2068617320746f20626520706169642100600082015250565b60006138f6601f83613291565b9150613901826138c0565b602082019050919050565b60006020820190508181036000830152613925816138e9565b9050919050565b7f496e74657276616c2073686f756c64206265206265747765656e203520616e6460008201527f20353235393630206d696e757465730000000000000000000000000000000000602082015250565b6000613988602f83613291565b91506139938261392c565b604082019050919050565b600060208201905081810360008301526139b78161397b565b9050919050565b60006139c982612cf4565b915063ffffffff82036139df576139de61330e565b5b600182019050919050565b600081519050919050565b600082825260208201905092915050565b6000819050602082019050919050565b613a1f81612cb6565b82525050565b6000613a318383613a16565b60208301905092915050565b6000602082019050919050565b6000613a55826139ea565b613a5f81856139f5565b9350613a6a83613a06565b8060005b83811015613a9b578151613a828882613a25565b9750613a8d83613a3d565b925050600181019050613a6e565b5085935050505092915050565b6000608082019050613abd6000830187612dba565b8181036020830152613acf8186613a4a565b9050613ade6040830185612f3d565b613aeb6060830184612dba565b95945050505050565b600080fd5b6000601f19601f8301169050919050565b7f4e487b7100000000000000000000000000000000000000000000000000000000600052604160045260246000fd5b613b4282613af9565b810181811067ffffffffffffffff82111715613b6157613b60613b0a565b5b80604052505050565b6000613b74612c82565b9050613b808282613b39565b919050565b600067ffffffffffffffff821115613ba057613b9f613b0a565b5b602082029050602081019050919050565b600080fd5b6000613bc9613bc484613b85565b613b6a565b90508083825260208201905060208402830185811115613bec57613beb613bb1565b5b835b81811015613c155780613c0188826136e6565b845260208401935050602081019050613bee565b5050509392505050565b600082601f830112613c3457613c33613af4565b5b8151613c44848260208601613bb6565b91505092915050565b600060208284031215613c6357613c62612c8c565b5b600082015167ffffffffffffffff811115613c8157613c80612c91565b5b613c8d84828501613c1f565b91505092915050565b600081905092915050565b50565b6000613cb1600083613c96565b9150613cbc82613ca1565b600082019050919050565b6000613cd282613ca4565b9150819050919050565b7f726566756e64206661696c656400000000000000000000000000000000000000600082015250565b6000613d12600d83613291565b9150613d1d82613cdc565b602082019050919050565b60006020820190508181036000830152613d4181613d05565b9050919050565b6000819050919050565b6000613d6d613d68613d6384613d48565b6130c2565b612db0565b9050919050565b613d7d81613d52565b82525050565b600060a082019050613d986000830188612dba565b613da56020830187613d74565b8181036040830152613db78186613a4a565b9050613dc66060830185612f3d565b613dd36080830184612dba565b9695505050505050565b600081519050613dec81612cc8565b92915050565b600060208284031215613e0857613e07612c8c565b5b6000613e1684828501613ddd565b9150509291505056fea2646970667358221220750d46a55fd8cfd94dc82ea413fbd933c323e61d92ce9a207c2ccd973107e67164736f6c63430008100033",
  "immutableReferences": {},
  "source": "pragma solidity ^0.8.16;\n\nimport \"./interfaces/IERC20.sol\";\nimport \"./interfaces/IUniswapV2Router02.sol\";\nimport \"./Portfolium.sol\";\nimport \"./Reserve.sol\";\nimport \"./Oracle.sol\";\nimport \"./Mirrored.sol\";\nimport \"./TokenERC20.sol\";\n\ncontract AmountLimitedCron {\n    enum Operations {\n        Buy,\n        Sell\n    }\n\n    enum ContractTypes {\n        Mirrored,\n        ERC20,\n        Portfolio\n    }\n\n    struct Job {\n        address ownerAddress;\n        bool isActive;\n        ContractTypes contractType;\n        address contractAddress;\n        uint64 recurringInterval;\n        uint256 amount;\n        Operations operation;\n        uint256 createdAt;\n        uint256 lastExecution;\n    }\n\n    address public ownerAddress;\n    address public applicationAddress;\n    uint256 public commission;\n\n    Portfolium public fund;\n    Reserve public reserve;\n    Oracle public oracle;\n    IUniswapV2Router02 public uniswapRouter;\n\n    mapping(address => uint256) public jobNativeBalances;\n    mapping(address => mapping(address => uint256)) public jobTokenBalances;\n    mapping(address => uint32) public jobUserCount;\n    mapping(address => Job[]) public jobs;\n\n    constructor(\n        Portfolium _fund,\n        Reserve _reserve,\n        Oracle _oracle,\n        address _uniswapRouterAddress,\n        uint256 _commission\n    ) {\n        ownerAddress = msg.sender;\n        fund = _fund;\n        reserve = _reserve;\n        oracle = _oracle;\n        uniswapRouter = IUniswapV2Router02(_uniswapRouterAddress);\n        commission = _commission;\n    }\n\n    function _onlyOwner() private view {\n        require(\n            msg.sender == ownerAddress,\n            \"Caller must be the contract owner!\"\n        );\n    }\n\n    modifier onlyOwner() {\n        _onlyOwner();\n        _;\n    }\n\n    function _onlyApplication() private view {\n        require(\n            msg.sender == applicationAddress,\n            \"Caller must be the application!\"\n        );\n    }\n\n    modifier onlyApplication() {\n        _onlyApplication();\n        _;\n    }\n\n    function _mustHaveCorrectInputs(uint64 _interval) private pure {\n        require(\n            _interval >= 5 && _interval <= 525960,\n            \"Interval should be between 5 and 525960 minutes\"\n        );\n    }\n\n    modifier mustHaveCorrectInputs(uint64 _interval) {\n        _mustHaveCorrectInputs(_interval);\n        _;\n    }\n\n    function _mustPayCommission() private view {\n        require(msg.value >= commission, \"Min. commission has to be paid!\");\n    }\n\n    modifier mustPayCommission() {\n        _mustPayCommission();\n        _;\n    }\n\n    function updateApplicationAddress(address newApplicationAddress)\n        public\n        onlyOwner\n    {\n        applicationAddress = newApplicationAddress;\n    }\n\n    function updateCommission(uint256 newCommission) public onlyOwner {\n        commission = newCommission;\n    }\n\n    function deposit() public payable {\n        jobNativeBalances[msg.sender] += msg.value;\n    }\n\n    function depositToken(address _token, uint256 _amount) public payable {\n        bool success = IERC20(_token).transferFrom(\n            msg.sender,\n            address(this),\n            _amount\n        );\n        require(success, \"Unable to deposit tokens!\");\n        jobTokenBalances[msg.sender][_token] += _amount;\n    }\n\n    function withdraw(uint256 _amount) public payable {\n        uint256 balance = jobNativeBalances[msg.sender];\n        {\n            require(balance >= _amount, \"Insufficient balance!\");\n        }\n        jobNativeBalances[msg.sender] -= _amount;\n        payable(msg.sender).transfer(_amount);\n    }\n\n    function withdrawToken(address _token, uint256 _amount) public payable {\n        uint256 balance = jobTokenBalances[msg.sender][_token];\n        {\n            require(balance >= _amount, \"Insufficient token balance!\");\n        }\n        jobTokenBalances[msg.sender][_token] -= _amount;\n        IERC20(_token).transfer(msg.sender, _amount);\n    }\n\n    function createRecurringMirroredBuyJob(\n        uint64 _recurringInterval,\n        address _contractAddress,\n        uint256 _amount\n    )\n        external\n        payable\n        mustPayCommission\n        mustHaveCorrectInputs(_recurringInterval)\n    {\n        _createRecurringJob(\n            _recurringInterval,\n            ContractTypes.Mirrored,\n            Operations.Buy,\n            _contractAddress,\n            _amount\n        );\n    }\n\n    function createRecurringMirroredSellJob(\n        uint64 _recurringInterval,\n        address _contractAddress,\n        uint256 _amount\n    )\n        external\n        payable\n        mustPayCommission\n        mustHaveCorrectInputs(_recurringInterval)\n    {\n        _createRecurringJob(\n            _recurringInterval,\n            ContractTypes.Mirrored,\n            Operations.Sell,\n            _contractAddress,\n            _amount\n        );\n    }\n\n    function createRecurringErc20BuyJob(\n        uint64 _recurringInterval,\n        address _contractAddress,\n        uint256 _amount\n    )\n        external\n        payable\n        mustPayCommission\n        mustHaveCorrectInputs(_recurringInterval)\n    {\n        _createRecurringJob(\n            _recurringInterval,\n            ContractTypes.ERC20,\n            Operations.Buy,\n            _contractAddress,\n            _amount\n        );\n    }\n\n    function createRecurringErc20SellJob(\n        uint64 _recurringInterval,\n        address _contractAddress,\n        uint256 _amount\n    )\n        external\n        payable\n        mustPayCommission\n        mustHaveCorrectInputs(_recurringInterval)\n    {\n        _createRecurringJob(\n            _recurringInterval,\n            ContractTypes.ERC20,\n            Operations.Sell,\n            _contractAddress,\n            _amount\n        );\n    }\n\n    function createRecurringPortfolioBuyJob(\n        uint64 _recurringInterval,\n        address _contractAddress,\n        uint256 _amount\n    )\n        external\n        payable\n        mustPayCommission\n        mustHaveCorrectInputs(_recurringInterval)\n    {\n        _createRecurringJob(\n            _recurringInterval,\n            ContractTypes.Portfolio,\n            Operations.Buy,\n            _contractAddress,\n            _amount\n        );\n    }\n\n    function createRecurringPortfolioSellJob(\n        uint64 _recurringInterval,\n        address _contractAddress,\n        uint256 _amount\n    )\n        external\n        payable\n        mustPayCommission\n        mustHaveCorrectInputs(_recurringInterval)\n    {\n        _createRecurringJob(\n            _recurringInterval,\n            ContractTypes.Portfolio,\n            Operations.Sell,\n            _contractAddress,\n            _amount\n        );\n    }\n\n    function toggleJobActiveState(uint32 jobIndex) external {\n        Job memory job = jobs[msg.sender][jobIndex];\n        require(job.createdAt > 0, \"Job doesn't exist\");\n        jobs[msg.sender][jobIndex].isActive = !job.isActive;\n    }\n\n    function executeJob(address _jobUserAddress, uint32 _jobIndex)\n        external\n        onlyApplication\n    {\n        Job memory job = jobs[_jobUserAddress][_jobIndex];\n\n        require(job.isActive, \"Job must be active\");\n        require(\n            job.lastExecution + job.recurringInterval <= block.timestamp,\n            \"Job not ready for execution yet\"\n        );\n\n        if (job.contractType == ContractTypes.ERC20) {\n            _executeErc20Job(job);\n        } else if (job.contractType == ContractTypes.Portfolio) {\n            _executePortfolioJob(job);\n        } else if (job.contractType == ContractTypes.Mirrored) {\n            _executeMirroredJob(job);\n        }\n\n        jobs[_jobUserAddress][_jobIndex].lastExecution = block.timestamp;\n    }\n\n    receive() external payable {}\n\n    //** INTERNAL **/\n\n    function _executeErc20Job(Job memory _job) internal {\n        uint256 balance = jobNativeBalances[_job.ownerAddress];\n        uint256 cronCommission = commission;\n\n        if (_job.operation == Operations.Buy) {\n            (uint256 price, ) = oracle.getPrice(_job.contractAddress);\n            uint256 estimatedCost = (price * _job.amount) +\n                cronCommission +\n                1 ether;\n\n            require(estimatedCost <= balance, \"Insufficient user balance!\");\n\n            uint256 actualCost = _convertToErc20(\n                _job.contractAddress,\n                _job.amount\n            );\n            _deductCommissionAndTransferTokenToOwner(\n                _job.contractAddress,\n                _job.ownerAddress,\n                _job.amount,\n                actualCost,\n                cronCommission\n            );\n        } else if (_job.operation == Operations.Sell) {\n            require(cronCommission <= balance, \"Insufficient user balance!\");\n\n            uint256 tokenBalance = jobTokenBalances[_job.ownerAddress][\n                _job.contractAddress\n            ];\n            require(tokenBalance >= _job.amount, \"Insufficient token balance!\");\n\n            uint256 received = _convertFromErc20(\n                _job.contractAddress,\n                _job.amount\n            );\n            _deductCommissionAndTransferNativeToOwner(\n                _job.ownerAddress,\n                received,\n                cronCommission\n            );\n        }\n    }\n\n    function _executeMirroredJob(Job memory _job) internal {\n        Mirrored mirroredAsset = Mirrored(_job.contractAddress);\n        uint256 balance = jobNativeBalances[_job.ownerAddress];\n        uint256 cronCommission = commission;\n        (uint256 price, ) = oracle.getPrice(_job.contractAddress);\n\n        if (_job.operation == Operations.Buy) {\n            uint256 cost = price * _job.amount;\n            uint256 mirroredCommission = mirroredAsset.commission();\n            uint256 estimatedCost = cost +\n                cronCommission +\n                mirroredCommission +\n                1 ether;\n\n            require(estimatedCost <= balance, \"Insufficient user balance!\");\n\n            uint256 actualCost = mirroredAsset.mint{\n                value: cost + mirroredCommission\n            }(_job.amount);\n\n            _deductCommissionAndTransferTokenToOwner(\n                _job.contractAddress,\n                _job.ownerAddress,\n                _job.amount,\n                actualCost,\n                cronCommission\n            );\n        } else if (_job.operation == Operations.Sell) {\n            require(cronCommission <= balance, \"Insufficient user balance!\");\n\n            uint256 tokenBalance = jobTokenBalances[_job.ownerAddress][\n                _job.contractAddress\n            ];\n            require(tokenBalance >= _job.amount, \"Insufficient token balance!\");\n\n            uint256 received = mirroredAsset.burn(_job.amount);\n            _deductCommissionAndTransferNativeToOwner(\n                _job.ownerAddress,\n                received,\n                cronCommission\n            );\n        }\n    }\n\n    function _executePortfolioJob(Job memory _job) internal {\n        uint256 balance = jobNativeBalances[_job.ownerAddress];\n        uint256 cronCommission = commission;\n\n        if (_job.operation == Operations.Buy) {\n            uint256 cost = fund.calculateBuyingCost(\n                _job.contractAddress,\n                _job.amount\n            );\n            require(\n                cost + cronCommission <= balance,\n                \"Insufficient user balance!\"\n            );\n\n            fund.buyShares{value: cost}(_job.contractAddress, _job.amount);\n            _deductCommissionAndTransferTokenToOwner(\n                _job.contractAddress,\n                _job.ownerAddress,\n                _job.amount,\n                cost,\n                cronCommission\n            );\n        } else if (_job.operation == Operations.Sell) {\n            require(cronCommission <= balance, \"Insufficient user balance!\");\n            uint256 received = fund.sellShares(\n                _job.contractAddress,\n                _job.amount\n            );\n            _deductCommissionAndTransferNativeToOwner(\n                _job.ownerAddress,\n                received,\n                cronCommission\n            );\n        }\n    }\n\n    function _deductCommissionAndTransferNativeToOwner(\n        address _ownerAddress,\n        uint256 _received,\n        uint256 _commission\n    ) internal {\n        reserve.deposit{value: _commission}();\n        jobNativeBalances[_ownerAddress] -= _commission;\n        payable(_ownerAddress).transfer(_received - _commission);\n    }\n\n    function _deductCommissionAndTransferTokenToOwner(\n        address _tokenAddress,\n        address _ownerAddress,\n        uint256 _received,\n        uint256 _cost,\n        uint256 _commission\n    ) internal {\n        reserve.deposit{value: _commission}();\n        jobNativeBalances[_ownerAddress] -= (_commission + _cost);\n        IERC20(_tokenAddress).transfer(_ownerAddress, _received);\n    }\n\n    function _createRecurringJob(\n        uint64 _recurringInterval,\n        ContractTypes _contractType,\n        Operations _opertaion,\n        address _contractAddress,\n        uint256 _amount\n    ) internal {\n        Job memory newJob = Job(\n            msg.sender,\n            true,\n            _contractType,\n            _contractAddress,\n            _recurringInterval,\n            _amount,\n            _opertaion,\n            block.timestamp,\n            0\n        );\n\n        jobUserCount[msg.sender]++;\n        jobs[msg.sender].push(newJob);\n    }\n\n    function _convertToErc20(address assetAddress, uint256 amount)\n        internal\n        returns (uint256)\n    {\n        uint256 deadline = block.timestamp + 30;\n        uint256[] memory amounts = uniswapRouter.swapETHForExactTokens(\n            amount,\n            _getPathForNativeToErc20(assetAddress),\n            address(this),\n            deadline\n        );\n\n        // refund leftover ETH to user\n        (bool success, ) = msg.sender.call{value: address(this).balance}(\"\");\n        require(success, \"refund failed\");\n\n        return amounts[amounts.length - 1];\n    }\n\n    function _convertFromErc20(address assetAddress, uint256 amount)\n        internal\n        returns (uint256)\n    {\n        uint256 deadline = block.timestamp + 30;\n        uint256[] memory amounts = uniswapRouter.swapExactTokensForETH(\n            amount,\n            1,\n            _getPathForErc20ToNative(assetAddress),\n            address(this),\n            deadline\n        );\n\n        return amounts[amounts.length - 1];\n    }\n\n    function _getPathForNativeToErc20(address assetAddress)\n        private\n        view\n        returns (address[] memory)\n    {\n        address[] memory path = new address[](2);\n        path[0] = uniswapRouter.WETH();\n        path[1] = assetAddress;\n\n        return path;\n    }\n\n    function _getPathForErc20ToNative(address assetAddress)\n        private\n        view\n        returns (address[] memory)\n    {\n        address[] memory path = new address[](2);\n        path[0] = assetAddress;\n        path[1] = uniswapRouter.WETH();\n\n        return path;\n    }\n}\n",
  "sourcePath": "/home/d4fttasiii/git/portfolium/src/fund-contract/contracts/AmountLimitedCron.sol",
  "compiler": {
    "name": "solc",
    "version": "0.8.16+commit.07a7930e.Emscripten.clang"
  },
  "schemaVersion": "3.4.9",
  "updatedAt": "2022-12-12T19:27:59.167Z",
  "devdoc": {
    "kind": "dev",
    "methods": {},
    "version": 1
  },
  "userdoc": {
    "kind": "user",
    "methods": {},
    "version": 1
  }
}