{
  "contractName": "Cron",
  "abi": [
    {
      "inputs": [
        {
          "internalType": "contract Fund",
          "name": "_fund",
          "type": "address"
        },
        {
          "internalType": "contract Reserve",
          "name": "_reserve",
          "type": "address"
        },
        {
          "internalType": "contract Oracle",
          "name": "_oracle",
          "type": "address"
        },
        {
          "internalType": "address",
          "name": "_uniswapRouterAddress",
          "type": "address"
        },
        {
          "internalType": "uint256",
          "name": "_commission",
          "type": "uint256"
        }
      ],
      "stateMutability": "nonpayable",
      "type": "constructor"
    },
    {
      "inputs": [],
      "name": "applicationAddress",
      "outputs": [
        {
          "internalType": "address",
          "name": "",
          "type": "address"
        }
      ],
      "stateMutability": "view",
      "type": "function"
    },
    {
      "inputs": [],
      "name": "commission",
      "outputs": [
        {
          "internalType": "uint256",
          "name": "",
          "type": "uint256"
        }
      ],
      "stateMutability": "view",
      "type": "function"
    },
    {
      "inputs": [],
      "name": "fund",
      "outputs": [
        {
          "internalType": "contract Fund",
          "name": "",
          "type": "address"
        }
      ],
      "stateMutability": "view",
      "type": "function"
    },
    {
      "inputs": [],
      "name": "oracle",
      "outputs": [
        {
          "internalType": "contract Oracle",
          "name": "",
          "type": "address"
        }
      ],
      "stateMutability": "view",
      "type": "function"
    },
    {
      "inputs": [],
      "name": "ownerAddress",
      "outputs": [
        {
          "internalType": "address",
          "name": "",
          "type": "address"
        }
      ],
      "stateMutability": "view",
      "type": "function"
    },
    {
      "inputs": [],
      "name": "reserve",
      "outputs": [
        {
          "internalType": "contract Reserve",
          "name": "",
          "type": "address"
        }
      ],
      "stateMutability": "view",
      "type": "function"
    },
    {
      "inputs": [],
      "name": "uniswapRouter",
      "outputs": [
        {
          "internalType": "contract IUniswapV2Router02",
          "name": "",
          "type": "address"
        }
      ],
      "stateMutability": "view",
      "type": "function"
    },
    {
      "stateMutability": "payable",
      "type": "receive"
    },
    {
      "inputs": [
        {
          "internalType": "address",
          "name": "newApplicationAddress",
          "type": "address"
        }
      ],
      "name": "updateApplicationAddress",
      "outputs": [],
      "stateMutability": "nonpayable",
      "type": "function"
    },
    {
      "inputs": [
        {
          "internalType": "uint256",
          "name": "newCommission",
          "type": "uint256"
        }
      ],
      "name": "updateCommission",
      "outputs": [],
      "stateMutability": "nonpayable",
      "type": "function"
    },
    {
      "inputs": [],
      "name": "deposit",
      "outputs": [],
      "stateMutability": "payable",
      "type": "function"
    },
    {
      "inputs": [
        {
          "internalType": "uint256",
          "name": "amount",
          "type": "uint256"
        }
      ],
      "name": "withdraw",
      "outputs": [],
      "stateMutability": "payable",
      "type": "function"
    },
    {
      "inputs": [
        {
          "internalType": "uint64",
          "name": "_recurringInterval",
          "type": "uint64"
        },
        {
          "internalType": "address",
          "name": "_contractAddress",
          "type": "address"
        },
        {
          "internalType": "uint256",
          "name": "_amount",
          "type": "uint256"
        }
      ],
      "name": "createRecurringMirroredBuyJob",
      "outputs": [],
      "stateMutability": "payable",
      "type": "function"
    },
    {
      "inputs": [
        {
          "internalType": "uint64",
          "name": "_recurringInterval",
          "type": "uint64"
        },
        {
          "internalType": "address",
          "name": "_contractAddress",
          "type": "address"
        },
        {
          "internalType": "uint256",
          "name": "_amount",
          "type": "uint256"
        }
      ],
      "name": "createRecurringMirroredSellJob",
      "outputs": [],
      "stateMutability": "payable",
      "type": "function"
    },
    {
      "inputs": [
        {
          "internalType": "uint64",
          "name": "_recurringInterval",
          "type": "uint64"
        },
        {
          "internalType": "address",
          "name": "_contractAddress",
          "type": "address"
        },
        {
          "internalType": "uint256",
          "name": "_amount",
          "type": "uint256"
        }
      ],
      "name": "createRecurringErc20BuyJob",
      "outputs": [],
      "stateMutability": "payable",
      "type": "function"
    },
    {
      "inputs": [
        {
          "internalType": "uint64",
          "name": "_recurringInterval",
          "type": "uint64"
        },
        {
          "internalType": "address",
          "name": "_contractAddress",
          "type": "address"
        },
        {
          "internalType": "uint256",
          "name": "_amount",
          "type": "uint256"
        }
      ],
      "name": "createRecurringErc20SellJob",
      "outputs": [],
      "stateMutability": "payable",
      "type": "function"
    },
    {
      "inputs": [
        {
          "internalType": "uint64",
          "name": "_recurringInterval",
          "type": "uint64"
        },
        {
          "internalType": "address",
          "name": "_contractAddress",
          "type": "address"
        },
        {
          "internalType": "uint256",
          "name": "_amount",
          "type": "uint256"
        }
      ],
      "name": "createRecurringPortfolioBuyJob",
      "outputs": [],
      "stateMutability": "payable",
      "type": "function"
    },
    {
      "inputs": [
        {
          "internalType": "uint64",
          "name": "_recurringInterval",
          "type": "uint64"
        },
        {
          "internalType": "address",
          "name": "_contractAddress",
          "type": "address"
        },
        {
          "internalType": "uint256",
          "name": "_amount",
          "type": "uint256"
        }
      ],
      "name": "createRecurringPortfolioSellJob",
      "outputs": [],
      "stateMutability": "payable",
      "type": "function"
    },
    {
      "inputs": [
        {
          "internalType": "uint32",
          "name": "jobIndex",
          "type": "uint32"
        }
      ],
      "name": "toggleJobActiveState",
      "outputs": [],
      "stateMutability": "nonpayable",
      "type": "function"
    },
    {
      "inputs": [
        {
          "internalType": "address",
          "name": "_jobUserAddress",
          "type": "address"
        },
        {
          "internalType": "uint32",
          "name": "_jobIndex",
          "type": "uint32"
        }
      ],
      "name": "executeJob",
      "outputs": [],
      "stateMutability": "nonpayable",
      "type": "function"
    }
  ],
  "bytecode": "0x60806040523480156200001157600080fd5b506040516200391238038062003912833981810160405281019062000037919062000315565b336000806101000a81548173ffffffffffffffffffffffffffffffffffffffff021916908373ffffffffffffffffffffffffffffffffffffffff16021790555084600360006101000a81548173ffffffffffffffffffffffffffffffffffffffff021916908373ffffffffffffffffffffffffffffffffffffffff16021790555083600460006101000a81548173ffffffffffffffffffffffffffffffffffffffff021916908373ffffffffffffffffffffffffffffffffffffffff16021790555082600560006101000a81548173ffffffffffffffffffffffffffffffffffffffff021916908373ffffffffffffffffffffffffffffffffffffffff16021790555081600660006101000a81548173ffffffffffffffffffffffffffffffffffffffff021916908373ffffffffffffffffffffffffffffffffffffffff1602179055508060028190555050505050506200039d565b600080fd5b600073ffffffffffffffffffffffffffffffffffffffff82169050919050565b6000620001bf8262000192565b9050919050565b6000620001d382620001b2565b9050919050565b620001e581620001c6565b8114620001f157600080fd5b50565b6000815190506200020581620001da565b92915050565b6000620002188262000192565b9050919050565b60006200022c826200020b565b9050919050565b6200023e816200021f565b81146200024a57600080fd5b50565b6000815190506200025e8162000233565b92915050565b600062000271826200020b565b9050919050565b620002838162000264565b81146200028f57600080fd5b50565b600081519050620002a38162000278565b92915050565b620002b4816200020b565b8114620002c057600080fd5b50565b600081519050620002d481620002a9565b92915050565b6000819050919050565b620002ef81620002da565b8114620002fb57600080fd5b50565b6000815190506200030f81620002e4565b92915050565b600080600080600060a086880312156200033457620003336200018d565b5b60006200034488828901620001f4565b955050602062000357888289016200024d565b94505060406200036a8882890162000292565b93505060606200037d88828901620002c3565b92505060806200039088828901620002fe565b9150509295509295909350565b61356580620003ad6000396000f3fe6080604052600436106101185760003560e01c80639d55fba7116100a0578063cd3293de11610064578063cd3293de1461032b578063d0e30db014610356578063e148919114610360578063fbe109b31461038b578063ff019d93146103a75761011f565b80639d55fba714610276578063a3ca00371461029f578063b60d4288146102c8578063b970781e146102f3578063c704b3e81461030f5761011f565b8063735de9f7116100e7578063735de9f7146101ae5780637dc0d1d0146101d95780638bed9d18146102045780638f84aa091461022f57806392aac9df1461025a5761011f565b80630757249f146101245780632786e4021461014d5780632e1a7d4d146101765780632fc727d0146101925761011f565b3661011f57005b600080fd5b34801561013057600080fd5b5061014b60048036038101906101469190612681565b6103c3565b005b34801561015957600080fd5b50610174600480360381019061016f91906126c1565b61079b565b005b610190600480360381019061018b9190612724565b6107e7565b005b6101ac60048036038101906101a79190612791565b6108c8565b005b3480156101ba57600080fd5b506101c36108ef565b6040516101d09190612843565b60405180910390f35b3480156101e557600080fd5b506101ee610915565b6040516101fb919061287f565b60405180910390f35b34801561021057600080fd5b5061021961093b565b60405161022691906128a9565b60405180910390f35b34801561023b57600080fd5b50610244610961565b60405161025191906128a9565b60405180910390f35b610274600480360381019061026f9190612791565b610985565b005b34801561028257600080fd5b5061029d60048036038101906102989190612724565b6109ac565b005b3480156102ab57600080fd5b506102c660048036038101906102c191906128c4565b6109be565b005b3480156102d457600080fd5b506102dd610c90565b6040516102ea9190612924565b60405180910390f35b61030d60048036038101906103089190612791565b610cb6565b005b61032960048036038101906103249190612791565b610cdc565b005b34801561033757600080fd5b50610340610d03565b60405161034d9190612960565b60405180910390f35b61035e610d29565b005b34801561036c57600080fd5b50610375610d81565b604051610382919061298a565b60405180910390f35b6103a560048036038101906103a09190612791565b610d87565b005b6103c160048036038101906103bc9190612791565b610dad565b005b6103cb610dd4565b6000600960008473ffffffffffffffffffffffffffffffffffffffff1673ffffffffffffffffffffffffffffffffffffffff1681526020019081526020016000208263ffffffff1681548110610424576104236129a5565b5b9060005260206000209060060201604051806101200160405290816000820160009054906101000a900473ffffffffffffffffffffffffffffffffffffffff1673ffffffffffffffffffffffffffffffffffffffff1673ffffffffffffffffffffffffffffffffffffffff1681526020016000820160149054906101000a900460ff161515151581526020016000820160159054906101000a900460ff1660028111156104d4576104d36129d4565b5b60028111156104e6576104e56129d4565b5b81526020016001820160009054906101000a900473ffffffffffffffffffffffffffffffffffffffff1673ffffffffffffffffffffffffffffffffffffffff1673ffffffffffffffffffffffffffffffffffffffff1681526020016001820160149054906101000a900467ffffffffffffffff1667ffffffffffffffff1667ffffffffffffffff168152602001600282015481526020016003820160009054906101000a900460ff1660018111156105a1576105a06129d4565b5b60018111156105b3576105b26129d4565b5b81526020016004820154815260200160058201548152505090508060200151610611576040517f08c379a000000000000000000000000000000000000000000000000000000000815260040161060890612a60565b60405180910390fd5b42816080015167ffffffffffffffff168261010001516106319190612aaf565b1115610672576040517f08c379a000000000000000000000000000000000000000000000000000000000815260040161066990612b2f565b60405180910390fd5b60016002811115610686576106856129d4565b5b8160400151600281111561069d5761069c6129d4565b5b036106b0576106ab81610e66565b610729565b6002808111156106c3576106c26129d4565b5b816040015160028111156106da576106d96129d4565b5b036106ed576106e8816111a0565b610728565b60006002811115610701576107006129d4565b5b81604001516002811115610718576107176129d4565b5b03610727576107268161170d565b5b5b5b42600960008573ffffffffffffffffffffffffffffffffffffffff1673ffffffffffffffffffffffffffffffffffffffff1681526020019081526020016000208363ffffffff1681548110610781576107806129a5565b5b906000526020600020906006020160050181905550505050565b6107a3611ac3565b80600160006101000a81548173ffffffffffffffffffffffffffffffffffffffff021916908373ffffffffffffffffffffffffffffffffffffffff16021790555050565b6000600760003373ffffffffffffffffffffffffffffffffffffffff1673ffffffffffffffffffffffffffffffffffffffff1681526020019081526020016000205490508181101561086e576040517f08c379a000000000000000000000000000000000000000000000000000000000815260040161086590612b9b565b60405180910390fd5b81600760003373ffffffffffffffffffffffffffffffffffffffff1673ffffffffffffffffffffffffffffffffffffffff16815260200190815260200160002060008282546108bd9190612bbb565b925050819055505050565b6108d0611b53565b826108da81611b9a565b6108e984600260018686611c04565b50505050565b600660009054906101000a900473ffffffffffffffffffffffffffffffffffffffff1681565b600560009054906101000a900473ffffffffffffffffffffffffffffffffffffffff1681565b600160009054906101000a900473ffffffffffffffffffffffffffffffffffffffff1681565b60008054906101000a900473ffffffffffffffffffffffffffffffffffffffff1681565b61098d611b53565b8261099781611b9a565b6109a684600260008686611c04565b50505050565b6109b4611ac3565b8060028190555050565b6000600960003373ffffffffffffffffffffffffffffffffffffffff1673ffffffffffffffffffffffffffffffffffffffff1681526020019081526020016000208263ffffffff1681548110610a1757610a166129a5565b5b9060005260206000209060060201604051806101200160405290816000820160009054906101000a900473ffffffffffffffffffffffffffffffffffffffff1673ffffffffffffffffffffffffffffffffffffffff1673ffffffffffffffffffffffffffffffffffffffff1681526020016000820160149054906101000a900460ff161515151581526020016000820160159054906101000a900460ff166002811115610ac757610ac66129d4565b5b6002811115610ad957610ad86129d4565b5b81526020016001820160009054906101000a900473ffffffffffffffffffffffffffffffffffffffff1673ffffffffffffffffffffffffffffffffffffffff1673ffffffffffffffffffffffffffffffffffffffff1681526020016001820160149054906101000a900467ffffffffffffffff1667ffffffffffffffff1667ffffffffffffffff168152602001600282015481526020016003820160009054906101000a900460ff166001811115610b9457610b936129d4565b5b6001811115610ba657610ba56129d4565b5b815260200160048201548152602001600582015481525050905060008160e0015111610c07576040517f08c379a0000000000000000000000000000000000000000000000000000000008152600401610bfe90612c3b565b60405180910390fd5b806020015115600960003373ffffffffffffffffffffffffffffffffffffffff1673ffffffffffffffffffffffffffffffffffffffff1681526020019081526020016000208363ffffffff1681548110610c6457610c636129a5565b5b906000526020600020906006020160000160146101000a81548160ff0219169083151502179055505050565b600360009054906101000a900473ffffffffffffffffffffffffffffffffffffffff1681565b610cbe611b53565b82610cc881611b9a565b610cd6846001808686611c04565b50505050565b610ce4611b53565b82610cee81611b9a565b610cfd84600160008686611c04565b50505050565b600460009054906101000a900473ffffffffffffffffffffffffffffffffffffffff1681565b34600760003373ffffffffffffffffffffffffffffffffffffffff1673ffffffffffffffffffffffffffffffffffffffff1681526020019081526020016000206000828254610d789190612aaf565b92505081905550565b60025481565b610d8f611b53565b82610d9981611b9a565b610da7846000808686611c04565b50505050565b610db5611b53565b82610dbf81611b9a565b610dce84600060018686611c04565b50505050565b600160009054906101000a900473ffffffffffffffffffffffffffffffffffffffff1673ffffffffffffffffffffffffffffffffffffffff163373ffffffffffffffffffffffffffffffffffffffff1614610e64576040517f08c379a0000000000000000000000000000000000000000000000000000000008152600401610e5b90612ca7565b60405180910390fd5b565b600060076000836000015173ffffffffffffffffffffffffffffffffffffffff1673ffffffffffffffffffffffffffffffffffffffff1681526020019081526020016000205490506000600254905060006001811115610ec957610ec86129d4565b5b8360c001516001811115610ee057610edf6129d4565b5b03611101576000600560009054906101000a900473ffffffffffffffffffffffffffffffffffffffff1673ffffffffffffffffffffffffffffffffffffffff166341976e0985606001516040518263ffffffff1660e01b8152600401610f4691906128a9565b6040805180830381865afa158015610f62573d6000803e3d6000fd5b505050506040513d601f19601f82011682018060405250810190610f869190612cdc565b5090506000670de0b6b3a7640000838660a0015184610fa59190612d1c565b610faf9190612aaf565b610fb99190612aaf565b905083811115610ffe576040517f08c379a0000000000000000000000000000000000000000000000000000000008152600401610ff590612dc2565b60405180910390fd5b600061101286606001518760a00151611ef3565b90508060076000886000015173ffffffffffffffffffffffffffffffffffffffff1673ffffffffffffffffffffffffffffffffffffffff16815260200190815260200160002060008282546110679190612bbb565b92505081905550856060015173ffffffffffffffffffffffffffffffffffffffff1663a9059cbb87600001518860a001516040518363ffffffff1660e01b81526004016110b5929190612de2565b6020604051808303816000875af11580156110d4573d6000803e3d6000fd5b505050506040513d601f19601f820116820180604052508101906110f89190612e43565b5050505061119b565b600180811115611114576111136129d4565b5b8360c00151600181111561112b5761112a6129d4565b5b0361119a5781811115611173576040517f08c379a000000000000000000000000000000000000000000000000000000000815260040161116a90612dc2565b60405180910390fd5b600061118784606001518560a00151612099565b905061119884600001518284612195565b505b5b505050565b600060076000836000015173ffffffffffffffffffffffffffffffffffffffff1673ffffffffffffffffffffffffffffffffffffffff168152602001908152602001600020549050600060025490506000600360009054906101000a900473ffffffffffffffffffffffffffffffffffffffff1673ffffffffffffffffffffffffffffffffffffffff1663fcd802b16040518163ffffffff1660e01b8152600401608060405180830381865afa15801561125e573d6000803e3d6000fd5b505050506040513d601f19601f820116820180604052508101906112829190612eaa565b50925050506000600181111561129b5761129a6129d4565b5b8460c0015160018111156112b2576112b16129d4565b5b036115d2576000818560a00151600360009054906101000a900473ffffffffffffffffffffffffffffffffffffffff1673ffffffffffffffffffffffffffffffffffffffff16635b1dac606040518163ffffffff1660e01b8152600401602060405180830381865afa15801561132c573d6000803e3d6000fd5b505050506040513d601f19601f820116820180604052508101906113509190612f11565b61135a9190612d1c565b6113649190612aaf565b90508383826113739190612aaf565b11156113b4576040517f08c379a00000000000000000000000000000000000000000000000000000000081526004016113ab90612dc2565b60405180910390fd5b600360009054906101000a900473ffffffffffffffffffffffffffffffffffffffff1673ffffffffffffffffffffffffffffffffffffffff1663d1a93d18828760a001516040518363ffffffff1660e01b8152600401611414919061298a565b6000604051808303818588803b15801561142d57600080fd5b505af1158015611441573d6000803e3d6000fd5b5050505050600460009054906101000a900473ffffffffffffffffffffffffffffffffffffffff1673ffffffffffffffffffffffffffffffffffffffff1663d0e30db0846040518263ffffffff1660e01b81526004016000604051808303818588803b1580156114b057600080fd5b505af11580156114c4573d6000803e3d6000fd5b5050505050600360009054906101000a900473ffffffffffffffffffffffffffffffffffffffff1673ffffffffffffffffffffffffffffffffffffffff1663a9059cbb86600001518760a001516040518363ffffffff1660e01b815260040161152e929190612de2565b6020604051808303816000875af115801561154d573d6000803e3d6000fd5b505050506040513d601f19601f820116820180604052508101906115719190612e43565b508060076000876000015173ffffffffffffffffffffffffffffffffffffffff1673ffffffffffffffffffffffffffffffffffffffff16815260200190815260200160002060008282546115c59190612bbb565b9250508190555050611707565b6001808111156115e5576115e46129d4565b5b8460c0015160018111156115fc576115fb6129d4565b5b036117065782818361160e9190612aaf565b111561164f576040517f08c379a000000000000000000000000000000000000000000000000000000000815260040161164690612dc2565b60405180910390fd5b6000600360009054906101000a900473ffffffffffffffffffffffffffffffffffffffff1673ffffffffffffffffffffffffffffffffffffffff16634ba8ae818660a001516040518263ffffffff1660e01b81526004016116b0919061298a565b6020604051808303816000875af11580156116cf573d6000803e3d6000fd5b505050506040513d601f19601f820116820180604052508101906116f39190612f11565b905061170485600001518285612195565b505b5b50505050565b600081606001519050600060076000846000015173ffffffffffffffffffffffffffffffffffffffff1673ffffffffffffffffffffffffffffffffffffffff1681526020019081526020016000205490506000600254905060008373ffffffffffffffffffffffffffffffffffffffff1663e14891916040518163ffffffff1660e01b8152600401602060405180830381865afa1580156117b2573d6000803e3d6000fd5b505050506040513d601f19601f820116820180604052508101906117d69190612f11565b90506000600560009054906101000a900473ffffffffffffffffffffffffffffffffffffffff1673ffffffffffffffffffffffffffffffffffffffff166341976e0987606001516040518263ffffffff1660e01b815260040161183991906128a9565b6040805180830381865afa158015611855573d6000803e3d6000fd5b505050506040513d601f19601f820116820180604052508101906118799190612cdc565b509050600060018111156118905761188f6129d4565b5b8660c0015160018111156118a7576118a66129d4565b5b036119b35760008660a00151826118be9190612d1c565b90506000670de0b6b3a76400008486846118d89190612aaf565b6118e29190612aaf565b6118ec9190612aaf565b905085811115611931576040517f08c379a000000000000000000000000000000000000000000000000000000000815260040161192890612dc2565b60405180910390fd5b8673ffffffffffffffffffffffffffffffffffffffff1663a0712d6885846119599190612aaf565b8a60a001516040518363ffffffff1660e01b815260040161197a919061298a565b6000604051808303818588803b15801561199357600080fd5b505af11580156119a7573d6000803e3d6000fd5b50505050505050611abb565b6001808111156119c6576119c56129d4565b5b8660c0015160018111156119dd576119dc6129d4565b5b03611aba5783831115611a25576040517f08c379a0000000000000000000000000000000000000000000000000000000008152600401611a1c90612dc2565b60405180910390fd5b60008573ffffffffffffffffffffffffffffffffffffffff166342966c688860a001516040518263ffffffff1660e01b8152600401611a64919061298a565b6020604051808303816000875af1158015611a83573d6000803e3d6000fd5b505050506040513d601f19601f82011682018060405250810190611aa79190612f11565b9050611ab887600001518286612195565b505b5b505050505050565b60008054906101000a900473ffffffffffffffffffffffffffffffffffffffff1673ffffffffffffffffffffffffffffffffffffffff163373ffffffffffffffffffffffffffffffffffffffff1614611b51576040517f08c379a0000000000000000000000000000000000000000000000000000000008152600401611b4890612fb0565b60405180910390fd5b565b600254341015611b98576040517f08c379a0000000000000000000000000000000000000000000000000000000008152600401611b8f9061301c565b60405180910390fd5b565b60058167ffffffffffffffff1610158015611bc25750620806888167ffffffffffffffff1611155b611c01576040517f08c379a0000000000000000000000000000000000000000000000000000000008152600401611bf8906130ae565b60405180910390fd5b50565b60006040518061012001604052803373ffffffffffffffffffffffffffffffffffffffff168152602001600115158152602001866002811115611c4a57611c496129d4565b5b81526020018473ffffffffffffffffffffffffffffffffffffffff1681526020018767ffffffffffffffff168152602001838152602001856001811115611c9457611c936129d4565b5b815260200142815260200160008152509050600860003373ffffffffffffffffffffffffffffffffffffffff1673ffffffffffffffffffffffffffffffffffffffff168152602001908152602001600020600081819054906101000a900463ffffffff1680929190611d05906130ce565b91906101000a81548163ffffffff021916908363ffffffff16021790555050600960003373ffffffffffffffffffffffffffffffffffffffff1673ffffffffffffffffffffffffffffffffffffffff16815260200190815260200160002081908060018154018082558091505060019003906000526020600020906006020160009091909190915060008201518160000160006101000a81548173ffffffffffffffffffffffffffffffffffffffff021916908373ffffffffffffffffffffffffffffffffffffffff16021790555060208201518160000160146101000a81548160ff02191690831515021790555060408201518160000160156101000a81548160ff02191690836002811115611e1f57611e1e6129d4565b5b021790555060608201518160010160006101000a81548173ffffffffffffffffffffffffffffffffffffffff021916908373ffffffffffffffffffffffffffffffffffffffff16021790555060808201518160010160146101000a81548167ffffffffffffffff021916908367ffffffffffffffff16021790555060a0820151816002015560c08201518160030160006101000a81548160ff02191690836001811115611ecf57611ece6129d4565b5b021790555060e0820151816004015561010082015181600501555050505050505050565b600080601e42611f039190612aaf565b90506000600660009054906101000a900473ffffffffffffffffffffffffffffffffffffffff1673ffffffffffffffffffffffffffffffffffffffff1663fb3bdb4185611f4f886122c5565b30866040518563ffffffff1660e01b8152600401611f7094939291906131b8565b6000604051808303816000875af1158015611f8f573d6000803e3d6000fd5b505050506040513d6000823e3d601f19601f82011682018060405250810190611fb8919061335d565b905060003373ffffffffffffffffffffffffffffffffffffffff1647604051611fe0906133d7565b60006040518083038185875af1925050503d806000811461201d576040519150601f19603f3d011682016040523d82523d6000602084013e612022565b606091505b5050905080612066576040517f08c379a000000000000000000000000000000000000000000000000000000000815260040161205d90613438565b60405180910390fd5b81600183516120759190612bbb565b81518110612086576120856129a5565b5b6020026020010151935050505092915050565b600080601e426120a99190612aaf565b90506000600660009054906101000a900473ffffffffffffffffffffffffffffffffffffffff1673ffffffffffffffffffffffffffffffffffffffff166318cbafe58560016120f78961244c565b30876040518663ffffffff1660e01b8152600401612119959493929190613493565b6000604051808303816000875af1158015612138573d6000803e3d6000fd5b505050506040513d6000823e3d601f19601f82011682018060405250810190612161919061335d565b905080600182516121729190612bbb565b81518110612183576121826129a5565b5b60200260200101519250505092915050565b600460009054906101000a900473ffffffffffffffffffffffffffffffffffffffff1673ffffffffffffffffffffffffffffffffffffffff1663d0e30db0826040518263ffffffff1660e01b81526004016000604051808303818588803b1580156121ff57600080fd5b505af1158015612213573d6000803e3d6000fd5b505050505080600760008573ffffffffffffffffffffffffffffffffffffffff1673ffffffffffffffffffffffffffffffffffffffff16815260200190815260200160002060008282546122679190612bbb565b925050819055508273ffffffffffffffffffffffffffffffffffffffff166108fc82846122949190612bbb565b9081150290604051600060405180830381858888f193505050501580156122bf573d6000803e3d6000fd5b50505050565b60606000600267ffffffffffffffff8111156122e4576122e361321a565b5b6040519080825280602002602001820160405280156123125781602001602082028036833780820191505090505b509050600660009054906101000a900473ffffffffffffffffffffffffffffffffffffffff1673ffffffffffffffffffffffffffffffffffffffff1663ad5c46486040518163ffffffff1660e01b8152600401602060405180830381865afa158015612382573d6000803e3d6000fd5b505050506040513d601f19601f820116820180604052508101906123a69190613502565b816000815181106123ba576123b96129a5565b5b602002602001019073ffffffffffffffffffffffffffffffffffffffff16908173ffffffffffffffffffffffffffffffffffffffff16815250508281600181518110612409576124086129a5565b5b602002602001019073ffffffffffffffffffffffffffffffffffffffff16908173ffffffffffffffffffffffffffffffffffffffff168152505080915050919050565b60606000600267ffffffffffffffff81111561246b5761246a61321a565b5b6040519080825280602002602001820160405280156124995781602001602082028036833780820191505090505b50905082816000815181106124b1576124b06129a5565b5b602002602001019073ffffffffffffffffffffffffffffffffffffffff16908173ffffffffffffffffffffffffffffffffffffffff1681525050600660009054906101000a900473ffffffffffffffffffffffffffffffffffffffff1673ffffffffffffffffffffffffffffffffffffffff1663ad5c46486040518163ffffffff1660e01b8152600401602060405180830381865afa158015612558573d6000803e3d6000fd5b505050506040513d601f19601f8201168201806040525081019061257c9190613502565b816001815181106125905761258f6129a5565b5b602002602001019073ffffffffffffffffffffffffffffffffffffffff16908173ffffffffffffffffffffffffffffffffffffffff168152505080915050919050565b6000604051905090565b600080fd5b600080fd5b600073ffffffffffffffffffffffffffffffffffffffff82169050919050565b6000612612826125e7565b9050919050565b61262281612607565b811461262d57600080fd5b50565b60008135905061263f81612619565b92915050565b600063ffffffff82169050919050565b61265e81612645565b811461266957600080fd5b50565b60008135905061267b81612655565b92915050565b60008060408385031215612698576126976125dd565b5b60006126a685828601612630565b92505060206126b78582860161266c565b9150509250929050565b6000602082840312156126d7576126d66125dd565b5b60006126e584828501612630565b91505092915050565b6000819050919050565b612701816126ee565b811461270c57600080fd5b50565b60008135905061271e816126f8565b92915050565b60006020828403121561273a576127396125dd565b5b60006127488482850161270f565b91505092915050565b600067ffffffffffffffff82169050919050565b61276e81612751565b811461277957600080fd5b50565b60008135905061278b81612765565b92915050565b6000806000606084860312156127aa576127a96125dd565b5b60006127b88682870161277c565b93505060206127c986828701612630565b92505060406127da8682870161270f565b9150509250925092565b6000819050919050565b60006128096128046127ff846125e7565b6127e4565b6125e7565b9050919050565b600061281b826127ee565b9050919050565b600061282d82612810565b9050919050565b61283d81612822565b82525050565b60006020820190506128586000830184612834565b92915050565b600061286982612810565b9050919050565b6128798161285e565b82525050565b60006020820190506128946000830184612870565b92915050565b6128a381612607565b82525050565b60006020820190506128be600083018461289a565b92915050565b6000602082840312156128da576128d96125dd565b5b60006128e88482850161266c565b91505092915050565b60006128fc826127ee565b9050919050565b600061290e826128f1565b9050919050565b61291e81612903565b82525050565b60006020820190506129396000830184612915565b92915050565b600061294a82612810565b9050919050565b61295a8161293f565b82525050565b60006020820190506129756000830184612951565b92915050565b612984816126ee565b82525050565b600060208201905061299f600083018461297b565b92915050565b7f4e487b7100000000000000000000000000000000000000000000000000000000600052603260045260246000fd5b7f4e487b7100000000000000000000000000000000000000000000000000000000600052602160045260246000fd5b600082825260208201905092915050565b7f4a6f62206d757374206265206163746976650000000000000000000000000000600082015250565b6000612a4a601283612a03565b9150612a5582612a14565b602082019050919050565b60006020820190508181036000830152612a7981612a3d565b9050919050565b7f4e487b7100000000000000000000000000000000000000000000000000000000600052601160045260246000fd5b6000612aba826126ee565b9150612ac5836126ee565b9250828201905080821115612add57612adc612a80565b5b92915050565b7f4a6f62206e6f7420726561647920666f7220657865637574696f6e2079657400600082015250565b6000612b19601f83612a03565b9150612b2482612ae3565b602082019050919050565b60006020820190508181036000830152612b4881612b0c565b9050919050565b7f496e73756666696369656e742062616c616e6365210000000000000000000000600082015250565b6000612b85601583612a03565b9150612b9082612b4f565b602082019050919050565b60006020820190508181036000830152612bb481612b78565b9050919050565b6000612bc6826126ee565b9150612bd1836126ee565b9250828203905081811115612be957612be8612a80565b5b92915050565b7f4a6f6220646f65736e2774206578697374000000000000000000000000000000600082015250565b6000612c25601183612a03565b9150612c3082612bef565b602082019050919050565b60006020820190508181036000830152612c5481612c18565b9050919050565b7f43616c6c6572206d75737420626520746865206170706c69636174696f6e2100600082015250565b6000612c91601f83612a03565b9150612c9c82612c5b565b602082019050919050565b60006020820190508181036000830152612cc081612c84565b9050919050565b600081519050612cd6816126f8565b92915050565b60008060408385031215612cf357612cf26125dd565b5b6000612d0185828601612cc7565b9250506020612d1285828601612cc7565b9150509250929050565b6000612d27826126ee565b9150612d32836126ee565b9250817fffffffffffffffffffffffffffffffffffffffffffffffffffffffffffffffff0483118215151615612d6b57612d6a612a80565b5b828202905092915050565b7f496e73756666696369656e7420757365722062616c616e636521000000000000600082015250565b6000612dac601a83612a03565b9150612db782612d76565b602082019050919050565b60006020820190508181036000830152612ddb81612d9f565b9050919050565b6000604082019050612df7600083018561289a565b612e04602083018461297b565b9392505050565b60008115159050919050565b612e2081612e0b565b8114612e2b57600080fd5b50565b600081519050612e3d81612e17565b92915050565b600060208284031215612e5957612e586125dd565b5b6000612e6784828501612e2e565b91505092915050565b600061ffff82169050919050565b612e8781612e70565b8114612e9257600080fd5b50565b600081519050612ea481612e7e565b92915050565b60008060008060808587031215612ec457612ec36125dd565b5b6000612ed287828801612e2e565b9450506020612ee387828801612e95565b9350506040612ef487828801612cc7565b9250506060612f0587828801612e2e565b91505092959194509250565b600060208284031215612f2757612f266125dd565b5b6000612f3584828501612cc7565b91505092915050565b7f43616c6c6572206d7573742062652074686520636f6e7472616374206f776e6560008201527f7221000000000000000000000000000000000000000000000000000000000000602082015250565b6000612f9a602283612a03565b9150612fa582612f3e565b604082019050919050565b60006020820190508181036000830152612fc981612f8d565b9050919050565b7f4d696e2e20636f6d6d697373696f6e2068617320746f20626520706169642100600082015250565b6000613006601f83612a03565b915061301182612fd0565b602082019050919050565b6000602082019050818103600083015261303581612ff9565b9050919050565b7f496e74657276616c2073686f756c64206265206265747765656e203520616e6460008201527f20353235393630206d696e757465730000000000000000000000000000000000602082015250565b6000613098602f83612a03565b91506130a38261303c565b604082019050919050565b600060208201905081810360008301526130c78161308b565b9050919050565b60006130d982612645565b915063ffffffff82036130ef576130ee612a80565b5b600182019050919050565b600081519050919050565b600082825260208201905092915050565b6000819050602082019050919050565b61312f81612607565b82525050565b60006131418383613126565b60208301905092915050565b6000602082019050919050565b6000613165826130fa565b61316f8185613105565b935061317a83613116565b8060005b838110156131ab5781516131928882613135565b975061319d8361314d565b92505060018101905061317e565b5085935050505092915050565b60006080820190506131cd600083018761297b565b81810360208301526131df818661315a565b90506131ee604083018561289a565b6131fb606083018461297b565b95945050505050565b600080fd5b6000601f19601f8301169050919050565b7f4e487b7100000000000000000000000000000000000000000000000000000000600052604160045260246000fd5b61325282613209565b810181811067ffffffffffffffff821117156132715761327061321a565b5b80604052505050565b60006132846125d3565b90506132908282613249565b919050565b600067ffffffffffffffff8211156132b0576132af61321a565b5b602082029050602081019050919050565b600080fd5b60006132d96132d484613295565b61327a565b905080838252602082019050602084028301858111156132fc576132fb6132c1565b5b835b8181101561332557806133118882612cc7565b8452602084019350506020810190506132fe565b5050509392505050565b600082601f83011261334457613343613204565b5b81516133548482602086016132c6565b91505092915050565b600060208284031215613373576133726125dd565b5b600082015167ffffffffffffffff811115613391576133906125e2565b5b61339d8482850161332f565b91505092915050565b600081905092915050565b50565b60006133c16000836133a6565b91506133cc826133b1565b600082019050919050565b60006133e2826133b4565b9150819050919050565b7f726566756e64206661696c656400000000000000000000000000000000000000600082015250565b6000613422600d83612a03565b915061342d826133ec565b602082019050919050565b6000602082019050818103600083015261345181613415565b9050919050565b6000819050919050565b600061347d61347861347384613458565b6127e4565b6126ee565b9050919050565b61348d81613462565b82525050565b600060a0820190506134a8600083018861297b565b6134b56020830187613484565b81810360408301526134c7818661315a565b90506134d6606083018561289a565b6134e3608083018461297b565b9695505050505050565b6000815190506134fc81612619565b92915050565b600060208284031215613518576135176125dd565b5b6000613526848285016134ed565b9150509291505056fea2646970667358221220cf8f34d7c7193c429804e9e1f38820b63d147f0dac6521d7a9f41ff046f29a8864736f6c63430008100033",
  "immutableReferences": {},
  "source": "pragma solidity ^0.8.16;\n\nimport \"./interfaces/IERC20.sol\";\nimport \"./interfaces/IUniswapV2Router02.sol\";\nimport \"./Fund.sol\";\nimport \"./Reserve.sol\";\nimport \"./Oracle.sol\";\nimport \"./Mirrored.sol\";\n\ncontract Cron {\n    enum Operations {\n        Buy,\n        Sell\n    }\n\n    enum ContractTypes {\n        Mirrored,\n        ERC20,\n        Portfolio\n    }\n\n    struct Job {\n        address ownerAddress;\n        bool isActive;\n        ContractTypes contractType;\n        address contractAddress;\n        uint64 recurringInterval;\n        uint256 amount;\n        Operations operation;\n        uint256 createdAt;\n        uint256 lastExecution;\n    }\n\n    address public ownerAddress;\n    address public applicationAddress;\n    uint256 public commission;\n\n    Fund public fund;\n    Reserve public reserve;\n    Oracle public oracle;\n    IUniswapV2Router02 public uniswapRouter;\n\n    mapping(address => uint256) jobUserBalances;\n    mapping(address => uint32) jobUserCount;\n    mapping(address => Job[]) jobs;\n\n    constructor(\n        Fund _fund,\n        Reserve _reserve,\n        Oracle _oracle,\n        address _uniswapRouterAddress,\n        uint256 _commission\n    ) {\n        ownerAddress = msg.sender;\n        fund = _fund;\n        reserve = _reserve;\n        oracle = _oracle;\n        uniswapRouter = IUniswapV2Router02(_uniswapRouterAddress);\n        commission = _commission;\n    }\n\n    function _onlyOwner() private view {\n        require(\n            msg.sender == ownerAddress,\n            \"Caller must be the contract owner!\"\n        );\n    }\n\n    modifier onlyOwner() {\n        _onlyOwner();\n        _;\n    }\n\n    function _onlyApplication() private view {\n        require(\n            msg.sender == applicationAddress,\n            \"Caller must be the application!\"\n        );\n    }\n\n    modifier onlyApplication() {\n        _onlyApplication();\n        _;\n    }\n\n    function _mustHaveCorrectInputs(uint64 _interval) private pure {\n        require(\n            _interval >= 5 && _interval <= 525960,\n            \"Interval should be between 5 and 525960 minutes\"\n        );\n    }\n\n    modifier mustHaveCorrectInputs(uint64 _interval) {\n        _mustHaveCorrectInputs(_interval);\n        _;\n    }\n\n    function _mustPayCommission() private view {\n        require(msg.value >= commission, \"Min. commission has to be paid!\");\n    }\n\n    modifier mustPayCommission() {\n        _mustPayCommission();\n        _;\n    }\n\n    function updateApplicationAddress(address newApplicationAddress)\n        public\n        onlyOwner\n    {\n        applicationAddress = newApplicationAddress;\n    }\n\n    function updateCommission(uint256 newCommission) public onlyOwner {\n        commission = newCommission;\n    }\n\n    function deposit() public payable {\n        jobUserBalances[msg.sender] += msg.value;\n    }\n\n    function withdraw(uint256 amount) public payable {\n        uint256 balance = jobUserBalances[msg.sender];\n        {\n            require(balance >= amount, \"Insufficient balance!\");\n        }\n        jobUserBalances[msg.sender] -= amount;\n    }\n\n    function createRecurringMirroredBuyJob(\n        uint64 _recurringInterval,\n        address _contractAddress,\n        uint256 _amount\n    )\n        external\n        payable\n        mustPayCommission\n        mustHaveCorrectInputs(_recurringInterval)\n    {\n        _createRecurringJob(\n            _recurringInterval,\n            ContractTypes.Mirrored,\n            Operations.Buy,\n            _contractAddress,\n            _amount\n        );\n    }\n\n    function createRecurringMirroredSellJob(\n        uint64 _recurringInterval,\n        address _contractAddress,\n        uint256 _amount\n    )\n        external\n        payable\n        mustPayCommission\n        mustHaveCorrectInputs(_recurringInterval)\n    {\n        _createRecurringJob(\n            _recurringInterval,\n            ContractTypes.Mirrored,\n            Operations.Sell,\n            _contractAddress,\n            _amount\n        );\n    }\n\n    function createRecurringErc20BuyJob(\n        uint64 _recurringInterval,\n        address _contractAddress,\n        uint256 _amount\n    )\n        external\n        payable\n        mustPayCommission\n        mustHaveCorrectInputs(_recurringInterval)\n    {\n        _createRecurringJob(\n            _recurringInterval,\n            ContractTypes.ERC20,\n            Operations.Buy,\n            _contractAddress,\n            _amount\n        );\n    }\n\n    function createRecurringErc20SellJob(\n        uint64 _recurringInterval,\n        address _contractAddress,\n        uint256 _amount\n    )\n        external\n        payable\n        mustPayCommission\n        mustHaveCorrectInputs(_recurringInterval)\n    {\n        _createRecurringJob(\n            _recurringInterval,\n            ContractTypes.ERC20,\n            Operations.Sell,\n            _contractAddress,\n            _amount\n        );\n    }\n\n    function createRecurringPortfolioBuyJob(\n        uint64 _recurringInterval,\n        address _contractAddress,\n        uint256 _amount\n    )\n        external\n        payable\n        mustPayCommission\n        mustHaveCorrectInputs(_recurringInterval)\n    {\n        _createRecurringJob(\n            _recurringInterval,\n            ContractTypes.Portfolio,\n            Operations.Buy,\n            _contractAddress,\n            _amount\n        );\n    }\n\n    function createRecurringPortfolioSellJob(\n        uint64 _recurringInterval,\n        address _contractAddress,\n        uint256 _amount\n    )\n        external\n        payable\n        mustPayCommission\n        mustHaveCorrectInputs(_recurringInterval)\n    {\n        _createRecurringJob(\n            _recurringInterval,\n            ContractTypes.Portfolio,\n            Operations.Sell,\n            _contractAddress,\n            _amount\n        );\n    }\n\n    function toggleJobActiveState(uint32 jobIndex) external {\n        Job memory job = jobs[msg.sender][jobIndex];\n        require(job.createdAt > 0, \"Job doesn't exist\");\n        jobs[msg.sender][jobIndex].isActive = !job.isActive;\n    }\n\n    function executeJob(address _jobUserAddress, uint32 _jobIndex)\n        external\n        onlyApplication\n    {\n        Job memory job = jobs[_jobUserAddress][_jobIndex];\n\n        require(job.isActive, \"Job must be active\");\n        require(\n            job.lastExecution + job.recurringInterval <= block.timestamp,\n            \"Job not ready for execution yet\"\n        );\n\n        if (job.contractType == ContractTypes.ERC20) {\n            _executeErc20Job(job);\n        } else if (job.contractType == ContractTypes.Portfolio) {\n            _executePortfolioJob(job);\n        } else if (job.contractType == ContractTypes.Mirrored) {\n            _executeMirroredJob(job);\n        }\n\n        jobs[_jobUserAddress][_jobIndex].lastExecution = block.timestamp;\n    }\n\n    receive() external payable {}\n\n    //** INTERNAL **/\n\n    function _executeErc20Job(Job memory _job) internal {\n        uint256 balance = jobUserBalances[_job.ownerAddress];\n        uint256 cronCommission = commission;\n\n        if (_job.operation == Operations.Buy) {\n            (uint256 price, ) = oracle.getPrice(_job.contractAddress);\n            uint256 estimatedCost = (price * _job.amount) +\n                cronCommission +\n                1 ether;\n\n            require(estimatedCost <= balance, \"Insufficient user balance!\");\n\n            uint256 actualCost = _convertToErc20(\n                _job.contractAddress,\n                _job.amount\n            );\n            jobUserBalances[_job.ownerAddress] -= actualCost;\n            IERC20(_job.contractAddress).transfer(\n                _job.ownerAddress,\n                _job.amount\n            );\n        } else if (_job.operation == Operations.Sell) {\n            require(cronCommission <= balance, \"Insufficient user balance!\");\n            uint256 received = _convertFromErc20(\n                _job.contractAddress,\n                _job.amount\n            );\n            _deductCommissionAndTransferToOwner(\n                _job.ownerAddress,\n                received,\n                cronCommission\n            );\n        }\n    }\n\n    function _executeMirroredJob(Job memory _job) internal {\n        Mirrored mirroredAsset = Mirrored(_job.contractAddress);\n        uint256 balance = jobUserBalances[_job.ownerAddress];\n        uint256 cronCommission = commission;\n        uint256 mirroredCommission = mirroredAsset.commission();\n        (uint256 price, ) = oracle.getPrice(_job.contractAddress);\n\n        if (_job.operation == Operations.Buy) {\n            uint256 cost = price * _job.amount;\n            uint256 estimatedCost = cost +\n                cronCommission +\n                mirroredCommission +\n                1 ether;\n\n            require(estimatedCost <= balance, \"Insufficient user balance!\");\n\n            mirroredAsset.mint{value: cost + mirroredCommission}(_job.amount);\n        } else if (_job.operation == Operations.Sell) {\n            require(cronCommission <= balance, \"Insufficient user balance!\");\n            uint256 received = mirroredAsset.burn(_job.amount);\n            _deductCommissionAndTransferToOwner(\n                _job.ownerAddress,\n                received,\n                cronCommission\n            );\n        }\n    }\n\n    function _executePortfolioJob(Job memory _job) internal {\n        uint256 balance = jobUserBalances[_job.ownerAddress];\n        uint256 cronCommission = commission;\n        (, , uint256 fundCommission, ) = fund.properties();\n\n        if (_job.operation == Operations.Buy) {\n            uint256 cost = (fund.getSharePrice() * _job.amount) +\n                fundCommission;\n            require(\n                cost + cronCommission <= balance,\n                \"Insufficient user balance!\"\n            );\n\n            fund.buyShares{value: cost}(_job.amount);\n            reserve.deposit{value: cronCommission}();\n            fund.transfer(_job.ownerAddress, _job.amount);\n            jobUserBalances[_job.ownerAddress] -= cost;\n        } else if (_job.operation == Operations.Sell) {\n            require(\n                cronCommission + fundCommission <= balance,\n                \"Insufficient user balance!\"\n            );\n            uint256 received = fund.sellShares(_job.amount);\n            _deductCommissionAndTransferToOwner(\n                _job.ownerAddress,\n                received,\n                cronCommission\n            );\n        }\n    }\n\n    function _deductCommissionAndTransferToOwner(\n        address _ownerAddress,\n        uint256 _received,\n        uint256 _commission\n    ) internal {\n        reserve.deposit{value: _commission}();\n        jobUserBalances[_ownerAddress] -= _commission;\n        payable(_ownerAddress).transfer(_received - _commission);\n    }\n\n    function _createRecurringJob(\n        uint64 _recurringInterval,\n        ContractTypes _contractType,\n        Operations _opertaion,\n        address _contractAddress,\n        uint256 _amount\n    ) internal {\n        Job memory newJob = Job(\n            msg.sender,\n            true,\n            _contractType,\n            _contractAddress,\n            _recurringInterval,\n            _amount,\n            _opertaion,\n            block.timestamp,\n            0\n        );\n\n        jobUserCount[msg.sender]++;\n        jobs[msg.sender].push(newJob);\n    }\n\n    function _convertToErc20(address assetAddress, uint256 amount)\n        internal\n        returns (uint256)\n    {\n        uint256 deadline = block.timestamp + 30;\n        uint256[] memory amounts = uniswapRouter.swapETHForExactTokens(\n            amount,\n            _getPathForNativeToErc20(assetAddress),\n            address(this),\n            deadline\n        );\n\n        // refund leftover ETH to user\n        (bool success, ) = msg.sender.call{value: address(this).balance}(\"\");\n        require(success, \"refund failed\");\n\n        return amounts[amounts.length - 1];\n    }\n\n    function _convertFromErc20(address assetAddress, uint256 amount)\n        internal\n        returns (uint256)\n    {\n        uint256 deadline = block.timestamp + 30;\n        uint256[] memory amounts = uniswapRouter.swapExactTokensForETH(\n            amount,\n            1,\n            _getPathForErc20ToNative(assetAddress),\n            address(this),\n            deadline\n        );\n\n        return amounts[amounts.length - 1];\n    }\n\n    function _getPathForNativeToErc20(address assetAddress)\n        private\n        view\n        returns (address[] memory)\n    {\n        address[] memory path = new address[](2);\n        path[0] = uniswapRouter.WETH();\n        path[1] = assetAddress;\n\n        return path;\n    }\n\n    function _getPathForErc20ToNative(address assetAddress)\n        private\n        view\n        returns (address[] memory)\n    {\n        address[] memory path = new address[](2);\n        path[0] = assetAddress;\n        path[1] = uniswapRouter.WETH();\n\n        return path;\n    }\n}\n",
  "sourcePath": "/home/d4fttasiii/git/al_fundy/src/fund-contract/contracts/Cron.sol",
  "compiler": {
    "name": "solc",
    "version": "0.8.16+commit.07a7930e.Emscripten.clang"
  },
  "schemaVersion": "3.4.9",
  "updatedAt": "2022-11-26T16:08:57.347Z",
  "devdoc": {
    "kind": "dev",
    "methods": {},
    "version": 1
  },
  "userdoc": {
    "kind": "user",
    "methods": {},
    "version": 1
  }
}