{
  "contractName": "Cron",
  "abi": [
    {
      "inputs": [
        {
          "internalType": "contract Fund",
          "name": "_fund",
          "type": "address"
        },
        {
          "internalType": "contract Reserve",
          "name": "_reserve",
          "type": "address"
        },
        {
          "internalType": "contract Oracle",
          "name": "_oracle",
          "type": "address"
        },
        {
          "internalType": "address",
          "name": "_uniswapRouterAddress",
          "type": "address"
        },
        {
          "internalType": "uint256",
          "name": "_commission",
          "type": "uint256"
        }
      ],
      "stateMutability": "nonpayable",
      "type": "constructor"
    },
    {
      "inputs": [],
      "name": "applicationAddress",
      "outputs": [
        {
          "internalType": "address",
          "name": "",
          "type": "address"
        }
      ],
      "stateMutability": "view",
      "type": "function"
    },
    {
      "inputs": [],
      "name": "commission",
      "outputs": [
        {
          "internalType": "uint256",
          "name": "",
          "type": "uint256"
        }
      ],
      "stateMutability": "view",
      "type": "function"
    },
    {
      "inputs": [],
      "name": "fund",
      "outputs": [
        {
          "internalType": "contract Fund",
          "name": "",
          "type": "address"
        }
      ],
      "stateMutability": "view",
      "type": "function"
    },
    {
      "inputs": [],
      "name": "oracle",
      "outputs": [
        {
          "internalType": "contract Oracle",
          "name": "",
          "type": "address"
        }
      ],
      "stateMutability": "view",
      "type": "function"
    },
    {
      "inputs": [],
      "name": "ownerAddress",
      "outputs": [
        {
          "internalType": "address",
          "name": "",
          "type": "address"
        }
      ],
      "stateMutability": "view",
      "type": "function"
    },
    {
      "inputs": [],
      "name": "reserve",
      "outputs": [
        {
          "internalType": "contract Reserve",
          "name": "",
          "type": "address"
        }
      ],
      "stateMutability": "view",
      "type": "function"
    },
    {
      "inputs": [],
      "name": "uniswapRouter",
      "outputs": [
        {
          "internalType": "contract IUniswapV2Router02",
          "name": "",
          "type": "address"
        }
      ],
      "stateMutability": "view",
      "type": "function"
    },
    {
      "stateMutability": "payable",
      "type": "receive"
    },
    {
      "inputs": [
        {
          "internalType": "address",
          "name": "newApplicationAddress",
          "type": "address"
        }
      ],
      "name": "updateApplicationAddress",
      "outputs": [],
      "stateMutability": "nonpayable",
      "type": "function"
    },
    {
      "inputs": [
        {
          "internalType": "uint256",
          "name": "newCommission",
          "type": "uint256"
        }
      ],
      "name": "updateCommission",
      "outputs": [],
      "stateMutability": "nonpayable",
      "type": "function"
    },
    {
      "inputs": [],
      "name": "deposit",
      "outputs": [],
      "stateMutability": "payable",
      "type": "function"
    },
    {
      "inputs": [
        {
          "internalType": "uint256",
          "name": "amount",
          "type": "uint256"
        }
      ],
      "name": "withdraw",
      "outputs": [],
      "stateMutability": "payable",
      "type": "function"
    },
    {
      "inputs": [
        {
          "internalType": "uint64",
          "name": "_recurringInterval",
          "type": "uint64"
        },
        {
          "internalType": "address",
          "name": "_contractAddress",
          "type": "address"
        },
        {
          "internalType": "uint256",
          "name": "_amount",
          "type": "uint256"
        }
      ],
      "name": "createRecurringMirroredBuyJob",
      "outputs": [],
      "stateMutability": "payable",
      "type": "function"
    },
    {
      "inputs": [
        {
          "internalType": "uint64",
          "name": "_recurringInterval",
          "type": "uint64"
        },
        {
          "internalType": "address",
          "name": "_contractAddress",
          "type": "address"
        },
        {
          "internalType": "uint256",
          "name": "_amount",
          "type": "uint256"
        }
      ],
      "name": "createRecurringMirroredSellJob",
      "outputs": [],
      "stateMutability": "payable",
      "type": "function"
    },
    {
      "inputs": [
        {
          "internalType": "uint64",
          "name": "_recurringInterval",
          "type": "uint64"
        },
        {
          "internalType": "address",
          "name": "_contractAddress",
          "type": "address"
        },
        {
          "internalType": "uint256",
          "name": "_amount",
          "type": "uint256"
        }
      ],
      "name": "createRecurringErc20BuyJob",
      "outputs": [],
      "stateMutability": "payable",
      "type": "function"
    },
    {
      "inputs": [
        {
          "internalType": "uint64",
          "name": "_recurringInterval",
          "type": "uint64"
        },
        {
          "internalType": "address",
          "name": "_contractAddress",
          "type": "address"
        },
        {
          "internalType": "uint256",
          "name": "_amount",
          "type": "uint256"
        }
      ],
      "name": "createRecurringErc20SellJob",
      "outputs": [],
      "stateMutability": "payable",
      "type": "function"
    },
    {
      "inputs": [
        {
          "internalType": "uint64",
          "name": "_recurringInterval",
          "type": "uint64"
        },
        {
          "internalType": "address",
          "name": "_contractAddress",
          "type": "address"
        },
        {
          "internalType": "uint256",
          "name": "_amount",
          "type": "uint256"
        }
      ],
      "name": "createRecurringPortfolioBuyJob",
      "outputs": [],
      "stateMutability": "payable",
      "type": "function"
    },
    {
      "inputs": [
        {
          "internalType": "uint64",
          "name": "_recurringInterval",
          "type": "uint64"
        },
        {
          "internalType": "address",
          "name": "_contractAddress",
          "type": "address"
        },
        {
          "internalType": "uint256",
          "name": "_amount",
          "type": "uint256"
        }
      ],
      "name": "createRecurringPortfolioSellJob",
      "outputs": [],
      "stateMutability": "payable",
      "type": "function"
    },
    {
      "inputs": [
        {
          "internalType": "uint32",
          "name": "jobIndex",
          "type": "uint32"
        }
      ],
      "name": "toggleJobActiveState",
      "outputs": [],
      "stateMutability": "nonpayable",
      "type": "function"
    },
    {
      "inputs": [
        {
          "internalType": "address",
          "name": "_jobUserAddress",
          "type": "address"
        },
        {
          "internalType": "uint32",
          "name": "_jobIndex",
          "type": "uint32"
        }
      ],
      "name": "executeJob",
      "outputs": [],
      "stateMutability": "nonpayable",
      "type": "function"
    }
  ],
  "bytecode": "0x60806040523480156200001157600080fd5b50604051620039dd380380620039dd833981810160405281019062000037919062000315565b336000806101000a81548173ffffffffffffffffffffffffffffffffffffffff021916908373ffffffffffffffffffffffffffffffffffffffff16021790555084600360006101000a81548173ffffffffffffffffffffffffffffffffffffffff021916908373ffffffffffffffffffffffffffffffffffffffff16021790555083600460006101000a81548173ffffffffffffffffffffffffffffffffffffffff021916908373ffffffffffffffffffffffffffffffffffffffff16021790555082600560006101000a81548173ffffffffffffffffffffffffffffffffffffffff021916908373ffffffffffffffffffffffffffffffffffffffff16021790555081600660006101000a81548173ffffffffffffffffffffffffffffffffffffffff021916908373ffffffffffffffffffffffffffffffffffffffff1602179055508060028190555050505050506200039d565b600080fd5b600073ffffffffffffffffffffffffffffffffffffffff82169050919050565b6000620001bf8262000192565b9050919050565b6000620001d382620001b2565b9050919050565b620001e581620001c6565b8114620001f157600080fd5b50565b6000815190506200020581620001da565b92915050565b6000620002188262000192565b9050919050565b60006200022c826200020b565b9050919050565b6200023e816200021f565b81146200024a57600080fd5b50565b6000815190506200025e8162000233565b92915050565b600062000271826200020b565b9050919050565b620002838162000264565b81146200028f57600080fd5b50565b600081519050620002a38162000278565b92915050565b620002b4816200020b565b8114620002c057600080fd5b50565b600081519050620002d481620002a9565b92915050565b6000819050919050565b620002ef81620002da565b8114620002fb57600080fd5b50565b6000815190506200030f81620002e4565b92915050565b600080600080600060a086880312156200033457620003336200018d565b5b60006200034488828901620001f4565b955050602062000357888289016200024d565b94505060406200036a8882890162000292565b93505060606200037d88828901620002c3565b92505060806200039088828901620002fe565b9150509295509295909350565b61363080620003ad6000396000f3fe6080604052600436106101185760003560e01c80639d55fba7116100a0578063cd3293de11610064578063cd3293de1461032b578063d0e30db014610356578063e148919114610360578063fbe109b31461038b578063ff019d93146103a75761011f565b80639d55fba714610276578063a3ca00371461029f578063b60d4288146102c8578063b970781e146102f3578063c704b3e81461030f5761011f565b8063735de9f7116100e7578063735de9f7146101ae5780637dc0d1d0146101d95780638bed9d18146102045780638f84aa091461022f57806392aac9df1461025a5761011f565b80630757249f146101245780632786e4021461014d5780632e1a7d4d146101765780632fc727d0146101925761011f565b3661011f57005b600080fd5b34801561013057600080fd5b5061014b6004803603810190610146919061274c565b6103c3565b005b34801561015957600080fd5b50610174600480360381019061016f919061278c565b6107d6565b005b610190600480360381019061018b91906127ef565b610822565b005b6101ac60048036038101906101a7919061285c565b610903565b005b3480156101ba57600080fd5b506101c361092c565b6040516101d0919061290e565b60405180910390f35b3480156101e557600080fd5b506101ee610952565b6040516101fb919061294a565b60405180910390f35b34801561021057600080fd5b50610219610978565b6040516102269190612974565b60405180910390f35b34801561023b57600080fd5b5061024461099e565b6040516102519190612974565b60405180910390f35b610274600480360381019061026f919061285c565b6109c2565b005b34801561028257600080fd5b5061029d600480360381019061029891906127ef565b6109ea565b005b3480156102ab57600080fd5b506102c660048036038101906102c1919061298f565b6109fc565b005b3480156102d457600080fd5b506102dd610d0a565b6040516102ea91906129ef565b60405180910390f35b61030d6004803603810190610308919061285c565b610d30565b005b6103296004803603810190610324919061285c565b610d58565b005b34801561033757600080fd5b50610340610d80565b60405161034d9190612a2b565b60405180910390f35b61035e610da6565b005b34801561036c57600080fd5b50610375610dfe565b6040516103829190612a55565b60405180910390f35b6103a560048036038101906103a0919061285c565b610e04565b005b6103c160048036038101906103bc919061285c565b610e2c565b005b6103cb610e55565b6000600960008473ffffffffffffffffffffffffffffffffffffffff1673ffffffffffffffffffffffffffffffffffffffff1681526020019081526020016000208263ffffffff168154811061042457610423612a70565b5b9060005260206000209060060201604051806101400160405290816000820160009054906101000a900473ffffffffffffffffffffffffffffffffffffffff1673ffffffffffffffffffffffffffffffffffffffff1673ffffffffffffffffffffffffffffffffffffffff1681526020016000820160149054906101000a900460ff161515151581526020016000820160159054906101000a900460ff1660018111156104d4576104d3612a9f565b5b60018111156104e6576104e5612a9f565b5b81526020016000820160169054906101000a900460ff16600281111561050f5761050e612a9f565b5b600281111561052157610520612a9f565b5b81526020016001820160009054906101000a900473ffffffffffffffffffffffffffffffffffffffff1673ffffffffffffffffffffffffffffffffffffffff1673ffffffffffffffffffffffffffffffffffffffff1681526020016001820160149054906101000a900467ffffffffffffffff1667ffffffffffffffff1667ffffffffffffffff168152602001600282015481526020016003820160009054906101000a900460ff1660018111156105dc576105db612a9f565b5b60018111156105ee576105ed612a9f565b5b8152602001600482015481526020016005820154815250509050806020015161064c576040517f08c379a000000000000000000000000000000000000000000000000000000000815260040161064390612b2b565b60405180910390fd5b428160a0015167ffffffffffffffff1682610120015161066c9190612b7a565b11156106ad576040517f08c379a00000000000000000000000000000000000000000000000000000000081526004016106a490612bfa565b60405180910390fd5b600160028111156106c1576106c0612a9f565b5b816060015160028111156106d8576106d7612a9f565b5b036106eb576106e681610ee7565b610764565b6002808111156106fe576106fd612a9f565b5b8160600151600281111561071557610714612a9f565b5b036107285761072381611221565b610763565b6000600281111561073c5761073b612a9f565b5b8160600151600281111561075357610752612a9f565b5b03610762576107618161178e565b5b5b5b42600960008573ffffffffffffffffffffffffffffffffffffffff1673ffffffffffffffffffffffffffffffffffffffff1681526020019081526020016000208363ffffffff16815481106107bc576107bb612a70565b5b906000526020600020906006020160050181905550505050565b6107de611b44565b80600160006101000a81548173ffffffffffffffffffffffffffffffffffffffff021916908373ffffffffffffffffffffffffffffffffffffffff16021790555050565b6000600760003373ffffffffffffffffffffffffffffffffffffffff1673ffffffffffffffffffffffffffffffffffffffff168152602001908152602001600020549050818110156108a9576040517f08c379a00000000000000000000000000000000000000000000000000000000081526004016108a090612c66565b60405180910390fd5b81600760003373ffffffffffffffffffffffffffffffffffffffff1673ffffffffffffffffffffffffffffffffffffffff16815260200190815260200160002060008282546108f89190612c86565b925050819055505050565b61090b611bd4565b8261091581611c1b565b610926846002600160008787611c85565b50505050565b600660009054906101000a900473ffffffffffffffffffffffffffffffffffffffff1681565b600560009054906101000a900473ffffffffffffffffffffffffffffffffffffffff1681565b600160009054906101000a900473ffffffffffffffffffffffffffffffffffffffff1681565b60008054906101000a900473ffffffffffffffffffffffffffffffffffffffff1681565b6109ca611bd4565b826109d481611c1b565b6109e48460026000808787611c85565b50505050565b6109f2611b44565b8060028190555050565b6000600960003373ffffffffffffffffffffffffffffffffffffffff1673ffffffffffffffffffffffffffffffffffffffff1681526020019081526020016000208263ffffffff1681548110610a5557610a54612a70565b5b9060005260206000209060060201604051806101400160405290816000820160009054906101000a900473ffffffffffffffffffffffffffffffffffffffff1673ffffffffffffffffffffffffffffffffffffffff1673ffffffffffffffffffffffffffffffffffffffff1681526020016000820160149054906101000a900460ff161515151581526020016000820160159054906101000a900460ff166001811115610b0557610b04612a9f565b5b6001811115610b1757610b16612a9f565b5b81526020016000820160169054906101000a900460ff166002811115610b4057610b3f612a9f565b5b6002811115610b5257610b51612a9f565b5b81526020016001820160009054906101000a900473ffffffffffffffffffffffffffffffffffffffff1673ffffffffffffffffffffffffffffffffffffffff1673ffffffffffffffffffffffffffffffffffffffff1681526020016001820160149054906101000a900467ffffffffffffffff1667ffffffffffffffff1667ffffffffffffffff168152602001600282015481526020016003820160009054906101000a900460ff166001811115610c0d57610c0c612a9f565b5b6001811115610c1f57610c1e612a9f565b5b8152602001600482015481526020016005820154815250509050600081610100015111610c81576040517f08c379a0000000000000000000000000000000000000000000000000000000008152600401610c7890612d06565b60405180910390fd5b806020015115600960003373ffffffffffffffffffffffffffffffffffffffff1673ffffffffffffffffffffffffffffffffffffffff1681526020019081526020016000208363ffffffff1681548110610cde57610cdd612a70565b5b906000526020600020906006020160000160146101000a81548160ff0219169083151502179055505050565b600360009054906101000a900473ffffffffffffffffffffffffffffffffffffffff1681565b610d38611bd4565b82610d4281611c1b565b610d528460018060008787611c85565b50505050565b610d60611bd4565b82610d6a81611c1b565b610d7a8460016000808787611c85565b50505050565b600460009054906101000a900473ffffffffffffffffffffffffffffffffffffffff1681565b34600760003373ffffffffffffffffffffffffffffffffffffffff1673ffffffffffffffffffffffffffffffffffffffff1681526020019081526020016000206000828254610df59190612b7a565b92505081905550565b60025481565b610e0c611bd4565b82610e1681611c1b565b610e268460008060008787611c85565b50505050565b610e34611bd4565b82610e3e81611c1b565b610e4f846000600160008787611c85565b50505050565b600160009054906101000a900473ffffffffffffffffffffffffffffffffffffffff1673ffffffffffffffffffffffffffffffffffffffff163373ffffffffffffffffffffffffffffffffffffffff1614610ee5576040517f08c379a0000000000000000000000000000000000000000000000000000000008152600401610edc90612d72565b60405180910390fd5b565b600060076000836000015173ffffffffffffffffffffffffffffffffffffffff1673ffffffffffffffffffffffffffffffffffffffff1681526020019081526020016000205490506000600254905060006001811115610f4a57610f49612a9f565b5b8360e001516001811115610f6157610f60612a9f565b5b03611182576000600560009054906101000a900473ffffffffffffffffffffffffffffffffffffffff1673ffffffffffffffffffffffffffffffffffffffff166341976e0985608001516040518263ffffffff1660e01b8152600401610fc79190612974565b6040805180830381865afa158015610fe3573d6000803e3d6000fd5b505050506040513d601f19601f820116820180604052508101906110079190612da7565b5090506000670de0b6b3a7640000838660c00151846110269190612de7565b6110309190612b7a565b61103a9190612b7a565b90508381111561107f576040517f08c379a000000000000000000000000000000000000000000000000000000000815260040161107690612e8d565b60405180910390fd5b600061109386608001518760c00151611fbe565b90508060076000886000015173ffffffffffffffffffffffffffffffffffffffff1673ffffffffffffffffffffffffffffffffffffffff16815260200190815260200160002060008282546110e89190612c86565b92505081905550856080015173ffffffffffffffffffffffffffffffffffffffff1663a9059cbb87600001518860c001516040518363ffffffff1660e01b8152600401611136929190612ead565b6020604051808303816000875af1158015611155573d6000803e3d6000fd5b505050506040513d601f19601f820116820180604052508101906111799190612f0e565b5050505061121c565b60018081111561119557611194612a9f565b5b8360e0015160018111156111ac576111ab612a9f565b5b0361121b57818111156111f4576040517f08c379a00000000000000000000000000000000000000000000000000000000081526004016111eb90612e8d565b60405180910390fd5b600061120884608001518560c00151612164565b905061121984600001518284612260565b505b5b505050565b600060076000836000015173ffffffffffffffffffffffffffffffffffffffff1673ffffffffffffffffffffffffffffffffffffffff168152602001908152602001600020549050600060025490506000600360009054906101000a900473ffffffffffffffffffffffffffffffffffffffff1673ffffffffffffffffffffffffffffffffffffffff1663fcd802b16040518163ffffffff1660e01b8152600401608060405180830381865afa1580156112df573d6000803e3d6000fd5b505050506040513d601f19601f820116820180604052508101906113039190612f75565b50925050506000600181111561131c5761131b612a9f565b5b8460e00151600181111561133357611332612a9f565b5b03611653576000818560c00151600360009054906101000a900473ffffffffffffffffffffffffffffffffffffffff1673ffffffffffffffffffffffffffffffffffffffff16635b1dac606040518163ffffffff1660e01b8152600401602060405180830381865afa1580156113ad573d6000803e3d6000fd5b505050506040513d601f19601f820116820180604052508101906113d19190612fdc565b6113db9190612de7565b6113e59190612b7a565b90508383826113f49190612b7a565b1115611435576040517f08c379a000000000000000000000000000000000000000000000000000000000815260040161142c90612e8d565b60405180910390fd5b600360009054906101000a900473ffffffffffffffffffffffffffffffffffffffff1673ffffffffffffffffffffffffffffffffffffffff1663d1a93d18828760c001516040518363ffffffff1660e01b81526004016114959190612a55565b6000604051808303818588803b1580156114ae57600080fd5b505af11580156114c2573d6000803e3d6000fd5b5050505050600460009054906101000a900473ffffffffffffffffffffffffffffffffffffffff1673ffffffffffffffffffffffffffffffffffffffff1663d0e30db0846040518263ffffffff1660e01b81526004016000604051808303818588803b15801561153157600080fd5b505af1158015611545573d6000803e3d6000fd5b5050505050600360009054906101000a900473ffffffffffffffffffffffffffffffffffffffff1673ffffffffffffffffffffffffffffffffffffffff1663a9059cbb86600001518760c001516040518363ffffffff1660e01b81526004016115af929190612ead565b6020604051808303816000875af11580156115ce573d6000803e3d6000fd5b505050506040513d601f19601f820116820180604052508101906115f29190612f0e565b508060076000876000015173ffffffffffffffffffffffffffffffffffffffff1673ffffffffffffffffffffffffffffffffffffffff16815260200190815260200160002060008282546116469190612c86565b9250508190555050611788565b60018081111561166657611665612a9f565b5b8460e00151600181111561167d5761167c612a9f565b5b036117875782818361168f9190612b7a565b11156116d0576040517f08c379a00000000000000000000000000000000000000000000000000000000081526004016116c790612e8d565b60405180910390fd5b6000600360009054906101000a900473ffffffffffffffffffffffffffffffffffffffff1673ffffffffffffffffffffffffffffffffffffffff16634ba8ae818660c001516040518263ffffffff1660e01b81526004016117319190612a55565b6020604051808303816000875af1158015611750573d6000803e3d6000fd5b505050506040513d601f19601f820116820180604052508101906117749190612fdc565b905061178585600001518285612260565b505b5b50505050565b600081608001519050600060076000846000015173ffffffffffffffffffffffffffffffffffffffff1673ffffffffffffffffffffffffffffffffffffffff1681526020019081526020016000205490506000600254905060008373ffffffffffffffffffffffffffffffffffffffff1663e14891916040518163ffffffff1660e01b8152600401602060405180830381865afa158015611833573d6000803e3d6000fd5b505050506040513d601f19601f820116820180604052508101906118579190612fdc565b90506000600560009054906101000a900473ffffffffffffffffffffffffffffffffffffffff1673ffffffffffffffffffffffffffffffffffffffff166341976e0987608001516040518263ffffffff1660e01b81526004016118ba9190612974565b6040805180830381865afa1580156118d6573d6000803e3d6000fd5b505050506040513d601f19601f820116820180604052508101906118fa9190612da7565b5090506000600181111561191157611910612a9f565b5b8660e00151600181111561192857611927612a9f565b5b03611a345760008660c001518261193f9190612de7565b90506000670de0b6b3a76400008486846119599190612b7a565b6119639190612b7a565b61196d9190612b7a565b9050858111156119b2576040517f08c379a00000000000000000000000000000000000000000000000000000000081526004016119a990612e8d565b60405180910390fd5b8673ffffffffffffffffffffffffffffffffffffffff1663a0712d6885846119da9190612b7a565b8a60c001516040518363ffffffff1660e01b81526004016119fb9190612a55565b6000604051808303818588803b158015611a1457600080fd5b505af1158015611a28573d6000803e3d6000fd5b50505050505050611b3c565b600180811115611a4757611a46612a9f565b5b8660e001516001811115611a5e57611a5d612a9f565b5b03611b3b5783831115611aa6576040517f08c379a0000000000000000000000000000000000000000000000000000000008152600401611a9d90612e8d565b60405180910390fd5b60008573ffffffffffffffffffffffffffffffffffffffff166342966c688860c001516040518263ffffffff1660e01b8152600401611ae59190612a55565b6020604051808303816000875af1158015611b04573d6000803e3d6000fd5b505050506040513d601f19601f82011682018060405250810190611b289190612fdc565b9050611b3987600001518286612260565b505b5b505050505050565b60008054906101000a900473ffffffffffffffffffffffffffffffffffffffff1673ffffffffffffffffffffffffffffffffffffffff163373ffffffffffffffffffffffffffffffffffffffff1614611bd2576040517f08c379a0000000000000000000000000000000000000000000000000000000008152600401611bc99061307b565b60405180910390fd5b565b600254341015611c19576040517f08c379a0000000000000000000000000000000000000000000000000000000008152600401611c10906130e7565b60405180910390fd5b565b60058167ffffffffffffffff1610158015611c435750620806888167ffffffffffffffff1611155b611c82576040517f08c379a0000000000000000000000000000000000000000000000000000000008152600401611c7990613179565b60405180910390fd5b50565b60006040518061014001604052803373ffffffffffffffffffffffffffffffffffffffff168152602001600115158152602001856001811115611ccb57611cca612a9f565b5b8152602001876002811115611ce357611ce2612a9f565b5b81526020018473ffffffffffffffffffffffffffffffffffffffff1681526020018867ffffffffffffffff168152602001838152602001866001811115611d2d57611d2c612a9f565b5b815260200142815260200160008152509050600860003373ffffffffffffffffffffffffffffffffffffffff1673ffffffffffffffffffffffffffffffffffffffff168152602001908152602001600020600081819054906101000a900463ffffffff1680929190611d9e90613199565b91906101000a81548163ffffffff021916908363ffffffff16021790555050600960003373ffffffffffffffffffffffffffffffffffffffff1673ffffffffffffffffffffffffffffffffffffffff16815260200190815260200160002081908060018154018082558091505060019003906000526020600020906006020160009091909190915060008201518160000160006101000a81548173ffffffffffffffffffffffffffffffffffffffff021916908373ffffffffffffffffffffffffffffffffffffffff16021790555060208201518160000160146101000a81548160ff02191690831515021790555060408201518160000160156101000a81548160ff02191690836001811115611eb857611eb7612a9f565b5b021790555060608201518160000160166101000a81548160ff02191690836002811115611ee857611ee7612a9f565b5b021790555060808201518160010160006101000a81548173ffffffffffffffffffffffffffffffffffffffff021916908373ffffffffffffffffffffffffffffffffffffffff16021790555060a08201518160010160146101000a81548167ffffffffffffffff021916908367ffffffffffffffff16021790555060c0820151816002015560e08201518160030160006101000a81548160ff02191690836001811115611f9857611f97612a9f565b5b021790555061010082015181600401556101208201518160050155505050505050505050565b600080601e42611fce9190612b7a565b90506000600660009054906101000a900473ffffffffffffffffffffffffffffffffffffffff1673ffffffffffffffffffffffffffffffffffffffff1663fb3bdb418561201a88612390565b30866040518563ffffffff1660e01b815260040161203b9493929190613283565b6000604051808303816000875af115801561205a573d6000803e3d6000fd5b505050506040513d6000823e3d601f19601f820116820180604052508101906120839190613428565b905060003373ffffffffffffffffffffffffffffffffffffffff16476040516120ab906134a2565b60006040518083038185875af1925050503d80600081146120e8576040519150601f19603f3d011682016040523d82523d6000602084013e6120ed565b606091505b5050905080612131576040517f08c379a000000000000000000000000000000000000000000000000000000000815260040161212890613503565b60405180910390fd5b81600183516121409190612c86565b8151811061215157612150612a70565b5b6020026020010151935050505092915050565b600080601e426121749190612b7a565b90506000600660009054906101000a900473ffffffffffffffffffffffffffffffffffffffff1673ffffffffffffffffffffffffffffffffffffffff166318cbafe58560016121c289612517565b30876040518663ffffffff1660e01b81526004016121e495949392919061355e565b6000604051808303816000875af1158015612203573d6000803e3d6000fd5b505050506040513d6000823e3d601f19601f8201168201806040525081019061222c9190613428565b9050806001825161223d9190612c86565b8151811061224e5761224d612a70565b5b60200260200101519250505092915050565b600460009054906101000a900473ffffffffffffffffffffffffffffffffffffffff1673ffffffffffffffffffffffffffffffffffffffff1663d0e30db0826040518263ffffffff1660e01b81526004016000604051808303818588803b1580156122ca57600080fd5b505af11580156122de573d6000803e3d6000fd5b505050505080600760008573ffffffffffffffffffffffffffffffffffffffff1673ffffffffffffffffffffffffffffffffffffffff16815260200190815260200160002060008282546123329190612c86565b925050819055508273ffffffffffffffffffffffffffffffffffffffff166108fc828461235f9190612c86565b9081150290604051600060405180830381858888f1935050505015801561238a573d6000803e3d6000fd5b50505050565b60606000600267ffffffffffffffff8111156123af576123ae6132e5565b5b6040519080825280602002602001820160405280156123dd5781602001602082028036833780820191505090505b509050600660009054906101000a900473ffffffffffffffffffffffffffffffffffffffff1673ffffffffffffffffffffffffffffffffffffffff1663ad5c46486040518163ffffffff1660e01b8152600401602060405180830381865afa15801561244d573d6000803e3d6000fd5b505050506040513d601f19601f8201168201806040525081019061247191906135cd565b8160008151811061248557612484612a70565b5b602002602001019073ffffffffffffffffffffffffffffffffffffffff16908173ffffffffffffffffffffffffffffffffffffffff168152505082816001815181106124d4576124d3612a70565b5b602002602001019073ffffffffffffffffffffffffffffffffffffffff16908173ffffffffffffffffffffffffffffffffffffffff168152505080915050919050565b60606000600267ffffffffffffffff811115612536576125356132e5565b5b6040519080825280602002602001820160405280156125645781602001602082028036833780820191505090505b509050828160008151811061257c5761257b612a70565b5b602002602001019073ffffffffffffffffffffffffffffffffffffffff16908173ffffffffffffffffffffffffffffffffffffffff1681525050600660009054906101000a900473ffffffffffffffffffffffffffffffffffffffff1673ffffffffffffffffffffffffffffffffffffffff1663ad5c46486040518163ffffffff1660e01b8152600401602060405180830381865afa158015612623573d6000803e3d6000fd5b505050506040513d601f19601f8201168201806040525081019061264791906135cd565b8160018151811061265b5761265a612a70565b5b602002602001019073ffffffffffffffffffffffffffffffffffffffff16908173ffffffffffffffffffffffffffffffffffffffff168152505080915050919050565b6000604051905090565b600080fd5b600080fd5b600073ffffffffffffffffffffffffffffffffffffffff82169050919050565b60006126dd826126b2565b9050919050565b6126ed816126d2565b81146126f857600080fd5b50565b60008135905061270a816126e4565b92915050565b600063ffffffff82169050919050565b61272981612710565b811461273457600080fd5b50565b60008135905061274681612720565b92915050565b60008060408385031215612763576127626126a8565b5b6000612771858286016126fb565b925050602061278285828601612737565b9150509250929050565b6000602082840312156127a2576127a16126a8565b5b60006127b0848285016126fb565b91505092915050565b6000819050919050565b6127cc816127b9565b81146127d757600080fd5b50565b6000813590506127e9816127c3565b92915050565b600060208284031215612805576128046126a8565b5b6000612813848285016127da565b91505092915050565b600067ffffffffffffffff82169050919050565b6128398161281c565b811461284457600080fd5b50565b60008135905061285681612830565b92915050565b600080600060608486031215612875576128746126a8565b5b600061288386828701612847565b9350506020612894868287016126fb565b92505060406128a5868287016127da565b9150509250925092565b6000819050919050565b60006128d46128cf6128ca846126b2565b6128af565b6126b2565b9050919050565b60006128e6826128b9565b9050919050565b60006128f8826128db565b9050919050565b612908816128ed565b82525050565b600060208201905061292360008301846128ff565b92915050565b6000612934826128db565b9050919050565b61294481612929565b82525050565b600060208201905061295f600083018461293b565b92915050565b61296e816126d2565b82525050565b60006020820190506129896000830184612965565b92915050565b6000602082840312156129a5576129a46126a8565b5b60006129b384828501612737565b91505092915050565b60006129c7826128b9565b9050919050565b60006129d9826129bc565b9050919050565b6129e9816129ce565b82525050565b6000602082019050612a0460008301846129e0565b92915050565b6000612a15826128db565b9050919050565b612a2581612a0a565b82525050565b6000602082019050612a406000830184612a1c565b92915050565b612a4f816127b9565b82525050565b6000602082019050612a6a6000830184612a46565b92915050565b7f4e487b7100000000000000000000000000000000000000000000000000000000600052603260045260246000fd5b7f4e487b7100000000000000000000000000000000000000000000000000000000600052602160045260246000fd5b600082825260208201905092915050565b7f4a6f62206d757374206265206163746976650000000000000000000000000000600082015250565b6000612b15601283612ace565b9150612b2082612adf565b602082019050919050565b60006020820190508181036000830152612b4481612b08565b9050919050565b7f4e487b7100000000000000000000000000000000000000000000000000000000600052601160045260246000fd5b6000612b85826127b9565b9150612b90836127b9565b9250828201905080821115612ba857612ba7612b4b565b5b92915050565b7f4a6f62206e6f7420726561647920666f7220657865637574696f6e2079657400600082015250565b6000612be4601f83612ace565b9150612bef82612bae565b602082019050919050565b60006020820190508181036000830152612c1381612bd7565b9050919050565b7f496e73756666696369656e742062616c616e6365210000000000000000000000600082015250565b6000612c50601583612ace565b9150612c5b82612c1a565b602082019050919050565b60006020820190508181036000830152612c7f81612c43565b9050919050565b6000612c91826127b9565b9150612c9c836127b9565b9250828203905081811115612cb457612cb3612b4b565b5b92915050565b7f4a6f6220646f65736e2774206578697374000000000000000000000000000000600082015250565b6000612cf0601183612ace565b9150612cfb82612cba565b602082019050919050565b60006020820190508181036000830152612d1f81612ce3565b9050919050565b7f43616c6c6572206d75737420626520746865206170706c69636174696f6e2100600082015250565b6000612d5c601f83612ace565b9150612d6782612d26565b602082019050919050565b60006020820190508181036000830152612d8b81612d4f565b9050919050565b600081519050612da1816127c3565b92915050565b60008060408385031215612dbe57612dbd6126a8565b5b6000612dcc85828601612d92565b9250506020612ddd85828601612d92565b9150509250929050565b6000612df2826127b9565b9150612dfd836127b9565b9250817fffffffffffffffffffffffffffffffffffffffffffffffffffffffffffffffff0483118215151615612e3657612e35612b4b565b5b828202905092915050565b7f496e73756666696369656e7420757365722062616c616e636521000000000000600082015250565b6000612e77601a83612ace565b9150612e8282612e41565b602082019050919050565b60006020820190508181036000830152612ea681612e6a565b9050919050565b6000604082019050612ec26000830185612965565b612ecf6020830184612a46565b9392505050565b60008115159050919050565b612eeb81612ed6565b8114612ef657600080fd5b50565b600081519050612f0881612ee2565b92915050565b600060208284031215612f2457612f236126a8565b5b6000612f3284828501612ef9565b91505092915050565b600061ffff82169050919050565b612f5281612f3b565b8114612f5d57600080fd5b50565b600081519050612f6f81612f49565b92915050565b60008060008060808587031215612f8f57612f8e6126a8565b5b6000612f9d87828801612ef9565b9450506020612fae87828801612f60565b9350506040612fbf87828801612d92565b9250506060612fd087828801612ef9565b91505092959194509250565b600060208284031215612ff257612ff16126a8565b5b600061300084828501612d92565b91505092915050565b7f43616c6c6572206d7573742062652074686520636f6e7472616374206f776e6560008201527f7221000000000000000000000000000000000000000000000000000000000000602082015250565b6000613065602283612ace565b915061307082613009565b604082019050919050565b6000602082019050818103600083015261309481613058565b9050919050565b7f4d696e2e20636f6d6d697373696f6e2068617320746f20626520706169642100600082015250565b60006130d1601f83612ace565b91506130dc8261309b565b602082019050919050565b60006020820190508181036000830152613100816130c4565b9050919050565b7f496e74657276616c2073686f756c64206265206265747765656e203520616e6460008201527f20353235393630206d696e757465730000000000000000000000000000000000602082015250565b6000613163602f83612ace565b915061316e82613107565b604082019050919050565b6000602082019050818103600083015261319281613156565b9050919050565b60006131a482612710565b915063ffffffff82036131ba576131b9612b4b565b5b600182019050919050565b600081519050919050565b600082825260208201905092915050565b6000819050602082019050919050565b6131fa816126d2565b82525050565b600061320c83836131f1565b60208301905092915050565b6000602082019050919050565b6000613230826131c5565b61323a81856131d0565b9350613245836131e1565b8060005b8381101561327657815161325d8882613200565b975061326883613218565b925050600181019050613249565b5085935050505092915050565b60006080820190506132986000830187612a46565b81810360208301526132aa8186613225565b90506132b96040830185612965565b6132c66060830184612a46565b95945050505050565b600080fd5b6000601f19601f8301169050919050565b7f4e487b7100000000000000000000000000000000000000000000000000000000600052604160045260246000fd5b61331d826132d4565b810181811067ffffffffffffffff8211171561333c5761333b6132e5565b5b80604052505050565b600061334f61269e565b905061335b8282613314565b919050565b600067ffffffffffffffff82111561337b5761337a6132e5565b5b602082029050602081019050919050565b600080fd5b60006133a461339f84613360565b613345565b905080838252602082019050602084028301858111156133c7576133c661338c565b5b835b818110156133f057806133dc8882612d92565b8452602084019350506020810190506133c9565b5050509392505050565b600082601f83011261340f5761340e6132cf565b5b815161341f848260208601613391565b91505092915050565b60006020828403121561343e5761343d6126a8565b5b600082015167ffffffffffffffff81111561345c5761345b6126ad565b5b613468848285016133fa565b91505092915050565b600081905092915050565b50565b600061348c600083613471565b91506134978261347c565b600082019050919050565b60006134ad8261347f565b9150819050919050565b7f726566756e64206661696c656400000000000000000000000000000000000000600082015250565b60006134ed600d83612ace565b91506134f8826134b7565b602082019050919050565b6000602082019050818103600083015261351c816134e0565b9050919050565b6000819050919050565b600061354861354361353e84613523565b6128af565b6127b9565b9050919050565b6135588161352d565b82525050565b600060a0820190506135736000830188612a46565b613580602083018761354f565b81810360408301526135928186613225565b90506135a16060830185612965565b6135ae6080830184612a46565b9695505050505050565b6000815190506135c7816126e4565b92915050565b6000602082840312156135e3576135e26126a8565b5b60006135f1848285016135b8565b9150509291505056fea26469706673582212209a16e504e1c44c2a05081d22ec6f9ae825e3847a5a4a5ea92e311c441bba13fe64736f6c63430008100033",
  "immutableReferences": {},
  "source": "pragma solidity ^0.8.16;\n\nimport \"./interfaces/IERC20.sol\";\nimport \"./interfaces/IUniswapV2Router02.sol\";\nimport \"./Fund.sol\";\nimport \"./Reserve.sol\";\nimport \"./Oracle.sol\";\nimport \"./Mirrored.sol\";\n\ncontract Cron {\n    \n    enum Mode {\n        Amount,\n        Price\n    }\n\n    enum Operations {\n        Buy,\n        Sell\n    }\n\n    enum ContractTypes {\n        Mirrored,\n        ERC20,\n        Portfolio\n    }\n\n    struct Job {\n        address ownerAddress;\n        bool isActive;\n        Mode mode;\n        ContractTypes contractType;\n        address contractAddress;\n        uint64 recurringInterval;\n        uint256 amount;\n        Operations operation;\n        uint256 createdAt;\n        uint256 lastExecution;\n    }\n\n    address public ownerAddress;\n    address public applicationAddress;\n    uint256 public commission;\n\n    Fund public fund;\n    Reserve public reserve;\n    Oracle public oracle;\n    IUniswapV2Router02 public uniswapRouter;\n\n    mapping(address => uint256) jobUserBalances;\n    mapping(address => uint32) jobUserCount;\n    mapping(address => Job[]) jobs;\n\n    constructor(\n        Fund _fund,\n        Reserve _reserve,\n        Oracle _oracle,\n        address _uniswapRouterAddress,\n        uint256 _commission\n    ) {\n        ownerAddress = msg.sender;\n        fund = _fund;\n        reserve = _reserve;\n        oracle = _oracle;\n        uniswapRouter = IUniswapV2Router02(_uniswapRouterAddress);\n        commission = _commission;\n    }\n\n    function _onlyOwner() private view {\n        require(\n            msg.sender == ownerAddress,\n            \"Caller must be the contract owner!\"\n        );\n    }\n\n    modifier onlyOwner() {\n        _onlyOwner();\n        _;\n    }\n\n    function _onlyApplication() private view {\n        require(\n            msg.sender == applicationAddress,\n            \"Caller must be the application!\"\n        );\n    }\n\n    modifier onlyApplication() {\n        _onlyApplication();\n        _;\n    }\n\n    function _mustHaveCorrectInputs(uint64 _interval) private pure {\n        require(\n            _interval >= 5 && _interval <= 525960,\n            \"Interval should be between 5 and 525960 minutes\"\n        );\n    }\n\n    modifier mustHaveCorrectInputs(uint64 _interval) {\n        _mustHaveCorrectInputs(_interval);\n        _;\n    }\n\n    function _mustPayCommission() private view {\n        require(msg.value >= commission, \"Min. commission has to be paid!\");\n    }\n\n    modifier mustPayCommission() {\n        _mustPayCommission();\n        _;\n    }\n\n    function updateApplicationAddress(address newApplicationAddress)\n        public\n        onlyOwner\n    {\n        applicationAddress = newApplicationAddress;\n    }\n\n    function updateCommission(uint256 newCommission) public onlyOwner {\n        commission = newCommission;\n    }\n\n    function deposit() public payable {\n        jobUserBalances[msg.sender] += msg.value;\n    }\n\n    function withdraw(uint256 amount) public payable {\n        uint256 balance = jobUserBalances[msg.sender];\n        {\n            require(balance >= amount, \"Insufficient balance!\");\n        }\n        jobUserBalances[msg.sender] -= amount;\n    }\n\n    function createRecurringMirroredBuyJob(\n        uint64 _recurringInterval,\n        address _contractAddress,\n        uint256 _amount\n    )\n        external\n        payable\n        mustPayCommission\n        mustHaveCorrectInputs(_recurringInterval)\n    {\n        _createRecurringJob(\n            _recurringInterval,\n            ContractTypes.Mirrored,\n            Operations.Buy,\n            Mode.Amount,\n            _contractAddress,\n            _amount\n        );\n    }\n\n    function createRecurringMirroredSellJob(\n        uint64 _recurringInterval,\n        address _contractAddress,\n        uint256 _amount\n    )\n        external\n        payable\n        mustPayCommission\n        mustHaveCorrectInputs(_recurringInterval)\n    {\n        _createRecurringJob(\n            _recurringInterval,\n            ContractTypes.Mirrored,\n            Operations.Sell,\n            Mode.Amount,\n            _contractAddress,\n            _amount\n        );\n    }\n\n    function createRecurringErc20BuyJob(\n        uint64 _recurringInterval,\n        address _contractAddress,\n        uint256 _amount\n    )\n        external\n        payable\n        mustPayCommission\n        mustHaveCorrectInputs(_recurringInterval)\n    {\n        _createRecurringJob(\n            _recurringInterval,\n            ContractTypes.ERC20,\n            Operations.Buy,\n            Mode.Amount,\n            _contractAddress,\n            _amount\n        );\n    }\n\n    function createRecurringErc20SellJob(\n        uint64 _recurringInterval,\n        address _contractAddress,\n        uint256 _amount\n    )\n        external\n        payable\n        mustPayCommission\n        mustHaveCorrectInputs(_recurringInterval)\n    {\n        _createRecurringJob(\n            _recurringInterval,\n            ContractTypes.ERC20,\n            Operations.Sell,\n            Mode.Amount,\n            _contractAddress,\n            _amount\n        );\n    }\n\n    function createRecurringPortfolioBuyJob(\n        uint64 _recurringInterval,\n        address _contractAddress,\n        uint256 _amount\n    )\n        external\n        payable\n        mustPayCommission\n        mustHaveCorrectInputs(_recurringInterval)\n    {\n        _createRecurringJob(\n            _recurringInterval,\n            ContractTypes.Portfolio,\n            Operations.Buy,\n            Mode.Amount,\n            _contractAddress,\n            _amount\n        );\n    }\n\n    function createRecurringPortfolioSellJob(\n        uint64 _recurringInterval,\n        address _contractAddress,\n        uint256 _amount\n    )\n        external\n        payable\n        mustPayCommission\n        mustHaveCorrectInputs(_recurringInterval)\n    {\n        _createRecurringJob(\n            _recurringInterval,\n            ContractTypes.Portfolio,\n            Operations.Sell,\n            Mode.Amount,\n            _contractAddress,\n            _amount\n        );\n    }\n\n    function toggleJobActiveState(uint32 jobIndex) external {\n        Job memory job = jobs[msg.sender][jobIndex];\n        require(job.createdAt > 0, \"Job doesn't exist\");\n        jobs[msg.sender][jobIndex].isActive = !job.isActive;\n    }\n\n    function executeJob(address _jobUserAddress, uint32 _jobIndex)\n        external\n        onlyApplication\n    {\n        Job memory job = jobs[_jobUserAddress][_jobIndex];\n\n        require(job.isActive, \"Job must be active\");\n        require(\n            job.lastExecution + job.recurringInterval <= block.timestamp,\n            \"Job not ready for execution yet\"\n        );\n\n        if (job.contractType == ContractTypes.ERC20) {\n            _executeErc20Job(job);\n        } else if (job.contractType == ContractTypes.Portfolio) {\n            _executePortfolioJob(job);\n        } else if (job.contractType == ContractTypes.Mirrored) {\n            _executeMirroredJob(job);\n        }\n\n        jobs[_jobUserAddress][_jobIndex].lastExecution = block.timestamp;\n    }\n\n    receive() external payable {}\n\n    //** INTERNAL **/\n\n    function _executeErc20Job(Job memory _job) internal {\n        uint256 balance = jobUserBalances[_job.ownerAddress];\n        uint256 cronCommission = commission;\n\n        if (_job.operation == Operations.Buy) {\n            (uint256 price, ) = oracle.getPrice(_job.contractAddress);\n            uint256 estimatedCost = (price * _job.amount) +\n                cronCommission +\n                1 ether;\n\n            require(estimatedCost <= balance, \"Insufficient user balance!\");\n\n            uint256 actualCost = _convertToErc20(\n                _job.contractAddress,\n                _job.amount\n            );\n            jobUserBalances[_job.ownerAddress] -= actualCost;\n            IERC20(_job.contractAddress).transfer(\n                _job.ownerAddress,\n                _job.amount\n            );\n        } else if (_job.operation == Operations.Sell) {\n            require(cronCommission <= balance, \"Insufficient user balance!\");\n            uint256 received = _convertFromErc20(\n                _job.contractAddress,\n                _job.amount\n            );\n            _deductCommissionAndTransferToOwner(\n                _job.ownerAddress,\n                received,\n                cronCommission\n            );\n        }\n    }\n\n    function _executeMirroredJob(Job memory _job) internal {\n        Mirrored mirroredAsset = Mirrored(_job.contractAddress);\n        uint256 balance = jobUserBalances[_job.ownerAddress];\n        uint256 cronCommission = commission;\n        uint256 mirroredCommission = mirroredAsset.commission();\n        (uint256 price, ) = oracle.getPrice(_job.contractAddress);\n\n        if (_job.operation == Operations.Buy) {\n            uint256 cost = price * _job.amount;\n            uint256 estimatedCost = cost +\n                cronCommission +\n                mirroredCommission +\n                1 ether;\n\n            require(estimatedCost <= balance, \"Insufficient user balance!\");\n\n            mirroredAsset.mint{value: cost + mirroredCommission}(_job.amount);\n        } else if (_job.operation == Operations.Sell) {\n            require(cronCommission <= balance, \"Insufficient user balance!\");\n            uint256 received = mirroredAsset.burn(_job.amount);\n            _deductCommissionAndTransferToOwner(\n                _job.ownerAddress,\n                received,\n                cronCommission\n            );\n        }\n    }\n\n    function _executePortfolioJob(Job memory _job) internal {\n        uint256 balance = jobUserBalances[_job.ownerAddress];\n        uint256 cronCommission = commission;\n        (, , uint256 fundCommission, ) = fund.properties();\n\n        if (_job.operation == Operations.Buy) {\n            uint256 cost = (fund.getSharePrice() * _job.amount) +\n                fundCommission;\n            require(\n                cost + cronCommission <= balance,\n                \"Insufficient user balance!\"\n            );\n\n            fund.buyShares{value: cost}(_job.amount);\n            reserve.deposit{value: cronCommission}();\n            fund.transfer(_job.ownerAddress, _job.amount);\n            jobUserBalances[_job.ownerAddress] -= cost;\n        } else if (_job.operation == Operations.Sell) {\n            require(\n                cronCommission + fundCommission <= balance,\n                \"Insufficient user balance!\"\n            );\n            uint256 received = fund.sellShares(_job.amount);\n            _deductCommissionAndTransferToOwner(\n                _job.ownerAddress,\n                received,\n                cronCommission\n            );\n        }\n    }\n\n    function _deductCommissionAndTransferToOwner(\n        address _ownerAddress,\n        uint256 _received,\n        uint256 _commission\n    ) internal {\n        reserve.deposit{value: _commission}();\n        jobUserBalances[_ownerAddress] -= _commission;\n        payable(_ownerAddress).transfer(_received - _commission);\n    }\n\n    function _createRecurringJob(\n        uint64 _recurringInterval,\n        ContractTypes _contractType,\n        Operations _opertaion,\n        Mode _mode,\n        address _contractAddress,\n        uint256 _amount\n    ) internal {\n        Job memory newJob = Job(\n            msg.sender,\n            true,\n            _mode,\n            _contractType,\n            _contractAddress,\n            _recurringInterval,\n            _amount,\n            _opertaion,\n            block.timestamp,\n            0\n        );\n\n        jobUserCount[msg.sender]++;\n        jobs[msg.sender].push(newJob);\n    }\n\n    function _convertToErc20(address assetAddress, uint256 amount)\n        internal\n        returns (uint256)\n    {\n        uint256 deadline = block.timestamp + 30;\n        uint256[] memory amounts = uniswapRouter.swapETHForExactTokens(\n            amount,\n            _getPathForNativeToErc20(assetAddress),\n            address(this),\n            deadline\n        );\n\n        // refund leftover ETH to user\n        (bool success, ) = msg.sender.call{value: address(this).balance}(\"\");\n        require(success, \"refund failed\");\n\n        return amounts[amounts.length - 1];\n    }\n\n    function _convertFromErc20(address assetAddress, uint256 amount)\n        internal\n        returns (uint256)\n    {\n        uint256 deadline = block.timestamp + 30;\n        uint256[] memory amounts = uniswapRouter.swapExactTokensForETH(\n            amount,\n            1,\n            _getPathForErc20ToNative(assetAddress),\n            address(this),\n            deadline\n        );\n\n        return amounts[amounts.length - 1];\n    }\n\n    function _getPathForNativeToErc20(address assetAddress)\n        private\n        view\n        returns (address[] memory)\n    {\n        address[] memory path = new address[](2);\n        path[0] = uniswapRouter.WETH();\n        path[1] = assetAddress;\n\n        return path;\n    }\n\n    function _getPathForErc20ToNative(address assetAddress)\n        private\n        view\n        returns (address[] memory)\n    {\n        address[] memory path = new address[](2);\n        path[0] = assetAddress;\n        path[1] = uniswapRouter.WETH();\n\n        return path;\n    }\n}\n",
  "sourcePath": "/home/d4fttasiii/git/portfolium/src/fund-contract/contracts/Cron.sol",
  "compiler": {
    "name": "solc",
    "version": "0.8.16+commit.07a7930e.Emscripten.clang"
  },
  "schemaVersion": "3.4.9",
  "updatedAt": "2022-11-28T15:03:35.826Z",
  "devdoc": {
    "kind": "dev",
    "methods": {},
    "version": 1
  },
  "userdoc": {
    "kind": "user",
    "methods": {},
    "version": 1
  }
}