{
  "contractName": "Fund",
  "abi": [
    {
      "inputs": [
        {
          "internalType": "contract Oracle",
          "name": "_oracle",
          "type": "address"
        },
        {
          "internalType": "contract Treasury",
          "name": "_treasury",
          "type": "address"
        },
        {
          "internalType": "contract Reserve",
          "name": "_reserve",
          "type": "address"
        },
        {
          "internalType": "address",
          "name": "_managerAddress",
          "type": "address"
        },
        {
          "internalType": "address",
          "name": "_applicationAddress",
          "type": "address"
        },
        {
          "internalType": "string",
          "name": "_name",
          "type": "string"
        },
        {
          "internalType": "string",
          "name": "_symbol",
          "type": "string"
        },
        {
          "internalType": "string",
          "name": "_nativeName",
          "type": "string"
        },
        {
          "internalType": "string",
          "name": "_nativeSymbol",
          "type": "string"
        }
      ],
      "stateMutability": "nonpayable",
      "type": "constructor"
    },
    {
      "anonymous": false,
      "inputs": [
        {
          "indexed": true,
          "internalType": "address",
          "name": "owner",
          "type": "address"
        },
        {
          "indexed": true,
          "internalType": "address",
          "name": "spender",
          "type": "address"
        },
        {
          "indexed": false,
          "internalType": "uint256",
          "name": "value",
          "type": "uint256"
        }
      ],
      "name": "Approval",
      "type": "event"
    },
    {
      "anonymous": false,
      "inputs": [],
      "name": "NeedsRebalancing",
      "type": "event"
    },
    {
      "anonymous": false,
      "inputs": [
        {
          "indexed": false,
          "internalType": "address",
          "name": "caller",
          "type": "address"
        },
        {
          "indexed": false,
          "internalType": "uint256",
          "name": "amount",
          "type": "uint256"
        }
      ],
      "name": "ShareBought",
      "type": "event"
    },
    {
      "anonymous": false,
      "inputs": [
        {
          "indexed": false,
          "internalType": "address",
          "name": "caller",
          "type": "address"
        },
        {
          "indexed": false,
          "internalType": "uint256",
          "name": "amount",
          "type": "uint256"
        }
      ],
      "name": "ShareSold",
      "type": "event"
    },
    {
      "anonymous": false,
      "inputs": [
        {
          "indexed": true,
          "internalType": "address",
          "name": "from",
          "type": "address"
        },
        {
          "indexed": true,
          "internalType": "address",
          "name": "to",
          "type": "address"
        },
        {
          "indexed": false,
          "internalType": "uint256",
          "name": "value",
          "type": "uint256"
        }
      ],
      "name": "Transfer",
      "type": "event"
    },
    {
      "inputs": [
        {
          "internalType": "address",
          "name": "",
          "type": "address"
        },
        {
          "internalType": "address",
          "name": "",
          "type": "address"
        }
      ],
      "name": "allowance",
      "outputs": [
        {
          "internalType": "uint256",
          "name": "",
          "type": "uint256"
        }
      ],
      "stateMutability": "view",
      "type": "function"
    },
    {
      "inputs": [],
      "name": "applicationAddress",
      "outputs": [
        {
          "internalType": "address",
          "name": "",
          "type": "address"
        }
      ],
      "stateMutability": "view",
      "type": "function"
    },
    {
      "inputs": [
        {
          "internalType": "address",
          "name": "delegate",
          "type": "address"
        },
        {
          "internalType": "uint256",
          "name": "numTokens",
          "type": "uint256"
        }
      ],
      "name": "approve",
      "outputs": [
        {
          "internalType": "bool",
          "name": "",
          "type": "bool"
        }
      ],
      "stateMutability": "nonpayable",
      "type": "function"
    },
    {
      "inputs": [
        {
          "internalType": "uint256",
          "name": "",
          "type": "uint256"
        }
      ],
      "name": "assetAddresses",
      "outputs": [
        {
          "internalType": "address",
          "name": "",
          "type": "address"
        }
      ],
      "stateMutability": "view",
      "type": "function"
    },
    {
      "inputs": [
        {
          "internalType": "string",
          "name": "",
          "type": "string"
        },
        {
          "internalType": "uint256",
          "name": "",
          "type": "uint256"
        }
      ],
      "name": "assetByCategory",
      "outputs": [
        {
          "internalType": "address",
          "name": "",
          "type": "address"
        }
      ],
      "stateMutability": "view",
      "type": "function"
    },
    {
      "inputs": [],
      "name": "assetCount",
      "outputs": [
        {
          "internalType": "uint16",
          "name": "",
          "type": "uint16"
        }
      ],
      "stateMutability": "view",
      "type": "function"
    },
    {
      "inputs": [
        {
          "internalType": "address",
          "name": "",
          "type": "address"
        }
      ],
      "name": "assets",
      "outputs": [
        {
          "internalType": "address",
          "name": "assetAddress",
          "type": "address"
        },
        {
          "internalType": "string",
          "name": "name",
          "type": "string"
        },
        {
          "internalType": "string",
          "name": "symbol",
          "type": "string"
        },
        {
          "internalType": "uint8",
          "name": "decimals",
          "type": "uint8"
        },
        {
          "internalType": "uint256",
          "name": "perShareAmount",
          "type": "uint256"
        },
        {
          "internalType": "enum Fund.AssetTypes",
          "name": "assetType",
          "type": "uint8"
        },
        {
          "internalType": "uint16",
          "name": "weight",
          "type": "uint16"
        }
      ],
      "stateMutability": "view",
      "type": "function"
    },
    {
      "inputs": [
        {
          "internalType": "address",
          "name": "",
          "type": "address"
        }
      ],
      "name": "balanceOf",
      "outputs": [
        {
          "internalType": "uint256",
          "name": "",
          "type": "uint256"
        }
      ],
      "stateMutability": "view",
      "type": "function"
    },
    {
      "inputs": [],
      "name": "decimals",
      "outputs": [
        {
          "internalType": "uint8",
          "name": "",
          "type": "uint8"
        }
      ],
      "stateMutability": "view",
      "type": "function"
    },
    {
      "inputs": [
        {
          "internalType": "uint256",
          "name": "",
          "type": "uint256"
        }
      ],
      "name": "managerAddresses",
      "outputs": [
        {
          "internalType": "address",
          "name": "",
          "type": "address"
        }
      ],
      "stateMutability": "view",
      "type": "function"
    },
    {
      "inputs": [],
      "name": "managerCount",
      "outputs": [
        {
          "internalType": "uint16",
          "name": "",
          "type": "uint16"
        }
      ],
      "stateMutability": "view",
      "type": "function"
    },
    {
      "inputs": [
        {
          "internalType": "address",
          "name": "",
          "type": "address"
        }
      ],
      "name": "managers",
      "outputs": [
        {
          "internalType": "bool",
          "name": "",
          "type": "bool"
        }
      ],
      "stateMutability": "view",
      "type": "function"
    },
    {
      "inputs": [],
      "name": "name",
      "outputs": [
        {
          "internalType": "string",
          "name": "",
          "type": "string"
        }
      ],
      "stateMutability": "view",
      "type": "function"
    },
    {
      "inputs": [],
      "name": "oracle",
      "outputs": [
        {
          "internalType": "contract Oracle",
          "name": "",
          "type": "address"
        }
      ],
      "stateMutability": "view",
      "type": "function"
    },
    {
      "inputs": [],
      "name": "ownerAddress",
      "outputs": [
        {
          "internalType": "address",
          "name": "",
          "type": "address"
        }
      ],
      "stateMutability": "view",
      "type": "function"
    },
    {
      "inputs": [],
      "name": "properties",
      "outputs": [
        {
          "internalType": "bool",
          "name": "isLocked",
          "type": "bool"
        },
        {
          "internalType": "uint16",
          "name": "rebalancingTolerance",
          "type": "uint16"
        },
        {
          "internalType": "uint256",
          "name": "commission",
          "type": "uint256"
        },
        {
          "internalType": "bool",
          "name": "optInRequired",
          "type": "bool"
        }
      ],
      "stateMutability": "view",
      "type": "function"
    },
    {
      "inputs": [],
      "name": "reserve",
      "outputs": [
        {
          "internalType": "contract Reserve",
          "name": "",
          "type": "address"
        }
      ],
      "stateMutability": "view",
      "type": "function"
    },
    {
      "inputs": [
        {
          "internalType": "uint256",
          "name": "",
          "type": "uint256"
        }
      ],
      "name": "shareholderAddresses",
      "outputs": [
        {
          "internalType": "address",
          "name": "",
          "type": "address"
        }
      ],
      "stateMutability": "view",
      "type": "function"
    },
    {
      "inputs": [],
      "name": "shareholderCount",
      "outputs": [
        {
          "internalType": "uint64",
          "name": "",
          "type": "uint64"
        }
      ],
      "stateMutability": "view",
      "type": "function"
    },
    {
      "inputs": [
        {
          "internalType": "address",
          "name": "",
          "type": "address"
        }
      ],
      "name": "shareholders",
      "outputs": [
        {
          "internalType": "address",
          "name": "shareholderAddress",
          "type": "address"
        },
        {
          "internalType": "uint256",
          "name": "shares",
          "type": "uint256"
        },
        {
          "internalType": "bool",
          "name": "isLocked",
          "type": "bool"
        },
        {
          "internalType": "uint32",
          "name": "tradeCount",
          "type": "uint32"
        }
      ],
      "stateMutability": "view",
      "type": "function"
    },
    {
      "inputs": [],
      "name": "symbol",
      "outputs": [
        {
          "internalType": "string",
          "name": "",
          "type": "string"
        }
      ],
      "stateMutability": "view",
      "type": "function"
    },
    {
      "inputs": [],
      "name": "totalSupply",
      "outputs": [
        {
          "internalType": "uint256",
          "name": "",
          "type": "uint256"
        }
      ],
      "stateMutability": "view",
      "type": "function"
    },
    {
      "inputs": [
        {
          "internalType": "address",
          "name": "",
          "type": "address"
        },
        {
          "internalType": "uint256",
          "name": "",
          "type": "uint256"
        }
      ],
      "name": "trades",
      "outputs": [
        {
          "internalType": "enum Fund.TradeTypes",
          "name": "tradeType",
          "type": "uint8"
        },
        {
          "internalType": "uint256",
          "name": "amount",
          "type": "uint256"
        },
        {
          "internalType": "uint256",
          "name": "price",
          "type": "uint256"
        },
        {
          "internalType": "uint256",
          "name": "createdAt",
          "type": "uint256"
        }
      ],
      "stateMutability": "view",
      "type": "function"
    },
    {
      "inputs": [
        {
          "internalType": "address",
          "name": "recipient",
          "type": "address"
        },
        {
          "internalType": "uint256",
          "name": "amount",
          "type": "uint256"
        }
      ],
      "name": "transfer",
      "outputs": [
        {
          "internalType": "bool",
          "name": "",
          "type": "bool"
        }
      ],
      "stateMutability": "nonpayable",
      "type": "function"
    },
    {
      "inputs": [
        {
          "internalType": "address",
          "name": "sender",
          "type": "address"
        },
        {
          "internalType": "address",
          "name": "recipient",
          "type": "address"
        },
        {
          "internalType": "uint256",
          "name": "amount",
          "type": "uint256"
        }
      ],
      "name": "transferFrom",
      "outputs": [
        {
          "internalType": "bool",
          "name": "success",
          "type": "bool"
        }
      ],
      "stateMutability": "nonpayable",
      "type": "function"
    },
    {
      "inputs": [],
      "name": "treasury",
      "outputs": [
        {
          "internalType": "contract Treasury",
          "name": "",
          "type": "address"
        }
      ],
      "stateMutability": "view",
      "type": "function"
    },
    {
      "stateMutability": "payable",
      "type": "receive"
    },
    {
      "inputs": [
        {
          "internalType": "address",
          "name": "newManager",
          "type": "address"
        }
      ],
      "name": "addManager",
      "outputs": [],
      "stateMutability": "nonpayable",
      "type": "function"
    },
    {
      "inputs": [
        {
          "internalType": "address",
          "name": "manager",
          "type": "address"
        }
      ],
      "name": "removeManager",
      "outputs": [],
      "stateMutability": "nonpayable",
      "type": "function"
    },
    {
      "inputs": [
        {
          "internalType": "address",
          "name": "newShareholder",
          "type": "address"
        }
      ],
      "name": "addShareholder",
      "outputs": [
        {
          "internalType": "uint256",
          "name": "",
          "type": "uint256"
        }
      ],
      "stateMutability": "nonpayable",
      "type": "function"
    },
    {
      "inputs": [
        {
          "internalType": "address",
          "name": "shareholder",
          "type": "address"
        }
      ],
      "name": "toggleLockShareholderAccount",
      "outputs": [],
      "stateMutability": "nonpayable",
      "type": "function"
    },
    {
      "inputs": [],
      "name": "toggleLock",
      "outputs": [],
      "stateMutability": "nonpayable",
      "type": "function"
    },
    {
      "inputs": [],
      "name": "toggleOptInRequired",
      "outputs": [],
      "stateMutability": "nonpayable",
      "type": "function"
    },
    {
      "inputs": [
        {
          "internalType": "uint256",
          "name": "newCommission",
          "type": "uint256"
        }
      ],
      "name": "updateCommission",
      "outputs": [],
      "stateMutability": "nonpayable",
      "type": "function"
    },
    {
      "inputs": [
        {
          "internalType": "uint16",
          "name": "newRebalancingTolerance",
          "type": "uint16"
        }
      ],
      "name": "updateRebalancingTolerance",
      "outputs": [],
      "stateMutability": "nonpayable",
      "type": "function"
    },
    {
      "inputs": [
        {
          "internalType": "address",
          "name": "newAssetAddress",
          "type": "address"
        },
        {
          "internalType": "string",
          "name": "_name",
          "type": "string"
        },
        {
          "internalType": "string",
          "name": "_symbol",
          "type": "string"
        },
        {
          "internalType": "uint8",
          "name": "_decimals",
          "type": "uint8"
        },
        {
          "internalType": "uint8",
          "name": "assetTypeNr",
          "type": "uint8"
        }
      ],
      "name": "addAsset",
      "outputs": [],
      "stateMutability": "nonpayable",
      "type": "function"
    },
    {
      "inputs": [
        {
          "internalType": "address",
          "name": "assetAddress",
          "type": "address"
        },
        {
          "internalType": "uint256",
          "name": "newAmount",
          "type": "uint256"
        }
      ],
      "name": "updateAllocation",
      "outputs": [],
      "stateMutability": "nonpayable",
      "type": "function"
    },
    {
      "inputs": [
        {
          "components": [
            {
              "internalType": "address",
              "name": "assetAddress",
              "type": "address"
            },
            {
              "internalType": "uint256",
              "name": "perShareAmount",
              "type": "uint256"
            }
          ],
          "internalType": "struct Fund.AssetAllocation[]",
          "name": "newAllocations",
          "type": "tuple[]"
        }
      ],
      "name": "updateMultipleAllocations",
      "outputs": [],
      "stateMutability": "nonpayable",
      "type": "function"
    },
    {
      "inputs": [
        {
          "internalType": "address",
          "name": "assetAddress",
          "type": "address"
        },
        {
          "internalType": "uint16",
          "name": "newWeight",
          "type": "uint16"
        }
      ],
      "name": "updateWeight",
      "outputs": [],
      "stateMutability": "nonpayable",
      "type": "function"
    },
    {
      "inputs": [
        {
          "components": [
            {
              "internalType": "address",
              "name": "assetAddress",
              "type": "address"
            },
            {
              "internalType": "uint16",
              "name": "weight",
              "type": "uint16"
            }
          ],
          "internalType": "struct Fund.AssetWeight[]",
          "name": "newAssetWeights",
          "type": "tuple[]"
        }
      ],
      "name": "updateWeights",
      "outputs": [],
      "stateMutability": "nonpayable",
      "type": "function"
    },
    {
      "inputs": [],
      "name": "getSharePrice",
      "outputs": [
        {
          "internalType": "uint256",
          "name": "",
          "type": "uint256"
        }
      ],
      "stateMutability": "view",
      "type": "function"
    },
    {
      "inputs": [
        {
          "internalType": "uint256",
          "name": "numShares",
          "type": "uint256"
        }
      ],
      "name": "buyShares",
      "outputs": [],
      "stateMutability": "payable",
      "type": "function"
    },
    {
      "inputs": [
        {
          "internalType": "uint256",
          "name": "numShares",
          "type": "uint256"
        }
      ],
      "name": "sellShares",
      "outputs": [
        {
          "internalType": "uint256",
          "name": "",
          "type": "uint256"
        }
      ],
      "stateMutability": "payable",
      "type": "function"
    },
    {
      "inputs": [],
      "name": "getFundValue",
      "outputs": [
        {
          "internalType": "uint256",
          "name": "",
          "type": "uint256"
        }
      ],
      "stateMutability": "view",
      "type": "function"
    }
  ],
  "bytecode": "0x60806040526000600b60006101000a81548161ffff021916908361ffff1602179055506000600b60026101000a81548161ffff021916908361ffff1602179055506000600b60046101000a81548167ffffffffffffffff021916908367ffffffffffffffff1602179055503480156200007757600080fd5b50604051620068fc380380620068fc83398181016040528101906200009d919062000a65565b33600660006101000a81548173ffffffffffffffffffffffffffffffffffffffff021916908373ffffffffffffffffffffffffffffffffffffffff16021790555088601160006101000a81548173ffffffffffffffffffffffffffffffffffffffff021916908373ffffffffffffffffffffffffffffffffffffffff16021790555087600f60006101000a81548173ffffffffffffffffffffffffffffffffffffffff021916908373ffffffffffffffffffffffffffffffffffffffff16021790555086601060006101000a81548173ffffffffffffffffffffffffffffffffffffffff021916908373ffffffffffffffffffffffffffffffffffffffff16021790555060405180608001604052806000151581526020016101f461ffff168152602001640ba43b7400815260200160011515815250600c60008201518160000160006101000a81548160ff02191690831515021790555060208201518160000160016101000a81548161ffff021916908361ffff1602179055506040820151816001015560608201518160020160006101000a81548160ff02191690831515021790555090505062000256866200052d60201b60201c565b84600760006101000a81548173ffffffffffffffffffffffffffffffffffffffff021916908373ffffffffffffffffffffffffffffffffffffffff1602179055508360009081620002a8919062000e0b565b508260019081620002ba919062000e0b565b506000600260006101000a81548160ff021916908360ff1602179055506040518060e00160405280600173ffffffffffffffffffffffffffffffffffffffff168152602001838152602001828152602001601260ff168152602001600081526020016000600481111562000333576200033262000ef2565b5b815260200161271061ffff1681525060146000600173ffffffffffffffffffffffffffffffffffffffff1673ffffffffffffffffffffffffffffffffffffffff16815260200190815260200160002060008201518160000160006101000a81548173ffffffffffffffffffffffffffffffffffffffff021916908373ffffffffffffffffffffffffffffffffffffffff1602179055506020820151816001019081620003e0919062000e0b565b506040820151816002019081620003f8919062000e0b565b5060608201518160030160006101000a81548160ff021916908360ff1602179055506080820151816004015560a08201518160050160006101000a81548160ff0219169083600481111562000452576200045162000ef2565b5b021790555060c08201518160050160016101000a81548161ffff021916908361ffff160217905550905050600860019080600181540180825580915050600190039060005260206000200160009091909190916101000a81548173ffffffffffffffffffffffffffffffffffffffff021916908373ffffffffffffffffffffffffffffffffffffffff160217905550600b600081819054906101000a900461ffff1680929190620005039062000f5e565b91906101000a81548161ffff021916908361ffff16021790555050505050505050505050620010a8565b6200053d6200064860201b60201c565b6200054d6200073260201b60201c565b6001601260008373ffffffffffffffffffffffffffffffffffffffff1673ffffffffffffffffffffffffffffffffffffffff16815260200190815260200160002060006101000a81548160ff0219169083151502179055506009819080600181540180825580915050600190039060005260206000200160009091909190916101000a81548173ffffffffffffffffffffffffffffffffffffffff021916908373ffffffffffffffffffffffffffffffffffffffff160217905550600b600281819054906101000a900461ffff16809291906200062a9062000f5e565b91906101000a81548161ffff021916908361ffff1602179055505050565b600660009054906101000a900473ffffffffffffffffffffffffffffffffffffffff1673ffffffffffffffffffffffffffffffffffffffff163373ffffffffffffffffffffffffffffffffffffffff161480620006ee5750601260003373ffffffffffffffffffffffffffffffffffffffff1673ffffffffffffffffffffffffffffffffffffffff16815260200190815260200160002060009054906101000a900460ff165b62000730576040517f08c379a0000000000000000000000000000000000000000000000000000000008152600401620007279062001014565b60405180910390fd5b565b600c60000160009054906101000a900460ff161562000788576040517f08c379a00000000000000000000000000000000000000000000000000000000081526004016200077f9062001086565b60405180910390fd5b565b6000604051905090565b600080fd5b600080fd5b600073ffffffffffffffffffffffffffffffffffffffff82169050919050565b6000620007cb826200079e565b9050919050565b6000620007df82620007be565b9050919050565b620007f181620007d2565b8114620007fd57600080fd5b50565b6000815190506200081181620007e6565b92915050565b600062000824826200079e565b9050919050565b6000620008388262000817565b9050919050565b6200084a816200082b565b81146200085657600080fd5b50565b6000815190506200086a816200083f565b92915050565b60006200087d82620007be565b9050919050565b6200088f8162000870565b81146200089b57600080fd5b50565b600081519050620008af8162000884565b92915050565b620008c081620007be565b8114620008cc57600080fd5b50565b600081519050620008e081620008b5565b92915050565b600080fd5b600080fd5b6000601f19601f8301169050919050565b7f4e487b7100000000000000000000000000000000000000000000000000000000600052604160045260246000fd5b6200093b82620008f0565b810181811067ffffffffffffffff821117156200095d576200095c62000901565b5b80604052505050565b6000620009726200078a565b905062000980828262000930565b919050565b600067ffffffffffffffff821115620009a357620009a262000901565b5b620009ae82620008f0565b9050602081019050919050565b60005b83811015620009db578082015181840152602081019050620009be565b60008484015250505050565b6000620009fe620009f88462000985565b62000966565b90508281526020810184848401111562000a1d5762000a1c620008eb565b5b62000a2a848285620009bb565b509392505050565b600082601f83011262000a4a5762000a49620008e6565b5b815162000a5c848260208601620009e7565b91505092915050565b60008060008060008060008060006101208a8c03121562000a8b5762000a8a62000794565b5b600062000a9b8c828d0162000800565b995050602062000aae8c828d0162000859565b985050604062000ac18c828d016200089e565b975050606062000ad48c828d01620008cf565b965050608062000ae78c828d01620008cf565b95505060a08a015167ffffffffffffffff81111562000b0b5762000b0a62000799565b5b62000b198c828d0162000a32565b94505060c08a015167ffffffffffffffff81111562000b3d5762000b3c62000799565b5b62000b4b8c828d0162000a32565b93505060e08a015167ffffffffffffffff81111562000b6f5762000b6e62000799565b5b62000b7d8c828d0162000a32565b9250506101008a015167ffffffffffffffff81111562000ba25762000ba162000799565b5b62000bb08c828d0162000a32565b9150509295985092959850929598565b600081519050919050565b7f4e487b7100000000000000000000000000000000000000000000000000000000600052602260045260246000fd5b6000600282049050600182168062000c1357607f821691505b60208210810362000c295762000c2862000bcb565b5b50919050565b60008190508160005260206000209050919050565b60006020601f8301049050919050565b600082821b905092915050565b60006008830262000c937fffffffffffffffffffffffffffffffffffffffffffffffffffffffffffffffff8262000c54565b62000c9f868362000c54565b95508019841693508086168417925050509392505050565b6000819050919050565b6000819050919050565b600062000cec62000ce662000ce08462000cb7565b62000cc1565b62000cb7565b9050919050565b6000819050919050565b62000d088362000ccb565b62000d2062000d178262000cf3565b84845462000c61565b825550505050565b600090565b62000d3762000d28565b62000d4481848462000cfd565b505050565b5b8181101562000d6c5762000d6060008262000d2d565b60018101905062000d4a565b5050565b601f82111562000dbb5762000d858162000c2f565b62000d908462000c44565b8101602085101562000da0578190505b62000db862000daf8562000c44565b83018262000d49565b50505b505050565b600082821c905092915050565b600062000de06000198460080262000dc0565b1980831691505092915050565b600062000dfb838362000dcd565b9150826002028217905092915050565b62000e168262000bc0565b67ffffffffffffffff81111562000e325762000e3162000901565b5b62000e3e825462000bfa565b62000e4b82828562000d70565b600060209050601f83116001811462000e83576000841562000e6e578287015190505b62000e7a858262000ded565b86555062000eea565b601f19841662000e938662000c2f565b60005b8281101562000ebd5784890151825560018201915060208501945060208101905062000e96565b8683101562000edd578489015162000ed9601f89168262000dcd565b8355505b6001600288020188555050505b505050505050565b7f4e487b7100000000000000000000000000000000000000000000000000000000600052602160045260246000fd5b7f4e487b7100000000000000000000000000000000000000000000000000000000600052601160045260246000fd5b600061ffff82169050919050565b600062000f6b8262000f50565b915061ffff820362000f825762000f8162000f21565b5b600182019050919050565b600082825260208201905092915050565b7f43616c6c6572206d75737420626520746865206f776e6572206f72206d616e6160008201527f6765722100000000000000000000000000000000000000000000000000000000602082015250565b600062000ffc60248362000f8d565b9150620010098262000f9e565b604082019050919050565b600060208201905081810360008301526200102f8162000fed565b9050919050565b7f436f6e747261637420776173206c6f636b656420646f776e2100000000000000600082015250565b60006200106e60198362000f8d565b91506200107b8262001036565b602082019050919050565b60006020820190508181036000830152620010a1816200105f565b9050919050565b61584480620010b86000396000f3fe6080604052600436106102605760003560e01c80638025163811610144578063d1a132ec116100b6578063f11b81881161007a578063f11b818814610951578063f692ec7914610994578063f949c5de146109bd578063fcd802b1146109e8578063fdff9b4d14610a16578063ff9413d814610a5357610267565b8063d1a132ec14610865578063d1a93d1814610890578063db29fe12146108ac578063dd62ed3e146108e9578063eafe7a741461092657610267565b80639d55fba7116101085780639d55fba714610745578063a26890781461076e578063a6df16d714610797578063a9059cbb146107d4578063ac18de4314610811578063cd3293de1461083a57610267565b806380251638146106845780638767f894146106ad5780638bed9d18146106c45780638f84aa09146106ef57806395d89b411461071a57610267565b8063313ce567116101dd5780635c3184dc116101a15780635c3184dc1461056257806361d027b31461059f57806370851703146105ca57806370a08231146105f35780637246d11d146106305780637dc0d1d01461065957610267565b8063313ce5671461045f57806348751e451461048a5780634ba8ae81146104c75780635b1dac60146104f75780635c2930ad1461052257610267565b806318160ddd1161022457806318160ddd1461037c57806323b872dd146103a757806324b1eb3f146103e45780632b0f10381461040d5780632d06177a1461043657610267565b806306fdde031461026c578063095ea7b314610297578063103837b0146102d4578063103b73971461031157806313d8f3e41461033c57610267565b3661026757005b600080fd5b34801561027857600080fd5b50610281610a6a565b60405161028e9190613ddb565b60405180910390f35b3480156102a357600080fd5b506102be60048036038101906102b99190613ea5565b610af8565b6040516102cb9190613f00565b60405180910390f35b3480156102e057600080fd5b506102fb60048036038101906102f69190614050565b610bea565b60405161030891906140bb565b60405180910390f35b34801561031d57600080fd5b50610326610c4e565b60405161033391906140f3565b60405180910390f35b34801561034857600080fd5b50610363600480360381019061035e9190613ea5565b610c62565b6040516103739493929190614194565b60405180910390f35b34801561038857600080fd5b50610391610cbc565b60405161039e91906141d9565b60405180910390f35b3480156103b357600080fd5b506103ce60048036038101906103c991906141f4565b610cc2565b6040516103db9190613f00565b60405180910390f35b3480156103f057600080fd5b5061040b60048036038101906104069190614247565b610df6565b005b34801561041957600080fd5b50610434600480360381019061042f91906142a0565b610eab565b005b34801561044257600080fd5b5061045d60048036038101906104589190614247565b610f1c565b005b34801561046b57600080fd5b50610474611025565b60405161048191906142fc565b60405180910390f35b34801561049657600080fd5b506104b160048036038101906104ac9190614317565b611038565b6040516104be91906140bb565b60405180910390f35b6104e160048036038101906104dc9190614317565b611077565b6040516104ee91906141d9565b60405180910390f35b34801561050357600080fd5b5061050c6114d6565b60405161051991906141d9565b60405180910390f35b34801561052e57600080fd5b5061054960048036038101906105449190614247565b611874565b6040516105599493929190614363565b60405180910390f35b34801561056e57600080fd5b5061058960048036038101906105849190614317565b6118e1565b60405161059691906140bb565b60405180910390f35b3480156105ab57600080fd5b506105b4611920565b6040516105c19190614407565b60405180910390f35b3480156105d657600080fd5b506105f160048036038101906105ec9190613ea5565b611946565b005b3480156105ff57600080fd5b5061061a60048036038101906106159190614247565b611b53565b60405161062791906141d9565b60405180910390f35b34801561063c57600080fd5b5061065760048036038101906106529190614422565b611b6b565b005b34801561066557600080fd5b5061066e611b96565b60405161067b9190614482565b60405180910390f35b34801561069057600080fd5b506106ab60048036038101906106a691906144c9565b611bbc565b005b3480156106b957600080fd5b506106c2611fff565b005b3480156106d057600080fd5b506106d9612039565b6040516106e691906140bb565b60405180910390f35b3480156106fb57600080fd5b5061070461205f565b60405161071191906140bb565b60405180910390f35b34801561072657600080fd5b5061072f612085565b60405161073c9190613ddb565b60405180910390f35b34801561075157600080fd5b5061076c60048036038101906107679190614317565b612113565b005b34801561077a57600080fd5b5061079560048036038101906107909190614699565b612128565b005b3480156107a357600080fd5b506107be60048036038101906107b99190614317565b612237565b6040516107cb91906140bb565b60405180910390f35b3480156107e057600080fd5b506107fb60048036038101906107f69190613ea5565b612276565b6040516108089190613f00565b60405180910390f35b34801561081d57600080fd5b5061083860048036038101906108339190614247565b61228d565b005b34801561084657600080fd5b5061084f6122f8565b60405161085c9190614703565b60405180910390f35b34801561087157600080fd5b5061087a61231e565b6040516108879190614741565b60405180910390f35b6108aa60048036038101906108a59190614317565b612338565b005b3480156108b857600080fd5b506108d360048036038101906108ce9190614247565b6126c3565b6040516108e091906141d9565b60405180910390f35b3480156108f557600080fd5b50610910600480360381019061090b919061475c565b6128d4565b60405161091d91906141d9565b60405180910390f35b34801561093257600080fd5b5061093b6128f9565b60405161094891906140f3565b60405180910390f35b34801561095d57600080fd5b5061097860048036038101906109739190614247565b61290d565b60405161098b97969594939291906147e4565b60405180910390f35b3480156109a057600080fd5b506109bb60048036038101906109b69190614974565b612aa7565b005b3480156109c957600080fd5b506109d2612b94565b6040516109df91906141d9565b60405180910390f35b3480156109f457600080fd5b506109fd612bb5565b604051610a0d94939291906149bd565b60405180910390f35b348015610a2257600080fd5b50610a3d6004803603810190610a389190614247565b612bfb565b604051610a4a9190613f00565b60405180910390f35b348015610a5f57600080fd5b50610a68612c1b565b005b60008054610a7790614a31565b80601f0160208091040260200160405190810160405280929190818152602001828054610aa390614a31565b8015610af05780601f10610ac557610100808354040283529160200191610af0565b820191906000526020600020905b815481529060010190602001808311610ad357829003601f168201915b505050505081565b600081600560003373ffffffffffffffffffffffffffffffffffffffff1673ffffffffffffffffffffffffffffffffffffffff16815260200190815260200160002060008573ffffffffffffffffffffffffffffffffffffffff1673ffffffffffffffffffffffffffffffffffffffff168152602001908152602001600020819055508273ffffffffffffffffffffffffffffffffffffffff163373ffffffffffffffffffffffffffffffffffffffff167f8c5be1e5ebec7d5bd14f71427d1e84f3dd0314c0f7b2291e5b200ac8c7c3b92584604051610bd891906141d9565b60405180910390a36001905092915050565b6016828051602081018201805184825260208301602085012081835280955050505050508181548110610c1c57600080fd5b906000526020600020016000915091509054906101000a900473ffffffffffffffffffffffffffffffffffffffff1681565b600b60029054906101000a900461ffff1681565b60156020528160005260406000208181548110610c7e57600080fd5b9060005260206000209060040201600091509150508060000160009054906101000a900460ff16908060010154908060020154908060030154905084565b60035481565b6000600560008573ffffffffffffffffffffffffffffffffffffffff1673ffffffffffffffffffffffffffffffffffffffff16815260200190815260200160002060003373ffffffffffffffffffffffffffffffffffffffff1673ffffffffffffffffffffffffffffffffffffffff16815260200190815260200160002054821115610d4d57600080fd5b81600560008673ffffffffffffffffffffffffffffffffffffffff1673ffffffffffffffffffffffffffffffffffffffff16815260200190815260200160002060003373ffffffffffffffffffffffffffffffffffffffff1673ffffffffffffffffffffffffffffffffffffffff1681526020019081526020016000206000828254610dd99190614a91565b92505081905550610deb848484612c55565b600190509392505050565b610dfe612fad565b601360008273ffffffffffffffffffffffffffffffffffffffff1673ffffffffffffffffffffffffffffffffffffffff16815260200190815260200160002060020160009054906101000a900460ff1615601360008373ffffffffffffffffffffffffffffffffffffffff1673ffffffffffffffffffffffffffffffffffffffff16815260200190815260200160002060020160006101000a81548160ff02191690831515021790555050565b610eb3613093565b610ebb6130e8565b80601460008473ffffffffffffffffffffffffffffffffffffffff1673ffffffffffffffffffffffffffffffffffffffff16815260200190815260200160002060050160016101000a81548161ffff021916908361ffff1602179055505050565b610f24612fad565b610f2c613093565b6001601260008373ffffffffffffffffffffffffffffffffffffffff1673ffffffffffffffffffffffffffffffffffffffff16815260200190815260200160002060006101000a81548160ff0219169083151502179055506009819080600181540180825580915050600190039060005260206000200160009091909190916101000a81548173ffffffffffffffffffffffffffffffffffffffff021916908373ffffffffffffffffffffffffffffffffffffffff160217905550600b600281819054906101000a900461ffff168092919061100790614ac5565b91906101000a81548161ffff021916908361ffff1602179055505050565b600260009054906101000a900460ff1681565b6009818154811061104857600080fd5b906000526020600020016000915054906101000a900473ffffffffffffffffffffffffffffffffffffffff1681565b6000611081613093565b61108a33613176565b81600460003373ffffffffffffffffffffffffffffffffffffffff1673ffffffffffffffffffffffffffffffffffffffff16815260200190815260200160002054101561110c576040517f08c379a000000000000000000000000000000000000000000000000000000000815260040161110390614b3b565b60405180910390fd5b6000600c60010154905060006111206114d6565b905060008285836111319190614b5b565b61113b9190614a91565b90506000604051806080016040528060018081111561115d5761115c61410e565b5b815260200187815260200184815260200142815250905085600360008282546111869190614a91565b9250508190555085600460003373ffffffffffffffffffffffffffffffffffffffff1673ffffffffffffffffffffffffffffffffffffffff16815260200190815260200160002060008282546111dc9190614a91565b9250508190555085601360003373ffffffffffffffffffffffffffffffffffffffff1673ffffffffffffffffffffffffffffffffffffffff16815260200190815260200160002060010160008282546112359190614a91565b92505081905550601360003373ffffffffffffffffffffffffffffffffffffffff1673ffffffffffffffffffffffffffffffffffffffff168152602001908152602001600020600201600181819054906101000a900463ffffffff168092919061129e90614bb5565b91906101000a81548163ffffffff021916908363ffffffff16021790555050601560003373ffffffffffffffffffffffffffffffffffffffff1673ffffffffffffffffffffffffffffffffffffffff16815260200190815260200160002081908060018154018082558091505060019003906000526020600020906004020160009091909190915060008201518160000160006101000a81548160ff021916908360018111156113515761135061410e565b5b02179055506020820151816001015560408201518160020155606082015181600301555050601060009054906101000a900473ffffffffffffffffffffffffffffffffffffffff1673ffffffffffffffffffffffffffffffffffffffff1663d0e30db0856040518263ffffffff1660e01b81526004016000604051808303818588803b1580156113e057600080fd5b505af11580156113f4573d6000803e3d6000fd5b5050505050611402866132f3565b600f60009054906101000a900473ffffffffffffffffffffffffffffffffffffffff1673ffffffffffffffffffffffffffffffffffffffff1663f3fef3a333846040518363ffffffff1660e01b815260040161145f929190614be1565b600060405180830381600087803b15801561147957600080fd5b505af115801561148d573d6000803e3d6000fd5b505050507fe8bb4edfb49cb224db3d7d51f707c053865322c038a54cfcfd81969d0eb1f01333876040516114c2929190614be1565b60405180910390a181945050505050919050565b6000806000905060005b60088054905081101561186c576000601460006008848154811061150757611506614c0a565b5b9060005260206000200160009054906101000a900473ffffffffffffffffffffffffffffffffffffffff1673ffffffffffffffffffffffffffffffffffffffff1673ffffffffffffffffffffffffffffffffffffffff1681526020019081526020016000206040518060e00160405290816000820160009054906101000a900473ffffffffffffffffffffffffffffffffffffffff1673ffffffffffffffffffffffffffffffffffffffff1673ffffffffffffffffffffffffffffffffffffffff1681526020016001820180546115dd90614a31565b80601f016020809104026020016040519081016040528092919081815260200182805461160990614a31565b80156116565780601f1061162b57610100808354040283529160200191611656565b820191906000526020600020905b81548152906001019060200180831161163957829003601f168201915b5050505050815260200160028201805461166f90614a31565b80601f016020809104026020016040519081016040528092919081815260200182805461169b90614a31565b80156116e85780601f106116bd576101008083540402835291602001916116e8565b820191906000526020600020905b8154815290600101906020018083116116cb57829003601f168201915b505050505081526020016003820160009054906101000a900460ff1660ff1660ff168152602001600482015481526020016005820160009054906101000a900460ff16600481111561173d5761173c61410e565b5b600481111561174f5761174e61410e565b5b81526020016005820160019054906101000a900461ffff1661ffff1661ffff168152505090506000601160009054906101000a900473ffffffffffffffffffffffffffffffffffffffff1673ffffffffffffffffffffffffffffffffffffffff166341976e0983600001516040518263ffffffff1660e01b81526004016117d691906140bb565b6040805180830381865afa1580156117f2573d6000803e3d6000fd5b505050506040513d601f19601f820116820180604052508101906118169190614c4e565b50905060008260600151600a61182c9190614dc1565b82846080015161183c9190614b5b565b6118469190614e3b565b905080856118549190614e6c565b9450505050808061186490614ea0565b9150506114e0565b508091505090565b60136020528060005260406000206000915090508060000160009054906101000a900473ffffffffffffffffffffffffffffffffffffffff16908060010154908060020160009054906101000a900460ff16908060020160019054906101000a900463ffffffff16905084565b600a81815481106118f157600080fd5b906000526020600020016000915054906101000a900473ffffffffffffffffffffffffffffffffffffffff1681565b600f60009054906101000a900473ffffffffffffffffffffffffffffffffffffffff1681565b61194e613093565b611956613655565b6000601460008473ffffffffffffffffffffffffffffffffffffffff1673ffffffffffffffffffffffffffffffffffffffff16815260200190815260200160002060040154905060006119a9828461373b565b905082601460008673ffffffffffffffffffffffffffffffffffffffff1673ffffffffffffffffffffffffffffffffffffffff1681526020019081526020016000206004018190555060006003541115611b4d5782821115611aa657600f60009054906101000a900473ffffffffffffffffffffffffffffffffffffffff1673ffffffffffffffffffffffffffffffffffffffff1663d3e38dae8560035484611a529190614b5b565b6040518363ffffffff1660e01b8152600401611a6f929190614be1565b600060405180830381600087803b158015611a8957600080fd5b505af1158015611a9d573d6000803e3d6000fd5b50505050611b4c565b82821015611b4b57600f60009054906101000a900473ffffffffffffffffffffffffffffffffffffffff1673ffffffffffffffffffffffffffffffffffffffff1663938c7c3a8560035484611afb9190614b5b565b6040518363ffffffff1660e01b8152600401611b18929190614be1565b600060405180830381600087803b158015611b3257600080fd5b505af1158015611b46573d6000803e3d6000fd5b505050505b5b5b50505050565b60046020528060005260406000206000915090505481565b611b7361376b565b80600c60000160016101000a81548161ffff021916908361ffff16021790555050565b601160009054906101000a900473ffffffffffffffffffffffffffffffffffffffff1681565b611bc46130e8565b611bcc613093565b600073ffffffffffffffffffffffffffffffffffffffff16601460008773ffffffffffffffffffffffffffffffffffffffff1673ffffffffffffffffffffffffffffffffffffffff16815260200190815260200160002060000160009054906101000a900473ffffffffffffffffffffffffffffffffffffffff1673ffffffffffffffffffffffffffffffffffffffff1614611c9d576040517f08c379a0000000000000000000000000000000000000000000000000000000008152600401611c9490614f34565b60405180910390fd5b60018160ff1610158015611cb5575060048160ff1611155b611cf4576040517f08c379a0000000000000000000000000000000000000000000000000000000008152600401611ceb90614fc6565b60405180910390fd5b60006040518060e001604052808773ffffffffffffffffffffffffffffffffffffffff1681526020018681526020018581526020018460ff1681526020016000815260200160018460ff1614611d715760028460ff1614611d695760038460ff1614611d61576004611d64565b60035b611d6c565b60025b611d74565b60015b6004811115611d8657611d8561410e565b5b8152602001600061ffff16815250905080601460008873ffffffffffffffffffffffffffffffffffffffff1673ffffffffffffffffffffffffffffffffffffffff16815260200190815260200160002060008201518160000160006101000a81548173ffffffffffffffffffffffffffffffffffffffff021916908373ffffffffffffffffffffffffffffffffffffffff1602179055506020820151816001019081611e329190615188565b506040820151816002019081611e489190615188565b5060608201518160030160006101000a81548160ff021916908360ff1602179055506080820151816004015560a08201518160050160006101000a81548160ff02191690836004811115611e9f57611e9e61410e565b5b021790555060c08201518160050160016101000a81548161ffff021916908361ffff1602179055509050506008869080600181540180825580915050600190039060005260206000200160009091909190916101000a81548173ffffffffffffffffffffffffffffffffffffffff021916908373ffffffffffffffffffffffffffffffffffffffff160217905550600b600081819054906101000a900461ffff1680929190611f4d90614ac5565b91906101000a81548161ffff021916908361ffff16021790555050600f60009054906101000a900473ffffffffffffffffffffffffffffffffffffffff1673ffffffffffffffffffffffffffffffffffffffff16636127548a87846040518363ffffffff1660e01b8152600401611fc592919061525a565b600060405180830381600087803b158015611fdf57600080fd5b505af1158015611ff3573d6000803e3d6000fd5b50505050505050505050565b61200761376b565b600c60020160009054906101000a900460ff1615600c60020160006101000a81548160ff021916908315150217905550565b600760009054906101000a900473ffffffffffffffffffffffffffffffffffffffff1681565b600660009054906101000a900473ffffffffffffffffffffffffffffffffffffffff1681565b6001805461209290614a31565b80601f01602080910402602001604051908101604052809291908181526020018280546120be90614a31565b801561210b5780601f106120e05761010080835404028352916020019161210b565b820191906000526020600020905b8154815290600101906020018083116120ee57829003601f168201915b505050505081565b61211b61376b565b80600c6001018190555050565b612130613093565b6121386130e8565b6000805b82518110156121845782818151811061215857612157614c0a565b5b6020026020010151602001518261216f9190615283565b9150808061217c90614ea0565b91505061213c565b506127108161ffff16146121cd576040517f08c379a00000000000000000000000000000000000000000000000000000000081526004016121c490615305565b60405180910390fd5b60005b82518110156122325761221f8382815181106121ef576121ee614c0a565b5b60200260200101516000015184838151811061220e5761220d614c0a565b5b602002602001015160200151610eab565b808061222a90614ea0565b9150506121d0565b505050565b6008818154811061224757600080fd5b906000526020600020016000915054906101000a900473ffffffffffffffffffffffffffffffffffffffff1681565b6000612283338484612c55565b6001905092915050565b612295612fad565b61229d613093565b6000601260008373ffffffffffffffffffffffffffffffffffffffff1673ffffffffffffffffffffffffffffffffffffffff16815260200190815260200160002060006101000a81548160ff02191690831515021790555050565b601060009054906101000a900473ffffffffffffffffffffffffffffffffffffffff1681565b600b60049054906101000a900467ffffffffffffffff1681565b612340613093565b61234933613176565b60006123536114d6565b90506000600c600101549050600081848461236e9190614b5b565b6123789190614e6c565b9050348111156123bd576040517f08c379a00000000000000000000000000000000000000000000000000000000081526004016123b490615397565b60405180910390fd5b60006040518060800160405280600060018111156123de576123dd61410e565b5b815260200186815260200185815260200142815250905084600360008282546124079190614e6c565b9250508190555084600460003373ffffffffffffffffffffffffffffffffffffffff1673ffffffffffffffffffffffffffffffffffffffff168152602001908152602001600020600082825461245d9190614e6c565b9250508190555084601360003373ffffffffffffffffffffffffffffffffffffffff1673ffffffffffffffffffffffffffffffffffffffff16815260200190815260200160002060010160008282546124b69190614e6c565b92505081905550601360003373ffffffffffffffffffffffffffffffffffffffff1673ffffffffffffffffffffffffffffffffffffffff168152602001908152602001600020600201600181819054906101000a900463ffffffff168092919061251f90614bb5565b91906101000a81548163ffffffff021916908363ffffffff16021790555050601560003373ffffffffffffffffffffffffffffffffffffffff1673ffffffffffffffffffffffffffffffffffffffff16815260200190815260200160002081908060018154018082558091505060019003906000526020600020906004020160009091909190915060008201518160000160006101000a81548160ff021916908360018111156125d2576125d161410e565b5b02179055506020820151816001015560408201518160020155606082015181600301555050601060009054906101000a900473ffffffffffffffffffffffffffffffffffffffff1673ffffffffffffffffffffffffffffffffffffffff1663d0e30db0846040518263ffffffff1660e01b81526004016000604051808303818588803b15801561266157600080fd5b505af1158015612675573d6000803e3d6000fd5b5050505050612683856137fd565b7f4ada3e4e678c9a929d2c6af442e499e9eaf730193272daf0ea4324c1b76fb6c333866040516126b4929190614be1565b60405180910390a15050505050565b60006126cd613093565b6126d5612fad565b816126df81613c31565b6126e7613d05565b83816000019073ffffffffffffffffffffffffffffffffffffffff16908173ffffffffffffffffffffffffffffffffffffffff168152505080601360008673ffffffffffffffffffffffffffffffffffffffff1673ffffffffffffffffffffffffffffffffffffffff16815260200190815260200160002060008201518160000160006101000a81548173ffffffffffffffffffffffffffffffffffffffff021916908373ffffffffffffffffffffffffffffffffffffffff1602179055506020820151816001015560408201518160020160006101000a81548160ff02191690831515021790555060608201518160020160016101000a81548163ffffffff021916908363ffffffff160217905550905050600a849080600181540180825580915050600190039060005260206000200160009091909190916101000a81548173ffffffffffffffffffffffffffffffffffffffff021916908373ffffffffffffffffffffffffffffffffffffffff160217905550600b600481819054906101000a900467ffffffffffffffff1680929190612883906153b7565b91906101000a81548167ffffffffffffffff021916908367ffffffffffffffff16021790555050600b60049054906101000a900467ffffffffffffffff1667ffffffffffffffff1692505050919050565b6005602052816000526040600020602052806000526040600020600091509150505481565b600b60009054906101000a900461ffff1681565b60146020528060005260406000206000915090508060000160009054906101000a900473ffffffffffffffffffffffffffffffffffffffff169080600101805461295690614a31565b80601f016020809104026020016040519081016040528092919081815260200182805461298290614a31565b80156129cf5780601f106129a4576101008083540402835291602001916129cf565b820191906000526020600020905b8154815290600101906020018083116129b257829003601f168201915b5050505050908060020180546129e490614a31565b80601f0160208091040260200160405190810160405280929190818152602001828054612a1090614a31565b8015612a5d5780601f10612a3257610100808354040283529160200191612a5d565b820191906000526020600020905b815481529060010190602001808311612a4057829003601f168201915b5050505050908060030160009054906101000a900460ff16908060040154908060050160009054906101000a900460ff16908060050160019054906101000a900461ffff16905087565b612aaf613093565b612ab7613655565b60005b8151811015612b90576000828281518110612ad857612ad7614c0a565b5b60200260200101516000015190506000601460008373ffffffffffffffffffffffffffffffffffffffff1673ffffffffffffffffffffffffffffffffffffffff168152602001908152602001600020600401549050838381518110612b4057612b3f614c0a565b5b6020026020010151602001518114612b7b57612b7a82858581518110612b6957612b68614c0a565b5b602002602001015160200151611946565b5b50508080612b8890614ea0565b915050612aba565b5050565b600080612b9f6114d6565b905060035481612baf9190614b5b565b91505090565b600c8060000160009054906101000a900460ff16908060000160019054906101000a900461ffff16908060010154908060020160009054906101000a900460ff16905084565b60126020528060005260406000206000915054906101000a900460ff1681565b612c2361376b565b600c60000160009054906101000a900460ff1615600c60000160006101000a81548160ff021916908315150217905550565b600073ffffffffffffffffffffffffffffffffffffffff168273ffffffffffffffffffffffffffffffffffffffff1603612c8e57600080fd5b80600460008573ffffffffffffffffffffffffffffffffffffffff1673ffffffffffffffffffffffffffffffffffffffff168152602001908152602001600020541015612cda57600080fd5b600460008373ffffffffffffffffffffffffffffffffffffffff1673ffffffffffffffffffffffffffffffffffffffff1681526020019081526020016000205481600460008573ffffffffffffffffffffffffffffffffffffffff1673ffffffffffffffffffffffffffffffffffffffff16815260200190815260200160002054612d659190614e6c565b11612d6f57600080fd5b6000600460008473ffffffffffffffffffffffffffffffffffffffff1673ffffffffffffffffffffffffffffffffffffffff16815260200190815260200160002054600460008673ffffffffffffffffffffffffffffffffffffffff1673ffffffffffffffffffffffffffffffffffffffff16815260200190815260200160002054612dfb9190614e6c565b905081600460008673ffffffffffffffffffffffffffffffffffffffff1673ffffffffffffffffffffffffffffffffffffffff1681526020019081526020016000206000828254612e4c9190614a91565b9250508190555081600460008573ffffffffffffffffffffffffffffffffffffffff1673ffffffffffffffffffffffffffffffffffffffff1681526020019081526020016000206000828254612ea29190614e6c565b925050819055508273ffffffffffffffffffffffffffffffffffffffff168473ffffffffffffffffffffffffffffffffffffffff167fddf252ad1be2c89b69c2b068fc378daa952ba7f163c4a11628f55a4df523b3ef84604051612f0691906141d9565b60405180910390a380600460008573ffffffffffffffffffffffffffffffffffffffff1673ffffffffffffffffffffffffffffffffffffffff16815260200190815260200160002054600460008773ffffffffffffffffffffffffffffffffffffffff1673ffffffffffffffffffffffffffffffffffffffff16815260200190815260200160002054612f999190614e6c565b14612fa757612fa66153e7565b5b50505050565b600660009054906101000a900473ffffffffffffffffffffffffffffffffffffffff1673ffffffffffffffffffffffffffffffffffffffff163373ffffffffffffffffffffffffffffffffffffffff1614806130525750601260003373ffffffffffffffffffffffffffffffffffffffff1673ffffffffffffffffffffffffffffffffffffffff16815260200190815260200160002060009054906101000a900460ff165b613091576040517f08c379a000000000000000000000000000000000000000000000000000000000815260040161308890615488565b60405180910390fd5b565b600c60000160009054906101000a900460ff16156130e6576040517f08c379a00000000000000000000000000000000000000000000000000000000081526004016130dd906154f4565b60405180910390fd5b565b601260003373ffffffffffffffffffffffffffffffffffffffff1673ffffffffffffffffffffffffffffffffffffffff16815260200190815260200160002060009054906101000a900460ff16613174576040517f08c379a000000000000000000000000000000000000000000000000000000000815260040161316b90615560565b60405180910390fd5b565b600c60020160009054906101000a900460ff161561326057600073ffffffffffffffffffffffffffffffffffffffff16601360008373ffffffffffffffffffffffffffffffffffffffff1673ffffffffffffffffffffffffffffffffffffffff16815260200190815260200160002060000160009054906101000a900473ffffffffffffffffffffffffffffffffffffffff1673ffffffffffffffffffffffffffffffffffffffff160361325f576040517f08c379a0000000000000000000000000000000000000000000000000000000008152600401613256906155f2565b60405180910390fd5b5b601360008273ffffffffffffffffffffffffffffffffffffffff1673ffffffffffffffffffffffffffffffffffffffff16815260200190815260200160002060020160009054906101000a900460ff16156132f0576040517f08c379a00000000000000000000000000000000000000000000000000000000081526004016132e79061565e565b60405180910390fd5b50565b60005b600880549050811015613651576000601460006008848154811061331d5761331c614c0a565b5b9060005260206000200160009054906101000a900473ffffffffffffffffffffffffffffffffffffffff1673ffffffffffffffffffffffffffffffffffffffff1673ffffffffffffffffffffffffffffffffffffffff1681526020019081526020016000206040518060e00160405290816000820160009054906101000a900473ffffffffffffffffffffffffffffffffffffffff1673ffffffffffffffffffffffffffffffffffffffff1673ffffffffffffffffffffffffffffffffffffffff1681526020016001820180546133f390614a31565b80601f016020809104026020016040519081016040528092919081815260200182805461341f90614a31565b801561346c5780601f106134415761010080835404028352916020019161346c565b820191906000526020600020905b81548152906001019060200180831161344f57829003601f168201915b5050505050815260200160028201805461348590614a31565b80601f01602080910402602001604051908101604052809291908181526020018280546134b190614a31565b80156134fe5780601f106134d3576101008083540402835291602001916134fe565b820191906000526020600020905b8154815290600101906020018083116134e157829003601f168201915b505050505081526020016003820160009054906101000a900460ff1660ff1660ff168152602001600482015481526020016005820160009054906101000a900460ff1660048111156135535761355261410e565b5b60048111156135655761356461410e565b5b81526020016005820160019054906101000a900461ffff1661ffff1661ffff16815250509050600081608001518461359d9190614b5b565b9050600081111561363c57600f60009054906101000a900473ffffffffffffffffffffffffffffffffffffffff1673ffffffffffffffffffffffffffffffffffffffff1663d3e38dae8360000151836040518363ffffffff1660e01b8152600401613609929190614be1565b600060405180830381600087803b15801561362357600080fd5b505af1158015613637573d6000803e3d6000fd5b505050505b5050808061364990614ea0565b9150506132f6565b5050565b600760009054906101000a900473ffffffffffffffffffffffffffffffffffffffff1673ffffffffffffffffffffffffffffffffffffffff163373ffffffffffffffffffffffffffffffffffffffff1614806136fa5750601260003373ffffffffffffffffffffffffffffffffffffffff1673ffffffffffffffffffffffffffffffffffffffff16815260200190815260200160002060009054906101000a900460ff165b613739576040517f08c379a0000000000000000000000000000000000000000000000000000000008152600401613730906156f0565b60405180910390fd5b565b6000818310156137565782826137519190614a91565b613763565b81836137629190614a91565b5b905092915050565b600660009054906101000a900473ffffffffffffffffffffffffffffffffffffffff1673ffffffffffffffffffffffffffffffffffffffff163373ffffffffffffffffffffffffffffffffffffffff16146137fb576040517f08c379a00000000000000000000000000000000000000000000000000000000081526004016137f290615782565b60405180910390fd5b565b60005b600880549050811015613c2d576000601460006008848154811061382757613826614c0a565b5b9060005260206000200160009054906101000a900473ffffffffffffffffffffffffffffffffffffffff1673ffffffffffffffffffffffffffffffffffffffff1673ffffffffffffffffffffffffffffffffffffffff1681526020019081526020016000206040518060e00160405290816000820160009054906101000a900473ffffffffffffffffffffffffffffffffffffffff1673ffffffffffffffffffffffffffffffffffffffff1673ffffffffffffffffffffffffffffffffffffffff1681526020016001820180546138fd90614a31565b80601f016020809104026020016040519081016040528092919081815260200182805461392990614a31565b80156139765780601f1061394b57610100808354040283529160200191613976565b820191906000526020600020905b81548152906001019060200180831161395957829003601f168201915b5050505050815260200160028201805461398f90614a31565b80601f01602080910402602001604051908101604052809291908181526020018280546139bb90614a31565b8015613a085780601f106139dd57610100808354040283529160200191613a08565b820191906000526020600020905b8154815290600101906020018083116139eb57829003601f168201915b505050505081526020016003820160009054906101000a900460ff1660ff1660ff168152602001600482015481526020016005820160009054906101000a900460ff166004811115613a5d57613a5c61410e565b5b6004811115613a6f57613a6e61410e565b5b81526020016005820160019054906101000a900461ffff1661ffff1661ffff168152505090506000601160009054906101000a900473ffffffffffffffffffffffffffffffffffffffff1673ffffffffffffffffffffffffffffffffffffffff166341976e0983600001516040518263ffffffff1660e01b8152600401613af691906140bb565b6040805180830381865afa158015613b12573d6000803e3d6000fd5b505050506040513d601f19601f82011682018060405250810190613b369190614c4e565b5090506000848360800151613b4b9190614b5b565b905060008360600151600a613b609190614dc1565b8383613b6c9190614b5b565b613b769190614e3b565b90506000821115613c1657600f60009054906101000a900473ffffffffffffffffffffffffffffffffffffffff1673ffffffffffffffffffffffffffffffffffffffff1663938c7c3a828660000151856040518463ffffffff1660e01b8152600401613be3929190614be1565b6000604051808303818588803b158015613bfc57600080fd5b505af1158015613c10573d6000803e3d6000fd5b50505050505b505050508080613c2590614ea0565b915050613800565b5050565b600073ffffffffffffffffffffffffffffffffffffffff16601360008373ffffffffffffffffffffffffffffffffffffffff1673ffffffffffffffffffffffffffffffffffffffff16815260200190815260200160002060000160009054906101000a900473ffffffffffffffffffffffffffffffffffffffff1673ffffffffffffffffffffffffffffffffffffffff1614613d02576040517f08c379a0000000000000000000000000000000000000000000000000000000008152600401613cf9906157ee565b60405180910390fd5b50565b6040518060800160405280600073ffffffffffffffffffffffffffffffffffffffff16815260200160008152602001600015158152602001600063ffffffff1681525090565b600081519050919050565b600082825260208201905092915050565b60005b83811015613d85578082015181840152602081019050613d6a565b60008484015250505050565b6000601f19601f8301169050919050565b6000613dad82613d4b565b613db78185613d56565b9350613dc7818560208601613d67565b613dd081613d91565b840191505092915050565b60006020820190508181036000830152613df58184613da2565b905092915050565b6000604051905090565b600080fd5b600080fd5b600073ffffffffffffffffffffffffffffffffffffffff82169050919050565b6000613e3c82613e11565b9050919050565b613e4c81613e31565b8114613e5757600080fd5b50565b600081359050613e6981613e43565b92915050565b6000819050919050565b613e8281613e6f565b8114613e8d57600080fd5b50565b600081359050613e9f81613e79565b92915050565b60008060408385031215613ebc57613ebb613e07565b5b6000613eca85828601613e5a565b9250506020613edb85828601613e90565b9150509250929050565b60008115159050919050565b613efa81613ee5565b82525050565b6000602082019050613f156000830184613ef1565b92915050565b600080fd5b600080fd5b7f4e487b7100000000000000000000000000000000000000000000000000000000600052604160045260246000fd5b613f5d82613d91565b810181811067ffffffffffffffff82111715613f7c57613f7b613f25565b5b80604052505050565b6000613f8f613dfd565b9050613f9b8282613f54565b919050565b600067ffffffffffffffff821115613fbb57613fba613f25565b5b613fc482613d91565b9050602081019050919050565b82818337600083830152505050565b6000613ff3613fee84613fa0565b613f85565b90508281526020810184848401111561400f5761400e613f20565b5b61401a848285613fd1565b509392505050565b600082601f83011261403757614036613f1b565b5b8135614047848260208601613fe0565b91505092915050565b6000806040838503121561406757614066613e07565b5b600083013567ffffffffffffffff81111561408557614084613e0c565b5b61409185828601614022565b92505060206140a285828601613e90565b9150509250929050565b6140b581613e31565b82525050565b60006020820190506140d060008301846140ac565b92915050565b600061ffff82169050919050565b6140ed816140d6565b82525050565b600060208201905061410860008301846140e4565b92915050565b7f4e487b7100000000000000000000000000000000000000000000000000000000600052602160045260246000fd5b6002811061414e5761414d61410e565b5b50565b600081905061415f8261413d565b919050565b600061416f82614151565b9050919050565b61417f81614164565b82525050565b61418e81613e6f565b82525050565b60006080820190506141a96000830187614176565b6141b66020830186614185565b6141c36040830185614185565b6141d06060830184614185565b95945050505050565b60006020820190506141ee6000830184614185565b92915050565b60008060006060848603121561420d5761420c613e07565b5b600061421b86828701613e5a565b935050602061422c86828701613e5a565b925050604061423d86828701613e90565b9150509250925092565b60006020828403121561425d5761425c613e07565b5b600061426b84828501613e5a565b91505092915050565b61427d816140d6565b811461428857600080fd5b50565b60008135905061429a81614274565b92915050565b600080604083850312156142b7576142b6613e07565b5b60006142c585828601613e5a565b92505060206142d68582860161428b565b9150509250929050565b600060ff82169050919050565b6142f6816142e0565b82525050565b600060208201905061431160008301846142ed565b92915050565b60006020828403121561432d5761432c613e07565b5b600061433b84828501613e90565b91505092915050565b600063ffffffff82169050919050565b61435d81614344565b82525050565b600060808201905061437860008301876140ac565b6143856020830186614185565b6143926040830185613ef1565b61439f6060830184614354565b95945050505050565b6000819050919050565b60006143cd6143c86143c384613e11565b6143a8565b613e11565b9050919050565b60006143df826143b2565b9050919050565b60006143f1826143d4565b9050919050565b614401816143e6565b82525050565b600060208201905061441c60008301846143f8565b92915050565b60006020828403121561443857614437613e07565b5b60006144468482850161428b565b91505092915050565b600061445a826143b2565b9050919050565b600061446c8261444f565b9050919050565b61447c81614461565b82525050565b60006020820190506144976000830184614473565b92915050565b6144a6816142e0565b81146144b157600080fd5b50565b6000813590506144c38161449d565b92915050565b600080600080600060a086880312156144e5576144e4613e07565b5b60006144f388828901613e5a565b955050602086013567ffffffffffffffff81111561451457614513613e0c565b5b61452088828901614022565b945050604086013567ffffffffffffffff81111561454157614540613e0c565b5b61454d88828901614022565b935050606061455e888289016144b4565b925050608061456f888289016144b4565b9150509295509295909350565b600067ffffffffffffffff82111561459757614596613f25565b5b602082029050602081019050919050565b600080fd5b600080fd5b6000604082840312156145c8576145c76145ad565b5b6145d26040613f85565b905060006145e284828501613e5a565b60008301525060206145f68482850161428b565b60208301525092915050565b60006146156146108461457c565b613f85565b90508083825260208201905060408402830185811115614638576146376145a8565b5b835b81811015614661578061464d88826145b2565b84526020840193505060408101905061463a565b5050509392505050565b600082601f8301126146805761467f613f1b565b5b8135614690848260208601614602565b91505092915050565b6000602082840312156146af576146ae613e07565b5b600082013567ffffffffffffffff8111156146cd576146cc613e0c565b5b6146d98482850161466b565b91505092915050565b60006146ed8261444f565b9050919050565b6146fd816146e2565b82525050565b600060208201905061471860008301846146f4565b92915050565b600067ffffffffffffffff82169050919050565b61473b8161471e565b82525050565b60006020820190506147566000830184614732565b92915050565b6000806040838503121561477357614772613e07565b5b600061478185828601613e5a565b925050602061479285828601613e5a565b9150509250929050565b600581106147ad576147ac61410e565b5b50565b60008190506147be8261479c565b919050565b60006147ce826147b0565b9050919050565b6147de816147c3565b82525050565b600060e0820190506147f9600083018a6140ac565b818103602083015261480b8189613da2565b9050818103604083015261481f8188613da2565b905061482e60608301876142ed565b61483b6080830186614185565b61484860a08301856147d5565b61485560c08301846140e4565b98975050505050505050565b600067ffffffffffffffff82111561487c5761487b613f25565b5b602082029050602081019050919050565b6000604082840312156148a3576148a26145ad565b5b6148ad6040613f85565b905060006148bd84828501613e5a565b60008301525060206148d184828501613e90565b60208301525092915050565b60006148f06148eb84614861565b613f85565b90508083825260208201905060408402830185811115614913576149126145a8565b5b835b8181101561493c5780614928888261488d565b845260208401935050604081019050614915565b5050509392505050565b600082601f83011261495b5761495a613f1b565b5b813561496b8482602086016148dd565b91505092915050565b60006020828403121561498a57614989613e07565b5b600082013567ffffffffffffffff8111156149a8576149a7613e0c565b5b6149b484828501614946565b91505092915050565b60006080820190506149d26000830187613ef1565b6149df60208301866140e4565b6149ec6040830185614185565b6149f96060830184613ef1565b95945050505050565b7f4e487b7100000000000000000000000000000000000000000000000000000000600052602260045260246000fd5b60006002820490506001821680614a4957607f821691505b602082108103614a5c57614a5b614a02565b5b50919050565b7f4e487b7100000000000000000000000000000000000000000000000000000000600052601160045260246000fd5b6000614a9c82613e6f565b9150614aa783613e6f565b9250828203905081811115614abf57614abe614a62565b5b92915050565b6000614ad0826140d6565b915061ffff8203614ae457614ae3614a62565b5b600182019050919050565b7f496e73756666696369656e74206e756d626572206f6620736861726573210000600082015250565b6000614b25601e83613d56565b9150614b3082614aef565b602082019050919050565b60006020820190508181036000830152614b5481614b18565b9050919050565b6000614b6682613e6f565b9150614b7183613e6f565b9250817fffffffffffffffffffffffffffffffffffffffffffffffffffffffffffffffff0483118215151615614baa57614ba9614a62565b5b828202905092915050565b6000614bc082614344565b915063ffffffff8203614bd657614bd5614a62565b5b600182019050919050565b6000604082019050614bf660008301856140ac565b614c036020830184614185565b9392505050565b7f4e487b7100000000000000000000000000000000000000000000000000000000600052603260045260246000fd5b600081519050614c4881613e79565b92915050565b60008060408385031215614c6557614c64613e07565b5b6000614c7385828601614c39565b9250506020614c8485828601614c39565b9150509250929050565b60008160011c9050919050565b6000808291508390505b6001851115614ce557808604811115614cc157614cc0614a62565b5b6001851615614cd05780820291505b8081029050614cde85614c8e565b9450614ca5565b94509492505050565b600082614cfe5760019050614dba565b81614d0c5760009050614dba565b8160018114614d225760028114614d2c57614d5b565b6001915050614dba565b60ff841115614d3e57614d3d614a62565b5b8360020a915084821115614d5557614d54614a62565b5b50614dba565b5060208310610133831016604e8410600b8410161715614d905782820a905083811115614d8b57614d8a614a62565b5b614dba565b614d9d8484846001614c9b565b92509050818404811115614db457614db3614a62565b5b81810290505b9392505050565b6000614dcc82613e6f565b9150614dd7836142e0565b9250614e047fffffffffffffffffffffffffffffffffffffffffffffffffffffffffffffffff8484614cee565b905092915050565b7f4e487b7100000000000000000000000000000000000000000000000000000000600052601260045260246000fd5b6000614e4682613e6f565b9150614e5183613e6f565b925082614e6157614e60614e0c565b5b828204905092915050565b6000614e7782613e6f565b9150614e8283613e6f565b9250828201905080821115614e9a57614e99614a62565b5b92915050565b6000614eab82613e6f565b91507fffffffffffffffffffffffffffffffffffffffffffffffffffffffffffffffff8203614edd57614edc614a62565b5b600182019050919050565b7f417373657420616c726561647920657869737473210000000000000000000000600082015250565b6000614f1e601583613d56565b9150614f2982614ee8565b602082019050919050565b60006020820190508181036000830152614f4d81614f11565b9050919050565b7f6173736574547970652069642073686f756c64206265206265747765656e203160008201527f20616e6420340000000000000000000000000000000000000000000000000000602082015250565b6000614fb0602683613d56565b9150614fbb82614f54565b604082019050919050565b60006020820190508181036000830152614fdf81614fa3565b9050919050565b60008190508160005260206000209050919050565b60006020601f8301049050919050565b600082821b905092915050565b6000600883026150487fffffffffffffffffffffffffffffffffffffffffffffffffffffffffffffffff8261500b565b615052868361500b565b95508019841693508086168417925050509392505050565b600061508561508061507b84613e6f565b6143a8565b613e6f565b9050919050565b6000819050919050565b61509f8361506a565b6150b36150ab8261508c565b848454615018565b825550505050565b600090565b6150c86150bb565b6150d3818484615096565b505050565b5b818110156150f7576150ec6000826150c0565b6001810190506150d9565b5050565b601f82111561513c5761510d81614fe6565b61511684614ffb565b81016020851015615125578190505b61513961513185614ffb565b8301826150d8565b50505b505050565b600082821c905092915050565b600061515f60001984600802615141565b1980831691505092915050565b6000615178838361514e565b9150826002028217905092915050565b61519182613d4b565b67ffffffffffffffff8111156151aa576151a9613f25565b5b6151b48254614a31565b6151bf8282856150fb565b600060209050601f8311600181146151f257600084156151e0578287015190505b6151ea858261516c565b865550615252565b601f19841661520086614fe6565b60005b8281101561522857848901518255600182019150602085019450602081019050615203565b868310156152455784890151615241601f89168261514e565b8355505b6001600288020188555050505b505050505050565b600060408201905061526f60008301856140ac565b61527c60208301846142ed565b9392505050565b600061528e826140d6565b9150615299836140d6565b9250828201905061ffff8111156152b3576152b2614a62565b5b92915050565b7f53756d206f6620776569676874732068617320746f2062652031303030302e00600082015250565b60006152ef601f83613d56565b91506152fa826152b9565b602082019050919050565b6000602082019050818103600083015261531e816152e2565b9050919050565b7f436f7374206f662073686172657320697320686967686572207468616e20747260008201527f616e7366657272656420616d6f756e7421000000000000000000000000000000602082015250565b6000615381603183613d56565b915061538c82615325565b604082019050919050565b600060208201905081810360008301526153b081615374565b9050919050565b60006153c28261471e565b915067ffffffffffffffff82036153dc576153db614a62565b5b600182019050919050565b7f4e487b7100000000000000000000000000000000000000000000000000000000600052600160045260246000fd5b7f43616c6c6572206d75737420626520746865206f776e6572206f72206d616e6160008201527f6765722100000000000000000000000000000000000000000000000000000000602082015250565b6000615472602483613d56565b915061547d82615416565b604082019050919050565b600060208201905081810360008301526154a181615465565b9050919050565b7f436f6e747261637420776173206c6f636b656420646f776e2100000000000000600082015250565b60006154de601983613d56565b91506154e9826154a8565b602082019050919050565b6000602082019050818103600083015261550d816154d1565b9050919050565b7f43616c6c6572206d7573742062652061206d616e616765722100000000000000600082015250565b600061554a601983613d56565b915061555582615514565b602082019050919050565b600060208201905081810360008301526155798161553d565b9050919050565b7f43616c6c6572206d75737420626520616e20617070726f76656420736861726560008201527f686f6c6465722100000000000000000000000000000000000000000000000000602082015250565b60006155dc602783613d56565b91506155e782615580565b604082019050919050565b6000602082019050818103600083015261560b816155cf565b9050919050565b7f5368617265686f6c646572206163636f756e74206973206c6f636b6564210000600082015250565b6000615648601e83613d56565b915061565382615612565b602082019050919050565b600060208201905081810360008301526156778161563b565b9050919050565b7f43616c6c6572206d75737420626520746865206170706c69636174696f6e206f60008201527f72206d616e616765722100000000000000000000000000000000000000000000602082015250565b60006156da602a83613d56565b91506156e58261567e565b604082019050919050565b60006020820190508181036000830152615709816156cd565b9050919050565b7f43616c6c6572206d7573742062652074686520636f6e7472616374206f776e6560008201527f7221000000000000000000000000000000000000000000000000000000000000602082015250565b600061576c602283613d56565b915061577782615710565b604082019050919050565b6000602082019050818103600083015261579b8161575f565b9050919050565b7f43616c6c657220697320616c72656164792061207368617265686f6c64657200600082015250565b60006157d8601f83613d56565b91506157e3826157a2565b602082019050919050565b60006020820190508181036000830152615807816157cb565b905091905056fea264697066735822122056132a8890a689e05692f93cd0e000cbbe2f27d0a39a6f25548245abac20af1064736f6c63430008100033",
  "immutableReferences": {},
  "source": "pragma solidity ^0.8.16;\n\nimport \"./TokenERC20.sol\";\nimport \"./Oracle.sol\";\nimport \"./Treasury.sol\";\nimport \"./Reserve.sol\";\n\ncontract Fund is TokenERC20 {\n    enum TradeTypes {\n        Buy,\n        Sell\n    }\n\n    struct Trade {\n        TradeTypes tradeType;\n        uint256 amount;\n        uint256 price;\n        uint256 createdAt;\n    }\n\n    struct Shareholder {\n        address shareholderAddress;\n        uint256 shares;\n        bool isLocked;\n        uint32 tradeCount;\n    }\n\n    enum AssetTypes {\n        Native,\n        ERC20,\n        ERC721,\n        Synthetic,\n        Mirrored\n    }\n\n    struct Asset {\n        address assetAddress;\n        string name;\n        string symbol;\n        uint8 decimals;\n        uint256 perShareAmount;\n        AssetTypes assetType;\n        uint16 weight;\n    }\n\n    struct AssetAllocation {\n        address assetAddress;\n        uint256 perShareAmount;\n    }\n\n    struct AssetWeight {\n        address assetAddress;\n        uint16 weight;\n    }\n\n    struct MutableProperties {\n        bool isLocked;\n        uint16 rebalancingTolerance;\n        uint256 commission;\n        bool optInRequired;\n    }\n\n    address public ownerAddress;\n    address public applicationAddress;\n    address[] public assetAddresses;\n    address[] public managerAddresses;\n    address[] public shareholderAddresses;\n    uint16 public assetCount = 0;\n    uint16 public managerCount = 0;\n    uint64 public shareholderCount = 0;\n\n    MutableProperties public properties;\n    Treasury public treasury;\n    Reserve public reserve;\n    Oracle public oracle;\n\n    mapping(address => bool) public managers;\n    mapping(address => Shareholder) public shareholders;\n    mapping(address => Asset) public assets;\n    mapping(address => Trade[]) public trades;\n    mapping(string => address[]) public assetByCategory;\n\n    constructor(\n        Oracle _oracle,\n        Treasury _treasury,\n        Reserve _reserve,\n        address _managerAddress,\n        address _applicationAddress,\n        string memory _name,\n        string memory _symbol,\n        string memory _nativeName,\n        string memory _nativeSymbol\n    ) {\n        ownerAddress = msg.sender;\n        oracle = _oracle;\n        treasury = _treasury;\n        reserve = _reserve;\n        properties = MutableProperties(false, 500, 50 gwei, true);\n        addManager(_managerAddress);\n        applicationAddress = _applicationAddress;\n        name = _name;\n        symbol = _symbol;\n        decimals = 0;\n        assets[address(1)] = Asset(\n            address(1),\n            _nativeName,\n            _nativeSymbol,\n            18,\n            0,\n            AssetTypes.Native,\n            10000\n        );\n        assetAddresses.push(address(1));\n        assetCount++;\n    }\n\n    // ---------- EVENTS ----------\n\n    event ShareBought(address caller, uint256 amount);\n    event ShareSold(address caller, uint256 amount);\n    event NeedsRebalancing();\n\n    // ---------- MODIFIERS ----------\n\n    function _onlyOwner() private view {\n        require(\n            msg.sender == ownerAddress,\n            \"Caller must be the contract owner!\"\n        );\n    }\n\n    function _onlyManagers() private view {\n        require(managers[msg.sender], \"Caller must be a manager!\");\n    }\n\n    function _onlyApplication() private view {\n        require(\n            msg.sender == applicationAddress,\n            \"Caller must be the application!\"\n        );\n    }\n\n    function _onlyOwnerOrManager() private view {\n        require(\n            msg.sender == ownerAddress || managers[msg.sender],\n            \"Caller must be the owner or manager!\"\n        );\n    }\n\n    function _onlyApplicationOrManager() private view {\n        require(\n            msg.sender == applicationAddress || managers[msg.sender],\n            \"Caller must be the application or manager!\"\n        );\n    }\n\n    function _mustBeUnlockedShareholder(address addr) private view {\n        if (properties.optInRequired) {\n            require(\n                shareholders[addr].shareholderAddress != address(0),\n                \"Caller must be an approved shareholder!\"\n            );\n        }\n        require(!shareholders[addr].isLocked, \"Shareholder account is locked!\");\n    }\n\n    function _mustNotBeShareholder(address addr) private view {\n        require(\n            shareholders[addr].shareholderAddress == address(0),\n            \"Caller is already a shareholder\"\n        );\n    }\n\n    function _contracNotLocked() private view {\n        require(!properties.isLocked, \"Contract was locked down!\");\n    }\n\n    modifier onlyOwner() {\n        _onlyOwner();\n        _;\n    }\n\n    modifier onlyManagers() {\n        _onlyManagers();\n        _;\n    }\n\n    modifier onlyApplication() {\n        _onlyApplication();\n        _;\n    }\n\n    modifier onlyOwnerOrManager() {\n        _onlyOwnerOrManager();\n        _;\n    }\n\n    modifier onlyApplicationOrManager() {\n        _onlyApplicationOrManager();\n        _;\n    }\n\n    modifier mustNotBeShareholder(address addr) {\n        _mustNotBeShareholder(addr);\n        _;\n    }\n\n    modifier mustBeUnlockedShareholder(address addr) {\n        _mustBeUnlockedShareholder(addr);\n        _;\n    }\n\n    modifier callermustBeUnlockedShareholder() {\n        _mustBeUnlockedShareholder(msg.sender);\n        _;\n    }\n\n    modifier contracNotLocked() {\n        _contracNotLocked();\n        _;\n    }\n\n    // ---------- ACCOUNTS ----------\n\n    function addManager(address newManager)\n        public\n        onlyOwnerOrManager\n        contracNotLocked\n    {\n        managers[newManager] = true;\n        managerAddresses.push(newManager);\n        managerCount++;\n    }\n\n    function removeManager(address manager)\n        public\n        onlyOwnerOrManager\n        contracNotLocked\n    {\n        managers[manager] = false;\n    }\n\n    function addShareholder(address newShareholder)\n        public\n        contracNotLocked\n        onlyOwnerOrManager\n        mustNotBeShareholder(newShareholder)\n        returns (uint256)\n    {\n        Shareholder memory shareholder;\n        shareholder.shareholderAddress = newShareholder;\n        shareholders[newShareholder] = shareholder;\n        shareholderAddresses.push(newShareholder);\n        shareholderCount++;\n\n        return shareholderCount;\n    }\n\n    function toggleLockShareholderAccount(address shareholder)\n        public\n        onlyOwnerOrManager\n    {\n        shareholders[shareholder].isLocked = !shareholders[shareholder]\n            .isLocked;\n    }\n\n    // ---------- MUTABLE PROPERTIES ----------\n\n    function toggleLock() public onlyOwner {\n        properties.isLocked = !properties.isLocked;\n    }\n\n    function toggleOptInRequired() public onlyOwner {\n        properties.optInRequired = !properties.optInRequired;\n    }\n\n    function updateCommission(uint256 newCommission) public onlyOwner {\n        properties.commission = newCommission;\n    }\n\n    function updateRebalancingTolerance(uint16 newRebalancingTolerance) public onlyOwner {\n        properties.rebalancingTolerance = newRebalancingTolerance;\n    }\n\n    // ---------- ASSETS ----------\n\n    function addAsset(\n        address newAssetAddress,\n        string memory _name,\n        string memory _symbol,\n        uint8 _decimals,\n        uint8 assetTypeNr\n    ) public onlyManagers contracNotLocked {\n        require(\n            assets[newAssetAddress].assetAddress == address(0),\n            \"Asset already exists!\"\n        );\n        require(\n            assetTypeNr >= 1 && assetTypeNr <= 4,\n            \"assetType id should be between 1 and 4\"\n        );\n\n        Asset memory asset = Asset(\n            newAssetAddress,\n            _name,\n            _symbol,\n            _decimals,\n            0,\n            assetTypeNr == 1 ? AssetTypes.ERC20 : assetTypeNr == 2\n                ? AssetTypes.ERC721\n                : assetTypeNr == 3\n                ? AssetTypes.Synthetic\n                : AssetTypes.Mirrored,\n            0\n        );\n\n        assets[newAssetAddress] = asset;\n        assetAddresses.push(newAssetAddress);\n        assetCount++;\n        treasury.addAsset(newAssetAddress, assetTypeNr);\n    }\n\n    function updateAllocation(address assetAddress, uint256 newAmount)\n        public\n        contracNotLocked\n        onlyApplicationOrManager\n    {\n        uint256 prevAmount = assets[assetAddress].perShareAmount;\n        uint256 diff = absDiff(prevAmount, newAmount);\n        assets[assetAddress].perShareAmount = newAmount;\n\n        if (totalSupply > 0) {\n            if (prevAmount > newAmount) {\n                treasury.sellAsset(assetAddress, diff * totalSupply);\n            } else if (prevAmount < newAmount) {\n                treasury.buyAsset(assetAddress, diff * totalSupply);\n            }\n        }\n    }\n\n    function absDiff(uint256 a, uint256 b) private pure returns (uint256) {\n        return a >= b ? a - b : b - a;\n    }\n\n    function updateMultipleAllocations(AssetAllocation[] memory newAllocations)\n        public\n        contracNotLocked\n        onlyApplicationOrManager\n    {\n        for (uint256 i = 0; i < newAllocations.length; i++) {\n            address assetAddress = newAllocations[i].assetAddress;\n            uint256 prevAmount = assets[assetAddress].perShareAmount;\n\n            if (prevAmount != newAllocations[i].perShareAmount) {\n                updateAllocation(\n                    assetAddress,\n                    newAllocations[i].perShareAmount\n                );\n            }\n        }\n    }\n\n    function updateWeight(address assetAddress, uint16 newWeight)\n        public\n        contracNotLocked\n        onlyManagers\n    {\n        assets[assetAddress].weight = newWeight;\n    }\n\n    function updateWeights(AssetWeight[] memory newAssetWeights)\n        public\n        contracNotLocked\n        onlyManagers\n    {\n        uint16 sum = 0;\n        for (uint256 i = 0; i < newAssetWeights.length; i++) {\n            sum += newAssetWeights[i].weight;\n        }\n        require(sum == 10000, \"Sum of weights has to be 10000.\");\n\n        for (uint256 i = 0; i < newAssetWeights.length; i++) {\n            updateWeight(\n                newAssetWeights[i].assetAddress,\n                newAssetWeights[i].weight\n            );\n        }\n    }\n\n    // ---------- TRADING  ----------\n\n    function getSharePrice() public view returns (uint256) {\n        uint256 sharePrice = 0;\n        for (uint256 i = 0; i < assetAddresses.length; i++) {\n            Asset memory asset = assets[assetAddresses[i]];\n            (uint256 assetPrice, ) = oracle.getPrice(asset.assetAddress);\n            uint256 price = (asset.perShareAmount * assetPrice) /\n                (10**asset.decimals);\n            sharePrice += price;\n        }\n        return sharePrice;\n    }\n\n    function buyShares(uint256 numShares)\n        public\n        payable\n        contracNotLocked\n        callermustBeUnlockedShareholder\n    {\n        uint256 price = getSharePrice();\n        uint256 commission = properties.commission;\n        uint256 cost = price * numShares + commission;\n        require(\n            cost <= msg.value,\n            \"Cost of shares is higher than transferred amount!\"\n        );\n        Trade memory trade = Trade(\n            TradeTypes.Buy,\n            numShares,\n            price,\n            block.timestamp\n        );\n        totalSupply += numShares;\n        balanceOf[msg.sender] += numShares;\n        shareholders[msg.sender].shares += numShares;\n        shareholders[msg.sender].tradeCount++;\n        trades[msg.sender].push(trade);\n        reserve.deposit{value: commission}();\n        buyAssets(numShares);\n        emit ShareBought(msg.sender, numShares);\n    }\n\n    function sellShares(uint256 numShares)\n        public\n        payable\n        contracNotLocked\n        callermustBeUnlockedShareholder\n        returns (uint256)\n    {\n        require(\n            balanceOf[msg.sender] >= numShares,\n            \"Insufficient number of shares!\"\n        );\n        uint256 commission = properties.commission;\n        uint256 price = getSharePrice();\n        uint256 cost = (price * numShares) - commission;\n        Trade memory trade = Trade(\n            TradeTypes.Sell,\n            numShares,\n            price,\n            block.timestamp\n        );\n        totalSupply -= numShares;\n        balanceOf[msg.sender] -= numShares;\n        shareholders[msg.sender].shares -= numShares;\n        shareholders[msg.sender].tradeCount++;\n        trades[msg.sender].push(trade);\n        reserve.deposit{value: commission}();\n\n        sellAssets(numShares);\n        treasury.withdraw(msg.sender, cost);\n        emit ShareSold(msg.sender, numShares);\n\n        return cost;\n    }\n\n    function buyAssets(uint256 amount) internal {\n        for (uint256 i = 0; i < assetAddresses.length; i++) {\n            Asset memory asset = assets[assetAddresses[i]];\n            (uint256 price, ) = oracle.getPrice(asset.assetAddress);\n            uint256 amountToMint = asset.perShareAmount * amount;\n            uint256 cost = (amountToMint * price) / (10**asset.decimals);\n            if (amountToMint > 0) {\n                treasury.buyAsset{value: cost}(\n                    asset.assetAddress,\n                    amountToMint\n                );\n            }\n        }\n    }\n\n    function sellAssets(uint256 amount) internal {\n        for (uint256 i = 0; i < assetAddresses.length; i++) {\n            Asset memory asset = assets[assetAddresses[i]];\n            uint256 amountToSell = (amount * asset.perShareAmount);\n            if (amountToSell > 0) {\n                treasury.sellAsset(asset.assetAddress, amountToSell);\n            }\n        }\n    }\n\n    function getFundValue() public view returns (uint256) {\n        uint256 sharePrice = getSharePrice();\n        return sharePrice * totalSupply;\n    }\n\n    receive() external payable {}\n}\n",
  "sourcePath": "/home/d4fttasiii/git/portfolium/src/fund-contract/contracts/Fund.sol",
  "compiler": {
    "name": "solc",
    "version": "0.8.16+commit.07a7930e.Emscripten.clang"
  },
  "schemaVersion": "3.4.9",
  "updatedAt": "2022-11-29T17:14:35.903Z",
  "devdoc": {
    "kind": "dev",
    "methods": {
      "approve(address,uint256)": {
        "params": {
          "delegate": "The address authorized to spend",
          "numTokens": "the max amount they can spend"
        }
      },
      "transfer(address,uint256)": {
        "params": {
          "amount": "the amount to send",
          "recipient": "The address of the recipient"
        }
      },
      "transferFrom(address,address,uint256)": {
        "params": {
          "amount": "the amount to send",
          "recipient": "The address of the recipient",
          "sender": "The address of the sender"
        }
      }
    },
    "version": 1
  },
  "userdoc": {
    "kind": "user",
    "methods": {
      "approve(address,uint256)": {
        "notice": "Set allowance for other address Allows `_spender` to spend no more than `_value` tokens in your behalf"
      },
      "transfer(address,uint256)": {
        "notice": "Transfer tokens Send `_value` tokens to `_to` from your account"
      },
      "transferFrom(address,address,uint256)": {
        "notice": "Transfer tokens from other address Send `_value` tokens to `_to` in behalf of `_from`"
      }
    },
    "version": 1
  }
}