{
  "contractName": "Mirrored",
  "abi": [
    {
      "inputs": [
        {
          "internalType": "contract Oracle",
          "name": "_oracle",
          "type": "address"
        },
        {
          "internalType": "contract Reserve",
          "name": "_reserve",
          "type": "address"
        },
        {
          "internalType": "uint256",
          "name": "_commission",
          "type": "uint256"
        },
        {
          "internalType": "string",
          "name": "_name",
          "type": "string"
        },
        {
          "internalType": "string",
          "name": "_symbol",
          "type": "string"
        },
        {
          "internalType": "uint8",
          "name": "_decimals",
          "type": "uint8"
        }
      ],
      "stateMutability": "nonpayable",
      "type": "constructor"
    },
    {
      "anonymous": false,
      "inputs": [
        {
          "indexed": true,
          "internalType": "address",
          "name": "owner",
          "type": "address"
        },
        {
          "indexed": true,
          "internalType": "address",
          "name": "spender",
          "type": "address"
        },
        {
          "indexed": false,
          "internalType": "uint256",
          "name": "value",
          "type": "uint256"
        }
      ],
      "name": "Approval",
      "type": "event"
    },
    {
      "anonymous": false,
      "inputs": [
        {
          "indexed": true,
          "internalType": "address",
          "name": "from",
          "type": "address"
        },
        {
          "indexed": true,
          "internalType": "address",
          "name": "to",
          "type": "address"
        },
        {
          "indexed": false,
          "internalType": "uint256",
          "name": "value",
          "type": "uint256"
        }
      ],
      "name": "Transfer",
      "type": "event"
    },
    {
      "inputs": [
        {
          "internalType": "address",
          "name": "",
          "type": "address"
        },
        {
          "internalType": "address",
          "name": "",
          "type": "address"
        }
      ],
      "name": "allowance",
      "outputs": [
        {
          "internalType": "uint256",
          "name": "",
          "type": "uint256"
        }
      ],
      "stateMutability": "view",
      "type": "function"
    },
    {
      "inputs": [
        {
          "internalType": "address",
          "name": "delegate",
          "type": "address"
        },
        {
          "internalType": "uint256",
          "name": "numTokens",
          "type": "uint256"
        }
      ],
      "name": "approve",
      "outputs": [
        {
          "internalType": "bool",
          "name": "",
          "type": "bool"
        }
      ],
      "stateMutability": "nonpayable",
      "type": "function"
    },
    {
      "inputs": [],
      "name": "assetDetails",
      "outputs": [
        {
          "internalType": "string",
          "name": "assetName",
          "type": "string"
        },
        {
          "internalType": "string",
          "name": "assetSymbol",
          "type": "string"
        },
        {
          "internalType": "uint8",
          "name": "decimals",
          "type": "uint8"
        }
      ],
      "stateMutability": "view",
      "type": "function"
    },
    {
      "inputs": [
        {
          "internalType": "address",
          "name": "",
          "type": "address"
        }
      ],
      "name": "balanceOf",
      "outputs": [
        {
          "internalType": "uint256",
          "name": "",
          "type": "uint256"
        }
      ],
      "stateMutability": "view",
      "type": "function"
    },
    {
      "inputs": [],
      "name": "commission",
      "outputs": [
        {
          "internalType": "uint256",
          "name": "",
          "type": "uint256"
        }
      ],
      "stateMutability": "view",
      "type": "function"
    },
    {
      "inputs": [],
      "name": "decimals",
      "outputs": [
        {
          "internalType": "uint8",
          "name": "",
          "type": "uint8"
        }
      ],
      "stateMutability": "view",
      "type": "function"
    },
    {
      "inputs": [],
      "name": "name",
      "outputs": [
        {
          "internalType": "string",
          "name": "",
          "type": "string"
        }
      ],
      "stateMutability": "view",
      "type": "function"
    },
    {
      "inputs": [],
      "name": "oracle",
      "outputs": [
        {
          "internalType": "contract Oracle",
          "name": "",
          "type": "address"
        }
      ],
      "stateMutability": "view",
      "type": "function"
    },
    {
      "inputs": [],
      "name": "ownerAddress",
      "outputs": [
        {
          "internalType": "address",
          "name": "",
          "type": "address"
        }
      ],
      "stateMutability": "view",
      "type": "function"
    },
    {
      "inputs": [],
      "name": "reserve",
      "outputs": [
        {
          "internalType": "contract Reserve",
          "name": "",
          "type": "address"
        }
      ],
      "stateMutability": "view",
      "type": "function"
    },
    {
      "inputs": [],
      "name": "symbol",
      "outputs": [
        {
          "internalType": "string",
          "name": "",
          "type": "string"
        }
      ],
      "stateMutability": "view",
      "type": "function"
    },
    {
      "inputs": [],
      "name": "totalSupply",
      "outputs": [
        {
          "internalType": "uint256",
          "name": "",
          "type": "uint256"
        }
      ],
      "stateMutability": "view",
      "type": "function"
    },
    {
      "inputs": [
        {
          "internalType": "address",
          "name": "recipient",
          "type": "address"
        },
        {
          "internalType": "uint256",
          "name": "amount",
          "type": "uint256"
        }
      ],
      "name": "transfer",
      "outputs": [
        {
          "internalType": "bool",
          "name": "",
          "type": "bool"
        }
      ],
      "stateMutability": "nonpayable",
      "type": "function"
    },
    {
      "inputs": [
        {
          "internalType": "address",
          "name": "sender",
          "type": "address"
        },
        {
          "internalType": "address",
          "name": "recipient",
          "type": "address"
        },
        {
          "internalType": "uint256",
          "name": "amount",
          "type": "uint256"
        }
      ],
      "name": "transferFrom",
      "outputs": [
        {
          "internalType": "bool",
          "name": "success",
          "type": "bool"
        }
      ],
      "stateMutability": "nonpayable",
      "type": "function"
    },
    {
      "inputs": [
        {
          "internalType": "uint256",
          "name": "newcommission",
          "type": "uint256"
        }
      ],
      "name": "updateCommission",
      "outputs": [],
      "stateMutability": "nonpayable",
      "type": "function"
    },
    {
      "inputs": [
        {
          "internalType": "uint256",
          "name": "amount",
          "type": "uint256"
        }
      ],
      "name": "mint",
      "outputs": [
        {
          "internalType": "uint256",
          "name": "",
          "type": "uint256"
        }
      ],
      "stateMutability": "payable",
      "type": "function"
    },
    {
      "inputs": [
        {
          "internalType": "uint256",
          "name": "amount",
          "type": "uint256"
        }
      ],
      "name": "burn",
      "outputs": [
        {
          "internalType": "uint256",
          "name": "",
          "type": "uint256"
        }
      ],
      "stateMutability": "payable",
      "type": "function"
    }
  ],
  "bytecode": "0x60806040523480156200001157600080fd5b506040516200243b3803806200243b83398181016040528101906200003791906200048a565b33600760006101000a81548173ffffffffffffffffffffffffffffffffffffffff021916908373ffffffffffffffffffffffffffffffffffffffff16021790555085600b60006101000a81548173ffffffffffffffffffffffffffffffffffffffff021916908373ffffffffffffffffffffffffffffffffffffffff16021790555084600c60006101000a81548173ffffffffffffffffffffffffffffffffffffffff021916908373ffffffffffffffffffffffffffffffffffffffff160217905550836006819055508260009081620001129190620007a5565b508160019081620001249190620007a5565b5080600260006101000a81548160ff021916908360ff16021790555060405180606001604052808481526020018381526020018260ff1681525060086000820151816000019081620001779190620007a5565b5060208201518160010190816200018f9190620007a5565b5060408201518160020160006101000a81548160ff021916908360ff1602179055509050505050505050506200088c565b6000604051905090565b600080fd5b600080fd5b600073ffffffffffffffffffffffffffffffffffffffff82169050919050565b60006200020182620001d4565b9050919050565b60006200021582620001f4565b9050919050565b620002278162000208565b81146200023357600080fd5b50565b60008151905062000247816200021c565b92915050565b60006200025a82620001f4565b9050919050565b6200026c816200024d565b81146200027857600080fd5b50565b6000815190506200028c8162000261565b92915050565b6000819050919050565b620002a78162000292565b8114620002b357600080fd5b50565b600081519050620002c7816200029c565b92915050565b600080fd5b600080fd5b6000601f19601f8301169050919050565b7f4e487b7100000000000000000000000000000000000000000000000000000000600052604160045260246000fd5b6200032282620002d7565b810181811067ffffffffffffffff82111715620003445762000343620002e8565b5b80604052505050565b600062000359620001c0565b905062000367828262000317565b919050565b600067ffffffffffffffff8211156200038a5762000389620002e8565b5b6200039582620002d7565b9050602081019050919050565b60005b83811015620003c2578082015181840152602081019050620003a5565b60008484015250505050565b6000620003e5620003df846200036c565b6200034d565b905082815260208101848484011115620004045762000403620002d2565b5b62000411848285620003a2565b509392505050565b600082601f830112620004315762000430620002cd565b5b815162000443848260208601620003ce565b91505092915050565b600060ff82169050919050565b62000464816200044c565b81146200047057600080fd5b50565b600081519050620004848162000459565b92915050565b60008060008060008060c08789031215620004aa57620004a9620001ca565b5b6000620004ba89828a0162000236565b9650506020620004cd89828a016200027b565b9550506040620004e089828a01620002b6565b945050606087015167ffffffffffffffff811115620005045762000503620001cf565b5b6200051289828a0162000419565b935050608087015167ffffffffffffffff811115620005365762000535620001cf565b5b6200054489828a0162000419565b92505060a06200055789828a0162000473565b9150509295509295509295565b600081519050919050565b7f4e487b7100000000000000000000000000000000000000000000000000000000600052602260045260246000fd5b60006002820490506001821680620005b757607f821691505b602082108103620005cd57620005cc6200056f565b5b50919050565b60008190508160005260206000209050919050565b60006020601f8301049050919050565b600082821b905092915050565b600060088302620006377fffffffffffffffffffffffffffffffffffffffffffffffffffffffffffffffff82620005f8565b620006438683620005f8565b95508019841693508086168417925050509392505050565b6000819050919050565b600062000686620006806200067a8462000292565b6200065b565b62000292565b9050919050565b6000819050919050565b620006a28362000665565b620006ba620006b1826200068d565b84845462000605565b825550505050565b600090565b620006d1620006c2565b620006de81848462000697565b505050565b5b818110156200070657620006fa600082620006c7565b600181019050620006e4565b5050565b601f82111562000755576200071f81620005d3565b6200072a84620005e8565b810160208510156200073a578190505b620007526200074985620005e8565b830182620006e3565b50505b505050565b600082821c905092915050565b60006200077a600019846008026200075a565b1980831691505092915050565b600062000795838362000767565b9150826002028217905092915050565b620007b08262000564565b67ffffffffffffffff811115620007cc57620007cb620002e8565b5b620007d882546200059e565b620007e58282856200070a565b600060209050601f8311600181146200081d576000841562000808578287015190505b62000814858262000787565b86555062000884565b601f1984166200082d86620005d3565b60005b82811015620008575784890151825560018201915060208501945060208101905062000830565b8683101562000877578489015162000873601f89168262000767565b8355505b6001600288020188555050505b505050505050565b611b9f806200089c6000396000f3fe6080604052600436106100fe5760003560e01c80638c40507111610095578063a0712d6811610064578063a0712d6814610342578063a9059cbb14610372578063cd3293de146103af578063dd62ed3e146103da578063e148919114610417576100fe565b80638c405071146102965780638f84aa09146102c357806395d89b41146102ee5780639d55fba714610319576100fe565b8063313ce567116100d1578063313ce567146101d357806342966c68146101fe57806370a082311461022e5780637dc0d1d01461026b576100fe565b806306fdde0314610103578063095ea7b31461012e57806318160ddd1461016b57806323b872dd14610196575b600080fd5b34801561010f57600080fd5b50610118610442565b6040516101259190611412565b60405180910390f35b34801561013a57600080fd5b50610155600480360381019061015091906114cd565b6104d0565b6040516101629190611528565b60405180910390f35b34801561017757600080fd5b506101806105c2565b60405161018d9190611552565b60405180910390f35b3480156101a257600080fd5b506101bd60048036038101906101b8919061156d565b6105c8565b6040516101ca9190611528565b60405180910390f35b3480156101df57600080fd5b506101e86106fc565b6040516101f591906115dc565b60405180910390f35b610218600480360381019061021391906115f7565b61070f565b6040516102259190611552565b60405180910390f35b34801561023a57600080fd5b5061025560048036038101906102509190611624565b610a4b565b6040516102629190611552565b60405180910390f35b34801561027757600080fd5b50610280610a63565b60405161028d91906116b0565b60405180910390f35b3480156102a257600080fd5b506102ab610a89565b6040516102ba939291906116cb565b60405180910390f35b3480156102cf57600080fd5b506102d8610bbe565b6040516102e5919061171f565b60405180910390f35b3480156102fa57600080fd5b50610303610be4565b6040516103109190611412565b60405180910390f35b34801561032557600080fd5b50610340600480360381019061033b91906115f7565b610c72565b005b61035c600480360381019061035791906115f7565b610c84565b6040516103699190611552565b60405180910390f35b34801561037e57600080fd5b50610399600480360381019061039491906114cd565b610f30565b6040516103a69190611528565b60405180910390f35b3480156103bb57600080fd5b506103c4610f47565b6040516103d1919061175b565b60405180910390f35b3480156103e657600080fd5b5061040160048036038101906103fc9190611776565b610f6d565b60405161040e9190611552565b60405180910390f35b34801561042357600080fd5b5061042c610f92565b6040516104399190611552565b60405180910390f35b6000805461044f906117e5565b80601f016020809104026020016040519081016040528092919081815260200182805461047b906117e5565b80156104c85780601f1061049d576101008083540402835291602001916104c8565b820191906000526020600020905b8154815290600101906020018083116104ab57829003601f168201915b505050505081565b600081600560003373ffffffffffffffffffffffffffffffffffffffff1673ffffffffffffffffffffffffffffffffffffffff16815260200190815260200160002060008573ffffffffffffffffffffffffffffffffffffffff1673ffffffffffffffffffffffffffffffffffffffff168152602001908152602001600020819055508273ffffffffffffffffffffffffffffffffffffffff163373ffffffffffffffffffffffffffffffffffffffff167f8c5be1e5ebec7d5bd14f71427d1e84f3dd0314c0f7b2291e5b200ac8c7c3b925846040516105b09190611552565b60405180910390a36001905092915050565b60035481565b6000600560008573ffffffffffffffffffffffffffffffffffffffff1673ffffffffffffffffffffffffffffffffffffffff16815260200190815260200160002060003373ffffffffffffffffffffffffffffffffffffffff1673ffffffffffffffffffffffffffffffffffffffff1681526020019081526020016000205482111561065357600080fd5b81600560008673ffffffffffffffffffffffffffffffffffffffff1673ffffffffffffffffffffffffffffffffffffffff16815260200190815260200160002060003373ffffffffffffffffffffffffffffffffffffffff1673ffffffffffffffffffffffffffffffffffffffff16815260200190815260200160002060008282546106df9190611845565b925050819055506106f1848484610f98565b600190509392505050565b600260009054906101000a900460ff1681565b600081600460003373ffffffffffffffffffffffffffffffffffffffff1673ffffffffffffffffffffffffffffffffffffffff168152602001908152602001600020541015610793576040517f08c379a000000000000000000000000000000000000000000000000000000000815260040161078a906118c5565b60405180910390fd5b6000600b60009054906101000a900473ffffffffffffffffffffffffffffffffffffffff1673ffffffffffffffffffffffffffffffffffffffff166396b7bab630856040518363ffffffff1660e01b81526004016107f29291906118e5565b602060405180830381865afa15801561080f573d6000803e3d6000fd5b505050506040513d601f19601f820116820180604052508101906108339190611923565b90506006548111610879576040517f08c379a0000000000000000000000000000000000000000000000000000000008152600401610870906119c2565b60405180910390fd5b826003600082825461088b9190611845565b9250508190555082600460003373ffffffffffffffffffffffffffffffffffffffff1673ffffffffffffffffffffffffffffffffffffffff16815260200190815260200160002060008282546108e19190611845565b92505081905550600c60009054906101000a900473ffffffffffffffffffffffffffffffffffffffff1673ffffffffffffffffffffffffffffffffffffffff1663f3fef3a333836040518363ffffffff1660e01b81526004016109459291906118e5565b600060405180830381600087803b15801561095f57600080fd5b505af1158015610973573d6000803e3d6000fd5b505050503073ffffffffffffffffffffffffffffffffffffffff163373ffffffffffffffffffffffffffffffffffffffff167fddf252ad1be2c89b69c2b068fc378daa952ba7f163c4a11628f55a4df523b3ef856040516109d49190611552565b60405180910390a3600073ffffffffffffffffffffffffffffffffffffffff163073ffffffffffffffffffffffffffffffffffffffff167fddf252ad1be2c89b69c2b068fc378daa952ba7f163c4a11628f55a4df523b3ef85604051610a3a9190611552565b60405180910390a380915050919050565b60046020528060005260406000206000915090505481565b600b60009054906101000a900473ffffffffffffffffffffffffffffffffffffffff1681565b6008806000018054610a9a906117e5565b80601f0160208091040260200160405190810160405280929190818152602001828054610ac6906117e5565b8015610b135780601f10610ae857610100808354040283529160200191610b13565b820191906000526020600020905b815481529060010190602001808311610af657829003601f168201915b505050505090806001018054610b28906117e5565b80601f0160208091040260200160405190810160405280929190818152602001828054610b54906117e5565b8015610ba15780601f10610b7657610100808354040283529160200191610ba1565b820191906000526020600020905b815481529060010190602001808311610b8457829003601f168201915b5050505050908060020160009054906101000a900460ff16905083565b600760009054906101000a900473ffffffffffffffffffffffffffffffffffffffff1681565b60018054610bf1906117e5565b80601f0160208091040260200160405190810160405280929190818152602001828054610c1d906117e5565b8015610c6a5780601f10610c3f57610100808354040283529160200191610c6a565b820191906000526020600020905b815481529060010190602001808311610c4d57829003601f168201915b505050505081565b610c7a6112f0565b8060068190555050565b600080600b60009054906101000a900473ffffffffffffffffffffffffffffffffffffffff1673ffffffffffffffffffffffffffffffffffffffff16630f105fe130856040518363ffffffff1660e01b8152600401610ce49291906118e5565b602060405180830381865afa158015610d01573d6000803e3d6000fd5b505050506040513d601f19601f82011682018060405250810190610d259190611923565b905034811115610d6a576040517f08c379a0000000000000000000000000000000000000000000000000000000008152600401610d6190611a54565b60405180910390fd5b8260036000828254610d7c9190611a74565b9250508190555082600460003373ffffffffffffffffffffffffffffffffffffffff1673ffffffffffffffffffffffffffffffffffffffff1681526020019081526020016000206000828254610dd29190611a74565b92505081905550600c60009054906101000a900473ffffffffffffffffffffffffffffffffffffffff1673ffffffffffffffffffffffffffffffffffffffff1663d0e30db0346040518263ffffffff1660e01b81526004016000604051808303818588803b158015610e4357600080fd5b505af1158015610e57573d6000803e3d6000fd5b50505050503073ffffffffffffffffffffffffffffffffffffffff16600073ffffffffffffffffffffffffffffffffffffffff167fddf252ad1be2c89b69c2b068fc378daa952ba7f163c4a11628f55a4df523b3ef85604051610eba9190611552565b60405180910390a33373ffffffffffffffffffffffffffffffffffffffff163073ffffffffffffffffffffffffffffffffffffffff167fddf252ad1be2c89b69c2b068fc378daa952ba7f163c4a11628f55a4df523b3ef85604051610f1f9190611552565b60405180910390a380915050919050565b6000610f3d338484610f98565b6001905092915050565b600c60009054906101000a900473ffffffffffffffffffffffffffffffffffffffff1681565b6005602052816000526040600020602052806000526040600020600091509150505481565b60065481565b600073ffffffffffffffffffffffffffffffffffffffff168273ffffffffffffffffffffffffffffffffffffffff1603610fd157600080fd5b80600460008573ffffffffffffffffffffffffffffffffffffffff1673ffffffffffffffffffffffffffffffffffffffff16815260200190815260200160002054101561101d57600080fd5b600460008373ffffffffffffffffffffffffffffffffffffffff1673ffffffffffffffffffffffffffffffffffffffff1681526020019081526020016000205481600460008573ffffffffffffffffffffffffffffffffffffffff1673ffffffffffffffffffffffffffffffffffffffff168152602001908152602001600020546110a89190611a74565b116110b257600080fd5b6000600460008473ffffffffffffffffffffffffffffffffffffffff1673ffffffffffffffffffffffffffffffffffffffff16815260200190815260200160002054600460008673ffffffffffffffffffffffffffffffffffffffff1673ffffffffffffffffffffffffffffffffffffffff1681526020019081526020016000205461113e9190611a74565b905081600460008673ffffffffffffffffffffffffffffffffffffffff1673ffffffffffffffffffffffffffffffffffffffff168152602001908152602001600020600082825461118f9190611845565b9250508190555081600460008573ffffffffffffffffffffffffffffffffffffffff1673ffffffffffffffffffffffffffffffffffffffff16815260200190815260200160002060008282546111e59190611a74565b925050819055508273ffffffffffffffffffffffffffffffffffffffff168473ffffffffffffffffffffffffffffffffffffffff167fddf252ad1be2c89b69c2b068fc378daa952ba7f163c4a11628f55a4df523b3ef846040516112499190611552565b60405180910390a380600460008573ffffffffffffffffffffffffffffffffffffffff1673ffffffffffffffffffffffffffffffffffffffff16815260200190815260200160002054600460008773ffffffffffffffffffffffffffffffffffffffff1673ffffffffffffffffffffffffffffffffffffffff168152602001908152602001600020546112dc9190611a74565b146112ea576112e9611aa8565b5b50505050565b600760009054906101000a900473ffffffffffffffffffffffffffffffffffffffff1673ffffffffffffffffffffffffffffffffffffffff163373ffffffffffffffffffffffffffffffffffffffff1614611380576040517f08c379a000000000000000000000000000000000000000000000000000000000815260040161137790611b49565b60405180910390fd5b565b600081519050919050565b600082825260208201905092915050565b60005b838110156113bc5780820151818401526020810190506113a1565b60008484015250505050565b6000601f19601f8301169050919050565b60006113e482611382565b6113ee818561138d565b93506113fe81856020860161139e565b611407816113c8565b840191505092915050565b6000602082019050818103600083015261142c81846113d9565b905092915050565b600080fd5b600073ffffffffffffffffffffffffffffffffffffffff82169050919050565b600061146482611439565b9050919050565b61147481611459565b811461147f57600080fd5b50565b6000813590506114918161146b565b92915050565b6000819050919050565b6114aa81611497565b81146114b557600080fd5b50565b6000813590506114c7816114a1565b92915050565b600080604083850312156114e4576114e3611434565b5b60006114f285828601611482565b9250506020611503858286016114b8565b9150509250929050565b60008115159050919050565b6115228161150d565b82525050565b600060208201905061153d6000830184611519565b92915050565b61154c81611497565b82525050565b60006020820190506115676000830184611543565b92915050565b60008060006060848603121561158657611585611434565b5b600061159486828701611482565b93505060206115a586828701611482565b92505060406115b6868287016114b8565b9150509250925092565b600060ff82169050919050565b6115d6816115c0565b82525050565b60006020820190506115f160008301846115cd565b92915050565b60006020828403121561160d5761160c611434565b5b600061161b848285016114b8565b91505092915050565b60006020828403121561163a57611639611434565b5b600061164884828501611482565b91505092915050565b6000819050919050565b600061167661167161166c84611439565b611651565b611439565b9050919050565b60006116888261165b565b9050919050565b600061169a8261167d565b9050919050565b6116aa8161168f565b82525050565b60006020820190506116c560008301846116a1565b92915050565b600060608201905081810360008301526116e581866113d9565b905081810360208301526116f981856113d9565b905061170860408301846115cd565b949350505050565b61171981611459565b82525050565b60006020820190506117346000830184611710565b92915050565b60006117458261167d565b9050919050565b6117558161173a565b82525050565b6000602082019050611770600083018461174c565b92915050565b6000806040838503121561178d5761178c611434565b5b600061179b85828601611482565b92505060206117ac85828601611482565b9150509250929050565b7f4e487b7100000000000000000000000000000000000000000000000000000000600052602260045260246000fd5b600060028204905060018216806117fd57607f821691505b6020821081036118105761180f6117b6565b5b50919050565b7f4e487b7100000000000000000000000000000000000000000000000000000000600052601160045260246000fd5b600061185082611497565b915061185b83611497565b925082820390508181111561187357611872611816565b5b92915050565b7f4d75737420686176652073756666696369656e742062616c616e636500000000600082015250565b60006118af601c8361138d565b91506118ba82611879565b602082019050919050565b600060208201905081810360008301526118de816118a2565b9050919050565b60006040820190506118fa6000830185611710565b6119076020830184611543565b9392505050565b60008151905061191d816114a1565b92915050565b60006020828403121561193957611938611434565b5b60006119478482850161190e565b91505092915050565b7f636f6d6d697373696f6e2070726963652065786365656473207769746864726160008201527f77616c20616d6f756e7421000000000000000000000000000000000000000000602082015250565b60006119ac602b8361138d565b91506119b782611950565b604082019050919050565b600060208201905081810360008301526119db8161199f565b9050919050565b7f556e61626c6520746f206d696e7420696e73756666696369656e7420616d6f7560008201527f6e74207472616e73666572726564210000000000000000000000000000000000602082015250565b6000611a3e602f8361138d565b9150611a49826119e2565b604082019050919050565b60006020820190508181036000830152611a6d81611a31565b9050919050565b6000611a7f82611497565b9150611a8a83611497565b9250828201905080821115611aa257611aa1611816565b5b92915050565b7f4e487b7100000000000000000000000000000000000000000000000000000000600052600160045260246000fd5b7f43616c6c6572206d7573742062652074686520636f6e7472616374206f776e6560008201527f7221000000000000000000000000000000000000000000000000000000000000602082015250565b6000611b3360228361138d565b9150611b3e82611ad7565b604082019050919050565b60006020820190508181036000830152611b6281611b26565b905091905056fea264697066735822122093705449611aa70080baf32d954b5a40af61f72c1e2de8a168a1ba506a709e0864736f6c63430008100033",
  "immutableReferences": {},
  "source": "pragma solidity ^0.8.16;\n\nimport \"./TokenERC20.sol\";\nimport \"./Reserve.sol\";\nimport \"./Oracle.sol\";\n\ncontract Mirrored is TokenERC20 {\n    struct AssetDetails {\n        string assetName;\n        string assetSymbol;\n        uint8 decimals;\n    }\n\n    uint256 public commission;\n    address public ownerAddress;\n    AssetDetails public assetDetails;\n    Oracle public oracle;\n    Reserve public reserve;\n\n    constructor(\n        Oracle _oracle,\n        Reserve _reserve,\n        uint256 _commission,\n        string memory _name,\n        string memory _symbol,\n        uint8 _decimals\n    ) {\n        ownerAddress = msg.sender;\n        oracle = _oracle;\n        reserve = _reserve;\n        commission = _commission;\n        name = _name;\n        symbol = _symbol;\n        decimals = _decimals;\n        assetDetails = AssetDetails(_name, _symbol, _decimals);\n    }\n\n    function _onlyOwner() private view {\n        require(\n            msg.sender == ownerAddress,\n            \"Caller must be the contract owner!\"\n        );\n    }\n\n    modifier onlyOwner() {\n        _onlyOwner();\n        _;\n    }\n\n    function updateCommission(uint256 newcommission) external onlyOwner {\n        commission = newcommission;\n    }\n\n    function mint(uint256 amount) external payable returns (uint256) {\n        uint256 cost = oracle.getBuyingCost(address(this), amount);\n        require(\n            cost <= msg.value,\n            \"Unable to mint insufficient amount transferred!\"\n        );\n\n        totalSupply += amount;\n        balanceOf[msg.sender] += amount;\n        reserve.deposit{value: msg.value}();\n        emit Transfer(address(0), address(this), amount);\n        emit Transfer(address(this), msg.sender, amount);\n\n        return cost;\n    }\n\n    function burn(uint256 amount) external payable returns (uint256) {\n        require(\n            balanceOf[msg.sender] >= amount,\n            \"Must have sufficient balance\"\n        );\n\n        uint256 withdrawalAmount = oracle.getPayoutAmount(\n            address(this),\n            amount\n        );\n\n        require(\n            withdrawalAmount > commission,\n            \"commission price exceeds withdrawal amount!\"\n        );\n\n        totalSupply -= amount;\n        balanceOf[msg.sender] -= amount;\n        reserve.withdraw(msg.sender, withdrawalAmount);\n        emit Transfer(msg.sender, address(this), amount);\n        emit Transfer(address(this), address(0), amount);\n\n        return withdrawalAmount;\n    }\n}\n",
  "sourcePath": "/home/d4fttasiii/git/portfolium/src/fund-contract/contracts/Mirrored.sol",
  "compiler": {
    "name": "solc",
    "version": "0.8.16+commit.07a7930e.Emscripten.clang"
  },
  "schemaVersion": "3.4.9",
  "updatedAt": "2022-12-09T15:19:24.997Z",
  "devdoc": {
    "kind": "dev",
    "methods": {
      "approve(address,uint256)": {
        "params": {
          "delegate": "The address authorized to spend",
          "numTokens": "the max amount they can spend"
        }
      },
      "transfer(address,uint256)": {
        "params": {
          "amount": "the amount to send",
          "recipient": "The address of the recipient"
        }
      },
      "transferFrom(address,address,uint256)": {
        "params": {
          "amount": "the amount to send",
          "recipient": "The address of the recipient",
          "sender": "The address of the sender"
        }
      }
    },
    "version": 1
  },
  "userdoc": {
    "kind": "user",
    "methods": {
      "approve(address,uint256)": {
        "notice": "Set allowance for other address Allows `_spender` to spend no more than `_value` tokens in your behalf"
      },
      "transfer(address,uint256)": {
        "notice": "Transfer tokens Send `_value` tokens to `_to` from your account"
      },
      "transferFrom(address,address,uint256)": {
        "notice": "Transfer tokens from other address Send `_value` tokens to `_to` in behalf of `_from`"
      }
    },
    "version": 1
  }
}