{
  "contractName": "Mirrored",
  "abi": [
    {
      "inputs": [
        {
          "internalType": "contract Oracle",
          "name": "_oracle",
          "type": "address"
        },
        {
          "internalType": "contract Reserve",
          "name": "_reserve",
          "type": "address"
        },
        {
          "internalType": "uint256",
          "name": "_commission",
          "type": "uint256"
        },
        {
          "internalType": "string",
          "name": "_name",
          "type": "string"
        },
        {
          "internalType": "string",
          "name": "_symbol",
          "type": "string"
        },
        {
          "internalType": "uint8",
          "name": "_decimals",
          "type": "uint8"
        }
      ],
      "stateMutability": "nonpayable",
      "type": "constructor"
    },
    {
      "anonymous": false,
      "inputs": [
        {
          "indexed": true,
          "internalType": "address",
          "name": "owner",
          "type": "address"
        },
        {
          "indexed": true,
          "internalType": "address",
          "name": "spender",
          "type": "address"
        },
        {
          "indexed": false,
          "internalType": "uint256",
          "name": "value",
          "type": "uint256"
        }
      ],
      "name": "Approval",
      "type": "event"
    },
    {
      "anonymous": false,
      "inputs": [
        {
          "indexed": true,
          "internalType": "address",
          "name": "from",
          "type": "address"
        },
        {
          "indexed": true,
          "internalType": "address",
          "name": "to",
          "type": "address"
        },
        {
          "indexed": false,
          "internalType": "uint256",
          "name": "value",
          "type": "uint256"
        }
      ],
      "name": "Transfer",
      "type": "event"
    },
    {
      "inputs": [
        {
          "internalType": "address",
          "name": "",
          "type": "address"
        },
        {
          "internalType": "address",
          "name": "",
          "type": "address"
        }
      ],
      "name": "allowance",
      "outputs": [
        {
          "internalType": "uint256",
          "name": "",
          "type": "uint256"
        }
      ],
      "stateMutability": "view",
      "type": "function"
    },
    {
      "inputs": [
        {
          "internalType": "address",
          "name": "delegate",
          "type": "address"
        },
        {
          "internalType": "uint256",
          "name": "numTokens",
          "type": "uint256"
        }
      ],
      "name": "approve",
      "outputs": [
        {
          "internalType": "bool",
          "name": "",
          "type": "bool"
        }
      ],
      "stateMutability": "nonpayable",
      "type": "function"
    },
    {
      "inputs": [],
      "name": "assetDetails",
      "outputs": [
        {
          "internalType": "string",
          "name": "assetName",
          "type": "string"
        },
        {
          "internalType": "string",
          "name": "assetSymbol",
          "type": "string"
        },
        {
          "internalType": "uint8",
          "name": "decimals",
          "type": "uint8"
        }
      ],
      "stateMutability": "view",
      "type": "function"
    },
    {
      "inputs": [
        {
          "internalType": "address",
          "name": "",
          "type": "address"
        }
      ],
      "name": "balanceOf",
      "outputs": [
        {
          "internalType": "uint256",
          "name": "",
          "type": "uint256"
        }
      ],
      "stateMutability": "view",
      "type": "function"
    },
    {
      "inputs": [],
      "name": "commission",
      "outputs": [
        {
          "internalType": "uint256",
          "name": "",
          "type": "uint256"
        }
      ],
      "stateMutability": "view",
      "type": "function"
    },
    {
      "inputs": [],
      "name": "decimals",
      "outputs": [
        {
          "internalType": "uint8",
          "name": "",
          "type": "uint8"
        }
      ],
      "stateMutability": "view",
      "type": "function"
    },
    {
      "inputs": [],
      "name": "name",
      "outputs": [
        {
          "internalType": "string",
          "name": "",
          "type": "string"
        }
      ],
      "stateMutability": "view",
      "type": "function"
    },
    {
      "inputs": [],
      "name": "oracle",
      "outputs": [
        {
          "internalType": "contract Oracle",
          "name": "",
          "type": "address"
        }
      ],
      "stateMutability": "view",
      "type": "function"
    },
    {
      "inputs": [],
      "name": "ownerAddress",
      "outputs": [
        {
          "internalType": "address",
          "name": "",
          "type": "address"
        }
      ],
      "stateMutability": "view",
      "type": "function"
    },
    {
      "inputs": [],
      "name": "reserve",
      "outputs": [
        {
          "internalType": "contract Reserve",
          "name": "",
          "type": "address"
        }
      ],
      "stateMutability": "view",
      "type": "function"
    },
    {
      "inputs": [],
      "name": "symbol",
      "outputs": [
        {
          "internalType": "string",
          "name": "",
          "type": "string"
        }
      ],
      "stateMutability": "view",
      "type": "function"
    },
    {
      "inputs": [],
      "name": "totalSupply",
      "outputs": [
        {
          "internalType": "uint256",
          "name": "",
          "type": "uint256"
        }
      ],
      "stateMutability": "view",
      "type": "function"
    },
    {
      "inputs": [
        {
          "internalType": "address",
          "name": "recipient",
          "type": "address"
        },
        {
          "internalType": "uint256",
          "name": "amount",
          "type": "uint256"
        }
      ],
      "name": "transfer",
      "outputs": [
        {
          "internalType": "bool",
          "name": "",
          "type": "bool"
        }
      ],
      "stateMutability": "nonpayable",
      "type": "function"
    },
    {
      "inputs": [
        {
          "internalType": "address",
          "name": "sender",
          "type": "address"
        },
        {
          "internalType": "address",
          "name": "recipient",
          "type": "address"
        },
        {
          "internalType": "uint256",
          "name": "amount",
          "type": "uint256"
        }
      ],
      "name": "transferFrom",
      "outputs": [
        {
          "internalType": "bool",
          "name": "success",
          "type": "bool"
        }
      ],
      "stateMutability": "nonpayable",
      "type": "function"
    },
    {
      "inputs": [
        {
          "internalType": "uint256",
          "name": "newcommission",
          "type": "uint256"
        }
      ],
      "name": "updatecommission",
      "outputs": [],
      "stateMutability": "nonpayable",
      "type": "function"
    },
    {
      "inputs": [
        {
          "internalType": "uint256",
          "name": "amount",
          "type": "uint256"
        }
      ],
      "name": "mint",
      "outputs": [],
      "stateMutability": "payable",
      "type": "function"
    },
    {
      "inputs": [
        {
          "internalType": "uint256",
          "name": "amount",
          "type": "uint256"
        }
      ],
      "name": "burn",
      "outputs": [
        {
          "internalType": "uint256",
          "name": "",
          "type": "uint256"
        }
      ],
      "stateMutability": "payable",
      "type": "function"
    }
  ],
  "bytecode": "0x60806040523480156200001157600080fd5b50604051620026ca380380620026ca83398181016040528101906200003791906200048a565b33600760006101000a81548173ffffffffffffffffffffffffffffffffffffffff021916908373ffffffffffffffffffffffffffffffffffffffff16021790555085600b60006101000a81548173ffffffffffffffffffffffffffffffffffffffff021916908373ffffffffffffffffffffffffffffffffffffffff16021790555084600c60006101000a81548173ffffffffffffffffffffffffffffffffffffffff021916908373ffffffffffffffffffffffffffffffffffffffff160217905550836006819055508260009081620001129190620007a5565b508160019081620001249190620007a5565b5080600260006101000a81548160ff021916908360ff16021790555060405180606001604052808481526020018381526020018260ff1681525060086000820151816000019081620001779190620007a5565b5060208201518160010190816200018f9190620007a5565b5060408201518160020160006101000a81548160ff021916908360ff1602179055509050505050505050506200088c565b6000604051905090565b600080fd5b600080fd5b600073ffffffffffffffffffffffffffffffffffffffff82169050919050565b60006200020182620001d4565b9050919050565b60006200021582620001f4565b9050919050565b620002278162000208565b81146200023357600080fd5b50565b60008151905062000247816200021c565b92915050565b60006200025a82620001f4565b9050919050565b6200026c816200024d565b81146200027857600080fd5b50565b6000815190506200028c8162000261565b92915050565b6000819050919050565b620002a78162000292565b8114620002b357600080fd5b50565b600081519050620002c7816200029c565b92915050565b600080fd5b600080fd5b6000601f19601f8301169050919050565b7f4e487b7100000000000000000000000000000000000000000000000000000000600052604160045260246000fd5b6200032282620002d7565b810181811067ffffffffffffffff82111715620003445762000343620002e8565b5b80604052505050565b600062000359620001c0565b905062000367828262000317565b919050565b600067ffffffffffffffff8211156200038a5762000389620002e8565b5b6200039582620002d7565b9050602081019050919050565b60005b83811015620003c2578082015181840152602081019050620003a5565b60008484015250505050565b6000620003e5620003df846200036c565b6200034d565b905082815260208101848484011115620004045762000403620002d2565b5b62000411848285620003a2565b509392505050565b600082601f830112620004315762000430620002cd565b5b815162000443848260208601620003ce565b91505092915050565b600060ff82169050919050565b62000464816200044c565b81146200047057600080fd5b50565b600081519050620004848162000459565b92915050565b60008060008060008060c08789031215620004aa57620004a9620001ca565b5b6000620004ba89828a0162000236565b9650506020620004cd89828a016200027b565b9550506040620004e089828a01620002b6565b945050606087015167ffffffffffffffff811115620005045762000503620001cf565b5b6200051289828a0162000419565b935050608087015167ffffffffffffffff811115620005365762000535620001cf565b5b6200054489828a0162000419565b92505060a06200055789828a0162000473565b9150509295509295509295565b600081519050919050565b7f4e487b7100000000000000000000000000000000000000000000000000000000600052602260045260246000fd5b60006002820490506001821680620005b757607f821691505b602082108103620005cd57620005cc6200056f565b5b50919050565b60008190508160005260206000209050919050565b60006020601f8301049050919050565b600082821b905092915050565b600060088302620006377fffffffffffffffffffffffffffffffffffffffffffffffffffffffffffffffff82620005f8565b620006438683620005f8565b95508019841693508086168417925050509392505050565b6000819050919050565b600062000686620006806200067a8462000292565b6200065b565b62000292565b9050919050565b6000819050919050565b620006a28362000665565b620006ba620006b1826200068d565b84845462000605565b825550505050565b600090565b620006d1620006c2565b620006de81848462000697565b505050565b5b818110156200070657620006fa600082620006c7565b600181019050620006e4565b5050565b601f82111562000755576200071f81620005d3565b6200072a84620005e8565b810160208510156200073a578190505b620007526200074985620005e8565b830182620006e3565b50505b505050565b600082821c905092915050565b60006200077a600019846008026200075a565b1980831691505092915050565b600062000795838362000767565b9150826002028217905092915050565b620007b08262000564565b67ffffffffffffffff811115620007cc57620007cb620002e8565b5b620007d882546200059e565b620007e58282856200070a565b600060209050601f8311600181146200081d576000841562000808578287015190505b62000814858262000787565b86555062000884565b601f1984166200082d86620005d3565b60005b82811015620008575784890151825560018201915060208501945060208101905062000830565b8683101562000877578489015162000873601f89168262000767565b8355505b6001600288020188555050505b505050505050565b611e2e806200089c6000396000f3fe6080604052600436106100fe5760003560e01c80637dc0d1d011610095578063a0712d6811610064578063a0712d6814610342578063a9059cbb1461035e578063cd3293de1461039b578063dd62ed3e146103c6578063e148919114610403576100fe565b80637dc0d1d0146102945780638c405071146102bf5780638f84aa09146102ec57806395d89b4114610317576100fe565b806323b872dd116100d157806323b872dd146101bf578063313ce567146101fc57806342966c681461022757806370a0823114610257576100fe565b806306fdde0314610103578063095ea7b31461012e5780630baad6f71461016b57806318160ddd14610194575b600080fd5b34801561010f57600080fd5b5061011861042e565b604051610125919061147c565b60405180910390f35b34801561013a57600080fd5b5061015560048036038101906101509190611537565b6104bc565b6040516101629190611592565b60405180910390f35b34801561017757600080fd5b50610192600480360381019061018d91906115ad565b6105ae565b005b3480156101a057600080fd5b506101a96105c0565b6040516101b691906115e9565b60405180910390f35b3480156101cb57600080fd5b506101e660048036038101906101e19190611604565b6105c6565b6040516101f39190611592565b60405180910390f35b34801561020857600080fd5b506102116106fa565b60405161021e9190611673565b60405180910390f35b610241600480360381019061023c91906115ad565b61070d565b60405161024e91906115e9565b60405180910390f35b34801561026357600080fd5b5061027e6004803603810190610279919061168e565b610a8b565b60405161028b91906115e9565b60405180910390f35b3480156102a057600080fd5b506102a9610aa3565b6040516102b6919061171a565b60405180910390f35b3480156102cb57600080fd5b506102d4610ac9565b6040516102e393929190611735565b60405180910390f35b3480156102f857600080fd5b50610301610bfe565b60405161030e9190611789565b60405180910390f35b34801561032357600080fd5b5061032c610c24565b604051610339919061147c565b60405180910390f35b61035c600480360381019061035791906115ad565b610cb2565b005b34801561036a57600080fd5b5061038560048036038101906103809190611537565b610f9a565b6040516103929190611592565b60405180910390f35b3480156103a757600080fd5b506103b0610fb1565b6040516103bd91906117c5565b60405180910390f35b3480156103d257600080fd5b506103ed60048036038101906103e891906117e0565b610fd7565b6040516103fa91906115e9565b60405180910390f35b34801561040f57600080fd5b50610418610ffc565b60405161042591906115e9565b60405180910390f35b6000805461043b9061184f565b80601f01602080910402602001604051908101604052809291908181526020018280546104679061184f565b80156104b45780601f10610489576101008083540402835291602001916104b4565b820191906000526020600020905b81548152906001019060200180831161049757829003601f168201915b505050505081565b600081600560003373ffffffffffffffffffffffffffffffffffffffff1673ffffffffffffffffffffffffffffffffffffffff16815260200190815260200160002060008573ffffffffffffffffffffffffffffffffffffffff1673ffffffffffffffffffffffffffffffffffffffff168152602001908152602001600020819055508273ffffffffffffffffffffffffffffffffffffffff163373ffffffffffffffffffffffffffffffffffffffff167f8c5be1e5ebec7d5bd14f71427d1e84f3dd0314c0f7b2291e5b200ac8c7c3b9258460405161059c91906115e9565b60405180910390a36001905092915050565b6105b6611002565b8060068190555050565b60035481565b6000600560008573ffffffffffffffffffffffffffffffffffffffff1673ffffffffffffffffffffffffffffffffffffffff16815260200190815260200160002060003373ffffffffffffffffffffffffffffffffffffffff1673ffffffffffffffffffffffffffffffffffffffff1681526020019081526020016000205482111561065157600080fd5b81600560008673ffffffffffffffffffffffffffffffffffffffff1673ffffffffffffffffffffffffffffffffffffffff16815260200190815260200160002060003373ffffffffffffffffffffffffffffffffffffffff1673ffffffffffffffffffffffffffffffffffffffff16815260200190815260200160002060008282546106dd91906118af565b925050819055506106ef848484611094565b600190509392505050565b600260009054906101000a900460ff1681565b600081600460003373ffffffffffffffffffffffffffffffffffffffff1673ffffffffffffffffffffffffffffffffffffffff168152602001908152602001600020541015610791576040517f08c379a00000000000000000000000000000000000000000000000000000000081526004016107889061192f565b60405180910390fd5b6000600b60009054906101000a900473ffffffffffffffffffffffffffffffffffffffff1673ffffffffffffffffffffffffffffffffffffffff166341976e09306040518263ffffffff1660e01b81526004016107ee9190611789565b6040805180830381865afa15801561080a573d6000803e3d6000fd5b505050506040513d601f19601f8201168201806040525081019061082e9190611964565b5090506000600654600260009054906101000a900460ff16600a6108529190611ad7565b858461085e9190611b22565b6108689190611bab565b61087291906118af565b905060065481116108b8576040517f08c379a00000000000000000000000000000000000000000000000000000000081526004016108af90611c4e565b60405180910390fd5b83600360008282546108ca91906118af565b9250508190555083600460003373ffffffffffffffffffffffffffffffffffffffff1673ffffffffffffffffffffffffffffffffffffffff168152602001908152602001600020600082825461092091906118af565b92505081905550600c60009054906101000a900473ffffffffffffffffffffffffffffffffffffffff1673ffffffffffffffffffffffffffffffffffffffff1663f3fef3a333836040518363ffffffff1660e01b8152600401610984929190611c6e565b600060405180830381600087803b15801561099e57600080fd5b505af11580156109b2573d6000803e3d6000fd5b505050503073ffffffffffffffffffffffffffffffffffffffff163373ffffffffffffffffffffffffffffffffffffffff167fddf252ad1be2c89b69c2b068fc378daa952ba7f163c4a11628f55a4df523b3ef86604051610a1391906115e9565b60405180910390a3600073ffffffffffffffffffffffffffffffffffffffff163073ffffffffffffffffffffffffffffffffffffffff167fddf252ad1be2c89b69c2b068fc378daa952ba7f163c4a11628f55a4df523b3ef86604051610a7991906115e9565b60405180910390a38092505050919050565b60046020528060005260406000206000915090505481565b600b60009054906101000a900473ffffffffffffffffffffffffffffffffffffffff1681565b6008806000018054610ada9061184f565b80601f0160208091040260200160405190810160405280929190818152602001828054610b069061184f565b8015610b535780601f10610b2857610100808354040283529160200191610b53565b820191906000526020600020905b815481529060010190602001808311610b3657829003601f168201915b505050505090806001018054610b689061184f565b80601f0160208091040260200160405190810160405280929190818152602001828054610b949061184f565b8015610be15780601f10610bb657610100808354040283529160200191610be1565b820191906000526020600020905b815481529060010190602001808311610bc457829003601f168201915b5050505050908060020160009054906101000a900460ff16905083565b600760009054906101000a900473ffffffffffffffffffffffffffffffffffffffff1681565b60018054610c319061184f565b80601f0160208091040260200160405190810160405280929190818152602001828054610c5d9061184f565b8015610caa5780601f10610c7f57610100808354040283529160200191610caa565b820191906000526020600020905b815481529060010190602001808311610c8d57829003601f168201915b505050505081565b6000600b60009054906101000a900473ffffffffffffffffffffffffffffffffffffffff1673ffffffffffffffffffffffffffffffffffffffff166341976e09306040518263ffffffff1660e01b8152600401610d0f9190611789565b6040805180830381865afa158015610d2b573d6000803e3d6000fd5b505050506040513d601f19601f82011682018060405250810190610d4f9190611964565b5090506000600654600260009054906101000a900460ff16600a610d739190611ad7565b8484610d7f9190611b22565b610d899190611bab565b610d939190611c97565b905034811115610dd8576040517f08c379a0000000000000000000000000000000000000000000000000000000008152600401610dcf90611d17565b60405180910390fd5b8260036000828254610dea9190611c97565b9250508190555082600460003373ffffffffffffffffffffffffffffffffffffffff1673ffffffffffffffffffffffffffffffffffffffff1681526020019081526020016000206000828254610e409190611c97565b92505081905550600c60009054906101000a900473ffffffffffffffffffffffffffffffffffffffff1673ffffffffffffffffffffffffffffffffffffffff1663d0e30db0346040518263ffffffff1660e01b81526004016000604051808303818588803b158015610eb157600080fd5b505af1158015610ec5573d6000803e3d6000fd5b50505050503073ffffffffffffffffffffffffffffffffffffffff16600073ffffffffffffffffffffffffffffffffffffffff167fddf252ad1be2c89b69c2b068fc378daa952ba7f163c4a11628f55a4df523b3ef85604051610f2891906115e9565b60405180910390a33373ffffffffffffffffffffffffffffffffffffffff163073ffffffffffffffffffffffffffffffffffffffff167fddf252ad1be2c89b69c2b068fc378daa952ba7f163c4a11628f55a4df523b3ef85604051610f8d91906115e9565b60405180910390a3505050565b6000610fa7338484611094565b6001905092915050565b600c60009054906101000a900473ffffffffffffffffffffffffffffffffffffffff1681565b6005602052816000526040600020602052806000526040600020600091509150505481565b60065481565b600760009054906101000a900473ffffffffffffffffffffffffffffffffffffffff1673ffffffffffffffffffffffffffffffffffffffff163373ffffffffffffffffffffffffffffffffffffffff1614611092576040517f08c379a000000000000000000000000000000000000000000000000000000000815260040161108990611da9565b60405180910390fd5b565b600073ffffffffffffffffffffffffffffffffffffffff168273ffffffffffffffffffffffffffffffffffffffff16036110cd57600080fd5b80600460008573ffffffffffffffffffffffffffffffffffffffff1673ffffffffffffffffffffffffffffffffffffffff16815260200190815260200160002054101561111957600080fd5b600460008373ffffffffffffffffffffffffffffffffffffffff1673ffffffffffffffffffffffffffffffffffffffff1681526020019081526020016000205481600460008573ffffffffffffffffffffffffffffffffffffffff1673ffffffffffffffffffffffffffffffffffffffff168152602001908152602001600020546111a49190611c97565b116111ae57600080fd5b6000600460008473ffffffffffffffffffffffffffffffffffffffff1673ffffffffffffffffffffffffffffffffffffffff16815260200190815260200160002054600460008673ffffffffffffffffffffffffffffffffffffffff1673ffffffffffffffffffffffffffffffffffffffff1681526020019081526020016000205461123a9190611c97565b905081600460008673ffffffffffffffffffffffffffffffffffffffff1673ffffffffffffffffffffffffffffffffffffffff168152602001908152602001600020600082825461128b91906118af565b9250508190555081600460008573ffffffffffffffffffffffffffffffffffffffff1673ffffffffffffffffffffffffffffffffffffffff16815260200190815260200160002060008282546112e19190611c97565b925050819055508273ffffffffffffffffffffffffffffffffffffffff168473ffffffffffffffffffffffffffffffffffffffff167fddf252ad1be2c89b69c2b068fc378daa952ba7f163c4a11628f55a4df523b3ef8460405161134591906115e9565b60405180910390a380600460008573ffffffffffffffffffffffffffffffffffffffff1673ffffffffffffffffffffffffffffffffffffffff16815260200190815260200160002054600460008773ffffffffffffffffffffffffffffffffffffffff1673ffffffffffffffffffffffffffffffffffffffff168152602001908152602001600020546113d89190611c97565b146113e6576113e5611dc9565b5b50505050565b600081519050919050565b600082825260208201905092915050565b60005b8381101561142657808201518184015260208101905061140b565b60008484015250505050565b6000601f19601f8301169050919050565b600061144e826113ec565b61145881856113f7565b9350611468818560208601611408565b61147181611432565b840191505092915050565b600060208201905081810360008301526114968184611443565b905092915050565b600080fd5b600073ffffffffffffffffffffffffffffffffffffffff82169050919050565b60006114ce826114a3565b9050919050565b6114de816114c3565b81146114e957600080fd5b50565b6000813590506114fb816114d5565b92915050565b6000819050919050565b61151481611501565b811461151f57600080fd5b50565b6000813590506115318161150b565b92915050565b6000806040838503121561154e5761154d61149e565b5b600061155c858286016114ec565b925050602061156d85828601611522565b9150509250929050565b60008115159050919050565b61158c81611577565b82525050565b60006020820190506115a76000830184611583565b92915050565b6000602082840312156115c3576115c261149e565b5b60006115d184828501611522565b91505092915050565b6115e381611501565b82525050565b60006020820190506115fe60008301846115da565b92915050565b60008060006060848603121561161d5761161c61149e565b5b600061162b868287016114ec565b935050602061163c868287016114ec565b925050604061164d86828701611522565b9150509250925092565b600060ff82169050919050565b61166d81611657565b82525050565b60006020820190506116886000830184611664565b92915050565b6000602082840312156116a4576116a361149e565b5b60006116b2848285016114ec565b91505092915050565b6000819050919050565b60006116e06116db6116d6846114a3565b6116bb565b6114a3565b9050919050565b60006116f2826116c5565b9050919050565b6000611704826116e7565b9050919050565b611714816116f9565b82525050565b600060208201905061172f600083018461170b565b92915050565b6000606082019050818103600083015261174f8186611443565b905081810360208301526117638185611443565b90506117726040830184611664565b949350505050565b611783816114c3565b82525050565b600060208201905061179e600083018461177a565b92915050565b60006117af826116e7565b9050919050565b6117bf816117a4565b82525050565b60006020820190506117da60008301846117b6565b92915050565b600080604083850312156117f7576117f661149e565b5b6000611805858286016114ec565b9250506020611816858286016114ec565b9150509250929050565b7f4e487b7100000000000000000000000000000000000000000000000000000000600052602260045260246000fd5b6000600282049050600182168061186757607f821691505b60208210810361187a57611879611820565b5b50919050565b7f4e487b7100000000000000000000000000000000000000000000000000000000600052601160045260246000fd5b60006118ba82611501565b91506118c583611501565b92508282039050818111156118dd576118dc611880565b5b92915050565b7f4d75737420686176652073756666696369656e742062616c616e636500000000600082015250565b6000611919601c836113f7565b9150611924826118e3565b602082019050919050565b600060208201905081810360008301526119488161190c565b9050919050565b60008151905061195e8161150b565b92915050565b6000806040838503121561197b5761197a61149e565b5b60006119898582860161194f565b925050602061199a8582860161194f565b9150509250929050565b60008160011c9050919050565b6000808291508390505b60018511156119fb578086048111156119d7576119d6611880565b5b60018516156119e65780820291505b80810290506119f4856119a4565b94506119bb565b94509492505050565b600082611a145760019050611ad0565b81611a225760009050611ad0565b8160018114611a385760028114611a4257611a71565b6001915050611ad0565b60ff841115611a5457611a53611880565b5b8360020a915084821115611a6b57611a6a611880565b5b50611ad0565b5060208310610133831016604e8410600b8410161715611aa65782820a905083811115611aa157611aa0611880565b5b611ad0565b611ab384848460016119b1565b92509050818404811115611aca57611ac9611880565b5b81810290505b9392505050565b6000611ae282611501565b9150611aed83611657565b9250611b1a7fffffffffffffffffffffffffffffffffffffffffffffffffffffffffffffffff8484611a04565b905092915050565b6000611b2d82611501565b9150611b3883611501565b9250817fffffffffffffffffffffffffffffffffffffffffffffffffffffffffffffffff0483118215151615611b7157611b70611880565b5b828202905092915050565b7f4e487b7100000000000000000000000000000000000000000000000000000000600052601260045260246000fd5b6000611bb682611501565b9150611bc183611501565b925082611bd157611bd0611b7c565b5b828204905092915050565b7f636f6d6d697373696f6e2070726963652065786365656473207769746864726160008201527f77616c20616d6f756e7421000000000000000000000000000000000000000000602082015250565b6000611c38602b836113f7565b9150611c4382611bdc565b604082019050919050565b60006020820190508181036000830152611c6781611c2b565b9050919050565b6000604082019050611c83600083018561177a565b611c9060208301846115da565b9392505050565b6000611ca282611501565b9150611cad83611501565b9250828201905080821115611cc557611cc4611880565b5b92915050565b7f496e73756666696369656e7420616d6f756e74207472616e7366657272656421600082015250565b6000611d016020836113f7565b9150611d0c82611ccb565b602082019050919050565b60006020820190508181036000830152611d3081611cf4565b9050919050565b7f43616c6c6572206d7573742062652074686520636f6e7472616374206f776e6560008201527f7221000000000000000000000000000000000000000000000000000000000000602082015250565b6000611d936022836113f7565b9150611d9e82611d37565b604082019050919050565b60006020820190508181036000830152611dc281611d86565b9050919050565b7f4e487b7100000000000000000000000000000000000000000000000000000000600052600160045260246000fdfea26469706673582212200a9d7390f0fd5bb4365fc7a8f722684b6ca4f602861c74ae979e3a48fd43c70364736f6c63430008100033",
  "immutableReferences": {},
  "source": "pragma solidity ^0.8.16;\n\nimport \"./TokenERC20.sol\";\nimport \"./Reserve.sol\";\nimport \"./Oracle.sol\";\n\ncontract Mirrored is TokenERC20 {\n    struct AssetDetails {\n        string assetName;\n        string assetSymbol;\n        uint8 decimals;\n    }\n\n    uint256 public commission;\n    address public ownerAddress;\n    AssetDetails public assetDetails;\n    Oracle public oracle;\n    Reserve public reserve;\n\n    constructor(\n        Oracle _oracle,\n        Reserve _reserve,\n        uint256 _commission,\n        string memory _name,\n        string memory _symbol,\n        uint8 _decimals\n    ) {\n        ownerAddress = msg.sender;\n        oracle = _oracle;\n        reserve = _reserve;\n        commission = _commission;\n        name = _name;\n        symbol = _symbol;\n        decimals = _decimals;\n        assetDetails = AssetDetails(_name, _symbol, _decimals);\n    }\n\n    function _onlyOwner() private view {\n        require(\n            msg.sender == ownerAddress,\n            \"Caller must be the contract owner!\"\n        );\n    }\n\n    modifier onlyOwner() {\n        _onlyOwner();\n        _;\n    }\n\n    function updatecommission(uint256 newcommission) external onlyOwner {\n        commission = newcommission;\n    }\n\n    function mint(uint256 amount) external payable {\n        (uint256 price, ) = oracle.getPrice(address(this));\n        uint256 cost = (price * amount) / (10**decimals) + commission;\n\n        require(cost <= msg.value, \"Insufficient amount transferred!\");\n\n        totalSupply += amount;\n        balanceOf[msg.sender] += amount;\n        reserve.deposit{value: msg.value}();\n        emit Transfer(address(0), address(this), amount);\n        emit Transfer(address(this), msg.sender, amount);\n    }\n\n    function burn(uint256 amount) external payable returns (uint256) {\n        require(\n            balanceOf[msg.sender] >= amount,\n            \"Must have sufficient balance\"\n        );\n\n        (uint256 price, ) = oracle.getPrice(address(this));\n        uint256 withdrawalAmount = (price * amount) /\n            (10**decimals) -\n            commission;\n\n        require(\n            withdrawalAmount > commission,\n            \"commission price exceeds withdrawal amount!\"\n        );\n\n        totalSupply -= amount;\n        balanceOf[msg.sender] -= amount;\n        reserve.withdraw(msg.sender, withdrawalAmount);\n        emit Transfer(msg.sender, address(this), amount);\n        emit Transfer(address(this), address(0), amount);\n\n        return withdrawalAmount;\n    }\n}\n",
  "sourcePath": "/home/d4fttasiii/git/al_fundy/src/fund-contract/contracts/Mirrored.sol",
  "compiler": {
    "name": "solc",
    "version": "0.8.16+commit.07a7930e.Emscripten.clang"
  },
  "schemaVersion": "3.4.9",
  "updatedAt": "2022-11-26T15:20:05.139Z",
  "devdoc": {
    "kind": "dev",
    "methods": {
      "approve(address,uint256)": {
        "params": {
          "delegate": "The address authorized to spend",
          "numTokens": "the max amount they can spend"
        }
      },
      "transfer(address,uint256)": {
        "params": {
          "amount": "the amount to send",
          "recipient": "The address of the recipient"
        }
      },
      "transferFrom(address,address,uint256)": {
        "params": {
          "amount": "the amount to send",
          "recipient": "The address of the recipient",
          "sender": "The address of the sender"
        }
      }
    },
    "version": 1
  },
  "userdoc": {
    "kind": "user",
    "methods": {
      "approve(address,uint256)": {
        "notice": "Set allowance for other address Allows `_spender` to spend no more than `_value` tokens in your behalf"
      },
      "transfer(address,uint256)": {
        "notice": "Transfer tokens Send `_value` tokens to `_to` from your account"
      },
      "transferFrom(address,address,uint256)": {
        "notice": "Transfer tokens from other address Send `_value` tokens to `_to` in behalf of `_from`"
      }
    },
    "version": 1
  }
}