{
  "contractName": "Mirrored",
  "abi": [
    {
      "inputs": [
        {
          "internalType": "contract Oracle",
          "name": "_oracle",
          "type": "address"
        },
        {
          "internalType": "contract Reserve",
          "name": "_reserve",
          "type": "address"
        },
        {
          "internalType": "uint256",
          "name": "_commission",
          "type": "uint256"
        },
        {
          "internalType": "string",
          "name": "_name",
          "type": "string"
        },
        {
          "internalType": "string",
          "name": "_symbol",
          "type": "string"
        },
        {
          "internalType": "uint8",
          "name": "_decimals",
          "type": "uint8"
        }
      ],
      "stateMutability": "nonpayable",
      "type": "constructor"
    },
    {
      "anonymous": false,
      "inputs": [
        {
          "indexed": true,
          "internalType": "address",
          "name": "owner",
          "type": "address"
        },
        {
          "indexed": true,
          "internalType": "address",
          "name": "spender",
          "type": "address"
        },
        {
          "indexed": false,
          "internalType": "uint256",
          "name": "value",
          "type": "uint256"
        }
      ],
      "name": "Approval",
      "type": "event"
    },
    {
      "anonymous": false,
      "inputs": [
        {
          "indexed": true,
          "internalType": "address",
          "name": "from",
          "type": "address"
        },
        {
          "indexed": true,
          "internalType": "address",
          "name": "to",
          "type": "address"
        },
        {
          "indexed": false,
          "internalType": "uint256",
          "name": "value",
          "type": "uint256"
        }
      ],
      "name": "Transfer",
      "type": "event"
    },
    {
      "inputs": [
        {
          "internalType": "address",
          "name": "",
          "type": "address"
        },
        {
          "internalType": "address",
          "name": "",
          "type": "address"
        }
      ],
      "name": "allowance",
      "outputs": [
        {
          "internalType": "uint256",
          "name": "",
          "type": "uint256"
        }
      ],
      "stateMutability": "view",
      "type": "function"
    },
    {
      "inputs": [
        {
          "internalType": "address",
          "name": "delegate",
          "type": "address"
        },
        {
          "internalType": "uint256",
          "name": "numTokens",
          "type": "uint256"
        }
      ],
      "name": "approve",
      "outputs": [
        {
          "internalType": "bool",
          "name": "",
          "type": "bool"
        }
      ],
      "stateMutability": "nonpayable",
      "type": "function"
    },
    {
      "inputs": [],
      "name": "assetDetails",
      "outputs": [
        {
          "internalType": "string",
          "name": "assetName",
          "type": "string"
        },
        {
          "internalType": "string",
          "name": "assetSymbol",
          "type": "string"
        },
        {
          "internalType": "uint8",
          "name": "decimals",
          "type": "uint8"
        }
      ],
      "stateMutability": "view",
      "type": "function"
    },
    {
      "inputs": [
        {
          "internalType": "address",
          "name": "",
          "type": "address"
        }
      ],
      "name": "balanceOf",
      "outputs": [
        {
          "internalType": "uint256",
          "name": "",
          "type": "uint256"
        }
      ],
      "stateMutability": "view",
      "type": "function"
    },
    {
      "inputs": [],
      "name": "commission",
      "outputs": [
        {
          "internalType": "uint256",
          "name": "",
          "type": "uint256"
        }
      ],
      "stateMutability": "view",
      "type": "function"
    },
    {
      "inputs": [],
      "name": "decimals",
      "outputs": [
        {
          "internalType": "uint8",
          "name": "",
          "type": "uint8"
        }
      ],
      "stateMutability": "view",
      "type": "function"
    },
    {
      "inputs": [],
      "name": "name",
      "outputs": [
        {
          "internalType": "string",
          "name": "",
          "type": "string"
        }
      ],
      "stateMutability": "view",
      "type": "function"
    },
    {
      "inputs": [],
      "name": "oracle",
      "outputs": [
        {
          "internalType": "contract Oracle",
          "name": "",
          "type": "address"
        }
      ],
      "stateMutability": "view",
      "type": "function"
    },
    {
      "inputs": [],
      "name": "ownerAddress",
      "outputs": [
        {
          "internalType": "address",
          "name": "",
          "type": "address"
        }
      ],
      "stateMutability": "view",
      "type": "function"
    },
    {
      "inputs": [],
      "name": "reserve",
      "outputs": [
        {
          "internalType": "contract Reserve",
          "name": "",
          "type": "address"
        }
      ],
      "stateMutability": "view",
      "type": "function"
    },
    {
      "inputs": [],
      "name": "symbol",
      "outputs": [
        {
          "internalType": "string",
          "name": "",
          "type": "string"
        }
      ],
      "stateMutability": "view",
      "type": "function"
    },
    {
      "inputs": [],
      "name": "totalSupply",
      "outputs": [
        {
          "internalType": "uint256",
          "name": "",
          "type": "uint256"
        }
      ],
      "stateMutability": "view",
      "type": "function"
    },
    {
      "inputs": [
        {
          "internalType": "address",
          "name": "recipient",
          "type": "address"
        },
        {
          "internalType": "uint256",
          "name": "amount",
          "type": "uint256"
        }
      ],
      "name": "transfer",
      "outputs": [
        {
          "internalType": "bool",
          "name": "",
          "type": "bool"
        }
      ],
      "stateMutability": "nonpayable",
      "type": "function"
    },
    {
      "inputs": [
        {
          "internalType": "address",
          "name": "sender",
          "type": "address"
        },
        {
          "internalType": "address",
          "name": "recipient",
          "type": "address"
        },
        {
          "internalType": "uint256",
          "name": "amount",
          "type": "uint256"
        }
      ],
      "name": "transferFrom",
      "outputs": [
        {
          "internalType": "bool",
          "name": "success",
          "type": "bool"
        }
      ],
      "stateMutability": "nonpayable",
      "type": "function"
    },
    {
      "inputs": [
        {
          "internalType": "uint256",
          "name": "newcommission",
          "type": "uint256"
        }
      ],
      "name": "updateCommission",
      "outputs": [],
      "stateMutability": "nonpayable",
      "type": "function"
    },
    {
      "inputs": [
        {
          "internalType": "uint256",
          "name": "amount",
          "type": "uint256"
        }
      ],
      "name": "mint",
      "outputs": [
        {
          "internalType": "uint256",
          "name": "",
          "type": "uint256"
        }
      ],
      "stateMutability": "payable",
      "type": "function"
    },
    {
      "inputs": [
        {
          "internalType": "uint256",
          "name": "amount",
          "type": "uint256"
        }
      ],
      "name": "burn",
      "outputs": [
        {
          "internalType": "uint256",
          "name": "",
          "type": "uint256"
        }
      ],
      "stateMutability": "payable",
      "type": "function"
    }
  ],
  "bytecode": "0x60806040523480156200001157600080fd5b50604051620026e4380380620026e483398181016040528101906200003791906200048a565b33600760006101000a81548173ffffffffffffffffffffffffffffffffffffffff021916908373ffffffffffffffffffffffffffffffffffffffff16021790555085600b60006101000a81548173ffffffffffffffffffffffffffffffffffffffff021916908373ffffffffffffffffffffffffffffffffffffffff16021790555084600c60006101000a81548173ffffffffffffffffffffffffffffffffffffffff021916908373ffffffffffffffffffffffffffffffffffffffff160217905550836006819055508260009081620001129190620007a5565b508160019081620001249190620007a5565b5080600260006101000a81548160ff021916908360ff16021790555060405180606001604052808481526020018381526020018260ff1681525060086000820151816000019081620001779190620007a5565b5060208201518160010190816200018f9190620007a5565b5060408201518160020160006101000a81548160ff021916908360ff1602179055509050505050505050506200088c565b6000604051905090565b600080fd5b600080fd5b600073ffffffffffffffffffffffffffffffffffffffff82169050919050565b60006200020182620001d4565b9050919050565b60006200021582620001f4565b9050919050565b620002278162000208565b81146200023357600080fd5b50565b60008151905062000247816200021c565b92915050565b60006200025a82620001f4565b9050919050565b6200026c816200024d565b81146200027857600080fd5b50565b6000815190506200028c8162000261565b92915050565b6000819050919050565b620002a78162000292565b8114620002b357600080fd5b50565b600081519050620002c7816200029c565b92915050565b600080fd5b600080fd5b6000601f19601f8301169050919050565b7f4e487b7100000000000000000000000000000000000000000000000000000000600052604160045260246000fd5b6200032282620002d7565b810181811067ffffffffffffffff82111715620003445762000343620002e8565b5b80604052505050565b600062000359620001c0565b905062000367828262000317565b919050565b600067ffffffffffffffff8211156200038a5762000389620002e8565b5b6200039582620002d7565b9050602081019050919050565b60005b83811015620003c2578082015181840152602081019050620003a5565b60008484015250505050565b6000620003e5620003df846200036c565b6200034d565b905082815260208101848484011115620004045762000403620002d2565b5b62000411848285620003a2565b509392505050565b600082601f830112620004315762000430620002cd565b5b815162000443848260208601620003ce565b91505092915050565b600060ff82169050919050565b62000464816200044c565b81146200047057600080fd5b50565b600081519050620004848162000459565b92915050565b60008060008060008060c08789031215620004aa57620004a9620001ca565b5b6000620004ba89828a0162000236565b9650506020620004cd89828a016200027b565b9550506040620004e089828a01620002b6565b945050606087015167ffffffffffffffff811115620005045762000503620001cf565b5b6200051289828a0162000419565b935050608087015167ffffffffffffffff811115620005365762000535620001cf565b5b6200054489828a0162000419565b92505060a06200055789828a0162000473565b9150509295509295509295565b600081519050919050565b7f4e487b7100000000000000000000000000000000000000000000000000000000600052602260045260246000fd5b60006002820490506001821680620005b757607f821691505b602082108103620005cd57620005cc6200056f565b5b50919050565b60008190508160005260206000209050919050565b60006020601f8301049050919050565b600082821b905092915050565b600060088302620006377fffffffffffffffffffffffffffffffffffffffffffffffffffffffffffffffff82620005f8565b620006438683620005f8565b95508019841693508086168417925050509392505050565b6000819050919050565b600062000686620006806200067a8462000292565b6200065b565b62000292565b9050919050565b6000819050919050565b620006a28362000665565b620006ba620006b1826200068d565b84845462000605565b825550505050565b600090565b620006d1620006c2565b620006de81848462000697565b505050565b5b818110156200070657620006fa600082620006c7565b600181019050620006e4565b5050565b601f82111562000755576200071f81620005d3565b6200072a84620005e8565b810160208510156200073a578190505b620007526200074985620005e8565b830182620006e3565b50505b505050565b600082821c905092915050565b60006200077a600019846008026200075a565b1980831691505092915050565b600062000795838362000767565b9150826002028217905092915050565b620007b08262000564565b67ffffffffffffffff811115620007cc57620007cb620002e8565b5b620007d882546200059e565b620007e58282856200070a565b600060209050601f8311600181146200081d576000841562000808578287015190505b62000814858262000787565b86555062000884565b601f1984166200082d86620005d3565b60005b82811015620008575784890151825560018201915060208501945060208101905062000830565b8683101562000877578489015162000873601f89168262000767565b8355505b6001600288020188555050505b505050505050565b611e48806200089c6000396000f3fe6080604052600436106100fe5760003560e01c80638c40507111610095578063a0712d6811610064578063a0712d6814610342578063a9059cbb14610372578063cd3293de146103af578063dd62ed3e146103da578063e148919114610417576100fe565b80638c405071146102965780638f84aa09146102c357806395d89b41146102ee5780639d55fba714610319576100fe565b8063313ce567116100d1578063313ce567146101d357806342966c68146101fe57806370a082311461022e5780637dc0d1d01461026b576100fe565b806306fdde0314610103578063095ea7b31461012e57806318160ddd1461016b57806323b872dd14610196575b600080fd5b34801561010f57600080fd5b50610118610442565b6040516101259190611496565b60405180910390f35b34801561013a57600080fd5b5061015560048036038101906101509190611551565b6104d0565b60405161016291906115ac565b60405180910390f35b34801561017757600080fd5b506101806105c2565b60405161018d91906115d6565b60405180910390f35b3480156101a257600080fd5b506101bd60048036038101906101b891906115f1565b6105c8565b6040516101ca91906115ac565b60405180910390f35b3480156101df57600080fd5b506101e86106fc565b6040516101f59190611660565b60405180910390f35b6102186004803603810190610213919061167b565b61070f565b60405161022591906115d6565b60405180910390f35b34801561023a57600080fd5b50610255600480360381019061025091906116a8565b610a8d565b60405161026291906115d6565b60405180910390f35b34801561027757600080fd5b50610280610aa5565b60405161028d9190611734565b60405180910390f35b3480156102a257600080fd5b506102ab610acb565b6040516102ba9392919061174f565b60405180910390f35b3480156102cf57600080fd5b506102d8610c00565b6040516102e591906117a3565b60405180910390f35b3480156102fa57600080fd5b50610303610c26565b6040516103109190611496565b60405180910390f35b34801561032557600080fd5b50610340600480360381019061033b919061167b565b610cb4565b005b61035c6004803603810190610357919061167b565b610cc6565b60405161036991906115d6565b60405180910390f35b34801561037e57600080fd5b5061039960048036038101906103949190611551565b610fb4565b6040516103a691906115ac565b60405180910390f35b3480156103bb57600080fd5b506103c4610fcb565b6040516103d191906117df565b60405180910390f35b3480156103e657600080fd5b5061040160048036038101906103fc91906117fa565b610ff1565b60405161040e91906115d6565b60405180910390f35b34801561042357600080fd5b5061042c611016565b60405161043991906115d6565b60405180910390f35b6000805461044f90611869565b80601f016020809104026020016040519081016040528092919081815260200182805461047b90611869565b80156104c85780601f1061049d576101008083540402835291602001916104c8565b820191906000526020600020905b8154815290600101906020018083116104ab57829003601f168201915b505050505081565b600081600560003373ffffffffffffffffffffffffffffffffffffffff1673ffffffffffffffffffffffffffffffffffffffff16815260200190815260200160002060008573ffffffffffffffffffffffffffffffffffffffff1673ffffffffffffffffffffffffffffffffffffffff168152602001908152602001600020819055508273ffffffffffffffffffffffffffffffffffffffff163373ffffffffffffffffffffffffffffffffffffffff167f8c5be1e5ebec7d5bd14f71427d1e84f3dd0314c0f7b2291e5b200ac8c7c3b925846040516105b091906115d6565b60405180910390a36001905092915050565b60035481565b6000600560008573ffffffffffffffffffffffffffffffffffffffff1673ffffffffffffffffffffffffffffffffffffffff16815260200190815260200160002060003373ffffffffffffffffffffffffffffffffffffffff1673ffffffffffffffffffffffffffffffffffffffff1681526020019081526020016000205482111561065357600080fd5b81600560008673ffffffffffffffffffffffffffffffffffffffff1673ffffffffffffffffffffffffffffffffffffffff16815260200190815260200160002060003373ffffffffffffffffffffffffffffffffffffffff1673ffffffffffffffffffffffffffffffffffffffff16815260200190815260200160002060008282546106df91906118c9565b925050819055506106f184848461101c565b600190509392505050565b600260009054906101000a900460ff1681565b600081600460003373ffffffffffffffffffffffffffffffffffffffff1673ffffffffffffffffffffffffffffffffffffffff168152602001908152602001600020541015610793576040517f08c379a000000000000000000000000000000000000000000000000000000000815260040161078a90611949565b60405180910390fd5b6000600b60009054906101000a900473ffffffffffffffffffffffffffffffffffffffff1673ffffffffffffffffffffffffffffffffffffffff166341976e09306040518263ffffffff1660e01b81526004016107f091906117a3565b6040805180830381865afa15801561080c573d6000803e3d6000fd5b505050506040513d601f19601f82011682018060405250810190610830919061197e565b5090506000600654600260009054906101000a900460ff16600a6108549190611af1565b85846108609190611b3c565b61086a9190611bc5565b61087491906118c9565b905060065481116108ba576040517f08c379a00000000000000000000000000000000000000000000000000000000081526004016108b190611c68565b60405180910390fd5b83600360008282546108cc91906118c9565b9250508190555083600460003373ffffffffffffffffffffffffffffffffffffffff1673ffffffffffffffffffffffffffffffffffffffff168152602001908152602001600020600082825461092291906118c9565b92505081905550600c60009054906101000a900473ffffffffffffffffffffffffffffffffffffffff1673ffffffffffffffffffffffffffffffffffffffff1663f3fef3a333836040518363ffffffff1660e01b8152600401610986929190611c88565b600060405180830381600087803b1580156109a057600080fd5b505af11580156109b4573d6000803e3d6000fd5b505050503073ffffffffffffffffffffffffffffffffffffffff163373ffffffffffffffffffffffffffffffffffffffff167fddf252ad1be2c89b69c2b068fc378daa952ba7f163c4a11628f55a4df523b3ef86604051610a1591906115d6565b60405180910390a3600073ffffffffffffffffffffffffffffffffffffffff163073ffffffffffffffffffffffffffffffffffffffff167fddf252ad1be2c89b69c2b068fc378daa952ba7f163c4a11628f55a4df523b3ef86604051610a7b91906115d6565b60405180910390a38092505050919050565b60046020528060005260406000206000915090505481565b600b60009054906101000a900473ffffffffffffffffffffffffffffffffffffffff1681565b6008806000018054610adc90611869565b80601f0160208091040260200160405190810160405280929190818152602001828054610b0890611869565b8015610b555780601f10610b2a57610100808354040283529160200191610b55565b820191906000526020600020905b815481529060010190602001808311610b3857829003601f168201915b505050505090806001018054610b6a90611869565b80601f0160208091040260200160405190810160405280929190818152602001828054610b9690611869565b8015610be35780601f10610bb857610100808354040283529160200191610be3565b820191906000526020600020905b815481529060010190602001808311610bc657829003601f168201915b5050505050908060020160009054906101000a900460ff16905083565b600760009054906101000a900473ffffffffffffffffffffffffffffffffffffffff1681565b60018054610c3390611869565b80601f0160208091040260200160405190810160405280929190818152602001828054610c5f90611869565b8015610cac5780601f10610c8157610100808354040283529160200191610cac565b820191906000526020600020905b815481529060010190602001808311610c8f57829003601f168201915b505050505081565b610cbc611374565b8060068190555050565b600080600b60009054906101000a900473ffffffffffffffffffffffffffffffffffffffff1673ffffffffffffffffffffffffffffffffffffffff166341976e09306040518263ffffffff1660e01b8152600401610d2491906117a3565b6040805180830381865afa158015610d40573d6000803e3d6000fd5b505050506040513d601f19601f82011682018060405250810190610d64919061197e565b5090506000600654600260009054906101000a900460ff16600a610d889190611af1565b8584610d949190611b3c565b610d9e9190611bc5565b610da89190611cb1565b905034811115610ded576040517f08c379a0000000000000000000000000000000000000000000000000000000008152600401610de490611d31565b60405180910390fd5b8360036000828254610dff9190611cb1565b9250508190555083600460003373ffffffffffffffffffffffffffffffffffffffff1673ffffffffffffffffffffffffffffffffffffffff1681526020019081526020016000206000828254610e559190611cb1565b92505081905550600c60009054906101000a900473ffffffffffffffffffffffffffffffffffffffff1673ffffffffffffffffffffffffffffffffffffffff1663d0e30db0346040518263ffffffff1660e01b81526004016000604051808303818588803b158015610ec657600080fd5b505af1158015610eda573d6000803e3d6000fd5b50505050503073ffffffffffffffffffffffffffffffffffffffff16600073ffffffffffffffffffffffffffffffffffffffff167fddf252ad1be2c89b69c2b068fc378daa952ba7f163c4a11628f55a4df523b3ef86604051610f3d91906115d6565b60405180910390a33373ffffffffffffffffffffffffffffffffffffffff163073ffffffffffffffffffffffffffffffffffffffff167fddf252ad1be2c89b69c2b068fc378daa952ba7f163c4a11628f55a4df523b3ef86604051610fa291906115d6565b60405180910390a38092505050919050565b6000610fc133848461101c565b6001905092915050565b600c60009054906101000a900473ffffffffffffffffffffffffffffffffffffffff1681565b6005602052816000526040600020602052806000526040600020600091509150505481565b60065481565b600073ffffffffffffffffffffffffffffffffffffffff168273ffffffffffffffffffffffffffffffffffffffff160361105557600080fd5b80600460008573ffffffffffffffffffffffffffffffffffffffff1673ffffffffffffffffffffffffffffffffffffffff1681526020019081526020016000205410156110a157600080fd5b600460008373ffffffffffffffffffffffffffffffffffffffff1673ffffffffffffffffffffffffffffffffffffffff1681526020019081526020016000205481600460008573ffffffffffffffffffffffffffffffffffffffff1673ffffffffffffffffffffffffffffffffffffffff1681526020019081526020016000205461112c9190611cb1565b1161113657600080fd5b6000600460008473ffffffffffffffffffffffffffffffffffffffff1673ffffffffffffffffffffffffffffffffffffffff16815260200190815260200160002054600460008673ffffffffffffffffffffffffffffffffffffffff1673ffffffffffffffffffffffffffffffffffffffff168152602001908152602001600020546111c29190611cb1565b905081600460008673ffffffffffffffffffffffffffffffffffffffff1673ffffffffffffffffffffffffffffffffffffffff168152602001908152602001600020600082825461121391906118c9565b9250508190555081600460008573ffffffffffffffffffffffffffffffffffffffff1673ffffffffffffffffffffffffffffffffffffffff16815260200190815260200160002060008282546112699190611cb1565b925050819055508273ffffffffffffffffffffffffffffffffffffffff168473ffffffffffffffffffffffffffffffffffffffff167fddf252ad1be2c89b69c2b068fc378daa952ba7f163c4a11628f55a4df523b3ef846040516112cd91906115d6565b60405180910390a380600460008573ffffffffffffffffffffffffffffffffffffffff1673ffffffffffffffffffffffffffffffffffffffff16815260200190815260200160002054600460008773ffffffffffffffffffffffffffffffffffffffff1673ffffffffffffffffffffffffffffffffffffffff168152602001908152602001600020546113609190611cb1565b1461136e5761136d611d51565b5b50505050565b600760009054906101000a900473ffffffffffffffffffffffffffffffffffffffff1673ffffffffffffffffffffffffffffffffffffffff163373ffffffffffffffffffffffffffffffffffffffff1614611404576040517f08c379a00000000000000000000000000000000000000000000000000000000081526004016113fb90611df2565b60405180910390fd5b565b600081519050919050565b600082825260208201905092915050565b60005b83811015611440578082015181840152602081019050611425565b60008484015250505050565b6000601f19601f8301169050919050565b600061146882611406565b6114728185611411565b9350611482818560208601611422565b61148b8161144c565b840191505092915050565b600060208201905081810360008301526114b0818461145d565b905092915050565b600080fd5b600073ffffffffffffffffffffffffffffffffffffffff82169050919050565b60006114e8826114bd565b9050919050565b6114f8816114dd565b811461150357600080fd5b50565b600081359050611515816114ef565b92915050565b6000819050919050565b61152e8161151b565b811461153957600080fd5b50565b60008135905061154b81611525565b92915050565b60008060408385031215611568576115676114b8565b5b600061157685828601611506565b92505060206115878582860161153c565b9150509250929050565b60008115159050919050565b6115a681611591565b82525050565b60006020820190506115c1600083018461159d565b92915050565b6115d08161151b565b82525050565b60006020820190506115eb60008301846115c7565b92915050565b60008060006060848603121561160a576116096114b8565b5b600061161886828701611506565b935050602061162986828701611506565b925050604061163a8682870161153c565b9150509250925092565b600060ff82169050919050565b61165a81611644565b82525050565b60006020820190506116756000830184611651565b92915050565b600060208284031215611691576116906114b8565b5b600061169f8482850161153c565b91505092915050565b6000602082840312156116be576116bd6114b8565b5b60006116cc84828501611506565b91505092915050565b6000819050919050565b60006116fa6116f56116f0846114bd565b6116d5565b6114bd565b9050919050565b600061170c826116df565b9050919050565b600061171e82611701565b9050919050565b61172e81611713565b82525050565b60006020820190506117496000830184611725565b92915050565b60006060820190508181036000830152611769818661145d565b9050818103602083015261177d818561145d565b905061178c6040830184611651565b949350505050565b61179d816114dd565b82525050565b60006020820190506117b86000830184611794565b92915050565b60006117c982611701565b9050919050565b6117d9816117be565b82525050565b60006020820190506117f460008301846117d0565b92915050565b60008060408385031215611811576118106114b8565b5b600061181f85828601611506565b925050602061183085828601611506565b9150509250929050565b7f4e487b7100000000000000000000000000000000000000000000000000000000600052602260045260246000fd5b6000600282049050600182168061188157607f821691505b6020821081036118945761189361183a565b5b50919050565b7f4e487b7100000000000000000000000000000000000000000000000000000000600052601160045260246000fd5b60006118d48261151b565b91506118df8361151b565b92508282039050818111156118f7576118f661189a565b5b92915050565b7f4d75737420686176652073756666696369656e742062616c616e636500000000600082015250565b6000611933601c83611411565b915061193e826118fd565b602082019050919050565b6000602082019050818103600083015261196281611926565b9050919050565b60008151905061197881611525565b92915050565b60008060408385031215611995576119946114b8565b5b60006119a385828601611969565b92505060206119b485828601611969565b9150509250929050565b60008160011c9050919050565b6000808291508390505b6001851115611a15578086048111156119f1576119f061189a565b5b6001851615611a005780820291505b8081029050611a0e856119be565b94506119d5565b94509492505050565b600082611a2e5760019050611aea565b81611a3c5760009050611aea565b8160018114611a525760028114611a5c57611a8b565b6001915050611aea565b60ff841115611a6e57611a6d61189a565b5b8360020a915084821115611a8557611a8461189a565b5b50611aea565b5060208310610133831016604e8410600b8410161715611ac05782820a905083811115611abb57611aba61189a565b5b611aea565b611acd84848460016119cb565b92509050818404811115611ae457611ae361189a565b5b81810290505b9392505050565b6000611afc8261151b565b9150611b0783611644565b9250611b347fffffffffffffffffffffffffffffffffffffffffffffffffffffffffffffffff8484611a1e565b905092915050565b6000611b478261151b565b9150611b528361151b565b9250817fffffffffffffffffffffffffffffffffffffffffffffffffffffffffffffffff0483118215151615611b8b57611b8a61189a565b5b828202905092915050565b7f4e487b7100000000000000000000000000000000000000000000000000000000600052601260045260246000fd5b6000611bd08261151b565b9150611bdb8361151b565b925082611beb57611bea611b96565b5b828204905092915050565b7f636f6d6d697373696f6e2070726963652065786365656473207769746864726160008201527f77616c20616d6f756e7421000000000000000000000000000000000000000000602082015250565b6000611c52602b83611411565b9150611c5d82611bf6565b604082019050919050565b60006020820190508181036000830152611c8181611c45565b9050919050565b6000604082019050611c9d6000830185611794565b611caa60208301846115c7565b9392505050565b6000611cbc8261151b565b9150611cc78361151b565b9250828201905080821115611cdf57611cde61189a565b5b92915050565b7f496e73756666696369656e7420616d6f756e74207472616e7366657272656421600082015250565b6000611d1b602083611411565b9150611d2682611ce5565b602082019050919050565b60006020820190508181036000830152611d4a81611d0e565b9050919050565b7f4e487b7100000000000000000000000000000000000000000000000000000000600052600160045260246000fd5b7f43616c6c6572206d7573742062652074686520636f6e7472616374206f776e6560008201527f7221000000000000000000000000000000000000000000000000000000000000602082015250565b6000611ddc602283611411565b9150611de782611d80565b604082019050919050565b60006020820190508181036000830152611e0b81611dcf565b905091905056fea264697066735822122070f08b89c137d558d8300ecec6930029a85f535baab73c61a8a52cc8fb80099464736f6c63430008100033",
  "immutableReferences": {},
  "source": "pragma solidity ^0.8.16;\n\nimport \"./TokenERC20.sol\";\nimport \"./Reserve.sol\";\nimport \"./Oracle.sol\";\n\ncontract Mirrored is TokenERC20 {\n    struct AssetDetails {\n        string assetName;\n        string assetSymbol;\n        uint8 decimals;\n    }\n\n    uint256 public commission;\n    address public ownerAddress;\n    AssetDetails public assetDetails;\n    Oracle public oracle;\n    Reserve public reserve;\n\n    constructor(\n        Oracle _oracle,\n        Reserve _reserve,\n        uint256 _commission,\n        string memory _name,\n        string memory _symbol,\n        uint8 _decimals\n    ) {\n        ownerAddress = msg.sender;\n        oracle = _oracle;\n        reserve = _reserve;\n        commission = _commission;\n        name = _name;\n        symbol = _symbol;\n        decimals = _decimals;\n        assetDetails = AssetDetails(_name, _symbol, _decimals);\n    }\n\n    function _onlyOwner() private view {\n        require(\n            msg.sender == ownerAddress,\n            \"Caller must be the contract owner!\"\n        );\n    }\n\n    modifier onlyOwner() {\n        _onlyOwner();\n        _;\n    }\n\n    function updateCommission(uint256 newcommission) external onlyOwner {\n        commission = newcommission;\n    }\n\n    function mint(uint256 amount) external payable returns (uint256) {\n        (uint256 price, ) = oracle.getPrice(address(this));\n        uint256 cost = (price * amount) / (10**decimals) + commission;\n\n        require(cost <= msg.value, \"Insufficient amount transferred!\");\n\n        totalSupply += amount;\n        balanceOf[msg.sender] += amount;\n        reserve.deposit{value: msg.value}();\n        emit Transfer(address(0), address(this), amount);\n        emit Transfer(address(this), msg.sender, amount);\n\n        return cost;\n    }\n\n    function burn(uint256 amount) external payable returns (uint256) {\n        require(\n            balanceOf[msg.sender] >= amount,\n            \"Must have sufficient balance\"\n        );\n\n        (uint256 price, ) = oracle.getPrice(address(this));\n        uint256 withdrawalAmount = (price * amount) /\n            (10**decimals) -\n            commission;\n\n        require(\n            withdrawalAmount > commission,\n            \"commission price exceeds withdrawal amount!\"\n        );\n\n        totalSupply -= amount;\n        balanceOf[msg.sender] -= amount;\n        reserve.withdraw(msg.sender, withdrawalAmount);\n        emit Transfer(msg.sender, address(this), amount);\n        emit Transfer(address(this), address(0), amount);\n\n        return withdrawalAmount;\n    }\n}\n",
  "sourcePath": "/home/d4fttasiii/git/portfolium/src/fund-contract/contracts/Mirrored.sol",
  "compiler": {
    "name": "solc",
    "version": "0.8.16+commit.07a7930e.Emscripten.clang"
  },
  "schemaVersion": "3.4.9",
  "updatedAt": "2022-12-06T13:02:11.042Z",
  "devdoc": {
    "kind": "dev",
    "methods": {
      "approve(address,uint256)": {
        "params": {
          "delegate": "The address authorized to spend",
          "numTokens": "the max amount they can spend"
        }
      },
      "transfer(address,uint256)": {
        "params": {
          "amount": "the amount to send",
          "recipient": "The address of the recipient"
        }
      },
      "transferFrom(address,address,uint256)": {
        "params": {
          "amount": "the amount to send",
          "recipient": "The address of the recipient",
          "sender": "The address of the sender"
        }
      }
    },
    "version": 1
  },
  "userdoc": {
    "kind": "user",
    "methods": {
      "approve(address,uint256)": {
        "notice": "Set allowance for other address Allows `_spender` to spend no more than `_value` tokens in your behalf"
      },
      "transfer(address,uint256)": {
        "notice": "Transfer tokens Send `_value` tokens to `_to` from your account"
      },
      "transferFrom(address,address,uint256)": {
        "notice": "Transfer tokens from other address Send `_value` tokens to `_to` in behalf of `_from`"
      }
    },
    "version": 1
  }
}