{
  "contractName": "Oracle",
  "abi": [
    {
      "inputs": [
        {
          "internalType": "address",
          "name": "_initTrustedAccount",
          "type": "address"
        }
      ],
      "stateMutability": "nonpayable",
      "type": "constructor"
    },
    {
      "anonymous": false,
      "inputs": [
        {
          "indexed": false,
          "internalType": "address",
          "name": "asset",
          "type": "address"
        },
        {
          "indexed": false,
          "internalType": "uint256",
          "name": "newPrice",
          "type": "uint256"
        }
      ],
      "name": "PriceSet",
      "type": "event"
    },
    {
      "inputs": [
        {
          "internalType": "address",
          "name": "",
          "type": "address"
        }
      ],
      "name": "assetPriceOrigin",
      "outputs": [
        {
          "internalType": "enum Oracle.PriceOrigin",
          "name": "",
          "type": "uint8"
        }
      ],
      "stateMutability": "view",
      "type": "function"
    },
    {
      "inputs": [
        {
          "internalType": "address",
          "name": "",
          "type": "address"
        }
      ],
      "name": "chainlinkPriceFeeds",
      "outputs": [
        {
          "internalType": "address",
          "name": "",
          "type": "address"
        }
      ],
      "stateMutability": "view",
      "type": "function"
    },
    {
      "inputs": [],
      "name": "ownerAddress",
      "outputs": [
        {
          "internalType": "address",
          "name": "",
          "type": "address"
        }
      ],
      "stateMutability": "view",
      "type": "function"
    },
    {
      "inputs": [
        {
          "internalType": "address",
          "name": "",
          "type": "address"
        }
      ],
      "name": "trustedAccounts",
      "outputs": [
        {
          "internalType": "bool",
          "name": "",
          "type": "bool"
        }
      ],
      "stateMutability": "view",
      "type": "function"
    },
    {
      "inputs": [
        {
          "internalType": "address",
          "name": "_newAccount",
          "type": "address"
        }
      ],
      "name": "addTrustedAccount",
      "outputs": [],
      "stateMutability": "nonpayable",
      "type": "function"
    },
    {
      "inputs": [
        {
          "internalType": "address",
          "name": "_account",
          "type": "address"
        }
      ],
      "name": "toggleTrustedAccount",
      "outputs": [],
      "stateMutability": "nonpayable",
      "type": "function"
    },
    {
      "inputs": [
        {
          "internalType": "address",
          "name": "assetAddress",
          "type": "address"
        },
        {
          "internalType": "uint8",
          "name": "priceOriginNr",
          "type": "uint8"
        }
      ],
      "name": "setPriceOrigin",
      "outputs": [],
      "stateMutability": "nonpayable",
      "type": "function"
    },
    {
      "inputs": [
        {
          "internalType": "address",
          "name": "assetAddress",
          "type": "address"
        },
        {
          "internalType": "address",
          "name": "chainlinkPriceFeedAddress",
          "type": "address"
        }
      ],
      "name": "setChainlinkPriceFeedAddress",
      "outputs": [],
      "stateMutability": "nonpayable",
      "type": "function"
    },
    {
      "inputs": [
        {
          "internalType": "address",
          "name": "_assetAddress",
          "type": "address"
        },
        {
          "internalType": "uint256",
          "name": "_price",
          "type": "uint256"
        }
      ],
      "name": "setPrice",
      "outputs": [],
      "stateMutability": "nonpayable",
      "type": "function"
    },
    {
      "inputs": [
        {
          "components": [
            {
              "internalType": "address",
              "name": "assetAddress",
              "type": "address"
            },
            {
              "internalType": "uint256",
              "name": "newPrice",
              "type": "uint256"
            }
          ],
          "internalType": "struct Oracle.PriceUpdate[]",
          "name": "priceUpdates",
          "type": "tuple[]"
        }
      ],
      "name": "setPrices",
      "outputs": [],
      "stateMutability": "nonpayable",
      "type": "function"
    },
    {
      "inputs": [
        {
          "internalType": "address",
          "name": "assetAddress",
          "type": "address"
        }
      ],
      "name": "getPrice",
      "outputs": [
        {
          "internalType": "uint256",
          "name": "price",
          "type": "uint256"
        },
        {
          "internalType": "uint256",
          "name": "updatedAt",
          "type": "uint256"
        }
      ],
      "stateMutability": "view",
      "type": "function"
    }
  ],
  "bytecode": "0x60806040523480156200001157600080fd5b506040516200156f3803806200156f833981810160405281019062000037919062000264565b336000806101000a81548173ffffffffffffffffffffffffffffffffffffffff021916908373ffffffffffffffffffffffffffffffffffffffff1602179055506200008881620000fc60201b60201c565b6040518060400160405280600181526020014281525060016000600173ffffffffffffffffffffffffffffffffffffffff1673ffffffffffffffffffffffffffffffffffffffff1681526020019081526020016000206000820151816000015560208201518160010155905050506200033f565b6200010c6200016760201b60201c565b6001600460008373ffffffffffffffffffffffffffffffffffffffff1673ffffffffffffffffffffffffffffffffffffffff16815260200190815260200160002060006101000a81548160ff02191690831515021790555050565b60008054906101000a900473ffffffffffffffffffffffffffffffffffffffff1673ffffffffffffffffffffffffffffffffffffffff163373ffffffffffffffffffffffffffffffffffffffff1614620001f8576040517f08c379a0000000000000000000000000000000000000000000000000000000008152600401620001ef906200031d565b60405180910390fd5b565b600080fd5b600073ffffffffffffffffffffffffffffffffffffffff82169050919050565b60006200022c82620001ff565b9050919050565b6200023e816200021f565b81146200024a57600080fd5b50565b6000815190506200025e8162000233565b92915050565b6000602082840312156200027d576200027c620001fa565b5b60006200028d848285016200024d565b91505092915050565b600082825260208201905092915050565b7f43616c6c6572206d7573742062652074686520636f6e7472616374206f776e6560008201527f7221000000000000000000000000000000000000000000000000000000000000602082015250565b60006200030560228362000296565b91506200031282620002a7565b604082019050919050565b600060208201905081810360008301526200033881620002f6565b9050919050565b611220806200034f6000396000f3fe608060405234801561001057600080fd5b50600436106100a85760003560e01c8063966f14de11610071578063966f14de14610150578063a1b5d57c14610180578063a3f36958146101b0578063cc17ceb0146101cc578063d88b8676146101e8578063eef2590d14610204576100a8565b8062e4768b146100ad578063267ec637146100c957806341976e09146100e55780638515c8b5146101165780638f84aa0914610132575b600080fd5b6100c760048036038101906100c29190610a05565b610234565b005b6100e360048036038101906100de9190610a7e565b6102e4565b005b6100ff60048036038101906100fa9190610abe565b6103b2565b60405161010d929190610afa565b60405180910390f35b610130600480360381019061012b9190610b23565b61059b565b005b61013a610625565b6040516101479190610b72565b60405180910390f35b61016a60048036038101906101659190610abe565b610649565b6040516101779190610ba8565b60405180910390f35b61019a60048036038101906101959190610abe565b610669565b6040516101a79190610b72565b60405180910390f35b6101ca60048036038101906101c59190610d71565b61069c565b005b6101e660048036038101906101e19190610abe565b61070d565b005b61020260048036038101906101fd9190610abe565b6107bc565b005b61021e60048036038101906102199190610abe565b61081f565b60405161022b9190610e31565b60405180910390f35b61023c61083f565b604051806040016040528082815260200142815250600160008473ffffffffffffffffffffffffffffffffffffffff1673ffffffffffffffffffffffffffffffffffffffff16815260200190815260200160002060008201518160000155602082015181600101559050507ff9a09e2869a1f88523f00504328d7965866201bafe501573db2e114e3375a08682826040516102d8929190610e4c565b60405180910390a15050565b6102ec6108cd565b60018160ff161115610333576040517f08c379a000000000000000000000000000000000000000000000000000000000815260040161032a90610ef8565b60405180910390fd5b60008160ff1614610345576001610348565b60005b600260008473ffffffffffffffffffffffffffffffffffffffff1673ffffffffffffffffffffffffffffffffffffffff16815260200190815260200160002060006101000a81548160ff021916908360018111156103a9576103a8610dba565b5b02179055505050565b6000806000600260008573ffffffffffffffffffffffffffffffffffffffff1673ffffffffffffffffffffffffffffffffffffffff16815260200190815260200160002060009054906101000a900460ff16905060018081111561041957610418610dba565b5b81600181111561042c5761042b610dba565b5b03610523576000600360008673ffffffffffffffffffffffffffffffffffffffff1673ffffffffffffffffffffffffffffffffffffffff16815260200190815260200160002060009054906101000a900473ffffffffffffffffffffffffffffffffffffffff16905060008190506000808273ffffffffffffffffffffffffffffffffffffffff1663feaf968c6040518163ffffffff1660e01b815260040160a060405180830381865afa1580156104e8573d6000803e3d6000fd5b505050506040513d601f19601f8201168201806040525081019061050c9190610fa5565b509350509250508181965096505050505050610596565b6000600160008673ffffffffffffffffffffffffffffffffffffffff1673ffffffffffffffffffffffffffffffffffffffff168152602001908152602001600020604051806040016040529081600082015481526020016001820154815250509050806000015181602001519350935050505b915091565b6105a36108cd565b80600360008473ffffffffffffffffffffffffffffffffffffffff1673ffffffffffffffffffffffffffffffffffffffff16815260200190815260200160002060006101000a81548173ffffffffffffffffffffffffffffffffffffffff021916908373ffffffffffffffffffffffffffffffffffffffff1602179055505050565b60008054906101000a900473ffffffffffffffffffffffffffffffffffffffff1681565b60046020528060005260406000206000915054906101000a900460ff1681565b60036020528060005260406000206000915054906101000a900473ffffffffffffffffffffffffffffffffffffffff1681565b6106a461083f565b60005b8151811015610709576106f68282815181106106c6576106c5611020565b5b6020026020010151600001518383815181106106e5576106e4611020565b5b602002602001015160200151610234565b80806107019061107e565b9150506106a7565b5050565b6107156108cd565b600460008273ffffffffffffffffffffffffffffffffffffffff1673ffffffffffffffffffffffffffffffffffffffff16815260200190815260200160002060009054906101000a900460ff1615600460008373ffffffffffffffffffffffffffffffffffffffff1673ffffffffffffffffffffffffffffffffffffffff16815260200190815260200160002060006101000a81548160ff02191690831515021790555050565b6107c46108cd565b6001600460008373ffffffffffffffffffffffffffffffffffffffff1673ffffffffffffffffffffffffffffffffffffffff16815260200190815260200160002060006101000a81548160ff02191690831515021790555050565b60026020528060005260406000206000915054906101000a900460ff1681565b600460003373ffffffffffffffffffffffffffffffffffffffff1673ffffffffffffffffffffffffffffffffffffffff16815260200190815260200160002060009054906101000a900460ff166108cb576040517f08c379a00000000000000000000000000000000000000000000000000000000081526004016108c290611138565b60405180910390fd5b565b60008054906101000a900473ffffffffffffffffffffffffffffffffffffffff1673ffffffffffffffffffffffffffffffffffffffff163373ffffffffffffffffffffffffffffffffffffffff161461095b576040517f08c379a0000000000000000000000000000000000000000000000000000000008152600401610952906111ca565b60405180910390fd5b565b6000604051905090565b600080fd5b600080fd5b600073ffffffffffffffffffffffffffffffffffffffff82169050919050565b600061099c82610971565b9050919050565b6109ac81610991565b81146109b757600080fd5b50565b6000813590506109c9816109a3565b92915050565b6000819050919050565b6109e2816109cf565b81146109ed57600080fd5b50565b6000813590506109ff816109d9565b92915050565b60008060408385031215610a1c57610a1b610967565b5b6000610a2a858286016109ba565b9250506020610a3b858286016109f0565b9150509250929050565b600060ff82169050919050565b610a5b81610a45565b8114610a6657600080fd5b50565b600081359050610a7881610a52565b92915050565b60008060408385031215610a9557610a94610967565b5b6000610aa3858286016109ba565b9250506020610ab485828601610a69565b9150509250929050565b600060208284031215610ad457610ad3610967565b5b6000610ae2848285016109ba565b91505092915050565b610af4816109cf565b82525050565b6000604082019050610b0f6000830185610aeb565b610b1c6020830184610aeb565b9392505050565b60008060408385031215610b3a57610b39610967565b5b6000610b48858286016109ba565b9250506020610b59858286016109ba565b9150509250929050565b610b6c81610991565b82525050565b6000602082019050610b876000830184610b63565b92915050565b60008115159050919050565b610ba281610b8d565b82525050565b6000602082019050610bbd6000830184610b99565b92915050565b600080fd5b6000601f19601f8301169050919050565b7f4e487b7100000000000000000000000000000000000000000000000000000000600052604160045260246000fd5b610c1182610bc8565b810181811067ffffffffffffffff82111715610c3057610c2f610bd9565b5b80604052505050565b6000610c4361095d565b9050610c4f8282610c08565b919050565b600067ffffffffffffffff821115610c6f57610c6e610bd9565b5b602082029050602081019050919050565b600080fd5b600080fd5b600060408284031215610ca057610c9f610c85565b5b610caa6040610c39565b90506000610cba848285016109ba565b6000830152506020610cce848285016109f0565b60208301525092915050565b6000610ced610ce884610c54565b610c39565b90508083825260208201905060408402830185811115610d1057610d0f610c80565b5b835b81811015610d395780610d258882610c8a565b845260208401935050604081019050610d12565b5050509392505050565b600082601f830112610d5857610d57610bc3565b5b8135610d68848260208601610cda565b91505092915050565b600060208284031215610d8757610d86610967565b5b600082013567ffffffffffffffff811115610da557610da461096c565b5b610db184828501610d43565b91505092915050565b7f4e487b7100000000000000000000000000000000000000000000000000000000600052602160045260246000fd5b60028110610dfa57610df9610dba565b5b50565b6000819050610e0b82610de9565b919050565b6000610e1b82610dfd565b9050919050565b610e2b81610e10565b82525050565b6000602082019050610e466000830184610e22565b92915050565b6000604082019050610e616000830185610b63565b610e6e6020830184610aeb565b9392505050565b600082825260208201905092915050565b7f50726963654f726967696e2068617320746f206265206c6f776572207468616e60008201527f2031000000000000000000000000000000000000000000000000000000000000602082015250565b6000610ee2602283610e75565b9150610eed82610e86565b604082019050919050565b60006020820190508181036000830152610f1181610ed5565b9050919050565b600069ffffffffffffffffffff82169050919050565b610f3781610f18565b8114610f4257600080fd5b50565b600081519050610f5481610f2e565b92915050565b6000819050919050565b610f6d81610f5a565b8114610f7857600080fd5b50565b600081519050610f8a81610f64565b92915050565b600081519050610f9f816109d9565b92915050565b600080600080600060a08688031215610fc157610fc0610967565b5b6000610fcf88828901610f45565b9550506020610fe088828901610f7b565b9450506040610ff188828901610f90565b935050606061100288828901610f90565b925050608061101388828901610f45565b9150509295509295909350565b7f4e487b7100000000000000000000000000000000000000000000000000000000600052603260045260246000fd5b7f4e487b7100000000000000000000000000000000000000000000000000000000600052601160045260246000fd5b6000611089826109cf565b91507fffffffffffffffffffffffffffffffffffffffffffffffffffffffffffffffff82036110bb576110ba61104f565b5b600182019050919050565b7f43616c6c6572206d75737420626520612074727573746564206163636f756e7460008201527f2100000000000000000000000000000000000000000000000000000000000000602082015250565b6000611122602183610e75565b915061112d826110c6565b604082019050919050565b6000602082019050818103600083015261115181611115565b9050919050565b7f43616c6c6572206d7573742062652074686520636f6e7472616374206f776e6560008201527f7221000000000000000000000000000000000000000000000000000000000000602082015250565b60006111b4602283610e75565b91506111bf82611158565b604082019050919050565b600060208201905081810360008301526111e3816111a7565b905091905056fea264697066735822122069309c4871cfb7152915491438ab4781d3e4578b3c3eaa4f91a52a3566e07b8164736f6c63430008100033",
  "immutableReferences": {},
  "source": "pragma solidity ^0.8.16;\n\nimport \"./interfaces/AggregatorV3Interface.sol\";\n\ncontract Oracle {\n    enum PriceOrigin {\n        Stored,\n        Chainlink\n    }\n\n    address public ownerAddress;\n\n    struct PriceUpdate {\n        address assetAddress;\n        uint256 newPrice;\n    }\n\n    struct PriceInfo {\n        uint256 price;\n        uint256 updatedAt;\n    }\n\n    mapping(address => PriceInfo) assetPrices;\n    mapping(address => PriceOrigin) public assetPriceOrigin;\n    mapping(address => address) public chainlinkPriceFeeds;\n    mapping(address => bool) public trustedAccounts;\n\n    event PriceSet(address asset, uint256 newPrice);\n\n    constructor(address _initTrustedAccount) {\n        ownerAddress = msg.sender;\n        addTrustedAccount(_initTrustedAccount);\n        assetPrices[address(1)] = PriceInfo(1, block.timestamp);\n    }\n\n    function _onlyOwner() private view {\n        require(\n            msg.sender == ownerAddress,\n            \"Caller must be the contract owner!\"\n        );\n    }\n\n    function _onlyTrustedAccounts() private view {\n        require(\n            trustedAccounts[msg.sender],\n            \"Caller must be a trusted account!\"\n        );\n    }\n\n    modifier onlyOwner() {\n        _onlyOwner();\n        _;\n    }\n\n    modifier onlyTrustedAccounts() {\n        _onlyTrustedAccounts();\n        _;\n    }\n\n    function addTrustedAccount(address _newAccount) public onlyOwner {\n        trustedAccounts[_newAccount] = true;\n    }\n\n    function toggleTrustedAccount(address _account) external onlyOwner {\n        trustedAccounts[_account] = !trustedAccounts[_account];\n    }\n\n    function setPriceOrigin(address assetAddress, uint8 priceOriginNr)\n        external\n        onlyOwner\n    {\n        {\n            require(priceOriginNr <= 1, \"PriceOrigin has to be lower than 1\");\n        }\n\n        assetPriceOrigin[assetAddress] = priceOriginNr == 0\n            ? PriceOrigin.Stored\n            : PriceOrigin.Chainlink;\n    }\n\n    function setChainlinkPriceFeedAddress(\n        address assetAddress,\n        address chainlinkPriceFeedAddress\n    ) external onlyOwner {\n        chainlinkPriceFeeds[assetAddress] = chainlinkPriceFeedAddress;\n    }\n\n    function setPrice(address _assetAddress, uint256 _price)\n        public\n        onlyTrustedAccounts\n    {\n        assetPrices[_assetAddress] = PriceInfo(_price, block.timestamp);\n        emit PriceSet(_assetAddress, _price);\n    }\n\n    function setPrices(PriceUpdate[] memory priceUpdates)\n        external\n        onlyTrustedAccounts\n    {\n        for (uint256 i = 0; i < priceUpdates.length; i++) {\n            setPrice(priceUpdates[i].assetAddress, priceUpdates[i].newPrice);\n        }\n    }\n\n    function getPrice(address assetAddress)\n        external\n        view\n        returns (uint256 price, uint256 updatedAt)\n    {\n        PriceOrigin origin = assetPriceOrigin[assetAddress];\n        if (origin == PriceOrigin.Chainlink) {\n            address chainlinkAddress = chainlinkPriceFeeds[assetAddress];\n            AggregatorV3Interface priceFeed = AggregatorV3Interface(\n                chainlinkAddress\n            );\n            (, int256 _price, , uint256 _updatedAt, ) = priceFeed\n                .latestRoundData();\n\n            return (uint256(_price), _updatedAt);\n        }\n        PriceInfo memory pi = assetPrices[assetAddress];\n\n        return (pi.price, pi.updatedAt);\n    }\n}\n",
  "sourcePath": "/home/d4fttasiii/git/portfolium/src/fund-contract/contracts/Oracle.sol",
  "compiler": {
    "name": "solc",
    "version": "0.8.16+commit.07a7930e.Emscripten.clang"
  },
  "schemaVersion": "3.4.9",
  "updatedAt": "2022-12-06T13:02:11.047Z",
  "devdoc": {
    "kind": "dev",
    "methods": {},
    "version": 1
  },
  "userdoc": {
    "kind": "user",
    "methods": {},
    "version": 1
  }
}