{
  "contractName": "Oracle",
  "abi": [
    {
      "inputs": [
        {
          "internalType": "address",
          "name": "_initTrustedAccount",
          "type": "address"
        }
      ],
      "stateMutability": "nonpayable",
      "type": "constructor"
    },
    {
      "anonymous": false,
      "inputs": [
        {
          "indexed": false,
          "internalType": "address",
          "name": "asset",
          "type": "address"
        },
        {
          "indexed": false,
          "internalType": "uint256",
          "name": "newPrice",
          "type": "uint256"
        }
      ],
      "name": "PriceSet",
      "type": "event"
    },
    {
      "inputs": [
        {
          "internalType": "address",
          "name": "",
          "type": "address"
        }
      ],
      "name": "assetPriceOrigin",
      "outputs": [
        {
          "internalType": "enum Oracle.PriceOrigin",
          "name": "",
          "type": "uint8"
        }
      ],
      "stateMutability": "view",
      "type": "function"
    },
    {
      "inputs": [
        {
          "internalType": "address",
          "name": "",
          "type": "address"
        }
      ],
      "name": "chainlinkPriceFeeds",
      "outputs": [
        {
          "internalType": "address",
          "name": "",
          "type": "address"
        }
      ],
      "stateMutability": "view",
      "type": "function"
    },
    {
      "inputs": [],
      "name": "ownerAddress",
      "outputs": [
        {
          "internalType": "address",
          "name": "",
          "type": "address"
        }
      ],
      "stateMutability": "view",
      "type": "function"
    },
    {
      "inputs": [
        {
          "internalType": "address",
          "name": "",
          "type": "address"
        }
      ],
      "name": "trustedAccounts",
      "outputs": [
        {
          "internalType": "bool",
          "name": "",
          "type": "bool"
        }
      ],
      "stateMutability": "view",
      "type": "function"
    },
    {
      "inputs": [
        {
          "internalType": "address",
          "name": "_newAccount",
          "type": "address"
        }
      ],
      "name": "addTrustedAccount",
      "outputs": [],
      "stateMutability": "nonpayable",
      "type": "function"
    },
    {
      "inputs": [
        {
          "internalType": "address",
          "name": "_account",
          "type": "address"
        }
      ],
      "name": "toggleTrustedAccount",
      "outputs": [],
      "stateMutability": "nonpayable",
      "type": "function"
    },
    {
      "inputs": [
        {
          "internalType": "address",
          "name": "assetAddress",
          "type": "address"
        },
        {
          "internalType": "uint8",
          "name": "priceOriginNr",
          "type": "uint8"
        }
      ],
      "name": "setPriceOrigin",
      "outputs": [],
      "stateMutability": "nonpayable",
      "type": "function"
    },
    {
      "inputs": [
        {
          "internalType": "address",
          "name": "assetAddress",
          "type": "address"
        },
        {
          "internalType": "address",
          "name": "chainlinkPriceFeedAddress",
          "type": "address"
        }
      ],
      "name": "setChainlinkPriceFeedAddress",
      "outputs": [],
      "stateMutability": "nonpayable",
      "type": "function"
    },
    {
      "inputs": [
        {
          "internalType": "address",
          "name": "_assetAddress",
          "type": "address"
        },
        {
          "internalType": "uint256",
          "name": "_price",
          "type": "uint256"
        }
      ],
      "name": "setPrice",
      "outputs": [],
      "stateMutability": "nonpayable",
      "type": "function"
    },
    {
      "inputs": [
        {
          "components": [
            {
              "internalType": "address",
              "name": "assetAddress",
              "type": "address"
            },
            {
              "internalType": "uint256",
              "name": "newPrice",
              "type": "uint256"
            }
          ],
          "internalType": "struct Oracle.PriceUpdate[]",
          "name": "priceUpdates",
          "type": "tuple[]"
        }
      ],
      "name": "setPrices",
      "outputs": [],
      "stateMutability": "nonpayable",
      "type": "function"
    },
    {
      "inputs": [
        {
          "internalType": "address",
          "name": "_assetAddress",
          "type": "address"
        }
      ],
      "name": "setAssetTypeNative",
      "outputs": [],
      "stateMutability": "nonpayable",
      "type": "function"
    },
    {
      "inputs": [
        {
          "internalType": "address",
          "name": "_assetAddress",
          "type": "address"
        }
      ],
      "name": "setAssetTypeMirrored",
      "outputs": [],
      "stateMutability": "nonpayable",
      "type": "function"
    },
    {
      "inputs": [
        {
          "internalType": "address",
          "name": "_assetAddress",
          "type": "address"
        }
      ],
      "name": "setAssetTypeErc20",
      "outputs": [],
      "stateMutability": "nonpayable",
      "type": "function"
    },
    {
      "inputs": [
        {
          "internalType": "address",
          "name": "assetAddress",
          "type": "address"
        }
      ],
      "name": "getPrice",
      "outputs": [
        {
          "internalType": "uint256",
          "name": "price",
          "type": "uint256"
        },
        {
          "internalType": "uint256",
          "name": "updatedAt",
          "type": "uint256"
        }
      ],
      "stateMutability": "view",
      "type": "function"
    },
    {
      "inputs": [
        {
          "internalType": "address",
          "name": "_assetAddress",
          "type": "address"
        },
        {
          "internalType": "uint256",
          "name": "_amount",
          "type": "uint256"
        }
      ],
      "name": "getBuyingCost",
      "outputs": [
        {
          "internalType": "uint256",
          "name": "",
          "type": "uint256"
        }
      ],
      "stateMutability": "view",
      "type": "function"
    },
    {
      "inputs": [
        {
          "internalType": "address",
          "name": "_assetAddress",
          "type": "address"
        },
        {
          "internalType": "uint256",
          "name": "_amount",
          "type": "uint256"
        }
      ],
      "name": "getPayoutAmount",
      "outputs": [
        {
          "internalType": "uint256",
          "name": "",
          "type": "uint256"
        }
      ],
      "stateMutability": "view",
      "type": "function"
    }
  ],
  "bytecode": "0x60806040523480156200001157600080fd5b5060405162001bc038038062001bc0833981810160405281019062000037919062000275565b336000806101000a81548173ffffffffffffffffffffffffffffffffffffffff021916908373ffffffffffffffffffffffffffffffffffffffff16021790555062000088816200010d60201b60201c565b62000099336200010d60201b60201c565b6040518060400160405280600181526020014281525060026000600173ffffffffffffffffffffffffffffffffffffffff1673ffffffffffffffffffffffffffffffffffffffff16815260200190815260200160002060008201518160000155602082015181600101559050505062000350565b6200011d6200017860201b60201c565b6001600560008373ffffffffffffffffffffffffffffffffffffffff1673ffffffffffffffffffffffffffffffffffffffff16815260200190815260200160002060006101000a81548160ff02191690831515021790555050565b60008054906101000a900473ffffffffffffffffffffffffffffffffffffffff1673ffffffffffffffffffffffffffffffffffffffff163373ffffffffffffffffffffffffffffffffffffffff161462000209576040517f08c379a000000000000000000000000000000000000000000000000000000000815260040162000200906200032e565b60405180910390fd5b565b600080fd5b600073ffffffffffffffffffffffffffffffffffffffff82169050919050565b60006200023d8262000210565b9050919050565b6200024f8162000230565b81146200025b57600080fd5b50565b6000815190506200026f8162000244565b92915050565b6000602082840312156200028e576200028d6200020b565b5b60006200029e848285016200025e565b91505092915050565b600082825260208201905092915050565b7f43616c6c6572206d7573742062652074686520636f6e7472616374206f776e6560008201527f7221000000000000000000000000000000000000000000000000000000000000602082015250565b600062000316602283620002a7565b91506200032382620002b8565b604082019050919050565b60006020820190508181036000830152620003498162000307565b9050919050565b61186080620003606000396000f3fe608060405234801561001057600080fd5b50600436106100ff5760003560e01c80638f84aa0911610097578063a3f3695811610066578063a3f36958146102bb578063cc17ceb0146102d7578063d88b8676146102f3578063eef2590d1461030f576100ff565b80638f84aa091461020d578063966f14de1461022b57806396b7bab61461025b578063a1b5d57c1461028b576100ff565b8063390b6b36116100d3578063390b6b361461018857806341976e09146101a45780637394f344146101d55780638515c8b5146101f1576100ff565b8062e4768b1461010457806308d499d2146101205780630f105fe11461013c578063267ec6371461016c575b600080fd5b61011e60048036038101906101199190610f3b565b61033f565b005b61013a60048036038101906101359190610f7b565b6103ef565b005b61015660048036038101906101519190610f3b565b610461565b6040516101639190610fb7565b60405180910390f35b6101866004803603810190610181919061100b565b6105bf565b005b6101a2600480360381019061019d9190610f7b565b61068d565b005b6101be60048036038101906101b99190610f7b565b610700565b6040516101cc92919061104b565b60405180910390f35b6101ef60048036038101906101ea9190610f7b565b6108e9565b005b61020b60048036038101906102069190611074565b61095c565b005b6102156109e6565b60405161022291906110c3565b60405180910390f35b61024560048036038101906102409190610f7b565b610a0a565b60405161025291906110f9565b60405180910390f35b61027560048036038101906102709190610f3b565b610a2a565b6040516102829190610fb7565b60405180910390f35b6102a560048036038101906102a09190610f7b565b610b9f565b6040516102b291906110c3565b60405180910390f35b6102d560048036038101906102d091906112c2565b610bd2565b005b6102f160048036038101906102ec9190610f7b565b610c43565b005b61030d60048036038101906103089190610f7b565b610cf2565b005b61032960048036038101906103249190610f7b565b610d55565b6040516103369190611382565b60405180910390f35b610347610d75565b604051806040016040528082815260200142815250600260008473ffffffffffffffffffffffffffffffffffffffff1673ffffffffffffffffffffffffffffffffffffffff16815260200190815260200160002060008201518160000155602082015181600101559050507ff9a09e2869a1f88523f00504328d7965866201bafe501573db2e114e3375a08682826040516103e392919061139d565b60405180910390a15050565b6103f7610d75565b60018060008373ffffffffffffffffffffffffffffffffffffffff1673ffffffffffffffffffffffffffffffffffffffff16815260200190815260200160002060006101000a81548160ff021916908360028111156104595761045861130b565b5b021790555050565b600080600160008573ffffffffffffffffffffffffffffffffffffffff1673ffffffffffffffffffffffffffffffffffffffff16815260200190815260200160002060009054906101000a900460ff16905060006104be85610700565b509050600084826104cf91906113f5565b90506002808111156104e4576104e361130b565b5b8360028111156104f7576104f661130b565b5b0361058957600086905060008173ffffffffffffffffffffffffffffffffffffffff1663e14891916040518163ffffffff1660e01b8152600401602060405180830381865afa15801561054e573d6000803e3d6000fd5b505050506040513d601f19601f820116820180604052508101906105729190611464565b905080836105809190611491565b925050506105b3565b6001600281111561059d5761059c61130b565b5b8360028111156105b0576105af61130b565b5b50505b80935050505092915050565b6105c7610e03565b60018160ff16111561060e576040517f08c379a000000000000000000000000000000000000000000000000000000000815260040161060590611548565b60405180910390fd5b60008160ff1614610620576001610623565b60005b600360008473ffffffffffffffffffffffffffffffffffffffff1673ffffffffffffffffffffffffffffffffffffffff16815260200190815260200160002060006101000a81548160ff021916908360018111156106845761068361130b565b5b02179055505050565b610695610d75565b6000600160008373ffffffffffffffffffffffffffffffffffffffff1673ffffffffffffffffffffffffffffffffffffffff16815260200190815260200160002060006101000a81548160ff021916908360028111156106f8576106f761130b565b5b021790555050565b6000806000600360008573ffffffffffffffffffffffffffffffffffffffff1673ffffffffffffffffffffffffffffffffffffffff16815260200190815260200160002060009054906101000a900460ff1690506001808111156107675761076661130b565b5b81600181111561077a5761077961130b565b5b03610871576000600460008673ffffffffffffffffffffffffffffffffffffffff1673ffffffffffffffffffffffffffffffffffffffff16815260200190815260200160002060009054906101000a900473ffffffffffffffffffffffffffffffffffffffff16905060008190506000808273ffffffffffffffffffffffffffffffffffffffff1663feaf968c6040518163ffffffff1660e01b815260040160a060405180830381865afa158015610836573d6000803e3d6000fd5b505050506040513d601f19601f8201168201806040525081019061085a91906115e0565b5093505092505081819650965050505050506108e4565b6000600260008673ffffffffffffffffffffffffffffffffffffffff1673ffffffffffffffffffffffffffffffffffffffff168152602001908152602001600020604051806040016040529081600082015481526020016001820154815250509050806000015181602001519350935050505b915091565b6108f1610d75565b6002600160008373ffffffffffffffffffffffffffffffffffffffff1673ffffffffffffffffffffffffffffffffffffffff16815260200190815260200160002060006101000a81548160ff021916908360028111156109545761095361130b565b5b021790555050565b610964610e03565b80600460008473ffffffffffffffffffffffffffffffffffffffff1673ffffffffffffffffffffffffffffffffffffffff16815260200190815260200160002060006101000a81548173ffffffffffffffffffffffffffffffffffffffff021916908373ffffffffffffffffffffffffffffffffffffffff1602179055505050565b60008054906101000a900473ffffffffffffffffffffffffffffffffffffffff1681565b60056020528060005260406000206000915054906101000a900460ff1681565b600080600160008573ffffffffffffffffffffffffffffffffffffffff1673ffffffffffffffffffffffffffffffffffffffff16815260200190815260200160002060009054906101000a900460ff1690506000610a8785610700565b50905060008482610a9891906113f5565b9050600280811115610aad57610aac61130b565b5b836002811115610ac057610abf61130b565b5b03610b6857600086905060008173ffffffffffffffffffffffffffffffffffffffff1663e14891916040518163ffffffff1660e01b8152600401602060405180830381865afa158015610b17573d6000803e3d6000fd5b505050506040513d601f19601f82011682018060405250810190610b3b9190611464565b905082811115610b5357600095505050505050610b99565b8083610b5f919061165b565b92505050610b92565b60016002811115610b7c57610b7b61130b565b5b836002811115610b8f57610b8e61130b565b5b50505b8093505050505b92915050565b60046020528060005260406000206000915054906101000a900473ffffffffffffffffffffffffffffffffffffffff1681565b610bda610d75565b60005b8151811015610c3f57610c2c828281518110610bfc57610bfb61168f565b5b602002602001015160000151838381518110610c1b57610c1a61168f565b5b60200260200101516020015161033f565b8080610c37906116be565b915050610bdd565b5050565b610c4b610e03565b600560008273ffffffffffffffffffffffffffffffffffffffff1673ffffffffffffffffffffffffffffffffffffffff16815260200190815260200160002060009054906101000a900460ff1615600560008373ffffffffffffffffffffffffffffffffffffffff1673ffffffffffffffffffffffffffffffffffffffff16815260200190815260200160002060006101000a81548160ff02191690831515021790555050565b610cfa610e03565b6001600560008373ffffffffffffffffffffffffffffffffffffffff1673ffffffffffffffffffffffffffffffffffffffff16815260200190815260200160002060006101000a81548160ff02191690831515021790555050565b60036020528060005260406000206000915054906101000a900460ff1681565b600560003373ffffffffffffffffffffffffffffffffffffffff1673ffffffffffffffffffffffffffffffffffffffff16815260200190815260200160002060009054906101000a900460ff16610e01576040517f08c379a0000000000000000000000000000000000000000000000000000000008152600401610df890611778565b60405180910390fd5b565b60008054906101000a900473ffffffffffffffffffffffffffffffffffffffff1673ffffffffffffffffffffffffffffffffffffffff163373ffffffffffffffffffffffffffffffffffffffff1614610e91576040517f08c379a0000000000000000000000000000000000000000000000000000000008152600401610e889061180a565b60405180910390fd5b565b6000604051905090565b600080fd5b600080fd5b600073ffffffffffffffffffffffffffffffffffffffff82169050919050565b6000610ed282610ea7565b9050919050565b610ee281610ec7565b8114610eed57600080fd5b50565b600081359050610eff81610ed9565b92915050565b6000819050919050565b610f1881610f05565b8114610f2357600080fd5b50565b600081359050610f3581610f0f565b92915050565b60008060408385031215610f5257610f51610e9d565b5b6000610f6085828601610ef0565b9250506020610f7185828601610f26565b9150509250929050565b600060208284031215610f9157610f90610e9d565b5b6000610f9f84828501610ef0565b91505092915050565b610fb181610f05565b82525050565b6000602082019050610fcc6000830184610fa8565b92915050565b600060ff82169050919050565b610fe881610fd2565b8114610ff357600080fd5b50565b60008135905061100581610fdf565b92915050565b6000806040838503121561102257611021610e9d565b5b600061103085828601610ef0565b925050602061104185828601610ff6565b9150509250929050565b60006040820190506110606000830185610fa8565b61106d6020830184610fa8565b9392505050565b6000806040838503121561108b5761108a610e9d565b5b600061109985828601610ef0565b92505060206110aa85828601610ef0565b9150509250929050565b6110bd81610ec7565b82525050565b60006020820190506110d860008301846110b4565b92915050565b60008115159050919050565b6110f3816110de565b82525050565b600060208201905061110e60008301846110ea565b92915050565b600080fd5b6000601f19601f8301169050919050565b7f4e487b7100000000000000000000000000000000000000000000000000000000600052604160045260246000fd5b61116282611119565b810181811067ffffffffffffffff821117156111815761118061112a565b5b80604052505050565b6000611194610e93565b90506111a08282611159565b919050565b600067ffffffffffffffff8211156111c0576111bf61112a565b5b602082029050602081019050919050565b600080fd5b600080fd5b6000604082840312156111f1576111f06111d6565b5b6111fb604061118a565b9050600061120b84828501610ef0565b600083015250602061121f84828501610f26565b60208301525092915050565b600061123e611239846111a5565b61118a565b90508083825260208201905060408402830185811115611261576112606111d1565b5b835b8181101561128a578061127688826111db565b845260208401935050604081019050611263565b5050509392505050565b600082601f8301126112a9576112a8611114565b5b81356112b984826020860161122b565b91505092915050565b6000602082840312156112d8576112d7610e9d565b5b600082013567ffffffffffffffff8111156112f6576112f5610ea2565b5b61130284828501611294565b91505092915050565b7f4e487b7100000000000000000000000000000000000000000000000000000000600052602160045260246000fd5b6002811061134b5761134a61130b565b5b50565b600081905061135c8261133a565b919050565b600061136c8261134e565b9050919050565b61137c81611361565b82525050565b60006020820190506113976000830184611373565b92915050565b60006040820190506113b260008301856110b4565b6113bf6020830184610fa8565b9392505050565b7f4e487b7100000000000000000000000000000000000000000000000000000000600052601160045260246000fd5b600061140082610f05565b915061140b83610f05565b9250817fffffffffffffffffffffffffffffffffffffffffffffffffffffffffffffffff0483118215151615611444576114436113c6565b5b828202905092915050565b60008151905061145e81610f0f565b92915050565b60006020828403121561147a57611479610e9d565b5b60006114888482850161144f565b91505092915050565b600061149c82610f05565b91506114a783610f05565b92508282019050808211156114bf576114be6113c6565b5b92915050565b600082825260208201905092915050565b7f50726963654f726967696e2068617320746f206265206c6f776572207468616e60008201527f2031000000000000000000000000000000000000000000000000000000000000602082015250565b60006115326022836114c5565b915061153d826114d6565b604082019050919050565b6000602082019050818103600083015261156181611525565b9050919050565b600069ffffffffffffffffffff82169050919050565b61158781611568565b811461159257600080fd5b50565b6000815190506115a48161157e565b92915050565b6000819050919050565b6115bd816115aa565b81146115c857600080fd5b50565b6000815190506115da816115b4565b92915050565b600080600080600060a086880312156115fc576115fb610e9d565b5b600061160a88828901611595565b955050602061161b888289016115cb565b945050604061162c8882890161144f565b935050606061163d8882890161144f565b925050608061164e88828901611595565b9150509295509295909350565b600061166682610f05565b915061167183610f05565b9250828203905081811115611689576116886113c6565b5b92915050565b7f4e487b7100000000000000000000000000000000000000000000000000000000600052603260045260246000fd5b60006116c982610f05565b91507fffffffffffffffffffffffffffffffffffffffffffffffffffffffffffffffff82036116fb576116fa6113c6565b5b600182019050919050565b7f43616c6c6572206d75737420626520612074727573746564206163636f756e7460008201527f2100000000000000000000000000000000000000000000000000000000000000602082015250565b60006117626021836114c5565b915061176d82611706565b604082019050919050565b6000602082019050818103600083015261179181611755565b9050919050565b7f43616c6c6572206d7573742062652074686520636f6e7472616374206f776e6560008201527f7221000000000000000000000000000000000000000000000000000000000000602082015250565b60006117f46022836114c5565b91506117ff82611798565b604082019050919050565b60006020820190508181036000830152611823816117e7565b905091905056fea26469706673582212202f9917a7110428e685298d01234192514e3da8efbd49f82e7a3ac893c7e6c5cc64736f6c63430008100033",
  "immutableReferences": {},
  "source": "pragma solidity ^0.8.16;\n\nimport \"./interfaces/AggregatorV3Interface.sol\";\nimport \"./Mirrored.sol\";\n\ncontract Oracle {\n    enum PriceOrigin {\n        Stored,\n        Chainlink\n    }\n\n    enum AssetTypes {\n        Native,\n        ERC20,\n        Mirrored\n    }\n\n    address public ownerAddress;\n\n    struct PriceUpdate {\n        address assetAddress;\n        uint256 newPrice;\n    }\n\n    struct PriceInfo {\n        uint256 price;\n        uint256 updatedAt;\n    }\n\n    mapping(address => AssetTypes) assetTypes;\n    mapping(address => PriceInfo) assetPrices;\n    mapping(address => PriceOrigin) public assetPriceOrigin;\n    mapping(address => address) public chainlinkPriceFeeds;\n    mapping(address => bool) public trustedAccounts;\n\n    event PriceSet(address asset, uint256 newPrice);\n\n    constructor(address _initTrustedAccount) {\n        ownerAddress = msg.sender;\n        addTrustedAccount(_initTrustedAccount);\n        addTrustedAccount(msg.sender);\n        assetPrices[address(1)] = PriceInfo(1, block.timestamp);\n    }\n\n    function _onlyOwner() private view {\n        require(\n            msg.sender == ownerAddress,\n            \"Caller must be the contract owner!\"\n        );\n    }\n\n    function _onlyTrustedAccounts() private view {\n        require(\n            trustedAccounts[msg.sender],\n            \"Caller must be a trusted account!\"\n        );\n    }\n\n    modifier onlyOwner() {\n        _onlyOwner();\n        _;\n    }\n\n    modifier onlyTrustedAccounts() {\n        _onlyTrustedAccounts();\n        _;\n    }\n\n    function addTrustedAccount(address _newAccount) public onlyOwner {\n        trustedAccounts[_newAccount] = true;\n    }\n\n    function toggleTrustedAccount(address _account) external onlyOwner {\n        trustedAccounts[_account] = !trustedAccounts[_account];\n    }\n\n    function setPriceOrigin(address assetAddress, uint8 priceOriginNr)\n        external\n        onlyOwner\n    {\n        {\n            require(priceOriginNr <= 1, \"PriceOrigin has to be lower than 1\");\n        }\n\n        assetPriceOrigin[assetAddress] = priceOriginNr == 0\n            ? PriceOrigin.Stored\n            : PriceOrigin.Chainlink;\n    }\n\n    function setChainlinkPriceFeedAddress(\n        address assetAddress,\n        address chainlinkPriceFeedAddress\n    ) external onlyOwner {\n        chainlinkPriceFeeds[assetAddress] = chainlinkPriceFeedAddress;\n    }\n\n    function setPrice(address _assetAddress, uint256 _price)\n        public\n        onlyTrustedAccounts\n    {\n        assetPrices[_assetAddress] = PriceInfo(_price, block.timestamp);\n        emit PriceSet(_assetAddress, _price);\n    }\n\n    function setPrices(PriceUpdate[] memory priceUpdates)\n        external\n        onlyTrustedAccounts\n    {\n        for (uint256 i = 0; i < priceUpdates.length; i++) {\n            setPrice(priceUpdates[i].assetAddress, priceUpdates[i].newPrice);\n        }\n    }\n\n    function setAssetTypeNative(address _assetAddress)\n        public\n        onlyTrustedAccounts\n    {\n        assetTypes[_assetAddress] = AssetTypes.Native;\n    }\n\n    function setAssetTypeMirrored(address _assetAddress)\n        public\n        onlyTrustedAccounts\n    {\n        assetTypes[_assetAddress] = AssetTypes.Mirrored;\n    }\n\n    function setAssetTypeErc20(address _assetAddress)\n        public\n        onlyTrustedAccounts\n    {\n        assetTypes[_assetAddress] = AssetTypes.ERC20;\n    }\n\n    function getPrice(address assetAddress)\n        public\n        view\n        returns (uint256 price, uint256 updatedAt)\n    {\n        PriceOrigin origin = assetPriceOrigin[assetAddress];\n        if (origin == PriceOrigin.Chainlink) {\n            address chainlinkAddress = chainlinkPriceFeeds[assetAddress];\n            AggregatorV3Interface priceFeed = AggregatorV3Interface(\n                chainlinkAddress\n            );\n            (, int256 _price, , uint256 _updatedAt, ) = priceFeed\n                .latestRoundData();\n\n            return (uint256(_price), _updatedAt);\n        }\n        PriceInfo memory pi = assetPrices[assetAddress];\n\n        return (pi.price, pi.updatedAt);\n    }\n\n    function getBuyingCost(address _assetAddress, uint256 _amount)\n        external\n        view\n        returns (uint256)\n    {\n        AssetTypes assetType = assetTypes[_assetAddress];\n        (uint256 price, ) = getPrice(_assetAddress);\n        uint256 cost = price * _amount;\n\n        if (assetType == AssetTypes.Mirrored) {\n            Mirrored mirrored = Mirrored(_assetAddress);\n            uint256 commission = mirrored.commission();\n            cost += commission;\n        } else if (assetType == AssetTypes.ERC20) {\n            // TODO:\n        }\n\n        return cost;\n    }\n\n    function getPayoutAmount(address _assetAddress, uint256 _amount)\n        external\n        view\n        returns (uint256)\n    {\n        AssetTypes assetType = assetTypes[_assetAddress];\n        (uint256 price, ) = getPrice(_assetAddress);\n        uint256 payoutAmount = price * _amount;\n\n        if (assetType == AssetTypes.Mirrored) {\n            Mirrored mirrored = Mirrored(_assetAddress);\n            uint256 commission = mirrored.commission();\n            if (commission > payoutAmount) {\n                return 0;\n            }\n            payoutAmount -= commission;\n        } else if (assetType == AssetTypes.ERC20) {\n            // TODO\n        }\n\n        return payoutAmount;\n    }\n}\n",
  "sourcePath": "/home/d4fttasiii/git/portfolium/src/fund-contract/contracts/Oracle.sol",
  "compiler": {
    "name": "solc",
    "version": "0.8.16+commit.07a7930e.Emscripten.clang"
  },
  "schemaVersion": "3.4.9",
  "updatedAt": "2022-12-09T14:36:28.703Z",
  "devdoc": {
    "kind": "dev",
    "methods": {},
    "version": 1
  },
  "userdoc": {
    "kind": "user",
    "methods": {},
    "version": 1
  }
}