{
  "contractName": "Oracle",
  "abi": [
    {
      "inputs": [
        {
          "internalType": "address",
          "name": "_initTrustedAccount",
          "type": "address"
        }
      ],
      "stateMutability": "nonpayable",
      "type": "constructor"
    },
    {
      "inputs": [
        {
          "internalType": "address",
          "name": "",
          "type": "address"
        }
      ],
      "name": "assetPriceOrigin",
      "outputs": [
        {
          "internalType": "enum Oracle.PriceOrigin",
          "name": "",
          "type": "uint8"
        }
      ],
      "stateMutability": "view",
      "type": "function"
    },
    {
      "inputs": [
        {
          "internalType": "address",
          "name": "",
          "type": "address"
        }
      ],
      "name": "chainlinkPriceFeeds",
      "outputs": [
        {
          "internalType": "address",
          "name": "",
          "type": "address"
        }
      ],
      "stateMutability": "view",
      "type": "function"
    },
    {
      "inputs": [],
      "name": "ownerAddress",
      "outputs": [
        {
          "internalType": "address",
          "name": "",
          "type": "address"
        }
      ],
      "stateMutability": "view",
      "type": "function"
    },
    {
      "inputs": [
        {
          "internalType": "address",
          "name": "",
          "type": "address"
        }
      ],
      "name": "trustedAccounts",
      "outputs": [
        {
          "internalType": "bool",
          "name": "",
          "type": "bool"
        }
      ],
      "stateMutability": "view",
      "type": "function"
    },
    {
      "inputs": [
        {
          "internalType": "address",
          "name": "_newAccount",
          "type": "address"
        }
      ],
      "name": "addTrustedAccount",
      "outputs": [],
      "stateMutability": "nonpayable",
      "type": "function"
    },
    {
      "inputs": [
        {
          "internalType": "address",
          "name": "_account",
          "type": "address"
        }
      ],
      "name": "toggleTrustedAccount",
      "outputs": [],
      "stateMutability": "nonpayable",
      "type": "function"
    },
    {
      "inputs": [
        {
          "internalType": "address",
          "name": "assetAddress",
          "type": "address"
        },
        {
          "internalType": "uint8",
          "name": "priceOriginNr",
          "type": "uint8"
        }
      ],
      "name": "setPriceOrigin",
      "outputs": [],
      "stateMutability": "nonpayable",
      "type": "function"
    },
    {
      "inputs": [
        {
          "internalType": "address",
          "name": "assetAddress",
          "type": "address"
        },
        {
          "internalType": "address",
          "name": "chainlinkPriceFeedAddress",
          "type": "address"
        }
      ],
      "name": "setChainlinkPriceFeedAddress",
      "outputs": [],
      "stateMutability": "nonpayable",
      "type": "function"
    },
    {
      "inputs": [
        {
          "internalType": "address",
          "name": "assetAddress",
          "type": "address"
        },
        {
          "internalType": "uint256",
          "name": "newPrice",
          "type": "uint256"
        }
      ],
      "name": "setPrice",
      "outputs": [],
      "stateMutability": "nonpayable",
      "type": "function"
    },
    {
      "inputs": [
        {
          "components": [
            {
              "internalType": "address",
              "name": "assetAddress",
              "type": "address"
            },
            {
              "internalType": "uint256",
              "name": "newPrice",
              "type": "uint256"
            }
          ],
          "internalType": "struct Oracle.PriceUpdate[]",
          "name": "priceUpdates",
          "type": "tuple[]"
        }
      ],
      "name": "setPrices",
      "outputs": [],
      "stateMutability": "nonpayable",
      "type": "function"
    },
    {
      "inputs": [
        {
          "internalType": "address",
          "name": "assetAddress",
          "type": "address"
        }
      ],
      "name": "getPrice",
      "outputs": [
        {
          "internalType": "uint256",
          "name": "price",
          "type": "uint256"
        },
        {
          "internalType": "uint256",
          "name": "updatedAt",
          "type": "uint256"
        }
      ],
      "stateMutability": "view",
      "type": "function"
    }
  ],
  "bytecode": "0x60806040523480156200001157600080fd5b506040516200150d3803806200150d833981810160405281019062000037919062000264565b336000806101000a81548173ffffffffffffffffffffffffffffffffffffffff021916908373ffffffffffffffffffffffffffffffffffffffff1602179055506200008881620000fc60201b60201c565b6040518060400160405280600181526020014281525060016000600173ffffffffffffffffffffffffffffffffffffffff1673ffffffffffffffffffffffffffffffffffffffff1681526020019081526020016000206000820151816000015560208201518160010155905050506200033f565b6200010c6200016760201b60201c565b6001600460008373ffffffffffffffffffffffffffffffffffffffff1673ffffffffffffffffffffffffffffffffffffffff16815260200190815260200160002060006101000a81548160ff02191690831515021790555050565b60008054906101000a900473ffffffffffffffffffffffffffffffffffffffff1673ffffffffffffffffffffffffffffffffffffffff163373ffffffffffffffffffffffffffffffffffffffff1614620001f8576040517f08c379a0000000000000000000000000000000000000000000000000000000008152600401620001ef906200031d565b60405180910390fd5b565b600080fd5b600073ffffffffffffffffffffffffffffffffffffffff82169050919050565b60006200022c82620001ff565b9050919050565b6200023e816200021f565b81146200024a57600080fd5b50565b6000815190506200025e8162000233565b92915050565b6000602082840312156200027d576200027c620001fa565b5b60006200028d848285016200024d565b91505092915050565b600082825260208201905092915050565b7f43616c6c6572206d7573742062652074686520636f6e7472616374206f776e6560008201527f7221000000000000000000000000000000000000000000000000000000000000602082015250565b60006200030560228362000296565b91506200031282620002a7565b604082019050919050565b600060208201905081810360008301526200033881620002f6565b9050919050565b6111be806200034f6000396000f3fe608060405234801561001057600080fd5b50600436106100a85760003560e01c8063966f14de11610071578063966f14de14610150578063a1b5d57c14610180578063a3f36958146101b0578063cc17ceb0146101cc578063d88b8676146101e8578063eef2590d14610204576100a8565b8062e4768b146100ad578063267ec637146100c957806341976e09146100e55780638515c8b5146101165780638f84aa0914610132575b600080fd5b6100c760048036038101906100c291906109cc565b610234565b005b6100e360048036038101906100de9190610a45565b6102ab565b005b6100ff60048036038101906100fa9190610a85565b610379565b60405161010d929190610ac1565b60405180910390f35b610130600480360381019061012b9190610aea565b610562565b005b61013a6105ec565b6040516101479190610b39565b60405180910390f35b61016a60048036038101906101659190610a85565b610610565b6040516101779190610b6f565b60405180910390f35b61019a60048036038101906101959190610a85565b610630565b6040516101a79190610b39565b60405180910390f35b6101ca60048036038101906101c59190610d38565b610663565b005b6101e660048036038101906101e19190610a85565b6106d4565b005b61020260048036038101906101fd9190610a85565b610783565b005b61021e60048036038101906102199190610a85565b6107e6565b60405161022b9190610df8565b60405180910390f35b61023c610806565b604051806040016040528082815260200142815250600160008473ffffffffffffffffffffffffffffffffffffffff1673ffffffffffffffffffffffffffffffffffffffff16815260200190815260200160002060008201518160000155602082015181600101559050505050565b6102b3610894565b60018160ff1611156102fa576040517f08c379a00000000000000000000000000000000000000000000000000000000081526004016102f190610e96565b60405180910390fd5b60008160ff161461030c57600161030f565b60005b600260008473ffffffffffffffffffffffffffffffffffffffff1673ffffffffffffffffffffffffffffffffffffffff16815260200190815260200160002060006101000a81548160ff021916908360018111156103705761036f610d81565b5b02179055505050565b6000806000600260008573ffffffffffffffffffffffffffffffffffffffff1673ffffffffffffffffffffffffffffffffffffffff16815260200190815260200160002060009054906101000a900460ff1690506001808111156103e0576103df610d81565b5b8160018111156103f3576103f2610d81565b5b036104ea576000600360008673ffffffffffffffffffffffffffffffffffffffff1673ffffffffffffffffffffffffffffffffffffffff16815260200190815260200160002060009054906101000a900473ffffffffffffffffffffffffffffffffffffffff16905060008190506000808273ffffffffffffffffffffffffffffffffffffffff1663feaf968c6040518163ffffffff1660e01b815260040160a060405180830381865afa1580156104af573d6000803e3d6000fd5b505050506040513d601f19601f820116820180604052508101906104d39190610f43565b50935050925050818196509650505050505061055d565b6000600160008673ffffffffffffffffffffffffffffffffffffffff1673ffffffffffffffffffffffffffffffffffffffff168152602001908152602001600020604051806040016040529081600082015481526020016001820154815250509050806000015181602001519350935050505b915091565b61056a610894565b80600360008473ffffffffffffffffffffffffffffffffffffffff1673ffffffffffffffffffffffffffffffffffffffff16815260200190815260200160002060006101000a81548173ffffffffffffffffffffffffffffffffffffffff021916908373ffffffffffffffffffffffffffffffffffffffff1602179055505050565b60008054906101000a900473ffffffffffffffffffffffffffffffffffffffff1681565b60046020528060005260406000206000915054906101000a900460ff1681565b60036020528060005260406000206000915054906101000a900473ffffffffffffffffffffffffffffffffffffffff1681565b61066b610806565b60005b81518110156106d0576106bd82828151811061068d5761068c610fbe565b5b6020026020010151600001518383815181106106ac576106ab610fbe565b5b602002602001015160200151610234565b80806106c89061101c565b91505061066e565b5050565b6106dc610894565b600460008273ffffffffffffffffffffffffffffffffffffffff1673ffffffffffffffffffffffffffffffffffffffff16815260200190815260200160002060009054906101000a900460ff1615600460008373ffffffffffffffffffffffffffffffffffffffff1673ffffffffffffffffffffffffffffffffffffffff16815260200190815260200160002060006101000a81548160ff02191690831515021790555050565b61078b610894565b6001600460008373ffffffffffffffffffffffffffffffffffffffff1673ffffffffffffffffffffffffffffffffffffffff16815260200190815260200160002060006101000a81548160ff02191690831515021790555050565b60026020528060005260406000206000915054906101000a900460ff1681565b600460003373ffffffffffffffffffffffffffffffffffffffff1673ffffffffffffffffffffffffffffffffffffffff16815260200190815260200160002060009054906101000a900460ff16610892576040517f08c379a0000000000000000000000000000000000000000000000000000000008152600401610889906110d6565b60405180910390fd5b565b60008054906101000a900473ffffffffffffffffffffffffffffffffffffffff1673ffffffffffffffffffffffffffffffffffffffff163373ffffffffffffffffffffffffffffffffffffffff1614610922576040517f08c379a000000000000000000000000000000000000000000000000000000000815260040161091990611168565b60405180910390fd5b565b6000604051905090565b600080fd5b600080fd5b600073ffffffffffffffffffffffffffffffffffffffff82169050919050565b600061096382610938565b9050919050565b61097381610958565b811461097e57600080fd5b50565b6000813590506109908161096a565b92915050565b6000819050919050565b6109a981610996565b81146109b457600080fd5b50565b6000813590506109c6816109a0565b92915050565b600080604083850312156109e3576109e261092e565b5b60006109f185828601610981565b9250506020610a02858286016109b7565b9150509250929050565b600060ff82169050919050565b610a2281610a0c565b8114610a2d57600080fd5b50565b600081359050610a3f81610a19565b92915050565b60008060408385031215610a5c57610a5b61092e565b5b6000610a6a85828601610981565b9250506020610a7b85828601610a30565b9150509250929050565b600060208284031215610a9b57610a9a61092e565b5b6000610aa984828501610981565b91505092915050565b610abb81610996565b82525050565b6000604082019050610ad66000830185610ab2565b610ae36020830184610ab2565b9392505050565b60008060408385031215610b0157610b0061092e565b5b6000610b0f85828601610981565b9250506020610b2085828601610981565b9150509250929050565b610b3381610958565b82525050565b6000602082019050610b4e6000830184610b2a565b92915050565b60008115159050919050565b610b6981610b54565b82525050565b6000602082019050610b846000830184610b60565b92915050565b600080fd5b6000601f19601f8301169050919050565b7f4e487b7100000000000000000000000000000000000000000000000000000000600052604160045260246000fd5b610bd882610b8f565b810181811067ffffffffffffffff82111715610bf757610bf6610ba0565b5b80604052505050565b6000610c0a610924565b9050610c168282610bcf565b919050565b600067ffffffffffffffff821115610c3657610c35610ba0565b5b602082029050602081019050919050565b600080fd5b600080fd5b600060408284031215610c6757610c66610c4c565b5b610c716040610c00565b90506000610c8184828501610981565b6000830152506020610c95848285016109b7565b60208301525092915050565b6000610cb4610caf84610c1b565b610c00565b90508083825260208201905060408402830185811115610cd757610cd6610c47565b5b835b81811015610d005780610cec8882610c51565b845260208401935050604081019050610cd9565b5050509392505050565b600082601f830112610d1f57610d1e610b8a565b5b8135610d2f848260208601610ca1565b91505092915050565b600060208284031215610d4e57610d4d61092e565b5b600082013567ffffffffffffffff811115610d6c57610d6b610933565b5b610d7884828501610d0a565b91505092915050565b7f4e487b7100000000000000000000000000000000000000000000000000000000600052602160045260246000fd5b60028110610dc157610dc0610d81565b5b50565b6000819050610dd282610db0565b919050565b6000610de282610dc4565b9050919050565b610df281610dd7565b82525050565b6000602082019050610e0d6000830184610de9565b92915050565b600082825260208201905092915050565b7f50726963654f726967696e2068617320746f206265206c6f776572207468616e60008201527f2031000000000000000000000000000000000000000000000000000000000000602082015250565b6000610e80602283610e13565b9150610e8b82610e24565b604082019050919050565b60006020820190508181036000830152610eaf81610e73565b9050919050565b600069ffffffffffffffffffff82169050919050565b610ed581610eb6565b8114610ee057600080fd5b50565b600081519050610ef281610ecc565b92915050565b6000819050919050565b610f0b81610ef8565b8114610f1657600080fd5b50565b600081519050610f2881610f02565b92915050565b600081519050610f3d816109a0565b92915050565b600080600080600060a08688031215610f5f57610f5e61092e565b5b6000610f6d88828901610ee3565b9550506020610f7e88828901610f19565b9450506040610f8f88828901610f2e565b9350506060610fa088828901610f2e565b9250506080610fb188828901610ee3565b9150509295509295909350565b7f4e487b7100000000000000000000000000000000000000000000000000000000600052603260045260246000fd5b7f4e487b7100000000000000000000000000000000000000000000000000000000600052601160045260246000fd5b600061102782610996565b91507fffffffffffffffffffffffffffffffffffffffffffffffffffffffffffffffff820361105957611058610fed565b5b600182019050919050565b7f43616c6c6572206d75737420626520612074727573746564206163636f756e7460008201527f2100000000000000000000000000000000000000000000000000000000000000602082015250565b60006110c0602183610e13565b91506110cb82611064565b604082019050919050565b600060208201905081810360008301526110ef816110b3565b9050919050565b7f43616c6c6572206d7573742062652074686520636f6e7472616374206f776e6560008201527f7221000000000000000000000000000000000000000000000000000000000000602082015250565b6000611152602283610e13565b915061115d826110f6565b604082019050919050565b6000602082019050818103600083015261118181611145565b905091905056fea2646970667358221220ceac96434b50b901464b0b3e157f17a6f39ed7b7a7ed353bf34172552118a1c264736f6c63430008100033",
  "immutableReferences": {},
  "source": "pragma solidity ^0.8.16;\n\nimport \"./interfaces/AggregatorV3Interface.sol\";\n\ncontract Oracle {\n    enum PriceOrigin {\n        Stored,\n        Chainlink\n    }\n\n    address public ownerAddress;\n\n    struct PriceUpdate {\n        address assetAddress;\n        uint256 newPrice;\n    }\n\n    struct PriceInfo {\n        uint256 price;\n        uint256 updatedAt;\n    }\n\n    mapping(address => PriceInfo) assetPrices;\n    mapping(address => PriceOrigin) public assetPriceOrigin;\n    mapping(address => address) public chainlinkPriceFeeds;\n    mapping(address => bool) public trustedAccounts;\n\n    constructor(address _initTrustedAccount) {\n        ownerAddress = msg.sender;\n        addTrustedAccount(_initTrustedAccount);\n        assetPrices[address(1)] = PriceInfo(1, block.timestamp);\n    }\n\n    function _onlyOwner() private view {\n        require(\n            msg.sender == ownerAddress,\n            \"Caller must be the contract owner!\"\n        );\n    }\n\n    function _onlyTrustedAccounts() private view {\n        require(\n            trustedAccounts[msg.sender],\n            \"Caller must be a trusted account!\"\n        );\n    }\n\n    modifier onlyOwner() {\n        _onlyOwner();\n        _;\n    }\n\n    modifier onlyTrustedAccounts() {\n        _onlyTrustedAccounts();\n        _;\n    }\n\n    function addTrustedAccount(address _newAccount) public onlyOwner {\n        trustedAccounts[_newAccount] = true;\n    }\n\n    function toggleTrustedAccount(address _account) external onlyOwner {\n        trustedAccounts[_account] = !trustedAccounts[_account];\n    }\n\n    function setPriceOrigin(address assetAddress, uint8 priceOriginNr)\n        external\n        onlyOwner\n    {\n        {\n            require(priceOriginNr <= 1, \"PriceOrigin has to be lower than 1\");\n        }\n\n        assetPriceOrigin[assetAddress] = priceOriginNr == 0\n            ? PriceOrigin.Stored\n            : PriceOrigin.Chainlink;\n    }\n\n    function setChainlinkPriceFeedAddress(\n        address assetAddress,\n        address chainlinkPriceFeedAddress\n    ) external onlyOwner {\n        chainlinkPriceFeeds[assetAddress] = chainlinkPriceFeedAddress;\n    }\n\n    function setPrice(address assetAddress, uint256 newPrice)\n        public\n        onlyTrustedAccounts\n    {\n        assetPrices[assetAddress] = PriceInfo(newPrice, block.timestamp);\n    }\n\n    function setPrices(PriceUpdate[] memory priceUpdates)\n        external\n        onlyTrustedAccounts\n    {\n        for (uint256 i = 0; i < priceUpdates.length; i++) {\n            setPrice(priceUpdates[i].assetAddress, priceUpdates[i].newPrice);\n        }\n    }\n\n    function getPrice(address assetAddress)\n        external\n        view\n        returns (uint256 price, uint256 updatedAt)\n    {\n        PriceOrigin origin = assetPriceOrigin[assetAddress];\n        if (origin == PriceOrigin.Chainlink) {\n            address chainlinkAddress = chainlinkPriceFeeds[assetAddress];\n            AggregatorV3Interface priceFeed = AggregatorV3Interface(\n                chainlinkAddress\n            );\n            (, int256 _price, , uint256 _updatedAt, ) = priceFeed\n                .latestRoundData();\n\n            return (uint256(_price), _updatedAt);\n        }\n        PriceInfo memory pi = assetPrices[assetAddress];\n\n        return (pi.price, pi.updatedAt);\n    }\n}\n",
  "sourcePath": "/home/d4fttasiii/git/portfolium/src/fund-contract/contracts/Oracle.sol",
  "compiler": {
    "name": "solc",
    "version": "0.8.16+commit.07a7930e.Emscripten.clang"
  },
  "schemaVersion": "3.4.9",
  "updatedAt": "2022-11-27T03:44:32.113Z",
  "devdoc": {
    "kind": "dev",
    "methods": {},
    "version": 1
  },
  "userdoc": {
    "kind": "user",
    "methods": {},
    "version": 1
  }
}