{
  "contractName": "Oracle",
  "abi": [
    {
      "inputs": [
        {
          "internalType": "address",
          "name": "_applicationAddress",
          "type": "address"
        }
      ],
      "stateMutability": "nonpayable",
      "type": "constructor"
    },
    {
      "inputs": [],
      "name": "applicationAddress",
      "outputs": [
        {
          "internalType": "address",
          "name": "",
          "type": "address"
        }
      ],
      "stateMutability": "view",
      "type": "function",
      "constant": true
    },
    {
      "inputs": [
        {
          "internalType": "address",
          "name": "",
          "type": "address"
        }
      ],
      "name": "assetPriceOrigin",
      "outputs": [
        {
          "internalType": "enum Oracle.PriceOrigin",
          "name": "",
          "type": "uint8"
        }
      ],
      "stateMutability": "view",
      "type": "function",
      "constant": true
    },
    {
      "inputs": [
        {
          "internalType": "address",
          "name": "",
          "type": "address"
        }
      ],
      "name": "chainlinkPriceFeeds",
      "outputs": [
        {
          "internalType": "address",
          "name": "",
          "type": "address"
        }
      ],
      "stateMutability": "view",
      "type": "function",
      "constant": true
    },
    {
      "inputs": [],
      "name": "ownerAddress",
      "outputs": [
        {
          "internalType": "address",
          "name": "",
          "type": "address"
        }
      ],
      "stateMutability": "view",
      "type": "function",
      "constant": true
    },
    {
      "inputs": [
        {
          "internalType": "address",
          "name": "newApplicationAddress",
          "type": "address"
        }
      ],
      "name": "setApplicationAddress",
      "outputs": [],
      "stateMutability": "nonpayable",
      "type": "function"
    },
    {
      "inputs": [
        {
          "internalType": "address",
          "name": "assetAddress",
          "type": "address"
        },
        {
          "internalType": "uint8",
          "name": "priceOriginNr",
          "type": "uint8"
        }
      ],
      "name": "setPriceOrigin",
      "outputs": [],
      "stateMutability": "nonpayable",
      "type": "function"
    },
    {
      "inputs": [
        {
          "internalType": "address",
          "name": "assetAddress",
          "type": "address"
        },
        {
          "internalType": "address",
          "name": "chainlinkPriceFeedAddress",
          "type": "address"
        }
      ],
      "name": "setChainlinkPriceFeedAddress",
      "outputs": [],
      "stateMutability": "nonpayable",
      "type": "function"
    },
    {
      "inputs": [
        {
          "internalType": "address",
          "name": "assetAddress",
          "type": "address"
        },
        {
          "internalType": "uint256",
          "name": "newPrice",
          "type": "uint256"
        }
      ],
      "name": "setPrice",
      "outputs": [],
      "stateMutability": "nonpayable",
      "type": "function"
    },
    {
      "inputs": [
        {
          "components": [
            {
              "internalType": "address",
              "name": "assetAddress",
              "type": "address"
            },
            {
              "internalType": "uint256",
              "name": "newPrice",
              "type": "uint256"
            }
          ],
          "internalType": "struct Oracle.PriceUpdate[]",
          "name": "priceUpdates",
          "type": "tuple[]"
        }
      ],
      "name": "setPrices",
      "outputs": [],
      "stateMutability": "nonpayable",
      "type": "function"
    },
    {
      "inputs": [
        {
          "internalType": "address",
          "name": "assetAddress",
          "type": "address"
        }
      ],
      "name": "getPrice",
      "outputs": [
        {
          "internalType": "uint256",
          "name": "price",
          "type": "uint256"
        },
        {
          "internalType": "uint256",
          "name": "updatedAt",
          "type": "uint256"
        }
      ],
      "stateMutability": "view",
      "type": "function",
      "constant": true
    }
  ],
  "bytecode": "0x60806040523480156200001157600080fd5b506040516200126b3803806200126b833981810160405281019062000037919062000196565b336000806101000a81548173ffffffffffffffffffffffffffffffffffffffff021916908373ffffffffffffffffffffffffffffffffffffffff16021790555080600160006101000a81548173ffffffffffffffffffffffffffffffffffffffff021916908373ffffffffffffffffffffffffffffffffffffffff1602179055506040518060400160405280600181526020014281525060026000600173ffffffffffffffffffffffffffffffffffffffff1673ffffffffffffffffffffffffffffffffffffffff168152602001908152602001600020600082015181600001556020820151816001015590505050620001c8565b600080fd5b600073ffffffffffffffffffffffffffffffffffffffff82169050919050565b60006200015e8262000131565b9050919050565b620001708162000151565b81146200017c57600080fd5b50565b600081519050620001908162000165565b92915050565b600060208284031215620001af57620001ae6200012c565b5b6000620001bf848285016200017f565b91505092915050565b61109380620001d86000396000f3fe608060405234801561001057600080fd5b506004361061009d5760003560e01c80638f63ed90116100665780638f63ed90146101455780638f84aa0914610161578063a1b5d57c1461017f578063a3f36958146101af578063eef2590d146101cb5761009d565b8062e4768b146100a2578063267ec637146100be57806341976e09146100da5780638515c8b51461010b5780638bed9d1814610127575b600080fd5b6100bc60048036038101906100b791906108d7565b6101fb565b005b6100d860048036038101906100d39190610950565b610272565b005b6100f460048036038101906100ef9190610990565b610340565b6040516101029291906109cc565b60405180910390f35b610125600480360381019061012091906109f5565b610529565b005b61012f6105b3565b60405161013c9190610a44565b60405180910390f35b61015f600480360381019061015a9190610990565b6105d9565b005b610169610625565b6040516101769190610a44565b60405180910390f35b61019960048036038101906101949190610990565b610649565b6040516101a69190610a44565b60405180910390f35b6101c960048036038101906101c49190610c0d565b61067c565b005b6101e560048036038101906101e09190610990565b6106ed565b6040516101f29190610ccd565b60405180910390f35b61020361070d565b604051806040016040528082815260200142815250600260008473ffffffffffffffffffffffffffffffffffffffff1673ffffffffffffffffffffffffffffffffffffffff16815260200190815260200160002060008201518160000155602082015181600101559050505050565b61027a61079f565b60018160ff1611156102c1576040517f08c379a00000000000000000000000000000000000000000000000000000000081526004016102b890610d6b565b60405180910390fd5b60008160ff16146102d35760016102d6565b60005b600360008473ffffffffffffffffffffffffffffffffffffffff1673ffffffffffffffffffffffffffffffffffffffff16815260200190815260200160002060006101000a81548160ff0219169083600181111561033757610336610c56565b5b02179055505050565b6000806000600360008573ffffffffffffffffffffffffffffffffffffffff1673ffffffffffffffffffffffffffffffffffffffff16815260200190815260200160002060009054906101000a900460ff1690506001808111156103a7576103a6610c56565b5b8160018111156103ba576103b9610c56565b5b036104b1576000600460008673ffffffffffffffffffffffffffffffffffffffff1673ffffffffffffffffffffffffffffffffffffffff16815260200190815260200160002060009054906101000a900473ffffffffffffffffffffffffffffffffffffffff16905060008190506000808273ffffffffffffffffffffffffffffffffffffffff1663feaf968c6040518163ffffffff1660e01b815260040160a060405180830381865afa158015610476573d6000803e3d6000fd5b505050506040513d601f19601f8201168201806040525081019061049a9190610e18565b509350509250508181965096505050505050610524565b6000600260008673ffffffffffffffffffffffffffffffffffffffff1673ffffffffffffffffffffffffffffffffffffffff168152602001908152602001600020604051806040016040529081600082015481526020016001820154815250509050806000015181602001519350935050505b915091565b61053161079f565b80600460008473ffffffffffffffffffffffffffffffffffffffff1673ffffffffffffffffffffffffffffffffffffffff16815260200190815260200160002060006101000a81548173ffffffffffffffffffffffffffffffffffffffff021916908373ffffffffffffffffffffffffffffffffffffffff1602179055505050565b600160009054906101000a900473ffffffffffffffffffffffffffffffffffffffff1681565b6105e161079f565b80600160006101000a81548173ffffffffffffffffffffffffffffffffffffffff021916908373ffffffffffffffffffffffffffffffffffffffff16021790555050565b60008054906101000a900473ffffffffffffffffffffffffffffffffffffffff1681565b60046020528060005260406000206000915054906101000a900473ffffffffffffffffffffffffffffffffffffffff1681565b61068461070d565b60005b81518110156106e9576106d68282815181106106a6576106a5610e93565b5b6020026020010151600001518383815181106106c5576106c4610e93565b5b6020026020010151602001516101fb565b80806106e190610ef1565b915050610687565b5050565b60036020528060005260406000206000915054906101000a900460ff1681565b3373ffffffffffffffffffffffffffffffffffffffff16600160009054906101000a900473ffffffffffffffffffffffffffffffffffffffff1673ffffffffffffffffffffffffffffffffffffffff161461079d576040517f08c379a000000000000000000000000000000000000000000000000000000000815260040161079490610fab565b60405180910390fd5b565b60008054906101000a900473ffffffffffffffffffffffffffffffffffffffff1673ffffffffffffffffffffffffffffffffffffffff163373ffffffffffffffffffffffffffffffffffffffff161461082d576040517f08c379a00000000000000000000000000000000000000000000000000000000081526004016108249061103d565b60405180910390fd5b565b6000604051905090565b600080fd5b600080fd5b600073ffffffffffffffffffffffffffffffffffffffff82169050919050565b600061086e82610843565b9050919050565b61087e81610863565b811461088957600080fd5b50565b60008135905061089b81610875565b92915050565b6000819050919050565b6108b4816108a1565b81146108bf57600080fd5b50565b6000813590506108d1816108ab565b92915050565b600080604083850312156108ee576108ed610839565b5b60006108fc8582860161088c565b925050602061090d858286016108c2565b9150509250929050565b600060ff82169050919050565b61092d81610917565b811461093857600080fd5b50565b60008135905061094a81610924565b92915050565b6000806040838503121561096757610966610839565b5b60006109758582860161088c565b92505060206109868582860161093b565b9150509250929050565b6000602082840312156109a6576109a5610839565b5b60006109b48482850161088c565b91505092915050565b6109c6816108a1565b82525050565b60006040820190506109e160008301856109bd565b6109ee60208301846109bd565b9392505050565b60008060408385031215610a0c57610a0b610839565b5b6000610a1a8582860161088c565b9250506020610a2b8582860161088c565b9150509250929050565b610a3e81610863565b82525050565b6000602082019050610a596000830184610a35565b92915050565b600080fd5b6000601f19601f8301169050919050565b7f4e487b7100000000000000000000000000000000000000000000000000000000600052604160045260246000fd5b610aad82610a64565b810181811067ffffffffffffffff82111715610acc57610acb610a75565b5b80604052505050565b6000610adf61082f565b9050610aeb8282610aa4565b919050565b600067ffffffffffffffff821115610b0b57610b0a610a75565b5b602082029050602081019050919050565b600080fd5b600080fd5b600060408284031215610b3c57610b3b610b21565b5b610b466040610ad5565b90506000610b568482850161088c565b6000830152506020610b6a848285016108c2565b60208301525092915050565b6000610b89610b8484610af0565b610ad5565b90508083825260208201905060408402830185811115610bac57610bab610b1c565b5b835b81811015610bd55780610bc18882610b26565b845260208401935050604081019050610bae565b5050509392505050565b600082601f830112610bf457610bf3610a5f565b5b8135610c04848260208601610b76565b91505092915050565b600060208284031215610c2357610c22610839565b5b600082013567ffffffffffffffff811115610c4157610c4061083e565b5b610c4d84828501610bdf565b91505092915050565b7f4e487b7100000000000000000000000000000000000000000000000000000000600052602160045260246000fd5b60028110610c9657610c95610c56565b5b50565b6000819050610ca782610c85565b919050565b6000610cb782610c99565b9050919050565b610cc781610cac565b82525050565b6000602082019050610ce26000830184610cbe565b92915050565b600082825260208201905092915050565b7f50726963654f726967696e2068617320746f206265206c6f776572207468616e60008201527f2031000000000000000000000000000000000000000000000000000000000000602082015250565b6000610d55602283610ce8565b9150610d6082610cf9565b604082019050919050565b60006020820190508181036000830152610d8481610d48565b9050919050565b600069ffffffffffffffffffff82169050919050565b610daa81610d8b565b8114610db557600080fd5b50565b600081519050610dc781610da1565b92915050565b6000819050919050565b610de081610dcd565b8114610deb57600080fd5b50565b600081519050610dfd81610dd7565b92915050565b600081519050610e12816108ab565b92915050565b600080600080600060a08688031215610e3457610e33610839565b5b6000610e4288828901610db8565b9550506020610e5388828901610dee565b9450506040610e6488828901610e03565b9350506060610e7588828901610e03565b9250506080610e8688828901610db8565b9150509295509295909350565b7f4e487b7100000000000000000000000000000000000000000000000000000000600052603260045260246000fd5b7f4e487b7100000000000000000000000000000000000000000000000000000000600052601160045260246000fd5b6000610efc826108a1565b91507fffffffffffffffffffffffffffffffffffffffffffffffffffffffffffffffff8203610f2e57610f2d610ec2565b5b600182019050919050565b7f43616c6c6572206d75737420626520746865206170706c69636174696f6e206160008201527f63636f756e742100000000000000000000000000000000000000000000000000602082015250565b6000610f95602783610ce8565b9150610fa082610f39565b604082019050919050565b60006020820190508181036000830152610fc481610f88565b9050919050565b7f43616c6c6572206d7573742062652074686520636f6e7472616374206f776e6560008201527f7221000000000000000000000000000000000000000000000000000000000000602082015250565b6000611027602283610ce8565b915061103282610fcb565b604082019050919050565b600060208201905081810360008301526110568161101a565b905091905056fea2646970667358221220c9efb4f2d734a2260131c5dac38ae344e9c9e7a7315bd5d4afd85e54dd26c57064736f6c63430008100033",
  "immutableReferences": {},
  "source": "pragma solidity ^0.8.16;\n\nimport \"./interfaces/AggregatorV3Interface.sol\";\n\ncontract Oracle {\n    enum PriceOrigin {\n        Stored,\n        Chainlink\n    }\n\n    address public ownerAddress;\n    address public applicationAddress;\n\n    struct PriceUpdate {\n        address assetAddress;\n        uint256 newPrice;\n    }\n\n    struct PriceInfo {\n        uint256 price;\n        uint256 updatedAt;\n    }\n\n    mapping(address => PriceInfo) assetPrices;\n    mapping(address => PriceOrigin) public assetPriceOrigin;\n    mapping(address => address) public chainlinkPriceFeeds;\n\n    constructor(address _applicationAddress) {\n        ownerAddress = msg.sender;\n        applicationAddress = _applicationAddress;\n        assetPrices[address(1)] = PriceInfo(1, block.timestamp);\n    }\n\n    function _onlyOwner() private view {\n        require(\n            msg.sender == ownerAddress,\n            \"Caller must be the contract owner!\"\n        );\n    }\n\n    function _onlyApplication() private view {\n        require(\n            applicationAddress == msg.sender,\n            \"Caller must be the application account!\"\n        );\n    }\n\n    modifier onlyOwner() {\n        _onlyOwner();\n        _;\n    }\n\n    modifier onlyApplication() {\n        _onlyApplication();\n        _;\n    }\n\n    function setApplicationAddress(address newApplicationAddress)\n        public\n        onlyOwner\n    {\n        applicationAddress = newApplicationAddress;\n    }\n\n    function setPriceOrigin(address assetAddress, uint8 priceOriginNr)\n        public\n        onlyOwner\n    {\n        {\n            require(priceOriginNr <= 1, \"PriceOrigin has to be lower than 1\");\n        }\n\n        assetPriceOrigin[assetAddress] = priceOriginNr == 0\n            ? PriceOrigin.Stored\n            : PriceOrigin.Chainlink;\n    }\n\n    function setChainlinkPriceFeedAddress(\n        address assetAddress,\n        address chainlinkPriceFeedAddress\n    ) public onlyOwner {\n        chainlinkPriceFeeds[assetAddress] = chainlinkPriceFeedAddress;\n    }\n\n    function setPrice(address assetAddress, uint256 newPrice)\n        public\n        onlyApplication\n    {\n        assetPrices[assetAddress] = PriceInfo(newPrice, block.timestamp);\n    }\n\n    function setPrices(PriceUpdate[] memory priceUpdates)\n        public\n        onlyApplication\n    {\n        for (uint256 i = 0; i < priceUpdates.length; i++) {\n            setPrice(priceUpdates[i].assetAddress, priceUpdates[i].newPrice);\n        }\n    }\n\n    function getPrice(address assetAddress)\n        public\n        view\n        returns (uint256 price, uint256 updatedAt)\n    {\n        PriceOrigin origin = assetPriceOrigin[assetAddress];\n        if (origin == PriceOrigin.Chainlink) {\n            address chainlinkAddress = chainlinkPriceFeeds[assetAddress];\n            AggregatorV3Interface priceFeed = AggregatorV3Interface(\n                chainlinkAddress\n            );\n            (, int256 _price, , uint256 _updatedAt, ) = priceFeed\n                .latestRoundData();\n\n            return (uint256(_price), _updatedAt);\n        }\n        PriceInfo memory pi = assetPrices[assetAddress];\n\n        return (pi.price, pi.updatedAt);\n    }\n}\n",
  "sourcePath": "/home/d4fttasiii/git/al_fundy/src/fund-contract/contracts/Oracle.sol",
  "compiler": {
    "name": "solc",
    "version": "0.8.16+commit.07a7930e.Emscripten.clang"
  },
  "schemaVersion": "3.4.9",
  "updatedAt": "2022-11-12T16:44:37.973Z",
  "networkType": "ethereum",
  "devdoc": {
    "kind": "dev",
    "methods": {},
    "version": 1
  },
  "userdoc": {
    "kind": "user",
    "methods": {},
    "version": 1
  }
}