{
  "contractName": "OrderBook",
  "abi": [
    {
      "inputs": [
        {
          "internalType": "uint256",
          "name": "_initCommission",
          "type": "uint256"
        }
      ],
      "stateMutability": "nonpayable",
      "type": "constructor"
    },
    {
      "anonymous": false,
      "inputs": [
        {
          "indexed": true,
          "internalType": "uint256",
          "name": "id",
          "type": "uint256"
        }
      ],
      "name": "OrderCreated",
      "type": "event"
    },
    {
      "inputs": [],
      "name": "commission",
      "outputs": [
        {
          "internalType": "uint256",
          "name": "",
          "type": "uint256"
        }
      ],
      "stateMutability": "view",
      "type": "function"
    },
    {
      "inputs": [],
      "name": "marketCounter",
      "outputs": [
        {
          "internalType": "uint64",
          "name": "",
          "type": "uint64"
        }
      ],
      "stateMutability": "view",
      "type": "function"
    },
    {
      "inputs": [
        {
          "internalType": "uint64",
          "name": "",
          "type": "uint64"
        }
      ],
      "name": "markets",
      "outputs": [
        {
          "internalType": "uint64",
          "name": "id",
          "type": "uint64"
        },
        {
          "internalType": "address",
          "name": "assetOneAddress",
          "type": "address"
        },
        {
          "internalType": "address",
          "name": "assetTwoAddress",
          "type": "address"
        }
      ],
      "stateMutability": "view",
      "type": "function"
    },
    {
      "inputs": [],
      "name": "orderCounter",
      "outputs": [
        {
          "internalType": "uint256",
          "name": "",
          "type": "uint256"
        }
      ],
      "stateMutability": "view",
      "type": "function"
    },
    {
      "inputs": [
        {
          "internalType": "uint256",
          "name": "",
          "type": "uint256"
        }
      ],
      "name": "orders",
      "outputs": [
        {
          "internalType": "uint256",
          "name": "id",
          "type": "uint256"
        },
        {
          "internalType": "uint64",
          "name": "marketId",
          "type": "uint64"
        },
        {
          "internalType": "address",
          "name": "ownerAddress",
          "type": "address"
        },
        {
          "internalType": "enum OrderBook.OrderTypes",
          "name": "orderType",
          "type": "uint8"
        },
        {
          "internalType": "enum OrderBook.OrderExecutionTypes",
          "name": "orderExecutionType",
          "type": "uint8"
        },
        {
          "internalType": "uint256",
          "name": "price",
          "type": "uint256"
        },
        {
          "internalType": "uint256",
          "name": "volume",
          "type": "uint256"
        },
        {
          "internalType": "uint256",
          "name": "volumeRemaining",
          "type": "uint256"
        },
        {
          "internalType": "uint256",
          "name": "timestamp",
          "type": "uint256"
        },
        {
          "internalType": "enum OrderBook.OrderStatus",
          "name": "status",
          "type": "uint8"
        },
        {
          "internalType": "uint256",
          "name": "completedTimestamp",
          "type": "uint256"
        }
      ],
      "stateMutability": "view",
      "type": "function"
    },
    {
      "inputs": [],
      "name": "ownerAddress",
      "outputs": [
        {
          "internalType": "address",
          "name": "",
          "type": "address"
        }
      ],
      "stateMutability": "view",
      "type": "function"
    },
    {
      "inputs": [
        {
          "internalType": "uint256",
          "name": "_orderId",
          "type": "uint256"
        },
        {
          "internalType": "uint256[]",
          "name": "_fullfillingOrderIds",
          "type": "uint256[]"
        }
      ],
      "name": "_executeBuyOrder",
      "outputs": [],
      "stateMutability": "nonpayable",
      "type": "function"
    }
  ],
  "bytecode": "0x608060405234801561001057600080fd5b506040516200123338038062001233833981810160405281019061003491906100bd565b33600360006101000a81548173ffffffffffffffffffffffffffffffffffffffff021916908373ffffffffffffffffffffffffffffffffffffffff16021790555080600281905550506100ea565b600080fd5b6000819050919050565b61009a81610087565b81146100a557600080fd5b50565b6000815190506100b781610091565b92915050565b6000602082840312156100d3576100d2610082565b5b60006100e1848285016100a8565b91505092915050565b61113980620000fa6000396000f3fe608060405234801561001057600080fd5b506004361061007d5760003560e01c8063b789bf521161005b578063b789bf52146100f8578063c48b332414610116578063d81c573c14610148578063e1489191146101645761007d565b806324760807146100825780638f84aa09146100a0578063a85c38ef146100be575b600080fd5b61008a610182565b6040516100979190610a57565b60405180910390f35b6100a861019a565b6040516100b59190610ab3565b60405180910390f35b6100d860048036038101906100d39190610b18565b6101c0565b6040516100ef9b9a99989796959493929190610c5b565b60405180910390f35b610100610275565b60405161010d9190610d06565b60405180910390f35b610130600480360381019061012b9190610d4d565b61027b565b60405161013f93929190610d7a565b60405180910390f35b610162600480360381019061015d9190610f0a565b6102f9565b005b61016c610945565b6040516101799190610d06565b60405180910390f35b60008054906101000a900467ffffffffffffffff1681565b600360009054906101000a900473ffffffffffffffffffffffffffffffffffffffff1681565b60056020528060005260406000206000915090508060000154908060010160009054906101000a900467ffffffffffffffff16908060010160089054906101000a900473ffffffffffffffffffffffffffffffffffffffff169080600101601c9054906101000a900460ff169080600101601d9054906101000a900460ff16908060020154908060030154908060040154908060050154908060060160009054906101000a900460ff1690806007015490508b565b60015481565b60046020528060005260406000206000915090508060000160009054906101000a900467ffffffffffffffff16908060000160089054906101000a900473ffffffffffffffffffffffffffffffffffffffff16908060010160009054906101000a900473ffffffffffffffffffffffffffffffffffffffff16905083565b60006005600084815260200190815260200160002060405180610160016040529081600082015481526020016001820160009054906101000a900467ffffffffffffffff1667ffffffffffffffff1667ffffffffffffffff1681526020016001820160089054906101000a900473ffffffffffffffffffffffffffffffffffffffff1673ffffffffffffffffffffffffffffffffffffffff1673ffffffffffffffffffffffffffffffffffffffff16815260200160018201601c9054906101000a900460ff1660018111156103d1576103d0610b54565b5b60018111156103e3576103e2610b54565b5b815260200160018201601d9054906101000a900460ff16600081111561040c5761040b610b54565b5b600081111561041e5761041d610b54565b5b8152602001600282015481526020016003820154815260200160048201548152602001600582015481526020016006820160009054906101000a900460ff16600281111561046f5761046e610b54565b5b600281111561048157610480610b54565b5b81526020016007820154815250509050600060028111156104a5576104a4610b54565b5b81610120015160028111156104bd576104bc610b54565b5b14806104f25750600160028111156104d8576104d7610b54565b5b81610120015160028111156104f0576104ef610b54565b5b145b610531576040517f08c379a000000000000000000000000000000000000000000000000000000000815260040161052890610f9d565b60405180910390fd5b6000600181111561054557610544610b54565b5b8160600151600181111561055c5761055b610b54565b5b1461059c576040517f08c379a000000000000000000000000000000000000000000000000000000000815260040161059390611009565b60405180910390fd5b600060046000836020015167ffffffffffffffff1667ffffffffffffffff1681526020019081526020016000206040518060600160405290816000820160009054906101000a900467ffffffffffffffff1667ffffffffffffffff1667ffffffffffffffff1681526020016000820160089054906101000a900473ffffffffffffffffffffffffffffffffffffffff1673ffffffffffffffffffffffffffffffffffffffff1673ffffffffffffffffffffffffffffffffffffffff1681526020016001820160009054906101000a900473ffffffffffffffffffffffffffffffffffffffff1673ffffffffffffffffffffffffffffffffffffffff1673ffffffffffffffffffffffffffffffffffffffff1681525050905060005b8351811161093e576000600560008684815181106106d8576106d7611029565b5b6020026020010151815260200190815260200160002060405180610160016040529081600082015481526020016001820160009054906101000a900467ffffffffffffffff1667ffffffffffffffff1667ffffffffffffffff1681526020016001820160089054906101000a900473ffffffffffffffffffffffffffffffffffffffff1673ffffffffffffffffffffffffffffffffffffffff1673ffffffffffffffffffffffffffffffffffffffff16815260200160018201601c9054906101000a900460ff1660018111156107b1576107b0610b54565b5b60018111156107c3576107c2610b54565b5b815260200160018201601d9054906101000a900460ff1660008111156107ec576107eb610b54565b5b60008111156107fe576107fd610b54565b5b8152602001600282015481526020016003820154815260200160048201548152602001600582015481526020016006820160009054906101000a900460ff16600281111561084f5761084e610b54565b5b600281111561086157610860610b54565b5b815260200160078201548152505090508360e001518160e0015111156108b75761088a8661094b565b6108b28583815181106108a05761089f611029565b5b60200260200101518560e001516109c4565b61092a565b8360e001518160e00151036108f7576108cf8661094b565b6108f28583815181106108e5576108e4611029565b5b602002602001015161094b565b610929565b61091a85838151811061090d5761090c611029565b5b602002602001015161094b565b610928868260e001516109c4565b5b5b50808061093690611087565b9150506106b7565b5050505050565b60025481565b6000600560008381526020019081526020016000206004018190555060026005600083815260200190815260200160002060060160006101000a81548160ff021916908360028111156109a1576109a0610b54565b5b021790555042600560008381526020019081526020016000206007018190555050565b806005600084815260200190815260200160002060040160008282546109ea91906110cf565b9250508190555060016005600084815260200190815260200160002060060160006101000a81548160ff02191690836002811115610a2b57610a2a610b54565b5b02179055505050565b600067ffffffffffffffff82169050919050565b610a5181610a34565b82525050565b6000602082019050610a6c6000830184610a48565b92915050565b600073ffffffffffffffffffffffffffffffffffffffff82169050919050565b6000610a9d82610a72565b9050919050565b610aad81610a92565b82525050565b6000602082019050610ac86000830184610aa4565b92915050565b6000604051905090565b600080fd5b600080fd5b6000819050919050565b610af581610ae2565b8114610b0057600080fd5b50565b600081359050610b1281610aec565b92915050565b600060208284031215610b2e57610b2d610ad8565b5b6000610b3c84828501610b03565b91505092915050565b610b4e81610ae2565b82525050565b7f4e487b7100000000000000000000000000000000000000000000000000000000600052602160045260246000fd5b60028110610b9457610b93610b54565b5b50565b6000819050610ba582610b83565b919050565b6000610bb582610b97565b9050919050565b610bc581610baa565b82525050565b60018110610bdc57610bdb610b54565b5b50565b6000819050610bed82610bcb565b919050565b6000610bfd82610bdf565b9050919050565b610c0d81610bf2565b82525050565b60038110610c2457610c23610b54565b5b50565b6000819050610c3582610c13565b919050565b6000610c4582610c27565b9050919050565b610c5581610c3a565b82525050565b600061016082019050610c71600083018e610b45565b610c7e602083018d610a48565b610c8b604083018c610aa4565b610c98606083018b610bbc565b610ca5608083018a610c04565b610cb260a0830189610b45565b610cbf60c0830188610b45565b610ccc60e0830187610b45565b610cda610100830186610b45565b610ce8610120830185610c4c565b610cf6610140830184610b45565b9c9b505050505050505050505050565b6000602082019050610d1b6000830184610b45565b92915050565b610d2a81610a34565b8114610d3557600080fd5b50565b600081359050610d4781610d21565b92915050565b600060208284031215610d6357610d62610ad8565b5b6000610d7184828501610d38565b91505092915050565b6000606082019050610d8f6000830186610a48565b610d9c6020830185610aa4565b610da96040830184610aa4565b949350505050565b600080fd5b6000601f19601f8301169050919050565b7f4e487b7100000000000000000000000000000000000000000000000000000000600052604160045260246000fd5b610dff82610db6565b810181811067ffffffffffffffff82111715610e1e57610e1d610dc7565b5b80604052505050565b6000610e31610ace565b9050610e3d8282610df6565b919050565b600067ffffffffffffffff821115610e5d57610e5c610dc7565b5b602082029050602081019050919050565b600080fd5b6000610e86610e8184610e42565b610e27565b90508083825260208201905060208402830185811115610ea957610ea8610e6e565b5b835b81811015610ed25780610ebe8882610b03565b845260208401935050602081019050610eab565b5050509392505050565b600082601f830112610ef157610ef0610db1565b5b8135610f01848260208601610e73565b91505092915050565b60008060408385031215610f2157610f20610ad8565b5b6000610f2f85828601610b03565b925050602083013567ffffffffffffffff811115610f5057610f4f610add565b5b610f5c85828601610edc565b9150509250929050565b600082825260208201905092915050565b50565b6000610f87600083610f66565b9150610f9282610f77565b600082019050919050565b60006020820190508181036000830152610fb681610f7a565b9050919050565b7f4f72646572206d757374206265206120627579206f7264657200000000000000600082015250565b6000610ff3601983610f66565b9150610ffe82610fbd565b602082019050919050565b6000602082019050818103600083015261102281610fe6565b9050919050565b7f4e487b7100000000000000000000000000000000000000000000000000000000600052603260045260246000fd5b7f4e487b7100000000000000000000000000000000000000000000000000000000600052601160045260246000fd5b600061109282610ae2565b91507fffffffffffffffffffffffffffffffffffffffffffffffffffffffffffffffff82036110c4576110c3611058565b5b600182019050919050565b60006110da82610ae2565b91506110e583610ae2565b92508282039050818111156110fd576110fc611058565b5b9291505056fea2646970667358221220d4b03040808a74e8bc585f1bca7ace9a891f5ef1e20edad38f6fc4bf2300cd0b64736f6c63430008100033",
  "immutableReferences": {},
  "source": "pragma solidity ^0.8.16;\n\nimport \"./Mirrored.sol\";\nimport \"./interfaces/IERC20.sol\";\n\ncontract OrderBook {\n\n    enum AssetTypes {\n        Native,\n        ERC20,\n        Mirrored\n    }\n\n    enum OrderTypes {\n        Buy,\n        Sell\n    }\n\n    enum OrderExecutionTypes {\n        Limit\n    }\n\n    enum OrderStatus {\n        Open,\n        PartiallyCompleted,\n        Completed\n    }\n\n    struct Order {\n        uint256 id;\n        uint64 marketId;\n        address ownerAddress;\n        OrderTypes orderType;\n        OrderExecutionTypes orderExecutionType;\n        uint256 price;\n        uint256 volume;\n        uint256 volumeRemaining;\n        uint256 timestamp;\n        OrderStatus status;\n        uint256 completedTimestamp;\n    }\n\n    struct Market {\n        uint64 id;\n        address assetOneAddress;\n        address assetTwoAddress;\n    }\n\n    uint64 public marketCounter;\n    uint256 public orderCounter;\n    uint256 public commission;\n\n    address public ownerAddress;\n    mapping(uint64 => Market) public markets;\n    mapping(uint256 => Order) public orders;\n    mapping(address => AssetTypes) assetTypes;\n\n    event OrderCreated(uint256 indexed id);\n\n    constructor(uint256 _initCommission) {\n        ownerAddress = msg.sender;\n        commission = _initCommission;\n    }\n\n    // ---------- HELPERS ----------\n\n    function _executeBuyOrder(uint256 _orderId, uint256[] memory _fullfillingOrderIds) external {\n        Order memory order = orders[_orderId];\n        require(\n            order.status == OrderStatus.Open || \n            order.status == OrderStatus.PartiallyCompleted, \n            \"\"\n        );\n        require(\n            order.orderType == OrderTypes.Buy,\n            \"Order must be a buy order\"\n        );\n\n        Market memory market = markets[order.marketId];\n\n        for (uint256 i = 0; i <= _fullfillingOrderIds.length; i++) {\n            Order memory fullfillingOrder = orders[_fullfillingOrderIds[i]];\n            if (fullfillingOrder.volumeRemaining > order.volumeRemaining) {\n                _completeOrder(_orderId);\n                _partiallyCompleteOrder(_fullfillingOrderIds[i], order.volumeRemaining);\n            } else if (fullfillingOrder.volumeRemaining == order.volumeRemaining) {\n                _completeOrder(_orderId);\n                _completeOrder(_fullfillingOrderIds[i]);\n            } else {\n                _completeOrder(_fullfillingOrderIds[i]);\n                _partiallyCompleteOrder(_orderId, fullfillingOrder.volumeRemaining);\n            }\n        }\n    }\n\n    function _completeOrder(uint256 _orderId) internal {\n        orders[_orderId].volumeRemaining = 0;\n        orders[_orderId].status = OrderStatus.Completed;\n        orders[_orderId].completedTimestamp = block.timestamp;\n    }\n\n    function _partiallyCompleteOrder(uint256 _orderId, uint256 _volumeDeduction) internal {        \n        orders[_orderId].volumeRemaining -= _volumeDeduction;\n        orders[_orderId].status = OrderStatus.PartiallyCompleted;\n    }\n\n    function _createOrder(\n        uint64 _marketId, \n        OrderTypes _orderType, \n        OrderExecutionTypes _orderExecutionType,\n        uint256 _price,\n        uint256 _volume\n    ) internal returns(uint256) {\n        Order memory order = Order({\n            id: orderCounter,\n            marketId: _marketId,\n            ownerAddress: msg.sender,\n            orderType: _orderType,\n            orderExecutionType: _orderExecutionType,\n            price: _price,\n            volume: _volume,\n            volumeRemaining: _volume,\n            timestamp: block.timestamp,\n            status: OrderStatus.Open,\n            completedTimestamp: 0\n        });\n        orders[orderCounter] = order;\n        orderCounter++;\n\n        emit OrderCreated(order.id);\n\n        return order.id;\n    }\n\n    function _createMarket(address _assetOneAddress, address _assetTwoAddress) internal {\n        markets[marketCounter] = Market({\n            id: marketCounter,\n            assetOneAddress: _assetOneAddress,\n            assetTwoAddress: _assetTwoAddress\n        });\n        marketCounter++;\n    }\n}",
  "sourcePath": "/home/d4fttasiii/git/portfolium/src/fund-contract/contracts/OrderBook.sol",
  "compiler": {
    "name": "solc",
    "version": "0.8.16+commit.07a7930e.Emscripten.clang"
  },
  "schemaVersion": "3.4.9",
  "updatedAt": "2022-12-12T19:27:59.192Z",
  "devdoc": {
    "kind": "dev",
    "methods": {},
    "version": 1
  },
  "userdoc": {
    "kind": "user",
    "methods": {},
    "version": 1
  }
}