{
  "contractName": "Portfolium",
  "abi": [
    {
      "inputs": [
        {
          "internalType": "contract Oracle",
          "name": "_oracle",
          "type": "address"
        },
        {
          "internalType": "contract Treasury",
          "name": "_treasury",
          "type": "address"
        },
        {
          "internalType": "contract Reserve",
          "name": "_reserve",
          "type": "address"
        },
        {
          "internalType": "uint256",
          "name": "_platformCommission",
          "type": "uint256"
        },
        {
          "internalType": "string",
          "name": "_nativeName",
          "type": "string"
        },
        {
          "internalType": "string",
          "name": "_nativeSymbol",
          "type": "string"
        },
        {
          "internalType": "uint8",
          "name": "_nativeDecimals",
          "type": "uint8"
        }
      ],
      "stateMutability": "nonpayable",
      "type": "constructor"
    },
    {
      "anonymous": false,
      "inputs": [
        {
          "indexed": true,
          "internalType": "address",
          "name": "owner",
          "type": "address"
        },
        {
          "indexed": false,
          "internalType": "string",
          "name": "name",
          "type": "string"
        }
      ],
      "name": "PortfolioCreated",
      "type": "event"
    },
    {
      "inputs": [
        {
          "internalType": "address",
          "name": "",
          "type": "address"
        }
      ],
      "name": "availableAssetAddresses",
      "outputs": [
        {
          "internalType": "bool",
          "name": "",
          "type": "bool"
        }
      ],
      "stateMutability": "view",
      "type": "function"
    },
    {
      "inputs": [],
      "name": "availableAssetCount",
      "outputs": [
        {
          "internalType": "uint64",
          "name": "",
          "type": "uint64"
        }
      ],
      "stateMutability": "view",
      "type": "function"
    },
    {
      "inputs": [
        {
          "internalType": "address",
          "name": "",
          "type": "address"
        }
      ],
      "name": "availableAssets",
      "outputs": [
        {
          "internalType": "address",
          "name": "assetAddress",
          "type": "address"
        },
        {
          "internalType": "string",
          "name": "name",
          "type": "string"
        },
        {
          "internalType": "string",
          "name": "symbol",
          "type": "string"
        },
        {
          "internalType": "uint8",
          "name": "decimals",
          "type": "uint8"
        },
        {
          "internalType": "enum Portfolium.AssetTypes",
          "name": "assetType",
          "type": "uint8"
        }
      ],
      "stateMutability": "view",
      "type": "function"
    },
    {
      "inputs": [],
      "name": "oracle",
      "outputs": [
        {
          "internalType": "contract Oracle",
          "name": "",
          "type": "address"
        }
      ],
      "stateMutability": "view",
      "type": "function"
    },
    {
      "inputs": [],
      "name": "ownerAddress",
      "outputs": [
        {
          "internalType": "address",
          "name": "",
          "type": "address"
        }
      ],
      "stateMutability": "view",
      "type": "function"
    },
    {
      "inputs": [],
      "name": "platformCommission",
      "outputs": [
        {
          "internalType": "uint256",
          "name": "",
          "type": "uint256"
        }
      ],
      "stateMutability": "view",
      "type": "function"
    },
    {
      "inputs": [
        {
          "internalType": "address",
          "name": "",
          "type": "address"
        },
        {
          "internalType": "uint256",
          "name": "",
          "type": "uint256"
        }
      ],
      "name": "portfolioAssetAddresses",
      "outputs": [
        {
          "internalType": "address",
          "name": "",
          "type": "address"
        }
      ],
      "stateMutability": "view",
      "type": "function"
    },
    {
      "inputs": [
        {
          "internalType": "address",
          "name": "",
          "type": "address"
        },
        {
          "internalType": "address",
          "name": "",
          "type": "address"
        }
      ],
      "name": "portfolioAssetAllocations",
      "outputs": [
        {
          "internalType": "address",
          "name": "assetAddress",
          "type": "address"
        },
        {
          "internalType": "uint256",
          "name": "perShareAmount",
          "type": "uint256"
        }
      ],
      "stateMutability": "view",
      "type": "function"
    },
    {
      "inputs": [
        {
          "internalType": "address",
          "name": "",
          "type": "address"
        },
        {
          "internalType": "address",
          "name": "",
          "type": "address"
        }
      ],
      "name": "portfolioAssets",
      "outputs": [
        {
          "internalType": "bool",
          "name": "",
          "type": "bool"
        }
      ],
      "stateMutability": "view",
      "type": "function"
    },
    {
      "inputs": [
        {
          "internalType": "address",
          "name": "",
          "type": "address"
        },
        {
          "internalType": "address",
          "name": "",
          "type": "address"
        }
      ],
      "name": "portfolioBalanceOf",
      "outputs": [
        {
          "internalType": "uint256",
          "name": "",
          "type": "uint256"
        }
      ],
      "stateMutability": "view",
      "type": "function"
    },
    {
      "inputs": [
        {
          "internalType": "address",
          "name": "",
          "type": "address"
        }
      ],
      "name": "portfolios",
      "outputs": [
        {
          "internalType": "address",
          "name": "owner",
          "type": "address"
        },
        {
          "internalType": "string",
          "name": "name",
          "type": "string"
        },
        {
          "internalType": "string",
          "name": "symbol",
          "type": "string"
        },
        {
          "internalType": "uint16",
          "name": "assetCount",
          "type": "uint16"
        },
        {
          "internalType": "uint256",
          "name": "totalSupply",
          "type": "uint256"
        },
        {
          "internalType": "uint256",
          "name": "commission",
          "type": "uint256"
        }
      ],
      "stateMutability": "view",
      "type": "function"
    },
    {
      "inputs": [],
      "name": "reserve",
      "outputs": [
        {
          "internalType": "contract Reserve",
          "name": "",
          "type": "address"
        }
      ],
      "stateMutability": "view",
      "type": "function"
    },
    {
      "inputs": [],
      "name": "treasury",
      "outputs": [
        {
          "internalType": "contract Treasury",
          "name": "",
          "type": "address"
        }
      ],
      "stateMutability": "view",
      "type": "function"
    },
    {
      "inputs": [
        {
          "internalType": "uint256",
          "name": "_platformCommission",
          "type": "uint256"
        }
      ],
      "name": "updatePlatformCommission",
      "outputs": [],
      "stateMutability": "nonpayable",
      "type": "function"
    },
    {
      "inputs": [
        {
          "internalType": "address",
          "name": "_assetAddress",
          "type": "address"
        }
      ],
      "name": "addSupportedERC20Asset",
      "outputs": [],
      "stateMutability": "nonpayable",
      "type": "function"
    },
    {
      "inputs": [
        {
          "internalType": "address",
          "name": "_assetAddress",
          "type": "address"
        }
      ],
      "name": "addSupportedMirroredAsset",
      "outputs": [],
      "stateMutability": "nonpayable",
      "type": "function"
    },
    {
      "inputs": [
        {
          "internalType": "address",
          "name": "_assetAddress",
          "type": "address"
        }
      ],
      "name": "removeSupportedAsset",
      "outputs": [],
      "stateMutability": "nonpayable",
      "type": "function"
    },
    {
      "inputs": [
        {
          "internalType": "string",
          "name": "_name",
          "type": "string"
        },
        {
          "internalType": "string",
          "name": "_symbol",
          "type": "string"
        },
        {
          "internalType": "uint256",
          "name": "_initCommission",
          "type": "uint256"
        }
      ],
      "name": "createPortfolio",
      "outputs": [],
      "stateMutability": "payable",
      "type": "function"
    },
    {
      "inputs": [
        {
          "internalType": "address",
          "name": "_assetAddress",
          "type": "address"
        }
      ],
      "name": "addAsset",
      "outputs": [],
      "stateMutability": "nonpayable",
      "type": "function"
    },
    {
      "inputs": [
        {
          "internalType": "address",
          "name": "_assetAddress",
          "type": "address"
        },
        {
          "internalType": "uint256",
          "name": "_perShareAmount",
          "type": "uint256"
        }
      ],
      "name": "updateAllocation",
      "outputs": [],
      "stateMutability": "nonpayable",
      "type": "function"
    },
    {
      "inputs": [
        {
          "internalType": "address",
          "name": "_portfolioAddress",
          "type": "address"
        },
        {
          "internalType": "uint256",
          "name": "_amount",
          "type": "uint256"
        }
      ],
      "name": "buyShares",
      "outputs": [],
      "stateMutability": "payable",
      "type": "function"
    },
    {
      "inputs": [
        {
          "internalType": "address",
          "name": "_portfolioAddress",
          "type": "address"
        },
        {
          "internalType": "uint256",
          "name": "_amount",
          "type": "uint256"
        }
      ],
      "name": "sellShares",
      "outputs": [
        {
          "internalType": "uint256",
          "name": "",
          "type": "uint256"
        }
      ],
      "stateMutability": "payable",
      "type": "function"
    },
    {
      "inputs": [
        {
          "internalType": "address",
          "name": "_portfolioAddress",
          "type": "address"
        },
        {
          "internalType": "uint256",
          "name": "_amount",
          "type": "uint256"
        }
      ],
      "name": "calculateBuyingCost",
      "outputs": [
        {
          "internalType": "uint256",
          "name": "",
          "type": "uint256"
        }
      ],
      "stateMutability": "view",
      "type": "function"
    },
    {
      "inputs": [
        {
          "internalType": "address",
          "name": "_portfolioAddress",
          "type": "address"
        }
      ],
      "name": "getTokenPrice",
      "outputs": [
        {
          "internalType": "uint256",
          "name": "",
          "type": "uint256"
        }
      ],
      "stateMutability": "view",
      "type": "function"
    }
  ],
  "bytecode": "0x60806040523480156200001157600080fd5b5060405162004cad38038062004cad833981810160405281019062000037919062000659565b336000806101000a81548173ffffffffffffffffffffffffffffffffffffffff021916908373ffffffffffffffffffffffffffffffffffffffff16021790555086600c60006101000a81548173ffffffffffffffffffffffffffffffffffffffff021916908373ffffffffffffffffffffffffffffffffffffffff16021790555085600a60006101000a81548173ffffffffffffffffffffffffffffffffffffffff021916908373ffffffffffffffffffffffffffffffffffffffff16021790555084600b60006101000a81548173ffffffffffffffffffffffffffffffffffffffff021916908373ffffffffffffffffffffffffffffffffffffffff16021790555083600181905550600160046000600173ffffffffffffffffffffffffffffffffffffffff1673ffffffffffffffffffffffffffffffffffffffff16815260200190815260200160002060006101000a81548160ff0219169083151502179055506040518060a00160405280600173ffffffffffffffffffffffffffffffffffffffff1681526020018481526020018381526020018260ff16815260200160006002811115620001ee57620001ed6200074a565b5b81525060036000600173ffffffffffffffffffffffffffffffffffffffff1673ffffffffffffffffffffffffffffffffffffffff16815260200190815260200160002060008201518160000160006101000a81548173ffffffffffffffffffffffffffffffffffffffff021916908373ffffffffffffffffffffffffffffffffffffffff16021790555060208201518160010190816200028f9190620009ba565b506040820151816002019081620002a79190620009ba565b5060608201518160030160006101000a81548160ff021916908360ff16021790555060808201518160030160016101000a81548160ff02191690836002811115620002f757620002f66200074a565b5b02179055509050506001600260006101000a81548167ffffffffffffffff021916908367ffffffffffffffff1602179055505050505050505062000aa1565b6000604051905090565b600080fd5b600080fd5b600073ffffffffffffffffffffffffffffffffffffffff82169050919050565b600062000377826200034a565b9050919050565b60006200038b826200036a565b9050919050565b6200039d816200037e565b8114620003a957600080fd5b50565b600081519050620003bd8162000392565b92915050565b6000620003d0826200034a565b9050919050565b6000620003e482620003c3565b9050919050565b620003f681620003d7565b81146200040257600080fd5b50565b6000815190506200041681620003eb565b92915050565b600062000429826200036a565b9050919050565b6200043b816200041c565b81146200044757600080fd5b50565b6000815190506200045b8162000430565b92915050565b6000819050919050565b620004768162000461565b81146200048257600080fd5b50565b60008151905062000496816200046b565b92915050565b600080fd5b600080fd5b6000601f19601f8301169050919050565b7f4e487b7100000000000000000000000000000000000000000000000000000000600052604160045260246000fd5b620004f182620004a6565b810181811067ffffffffffffffff82111715620005135762000512620004b7565b5b80604052505050565b60006200052862000336565b9050620005368282620004e6565b919050565b600067ffffffffffffffff821115620005595762000558620004b7565b5b6200056482620004a6565b9050602081019050919050565b60005b838110156200059157808201518184015260208101905062000574565b60008484015250505050565b6000620005b4620005ae846200053b565b6200051c565b905082815260208101848484011115620005d357620005d2620004a1565b5b620005e084828562000571565b509392505050565b600082601f8301126200060057620005ff6200049c565b5b8151620006128482602086016200059d565b91505092915050565b600060ff82169050919050565b62000633816200061b565b81146200063f57600080fd5b50565b600081519050620006538162000628565b92915050565b600080600080600080600060e0888a0312156200067b576200067a62000340565b5b60006200068b8a828b01620003ac565b97505060206200069e8a828b0162000405565b9650506040620006b18a828b016200044a565b9550506060620006c48a828b0162000485565b945050608088015167ffffffffffffffff811115620006e857620006e762000345565b5b620006f68a828b01620005e8565b93505060a088015167ffffffffffffffff8111156200071a576200071962000345565b5b620007288a828b01620005e8565b92505060c06200073b8a828b0162000642565b91505092959891949750929550565b7f4e487b7100000000000000000000000000000000000000000000000000000000600052602160045260246000fd5b600081519050919050565b7f4e487b7100000000000000000000000000000000000000000000000000000000600052602260045260246000fd5b60006002820490506001821680620007cc57607f821691505b602082108103620007e257620007e162000784565b5b50919050565b60008190508160005260206000209050919050565b60006020601f8301049050919050565b600082821b905092915050565b6000600883026200084c7fffffffffffffffffffffffffffffffffffffffffffffffffffffffffffffffff826200080d565b6200085886836200080d565b95508019841693508086168417925050509392505050565b6000819050919050565b60006200089b620008956200088f8462000461565b62000870565b62000461565b9050919050565b6000819050919050565b620008b7836200087a565b620008cf620008c682620008a2565b8484546200081a565b825550505050565b600090565b620008e6620008d7565b620008f3818484620008ac565b505050565b5b818110156200091b576200090f600082620008dc565b600181019050620008f9565b5050565b601f8211156200096a576200093481620007e8565b6200093f84620007fd565b810160208510156200094f578190505b620009676200095e85620007fd565b830182620008f8565b50505b505050565b600082821c905092915050565b60006200098f600019846008026200096f565b1980831691505092915050565b6000620009aa83836200097c565b9150826002028217905092915050565b620009c58262000779565b67ffffffffffffffff811115620009e157620009e0620004b7565b5b620009ed8254620007b3565b620009fa8282856200091f565b600060209050601f83116001811462000a32576000841562000a1d578287015190505b62000a2985826200099c565b86555062000a99565b601f19841662000a4286620007e8565b60005b8281101562000a6c5784890151825560018201915060208501945060208101905062000a45565b8683101562000a8c578489015162000a88601f8916826200097c565b8355505b6001600288020188555050505b505050505050565b6141fc8062000ab16000396000f3fe60806040526004361061014b5760003560e01c806391135a56116100b6578063cd3293de1161006f578063cd3293de146104aa578063d02641a0146104d5578063d41632ea14610512578063d9afbb601461054f578063e89e96d414610578578063faa3f43e146105b65761014b565b806391135a5614610366578063982af636146103a7578063b51d0534146103e4578063baf1938b14610414578063c02714c714610430578063c74cc1311461046d5761014b565b8063694e91b811610108578063694e91b81461024f578063708517031461027a5780637baab3da146102a35780637dc0d1d0146102e557806384f87013146103105780638f84aa091461033b5761014b565b8063070ee84a146101505780631c46bc6f14610179578063298410e5146101a257806350faad72146101cb57806361d027b3146102085780636945b12314610233575b600080fd5b34801561015c57600080fd5b5061017760048036038101906101729190612e31565b6105df565b005b34801561018557600080fd5b506101a0600480360381019061019b9190612ebc565b6105f1565b005b3480156101ae57600080fd5b506101c960048036038101906101c49190612ebc565b6106a1565b005b3480156101d757600080fd5b506101f260048036038101906101ed9190612ee9565b610a2d565b6040516101ff9190612f38565b60405180910390f35b34801561021457600080fd5b5061021d610c04565b60405161022a9190612fb2565b60405180910390f35b61024d60048036038101906102489190612ee9565b610c2a565b005b34801561025b57600080fd5b506102646110e5565b6040516102719190612f38565b60405180910390f35b34801561028657600080fd5b506102a1600480360381019061029c9190612ee9565b6110eb565b005b3480156102af57600080fd5b506102ca60048036038101906102c59190612ebc565b611320565b6040516102dc96959493929190613089565b60405180910390f35b3480156102f157600080fd5b506102fa61149a565b604051610307919061312b565b60405180910390f35b34801561031c57600080fd5b506103256114c0565b6040516103329190613169565b60405180910390f35b34801561034757600080fd5b506103506114da565b60405161035d9190613184565b60405180910390f35b34801561037257600080fd5b5061038d60048036038101906103889190612ebc565b6114fe565b60405161039e959493929190613232565b60405180910390f35b3480156103b357600080fd5b506103ce60048036038101906103c99190613293565b61167e565b6040516103db9190612f38565b60405180910390f35b6103fe60048036038101906103f99190612ee9565b6116a3565b60405161040b9190612f38565b60405180910390f35b61042e60048036038101906104299190613408565b611a7b565b005b34801561043c57600080fd5b5061045760048036038101906104529190613293565b611ddf565b60405161046491906134ae565b60405180910390f35b34801561047957600080fd5b50610494600480360381019061048f9190612ebc565b611e0e565b6040516104a191906134ae565b60405180910390f35b3480156104b657600080fd5b506104bf611e2e565b6040516104cc91906134ea565b60405180910390f35b3480156104e157600080fd5b506104fc60048036038101906104f79190612ebc565b611e54565b6040516105099190612f38565b60405180910390f35b34801561051e57600080fd5b5061053960048036038101906105349190612ee9565b61202a565b6040516105469190613184565b60405180910390f35b34801561055b57600080fd5b5061057660048036038101906105719190612ebc565b612078565b005b34801561058457600080fd5b5061059f600480360381019061059a9190613293565b6123a6565b6040516105ad929190613505565b60405180910390f35b3480156105c257600080fd5b506105dd60048036038101906105d89190612ebc565b6123f7565b005b6105e76127f8565b8060018190555050565b6105f96127f8565b6000600460008373ffffffffffffffffffffffffffffffffffffffff1673ffffffffffffffffffffffffffffffffffffffff16815260200190815260200160002060006101000a81548160ff0219169083151502179055506002600081819054906101000a900467ffffffffffffffff16809291906106779061355d565b91906101000a81548167ffffffffffffffff021916908367ffffffffffffffff1602179055505050565b806106ab81612888565b6106b3612917565b600660003373ffffffffffffffffffffffffffffffffffffffff1673ffffffffffffffffffffffffffffffffffffffff16815260200190815260200160002060008373ffffffffffffffffffffffffffffffffffffffff1673ffffffffffffffffffffffffffffffffffffffff16815260200190815260200160002060009054906101000a900460ff161561077d576040517f08c379a0000000000000000000000000000000000000000000000000000000008152600401610774906135f8565b60405180910390fd5b6001600660003373ffffffffffffffffffffffffffffffffffffffff1673ffffffffffffffffffffffffffffffffffffffff16815260200190815260200160002060008473ffffffffffffffffffffffffffffffffffffffff1673ffffffffffffffffffffffffffffffffffffffff16815260200190815260200160002060006101000a81548160ff021916908315150217905550600560003373ffffffffffffffffffffffffffffffffffffffff1673ffffffffffffffffffffffffffffffffffffffff168152602001908152602001600020600301600081819054906101000a900461ffff168092919061087290613618565b91906101000a81548161ffff021916908361ffff16021790555050600760003373ffffffffffffffffffffffffffffffffffffffff1673ffffffffffffffffffffffffffffffffffffffff168152602001908152602001600020829080600181540180825580915050600190039060005260206000200160009091909190916101000a81548173ffffffffffffffffffffffffffffffffffffffff021916908373ffffffffffffffffffffffffffffffffffffffff16021790555060405180604001604052808373ffffffffffffffffffffffffffffffffffffffff1681526020016000815250600860003373ffffffffffffffffffffffffffffffffffffffff1673ffffffffffffffffffffffffffffffffffffffff16815260200190815260200160002060008473ffffffffffffffffffffffffffffffffffffffff1673ffffffffffffffffffffffffffffffffffffffff16815260200190815260200160002060008201518160000160006101000a81548173ffffffffffffffffffffffffffffffffffffffff021916908373ffffffffffffffffffffffffffffffffffffffff160217905550602082015181600101559050505050565b600080600560008573ffffffffffffffffffffffffffffffffffffffff1673ffffffffffffffffffffffffffffffffffffffff16815260200190815260200160002060030160009054906101000a900461ffff1690506000805b8261ffff16811015610be8576000600760008873ffffffffffffffffffffffffffffffffffffffff1673ffffffffffffffffffffffffffffffffffffffff1681526020019081526020016000208281548110610ae657610ae5613642565b5b9060005260206000200160009054906101000a900473ffffffffffffffffffffffffffffffffffffffff1690506000610b208883896129e9565b90506000600c60009054906101000a900473ffffffffffffffffffffffffffffffffffffffff1673ffffffffffffffffffffffffffffffffffffffff16630f105fe184846040518363ffffffff1660e01b8152600401610b81929190613505565b602060405180830381865afa158015610b9e573d6000803e3d6000fd5b505050506040513d601f19601f82011682018060405250810190610bc29190613686565b90508085610bd091906136b3565b94505050508080610be0906136e7565b915050610a87565b5060015481610bf791906136b3565b9050809250505092915050565b600a60009054906101000a900473ffffffffffffffffffffffffffffffffffffffff1681565b81610c3481612a7f565b6000610c408484610a2d565b905034811115610c85576040517f08c379a0000000000000000000000000000000000000000000000000000000008152600401610c7c906137a1565b60405180910390fd5b82600560008673ffffffffffffffffffffffffffffffffffffffff1673ffffffffffffffffffffffffffffffffffffffff1681526020019081526020016000206004016000828254610cd791906136b3565b9250508190555082600960008673ffffffffffffffffffffffffffffffffffffffff1673ffffffffffffffffffffffffffffffffffffffff16815260200190815260200160002060003373ffffffffffffffffffffffffffffffffffffffff1673ffffffffffffffffffffffffffffffffffffffff1681526020019081526020016000206000828254610d6a91906136b3565b92505081905550600b60009054906101000a900473ffffffffffffffffffffffffffffffffffffffff1673ffffffffffffffffffffffffffffffffffffffff1663d0e30db06001546040518263ffffffff1660e01b81526004016000604051808303818588803b158015610ddd57600080fd5b505af1158015610df1573d6000803e3d6000fd5b5050505050600a60009054906101000a900473ffffffffffffffffffffffffffffffffffffffff1673ffffffffffffffffffffffffffffffffffffffff1663f340fa0160015434610e4291906137c1565b336040518363ffffffff1660e01b8152600401610e5f9190613184565b6000604051808303818588803b158015610e7857600080fd5b505af1158015610e8c573d6000803e3d6000fd5b50505050506000600560008673ffffffffffffffffffffffffffffffffffffffff1673ffffffffffffffffffffffffffffffffffffffff16815260200190815260200160002060030160009054906101000a900461ffff1690506000600190505b8161ffff168110156110dd576000600760008873ffffffffffffffffffffffffffffffffffffffff1673ffffffffffffffffffffffffffffffffffffffff1681526020019081526020016000208281548110610f4c57610f4b613642565b5b9060005260206000200160009054906101000a900473ffffffffffffffffffffffffffffffffffffffff1690506000610f868883896129e9565b905060008111156110c8576000600c60009054906101000a900473ffffffffffffffffffffffffffffffffffffffff1673ffffffffffffffffffffffffffffffffffffffff16630f105fe184846040518363ffffffff1660e01b8152600401610ff0929190613505565b602060405180830381865afa15801561100d573d6000803e3d6000fd5b505050506040513d601f19601f820116820180604052508101906110319190613686565b9050600a60009054906101000a900473ffffffffffffffffffffffffffffffffffffffff1673ffffffffffffffffffffffffffffffffffffffff16634dc026388a8585856040518563ffffffff1660e01b815260040161109494939291906137f5565b600060405180830381600087803b1580156110ae57600080fd5b505af11580156110c2573d6000803e3d6000fd5b50505050505b505080806110d5906136e7565b915050610eed565b505050505050565b60015481565b6110f3612917565b600660003373ffffffffffffffffffffffffffffffffffffffff1673ffffffffffffffffffffffffffffffffffffffff16815260200190815260200160002060008373ffffffffffffffffffffffffffffffffffffffff1673ffffffffffffffffffffffffffffffffffffffff16815260200190815260200160002060009054906101000a900460ff166111bc576040517f08c379a00000000000000000000000000000000000000000000000000000000081526004016111b3906138ac565b60405180910390fd5b6000600560003373ffffffffffffffffffffffffffffffffffffffff1673ffffffffffffffffffffffffffffffffffffffff1681526020019081526020016000206004015490506000600860003373ffffffffffffffffffffffffffffffffffffffff1673ffffffffffffffffffffffffffffffffffffffff16815260200190815260200160002060008573ffffffffffffffffffffffffffffffffffffffff1673ffffffffffffffffffffffffffffffffffffffff16815260200190815260200160002060010154905060006112938285612b19565b905083600860003373ffffffffffffffffffffffffffffffffffffffff1673ffffffffffffffffffffffffffffffffffffffff16815260200190815260200160002060008773ffffffffffffffffffffffffffffffffffffffff1673ffffffffffffffffffffffffffffffffffffffff168152602001908152602001600020600101819055505050505050565b60056020528060005260406000206000915090508060000160009054906101000a900473ffffffffffffffffffffffffffffffffffffffff1690806001018054611369906138fb565b80601f0160208091040260200160405190810160405280929190818152602001828054611395906138fb565b80156113e25780601f106113b7576101008083540402835291602001916113e2565b820191906000526020600020905b8154815290600101906020018083116113c557829003601f168201915b5050505050908060020180546113f7906138fb565b80601f0160208091040260200160405190810160405280929190818152602001828054611423906138fb565b80156114705780601f1061144557610100808354040283529160200191611470565b820191906000526020600020905b81548152906001019060200180831161145357829003601f168201915b5050505050908060030160009054906101000a900461ffff16908060040154908060050154905086565b600c60009054906101000a900473ffffffffffffffffffffffffffffffffffffffff1681565b600260009054906101000a900467ffffffffffffffff1681565b60008054906101000a900473ffffffffffffffffffffffffffffffffffffffff1681565b60036020528060005260406000206000915090508060000160009054906101000a900473ffffffffffffffffffffffffffffffffffffffff1690806001018054611547906138fb565b80601f0160208091040260200160405190810160405280929190818152602001828054611573906138fb565b80156115c05780601f10611595576101008083540402835291602001916115c0565b820191906000526020600020905b8154815290600101906020018083116115a357829003601f168201915b5050505050908060020180546115d5906138fb565b80601f0160208091040260200160405190810160405280929190818152602001828054611601906138fb565b801561164e5780601f106116235761010080835404028352916020019161164e565b820191906000526020600020905b81548152906001019060200180831161163157829003601f168201915b5050505050908060030160009054906101000a900460ff16908060030160019054906101000a900460ff16905085565b6009602052816000526040600020602052806000526040600020600091509150505481565b6000826116af81612a7f565b6116b7612b49565b60006116c38585612b90565b905083600560008773ffffffffffffffffffffffffffffffffffffffff1673ffffffffffffffffffffffffffffffffffffffff168152602001908152602001600020600401600082825461171791906137c1565b9250508190555083600960008773ffffffffffffffffffffffffffffffffffffffff1673ffffffffffffffffffffffffffffffffffffffff16815260200190815260200160002060003373ffffffffffffffffffffffffffffffffffffffff1673ffffffffffffffffffffffffffffffffffffffff16815260200190815260200160002060008282546117aa91906137c1565b925050819055506000600560008773ffffffffffffffffffffffffffffffffffffffff1673ffffffffffffffffffffffffffffffffffffffff16815260200190815260200160002060030160009054906101000a900461ffff1690506000600190505b8161ffff16811015611958576000600760008973ffffffffffffffffffffffffffffffffffffffff1673ffffffffffffffffffffffffffffffffffffffff168152602001908152602001600020828154811061186c5761186b613642565b5b9060005260206000200160009054906101000a900473ffffffffffffffffffffffffffffffffffffffff16905060006118a689838a6129e9565b9050600081111561194357600a60009054906101000a900473ffffffffffffffffffffffffffffffffffffffff1673ffffffffffffffffffffffffffffffffffffffff1663b5556b878a84846040518463ffffffff1660e01b81526004016119109392919061392c565b600060405180830381600087803b15801561192a57600080fd5b505af115801561193e573d6000803e3d6000fd5b505050505b50508080611950906136e7565b91505061180d565b50600a60009054906101000a900473ffffffffffffffffffffffffffffffffffffffff1673ffffffffffffffffffffffffffffffffffffffff1663d9caed123333856040518463ffffffff1660e01b81526004016119b89392919061392c565b600060405180830381600087803b1580156119d257600080fd5b505af11580156119e6573d6000803e3d6000fd5b50505050600b60009054906101000a900473ffffffffffffffffffffffffffffffffffffffff1673ffffffffffffffffffffffffffffffffffffffff1663d0e30db06001546040518263ffffffff1660e01b81526004016000604051808303818588803b158015611a5657600080fd5b505af1158015611a6a573d6000803e3d6000fd5b505050505081935050505092915050565b611a83612b49565b6000600560003373ffffffffffffffffffffffffffffffffffffffff1673ffffffffffffffffffffffffffffffffffffffff16815260200190815260200160002060030160009054906101000a900461ffff1661ffff1614611b1a576040517f08c379a0000000000000000000000000000000000000000000000000000000008152600401611b11906139af565b60405180910390fd5b60006040518060c001604052803373ffffffffffffffffffffffffffffffffffffffff168152602001858152602001848152602001600161ffff1681526020016000815260200183815250905080600560003373ffffffffffffffffffffffffffffffffffffffff1673ffffffffffffffffffffffffffffffffffffffff16815260200190815260200160002060008201518160000160006101000a81548173ffffffffffffffffffffffffffffffffffffffff021916908373ffffffffffffffffffffffffffffffffffffffff1602179055506020820151816001019081611c039190613b71565b506040820151816002019081611c199190613b71565b5060608201518160030160006101000a81548161ffff021916908361ffff1602179055506080820151816004015560a082015181600501559050506001600660003373ffffffffffffffffffffffffffffffffffffffff1673ffffffffffffffffffffffffffffffffffffffff1681526020019081526020016000206000600173ffffffffffffffffffffffffffffffffffffffff1673ffffffffffffffffffffffffffffffffffffffff16815260200190815260200160002060006101000a81548160ff021916908315150217905550600760003373ffffffffffffffffffffffffffffffffffffffff1673ffffffffffffffffffffffffffffffffffffffff16815260200190815260200160002060019080600181540180825580915050600190039060005260206000200160009091909190916101000a81548173ffffffffffffffffffffffffffffffffffffffff021916908373ffffffffffffffffffffffffffffffffffffffff1602179055503373ffffffffffffffffffffffffffffffffffffffff167f78a619b7d4293cfcdb95df6442fa7663f9246cd2c0092718ca321ba854b81f2785604051611dd19190613c43565b60405180910390a250505050565b60066020528160005260406000206020528060005260406000206000915091509054906101000a900460ff1681565b60046020528060005260406000206000915054906101000a900460ff1681565b600b60009054906101000a900473ffffffffffffffffffffffffffffffffffffffff1681565b600080600560008473ffffffffffffffffffffffffffffffffffffffff1673ffffffffffffffffffffffffffffffffffffffff16815260200190815260200160002060030160009054906101000a900461ffff1690506000805b8261ffff1681101561201f576000600760008773ffffffffffffffffffffffffffffffffffffffff1673ffffffffffffffffffffffffffffffffffffffff1681526020019081526020016000208281548110611f0d57611f0c613642565b5b9060005260206000200160009054906101000a900473ffffffffffffffffffffffffffffffffffffffff1690506000611f48878360016129e9565b90506000600c60009054906101000a900473ffffffffffffffffffffffffffffffffffffffff1673ffffffffffffffffffffffffffffffffffffffff166341976e09846040518263ffffffff1660e01b8152600401611fa79190613184565b6040805180830381865afa158015611fc3573d6000803e3d6000fd5b505050506040513d601f19601f82011682018060405250810190611fe79190613c65565b50905060008183611ff89190613ca5565b9050808661200691906136b3565b9550505050508080612017906136e7565b915050611eae565b508092505050919050565b6007602052816000526040600020818154811061204657600080fd5b906000526020600020016000915091509054906101000a900473ffffffffffffffffffffffffffffffffffffffff1681565b6120806127f8565b8061208a81612d57565b600082905060008060008373ffffffffffffffffffffffffffffffffffffffff16638c4050716040518163ffffffff1660e01b8152600401600060405180830381865afa1580156120df573d6000803e3d6000fd5b505050506040513d6000823e3d601f19601f820116820180604052508101906121089190613d9b565b92509250925060006040518060a001604052808873ffffffffffffffffffffffffffffffffffffffff1681526020018581526020018481526020018360ff16815260200160028081111561215f5761215e6131bb565b5b81525090506001600460008973ffffffffffffffffffffffffffffffffffffffff1673ffffffffffffffffffffffffffffffffffffffff16815260200190815260200160002060006101000a81548160ff02191690831515021790555080600360008973ffffffffffffffffffffffffffffffffffffffff1673ffffffffffffffffffffffffffffffffffffffff16815260200190815260200160002060008201518160000160006101000a81548173ffffffffffffffffffffffffffffffffffffffff021916908373ffffffffffffffffffffffffffffffffffffffff16021790555060208201518160010190816122589190613b71565b50604082015181600201908161226e9190613b71565b5060608201518160030160006101000a81548160ff021916908360ff16021790555060808201518160030160016101000a81548160ff021916908360028111156122bb576122ba6131bb565b5b02179055509050506002600081819054906101000a900467ffffffffffffffff16809291906122e990613e26565b91906101000a81548167ffffffffffffffff021916908367ffffffffffffffff16021790555050600a60009054906101000a900473ffffffffffffffffffffffffffffffffffffffff1673ffffffffffffffffffffffffffffffffffffffff1663d2b3832b886040518263ffffffff1660e01b815260040161236b9190613184565b600060405180830381600087803b15801561238557600080fd5b505af1158015612399573d6000803e3d6000fd5b5050505050505050505050565b6008602052816000526040600020602052806000526040600020600091509150508060000160009054906101000a900473ffffffffffffffffffffffffffffffffffffffff16908060010154905082565b6123ff6127f8565b8061240981612d57565b600082905060006040518060a001604052808573ffffffffffffffffffffffffffffffffffffffff1681526020018373ffffffffffffffffffffffffffffffffffffffff166306fdde036040518163ffffffff1660e01b8152600401600060405180830381865afa158015612482573d6000803e3d6000fd5b505050506040513d6000823e3d601f19601f820116820180604052508101906124ab9190613e56565b81526020018373ffffffffffffffffffffffffffffffffffffffff166395d89b416040518163ffffffff1660e01b8152600401600060405180830381865afa1580156124fb573d6000803e3d6000fd5b505050506040513d6000823e3d601f19601f820116820180604052508101906125249190613e56565b81526020018373ffffffffffffffffffffffffffffffffffffffff1663313ce5676040518163ffffffff1660e01b8152600401602060405180830381865afa158015612574573d6000803e3d6000fd5b505050506040513d601f19601f820116820180604052508101906125989190613e9f565b60ff168152602001600160028111156125b4576125b36131bb565b5b81525090506001600460008673ffffffffffffffffffffffffffffffffffffffff1673ffffffffffffffffffffffffffffffffffffffff16815260200190815260200160002060006101000a81548160ff02191690831515021790555080600360008673ffffffffffffffffffffffffffffffffffffffff1673ffffffffffffffffffffffffffffffffffffffff16815260200190815260200160002060008201518160000160006101000a81548173ffffffffffffffffffffffffffffffffffffffff021916908373ffffffffffffffffffffffffffffffffffffffff16021790555060208201518160010190816126ad9190613b71565b5060408201518160020190816126c39190613b71565b5060608201518160030160006101000a81548160ff021916908360ff16021790555060808201518160030160016101000a81548160ff021916908360028111156127105761270f6131bb565b5b02179055509050506002600081819054906101000a900467ffffffffffffffff168092919061273e90613e26565b91906101000a81548167ffffffffffffffff021916908367ffffffffffffffff16021790555050600a60009054906101000a900473ffffffffffffffffffffffffffffffffffffffff1673ffffffffffffffffffffffffffffffffffffffff1663e3a0b800856040518263ffffffff1660e01b81526004016127c09190613184565b600060405180830381600087803b1580156127da57600080fd5b505af11580156127ee573d6000803e3d6000fd5b5050505050505050565b60008054906101000a900473ffffffffffffffffffffffffffffffffffffffff1673ffffffffffffffffffffffffffffffffffffffff163373ffffffffffffffffffffffffffffffffffffffff1614612886576040517f08c379a000000000000000000000000000000000000000000000000000000000815260040161287d90613f3e565b60405180910390fd5b565b600460008273ffffffffffffffffffffffffffffffffffffffff1673ffffffffffffffffffffffffffffffffffffffff16815260200190815260200160002060009054906101000a900460ff16612914576040517f08c379a000000000000000000000000000000000000000000000000000000000815260040161290b90613faa565b60405180910390fd5b50565b3373ffffffffffffffffffffffffffffffffffffffff16600560003373ffffffffffffffffffffffffffffffffffffffff1673ffffffffffffffffffffffffffffffffffffffff16815260200190815260200160002060000160009054906101000a900473ffffffffffffffffffffffffffffffffffffffff1673ffffffffffffffffffffffffffffffffffffffff16146129e7576040517f08c379a00000000000000000000000000000000000000000000000000000000081526004016129de9061403c565b60405180910390fd5b565b600081600860008673ffffffffffffffffffffffffffffffffffffffff1673ffffffffffffffffffffffffffffffffffffffff16815260200190815260200160002060008573ffffffffffffffffffffffffffffffffffffffff1673ffffffffffffffffffffffffffffffffffffffff16815260200190815260200160002060010154612a769190613ca5565b90509392505050565b6000600560008373ffffffffffffffffffffffffffffffffffffffff1673ffffffffffffffffffffffffffffffffffffffff16815260200190815260200160002060030160009054906101000a900461ffff1661ffff1611612b16576040517f08c379a0000000000000000000000000000000000000000000000000000000008152600401612b0d906140a8565b60405180910390fd5b50565b600081831015612b34578282612b2f91906137c1565b612b41565b8183612b4091906137c1565b5b905092915050565b600154341015612b8e576040517f08c379a0000000000000000000000000000000000000000000000000000000008152600401612b859061413a565b60405180910390fd5b565b600080600560008573ffffffffffffffffffffffffffffffffffffffff1673ffffffffffffffffffffffffffffffffffffffff16815260200190815260200160002060030160009054906101000a900461ffff1690506000805b8261ffff16811015612d4b576000600760008873ffffffffffffffffffffffffffffffffffffffff1673ffffffffffffffffffffffffffffffffffffffff1681526020019081526020016000208281548110612c4957612c48613642565b5b9060005260206000200160009054906101000a900473ffffffffffffffffffffffffffffffffffffffff1690506000612c838883896129e9565b90506000600c60009054906101000a900473ffffffffffffffffffffffffffffffffffffffff1673ffffffffffffffffffffffffffffffffffffffff166396b7bab684846040518363ffffffff1660e01b8152600401612ce4929190613505565b602060405180830381865afa158015612d01573d6000803e3d6000fd5b505050506040513d601f19601f82011682018060405250810190612d259190613686565b90508085612d3391906136b3565b94505050508080612d43906136e7565b915050612bea565b50809250505092915050565b600460008273ffffffffffffffffffffffffffffffffffffffff1673ffffffffffffffffffffffffffffffffffffffff16815260200190815260200160002060009054906101000a900460ff1615612de4576040517f08c379a0000000000000000000000000000000000000000000000000000000008152600401612ddb906141a6565b60405180910390fd5b50565b6000604051905090565b600080fd5b600080fd5b6000819050919050565b612e0e81612dfb565b8114612e1957600080fd5b50565b600081359050612e2b81612e05565b92915050565b600060208284031215612e4757612e46612df1565b5b6000612e5584828501612e1c565b91505092915050565b600073ffffffffffffffffffffffffffffffffffffffff82169050919050565b6000612e8982612e5e565b9050919050565b612e9981612e7e565b8114612ea457600080fd5b50565b600081359050612eb681612e90565b92915050565b600060208284031215612ed257612ed1612df1565b5b6000612ee084828501612ea7565b91505092915050565b60008060408385031215612f0057612eff612df1565b5b6000612f0e85828601612ea7565b9250506020612f1f85828601612e1c565b9150509250929050565b612f3281612dfb565b82525050565b6000602082019050612f4d6000830184612f29565b92915050565b6000819050919050565b6000612f78612f73612f6e84612e5e565b612f53565b612e5e565b9050919050565b6000612f8a82612f5d565b9050919050565b6000612f9c82612f7f565b9050919050565b612fac81612f91565b82525050565b6000602082019050612fc76000830184612fa3565b92915050565b612fd681612e7e565b82525050565b600081519050919050565b600082825260208201905092915050565b60005b83811015613016578082015181840152602081019050612ffb565b60008484015250505050565b6000601f19601f8301169050919050565b600061303e82612fdc565b6130488185612fe7565b9350613058818560208601612ff8565b61306181613022565b840191505092915050565b600061ffff82169050919050565b6130838161306c565b82525050565b600060c08201905061309e6000830189612fcd565b81810360208301526130b08188613033565b905081810360408301526130c48187613033565b90506130d3606083018661307a565b6130e06080830185612f29565b6130ed60a0830184612f29565b979650505050505050565b600061310382612f5d565b9050919050565b6000613115826130f8565b9050919050565b6131258161310a565b82525050565b6000602082019050613140600083018461311c565b92915050565b600067ffffffffffffffff82169050919050565b61316381613146565b82525050565b600060208201905061317e600083018461315a565b92915050565b60006020820190506131996000830184612fcd565b92915050565b600060ff82169050919050565b6131b58161319f565b82525050565b7f4e487b7100000000000000000000000000000000000000000000000000000000600052602160045260246000fd5b600381106131fb576131fa6131bb565b5b50565b600081905061320c826131ea565b919050565b600061321c826131fe565b9050919050565b61322c81613211565b82525050565b600060a0820190506132476000830188612fcd565b81810360208301526132598187613033565b9050818103604083015261326d8186613033565b905061327c60608301856131ac565b6132896080830184613223565b9695505050505050565b600080604083850312156132aa576132a9612df1565b5b60006132b885828601612ea7565b92505060206132c985828601612ea7565b9150509250929050565b600080fd5b600080fd5b7f4e487b7100000000000000000000000000000000000000000000000000000000600052604160045260246000fd5b61331582613022565b810181811067ffffffffffffffff82111715613334576133336132dd565b5b80604052505050565b6000613347612de7565b9050613353828261330c565b919050565b600067ffffffffffffffff821115613373576133726132dd565b5b61337c82613022565b9050602081019050919050565b82818337600083830152505050565b60006133ab6133a684613358565b61333d565b9050828152602081018484840111156133c7576133c66132d8565b5b6133d2848285613389565b509392505050565b600082601f8301126133ef576133ee6132d3565b5b81356133ff848260208601613398565b91505092915050565b60008060006060848603121561342157613420612df1565b5b600084013567ffffffffffffffff81111561343f5761343e612df6565b5b61344b868287016133da565b935050602084013567ffffffffffffffff81111561346c5761346b612df6565b5b613478868287016133da565b925050604061348986828701612e1c565b9150509250925092565b60008115159050919050565b6134a881613493565b82525050565b60006020820190506134c3600083018461349f565b92915050565b60006134d4826130f8565b9050919050565b6134e4816134c9565b82525050565b60006020820190506134ff60008301846134db565b92915050565b600060408201905061351a6000830185612fcd565b6135276020830184612f29565b9392505050565b7f4e487b7100000000000000000000000000000000000000000000000000000000600052601160045260246000fd5b600061356882613146565b91506000820361357b5761357a61352e565b5b600182039050919050565b7f417373657420616c726561647920616464656420746f207468697320706f727460008201527f666f6c696f210000000000000000000000000000000000000000000000000000602082015250565b60006135e2602683612fe7565b91506135ed82613586565b604082019050919050565b60006020820190508181036000830152613611816135d5565b9050919050565b60006136238261306c565b915061ffff82036136375761363661352e565b5b600182019050919050565b7f4e487b7100000000000000000000000000000000000000000000000000000000600052603260045260246000fd5b60008151905061368081612e05565b92915050565b60006020828403121561369c5761369b612df1565b5b60006136aa84828501613671565b91505092915050565b60006136be82612dfb565b91506136c983612dfb565b92508282019050808211156136e1576136e061352e565b5b92915050565b60006136f282612dfb565b91507fffffffffffffffffffffffffffffffffffffffffffffffffffffffffffffffff82036137245761372361352e565b5b600182019050919050565b7f436f7374206f66207368617265732069732065786365656473207472616e736660008201527f657272656420616d6f756e742100000000000000000000000000000000000000602082015250565b600061378b602d83612fe7565b91506137968261372f565b604082019050919050565b600060208201905081810360008301526137ba8161377e565b9050919050565b60006137cc82612dfb565b91506137d783612dfb565b92508282039050818111156137ef576137ee61352e565b5b92915050565b600060808201905061380a6000830187612fcd565b6138176020830186612fcd565b6138246040830185612f29565b6138316060830184612f29565b95945050505050565b7f4173736574206d75737420626520616464656420746f20706f7274666f6c696f60008201527f2100000000000000000000000000000000000000000000000000000000000000602082015250565b6000613896602183612fe7565b91506138a18261383a565b604082019050919050565b600060208201905081810360008301526138c581613889565b9050919050565b7f4e487b7100000000000000000000000000000000000000000000000000000000600052602260045260246000fd5b6000600282049050600182168061391357607f821691505b602082108103613926576139256138cc565b5b50919050565b60006060820190506139416000830186612fcd565b61394e6020830185612fcd565b61395b6040830184612f29565b949350505050565b7f506f7274666f6c696f20616c7265616479206578697374730000000000000000600082015250565b6000613999601883612fe7565b91506139a482613963565b602082019050919050565b600060208201905081810360008301526139c88161398c565b9050919050565b60008190508160005260206000209050919050565b60006020601f8301049050919050565b600082821b905092915050565b600060088302613a317fffffffffffffffffffffffffffffffffffffffffffffffffffffffffffffffff826139f4565b613a3b86836139f4565b95508019841693508086168417925050509392505050565b6000613a6e613a69613a6484612dfb565b612f53565b612dfb565b9050919050565b6000819050919050565b613a8883613a53565b613a9c613a9482613a75565b848454613a01565b825550505050565b600090565b613ab1613aa4565b613abc818484613a7f565b505050565b5b81811015613ae057613ad5600082613aa9565b600181019050613ac2565b5050565b601f821115613b2557613af6816139cf565b613aff846139e4565b81016020851015613b0e578190505b613b22613b1a856139e4565b830182613ac1565b50505b505050565b600082821c905092915050565b6000613b4860001984600802613b2a565b1980831691505092915050565b6000613b618383613b37565b9150826002028217905092915050565b613b7a82612fdc565b67ffffffffffffffff811115613b9357613b926132dd565b5b613b9d82546138fb565b613ba8828285613ae4565b600060209050601f831160018114613bdb5760008415613bc9578287015190505b613bd38582613b55565b865550613c3b565b601f198416613be9866139cf565b60005b82811015613c1157848901518255600182019150602085019450602081019050613bec565b86831015613c2e5784890151613c2a601f891682613b37565b8355505b6001600288020188555050505b505050505050565b60006020820190508181036000830152613c5d8184613033565b905092915050565b60008060408385031215613c7c57613c7b612df1565b5b6000613c8a85828601613671565b9250506020613c9b85828601613671565b9150509250929050565b6000613cb082612dfb565b9150613cbb83612dfb565b9250817fffffffffffffffffffffffffffffffffffffffffffffffffffffffffffffffff0483118215151615613cf457613cf361352e565b5b828202905092915050565b6000613d12613d0d84613358565b61333d565b905082815260208101848484011115613d2e57613d2d6132d8565b5b613d39848285612ff8565b509392505050565b600082601f830112613d5657613d556132d3565b5b8151613d66848260208601613cff565b91505092915050565b613d788161319f565b8114613d8357600080fd5b50565b600081519050613d9581613d6f565b92915050565b600080600060608486031215613db457613db3612df1565b5b600084015167ffffffffffffffff811115613dd257613dd1612df6565b5b613dde86828701613d41565b935050602084015167ffffffffffffffff811115613dff57613dfe612df6565b5b613e0b86828701613d41565b9250506040613e1c86828701613d86565b9150509250925092565b6000613e3182613146565b915067ffffffffffffffff8203613e4b57613e4a61352e565b5b600182019050919050565b600060208284031215613e6c57613e6b612df1565b5b600082015167ffffffffffffffff811115613e8a57613e89612df6565b5b613e9684828501613d41565b91505092915050565b600060208284031215613eb557613eb4612df1565b5b6000613ec384828501613d86565b91505092915050565b7f43616c6c6572206d7573742062652074686520636f6e7472616374206f776e6560008201527f7221000000000000000000000000000000000000000000000000000000000000602082015250565b6000613f28602283612fe7565b9150613f3382613ecc565b604082019050919050565b60006020820190508181036000830152613f5781613f1b565b9050919050565b7f4173736574206973206e6f7420617661696c61626c6521000000000000000000600082015250565b6000613f94601783612fe7565b9150613f9f82613f5e565b602082019050919050565b60006020820190508181036000830152613fc381613f87565b9050919050565b7f43616c6c206d7573742062652074686520706f7274666f6c696f206f776e657260008201527f2100000000000000000000000000000000000000000000000000000000000000602082015250565b6000614026602183612fe7565b915061403182613fca565b604082019050919050565b6000602082019050818103600083015261405581614019565b9050919050565b7f506f7274666f6c696f20646f65736e2774206578697374732100000000000000600082015250565b6000614092601983612fe7565b915061409d8261405c565b602082019050919050565b600060208201905081810360008301526140c181614085565b9050919050565b7f4d696e2e20706c6174666f726d436f6d6d697373696f6e2068617320746f206260008201527f6520706169642100000000000000000000000000000000000000000000000000602082015250565b6000614124602783612fe7565b915061412f826140c8565b604082019050919050565b6000602082019050818103600083015261415381614117565b9050919050565b7f417373657420616c726561647920657869737473210000000000000000000000600082015250565b6000614190601583612fe7565b915061419b8261415a565b602082019050919050565b600060208201905081810360008301526141bf81614183565b905091905056fea2646970667358221220d0996c9ab88e76c987f5356600f33824239e56f660ec3099313bcf95498da59e64736f6c63430008100033",
  "immutableReferences": {},
  "source": "pragma solidity ^0.8.16;\n\nimport \"./Oracle.sol\";\nimport \"./Treasury.sol\";\nimport \"./Reserve.sol\";\nimport \"./Mirrored.sol\";\n\ncontract Portfolium {\n    enum AssetTypes {\n        Native,\n        ERC20,\n        Mirrored\n    }\n\n    struct AssetAllocation {\n        address assetAddress;\n        uint256 perShareAmount;\n    }\n\n    struct Asset {\n        address assetAddress;\n        string name;\n        string symbol;\n        uint8 decimals;\n        AssetTypes assetType;\n    }\n\n    struct Portfolio {\n        address owner;\n        string name;\n        string symbol;\n        uint16 assetCount;\n        uint256 totalSupply;\n        uint256 commission;\n    }\n\n    address public ownerAddress;\n    uint256 public platformCommission;\n\n    uint64 public availableAssetCount;\n    mapping(address => Asset) public availableAssets;\n    mapping(address => bool) public availableAssetAddresses;\n\n    mapping(address => Portfolio) public portfolios;\n    mapping(address => mapping(address => bool)) public portfolioAssets;\n    mapping(address => address[]) public portfolioAssetAddresses;\n    mapping(address => mapping(address => AssetAllocation))\n        public portfolioAssetAllocations;\n    mapping(address => mapping(address => uint256)) public portfolioBalanceOf;\n\n    Treasury public treasury;\n    Reserve public reserve;\n    Oracle public oracle;\n\n    constructor(\n        Oracle _oracle,\n        Treasury _treasury,\n        Reserve _reserve,\n        uint256 _platformCommission,\n        string memory _nativeName,\n        string memory _nativeSymbol,\n        uint8 _nativeDecimals\n    ) {\n        ownerAddress = msg.sender;\n        oracle = _oracle;\n        treasury = _treasury;\n        reserve = _reserve;\n        platformCommission = _platformCommission;\n        availableAssetAddresses[address(1)] = true;\n        availableAssets[address(1)] = Asset(\n            address(1),\n            _nativeName,\n            _nativeSymbol,\n            _nativeDecimals,\n            AssetTypes.Native\n        );\n        availableAssetCount = 1;\n    }\n\n    // ---------- EVENTS ----------\n\n    event PortfolioCreated(address indexed owner, string name);\n\n    // ---------- MODIFIERS ----------\n\n    function _mustPayPlatformCommission() private view {\n        require(\n            msg.value >= platformCommission,\n            \"Min. platformCommission has to be paid!\"\n        );\n    }\n\n    modifier mustPayPlatformCommission() {\n        _mustPayPlatformCommission();\n        _;\n    }\n\n    function _mustBeNewAsset(address _assetAddress) private view {\n        require(\n            !availableAssetAddresses[_assetAddress],\n            \"Asset already exists!\"\n        );\n    }\n\n    modifier mustBeNewAsset(address _assetAddress) {\n        _mustBeNewAsset(_assetAddress);\n        _;\n    }\n\n    function _mustBeAvailableAsset(address _assetAddress) private view {\n        require(\n            availableAssetAddresses[_assetAddress],\n            \"Asset is not available!\"\n        );\n    }\n\n    modifier mustBeAvailableAsset(address _assetAddress) {\n        _mustBeAvailableAsset(_assetAddress);\n        _;\n    }\n\n    function _mustBeExistingPortfolio(address _portfolioAddress) private view {\n        require(\n            portfolios[_portfolioAddress].assetCount > 0,\n            \"Portfolio doesn't exists!\"\n        );\n    }\n\n    modifier mustBeExistingPortfolio(address _portfolioAddress) {\n        _mustBeExistingPortfolio(_portfolioAddress);\n        _;\n    }\n\n    function _onlyOwner() private view {\n        require(\n            msg.sender == ownerAddress,\n            \"Caller must be the contract owner!\"\n        );\n    }\n\n    modifier onlyOwner() {\n        _onlyOwner();\n        _;\n    }\n\n    function _onlyPortfolioOwner() private view {\n        require(\n            portfolios[msg.sender].owner == msg.sender,\n            \"Call must be the portfolio owner!\"\n        );\n    }\n\n    modifier onlyPortfolioOwner() {\n        _onlyPortfolioOwner();\n        _;\n    }\n\n    // ---------- CONTRACT MANAGEMENT ----------\n\n    function updatePlatformCommission(uint256 _platformCommission)\n        external\n        onlyOwner\n    {\n        platformCommission = _platformCommission;\n    }\n\n    function addSupportedERC20Asset(address _assetAddress)\n        external\n        onlyOwner\n        mustBeNewAsset(_assetAddress)\n    {\n        TokenERC20 token = TokenERC20(_assetAddress);\n        Asset memory asset = Asset(\n            _assetAddress,\n            token.name(),\n            token.symbol(),\n            token.decimals(),\n            AssetTypes.ERC20\n        );\n        availableAssetAddresses[_assetAddress] = true;\n        availableAssets[_assetAddress] = asset;\n        availableAssetCount++;\n        treasury.addERC20Asset(_assetAddress);\n    }\n\n    function addSupportedMirroredAsset(address _assetAddress)\n        external\n        onlyOwner\n        mustBeNewAsset(_assetAddress)\n    {\n        Mirrored mirrored = Mirrored(_assetAddress);\n        (\n            string memory assetName,\n            string memory assetSymbol,\n            uint8 decimals\n        ) = mirrored.assetDetails();\n\n        Asset memory asset = Asset(\n            _assetAddress,\n            assetName,\n            assetSymbol,\n            decimals,\n            AssetTypes.Mirrored\n        );\n        availableAssetAddresses[_assetAddress] = true;\n        availableAssets[_assetAddress] = asset;\n        availableAssetCount++;\n        treasury.addMirroredAsset(_assetAddress);\n    }\n\n    function removeSupportedAsset(address _assetAddress) external onlyOwner {\n        availableAssetAddresses[_assetAddress] = false;\n        availableAssetCount--;\n    }\n\n    // ---------- PORTFOLIO MANAGEMENT ----------\n\n    function createPortfolio(\n        string memory _name,\n        string memory _symbol,\n        uint256 _initCommission\n    ) external payable mustPayPlatformCommission {\n        require(\n            portfolios[msg.sender].assetCount == 0,\n            \"Portfolio already exists\"\n        );\n\n        Portfolio memory portfolio = Portfolio({\n            name: _name,\n            symbol: _symbol,\n            assetCount: 1,\n            totalSupply: 0,\n            commission: _initCommission,\n            owner: msg.sender\n        });\n        portfolios[msg.sender] = portfolio;\n        portfolioAssets[msg.sender][address(1)] = true;\n        portfolioAssetAddresses[msg.sender].push(address(1));\n        emit PortfolioCreated(msg.sender, _name);\n    }\n\n    function addAsset(address _assetAddress)\n        external\n        mustBeAvailableAsset(_assetAddress)\n        onlyPortfolioOwner\n    {\n        {\n            require(\n                !portfolioAssets[msg.sender][_assetAddress],\n                \"Asset already added to this portfolio!\"\n            );\n        }\n        portfolioAssets[msg.sender][_assetAddress] = true;\n        portfolios[msg.sender].assetCount++;\n        portfolioAssetAddresses[msg.sender].push(_assetAddress);\n        portfolioAssetAllocations[msg.sender][_assetAddress] = AssetAllocation(\n            _assetAddress,\n            0\n        );\n    }\n\n    function updateAllocation(address _assetAddress, uint256 _perShareAmount)\n        external\n        onlyPortfolioOwner\n    {\n        {\n            require(\n                portfolioAssets[msg.sender][_assetAddress],\n                \"Asset must be added to portfolio!\"\n            );\n        }\n        uint256 totalSupply = portfolios[msg.sender].totalSupply;\n        uint256 prevAmount = portfolioAssetAllocations[msg.sender][\n            _assetAddress\n        ].perShareAmount;\n        uint256 diff = _absDiff(prevAmount, _perShareAmount);\n        portfolioAssetAllocations[msg.sender][_assetAddress]\n            .perShareAmount = _perShareAmount;\n\n        if (totalSupply > 0) {\n            // TODO: proper rebalancing\n            // if (prevAmount > _perShareAmount) {\n            //     treasury.sellAsset(\n            //         msg.sender,\n            //         _assetAddress,\n            //         diff * totalSupply\n            //     );\n            // } else if (prevAmount < _perShareAmount) {\n            //     treasury.buyAsset(\n            //         msg.sender,\n            //         _assetAddress,\n            //         diff * totalSupply\n            //     );\n            // }\n        }\n    }\n\n    // ---------- TRADING ----------\n\n    function buyShares(address _portfolioAddress, uint256 _amount)\n        external\n        payable\n        mustBeExistingPortfolio(_portfolioAddress)\n    {\n        uint256 cost = calculateBuyingCost(_portfolioAddress, _amount);\n        require(\n            cost <= msg.value,\n            \"Cost of shares is exceeds transferred amount!\"\n        );\n        portfolios[_portfolioAddress].totalSupply += _amount;\n        portfolioBalanceOf[_portfolioAddress][msg.sender] += _amount;\n        reserve.deposit{value: platformCommission}();\n        treasury.deposit{value: msg.value - platformCommission}(msg.sender);\n\n        uint16 selectedPortfolioAssetCount = portfolios[_portfolioAddress]\n            .assetCount;\n        for (uint256 i = 1; i < selectedPortfolioAssetCount; i++) {\n            address assetAddress = portfolioAssetAddresses[_portfolioAddress][\n                i\n            ];\n            uint256 amountToBuy = _getAssetAmount(\n                _portfolioAddress,\n                assetAddress,\n                _amount\n            );\n\n            if (amountToBuy > 0) {\n                uint256 assetCost = oracle.getBuyingCost(\n                    assetAddress,\n                    amountToBuy\n                );\n                treasury.buyAsset(\n                    _portfolioAddress,\n                    assetAddress,\n                    amountToBuy,\n                    assetCost\n                );\n            }\n        }\n    }\n\n    function sellShares(address _portfolioAddress, uint256 _amount)\n        external\n        payable\n        mustBeExistingPortfolio(_portfolioAddress)\n        mustPayPlatformCommission\n        returns (uint256)\n    {\n        uint256 payout = _calculatePayoutPrice(_portfolioAddress, _amount);\n        portfolios[_portfolioAddress].totalSupply -= _amount;\n        portfolioBalanceOf[_portfolioAddress][msg.sender] -= _amount;\n\n        uint16 selectedPortfolioAssetCount = portfolios[_portfolioAddress]\n            .assetCount;\n        for (uint256 i = 1; i < selectedPortfolioAssetCount; i++) {\n            address assetAddress = portfolioAssetAddresses[_portfolioAddress][\n                i\n            ];\n            uint256 amountToSell = _getAssetAmount(\n                _portfolioAddress,\n                assetAddress,\n                _amount\n            );\n            if (amountToSell > 0) {\n                treasury.sellAsset(\n                    _portfolioAddress,\n                    assetAddress,\n                    amountToSell\n                );\n            }\n        }\n\n        treasury.withdraw(msg.sender, msg.sender, payout);\n        reserve.deposit{value: platformCommission}();\n\n        return payout;\n    }\n\n    // ---------- GETTERS ----------\n\n    function calculateBuyingCost(address _portfolioAddress, uint256 _amount)\n        public\n        view\n        returns (uint256)\n    {\n        uint16 selectedPortfolioAssetCount = portfolios[_portfolioAddress]\n            .assetCount;\n        uint256 totalCost = 0;\n\n        for (uint256 i = 0; i < selectedPortfolioAssetCount; i++) {\n            address assetAddress = portfolioAssetAddresses[_portfolioAddress][\n                i\n            ];\n            uint256 amountToBuy = _getAssetAmount(\n                _portfolioAddress,\n                assetAddress,\n                _amount\n            );\n            uint256 buyingCost = oracle.getBuyingCost(\n                assetAddress,\n                amountToBuy\n            );\n            totalCost += buyingCost;\n        }\n\n        return (totalCost += platformCommission);\n    }\n\n    function getTokenPrice(address _portfolioAddress)\n        public\n        view\n        returns (uint256)\n    {\n        uint16 selectedPortfolioAssetCount = portfolios[_portfolioAddress]\n            .assetCount;\n        uint256 tokenPrice = 0;\n\n        for (uint256 i = 0; i < selectedPortfolioAssetCount; i++) {\n            address assetAddress = portfolioAssetAddresses[_portfolioAddress][\n                i\n            ];\n            uint256 perShareAmount = _getAssetAmount(\n                _portfolioAddress,\n                assetAddress,\n                1\n            );\n            (uint256 assetPrice, ) = oracle.getPrice(assetAddress);\n            uint256 price = (perShareAmount * assetPrice);\n            tokenPrice += price;\n        }\n        return tokenPrice;\n    }\n\n    // ---------- HELPERS ----------\n\n    function _calculatePayoutPrice(address _portfolioAddress, uint256 _amount)\n        internal\n        view\n        returns (uint256)\n    {\n        uint16 selectedPortfolioAssetCount = portfolios[_portfolioAddress]\n            .assetCount;\n        uint256 payoutTotal = 0;\n\n        for (uint256 i = 0; i < selectedPortfolioAssetCount; i++) {\n            address assetAddress = portfolioAssetAddresses[_portfolioAddress][\n                i\n            ];\n            uint256 amountToSell = _getAssetAmount(\n                _portfolioAddress,\n                assetAddress,\n                _amount\n            );\n            uint256 payoutAmount = oracle.getPayoutAmount(\n                assetAddress,\n                amountToSell\n            );\n            payoutTotal += payoutAmount;\n        }\n        return payoutTotal;\n    }\n\n    function _getAssetAmount(\n        address _portfolioAddress,\n        address _assetAddress,\n        uint256 _amount\n    ) internal view returns (uint256) {\n        return\n            portfolioAssetAllocations[_portfolioAddress][_assetAddress]\n                .perShareAmount * _amount;\n    }\n\n    function _absDiff(uint256 a, uint256 b) internal pure returns (uint256) {\n        return a >= b ? a - b : b - a;\n    }\n}\n",
  "sourcePath": "/home/d4fttasiii/git/portfolium/src/fund-contract/contracts/Portfolium.sol",
  "compiler": {
    "name": "solc",
    "version": "0.8.16+commit.07a7930e.Emscripten.clang"
  },
  "schemaVersion": "3.4.9",
  "updatedAt": "2022-12-09T15:19:25.017Z",
  "devdoc": {
    "kind": "dev",
    "methods": {},
    "version": 1
  },
  "userdoc": {
    "kind": "user",
    "methods": {},
    "version": 1
  }
}