{
  "contractName": "Portfolium",
  "abi": [
    {
      "inputs": [
        {
          "internalType": "contract Oracle",
          "name": "_oracle",
          "type": "address"
        },
        {
          "internalType": "contract Treasury",
          "name": "_treasury",
          "type": "address"
        },
        {
          "internalType": "contract Reserve",
          "name": "_reserve",
          "type": "address"
        },
        {
          "internalType": "uint256",
          "name": "_platformCommission",
          "type": "uint256"
        },
        {
          "internalType": "string",
          "name": "_nativeName",
          "type": "string"
        },
        {
          "internalType": "string",
          "name": "_nativeSymbol",
          "type": "string"
        },
        {
          "internalType": "uint8",
          "name": "_nativeDecimals",
          "type": "uint8"
        }
      ],
      "stateMutability": "nonpayable",
      "type": "constructor"
    },
    {
      "anonymous": false,
      "inputs": [
        {
          "indexed": true,
          "internalType": "address",
          "name": "owner",
          "type": "address"
        },
        {
          "indexed": false,
          "internalType": "string",
          "name": "name",
          "type": "string"
        }
      ],
      "name": "PortfolioCreated",
      "type": "event"
    },
    {
      "inputs": [
        {
          "internalType": "address",
          "name": "",
          "type": "address"
        }
      ],
      "name": "availableAssetAddresses",
      "outputs": [
        {
          "internalType": "bool",
          "name": "",
          "type": "bool"
        }
      ],
      "stateMutability": "view",
      "type": "function"
    },
    {
      "inputs": [],
      "name": "availableAssetCount",
      "outputs": [
        {
          "internalType": "uint64",
          "name": "",
          "type": "uint64"
        }
      ],
      "stateMutability": "view",
      "type": "function"
    },
    {
      "inputs": [
        {
          "internalType": "address",
          "name": "",
          "type": "address"
        }
      ],
      "name": "availableAssets",
      "outputs": [
        {
          "internalType": "address",
          "name": "assetAddress",
          "type": "address"
        },
        {
          "internalType": "string",
          "name": "name",
          "type": "string"
        },
        {
          "internalType": "string",
          "name": "symbol",
          "type": "string"
        },
        {
          "internalType": "uint8",
          "name": "decimals",
          "type": "uint8"
        },
        {
          "internalType": "enum Portfolium.AssetTypes",
          "name": "assetType",
          "type": "uint8"
        }
      ],
      "stateMutability": "view",
      "type": "function"
    },
    {
      "inputs": [],
      "name": "oracle",
      "outputs": [
        {
          "internalType": "contract Oracle",
          "name": "",
          "type": "address"
        }
      ],
      "stateMutability": "view",
      "type": "function"
    },
    {
      "inputs": [],
      "name": "ownerAddress",
      "outputs": [
        {
          "internalType": "address",
          "name": "",
          "type": "address"
        }
      ],
      "stateMutability": "view",
      "type": "function"
    },
    {
      "inputs": [],
      "name": "platformCommission",
      "outputs": [
        {
          "internalType": "uint256",
          "name": "",
          "type": "uint256"
        }
      ],
      "stateMutability": "view",
      "type": "function"
    },
    {
      "inputs": [
        {
          "internalType": "address",
          "name": "",
          "type": "address"
        },
        {
          "internalType": "uint256",
          "name": "",
          "type": "uint256"
        }
      ],
      "name": "portfolioAssetAddresses",
      "outputs": [
        {
          "internalType": "address",
          "name": "",
          "type": "address"
        }
      ],
      "stateMutability": "view",
      "type": "function"
    },
    {
      "inputs": [
        {
          "internalType": "address",
          "name": "",
          "type": "address"
        },
        {
          "internalType": "address",
          "name": "",
          "type": "address"
        }
      ],
      "name": "portfolioAssetAllocations",
      "outputs": [
        {
          "internalType": "address",
          "name": "assetAddress",
          "type": "address"
        },
        {
          "internalType": "uint256",
          "name": "perShareAmount",
          "type": "uint256"
        }
      ],
      "stateMutability": "view",
      "type": "function"
    },
    {
      "inputs": [
        {
          "internalType": "address",
          "name": "",
          "type": "address"
        },
        {
          "internalType": "address",
          "name": "",
          "type": "address"
        }
      ],
      "name": "portfolioAssets",
      "outputs": [
        {
          "internalType": "bool",
          "name": "",
          "type": "bool"
        }
      ],
      "stateMutability": "view",
      "type": "function"
    },
    {
      "inputs": [
        {
          "internalType": "address",
          "name": "",
          "type": "address"
        },
        {
          "internalType": "address",
          "name": "",
          "type": "address"
        }
      ],
      "name": "portfolioBalanceOf",
      "outputs": [
        {
          "internalType": "uint256",
          "name": "",
          "type": "uint256"
        }
      ],
      "stateMutability": "view",
      "type": "function"
    },
    {
      "inputs": [
        {
          "internalType": "address",
          "name": "",
          "type": "address"
        }
      ],
      "name": "portfolios",
      "outputs": [
        {
          "internalType": "address",
          "name": "owner",
          "type": "address"
        },
        {
          "internalType": "string",
          "name": "name",
          "type": "string"
        },
        {
          "internalType": "string",
          "name": "symbol",
          "type": "string"
        },
        {
          "internalType": "uint16",
          "name": "assetCount",
          "type": "uint16"
        },
        {
          "internalType": "uint256",
          "name": "totalSupply",
          "type": "uint256"
        },
        {
          "internalType": "uint256",
          "name": "commission",
          "type": "uint256"
        }
      ],
      "stateMutability": "view",
      "type": "function"
    },
    {
      "inputs": [],
      "name": "reserve",
      "outputs": [
        {
          "internalType": "contract Reserve",
          "name": "",
          "type": "address"
        }
      ],
      "stateMutability": "view",
      "type": "function"
    },
    {
      "inputs": [],
      "name": "treasury",
      "outputs": [
        {
          "internalType": "contract Treasury",
          "name": "",
          "type": "address"
        }
      ],
      "stateMutability": "view",
      "type": "function"
    },
    {
      "inputs": [
        {
          "internalType": "uint256",
          "name": "_platformCommission",
          "type": "uint256"
        }
      ],
      "name": "updatePlatformCommission",
      "outputs": [],
      "stateMutability": "nonpayable",
      "type": "function"
    },
    {
      "inputs": [
        {
          "internalType": "address",
          "name": "_assetAddress",
          "type": "address"
        }
      ],
      "name": "addSupportedERC20Asset",
      "outputs": [],
      "stateMutability": "nonpayable",
      "type": "function"
    },
    {
      "inputs": [
        {
          "internalType": "address",
          "name": "_assetAddress",
          "type": "address"
        }
      ],
      "name": "addSupportedMirroredAsset",
      "outputs": [],
      "stateMutability": "nonpayable",
      "type": "function"
    },
    {
      "inputs": [
        {
          "internalType": "address",
          "name": "_assetAddress",
          "type": "address"
        }
      ],
      "name": "removeSupportedAsset",
      "outputs": [],
      "stateMutability": "nonpayable",
      "type": "function"
    },
    {
      "inputs": [
        {
          "internalType": "string",
          "name": "_name",
          "type": "string"
        },
        {
          "internalType": "string",
          "name": "_symbol",
          "type": "string"
        },
        {
          "internalType": "uint256",
          "name": "_initCommission",
          "type": "uint256"
        }
      ],
      "name": "createPortfolio",
      "outputs": [],
      "stateMutability": "payable",
      "type": "function"
    },
    {
      "inputs": [
        {
          "internalType": "address",
          "name": "_assetAddress",
          "type": "address"
        }
      ],
      "name": "addAsset",
      "outputs": [],
      "stateMutability": "nonpayable",
      "type": "function"
    },
    {
      "inputs": [
        {
          "internalType": "address",
          "name": "_assetAddress",
          "type": "address"
        },
        {
          "internalType": "uint256",
          "name": "_perShareAmount",
          "type": "uint256"
        }
      ],
      "name": "updateAllocation",
      "outputs": [],
      "stateMutability": "nonpayable",
      "type": "function"
    },
    {
      "inputs": [
        {
          "internalType": "address",
          "name": "_portfolioAddress",
          "type": "address"
        },
        {
          "internalType": "uint256",
          "name": "_amount",
          "type": "uint256"
        }
      ],
      "name": "buyShares",
      "outputs": [],
      "stateMutability": "payable",
      "type": "function"
    },
    {
      "inputs": [
        {
          "internalType": "address",
          "name": "_portfolioAddress",
          "type": "address"
        },
        {
          "internalType": "uint256",
          "name": "_amount",
          "type": "uint256"
        }
      ],
      "name": "sellShares",
      "outputs": [
        {
          "internalType": "uint256",
          "name": "",
          "type": "uint256"
        }
      ],
      "stateMutability": "payable",
      "type": "function"
    },
    {
      "inputs": [
        {
          "internalType": "address",
          "name": "_portfolioAddress",
          "type": "address"
        },
        {
          "internalType": "uint256",
          "name": "_amount",
          "type": "uint256"
        }
      ],
      "name": "calculateBuyingCost",
      "outputs": [
        {
          "internalType": "uint256",
          "name": "",
          "type": "uint256"
        }
      ],
      "stateMutability": "view",
      "type": "function"
    },
    {
      "inputs": [
        {
          "internalType": "address",
          "name": "_portfolioAddress",
          "type": "address"
        }
      ],
      "name": "getTokenPrice",
      "outputs": [
        {
          "internalType": "uint256",
          "name": "",
          "type": "uint256"
        }
      ],
      "stateMutability": "view",
      "type": "function"
    },
    {
      "inputs": [
        {
          "internalType": "address",
          "name": "_portfolioAddress",
          "type": "address"
        },
        {
          "internalType": "address",
          "name": "_assetAddress",
          "type": "address"
        },
        {
          "internalType": "uint256",
          "name": "_amount",
          "type": "uint256"
        }
      ],
      "name": "_getAssetAmount",
      "outputs": [
        {
          "internalType": "uint256",
          "name": "",
          "type": "uint256"
        }
      ],
      "stateMutability": "view",
      "type": "function"
    }
  ],
  "bytecode": "0x60806040523480156200001157600080fd5b5060405162004f5938038062004f59833981810160405281019062000037919062000659565b336000806101000a81548173ffffffffffffffffffffffffffffffffffffffff021916908373ffffffffffffffffffffffffffffffffffffffff16021790555086600c60006101000a81548173ffffffffffffffffffffffffffffffffffffffff021916908373ffffffffffffffffffffffffffffffffffffffff16021790555085600a60006101000a81548173ffffffffffffffffffffffffffffffffffffffff021916908373ffffffffffffffffffffffffffffffffffffffff16021790555084600b60006101000a81548173ffffffffffffffffffffffffffffffffffffffff021916908373ffffffffffffffffffffffffffffffffffffffff16021790555083600181905550600160046000600173ffffffffffffffffffffffffffffffffffffffff1673ffffffffffffffffffffffffffffffffffffffff16815260200190815260200160002060006101000a81548160ff0219169083151502179055506040518060a00160405280600173ffffffffffffffffffffffffffffffffffffffff1681526020018481526020018381526020018260ff16815260200160006002811115620001ee57620001ed6200074a565b5b81525060036000600173ffffffffffffffffffffffffffffffffffffffff1673ffffffffffffffffffffffffffffffffffffffff16815260200190815260200160002060008201518160000160006101000a81548173ffffffffffffffffffffffffffffffffffffffff021916908373ffffffffffffffffffffffffffffffffffffffff16021790555060208201518160010190816200028f9190620009ba565b506040820151816002019081620002a79190620009ba565b5060608201518160030160006101000a81548160ff021916908360ff16021790555060808201518160030160016101000a81548160ff02191690836002811115620002f757620002f66200074a565b5b02179055509050506001600260006101000a81548167ffffffffffffffff021916908367ffffffffffffffff1602179055505050505050505062000aa1565b6000604051905090565b600080fd5b600080fd5b600073ffffffffffffffffffffffffffffffffffffffff82169050919050565b600062000377826200034a565b9050919050565b60006200038b826200036a565b9050919050565b6200039d816200037e565b8114620003a957600080fd5b50565b600081519050620003bd8162000392565b92915050565b6000620003d0826200034a565b9050919050565b6000620003e482620003c3565b9050919050565b620003f681620003d7565b81146200040257600080fd5b50565b6000815190506200041681620003eb565b92915050565b600062000429826200036a565b9050919050565b6200043b816200041c565b81146200044757600080fd5b50565b6000815190506200045b8162000430565b92915050565b6000819050919050565b620004768162000461565b81146200048257600080fd5b50565b60008151905062000496816200046b565b92915050565b600080fd5b600080fd5b6000601f19601f8301169050919050565b7f4e487b7100000000000000000000000000000000000000000000000000000000600052604160045260246000fd5b620004f182620004a6565b810181811067ffffffffffffffff82111715620005135762000512620004b7565b5b80604052505050565b60006200052862000336565b9050620005368282620004e6565b919050565b600067ffffffffffffffff821115620005595762000558620004b7565b5b6200056482620004a6565b9050602081019050919050565b60005b838110156200059157808201518184015260208101905062000574565b60008484015250505050565b6000620005b4620005ae846200053b565b6200051c565b905082815260208101848484011115620005d357620005d2620004a1565b5b620005e084828562000571565b509392505050565b600082601f8301126200060057620005ff6200049c565b5b8151620006128482602086016200059d565b91505092915050565b600060ff82169050919050565b62000633816200061b565b81146200063f57600080fd5b50565b600081519050620006538162000628565b92915050565b600080600080600080600060e0888a0312156200067b576200067a62000340565b5b60006200068b8a828b01620003ac565b97505060206200069e8a828b0162000405565b9650506040620006b18a828b016200044a565b9550506060620006c48a828b0162000485565b945050608088015167ffffffffffffffff811115620006e857620006e762000345565b5b620006f68a828b01620005e8565b93505060a088015167ffffffffffffffff8111156200071a576200071962000345565b5b620007288a828b01620005e8565b92505060c06200073b8a828b0162000642565b91505092959891949750929550565b7f4e487b7100000000000000000000000000000000000000000000000000000000600052602160045260246000fd5b600081519050919050565b7f4e487b7100000000000000000000000000000000000000000000000000000000600052602260045260246000fd5b60006002820490506001821680620007cc57607f821691505b602082108103620007e257620007e162000784565b5b50919050565b60008190508160005260206000209050919050565b60006020601f8301049050919050565b600082821b905092915050565b6000600883026200084c7fffffffffffffffffffffffffffffffffffffffffffffffffffffffffffffffff826200080d565b6200085886836200080d565b95508019841693508086168417925050509392505050565b6000819050919050565b60006200089b620008956200088f8462000461565b62000870565b62000461565b9050919050565b6000819050919050565b620008b7836200087a565b620008cf620008c682620008a2565b8484546200081a565b825550505050565b600090565b620008e6620008d7565b620008f3818484620008ac565b505050565b5b818110156200091b576200090f600082620008dc565b600181019050620008f9565b5050565b601f8211156200096a576200093481620007e8565b6200093f84620007fd565b810160208510156200094f578190505b620009676200095e85620007fd565b830182620008f8565b50505b505050565b600082821c905092915050565b60006200098f600019846008026200096f565b1980831691505092915050565b6000620009aa83836200097c565b9150826002028217905092915050565b620009c58262000779565b67ffffffffffffffff811115620009e157620009e0620004b7565b5b620009ed8254620007b3565b620009fa8282856200091f565b600060209050601f83116001811462000a32576000841562000a1d578287015190505b62000a2985826200099c565b86555062000a99565b601f19841662000a4286620007e8565b60005b8281101562000a6c5784890151825560018201915060208501945060208101905062000a45565b8683101562000a8c578489015162000a88601f8916826200097c565b8355505b6001600288020188555050505b505050505050565b6144a88062000ab16000396000f3fe6080604052600436106101665760003560e01c80638f84aa09116100d1578063c74cc1311161008a578063d41632ea11610064578063d41632ea1461056a578063d9afbb60146105a7578063e89e96d4146105d0578063faa3f43e1461060e57610166565b8063c74cc131146104c5578063cd3293de14610502578063d02641a01461052d57610166565b80638f84aa091461039357806391135a56146103be578063982af636146103ff578063b51d05341461043c578063baf1938b1461046c578063c02714c71461048857610166565b8063694e91b811610123578063694e91b81461026a5780636a71b6e11461029557806370851703146102d25780637baab3da146102fb5780637dc0d1d01461033d57806384f870131461036857610166565b8063070ee84a1461016b5780631c46bc6f14610194578063298410e5146101bd57806350faad72146101e657806361d027b3146102235780636945b1231461024e575b600080fd5b34801561017757600080fd5b50610192600480360381019061018d919061308a565b610637565b005b3480156101a057600080fd5b506101bb60048036038101906101b69190613115565b610649565b005b3480156101c957600080fd5b506101e460048036038101906101df9190613115565b6106f9565b005b3480156101f257600080fd5b5061020d60048036038101906102089190613142565b610a85565b60405161021a9190613191565b60405180910390f35b34801561022f57600080fd5b50610238610c5c565b604051610245919061320b565b60405180910390f35b61026860048036038101906102639190613142565b610c82565b005b34801561027657600080fd5b5061027f611145565b60405161028c9190613191565b60405180910390f35b3480156102a157600080fd5b506102bc60048036038101906102b79190613226565b61114b565b6040516102c99190613191565b60405180910390f35b3480156102de57600080fd5b506102f960048036038101906102f49190613142565b6111e1565b005b34801561030757600080fd5b50610322600480360381019061031d9190613115565b61160f565b60405161033496959493929190613335565b60405180910390f35b34801561034957600080fd5b50610352611789565b60405161035f91906133d7565b60405180910390f35b34801561037457600080fd5b5061037d6117af565b60405161038a9190613415565b60405180910390f35b34801561039f57600080fd5b506103a86117c9565b6040516103b59190613430565b60405180910390f35b3480156103ca57600080fd5b506103e560048036038101906103e09190613115565b6117ed565b6040516103f69594939291906134de565b60405180910390f35b34801561040b57600080fd5b506104266004803603810190610421919061353f565b61196d565b6040516104339190613191565b60405180910390f35b61045660048036038101906104519190613142565b611992565b6040516104639190613191565b60405180910390f35b610486600480360381019061048191906136b4565b611d6a565b005b34801561049457600080fd5b506104af60048036038101906104aa919061353f565b6120ce565b6040516104bc919061375a565b60405180910390f35b3480156104d157600080fd5b506104ec60048036038101906104e79190613115565b6120fd565b6040516104f9919061375a565b60405180910390f35b34801561050e57600080fd5b5061051761211d565b6040516105249190613796565b60405180910390f35b34801561053957600080fd5b50610554600480360381019061054f9190613115565b612143565b6040516105619190613191565b60405180910390f35b34801561057657600080fd5b50610591600480360381019061058c9190613142565b612319565b60405161059e9190613430565b60405180910390f35b3480156105b357600080fd5b506105ce60048036038101906105c99190613115565b612367565b005b3480156105dc57600080fd5b506105f760048036038101906105f2919061353f565b612695565b6040516106059291906137b1565b60405180910390f35b34801561061a57600080fd5b5061063560048036038101906106309190613115565b6126e6565b005b61063f612ae7565b8060018190555050565b610651612ae7565b6000600460008373ffffffffffffffffffffffffffffffffffffffff1673ffffffffffffffffffffffffffffffffffffffff16815260200190815260200160002060006101000a81548160ff0219169083151502179055506002600081819054906101000a900467ffffffffffffffff16809291906106cf90613809565b91906101000a81548167ffffffffffffffff021916908367ffffffffffffffff1602179055505050565b8061070381612b77565b61070b612c06565b600660003373ffffffffffffffffffffffffffffffffffffffff1673ffffffffffffffffffffffffffffffffffffffff16815260200190815260200160002060008373ffffffffffffffffffffffffffffffffffffffff1673ffffffffffffffffffffffffffffffffffffffff16815260200190815260200160002060009054906101000a900460ff16156107d5576040517f08c379a00000000000000000000000000000000000000000000000000000000081526004016107cc906138a4565b60405180910390fd5b6001600660003373ffffffffffffffffffffffffffffffffffffffff1673ffffffffffffffffffffffffffffffffffffffff16815260200190815260200160002060008473ffffffffffffffffffffffffffffffffffffffff1673ffffffffffffffffffffffffffffffffffffffff16815260200190815260200160002060006101000a81548160ff021916908315150217905550600560003373ffffffffffffffffffffffffffffffffffffffff1673ffffffffffffffffffffffffffffffffffffffff168152602001908152602001600020600301600081819054906101000a900461ffff16809291906108ca906138c4565b91906101000a81548161ffff021916908361ffff16021790555050600760003373ffffffffffffffffffffffffffffffffffffffff1673ffffffffffffffffffffffffffffffffffffffff168152602001908152602001600020829080600181540180825580915050600190039060005260206000200160009091909190916101000a81548173ffffffffffffffffffffffffffffffffffffffff021916908373ffffffffffffffffffffffffffffffffffffffff16021790555060405180604001604052808373ffffffffffffffffffffffffffffffffffffffff1681526020016000815250600860003373ffffffffffffffffffffffffffffffffffffffff1673ffffffffffffffffffffffffffffffffffffffff16815260200190815260200160002060008473ffffffffffffffffffffffffffffffffffffffff1673ffffffffffffffffffffffffffffffffffffffff16815260200190815260200160002060008201518160000160006101000a81548173ffffffffffffffffffffffffffffffffffffffff021916908373ffffffffffffffffffffffffffffffffffffffff160217905550602082015181600101559050505050565b600080600560008573ffffffffffffffffffffffffffffffffffffffff1673ffffffffffffffffffffffffffffffffffffffff16815260200190815260200160002060030160009054906101000a900461ffff1690506000805b8261ffff16811015610c40576000600760008873ffffffffffffffffffffffffffffffffffffffff1673ffffffffffffffffffffffffffffffffffffffff1681526020019081526020016000208281548110610b3e57610b3d6138ee565b5b9060005260206000200160009054906101000a900473ffffffffffffffffffffffffffffffffffffffff1690506000610b7888838961114b565b90506000600c60009054906101000a900473ffffffffffffffffffffffffffffffffffffffff1673ffffffffffffffffffffffffffffffffffffffff16630f105fe184846040518363ffffffff1660e01b8152600401610bd99291906137b1565b602060405180830381865afa158015610bf6573d6000803e3d6000fd5b505050506040513d601f19601f82011682018060405250810190610c1a9190613932565b90508085610c28919061395f565b94505050508080610c3890613993565b915050610adf565b5060015481610c4f919061395f565b9050809250505092915050565b600a60009054906101000a900473ffffffffffffffffffffffffffffffffffffffff1681565b81610c8c81612cd8565b610c94612d72565b6000610ca08484610a85565b905034811115610ce5576040517f08c379a0000000000000000000000000000000000000000000000000000000008152600401610cdc90613a4d565b60405180910390fd5b82600560008673ffffffffffffffffffffffffffffffffffffffff1673ffffffffffffffffffffffffffffffffffffffff1681526020019081526020016000206004016000828254610d37919061395f565b9250508190555082600960008673ffffffffffffffffffffffffffffffffffffffff1673ffffffffffffffffffffffffffffffffffffffff16815260200190815260200160002060003373ffffffffffffffffffffffffffffffffffffffff1673ffffffffffffffffffffffffffffffffffffffff1681526020019081526020016000206000828254610dca919061395f565b92505081905550600b60009054906101000a900473ffffffffffffffffffffffffffffffffffffffff1673ffffffffffffffffffffffffffffffffffffffff1663d0e30db06001546040518263ffffffff1660e01b81526004016000604051808303818588803b158015610e3d57600080fd5b505af1158015610e51573d6000803e3d6000fd5b5050505050600a60009054906101000a900473ffffffffffffffffffffffffffffffffffffffff1673ffffffffffffffffffffffffffffffffffffffff1663aa67c91960015434610ea29190613a6d565b336040518363ffffffff1660e01b8152600401610ebf9190613430565b6000604051808303818588803b158015610ed857600080fd5b505af1158015610eec573d6000803e3d6000fd5b50505050506000600560008673ffffffffffffffffffffffffffffffffffffffff1673ffffffffffffffffffffffffffffffffffffffff16815260200190815260200160002060030160009054906101000a900461ffff1690506000600190505b8161ffff1681101561113d576000600760008873ffffffffffffffffffffffffffffffffffffffff1673ffffffffffffffffffffffffffffffffffffffff1681526020019081526020016000208281548110610fac57610fab6138ee565b5b9060005260206000200160009054906101000a900473ffffffffffffffffffffffffffffffffffffffff1690506000610fe688838961114b565b90506000811115611128576000600c60009054906101000a900473ffffffffffffffffffffffffffffffffffffffff1673ffffffffffffffffffffffffffffffffffffffff16630f105fe184846040518363ffffffff1660e01b81526004016110509291906137b1565b602060405180830381865afa15801561106d573d6000803e3d6000fd5b505050506040513d601f19601f820116820180604052508101906110919190613932565b9050600a60009054906101000a900473ffffffffffffffffffffffffffffffffffffffff1673ffffffffffffffffffffffffffffffffffffffff16634dc02638338585856040518563ffffffff1660e01b81526004016110f49493929190613aa1565b600060405180830381600087803b15801561110e57600080fd5b505af1158015611122573d6000803e3d6000fd5b50505050505b5050808061113590613993565b915050610f4d565b505050505050565b60015481565b600081600860008673ffffffffffffffffffffffffffffffffffffffff1673ffffffffffffffffffffffffffffffffffffffff16815260200190815260200160002060008573ffffffffffffffffffffffffffffffffffffffff1673ffffffffffffffffffffffffffffffffffffffff168152602001908152602001600020600101546111d89190613ae6565b90509392505050565b6111e9612c06565b600660003373ffffffffffffffffffffffffffffffffffffffff1673ffffffffffffffffffffffffffffffffffffffff16815260200190815260200160002060008373ffffffffffffffffffffffffffffffffffffffff1673ffffffffffffffffffffffffffffffffffffffff16815260200190815260200160002060009054906101000a900460ff166112b2576040517f08c379a00000000000000000000000000000000000000000000000000000000081526004016112a990613bb2565b60405180910390fd5b6000600560003373ffffffffffffffffffffffffffffffffffffffff1673ffffffffffffffffffffffffffffffffffffffff1681526020019081526020016000206004015490506000600860003373ffffffffffffffffffffffffffffffffffffffff1673ffffffffffffffffffffffffffffffffffffffff16815260200190815260200160002060008573ffffffffffffffffffffffffffffffffffffffff1673ffffffffffffffffffffffffffffffffffffffff16815260200190815260200160002060010154905060006113898285612db9565b905083600860003373ffffffffffffffffffffffffffffffffffffffff1673ffffffffffffffffffffffffffffffffffffffff16815260200190815260200160002060008773ffffffffffffffffffffffffffffffffffffffff1673ffffffffffffffffffffffffffffffffffffffff168152602001908152602001600020600101819055506000838261141d9190613ae6565b9050600084111561160757848311156114c657600a60009054906101000a900473ffffffffffffffffffffffffffffffffffffffff1673ffffffffffffffffffffffffffffffffffffffff1663b5556b873388846040518463ffffffff1660e01b815260040161148f93929190613bd2565b600060405180830381600087803b1580156114a957600080fd5b505af11580156114bd573d6000803e3d6000fd5b50505050611606565b84831015611605576000600c60009054906101000a900473ffffffffffffffffffffffffffffffffffffffff1673ffffffffffffffffffffffffffffffffffffffff16630f105fe188846040518363ffffffff1660e01b815260040161152d9291906137b1565b602060405180830381865afa15801561154a573d6000803e3d6000fd5b505050506040513d601f19601f8201168201806040525081019061156e9190613932565b9050600a60009054906101000a900473ffffffffffffffffffffffffffffffffffffffff1673ffffffffffffffffffffffffffffffffffffffff16634dc02638338985856040518563ffffffff1660e01b81526004016115d19493929190613aa1565b600060405180830381600087803b1580156115eb57600080fd5b505af11580156115ff573d6000803e3d6000fd5b50505050505b5b5b505050505050565b60056020528060005260406000206000915090508060000160009054906101000a900473ffffffffffffffffffffffffffffffffffffffff169080600101805461165890613c38565b80601f016020809104026020016040519081016040528092919081815260200182805461168490613c38565b80156116d15780601f106116a6576101008083540402835291602001916116d1565b820191906000526020600020905b8154815290600101906020018083116116b457829003601f168201915b5050505050908060020180546116e690613c38565b80601f016020809104026020016040519081016040528092919081815260200182805461171290613c38565b801561175f5780601f106117345761010080835404028352916020019161175f565b820191906000526020600020905b81548152906001019060200180831161174257829003601f168201915b5050505050908060030160009054906101000a900461ffff16908060040154908060050154905086565b600c60009054906101000a900473ffffffffffffffffffffffffffffffffffffffff1681565b600260009054906101000a900467ffffffffffffffff1681565b60008054906101000a900473ffffffffffffffffffffffffffffffffffffffff1681565b60036020528060005260406000206000915090508060000160009054906101000a900473ffffffffffffffffffffffffffffffffffffffff169080600101805461183690613c38565b80601f016020809104026020016040519081016040528092919081815260200182805461186290613c38565b80156118af5780601f10611884576101008083540402835291602001916118af565b820191906000526020600020905b81548152906001019060200180831161189257829003601f168201915b5050505050908060020180546118c490613c38565b80601f01602080910402602001604051908101604052809291908181526020018280546118f090613c38565b801561193d5780601f106119125761010080835404028352916020019161193d565b820191906000526020600020905b81548152906001019060200180831161192057829003601f168201915b5050505050908060030160009054906101000a900460ff16908060030160019054906101000a900460ff16905085565b6009602052816000526040600020602052806000526040600020600091509150505481565b60008261199e81612cd8565b6119a6612d72565b60006119b28585612de9565b905083600560008773ffffffffffffffffffffffffffffffffffffffff1673ffffffffffffffffffffffffffffffffffffffff1681526020019081526020016000206004016000828254611a069190613a6d565b9250508190555083600960008773ffffffffffffffffffffffffffffffffffffffff1673ffffffffffffffffffffffffffffffffffffffff16815260200190815260200160002060003373ffffffffffffffffffffffffffffffffffffffff1673ffffffffffffffffffffffffffffffffffffffff1681526020019081526020016000206000828254611a999190613a6d565b925050819055506000600560008773ffffffffffffffffffffffffffffffffffffffff1673ffffffffffffffffffffffffffffffffffffffff16815260200190815260200160002060030160009054906101000a900461ffff1690506000600190505b8161ffff16811015611c47576000600760008973ffffffffffffffffffffffffffffffffffffffff1673ffffffffffffffffffffffffffffffffffffffff1681526020019081526020016000208281548110611b5b57611b5a6138ee565b5b9060005260206000200160009054906101000a900473ffffffffffffffffffffffffffffffffffffffff1690506000611b9589838a61114b565b90506000811115611c3257600a60009054906101000a900473ffffffffffffffffffffffffffffffffffffffff1673ffffffffffffffffffffffffffffffffffffffff1663b5556b873384846040518463ffffffff1660e01b8152600401611bff93929190613bd2565b600060405180830381600087803b158015611c1957600080fd5b505af1158015611c2d573d6000803e3d6000fd5b505050505b50508080611c3f90613993565b915050611afc565b50600a60009054906101000a900473ffffffffffffffffffffffffffffffffffffffff1673ffffffffffffffffffffffffffffffffffffffff1663d9caed123333856040518463ffffffff1660e01b8152600401611ca793929190613bd2565b600060405180830381600087803b158015611cc157600080fd5b505af1158015611cd5573d6000803e3d6000fd5b50505050600b60009054906101000a900473ffffffffffffffffffffffffffffffffffffffff1673ffffffffffffffffffffffffffffffffffffffff1663d0e30db06001546040518263ffffffff1660e01b81526004016000604051808303818588803b158015611d4557600080fd5b505af1158015611d59573d6000803e3d6000fd5b505050505081935050505092915050565b611d72612d72565b6000600560003373ffffffffffffffffffffffffffffffffffffffff1673ffffffffffffffffffffffffffffffffffffffff16815260200190815260200160002060030160009054906101000a900461ffff1661ffff1614611e09576040517f08c379a0000000000000000000000000000000000000000000000000000000008152600401611e0090613cb5565b60405180910390fd5b60006040518060c001604052803373ffffffffffffffffffffffffffffffffffffffff168152602001858152602001848152602001600161ffff1681526020016000815260200183815250905080600560003373ffffffffffffffffffffffffffffffffffffffff1673ffffffffffffffffffffffffffffffffffffffff16815260200190815260200160002060008201518160000160006101000a81548173ffffffffffffffffffffffffffffffffffffffff021916908373ffffffffffffffffffffffffffffffffffffffff1602179055506020820151816001019081611ef29190613e77565b506040820151816002019081611f089190613e77565b5060608201518160030160006101000a81548161ffff021916908361ffff1602179055506080820151816004015560a082015181600501559050506001600660003373ffffffffffffffffffffffffffffffffffffffff1673ffffffffffffffffffffffffffffffffffffffff1681526020019081526020016000206000600173ffffffffffffffffffffffffffffffffffffffff1673ffffffffffffffffffffffffffffffffffffffff16815260200190815260200160002060006101000a81548160ff021916908315150217905550600760003373ffffffffffffffffffffffffffffffffffffffff1673ffffffffffffffffffffffffffffffffffffffff16815260200190815260200160002060019080600181540180825580915050600190039060005260206000200160009091909190916101000a81548173ffffffffffffffffffffffffffffffffffffffff021916908373ffffffffffffffffffffffffffffffffffffffff1602179055503373ffffffffffffffffffffffffffffffffffffffff167f78a619b7d4293cfcdb95df6442fa7663f9246cd2c0092718ca321ba854b81f27856040516120c09190613f49565b60405180910390a250505050565b60066020528160005260406000206020528060005260406000206000915091509054906101000a900460ff1681565b60046020528060005260406000206000915054906101000a900460ff1681565b600b60009054906101000a900473ffffffffffffffffffffffffffffffffffffffff1681565b600080600560008473ffffffffffffffffffffffffffffffffffffffff1673ffffffffffffffffffffffffffffffffffffffff16815260200190815260200160002060030160009054906101000a900461ffff1690506000805b8261ffff1681101561230e576000600760008773ffffffffffffffffffffffffffffffffffffffff1673ffffffffffffffffffffffffffffffffffffffff16815260200190815260200160002082815481106121fc576121fb6138ee565b5b9060005260206000200160009054906101000a900473ffffffffffffffffffffffffffffffffffffffff16905060006122378783600161114b565b90506000600c60009054906101000a900473ffffffffffffffffffffffffffffffffffffffff1673ffffffffffffffffffffffffffffffffffffffff166341976e09846040518263ffffffff1660e01b81526004016122969190613430565b6040805180830381865afa1580156122b2573d6000803e3d6000fd5b505050506040513d601f19601f820116820180604052508101906122d69190613f6b565b509050600081836122e79190613ae6565b905080866122f5919061395f565b955050505050808061230690613993565b91505061219d565b508092505050919050565b6007602052816000526040600020818154811061233557600080fd5b906000526020600020016000915091509054906101000a900473ffffffffffffffffffffffffffffffffffffffff1681565b61236f612ae7565b8061237981612fb0565b600082905060008060008373ffffffffffffffffffffffffffffffffffffffff16638c4050716040518163ffffffff1660e01b8152600401600060405180830381865afa1580156123ce573d6000803e3d6000fd5b505050506040513d6000823e3d601f19601f820116820180604052508101906123f79190614047565b92509250925060006040518060a001604052808873ffffffffffffffffffffffffffffffffffffffff1681526020018581526020018481526020018360ff16815260200160028081111561244e5761244d613467565b5b81525090506001600460008973ffffffffffffffffffffffffffffffffffffffff1673ffffffffffffffffffffffffffffffffffffffff16815260200190815260200160002060006101000a81548160ff02191690831515021790555080600360008973ffffffffffffffffffffffffffffffffffffffff1673ffffffffffffffffffffffffffffffffffffffff16815260200190815260200160002060008201518160000160006101000a81548173ffffffffffffffffffffffffffffffffffffffff021916908373ffffffffffffffffffffffffffffffffffffffff16021790555060208201518160010190816125479190613e77565b50604082015181600201908161255d9190613e77565b5060608201518160030160006101000a81548160ff021916908360ff16021790555060808201518160030160016101000a81548160ff021916908360028111156125aa576125a9613467565b5b02179055509050506002600081819054906101000a900467ffffffffffffffff16809291906125d8906140d2565b91906101000a81548167ffffffffffffffff021916908367ffffffffffffffff16021790555050600a60009054906101000a900473ffffffffffffffffffffffffffffffffffffffff1673ffffffffffffffffffffffffffffffffffffffff1663d2b3832b886040518263ffffffff1660e01b815260040161265a9190613430565b600060405180830381600087803b15801561267457600080fd5b505af1158015612688573d6000803e3d6000fd5b5050505050505050505050565b6008602052816000526040600020602052806000526040600020600091509150508060000160009054906101000a900473ffffffffffffffffffffffffffffffffffffffff16908060010154905082565b6126ee612ae7565b806126f881612fb0565b600082905060006040518060a001604052808573ffffffffffffffffffffffffffffffffffffffff1681526020018373ffffffffffffffffffffffffffffffffffffffff166306fdde036040518163ffffffff1660e01b8152600401600060405180830381865afa158015612771573d6000803e3d6000fd5b505050506040513d6000823e3d601f19601f8201168201806040525081019061279a9190614102565b81526020018373ffffffffffffffffffffffffffffffffffffffff166395d89b416040518163ffffffff1660e01b8152600401600060405180830381865afa1580156127ea573d6000803e3d6000fd5b505050506040513d6000823e3d601f19601f820116820180604052508101906128139190614102565b81526020018373ffffffffffffffffffffffffffffffffffffffff1663313ce5676040518163ffffffff1660e01b8152600401602060405180830381865afa158015612863573d6000803e3d6000fd5b505050506040513d601f19601f82011682018060405250810190612887919061414b565b60ff168152602001600160028111156128a3576128a2613467565b5b81525090506001600460008673ffffffffffffffffffffffffffffffffffffffff1673ffffffffffffffffffffffffffffffffffffffff16815260200190815260200160002060006101000a81548160ff02191690831515021790555080600360008673ffffffffffffffffffffffffffffffffffffffff1673ffffffffffffffffffffffffffffffffffffffff16815260200190815260200160002060008201518160000160006101000a81548173ffffffffffffffffffffffffffffffffffffffff021916908373ffffffffffffffffffffffffffffffffffffffff160217905550602082015181600101908161299c9190613e77565b5060408201518160020190816129b29190613e77565b5060608201518160030160006101000a81548160ff021916908360ff16021790555060808201518160030160016101000a81548160ff021916908360028111156129ff576129fe613467565b5b02179055509050506002600081819054906101000a900467ffffffffffffffff1680929190612a2d906140d2565b91906101000a81548167ffffffffffffffff021916908367ffffffffffffffff16021790555050600a60009054906101000a900473ffffffffffffffffffffffffffffffffffffffff1673ffffffffffffffffffffffffffffffffffffffff1663e3a0b800856040518263ffffffff1660e01b8152600401612aaf9190613430565b600060405180830381600087803b158015612ac957600080fd5b505af1158015612add573d6000803e3d6000fd5b5050505050505050565b60008054906101000a900473ffffffffffffffffffffffffffffffffffffffff1673ffffffffffffffffffffffffffffffffffffffff163373ffffffffffffffffffffffffffffffffffffffff1614612b75576040517f08c379a0000000000000000000000000000000000000000000000000000000008152600401612b6c906141ea565b60405180910390fd5b565b600460008273ffffffffffffffffffffffffffffffffffffffff1673ffffffffffffffffffffffffffffffffffffffff16815260200190815260200160002060009054906101000a900460ff16612c03576040517f08c379a0000000000000000000000000000000000000000000000000000000008152600401612bfa90614256565b60405180910390fd5b50565b3373ffffffffffffffffffffffffffffffffffffffff16600560003373ffffffffffffffffffffffffffffffffffffffff1673ffffffffffffffffffffffffffffffffffffffff16815260200190815260200160002060000160009054906101000a900473ffffffffffffffffffffffffffffffffffffffff1673ffffffffffffffffffffffffffffffffffffffff1614612cd6576040517f08c379a0000000000000000000000000000000000000000000000000000000008152600401612ccd906142e8565b60405180910390fd5b565b6000600560008373ffffffffffffffffffffffffffffffffffffffff1673ffffffffffffffffffffffffffffffffffffffff16815260200190815260200160002060030160009054906101000a900461ffff1661ffff1611612d6f576040517f08c379a0000000000000000000000000000000000000000000000000000000008152600401612d6690614354565b60405180910390fd5b50565b600154341015612db7576040517f08c379a0000000000000000000000000000000000000000000000000000000008152600401612dae906143e6565b60405180910390fd5b565b600081831015612dd4578282612dcf9190613a6d565b612de1565b8183612de09190613a6d565b5b905092915050565b600080600560008573ffffffffffffffffffffffffffffffffffffffff1673ffffffffffffffffffffffffffffffffffffffff16815260200190815260200160002060030160009054906101000a900461ffff1690506000805b8261ffff16811015612fa4576000600760008873ffffffffffffffffffffffffffffffffffffffff1673ffffffffffffffffffffffffffffffffffffffff1681526020019081526020016000208281548110612ea257612ea16138ee565b5b9060005260206000200160009054906101000a900473ffffffffffffffffffffffffffffffffffffffff1690506000612edc88838961114b565b90506000600c60009054906101000a900473ffffffffffffffffffffffffffffffffffffffff1673ffffffffffffffffffffffffffffffffffffffff166396b7bab684846040518363ffffffff1660e01b8152600401612f3d9291906137b1565b602060405180830381865afa158015612f5a573d6000803e3d6000fd5b505050506040513d601f19601f82011682018060405250810190612f7e9190613932565b90508085612f8c919061395f565b94505050508080612f9c90613993565b915050612e43565b50809250505092915050565b600460008273ffffffffffffffffffffffffffffffffffffffff1673ffffffffffffffffffffffffffffffffffffffff16815260200190815260200160002060009054906101000a900460ff161561303d576040517f08c379a000000000000000000000000000000000000000000000000000000000815260040161303490614452565b60405180910390fd5b50565b6000604051905090565b600080fd5b600080fd5b6000819050919050565b61306781613054565b811461307257600080fd5b50565b6000813590506130848161305e565b92915050565b6000602082840312156130a05761309f61304a565b5b60006130ae84828501613075565b91505092915050565b600073ffffffffffffffffffffffffffffffffffffffff82169050919050565b60006130e2826130b7565b9050919050565b6130f2816130d7565b81146130fd57600080fd5b50565b60008135905061310f816130e9565b92915050565b60006020828403121561312b5761312a61304a565b5b600061313984828501613100565b91505092915050565b600080604083850312156131595761315861304a565b5b600061316785828601613100565b925050602061317885828601613075565b9150509250929050565b61318b81613054565b82525050565b60006020820190506131a66000830184613182565b92915050565b6000819050919050565b60006131d16131cc6131c7846130b7565b6131ac565b6130b7565b9050919050565b60006131e3826131b6565b9050919050565b60006131f5826131d8565b9050919050565b613205816131ea565b82525050565b600060208201905061322060008301846131fc565b92915050565b60008060006060848603121561323f5761323e61304a565b5b600061324d86828701613100565b935050602061325e86828701613100565b925050604061326f86828701613075565b9150509250925092565b613282816130d7565b82525050565b600081519050919050565b600082825260208201905092915050565b60005b838110156132c25780820151818401526020810190506132a7565b60008484015250505050565b6000601f19601f8301169050919050565b60006132ea82613288565b6132f48185613293565b93506133048185602086016132a4565b61330d816132ce565b840191505092915050565b600061ffff82169050919050565b61332f81613318565b82525050565b600060c08201905061334a6000830189613279565b818103602083015261335c81886132df565b9050818103604083015261337081876132df565b905061337f6060830186613326565b61338c6080830185613182565b61339960a0830184613182565b979650505050505050565b60006133af826131b6565b9050919050565b60006133c1826133a4565b9050919050565b6133d1816133b6565b82525050565b60006020820190506133ec60008301846133c8565b92915050565b600067ffffffffffffffff82169050919050565b61340f816133f2565b82525050565b600060208201905061342a6000830184613406565b92915050565b60006020820190506134456000830184613279565b92915050565b600060ff82169050919050565b6134618161344b565b82525050565b7f4e487b7100000000000000000000000000000000000000000000000000000000600052602160045260246000fd5b600381106134a7576134a6613467565b5b50565b60008190506134b882613496565b919050565b60006134c8826134aa565b9050919050565b6134d8816134bd565b82525050565b600060a0820190506134f36000830188613279565b818103602083015261350581876132df565b9050818103604083015261351981866132df565b90506135286060830185613458565b61353560808301846134cf565b9695505050505050565b600080604083850312156135565761355561304a565b5b600061356485828601613100565b925050602061357585828601613100565b9150509250929050565b600080fd5b600080fd5b7f4e487b7100000000000000000000000000000000000000000000000000000000600052604160045260246000fd5b6135c1826132ce565b810181811067ffffffffffffffff821117156135e0576135df613589565b5b80604052505050565b60006135f3613040565b90506135ff82826135b8565b919050565b600067ffffffffffffffff82111561361f5761361e613589565b5b613628826132ce565b9050602081019050919050565b82818337600083830152505050565b600061365761365284613604565b6135e9565b90508281526020810184848401111561367357613672613584565b5b61367e848285613635565b509392505050565b600082601f83011261369b5761369a61357f565b5b81356136ab848260208601613644565b91505092915050565b6000806000606084860312156136cd576136cc61304a565b5b600084013567ffffffffffffffff8111156136eb576136ea61304f565b5b6136f786828701613686565b935050602084013567ffffffffffffffff8111156137185761371761304f565b5b61372486828701613686565b925050604061373586828701613075565b9150509250925092565b60008115159050919050565b6137548161373f565b82525050565b600060208201905061376f600083018461374b565b92915050565b6000613780826133a4565b9050919050565b61379081613775565b82525050565b60006020820190506137ab6000830184613787565b92915050565b60006040820190506137c66000830185613279565b6137d36020830184613182565b9392505050565b7f4e487b7100000000000000000000000000000000000000000000000000000000600052601160045260246000fd5b6000613814826133f2565b915060008203613827576138266137da565b5b600182039050919050565b7f417373657420616c726561647920616464656420746f207468697320706f727460008201527f666f6c696f210000000000000000000000000000000000000000000000000000602082015250565b600061388e602683613293565b915061389982613832565b604082019050919050565b600060208201905081810360008301526138bd81613881565b9050919050565b60006138cf82613318565b915061ffff82036138e3576138e26137da565b5b600182019050919050565b7f4e487b7100000000000000000000000000000000000000000000000000000000600052603260045260246000fd5b60008151905061392c8161305e565b92915050565b6000602082840312156139485761394761304a565b5b60006139568482850161391d565b91505092915050565b600061396a82613054565b915061397583613054565b925082820190508082111561398d5761398c6137da565b5b92915050565b600061399e82613054565b91507fffffffffffffffffffffffffffffffffffffffffffffffffffffffffffffffff82036139d0576139cf6137da565b5b600182019050919050565b7f436f7374206f66207368617265732069732065786365656473207472616e736660008201527f657272656420616d6f756e742100000000000000000000000000000000000000602082015250565b6000613a37602d83613293565b9150613a42826139db565b604082019050919050565b60006020820190508181036000830152613a6681613a2a565b9050919050565b6000613a7882613054565b9150613a8383613054565b9250828203905081811115613a9b57613a9a6137da565b5b92915050565b6000608082019050613ab66000830187613279565b613ac36020830186613279565b613ad06040830185613182565b613add6060830184613182565b95945050505050565b6000613af182613054565b9150613afc83613054565b9250817fffffffffffffffffffffffffffffffffffffffffffffffffffffffffffffffff0483118215151615613b3557613b346137da565b5b828202905092915050565b7f4173736574206d75737420626520616464656420746f20706f7274666f6c696f60008201527f2100000000000000000000000000000000000000000000000000000000000000602082015250565b6000613b9c602183613293565b9150613ba782613b40565b604082019050919050565b60006020820190508181036000830152613bcb81613b8f565b9050919050565b6000606082019050613be76000830186613279565b613bf46020830185613279565b613c016040830184613182565b949350505050565b7f4e487b7100000000000000000000000000000000000000000000000000000000600052602260045260246000fd5b60006002820490506001821680613c5057607f821691505b602082108103613c6357613c62613c09565b5b50919050565b7f506f7274666f6c696f20616c7265616479206578697374730000000000000000600082015250565b6000613c9f601883613293565b9150613caa82613c69565b602082019050919050565b60006020820190508181036000830152613cce81613c92565b9050919050565b60008190508160005260206000209050919050565b60006020601f8301049050919050565b600082821b905092915050565b600060088302613d377fffffffffffffffffffffffffffffffffffffffffffffffffffffffffffffffff82613cfa565b613d418683613cfa565b95508019841693508086168417925050509392505050565b6000613d74613d6f613d6a84613054565b6131ac565b613054565b9050919050565b6000819050919050565b613d8e83613d59565b613da2613d9a82613d7b565b848454613d07565b825550505050565b600090565b613db7613daa565b613dc2818484613d85565b505050565b5b81811015613de657613ddb600082613daf565b600181019050613dc8565b5050565b601f821115613e2b57613dfc81613cd5565b613e0584613cea565b81016020851015613e14578190505b613e28613e2085613cea565b830182613dc7565b50505b505050565b600082821c905092915050565b6000613e4e60001984600802613e30565b1980831691505092915050565b6000613e678383613e3d565b9150826002028217905092915050565b613e8082613288565b67ffffffffffffffff811115613e9957613e98613589565b5b613ea38254613c38565b613eae828285613dea565b600060209050601f831160018114613ee15760008415613ecf578287015190505b613ed98582613e5b565b865550613f41565b601f198416613eef86613cd5565b60005b82811015613f1757848901518255600182019150602085019450602081019050613ef2565b86831015613f345784890151613f30601f891682613e3d565b8355505b6001600288020188555050505b505050505050565b60006020820190508181036000830152613f6381846132df565b905092915050565b60008060408385031215613f8257613f8161304a565b5b6000613f908582860161391d565b9250506020613fa18582860161391d565b9150509250929050565b6000613fbe613fb984613604565b6135e9565b905082815260208101848484011115613fda57613fd9613584565b5b613fe58482856132a4565b509392505050565b600082601f8301126140025761400161357f565b5b8151614012848260208601613fab565b91505092915050565b6140248161344b565b811461402f57600080fd5b50565b6000815190506140418161401b565b92915050565b6000806000606084860312156140605761405f61304a565b5b600084015167ffffffffffffffff81111561407e5761407d61304f565b5b61408a86828701613fed565b935050602084015167ffffffffffffffff8111156140ab576140aa61304f565b5b6140b786828701613fed565b92505060406140c886828701614032565b9150509250925092565b60006140dd826133f2565b915067ffffffffffffffff82036140f7576140f66137da565b5b600182019050919050565b6000602082840312156141185761411761304a565b5b600082015167ffffffffffffffff8111156141365761413561304f565b5b61414284828501613fed565b91505092915050565b6000602082840312156141615761416061304a565b5b600061416f84828501614032565b91505092915050565b7f43616c6c6572206d7573742062652074686520636f6e7472616374206f776e6560008201527f7221000000000000000000000000000000000000000000000000000000000000602082015250565b60006141d4602283613293565b91506141df82614178565b604082019050919050565b60006020820190508181036000830152614203816141c7565b9050919050565b7f4173736574206973206e6f7420617661696c61626c6521000000000000000000600082015250565b6000614240601783613293565b915061424b8261420a565b602082019050919050565b6000602082019050818103600083015261426f81614233565b9050919050565b7f43616c6c206d7573742062652074686520706f7274666f6c696f206f776e657260008201527f2100000000000000000000000000000000000000000000000000000000000000602082015250565b60006142d2602183613293565b91506142dd82614276565b604082019050919050565b60006020820190508181036000830152614301816142c5565b9050919050565b7f506f7274666f6c696f20646f65736e2774206578697374732100000000000000600082015250565b600061433e601983613293565b915061434982614308565b602082019050919050565b6000602082019050818103600083015261436d81614331565b9050919050565b7f4d696e2e20706c6174666f726d436f6d6d697373696f6e2068617320746f206260008201527f6520706169642100000000000000000000000000000000000000000000000000602082015250565b60006143d0602783613293565b91506143db82614374565b604082019050919050565b600060208201905081810360008301526143ff816143c3565b9050919050565b7f417373657420616c726561647920657869737473210000000000000000000000600082015250565b600061443c601583613293565b915061444782614406565b602082019050919050565b6000602082019050818103600083015261446b8161442f565b905091905056fea264697066735822122070eb9a9cde2f5e03cdadf5906fb8f4500b0b03a64acf88245a5482e2550b7b5864736f6c63430008100033",
  "immutableReferences": {},
  "source": "pragma solidity ^0.8.16;\n\nimport \"./Oracle.sol\";\nimport \"./Treasury.sol\";\nimport \"./Reserve.sol\";\nimport \"./Mirrored.sol\";\n\ncontract Portfolium {\n    enum AssetTypes {\n        Native,\n        ERC20,\n        Mirrored\n    }\n\n    struct AssetAllocation {\n        address assetAddress;\n        uint256 perShareAmount;\n    }\n\n    struct Asset {\n        address assetAddress;\n        string name;\n        string symbol;\n        uint8 decimals;\n        AssetTypes assetType;\n    }\n\n    struct Portfolio {\n        address owner;\n        string name;\n        string symbol;\n        uint16 assetCount;\n        uint256 totalSupply;\n        uint256 commission;\n    }\n\n    address public ownerAddress;\n    uint256 public platformCommission;\n\n    uint64 public availableAssetCount;\n    mapping(address => Asset) public availableAssets;\n    mapping(address => bool) public availableAssetAddresses;\n\n    mapping(address => Portfolio) public portfolios;\n    mapping(address => mapping(address => bool)) public portfolioAssets;\n    mapping(address => address[]) public portfolioAssetAddresses;\n    mapping(address => mapping(address => AssetAllocation))\n        public portfolioAssetAllocations;\n    mapping(address => mapping(address => uint256)) public portfolioBalanceOf;\n\n    Treasury public treasury;\n    Reserve public reserve;\n    Oracle public oracle;\n\n    constructor(\n        Oracle _oracle,\n        Treasury _treasury,\n        Reserve _reserve,\n        uint256 _platformCommission,\n        string memory _nativeName,\n        string memory _nativeSymbol,\n        uint8 _nativeDecimals\n    ) {\n        ownerAddress = msg.sender;\n        oracle = _oracle;\n        treasury = _treasury;\n        reserve = _reserve;\n        platformCommission = _platformCommission;\n        availableAssetAddresses[address(1)] = true;\n        availableAssets[address(1)] = Asset(\n            address(1),\n            _nativeName,\n            _nativeSymbol,\n            _nativeDecimals,\n            AssetTypes.Native\n        );\n        availableAssetCount = 1;\n    }\n\n    // ---------- EVENTS ----------\n\n    event PortfolioCreated(address indexed owner, string name);\n\n    // ---------- MODIFIERS ----------\n\n    function _mustPayPlatformCommission() private view {\n        require(\n            msg.value >= platformCommission,\n            \"Min. platformCommission has to be paid!\"\n        );\n    }\n\n    modifier mustPayPlatformCommission() {\n        _mustPayPlatformCommission();\n        _;\n    }\n\n    function _mustBeNewAsset(address _assetAddress) private view {\n        require(\n            !availableAssetAddresses[_assetAddress],\n            \"Asset already exists!\"\n        );\n    }\n\n    modifier mustBeNewAsset(address _assetAddress) {\n        _mustBeNewAsset(_assetAddress);\n        _;\n    }\n\n    function _mustBeAvailableAsset(address _assetAddress) private view {\n        require(\n            availableAssetAddresses[_assetAddress],\n            \"Asset is not available!\"\n        );\n    }\n\n    modifier mustBeAvailableAsset(address _assetAddress) {\n        _mustBeAvailableAsset(_assetAddress);\n        _;\n    }\n\n    function _mustBeExistingPortfolio(address _portfolioAddress) private view {\n        require(\n            portfolios[_portfolioAddress].assetCount > 0,\n            \"Portfolio doesn't exists!\"\n        );\n    }\n\n    modifier mustBeExistingPortfolio(address _portfolioAddress) {\n        _mustBeExistingPortfolio(_portfolioAddress);\n        _;\n    }\n\n    function _onlyOwner() private view {\n        require(\n            msg.sender == ownerAddress,\n            \"Caller must be the contract owner!\"\n        );\n    }\n\n    modifier onlyOwner() {\n        _onlyOwner();\n        _;\n    }\n\n    function _onlyPortfolioOwner() private view {\n        require(\n            portfolios[msg.sender].owner == msg.sender,\n            \"Call must be the portfolio owner!\"\n        );\n    }\n\n    modifier onlyPortfolioOwner() {\n        _onlyPortfolioOwner();\n        _;\n    }\n\n    // ---------- CONTRACT MANAGEMENT ----------\n\n    function updatePlatformCommission(uint256 _platformCommission)\n        external\n        onlyOwner\n    {\n        platformCommission = _platformCommission;\n    }\n\n    function addSupportedERC20Asset(address _assetAddress)\n        external\n        onlyOwner\n        mustBeNewAsset(_assetAddress)\n    {\n        TokenERC20 token = TokenERC20(_assetAddress);\n        Asset memory asset = Asset(\n            _assetAddress,\n            token.name(),\n            token.symbol(),\n            token.decimals(),\n            AssetTypes.ERC20\n        );\n        availableAssetAddresses[_assetAddress] = true;\n        availableAssets[_assetAddress] = asset;\n        availableAssetCount++;\n        treasury.addERC20Asset(_assetAddress);\n    }\n\n    function addSupportedMirroredAsset(address _assetAddress)\n        external\n        onlyOwner\n        mustBeNewAsset(_assetAddress)\n    {\n        Mirrored mirrored = Mirrored(_assetAddress);\n        (\n            string memory assetName,\n            string memory assetSymbol,\n            uint8 decimals\n        ) = mirrored.assetDetails();\n\n        Asset memory asset = Asset(\n            _assetAddress,\n            assetName,\n            assetSymbol,\n            decimals,\n            AssetTypes.Mirrored\n        );\n        availableAssetAddresses[_assetAddress] = true;\n        availableAssets[_assetAddress] = asset;\n        availableAssetCount++;\n        treasury.addMirroredAsset(_assetAddress);\n    }\n\n    function removeSupportedAsset(address _assetAddress) external onlyOwner {\n        availableAssetAddresses[_assetAddress] = false;\n        availableAssetCount--;\n    }\n\n    // ---------- PORTFOLIO MANAGEMENT ----------\n\n    function createPortfolio(\n        string memory _name,\n        string memory _symbol,\n        uint256 _initCommission\n    ) external payable mustPayPlatformCommission {\n        require(\n            portfolios[msg.sender].assetCount == 0,\n            \"Portfolio already exists\"\n        );\n\n        Portfolio memory portfolio = Portfolio({\n            name: _name,\n            symbol: _symbol,\n            assetCount: 1,\n            totalSupply: 0,\n            commission: _initCommission,\n            owner: msg.sender\n        });\n        portfolios[msg.sender] = portfolio;\n        portfolioAssets[msg.sender][address(1)] = true;\n        portfolioAssetAddresses[msg.sender].push(address(1));\n        emit PortfolioCreated(msg.sender, _name);\n    }\n\n    function addAsset(address _assetAddress)\n        external\n        mustBeAvailableAsset(_assetAddress)\n        onlyPortfolioOwner\n    {\n        {\n            require(\n                !portfolioAssets[msg.sender][_assetAddress],\n                \"Asset already added to this portfolio!\"\n            );\n        }\n        portfolioAssets[msg.sender][_assetAddress] = true;\n        portfolios[msg.sender].assetCount++;\n        portfolioAssetAddresses[msg.sender].push(_assetAddress);\n        portfolioAssetAllocations[msg.sender][_assetAddress] = AssetAllocation(\n            _assetAddress,\n            0\n        );\n    }\n\n    function updateAllocation(address _assetAddress, uint256 _perShareAmount)\n        external\n        onlyPortfolioOwner\n    {\n        {\n            require(\n                portfolioAssets[msg.sender][_assetAddress],\n                \"Asset must be added to portfolio!\"\n            );\n        }\n        uint256 totalSupply = portfolios[msg.sender].totalSupply;\n        uint256 prevAmount = portfolioAssetAllocations[msg.sender][\n            _assetAddress\n        ].perShareAmount;\n        uint256 diff = _absDiff(prevAmount, _perShareAmount);\n        portfolioAssetAllocations[msg.sender][_assetAddress]\n            .perShareAmount = _perShareAmount;\n        uint256 amount = diff * totalSupply;\n\n        if (totalSupply > 0) {\n            if (prevAmount > _perShareAmount) {\n                treasury.sellAsset(\n                    msg.sender,\n                    _assetAddress,\n                    amount\n                );\n            } else if (prevAmount < _perShareAmount) {\n                uint256 assetCost = oracle.getBuyingCost(\n                    _assetAddress,\n                    amount\n                );\n                treasury.buyAsset(\n                    msg.sender,\n                    _assetAddress,\n                    amount,\n                    assetCost\n                );\n            }\n        }\n    }\n\n    // ---------- TRADING ----------\n\n    function buyShares(address _portfolioAddress, uint256 _amount)\n        external\n        payable\n        mustBeExistingPortfolio(_portfolioAddress)\n        mustPayPlatformCommission\n    {\n        uint256 cost = calculateBuyingCost(_portfolioAddress, _amount);\n        require(\n            cost <= msg.value,\n            \"Cost of shares is exceeds transferred amount!\"\n        );\n        portfolios[_portfolioAddress].totalSupply += _amount;\n        portfolioBalanceOf[_portfolioAddress][msg.sender] += _amount;\n        reserve.deposit{value: platformCommission}();\n        treasury.depositFor{value: msg.value - platformCommission}(msg.sender);\n\n        uint16 selectedPortfolioAssetCount = portfolios[_portfolioAddress]\n            .assetCount;\n        for (uint256 i = 1; i < selectedPortfolioAssetCount; i++) {\n            address assetAddress = portfolioAssetAddresses[_portfolioAddress][\n                i\n            ];\n            uint256 amountToBuy = _getAssetAmount(\n                _portfolioAddress,\n                assetAddress,\n                _amount\n            );\n\n            if (amountToBuy > 0) {\n                uint256 assetCost = oracle.getBuyingCost(\n                    assetAddress,\n                    amountToBuy\n                );\n                treasury.buyAsset(\n                    msg.sender,\n                    assetAddress,\n                    amountToBuy,\n                    assetCost\n                );\n            }\n        }\n    }\n\n    function sellShares(address _portfolioAddress, uint256 _amount)\n        external\n        payable\n        mustBeExistingPortfolio(_portfolioAddress)\n        mustPayPlatformCommission\n        returns (uint256)\n    {\n        uint256 payout = _calculatePayoutPrice(_portfolioAddress, _amount);\n        portfolios[_portfolioAddress].totalSupply -= _amount;\n        portfolioBalanceOf[_portfolioAddress][msg.sender] -= _amount;\n\n        uint16 selectedPortfolioAssetCount = portfolios[_portfolioAddress]\n            .assetCount;\n        for (uint256 i = 1; i < selectedPortfolioAssetCount; i++) {\n            address assetAddress = portfolioAssetAddresses[_portfolioAddress][\n                i\n            ];\n            uint256 amountToSell = _getAssetAmount(\n                _portfolioAddress,\n                assetAddress,\n                _amount\n            );\n            if (amountToSell > 0) {\n                treasury.sellAsset(\n                    msg.sender,\n                    assetAddress,\n                    amountToSell\n                );\n            }\n        }\n\n        treasury.withdraw(msg.sender, msg.sender, payout);\n        reserve.deposit{value: platformCommission}();\n\n        return payout;\n    }\n\n    // ---------- GETTERS ----------\n\n    function calculateBuyingCost(address _portfolioAddress, uint256 _amount)\n        public\n        view\n        returns (uint256)\n    {\n        uint16 selectedPortfolioAssetCount = portfolios[_portfolioAddress]\n            .assetCount;\n        uint256 totalCost = 0;\n\n        for (uint256 i = 0; i < selectedPortfolioAssetCount; i++) {\n            address assetAddress = portfolioAssetAddresses[_portfolioAddress][\n                i\n            ];\n            uint256 amountToBuy = _getAssetAmount(\n                _portfolioAddress,\n                assetAddress,\n                _amount\n            );\n            uint256 buyingCost = oracle.getBuyingCost(\n                assetAddress,\n                amountToBuy\n            );\n            totalCost += buyingCost;\n        }\n\n        return (totalCost += platformCommission);\n    }\n\n    function getTokenPrice(address _portfolioAddress)\n        public\n        view\n        returns (uint256)\n    {\n        uint16 selectedPortfolioAssetCount = portfolios[_portfolioAddress]\n            .assetCount;\n        uint256 tokenPrice = 0;\n\n        for (uint256 i = 0; i < selectedPortfolioAssetCount; i++) {\n            address assetAddress = portfolioAssetAddresses[_portfolioAddress][\n                i\n            ];\n            uint256 perShareAmount = _getAssetAmount(\n                _portfolioAddress,\n                assetAddress,\n                1\n            );\n            (uint256 assetPrice, ) = oracle.getPrice(assetAddress);\n            uint256 price = (perShareAmount * assetPrice);\n            tokenPrice += price;\n        }\n        return tokenPrice;\n    }\n\n    // ---------- HELPERS ----------\n\n    function _calculatePayoutPrice(address _portfolioAddress, uint256 _amount)\n        internal\n        view\n        returns (uint256)\n    {\n        uint16 selectedPortfolioAssetCount = portfolios[_portfolioAddress]\n            .assetCount;\n        uint256 payoutTotal = 0;\n\n        for (uint256 i = 0; i < selectedPortfolioAssetCount; i++) {\n            address assetAddress = portfolioAssetAddresses[_portfolioAddress][\n                i\n            ];\n            uint256 amountToSell = _getAssetAmount(\n                _portfolioAddress,\n                assetAddress,\n                _amount\n            );\n            uint256 payoutAmount = oracle.getPayoutAmount(\n                assetAddress,\n                amountToSell\n            );\n            payoutTotal += payoutAmount;\n        }\n        return payoutTotal;\n    }\n\n    function _getAssetAmount(\n        address _portfolioAddress,\n        address _assetAddress,\n        uint256 _amount\n    ) public view returns (uint256) {\n        return\n            portfolioAssetAllocations[_portfolioAddress][_assetAddress]\n                .perShareAmount * _amount;\n    }\n\n    function _absDiff(uint256 a, uint256 b) internal pure returns (uint256) {\n        return a >= b ? a - b : b - a;\n    }\n}\n",
  "sourcePath": "/home/d4fttasiii/git/portfolium/src/fund-contract/contracts/Portfolium.sol",
  "compiler": {
    "name": "solc",
    "version": "0.8.16+commit.07a7930e.Emscripten.clang"
  },
  "schemaVersion": "3.4.9",
  "updatedAt": "2022-12-12T19:27:59.203Z",
  "devdoc": {
    "kind": "dev",
    "methods": {},
    "version": 1
  },
  "userdoc": {
    "kind": "user",
    "methods": {},
    "version": 1
  }
}