{
  "contractName": "Portfolium",
  "abi": [
    {
      "inputs": [
        {
          "internalType": "contract Oracle",
          "name": "_oracle",
          "type": "address"
        },
        {
          "internalType": "contract Treasury",
          "name": "_treasury",
          "type": "address"
        },
        {
          "internalType": "contract Reserve",
          "name": "_reserve",
          "type": "address"
        },
        {
          "internalType": "uint256",
          "name": "_platformCommission",
          "type": "uint256"
        },
        {
          "internalType": "string",
          "name": "_nativeName",
          "type": "string"
        },
        {
          "internalType": "string",
          "name": "_nativeSymbol",
          "type": "string"
        },
        {
          "internalType": "uint8",
          "name": "_nativeDecimals",
          "type": "uint8"
        }
      ],
      "stateMutability": "nonpayable",
      "type": "constructor"
    },
    {
      "anonymous": false,
      "inputs": [
        {
          "indexed": true,
          "internalType": "address",
          "name": "owner",
          "type": "address"
        },
        {
          "indexed": false,
          "internalType": "string",
          "name": "name",
          "type": "string"
        }
      ],
      "name": "PortfolioCreated",
      "type": "event"
    },
    {
      "inputs": [
        {
          "internalType": "address",
          "name": "",
          "type": "address"
        }
      ],
      "name": "availableAssetAddresses",
      "outputs": [
        {
          "internalType": "bool",
          "name": "",
          "type": "bool"
        }
      ],
      "stateMutability": "view",
      "type": "function"
    },
    {
      "inputs": [],
      "name": "availableAssetCount",
      "outputs": [
        {
          "internalType": "uint64",
          "name": "",
          "type": "uint64"
        }
      ],
      "stateMutability": "view",
      "type": "function"
    },
    {
      "inputs": [
        {
          "internalType": "address",
          "name": "",
          "type": "address"
        }
      ],
      "name": "availableAssets",
      "outputs": [
        {
          "internalType": "address",
          "name": "assetAddress",
          "type": "address"
        },
        {
          "internalType": "string",
          "name": "name",
          "type": "string"
        },
        {
          "internalType": "string",
          "name": "symbol",
          "type": "string"
        },
        {
          "internalType": "uint8",
          "name": "decimals",
          "type": "uint8"
        },
        {
          "internalType": "enum Portfolium.AssetTypes",
          "name": "assetType",
          "type": "uint8"
        }
      ],
      "stateMutability": "view",
      "type": "function"
    },
    {
      "inputs": [],
      "name": "oracle",
      "outputs": [
        {
          "internalType": "contract Oracle",
          "name": "",
          "type": "address"
        }
      ],
      "stateMutability": "view",
      "type": "function"
    },
    {
      "inputs": [],
      "name": "ownerAddress",
      "outputs": [
        {
          "internalType": "address",
          "name": "",
          "type": "address"
        }
      ],
      "stateMutability": "view",
      "type": "function"
    },
    {
      "inputs": [],
      "name": "platformCommission",
      "outputs": [
        {
          "internalType": "uint256",
          "name": "",
          "type": "uint256"
        }
      ],
      "stateMutability": "view",
      "type": "function"
    },
    {
      "inputs": [
        {
          "internalType": "address",
          "name": "",
          "type": "address"
        },
        {
          "internalType": "uint256",
          "name": "",
          "type": "uint256"
        }
      ],
      "name": "portfolioAssetAddresses",
      "outputs": [
        {
          "internalType": "address",
          "name": "",
          "type": "address"
        }
      ],
      "stateMutability": "view",
      "type": "function"
    },
    {
      "inputs": [
        {
          "internalType": "address",
          "name": "",
          "type": "address"
        },
        {
          "internalType": "address",
          "name": "",
          "type": "address"
        }
      ],
      "name": "portfolioAssetAllocations",
      "outputs": [
        {
          "internalType": "address",
          "name": "assetAddress",
          "type": "address"
        },
        {
          "internalType": "uint256",
          "name": "perShareAmount",
          "type": "uint256"
        }
      ],
      "stateMutability": "view",
      "type": "function"
    },
    {
      "inputs": [
        {
          "internalType": "address",
          "name": "",
          "type": "address"
        },
        {
          "internalType": "address",
          "name": "",
          "type": "address"
        }
      ],
      "name": "portfolioAssets",
      "outputs": [
        {
          "internalType": "bool",
          "name": "",
          "type": "bool"
        }
      ],
      "stateMutability": "view",
      "type": "function"
    },
    {
      "inputs": [
        {
          "internalType": "address",
          "name": "",
          "type": "address"
        },
        {
          "internalType": "address",
          "name": "",
          "type": "address"
        }
      ],
      "name": "portfolioBalanceOf",
      "outputs": [
        {
          "internalType": "uint256",
          "name": "",
          "type": "uint256"
        }
      ],
      "stateMutability": "view",
      "type": "function"
    },
    {
      "inputs": [
        {
          "internalType": "address",
          "name": "",
          "type": "address"
        }
      ],
      "name": "portfolios",
      "outputs": [
        {
          "internalType": "address",
          "name": "owner",
          "type": "address"
        },
        {
          "internalType": "string",
          "name": "name",
          "type": "string"
        },
        {
          "internalType": "string",
          "name": "symbol",
          "type": "string"
        },
        {
          "internalType": "uint16",
          "name": "assetCount",
          "type": "uint16"
        },
        {
          "internalType": "uint256",
          "name": "totalSupply",
          "type": "uint256"
        },
        {
          "internalType": "uint256",
          "name": "commission",
          "type": "uint256"
        }
      ],
      "stateMutability": "view",
      "type": "function"
    },
    {
      "inputs": [],
      "name": "reserve",
      "outputs": [
        {
          "internalType": "contract Reserve",
          "name": "",
          "type": "address"
        }
      ],
      "stateMutability": "view",
      "type": "function"
    },
    {
      "inputs": [],
      "name": "treasury",
      "outputs": [
        {
          "internalType": "contract Treasury",
          "name": "",
          "type": "address"
        }
      ],
      "stateMutability": "view",
      "type": "function"
    },
    {
      "inputs": [
        {
          "internalType": "uint256",
          "name": "_platformCommission",
          "type": "uint256"
        }
      ],
      "name": "updatePlatformCommission",
      "outputs": [],
      "stateMutability": "nonpayable",
      "type": "function"
    },
    {
      "inputs": [
        {
          "internalType": "address",
          "name": "_assetAddress",
          "type": "address"
        }
      ],
      "name": "addSupportedERC20Asset",
      "outputs": [],
      "stateMutability": "nonpayable",
      "type": "function"
    },
    {
      "inputs": [
        {
          "internalType": "address",
          "name": "_assetAddress",
          "type": "address"
        }
      ],
      "name": "addSupportedMirroredAsset",
      "outputs": [],
      "stateMutability": "nonpayable",
      "type": "function"
    },
    {
      "inputs": [
        {
          "internalType": "address",
          "name": "_assetAddress",
          "type": "address"
        }
      ],
      "name": "removeSupportedAsset",
      "outputs": [],
      "stateMutability": "nonpayable",
      "type": "function"
    },
    {
      "inputs": [
        {
          "internalType": "string",
          "name": "_name",
          "type": "string"
        },
        {
          "internalType": "string",
          "name": "_symbol",
          "type": "string"
        },
        {
          "internalType": "uint256",
          "name": "_initCommission",
          "type": "uint256"
        }
      ],
      "name": "createPortfolio",
      "outputs": [],
      "stateMutability": "payable",
      "type": "function"
    },
    {
      "inputs": [
        {
          "internalType": "address",
          "name": "_assetAddress",
          "type": "address"
        }
      ],
      "name": "addAsset",
      "outputs": [],
      "stateMutability": "nonpayable",
      "type": "function"
    },
    {
      "inputs": [
        {
          "internalType": "address",
          "name": "_assetAddress",
          "type": "address"
        },
        {
          "internalType": "uint256",
          "name": "_perShareAmount",
          "type": "uint256"
        }
      ],
      "name": "updateAllocation",
      "outputs": [],
      "stateMutability": "nonpayable",
      "type": "function"
    },
    {
      "inputs": [
        {
          "internalType": "address",
          "name": "_portfolioAddress",
          "type": "address"
        },
        {
          "internalType": "uint256",
          "name": "_amount",
          "type": "uint256"
        }
      ],
      "name": "buyShares",
      "outputs": [],
      "stateMutability": "payable",
      "type": "function"
    },
    {
      "inputs": [
        {
          "internalType": "address",
          "name": "_portfolioAddress",
          "type": "address"
        },
        {
          "internalType": "uint256",
          "name": "_amount",
          "type": "uint256"
        }
      ],
      "name": "sellShares",
      "outputs": [
        {
          "internalType": "uint256",
          "name": "",
          "type": "uint256"
        }
      ],
      "stateMutability": "payable",
      "type": "function"
    },
    {
      "inputs": [
        {
          "internalType": "address",
          "name": "_portfolioAddress",
          "type": "address"
        },
        {
          "internalType": "uint256",
          "name": "_amount",
          "type": "uint256"
        }
      ],
      "name": "calculateBuyingCost",
      "outputs": [
        {
          "internalType": "uint256",
          "name": "",
          "type": "uint256"
        }
      ],
      "stateMutability": "view",
      "type": "function"
    },
    {
      "inputs": [
        {
          "internalType": "address",
          "name": "_portfolioAddress",
          "type": "address"
        }
      ],
      "name": "getTokenPrice",
      "outputs": [
        {
          "internalType": "uint256",
          "name": "",
          "type": "uint256"
        }
      ],
      "stateMutability": "view",
      "type": "function"
    }
  ],
  "bytecode": "0x60806040523480156200001157600080fd5b5060405162004d3738038062004d37833981810160405281019062000037919062000659565b336000806101000a81548173ffffffffffffffffffffffffffffffffffffffff021916908373ffffffffffffffffffffffffffffffffffffffff16021790555086600c60006101000a81548173ffffffffffffffffffffffffffffffffffffffff021916908373ffffffffffffffffffffffffffffffffffffffff16021790555085600a60006101000a81548173ffffffffffffffffffffffffffffffffffffffff021916908373ffffffffffffffffffffffffffffffffffffffff16021790555084600b60006101000a81548173ffffffffffffffffffffffffffffffffffffffff021916908373ffffffffffffffffffffffffffffffffffffffff16021790555083600181905550600160046000600173ffffffffffffffffffffffffffffffffffffffff1673ffffffffffffffffffffffffffffffffffffffff16815260200190815260200160002060006101000a81548160ff0219169083151502179055506040518060a00160405280600173ffffffffffffffffffffffffffffffffffffffff1681526020018481526020018381526020018260ff16815260200160006002811115620001ee57620001ed6200074a565b5b81525060036000600173ffffffffffffffffffffffffffffffffffffffff1673ffffffffffffffffffffffffffffffffffffffff16815260200190815260200160002060008201518160000160006101000a81548173ffffffffffffffffffffffffffffffffffffffff021916908373ffffffffffffffffffffffffffffffffffffffff16021790555060208201518160010190816200028f9190620009ba565b506040820151816002019081620002a79190620009ba565b5060608201518160030160006101000a81548160ff021916908360ff16021790555060808201518160030160016101000a81548160ff02191690836002811115620002f757620002f66200074a565b5b02179055509050506001600260006101000a81548167ffffffffffffffff021916908367ffffffffffffffff1602179055505050505050505062000aa1565b6000604051905090565b600080fd5b600080fd5b600073ffffffffffffffffffffffffffffffffffffffff82169050919050565b600062000377826200034a565b9050919050565b60006200038b826200036a565b9050919050565b6200039d816200037e565b8114620003a957600080fd5b50565b600081519050620003bd8162000392565b92915050565b6000620003d0826200034a565b9050919050565b6000620003e482620003c3565b9050919050565b620003f681620003d7565b81146200040257600080fd5b50565b6000815190506200041681620003eb565b92915050565b600062000429826200036a565b9050919050565b6200043b816200041c565b81146200044757600080fd5b50565b6000815190506200045b8162000430565b92915050565b6000819050919050565b620004768162000461565b81146200048257600080fd5b50565b60008151905062000496816200046b565b92915050565b600080fd5b600080fd5b6000601f19601f8301169050919050565b7f4e487b7100000000000000000000000000000000000000000000000000000000600052604160045260246000fd5b620004f182620004a6565b810181811067ffffffffffffffff82111715620005135762000512620004b7565b5b80604052505050565b60006200052862000336565b9050620005368282620004e6565b919050565b600067ffffffffffffffff821115620005595762000558620004b7565b5b6200056482620004a6565b9050602081019050919050565b60005b838110156200059157808201518184015260208101905062000574565b60008484015250505050565b6000620005b4620005ae846200053b565b6200051c565b905082815260208101848484011115620005d357620005d2620004a1565b5b620005e084828562000571565b509392505050565b600082601f8301126200060057620005ff6200049c565b5b8151620006128482602086016200059d565b91505092915050565b600060ff82169050919050565b62000633816200061b565b81146200063f57600080fd5b50565b600081519050620006538162000628565b92915050565b600080600080600080600060e0888a0312156200067b576200067a62000340565b5b60006200068b8a828b01620003ac565b97505060206200069e8a828b0162000405565b9650506040620006b18a828b016200044a565b9550506060620006c48a828b0162000485565b945050608088015167ffffffffffffffff811115620006e857620006e762000345565b5b620006f68a828b01620005e8565b93505060a088015167ffffffffffffffff8111156200071a576200071962000345565b5b620007288a828b01620005e8565b92505060c06200073b8a828b0162000642565b91505092959891949750929550565b7f4e487b7100000000000000000000000000000000000000000000000000000000600052602160045260246000fd5b600081519050919050565b7f4e487b7100000000000000000000000000000000000000000000000000000000600052602260045260246000fd5b60006002820490506001821680620007cc57607f821691505b602082108103620007e257620007e162000784565b5b50919050565b60008190508160005260206000209050919050565b60006020601f8301049050919050565b600082821b905092915050565b6000600883026200084c7fffffffffffffffffffffffffffffffffffffffffffffffffffffffffffffffff826200080d565b6200085886836200080d565b95508019841693508086168417925050509392505050565b6000819050919050565b60006200089b620008956200088f8462000461565b62000870565b62000461565b9050919050565b6000819050919050565b620008b7836200087a565b620008cf620008c682620008a2565b8484546200081a565b825550505050565b600090565b620008e6620008d7565b620008f3818484620008ac565b505050565b5b818110156200091b576200090f600082620008dc565b600181019050620008f9565b5050565b601f8211156200096a576200093481620007e8565b6200093f84620007fd565b810160208510156200094f578190505b620009676200095e85620007fd565b830182620008f8565b50505b505050565b600082821c905092915050565b60006200098f600019846008026200096f565b1980831691505092915050565b6000620009aa83836200097c565b9150826002028217905092915050565b620009c58262000779565b67ffffffffffffffff811115620009e157620009e0620004b7565b5b620009ed8254620007b3565b620009fa8282856200091f565b600060209050601f83116001811462000a32576000841562000a1d578287015190505b62000a2985826200099c565b86555062000a99565b601f19841662000a4286620007e8565b60005b8281101562000a6c5784890151825560018201915060208501945060208101905062000a45565b8683101562000a8c578489015162000a88601f8916826200097c565b8355505b6001600288020188555050505b505050505050565b6142868062000ab16000396000f3fe60806040526004361061014b5760003560e01c806391135a56116100b6578063cd3293de1161006f578063cd3293de146104aa578063d02641a0146104d5578063d41632ea14610512578063d9afbb601461054f578063e89e96d414610578578063faa3f43e146105b65761014b565b806391135a5614610366578063982af636146103a7578063b51d0534146103e4578063baf1938b14610414578063c02714c714610430578063c74cc1311461046d5761014b565b8063694e91b811610108578063694e91b81461024f578063708517031461027a5780637baab3da146102a35780637dc0d1d0146102e557806384f87013146103105780638f84aa091461033b5761014b565b8063070ee84a146101505780631c46bc6f14610179578063298410e5146101a257806350faad72146101cb57806361d027b3146102085780636945b12314610233575b600080fd5b34801561015c57600080fd5b5061017760048036038101906101729190612f00565b6105df565b005b34801561018557600080fd5b506101a0600480360381019061019b9190612f8b565b6105f1565b005b3480156101ae57600080fd5b506101c960048036038101906101c49190612f8b565b6106a1565b005b3480156101d757600080fd5b506101f260048036038101906101ed9190612fb8565b610a2d565b6040516101ff9190613007565b60405180910390f35b34801561021457600080fd5b5061021d610c04565b60405161022a9190613081565b60405180910390f35b61024d60048036038101906102489190612fb8565b610c2a565b005b34801561025b57600080fd5b50610264610e06565b6040516102719190613007565b60405180910390f35b34801561028657600080fd5b506102a1600480360381019061029c9190612fb8565b610e0c565b005b3480156102af57600080fd5b506102ca60048036038101906102c59190612f8b565b61119a565b6040516102dc96959493929190613158565b60405180910390f35b3480156102f157600080fd5b506102fa611314565b60405161030791906131fa565b60405180910390f35b34801561031c57600080fd5b5061032561133a565b6040516103329190613238565b60405180910390f35b34801561034757600080fd5b50610350611354565b60405161035d9190613253565b60405180910390f35b34801561037257600080fd5b5061038d60048036038101906103889190612f8b565b611378565b60405161039e959493929190613301565b60405180910390f35b3480156103b357600080fd5b506103ce60048036038101906103c99190613362565b6114f8565b6040516103db9190613007565b60405180910390f35b6103fe60048036038101906103f99190612fb8565b61151d565b60405161040b9190613007565b60405180910390f35b61042e600480360381019061042991906134d7565b611754565b005b34801561043c57600080fd5b5061045760048036038101906104529190613362565b611ab8565b604051610464919061357d565b60405180910390f35b34801561047957600080fd5b50610494600480360381019061048f9190612f8b565b611ae7565b6040516104a1919061357d565b60405180910390f35b3480156104b657600080fd5b506104bf611b07565b6040516104cc91906135b9565b60405180910390f35b3480156104e157600080fd5b506104fc60048036038101906104f79190612f8b565b611b2d565b6040516105099190613007565b60405180910390f35b34801561051e57600080fd5b5061053960048036038101906105349190612fb8565b611d03565b6040516105469190613253565b60405180910390f35b34801561055b57600080fd5b5061057660048036038101906105719190612f8b565b611d51565b005b34801561058457600080fd5b5061059f600480360381019061059a9190613362565b61207f565b6040516105ad9291906135d4565b60405180910390f35b3480156105c257600080fd5b506105dd60048036038101906105d89190612f8b565b6120d0565b005b6105e76124d1565b8060018190555050565b6105f96124d1565b6000600460008373ffffffffffffffffffffffffffffffffffffffff1673ffffffffffffffffffffffffffffffffffffffff16815260200190815260200160002060006101000a81548160ff0219169083151502179055506002600081819054906101000a900467ffffffffffffffff16809291906106779061362c565b91906101000a81548167ffffffffffffffff021916908367ffffffffffffffff1602179055505050565b806106ab81612561565b6106b36125f0565b600660003373ffffffffffffffffffffffffffffffffffffffff1673ffffffffffffffffffffffffffffffffffffffff16815260200190815260200160002060008373ffffffffffffffffffffffffffffffffffffffff1673ffffffffffffffffffffffffffffffffffffffff16815260200190815260200160002060009054906101000a900460ff161561077d576040517f08c379a0000000000000000000000000000000000000000000000000000000008152600401610774906136c7565b60405180910390fd5b6001600660003373ffffffffffffffffffffffffffffffffffffffff1673ffffffffffffffffffffffffffffffffffffffff16815260200190815260200160002060008473ffffffffffffffffffffffffffffffffffffffff1673ffffffffffffffffffffffffffffffffffffffff16815260200190815260200160002060006101000a81548160ff021916908315150217905550600560003373ffffffffffffffffffffffffffffffffffffffff1673ffffffffffffffffffffffffffffffffffffffff168152602001908152602001600020600301600081819054906101000a900461ffff1680929190610872906136e7565b91906101000a81548161ffff021916908361ffff16021790555050600760003373ffffffffffffffffffffffffffffffffffffffff1673ffffffffffffffffffffffffffffffffffffffff168152602001908152602001600020829080600181540180825580915050600190039060005260206000200160009091909190916101000a81548173ffffffffffffffffffffffffffffffffffffffff021916908373ffffffffffffffffffffffffffffffffffffffff16021790555060405180604001604052808373ffffffffffffffffffffffffffffffffffffffff1681526020016000815250600860003373ffffffffffffffffffffffffffffffffffffffff1673ffffffffffffffffffffffffffffffffffffffff16815260200190815260200160002060008473ffffffffffffffffffffffffffffffffffffffff1673ffffffffffffffffffffffffffffffffffffffff16815260200190815260200160002060008201518160000160006101000a81548173ffffffffffffffffffffffffffffffffffffffff021916908373ffffffffffffffffffffffffffffffffffffffff160217905550602082015181600101559050505050565b600080600560008573ffffffffffffffffffffffffffffffffffffffff1673ffffffffffffffffffffffffffffffffffffffff16815260200190815260200160002060030160009054906101000a900461ffff1690506000805b8261ffff16811015610be8576000600760008873ffffffffffffffffffffffffffffffffffffffff1673ffffffffffffffffffffffffffffffffffffffff1681526020019081526020016000208281548110610ae657610ae5613711565b5b9060005260206000200160009054906101000a900473ffffffffffffffffffffffffffffffffffffffff1690506000610b208883896126c2565b90506000600c60009054906101000a900473ffffffffffffffffffffffffffffffffffffffff1673ffffffffffffffffffffffffffffffffffffffff16630f105fe184846040518363ffffffff1660e01b8152600401610b819291906135d4565b602060405180830381865afa158015610b9e573d6000803e3d6000fd5b505050506040513d601f19601f82011682018060405250810190610bc29190613755565b90508085610bd09190613782565b94505050508080610be0906137b6565b915050610a87565b5060015481610bf79190613782565b9050809250505092915050565b600a60009054906101000a900473ffffffffffffffffffffffffffffffffffffffff1681565b81610c3481612758565b6000610c408484610a2d565b905034811115610c85576040517f08c379a0000000000000000000000000000000000000000000000000000000008152600401610c7c90613870565b60405180910390fd5b82600560008673ffffffffffffffffffffffffffffffffffffffff1673ffffffffffffffffffffffffffffffffffffffff1681526020019081526020016000206004016000828254610cd79190613782565b9250508190555082600960008673ffffffffffffffffffffffffffffffffffffffff1673ffffffffffffffffffffffffffffffffffffffff16815260200190815260200160002060003373ffffffffffffffffffffffffffffffffffffffff1673ffffffffffffffffffffffffffffffffffffffff1681526020019081526020016000206000828254610d6a9190613782565b92505081905550600b60009054906101000a900473ffffffffffffffffffffffffffffffffffffffff1673ffffffffffffffffffffffffffffffffffffffff1663d0e30db06001546040518263ffffffff1660e01b81526004016000604051808303818588803b158015610ddd57600080fd5b505af1158015610df1573d6000803e3d6000fd5b5050505050610e0084846127f2565b50505050565b60015481565b610e146125f0565b600660003373ffffffffffffffffffffffffffffffffffffffff1673ffffffffffffffffffffffffffffffffffffffff16815260200190815260200160002060008373ffffffffffffffffffffffffffffffffffffffff1673ffffffffffffffffffffffffffffffffffffffff16815260200190815260200160002060009054906101000a900460ff16610edd576040517f08c379a0000000000000000000000000000000000000000000000000000000008152600401610ed490613902565b60405180910390fd5b6000600560003373ffffffffffffffffffffffffffffffffffffffff1673ffffffffffffffffffffffffffffffffffffffff1681526020019081526020016000206004015490506000600860003373ffffffffffffffffffffffffffffffffffffffff1673ffffffffffffffffffffffffffffffffffffffff16815260200190815260200160002060008573ffffffffffffffffffffffffffffffffffffffff1673ffffffffffffffffffffffffffffffffffffffff1681526020019081526020016000206001015490506000610fb48285612a3f565b905083600860003373ffffffffffffffffffffffffffffffffffffffff1673ffffffffffffffffffffffffffffffffffffffff16815260200190815260200160002060008773ffffffffffffffffffffffffffffffffffffffff1673ffffffffffffffffffffffffffffffffffffffff16815260200190815260200160002060010181905550600083111561119357838211156110ec57600a60009054906101000a900473ffffffffffffffffffffffffffffffffffffffff1673ffffffffffffffffffffffffffffffffffffffff1663b5556b87338786856110979190613922565b6040518463ffffffff1660e01b81526004016110b59392919061397c565b600060405180830381600087803b1580156110cf57600080fd5b505af11580156110e3573d6000803e3d6000fd5b50505050611192565b8382101561119157600a60009054906101000a900473ffffffffffffffffffffffffffffffffffffffff1673ffffffffffffffffffffffffffffffffffffffff166372c2d554338786856111409190613922565b6040518463ffffffff1660e01b815260040161115e9392919061397c565b600060405180830381600087803b15801561117857600080fd5b505af115801561118c573d6000803e3d6000fd5b505050505b5b5b5050505050565b60056020528060005260406000206000915090508060000160009054906101000a900473ffffffffffffffffffffffffffffffffffffffff16908060010180546111e3906139e2565b80601f016020809104026020016040519081016040528092919081815260200182805461120f906139e2565b801561125c5780601f106112315761010080835404028352916020019161125c565b820191906000526020600020905b81548152906001019060200180831161123f57829003601f168201915b505050505090806002018054611271906139e2565b80601f016020809104026020016040519081016040528092919081815260200182805461129d906139e2565b80156112ea5780601f106112bf576101008083540402835291602001916112ea565b820191906000526020600020905b8154815290600101906020018083116112cd57829003601f168201915b5050505050908060030160009054906101000a900461ffff16908060040154908060050154905086565b600c60009054906101000a900473ffffffffffffffffffffffffffffffffffffffff1681565b600260009054906101000a900467ffffffffffffffff1681565b60008054906101000a900473ffffffffffffffffffffffffffffffffffffffff1681565b60036020528060005260406000206000915090508060000160009054906101000a900473ffffffffffffffffffffffffffffffffffffffff16908060010180546113c1906139e2565b80601f01602080910402602001604051908101604052809291908181526020018280546113ed906139e2565b801561143a5780601f1061140f5761010080835404028352916020019161143a565b820191906000526020600020905b81548152906001019060200180831161141d57829003601f168201915b50505050509080600201805461144f906139e2565b80601f016020809104026020016040519081016040528092919081815260200182805461147b906139e2565b80156114c85780601f1061149d576101008083540402835291602001916114c8565b820191906000526020600020905b8154815290600101906020018083116114ab57829003601f168201915b5050505050908060030160009054906101000a900460ff16908060030160019054906101000a900460ff16905085565b6009602052816000526040600020602052806000526040600020600091509150505481565b60008261152981612758565b611531612a6f565b600061153d8585612ab6565b905083600560008773ffffffffffffffffffffffffffffffffffffffff1673ffffffffffffffffffffffffffffffffffffffff16815260200190815260200160002060040160008282546115919190613a13565b9250508190555083600960008773ffffffffffffffffffffffffffffffffffffffff1673ffffffffffffffffffffffffffffffffffffffff16815260200190815260200160002060003373ffffffffffffffffffffffffffffffffffffffff1673ffffffffffffffffffffffffffffffffffffffff16815260200190815260200160002060008282546116249190613a13565b925050819055506116358585612c7d565b600a60009054906101000a900473ffffffffffffffffffffffffffffffffffffffff1673ffffffffffffffffffffffffffffffffffffffff1663f3fef3a333836040518363ffffffff1660e01b81526004016116929291906135d4565b600060405180830381600087803b1580156116ac57600080fd5b505af11580156116c0573d6000803e3d6000fd5b50505050600b60009054906101000a900473ffffffffffffffffffffffffffffffffffffffff1673ffffffffffffffffffffffffffffffffffffffff1663d0e30db06001546040518263ffffffff1660e01b81526004016000604051808303818588803b15801561173057600080fd5b505af1158015611744573d6000803e3d6000fd5b5050505050809250505092915050565b61175c612a6f565b6000600560003373ffffffffffffffffffffffffffffffffffffffff1673ffffffffffffffffffffffffffffffffffffffff16815260200190815260200160002060030160009054906101000a900461ffff1661ffff16146117f3576040517f08c379a00000000000000000000000000000000000000000000000000000000081526004016117ea90613a93565b60405180910390fd5b60006040518060c001604052803373ffffffffffffffffffffffffffffffffffffffff168152602001858152602001848152602001600161ffff1681526020016000815260200183815250905080600560003373ffffffffffffffffffffffffffffffffffffffff1673ffffffffffffffffffffffffffffffffffffffff16815260200190815260200160002060008201518160000160006101000a81548173ffffffffffffffffffffffffffffffffffffffff021916908373ffffffffffffffffffffffffffffffffffffffff16021790555060208201518160010190816118dc9190613c55565b5060408201518160020190816118f29190613c55565b5060608201518160030160006101000a81548161ffff021916908361ffff1602179055506080820151816004015560a082015181600501559050506001600660003373ffffffffffffffffffffffffffffffffffffffff1673ffffffffffffffffffffffffffffffffffffffff1681526020019081526020016000206000600173ffffffffffffffffffffffffffffffffffffffff1673ffffffffffffffffffffffffffffffffffffffff16815260200190815260200160002060006101000a81548160ff021916908315150217905550600760003373ffffffffffffffffffffffffffffffffffffffff1673ffffffffffffffffffffffffffffffffffffffff16815260200190815260200160002060019080600181540180825580915050600190039060005260206000200160009091909190916101000a81548173ffffffffffffffffffffffffffffffffffffffff021916908373ffffffffffffffffffffffffffffffffffffffff1602179055503373ffffffffffffffffffffffffffffffffffffffff167f78a619b7d4293cfcdb95df6442fa7663f9246cd2c0092718ca321ba854b81f2785604051611aaa9190613d27565b60405180910390a250505050565b60066020528160005260406000206020528060005260406000206000915091509054906101000a900460ff1681565b60046020528060005260406000206000915054906101000a900460ff1681565b600b60009054906101000a900473ffffffffffffffffffffffffffffffffffffffff1681565b600080600560008473ffffffffffffffffffffffffffffffffffffffff1673ffffffffffffffffffffffffffffffffffffffff16815260200190815260200160002060030160009054906101000a900461ffff1690506000805b8261ffff16811015611cf8576000600760008773ffffffffffffffffffffffffffffffffffffffff1673ffffffffffffffffffffffffffffffffffffffff1681526020019081526020016000208281548110611be657611be5613711565b5b9060005260206000200160009054906101000a900473ffffffffffffffffffffffffffffffffffffffff1690506000611c21878360016126c2565b90506000600c60009054906101000a900473ffffffffffffffffffffffffffffffffffffffff1673ffffffffffffffffffffffffffffffffffffffff166341976e09846040518263ffffffff1660e01b8152600401611c809190613253565b6040805180830381865afa158015611c9c573d6000803e3d6000fd5b505050506040513d601f19601f82011682018060405250810190611cc09190613d49565b50905060008183611cd19190613922565b90508086611cdf9190613782565b9550505050508080611cf0906137b6565b915050611b87565b508092505050919050565b60076020528160005260406000208181548110611d1f57600080fd5b906000526020600020016000915091509054906101000a900473ffffffffffffffffffffffffffffffffffffffff1681565b611d596124d1565b80611d6381612e26565b600082905060008060008373ffffffffffffffffffffffffffffffffffffffff16638c4050716040518163ffffffff1660e01b8152600401600060405180830381865afa158015611db8573d6000803e3d6000fd5b505050506040513d6000823e3d601f19601f82011682018060405250810190611de19190613e25565b92509250925060006040518060a001604052808873ffffffffffffffffffffffffffffffffffffffff1681526020018581526020018481526020018360ff168152602001600280811115611e3857611e3761328a565b5b81525090506001600460008973ffffffffffffffffffffffffffffffffffffffff1673ffffffffffffffffffffffffffffffffffffffff16815260200190815260200160002060006101000a81548160ff02191690831515021790555080600360008973ffffffffffffffffffffffffffffffffffffffff1673ffffffffffffffffffffffffffffffffffffffff16815260200190815260200160002060008201518160000160006101000a81548173ffffffffffffffffffffffffffffffffffffffff021916908373ffffffffffffffffffffffffffffffffffffffff1602179055506020820151816001019081611f319190613c55565b506040820151816002019081611f479190613c55565b5060608201518160030160006101000a81548160ff021916908360ff16021790555060808201518160030160016101000a81548160ff02191690836002811115611f9457611f9361328a565b5b02179055509050506002600081819054906101000a900467ffffffffffffffff1680929190611fc290613eb0565b91906101000a81548167ffffffffffffffff021916908367ffffffffffffffff16021790555050600a60009054906101000a900473ffffffffffffffffffffffffffffffffffffffff1673ffffffffffffffffffffffffffffffffffffffff1663d2b3832b886040518263ffffffff1660e01b81526004016120449190613253565b600060405180830381600087803b15801561205e57600080fd5b505af1158015612072573d6000803e3d6000fd5b5050505050505050505050565b6008602052816000526040600020602052806000526040600020600091509150508060000160009054906101000a900473ffffffffffffffffffffffffffffffffffffffff16908060010154905082565b6120d86124d1565b806120e281612e26565b600082905060006040518060a001604052808573ffffffffffffffffffffffffffffffffffffffff1681526020018373ffffffffffffffffffffffffffffffffffffffff166306fdde036040518163ffffffff1660e01b8152600401600060405180830381865afa15801561215b573d6000803e3d6000fd5b505050506040513d6000823e3d601f19601f820116820180604052508101906121849190613ee0565b81526020018373ffffffffffffffffffffffffffffffffffffffff166395d89b416040518163ffffffff1660e01b8152600401600060405180830381865afa1580156121d4573d6000803e3d6000fd5b505050506040513d6000823e3d601f19601f820116820180604052508101906121fd9190613ee0565b81526020018373ffffffffffffffffffffffffffffffffffffffff1663313ce5676040518163ffffffff1660e01b8152600401602060405180830381865afa15801561224d573d6000803e3d6000fd5b505050506040513d601f19601f820116820180604052508101906122719190613f29565b60ff1681526020016001600281111561228d5761228c61328a565b5b81525090506001600460008673ffffffffffffffffffffffffffffffffffffffff1673ffffffffffffffffffffffffffffffffffffffff16815260200190815260200160002060006101000a81548160ff02191690831515021790555080600360008673ffffffffffffffffffffffffffffffffffffffff1673ffffffffffffffffffffffffffffffffffffffff16815260200190815260200160002060008201518160000160006101000a81548173ffffffffffffffffffffffffffffffffffffffff021916908373ffffffffffffffffffffffffffffffffffffffff16021790555060208201518160010190816123869190613c55565b50604082015181600201908161239c9190613c55565b5060608201518160030160006101000a81548160ff021916908360ff16021790555060808201518160030160016101000a81548160ff021916908360028111156123e9576123e861328a565b5b02179055509050506002600081819054906101000a900467ffffffffffffffff168092919061241790613eb0565b91906101000a81548167ffffffffffffffff021916908367ffffffffffffffff16021790555050600a60009054906101000a900473ffffffffffffffffffffffffffffffffffffffff1673ffffffffffffffffffffffffffffffffffffffff1663e3a0b800856040518263ffffffff1660e01b81526004016124999190613253565b600060405180830381600087803b1580156124b357600080fd5b505af11580156124c7573d6000803e3d6000fd5b5050505050505050565b60008054906101000a900473ffffffffffffffffffffffffffffffffffffffff1673ffffffffffffffffffffffffffffffffffffffff163373ffffffffffffffffffffffffffffffffffffffff161461255f576040517f08c379a000000000000000000000000000000000000000000000000000000000815260040161255690613fc8565b60405180910390fd5b565b600460008273ffffffffffffffffffffffffffffffffffffffff1673ffffffffffffffffffffffffffffffffffffffff16815260200190815260200160002060009054906101000a900460ff166125ed576040517f08c379a00000000000000000000000000000000000000000000000000000000081526004016125e490614034565b60405180910390fd5b50565b3373ffffffffffffffffffffffffffffffffffffffff16600560003373ffffffffffffffffffffffffffffffffffffffff1673ffffffffffffffffffffffffffffffffffffffff16815260200190815260200160002060000160009054906101000a900473ffffffffffffffffffffffffffffffffffffffff1673ffffffffffffffffffffffffffffffffffffffff16146126c0576040517f08c379a00000000000000000000000000000000000000000000000000000000081526004016126b7906140c6565b60405180910390fd5b565b600081600860008673ffffffffffffffffffffffffffffffffffffffff1673ffffffffffffffffffffffffffffffffffffffff16815260200190815260200160002060008573ffffffffffffffffffffffffffffffffffffffff1673ffffffffffffffffffffffffffffffffffffffff1681526020019081526020016000206001015461274f9190613922565b90509392505050565b6000600560008373ffffffffffffffffffffffffffffffffffffffff1673ffffffffffffffffffffffffffffffffffffffff16815260200190815260200160002060030160009054906101000a900461ffff1661ffff16116127ef576040517f08c379a00000000000000000000000000000000000000000000000000000000081526004016127e690614132565b60405180910390fd5b50565b6000600560008473ffffffffffffffffffffffffffffffffffffffff1673ffffffffffffffffffffffffffffffffffffffff16815260200190815260200160002060030160009054906101000a900461ffff16905060005b8161ffff16811015612a39576000600760008673ffffffffffffffffffffffffffffffffffffffff1673ffffffffffffffffffffffffffffffffffffffff16815260200190815260200160002082815481106128a9576128a8613711565b5b9060005260206000200160009054906101000a900473ffffffffffffffffffffffffffffffffffffffff16905060006128e38683876126c2565b90506000811115612a24576000600c60009054906101000a900473ffffffffffffffffffffffffffffffffffffffff1673ffffffffffffffffffffffffffffffffffffffff16630f105fe184846040518363ffffffff1660e01b815260040161294d9291906135d4565b602060405180830381865afa15801561296a573d6000803e3d6000fd5b505050506040513d601f19601f8201168201806040525081019061298e9190613755565b9050600a60009054906101000a900473ffffffffffffffffffffffffffffffffffffffff1673ffffffffffffffffffffffffffffffffffffffff166372c2d554828986866040518563ffffffff1660e01b81526004016129f09392919061397c565b6000604051808303818588803b158015612a0957600080fd5b505af1158015612a1d573d6000803e3d6000fd5b5050505050505b50508080612a31906137b6565b91505061284a565b50505050565b600081831015612a5a578282612a559190613a13565b612a67565b8183612a669190613a13565b5b905092915050565b600154341015612ab4576040517f08c379a0000000000000000000000000000000000000000000000000000000008152600401612aab906141c4565b60405180910390fd5b565b600080600560008573ffffffffffffffffffffffffffffffffffffffff1673ffffffffffffffffffffffffffffffffffffffff16815260200190815260200160002060030160009054906101000a900461ffff1690506000805b8261ffff16811015612c71576000600760008873ffffffffffffffffffffffffffffffffffffffff1673ffffffffffffffffffffffffffffffffffffffff1681526020019081526020016000208281548110612b6f57612b6e613711565b5b9060005260206000200160009054906101000a900473ffffffffffffffffffffffffffffffffffffffff1690506000612ba98883896126c2565b90506000600c60009054906101000a900473ffffffffffffffffffffffffffffffffffffffff1673ffffffffffffffffffffffffffffffffffffffff166396b7bab684846040518363ffffffff1660e01b8152600401612c0a9291906135d4565b602060405180830381865afa158015612c27573d6000803e3d6000fd5b505050506040513d601f19601f82011682018060405250810190612c4b9190613755565b90508085612c599190613782565b94505050508080612c69906137b6565b915050612b10565b50809250505092915050565b6000600560008473ffffffffffffffffffffffffffffffffffffffff1673ffffffffffffffffffffffffffffffffffffffff16815260200190815260200160002060030160009054906101000a900461ffff16905060005b8161ffff16811015612e20576000600760008673ffffffffffffffffffffffffffffffffffffffff1673ffffffffffffffffffffffffffffffffffffffff1681526020019081526020016000208281548110612d3457612d33613711565b5b9060005260206000200160009054906101000a900473ffffffffffffffffffffffffffffffffffffffff1690506000612d6e8683876126c2565b90506000811115612e0b57600a60009054906101000a900473ffffffffffffffffffffffffffffffffffffffff1673ffffffffffffffffffffffffffffffffffffffff1663b5556b878784846040518463ffffffff1660e01b8152600401612dd89392919061397c565b600060405180830381600087803b158015612df257600080fd5b505af1158015612e06573d6000803e3d6000fd5b505050505b50508080612e18906137b6565b915050612cd5565b50505050565b600460008273ffffffffffffffffffffffffffffffffffffffff1673ffffffffffffffffffffffffffffffffffffffff16815260200190815260200160002060009054906101000a900460ff1615612eb3576040517f08c379a0000000000000000000000000000000000000000000000000000000008152600401612eaa90614230565b60405180910390fd5b50565b6000604051905090565b600080fd5b600080fd5b6000819050919050565b612edd81612eca565b8114612ee857600080fd5b50565b600081359050612efa81612ed4565b92915050565b600060208284031215612f1657612f15612ec0565b5b6000612f2484828501612eeb565b91505092915050565b600073ffffffffffffffffffffffffffffffffffffffff82169050919050565b6000612f5882612f2d565b9050919050565b612f6881612f4d565b8114612f7357600080fd5b50565b600081359050612f8581612f5f565b92915050565b600060208284031215612fa157612fa0612ec0565b5b6000612faf84828501612f76565b91505092915050565b60008060408385031215612fcf57612fce612ec0565b5b6000612fdd85828601612f76565b9250506020612fee85828601612eeb565b9150509250929050565b61300181612eca565b82525050565b600060208201905061301c6000830184612ff8565b92915050565b6000819050919050565b600061304761304261303d84612f2d565b613022565b612f2d565b9050919050565b60006130598261302c565b9050919050565b600061306b8261304e565b9050919050565b61307b81613060565b82525050565b60006020820190506130966000830184613072565b92915050565b6130a581612f4d565b82525050565b600081519050919050565b600082825260208201905092915050565b60005b838110156130e55780820151818401526020810190506130ca565b60008484015250505050565b6000601f19601f8301169050919050565b600061310d826130ab565b61311781856130b6565b93506131278185602086016130c7565b613130816130f1565b840191505092915050565b600061ffff82169050919050565b6131528161313b565b82525050565b600060c08201905061316d600083018961309c565b818103602083015261317f8188613102565b905081810360408301526131938187613102565b90506131a26060830186613149565b6131af6080830185612ff8565b6131bc60a0830184612ff8565b979650505050505050565b60006131d28261302c565b9050919050565b60006131e4826131c7565b9050919050565b6131f4816131d9565b82525050565b600060208201905061320f60008301846131eb565b92915050565b600067ffffffffffffffff82169050919050565b61323281613215565b82525050565b600060208201905061324d6000830184613229565b92915050565b6000602082019050613268600083018461309c565b92915050565b600060ff82169050919050565b6132848161326e565b82525050565b7f4e487b7100000000000000000000000000000000000000000000000000000000600052602160045260246000fd5b600381106132ca576132c961328a565b5b50565b60008190506132db826132b9565b919050565b60006132eb826132cd565b9050919050565b6132fb816132e0565b82525050565b600060a082019050613316600083018861309c565b81810360208301526133288187613102565b9050818103604083015261333c8186613102565b905061334b606083018561327b565b61335860808301846132f2565b9695505050505050565b6000806040838503121561337957613378612ec0565b5b600061338785828601612f76565b925050602061339885828601612f76565b9150509250929050565b600080fd5b600080fd5b7f4e487b7100000000000000000000000000000000000000000000000000000000600052604160045260246000fd5b6133e4826130f1565b810181811067ffffffffffffffff82111715613403576134026133ac565b5b80604052505050565b6000613416612eb6565b905061342282826133db565b919050565b600067ffffffffffffffff821115613442576134416133ac565b5b61344b826130f1565b9050602081019050919050565b82818337600083830152505050565b600061347a61347584613427565b61340c565b905082815260208101848484011115613496576134956133a7565b5b6134a1848285613458565b509392505050565b600082601f8301126134be576134bd6133a2565b5b81356134ce848260208601613467565b91505092915050565b6000806000606084860312156134f0576134ef612ec0565b5b600084013567ffffffffffffffff81111561350e5761350d612ec5565b5b61351a868287016134a9565b935050602084013567ffffffffffffffff81111561353b5761353a612ec5565b5b613547868287016134a9565b925050604061355886828701612eeb565b9150509250925092565b60008115159050919050565b61357781613562565b82525050565b6000602082019050613592600083018461356e565b92915050565b60006135a3826131c7565b9050919050565b6135b381613598565b82525050565b60006020820190506135ce60008301846135aa565b92915050565b60006040820190506135e9600083018561309c565b6135f66020830184612ff8565b9392505050565b7f4e487b7100000000000000000000000000000000000000000000000000000000600052601160045260246000fd5b600061363782613215565b91506000820361364a576136496135fd565b5b600182039050919050565b7f417373657420616c726561647920616464656420746f207468697320706f727460008201527f666f6c696f210000000000000000000000000000000000000000000000000000602082015250565b60006136b16026836130b6565b91506136bc82613655565b604082019050919050565b600060208201905081810360008301526136e0816136a4565b9050919050565b60006136f28261313b565b915061ffff8203613706576137056135fd565b5b600182019050919050565b7f4e487b7100000000000000000000000000000000000000000000000000000000600052603260045260246000fd5b60008151905061374f81612ed4565b92915050565b60006020828403121561376b5761376a612ec0565b5b600061377984828501613740565b91505092915050565b600061378d82612eca565b915061379883612eca565b92508282019050808211156137b0576137af6135fd565b5b92915050565b60006137c182612eca565b91507fffffffffffffffffffffffffffffffffffffffffffffffffffffffffffffffff82036137f3576137f26135fd565b5b600182019050919050565b7f436f7374206f66207368617265732069732065786365656473207472616e736660008201527f657272656420616d6f756e742100000000000000000000000000000000000000602082015250565b600061385a602d836130b6565b9150613865826137fe565b604082019050919050565b600060208201905081810360008301526138898161384d565b9050919050565b7f4173736574206d75737420626520616464656420746f20706f7274666f6c696f60008201527f2100000000000000000000000000000000000000000000000000000000000000602082015250565b60006138ec6021836130b6565b91506138f782613890565b604082019050919050565b6000602082019050818103600083015261391b816138df565b9050919050565b600061392d82612eca565b915061393883612eca565b9250817fffffffffffffffffffffffffffffffffffffffffffffffffffffffffffffffff0483118215151615613971576139706135fd565b5b828202905092915050565b6000606082019050613991600083018661309c565b61399e602083018561309c565b6139ab6040830184612ff8565b949350505050565b7f4e487b7100000000000000000000000000000000000000000000000000000000600052602260045260246000fd5b600060028204905060018216806139fa57607f821691505b602082108103613a0d57613a0c6139b3565b5b50919050565b6000613a1e82612eca565b9150613a2983612eca565b9250828203905081811115613a4157613a406135fd565b5b92915050565b7f506f7274666f6c696f20616c7265616479206578697374730000000000000000600082015250565b6000613a7d6018836130b6565b9150613a8882613a47565b602082019050919050565b60006020820190508181036000830152613aac81613a70565b9050919050565b60008190508160005260206000209050919050565b60006020601f8301049050919050565b600082821b905092915050565b600060088302613b157fffffffffffffffffffffffffffffffffffffffffffffffffffffffffffffffff82613ad8565b613b1f8683613ad8565b95508019841693508086168417925050509392505050565b6000613b52613b4d613b4884612eca565b613022565b612eca565b9050919050565b6000819050919050565b613b6c83613b37565b613b80613b7882613b59565b848454613ae5565b825550505050565b600090565b613b95613b88565b613ba0818484613b63565b505050565b5b81811015613bc457613bb9600082613b8d565b600181019050613ba6565b5050565b601f821115613c0957613bda81613ab3565b613be384613ac8565b81016020851015613bf2578190505b613c06613bfe85613ac8565b830182613ba5565b50505b505050565b600082821c905092915050565b6000613c2c60001984600802613c0e565b1980831691505092915050565b6000613c458383613c1b565b9150826002028217905092915050565b613c5e826130ab565b67ffffffffffffffff811115613c7757613c766133ac565b5b613c8182546139e2565b613c8c828285613bc8565b600060209050601f831160018114613cbf5760008415613cad578287015190505b613cb78582613c39565b865550613d1f565b601f198416613ccd86613ab3565b60005b82811015613cf557848901518255600182019150602085019450602081019050613cd0565b86831015613d125784890151613d0e601f891682613c1b565b8355505b6001600288020188555050505b505050505050565b60006020820190508181036000830152613d418184613102565b905092915050565b60008060408385031215613d6057613d5f612ec0565b5b6000613d6e85828601613740565b9250506020613d7f85828601613740565b9150509250929050565b6000613d9c613d9784613427565b61340c565b905082815260208101848484011115613db857613db76133a7565b5b613dc38482856130c7565b509392505050565b600082601f830112613de057613ddf6133a2565b5b8151613df0848260208601613d89565b91505092915050565b613e028161326e565b8114613e0d57600080fd5b50565b600081519050613e1f81613df9565b92915050565b600080600060608486031215613e3e57613e3d612ec0565b5b600084015167ffffffffffffffff811115613e5c57613e5b612ec5565b5b613e6886828701613dcb565b935050602084015167ffffffffffffffff811115613e8957613e88612ec5565b5b613e9586828701613dcb565b9250506040613ea686828701613e10565b9150509250925092565b6000613ebb82613215565b915067ffffffffffffffff8203613ed557613ed46135fd565b5b600182019050919050565b600060208284031215613ef657613ef5612ec0565b5b600082015167ffffffffffffffff811115613f1457613f13612ec5565b5b613f2084828501613dcb565b91505092915050565b600060208284031215613f3f57613f3e612ec0565b5b6000613f4d84828501613e10565b91505092915050565b7f43616c6c6572206d7573742062652074686520636f6e7472616374206f776e6560008201527f7221000000000000000000000000000000000000000000000000000000000000602082015250565b6000613fb26022836130b6565b9150613fbd82613f56565b604082019050919050565b60006020820190508181036000830152613fe181613fa5565b9050919050565b7f4173736574206973206e6f7420617661696c61626c6521000000000000000000600082015250565b600061401e6017836130b6565b915061402982613fe8565b602082019050919050565b6000602082019050818103600083015261404d81614011565b9050919050565b7f43616c6c206d7573742062652074686520706f7274666f6c696f206f776e657260008201527f2100000000000000000000000000000000000000000000000000000000000000602082015250565b60006140b06021836130b6565b91506140bb82614054565b604082019050919050565b600060208201905081810360008301526140df816140a3565b9050919050565b7f506f7274666f6c696f20646f65736e2774206578697374732100000000000000600082015250565b600061411c6019836130b6565b9150614127826140e6565b602082019050919050565b6000602082019050818103600083015261414b8161410f565b9050919050565b7f4d696e2e20706c6174666f726d436f6d6d697373696f6e2068617320746f206260008201527f6520706169642100000000000000000000000000000000000000000000000000602082015250565b60006141ae6027836130b6565b91506141b982614152565b604082019050919050565b600060208201905081810360008301526141dd816141a1565b9050919050565b7f417373657420616c726561647920657869737473210000000000000000000000600082015250565b600061421a6015836130b6565b9150614225826141e4565b602082019050919050565b600060208201905081810360008301526142498161420d565b905091905056fea2646970667358221220eb627b8575169db5733ce29403acd1f3e4e065560923933eae0733434ba91ae364736f6c63430008100033",
  "immutableReferences": {},
  "source": "pragma solidity ^0.8.16;\n\nimport \"./Oracle.sol\";\nimport \"./Treasury.sol\";\nimport \"./Reserve.sol\";\nimport \"./Mirrored.sol\";\n\ncontract Portfolium {\n    enum AssetTypes {\n        Native,\n        ERC20,\n        Mirrored\n    }\n\n    struct AssetAllocation {\n        address assetAddress;\n        uint256 perShareAmount;\n    }\n\n    struct Asset {\n        address assetAddress;\n        string name;\n        string symbol;\n        uint8 decimals;\n        AssetTypes assetType;\n    }\n\n    struct Portfolio {\n        address owner;\n        string name;\n        string symbol;\n        uint16 assetCount;\n        uint256 totalSupply;\n        uint256 commission;\n    }\n\n    address public ownerAddress;\n    uint256 public platformCommission;\n\n    uint64 public availableAssetCount;\n    mapping(address => Asset) public availableAssets;\n    mapping(address => bool) public availableAssetAddresses;\n\n    mapping(address => Portfolio) public portfolios;\n    mapping(address => mapping(address => bool)) public portfolioAssets;\n    mapping(address => address[]) public portfolioAssetAddresses;\n    mapping(address => mapping(address => AssetAllocation))\n        public portfolioAssetAllocations;\n    mapping(address => mapping(address => uint256)) public portfolioBalanceOf;\n\n    Treasury public treasury;\n    Reserve public reserve;\n    Oracle public oracle;\n\n    constructor(\n        Oracle _oracle,\n        Treasury _treasury,\n        Reserve _reserve,\n        uint256 _platformCommission,\n        string memory _nativeName,\n        string memory _nativeSymbol,\n        uint8 _nativeDecimals\n    ) {\n        ownerAddress = msg.sender;\n        oracle = _oracle;\n        treasury = _treasury;\n        reserve = _reserve;\n        platformCommission = _platformCommission;\n        availableAssetAddresses[address(1)] = true;\n        availableAssets[address(1)] = Asset(\n            address(1),\n            _nativeName,\n            _nativeSymbol,\n            _nativeDecimals,\n            AssetTypes.Native\n        );\n        availableAssetCount = 1;\n    }\n\n    // ---------- EVENTS ----------\n\n    event PortfolioCreated(address indexed owner, string name);\n\n    // ---------- MODIFIERS ----------\n\n    function _mustPayPlatformCommission() private view {\n        require(\n            msg.value >= platformCommission,\n            \"Min. platformCommission has to be paid!\"\n        );\n    }\n\n    modifier mustPayPlatformCommission() {\n        _mustPayPlatformCommission();\n        _;\n    }\n\n    function _mustBeNewAsset(address _assetAddress) private view {\n        require(\n            !availableAssetAddresses[_assetAddress],\n            \"Asset already exists!\"\n        );\n    }\n\n    modifier mustBeNewAsset(address _assetAddress) {\n        _mustBeNewAsset(_assetAddress);\n        _;\n    }\n\n    function _mustBeAvailableAsset(address _assetAddress) private view {\n        require(\n            availableAssetAddresses[_assetAddress],\n            \"Asset is not available!\"\n        );\n    }\n\n    modifier mustBeAvailableAsset(address _assetAddress) {\n        _mustBeAvailableAsset(_assetAddress);\n        _;\n    }\n\n    function _mustBeExistingPortfolio(address _portfolioAddress) private view {\n        require(\n            portfolios[_portfolioAddress].assetCount > 0,\n            \"Portfolio doesn't exists!\"\n        );\n    }\n\n    modifier mustBeExistingPortfolio(address _portfolioAddress) {\n        _mustBeExistingPortfolio(_portfolioAddress);\n        _;\n    }\n\n    function _onlyOwner() private view {\n        require(\n            msg.sender == ownerAddress,\n            \"Caller must be the contract owner!\"\n        );\n    }\n\n    modifier onlyOwner() {\n        _onlyOwner();\n        _;\n    }\n\n    function _onlyPortfolioOwner() private view {\n        require(\n            portfolios[msg.sender].owner == msg.sender,\n            \"Call must be the portfolio owner!\"\n        );\n    }\n\n    modifier onlyPortfolioOwner() {\n        _onlyPortfolioOwner();\n        _;\n    }\n\n    // ---------- CONTRACT MANAGEMENT ----------\n\n    function updatePlatformCommission(uint256 _platformCommission)\n        external\n        onlyOwner\n    {\n        platformCommission = _platformCommission;\n    }\n\n    function addSupportedERC20Asset(address _assetAddress)\n        external\n        onlyOwner\n        mustBeNewAsset(_assetAddress)\n    {\n        TokenERC20 token = TokenERC20(_assetAddress);\n        Asset memory asset = Asset(\n            _assetAddress,\n            token.name(),\n            token.symbol(),\n            token.decimals(),\n            AssetTypes.ERC20\n        );\n        availableAssetAddresses[_assetAddress] = true;\n        availableAssets[_assetAddress] = asset;\n        availableAssetCount++;\n        treasury.addERC20Asset(_assetAddress);\n    }\n\n    function addSupportedMirroredAsset(address _assetAddress)\n        external\n        onlyOwner\n        mustBeNewAsset(_assetAddress)\n    {\n        Mirrored mirrored = Mirrored(_assetAddress);\n        (\n            string memory assetName,\n            string memory assetSymbol,\n            uint8 decimals\n        ) = mirrored.assetDetails();\n\n        Asset memory asset = Asset(\n            _assetAddress,\n            assetName,\n            assetSymbol,\n            decimals,\n            AssetTypes.Mirrored\n        );\n        availableAssetAddresses[_assetAddress] = true;\n        availableAssets[_assetAddress] = asset;\n        availableAssetCount++;\n        treasury.addMirroredAsset(_assetAddress);\n    }\n\n    function removeSupportedAsset(address _assetAddress) external onlyOwner {\n        availableAssetAddresses[_assetAddress] = false;\n        availableAssetCount--;\n    }\n\n    // ---------- PORTFOLIO MANAGEMENT ----------\n\n    function createPortfolio(\n        string memory _name,\n        string memory _symbol,\n        uint256 _initCommission\n    ) external payable mustPayPlatformCommission {\n        require(\n            portfolios[msg.sender].assetCount == 0,\n            \"Portfolio already exists\"\n        );\n\n        Portfolio memory portfolio = Portfolio({\n            name: _name,\n            symbol: _symbol,\n            assetCount: 1,\n            totalSupply: 0,\n            commission: _initCommission,\n            owner: msg.sender\n        });\n        portfolios[msg.sender] = portfolio;\n        portfolioAssets[msg.sender][address(1)] = true;\n        portfolioAssetAddresses[msg.sender].push(address(1));\n        emit PortfolioCreated(msg.sender, _name);\n    }\n\n    function addAsset(address _assetAddress)\n        external\n        mustBeAvailableAsset(_assetAddress)\n        onlyPortfolioOwner\n    {\n        {\n            require(\n                !portfolioAssets[msg.sender][_assetAddress],\n                \"Asset already added to this portfolio!\"\n            );\n        }\n        portfolioAssets[msg.sender][_assetAddress] = true;\n        portfolios[msg.sender].assetCount++;\n        portfolioAssetAddresses[msg.sender].push(_assetAddress);\n        portfolioAssetAllocations[msg.sender][_assetAddress] = AssetAllocation(\n            _assetAddress,\n            0\n        );\n    }\n\n    function updateAllocation(address _assetAddress, uint256 _perShareAmount)\n        external\n        onlyPortfolioOwner\n    {\n        {\n            require(\n                portfolioAssets[msg.sender][_assetAddress],\n                \"Asset must be added to portfolio!\"\n            );\n        }\n        uint256 totalSupply = portfolios[msg.sender].totalSupply;\n        uint256 prevAmount = portfolioAssetAllocations[msg.sender][\n            _assetAddress\n        ].perShareAmount;\n        uint256 diff = _absDiff(prevAmount, _perShareAmount);\n        portfolioAssetAllocations[msg.sender][_assetAddress]\n            .perShareAmount = _perShareAmount;\n\n        if (totalSupply > 0) {\n            if (prevAmount > _perShareAmount) {\n                treasury.sellAsset(\n                    msg.sender,\n                    _assetAddress,\n                    diff * totalSupply\n                );\n            } else if (prevAmount < _perShareAmount) {\n                treasury.buyAsset(\n                    msg.sender,\n                    _assetAddress,\n                    diff * totalSupply\n                );\n            }\n        }\n    }\n\n    // ---------- TRADING ----------\n\n    function buyShares(address _portfolioAddress, uint256 _amount)\n        external\n        payable\n        mustBeExistingPortfolio(_portfolioAddress)\n    {\n        uint256 cost = calculateBuyingCost(_portfolioAddress, _amount);\n        require(\n            cost <= msg.value,\n            \"Cost of shares is exceeds transferred amount!\"\n        );\n        portfolios[_portfolioAddress].totalSupply += _amount;\n        portfolioBalanceOf[_portfolioAddress][msg.sender] += _amount;\n        reserve.deposit{value: platformCommission}();\n        _buyAssets(_portfolioAddress, _amount);\n    }\n\n    function sellShares(address _portfolioAddress, uint256 _amount)\n        external\n        payable\n        mustBeExistingPortfolio(_portfolioAddress)\n        mustPayPlatformCommission\n        returns (uint256)\n    {\n        uint256 payout = _calculatePayoutPrice(_portfolioAddress, _amount);\n        portfolios[_portfolioAddress].totalSupply -= _amount;\n        portfolioBalanceOf[_portfolioAddress][msg.sender] -= _amount;\n\n        _sellAssets(_portfolioAddress, _amount);\n        treasury.withdraw(msg.sender, payout);\n        reserve.deposit{value: platformCommission}();\n\n        return payout;\n    }\n\n    // ---------- GETTERS ----------\n\n    function calculateBuyingCost(address _portfolioAddress, uint256 _amount)\n        public\n        view\n        returns (uint256)\n    {\n        uint16 selectedPortfolioAssetCount = portfolios[_portfolioAddress]\n            .assetCount;\n        uint256 totalCost = 0;\n\n        for (uint256 i = 0; i < selectedPortfolioAssetCount; i++) {\n            address assetAddress = portfolioAssetAddresses[_portfolioAddress][\n                i\n            ];\n            uint256 amountToBuy = _getAssetAmount(\n                _portfolioAddress,\n                assetAddress,\n                _amount\n            );\n            uint256 buyingCost = oracle.getBuyingCost(\n                assetAddress,\n                amountToBuy\n            );\n            totalCost += buyingCost;\n        }\n\n        return (totalCost += platformCommission);\n    }\n\n    function getTokenPrice(address _portfolioAddress)\n        public\n        view\n        returns (uint256)\n    {\n        uint16 selectedPortfolioAssetCount = portfolios[_portfolioAddress]\n            .assetCount;\n        uint256 tokenPrice = 0;\n\n        for (uint256 i = 0; i < selectedPortfolioAssetCount; i++) {\n            address assetAddress = portfolioAssetAddresses[_portfolioAddress][\n                i\n            ];\n            uint256 perShareAmount = _getAssetAmount(\n                _portfolioAddress,\n                assetAddress,\n                1\n            );\n            (uint256 assetPrice, ) = oracle.getPrice(assetAddress);\n            uint256 price = (perShareAmount * assetPrice);\n            tokenPrice += price;\n        }\n        return tokenPrice;\n    }\n\n    // ---------- HELPERS ----------\n\n    function _buyAssets(address _portfolioAddress, uint256 _amount) internal {\n        uint16 selectedPortfolioAssetCount = portfolios[_portfolioAddress]\n            .assetCount;\n        for (uint256 i = 0; i < selectedPortfolioAssetCount; i++) {\n            address assetAddress = portfolioAssetAddresses[_portfolioAddress][\n                i\n            ];\n            uint256 amountToBuy = _getAssetAmount(\n                _portfolioAddress,\n                assetAddress,\n                _amount\n            );\n\n            if (amountToBuy > 0) {\n                uint256 cost = oracle.getBuyingCost(assetAddress, amountToBuy);\n                treasury.buyAsset{value: cost}(\n                    _portfolioAddress,\n                    assetAddress,\n                    amountToBuy\n                );\n            }\n        }\n    }\n\n    function _sellAssets(address _portfolioAddress, uint256 _amount) internal {\n        uint16 selectedPortfolioAssetCount = portfolios[_portfolioAddress]\n            .assetCount;\n        for (uint256 i = 0; i < selectedPortfolioAssetCount; i++) {\n            address assetAddress = portfolioAssetAddresses[_portfolioAddress][\n                i\n            ];\n            uint256 amountToSell = _getAssetAmount(\n                _portfolioAddress,\n                assetAddress,\n                _amount\n            );\n            if (amountToSell > 0) {\n                treasury.sellAsset(\n                    _portfolioAddress,\n                    assetAddress,\n                    amountToSell\n                );\n            }\n        }\n    }\n\n    function _calculatePayoutPrice(address _portfolioAddress, uint256 _amount)\n        internal\n        view\n        returns (uint256)\n    {\n        uint16 selectedPortfolioAssetCount = portfolios[_portfolioAddress]\n            .assetCount;\n        uint256 payoutTotal = 0;\n\n        for (uint256 i = 0; i < selectedPortfolioAssetCount; i++) {\n            address assetAddress = portfolioAssetAddresses[_portfolioAddress][\n                i\n            ];\n            uint256 amountToSell = _getAssetAmount(\n                _portfolioAddress,\n                assetAddress,\n                _amount\n            );\n            uint256 payoutAmount = oracle.getPayoutAmount(\n                assetAddress,\n                amountToSell\n            );\n            payoutTotal += payoutAmount;\n        }\n        return payoutTotal;\n    }\n\n    function _getAssetAmount(\n        address _portfolioAddress,\n        address _assetAddress,\n        uint256 _amount\n    ) internal view returns (uint256) {\n        return\n            portfolioAssetAllocations[_portfolioAddress][_assetAddress]\n                .perShareAmount * _amount;\n    }\n\n    function _absDiff(uint256 a, uint256 b) internal pure returns (uint256) {\n        return a >= b ? a - b : b - a;\n    }\n}\n",
  "sourcePath": "/home/d4fttasiii/git/portfolium/src/fund-contract/contracts/Portfolium.sol",
  "compiler": {
    "name": "solc",
    "version": "0.8.16+commit.07a7930e.Emscripten.clang"
  },
  "schemaVersion": "3.4.9",
  "updatedAt": "2022-12-09T14:37:23.343Z",
  "devdoc": {
    "kind": "dev",
    "methods": {},
    "version": 1
  },
  "userdoc": {
    "kind": "user",
    "methods": {},
    "version": 1
  }
}