{
  "contractName": "Portfolium",
  "abi": [
    {
      "inputs": [
        {
          "internalType": "contract Oracle",
          "name": "_oracle",
          "type": "address"
        },
        {
          "internalType": "contract Treasury",
          "name": "_treasury",
          "type": "address"
        },
        {
          "internalType": "contract Reserve",
          "name": "_reserve",
          "type": "address"
        },
        {
          "internalType": "uint256",
          "name": "_platformCommission",
          "type": "uint256"
        },
        {
          "internalType": "string",
          "name": "_nativeName",
          "type": "string"
        },
        {
          "internalType": "string",
          "name": "_nativeSymbol",
          "type": "string"
        },
        {
          "internalType": "uint8",
          "name": "_nativeDecimals",
          "type": "uint8"
        }
      ],
      "stateMutability": "nonpayable",
      "type": "constructor"
    },
    {
      "inputs": [
        {
          "internalType": "address",
          "name": "",
          "type": "address"
        }
      ],
      "name": "availableAssetAddresses",
      "outputs": [
        {
          "internalType": "bool",
          "name": "",
          "type": "bool"
        }
      ],
      "stateMutability": "view",
      "type": "function"
    },
    {
      "inputs": [],
      "name": "availableAssetCount",
      "outputs": [
        {
          "internalType": "uint64",
          "name": "",
          "type": "uint64"
        }
      ],
      "stateMutability": "view",
      "type": "function"
    },
    {
      "inputs": [
        {
          "internalType": "address",
          "name": "",
          "type": "address"
        }
      ],
      "name": "availableAssets",
      "outputs": [
        {
          "internalType": "address",
          "name": "assetAddress",
          "type": "address"
        },
        {
          "internalType": "string",
          "name": "name",
          "type": "string"
        },
        {
          "internalType": "string",
          "name": "symbol",
          "type": "string"
        },
        {
          "internalType": "uint8",
          "name": "decimals",
          "type": "uint8"
        },
        {
          "internalType": "enum Portfolium.AssetTypes",
          "name": "assetType",
          "type": "uint8"
        }
      ],
      "stateMutability": "view",
      "type": "function"
    },
    {
      "inputs": [],
      "name": "oracle",
      "outputs": [
        {
          "internalType": "contract Oracle",
          "name": "",
          "type": "address"
        }
      ],
      "stateMutability": "view",
      "type": "function"
    },
    {
      "inputs": [],
      "name": "ownerAddress",
      "outputs": [
        {
          "internalType": "address",
          "name": "",
          "type": "address"
        }
      ],
      "stateMutability": "view",
      "type": "function"
    },
    {
      "inputs": [],
      "name": "platformCommission",
      "outputs": [
        {
          "internalType": "uint256",
          "name": "",
          "type": "uint256"
        }
      ],
      "stateMutability": "view",
      "type": "function"
    },
    {
      "inputs": [
        {
          "internalType": "address",
          "name": "",
          "type": "address"
        },
        {
          "internalType": "uint256",
          "name": "",
          "type": "uint256"
        }
      ],
      "name": "portfolioAssetAddresses",
      "outputs": [
        {
          "internalType": "address",
          "name": "",
          "type": "address"
        }
      ],
      "stateMutability": "view",
      "type": "function"
    },
    {
      "inputs": [
        {
          "internalType": "address",
          "name": "",
          "type": "address"
        },
        {
          "internalType": "address",
          "name": "",
          "type": "address"
        }
      ],
      "name": "portfolioAssets",
      "outputs": [
        {
          "internalType": "bool",
          "name": "",
          "type": "bool"
        }
      ],
      "stateMutability": "view",
      "type": "function"
    },
    {
      "inputs": [
        {
          "internalType": "address",
          "name": "",
          "type": "address"
        },
        {
          "internalType": "address",
          "name": "",
          "type": "address"
        }
      ],
      "name": "portfolioBalanceOf",
      "outputs": [
        {
          "internalType": "uint256",
          "name": "",
          "type": "uint256"
        }
      ],
      "stateMutability": "view",
      "type": "function"
    },
    {
      "inputs": [
        {
          "internalType": "address",
          "name": "",
          "type": "address"
        }
      ],
      "name": "portfolios",
      "outputs": [
        {
          "internalType": "address",
          "name": "owner",
          "type": "address"
        },
        {
          "internalType": "string",
          "name": "name",
          "type": "string"
        },
        {
          "internalType": "string",
          "name": "symbol",
          "type": "string"
        },
        {
          "internalType": "uint16",
          "name": "assetCount",
          "type": "uint16"
        },
        {
          "internalType": "uint256",
          "name": "totalSupply",
          "type": "uint256"
        },
        {
          "internalType": "uint64",
          "name": "likes",
          "type": "uint64"
        },
        {
          "internalType": "uint64",
          "name": "dislikes",
          "type": "uint64"
        },
        {
          "internalType": "uint256",
          "name": "commission",
          "type": "uint256"
        }
      ],
      "stateMutability": "view",
      "type": "function"
    },
    {
      "inputs": [],
      "name": "reserve",
      "outputs": [
        {
          "internalType": "contract Reserve",
          "name": "",
          "type": "address"
        }
      ],
      "stateMutability": "view",
      "type": "function"
    },
    {
      "inputs": [],
      "name": "treasury",
      "outputs": [
        {
          "internalType": "contract Treasury",
          "name": "",
          "type": "address"
        }
      ],
      "stateMutability": "view",
      "type": "function"
    },
    {
      "inputs": [
        {
          "internalType": "uint256",
          "name": "_platformCommission",
          "type": "uint256"
        }
      ],
      "name": "updatePlatformCommission",
      "outputs": [],
      "stateMutability": "nonpayable",
      "type": "function"
    },
    {
      "inputs": [
        {
          "internalType": "address",
          "name": "_assetAddress",
          "type": "address"
        },
        {
          "internalType": "string",
          "name": "_name",
          "type": "string"
        },
        {
          "internalType": "string",
          "name": "_symbol",
          "type": "string"
        },
        {
          "internalType": "uint8",
          "name": "_decimals",
          "type": "uint8"
        }
      ],
      "name": "addSupportedERC20Asset",
      "outputs": [],
      "stateMutability": "nonpayable",
      "type": "function"
    },
    {
      "inputs": [
        {
          "internalType": "address",
          "name": "_assetAddress",
          "type": "address"
        },
        {
          "internalType": "string",
          "name": "_name",
          "type": "string"
        },
        {
          "internalType": "string",
          "name": "_symbol",
          "type": "string"
        },
        {
          "internalType": "uint8",
          "name": "_decimals",
          "type": "uint8"
        }
      ],
      "name": "addSupportedMirroredAsset",
      "outputs": [],
      "stateMutability": "nonpayable",
      "type": "function"
    },
    {
      "inputs": [
        {
          "internalType": "address",
          "name": "_assetAddress",
          "type": "address"
        }
      ],
      "name": "removeSupportedAsset",
      "outputs": [],
      "stateMutability": "nonpayable",
      "type": "function"
    },
    {
      "inputs": [
        {
          "internalType": "string",
          "name": "_name",
          "type": "string"
        },
        {
          "internalType": "string",
          "name": "_symbol",
          "type": "string"
        },
        {
          "internalType": "uint256",
          "name": "_initCommission",
          "type": "uint256"
        }
      ],
      "name": "createPortfolio",
      "outputs": [],
      "stateMutability": "payable",
      "type": "function"
    },
    {
      "inputs": [
        {
          "internalType": "address",
          "name": "_assetAddress",
          "type": "address"
        }
      ],
      "name": "addAsset",
      "outputs": [],
      "stateMutability": "nonpayable",
      "type": "function"
    },
    {
      "inputs": [
        {
          "internalType": "address",
          "name": "_assetAddress",
          "type": "address"
        },
        {
          "internalType": "uint256",
          "name": "_perShareAmount",
          "type": "uint256"
        }
      ],
      "name": "updateAllocation",
      "outputs": [],
      "stateMutability": "nonpayable",
      "type": "function"
    },
    {
      "inputs": [
        {
          "internalType": "address",
          "name": "_portfolioAddress",
          "type": "address"
        }
      ],
      "name": "likePortfolio",
      "outputs": [],
      "stateMutability": "nonpayable",
      "type": "function"
    },
    {
      "inputs": [
        {
          "internalType": "address",
          "name": "_portfolioAddress",
          "type": "address"
        }
      ],
      "name": "dislikePortfolio",
      "outputs": [],
      "stateMutability": "nonpayable",
      "type": "function"
    },
    {
      "inputs": [
        {
          "internalType": "address",
          "name": "_portfolioAddress",
          "type": "address"
        }
      ],
      "name": "resetPortfolioInteraction",
      "outputs": [],
      "stateMutability": "nonpayable",
      "type": "function"
    },
    {
      "inputs": [
        {
          "internalType": "address",
          "name": "_portfolioAddress",
          "type": "address"
        },
        {
          "internalType": "uint256",
          "name": "_amount",
          "type": "uint256"
        }
      ],
      "name": "buyShares",
      "outputs": [],
      "stateMutability": "payable",
      "type": "function"
    },
    {
      "inputs": [
        {
          "internalType": "address",
          "name": "_portfolioAddress",
          "type": "address"
        },
        {
          "internalType": "uint256",
          "name": "_amount",
          "type": "uint256"
        }
      ],
      "name": "sellShares",
      "outputs": [
        {
          "internalType": "uint256",
          "name": "",
          "type": "uint256"
        }
      ],
      "stateMutability": "payable",
      "type": "function"
    },
    {
      "inputs": [
        {
          "internalType": "address",
          "name": "_portfolioAddress",
          "type": "address"
        }
      ],
      "name": "getPortfolioValue",
      "outputs": [
        {
          "internalType": "uint256",
          "name": "",
          "type": "uint256"
        }
      ],
      "stateMutability": "view",
      "type": "function"
    },
    {
      "inputs": [
        {
          "internalType": "address",
          "name": "_portfolioAddress",
          "type": "address"
        }
      ],
      "name": "getSharePrice",
      "outputs": [
        {
          "internalType": "uint256",
          "name": "",
          "type": "uint256"
        }
      ],
      "stateMutability": "view",
      "type": "function"
    }
  ],
  "bytecode": "0x60806040523480156200001157600080fd5b5060405162005c1d38038062005c1d833981810160405281019062000037919062000659565b336000806101000a81548173ffffffffffffffffffffffffffffffffffffffff021916908373ffffffffffffffffffffffffffffffffffffffff16021790555086600d60006101000a81548173ffffffffffffffffffffffffffffffffffffffff021916908373ffffffffffffffffffffffffffffffffffffffff16021790555085600b60006101000a81548173ffffffffffffffffffffffffffffffffffffffff021916908373ffffffffffffffffffffffffffffffffffffffff16021790555084600c60006101000a81548173ffffffffffffffffffffffffffffffffffffffff021916908373ffffffffffffffffffffffffffffffffffffffff16021790555083600181905550600160046000600173ffffffffffffffffffffffffffffffffffffffff1673ffffffffffffffffffffffffffffffffffffffff16815260200190815260200160002060006101000a81548160ff0219169083151502179055506040518060a00160405280600173ffffffffffffffffffffffffffffffffffffffff1681526020018481526020018381526020018260ff16815260200160006002811115620001ee57620001ed6200074a565b5b81525060036000600173ffffffffffffffffffffffffffffffffffffffff1673ffffffffffffffffffffffffffffffffffffffff16815260200190815260200160002060008201518160000160006101000a81548173ffffffffffffffffffffffffffffffffffffffff021916908373ffffffffffffffffffffffffffffffffffffffff16021790555060208201518160010190816200028f9190620009ba565b506040820151816002019081620002a79190620009ba565b5060608201518160030160006101000a81548160ff021916908360ff16021790555060808201518160030160016101000a81548160ff02191690836002811115620002f757620002f66200074a565b5b02179055509050506001600260006101000a81548167ffffffffffffffff021916908367ffffffffffffffff1602179055505050505050505062000aa1565b6000604051905090565b600080fd5b600080fd5b600073ffffffffffffffffffffffffffffffffffffffff82169050919050565b600062000377826200034a565b9050919050565b60006200038b826200036a565b9050919050565b6200039d816200037e565b8114620003a957600080fd5b50565b600081519050620003bd8162000392565b92915050565b6000620003d0826200034a565b9050919050565b6000620003e482620003c3565b9050919050565b620003f681620003d7565b81146200040257600080fd5b50565b6000815190506200041681620003eb565b92915050565b600062000429826200036a565b9050919050565b6200043b816200041c565b81146200044757600080fd5b50565b6000815190506200045b8162000430565b92915050565b6000819050919050565b620004768162000461565b81146200048257600080fd5b50565b60008151905062000496816200046b565b92915050565b600080fd5b600080fd5b6000601f19601f8301169050919050565b7f4e487b7100000000000000000000000000000000000000000000000000000000600052604160045260246000fd5b620004f182620004a6565b810181811067ffffffffffffffff82111715620005135762000512620004b7565b5b80604052505050565b60006200052862000336565b9050620005368282620004e6565b919050565b600067ffffffffffffffff821115620005595762000558620004b7565b5b6200056482620004a6565b9050602081019050919050565b60005b838110156200059157808201518184015260208101905062000574565b60008484015250505050565b6000620005b4620005ae846200053b565b6200051c565b905082815260208101848484011115620005d357620005d2620004a1565b5b620005e084828562000571565b509392505050565b600082601f8301126200060057620005ff6200049c565b5b8151620006128482602086016200059d565b91505092915050565b600060ff82169050919050565b62000633816200061b565b81146200063f57600080fd5b50565b600081519050620006538162000628565b92915050565b600080600080600080600060e0888a0312156200067b576200067a62000340565b5b60006200068b8a828b01620003ac565b97505060206200069e8a828b0162000405565b9650506040620006b18a828b016200044a565b9550506060620006c48a828b0162000485565b945050608088015167ffffffffffffffff811115620006e857620006e762000345565b5b620006f68a828b01620005e8565b93505060a088015167ffffffffffffffff8111156200071a576200071962000345565b5b620007288a828b01620005e8565b92505060c06200073b8a828b0162000642565b91505092959891949750929550565b7f4e487b7100000000000000000000000000000000000000000000000000000000600052602160045260246000fd5b600081519050919050565b7f4e487b7100000000000000000000000000000000000000000000000000000000600052602260045260246000fd5b60006002820490506001821680620007cc57607f821691505b602082108103620007e257620007e162000784565b5b50919050565b60008190508160005260206000209050919050565b60006020601f8301049050919050565b600082821b905092915050565b6000600883026200084c7fffffffffffffffffffffffffffffffffffffffffffffffffffffffffffffffff826200080d565b6200085886836200080d565b95508019841693508086168417925050509392505050565b6000819050919050565b60006200089b620008956200088f8462000461565b62000870565b62000461565b9050919050565b6000819050919050565b620008b7836200087a565b620008cf620008c682620008a2565b8484546200081a565b825550505050565b600090565b620008e6620008d7565b620008f3818484620008ac565b505050565b5b818110156200091b576200090f600082620008dc565b600181019050620008f9565b5050565b601f8211156200096a576200093481620007e8565b6200093f84620007fd565b810160208510156200094f578190505b620009676200095e85620007fd565b830182620008f8565b50505b505050565b600082821c905092915050565b60006200098f600019846008026200096f565b1980831691505092915050565b6000620009aa83836200097c565b9150826002028217905092915050565b620009c58262000779565b67ffffffffffffffff811115620009e157620009e0620004b7565b5b620009ed8254620007b3565b620009fa8282856200091f565b600060209050601f83116001811462000a32576000841562000a1d578287015190505b62000a2985826200099c565b86555062000a99565b601f19841662000a4286620007e8565b60005b8281101562000a6c5784890151825560018201915060208501945060208101905062000a45565b8683101562000a8c578489015162000a88601f8916826200097c565b8355505b6001600288020188555050505b505050505050565b61516c8062000ab16000396000f3fe6080604052600436106101815760003560e01c80638c81e4d1116100d1578063b51d05341161008a578063c02714c711610064578063c02714c714610572578063c74cc131146105af578063cd3293de146105ec578063d41632ea1461061757610181565b8063b51d0534146104e9578063b9c7840b14610519578063baf1938b1461055657610181565b80638c81e4d1146103b15780638f84aa09146103ee57806391135a5614610419578063982af6361461045a5780639f2574e914610497578063aa0d04ae146104c057610181565b80636945b1231161013e578063728e221211610118578063728e2212146102ee5780637baab3da146103175780637dc0d1d01461035b57806384f870131461038657610181565b80636945b1231461027e578063694e91b81461029a57806370851703146102c557610181565b8063070ee84a146101865780631c21629f146101af5780631c46bc6f146101d8578063298410e514610201578063357fa7751461022a57806361d027b314610253575b600080fd5b34801561019257600080fd5b506101ad60048036038101906101a89190613c5a565b610654565b005b3480156101bb57600080fd5b506101d660048036038101906101d19190613ce5565b610666565b005b3480156101e457600080fd5b506101ff60048036038101906101fa9190613ce5565b6109aa565b005b34801561020d57600080fd5b5061022860048036038101906102239190613ce5565b610a5a565b005b34801561023657600080fd5b50610251600480360381019061024c9190613e91565b610de6565b005b34801561025f57600080fd5b5061026861104a565b6040516102759190613f8f565b60405180910390f35b61029860048036038101906102939190613faa565b611070565b005b3480156102a657600080fd5b506102af611269565b6040516102bc9190613ff9565b60405180910390f35b3480156102d157600080fd5b506102ec60048036038101906102e79190613faa565b61126f565b005b3480156102fa57600080fd5b5061031560048036038101906103109190613e91565b6115fd565b005b34801561032357600080fd5b5061033e60048036038101906103399190613ce5565b611860565b6040516103529897969594939291906140e2565b60405180910390f35b34801561036757600080fd5b50610370611a0e565b60405161037d91906141a1565b60405180910390f35b34801561039257600080fd5b5061039b611a34565b6040516103a891906141bc565b60405180910390f35b3480156103bd57600080fd5b506103d860048036038101906103d39190613ce5565b611a4e565b6040516103e59190613ff9565b60405180910390f35b3480156103fa57600080fd5b50610403611ab8565b60405161041091906141d7565b60405180910390f35b34801561042557600080fd5b50610440600480360381019061043b9190613ce5565b611adc565b604051610451959493929190614278565b60405180910390f35b34801561046657600080fd5b50610481600480360381019061047c91906142d9565b611c5c565b60405161048e9190613ff9565b60405180910390f35b3480156104a357600080fd5b506104be60048036038101906104b99190613ce5565b611c81565b005b3480156104cc57600080fd5b506104e760048036038101906104e29190613ce5565b611f93565b005b61050360048036038101906104fe9190613faa565b6122a7565b6040516105109190613ff9565b60405180910390f35b34801561052557600080fd5b50610540600480360381019061053b9190613ce5565b6124ee565b60405161054d9190613ff9565b60405180910390f35b610570600480360381019061056b9190614319565b6129de565b005b34801561057e57600080fd5b50610599600480360381019061059491906142d9565b612d75565b6040516105a691906143bf565b60405180910390f35b3480156105bb57600080fd5b506105d660048036038101906105d19190613ce5565b612da4565b6040516105e391906143bf565b60405180910390f35b3480156105f857600080fd5b50610601612dc4565b60405161060e91906143fb565b60405180910390f35b34801561062357600080fd5b5061063e60048036038101906106399190613faa565b612dea565b60405161064b91906141d7565b60405180910390f35b61065c612e38565b8060018190555050565b6000600a60008373ffffffffffffffffffffffffffffffffffffffff1673ffffffffffffffffffffffffffffffffffffffff16815260200190815260200160002060003373ffffffffffffffffffffffffffffffffffffffff1673ffffffffffffffffffffffffffffffffffffffff16815260200190815260200160002060009054906101000a900460ff16905060028081111561070757610706614201565b5b81600281111561071a57610719614201565b5b148061074a57506001600281111561073557610734614201565b5b81600281111561074857610747614201565b5b145b610789576040517f08c379a00000000000000000000000000000000000000000000000000000000081526004016107809061443c565b60405180910390fd5b6001600281111561079d5761079c614201565b5b8160028111156107b0576107af614201565b5b0361084757600560008373ffffffffffffffffffffffffffffffffffffffff1673ffffffffffffffffffffffffffffffffffffffff168152602001908152602001600020600501600081819054906101000a900467ffffffffffffffff168092919061081b9061448b565b91906101000a81548167ffffffffffffffff021916908367ffffffffffffffff16021790555050610901565b60028081111561085a57610859614201565b5b81600281111561086d5761086c614201565b5b0361090057600560008373ffffffffffffffffffffffffffffffffffffffff1673ffffffffffffffffffffffffffffffffffffffff168152602001908152602001600020600501600881819054906101000a900467ffffffffffffffff16809291906108d89061448b565b91906101000a81548167ffffffffffffffff021916908367ffffffffffffffff160217905550505b5b6000600a60008473ffffffffffffffffffffffffffffffffffffffff1673ffffffffffffffffffffffffffffffffffffffff16815260200190815260200160002060003373ffffffffffffffffffffffffffffffffffffffff1673ffffffffffffffffffffffffffffffffffffffff16815260200190815260200160002060006101000a81548160ff021916908360028111156109a1576109a0614201565b5b02179055505050565b6109b2612e38565b6000600460008373ffffffffffffffffffffffffffffffffffffffff1673ffffffffffffffffffffffffffffffffffffffff16815260200190815260200160002060006101000a81548160ff0219169083151502179055506002600081819054906101000a900467ffffffffffffffff1680929190610a309061448b565b91906101000a81548167ffffffffffffffff021916908367ffffffffffffffff1602179055505050565b80610a6481612ec8565b610a6c612f57565b600660003373ffffffffffffffffffffffffffffffffffffffff1673ffffffffffffffffffffffffffffffffffffffff16815260200190815260200160002060008373ffffffffffffffffffffffffffffffffffffffff1673ffffffffffffffffffffffffffffffffffffffff16815260200190815260200160002060009054906101000a900460ff1615610b36576040517f08c379a0000000000000000000000000000000000000000000000000000000008152600401610b2d90614526565b60405180910390fd5b6001600660003373ffffffffffffffffffffffffffffffffffffffff1673ffffffffffffffffffffffffffffffffffffffff16815260200190815260200160002060008473ffffffffffffffffffffffffffffffffffffffff1673ffffffffffffffffffffffffffffffffffffffff16815260200190815260200160002060006101000a81548160ff021916908315150217905550600560003373ffffffffffffffffffffffffffffffffffffffff1673ffffffffffffffffffffffffffffffffffffffff168152602001908152602001600020600301600081819054906101000a900461ffff1680929190610c2b90614546565b91906101000a81548161ffff021916908361ffff16021790555050600760003373ffffffffffffffffffffffffffffffffffffffff1673ffffffffffffffffffffffffffffffffffffffff168152602001908152602001600020829080600181540180825580915050600190039060005260206000200160009091909190916101000a81548173ffffffffffffffffffffffffffffffffffffffff021916908373ffffffffffffffffffffffffffffffffffffffff16021790555060405180604001604052808373ffffffffffffffffffffffffffffffffffffffff1681526020016000815250600860003373ffffffffffffffffffffffffffffffffffffffff1673ffffffffffffffffffffffffffffffffffffffff16815260200190815260200160002060008473ffffffffffffffffffffffffffffffffffffffff1673ffffffffffffffffffffffffffffffffffffffff16815260200190815260200160002060008201518160000160006101000a81548173ffffffffffffffffffffffffffffffffffffffff021916908373ffffffffffffffffffffffffffffffffffffffff160217905550602082015181600101559050505050565b610dee612e38565b83610df881613029565b60128260ff161115610e3f576040517f08c379a0000000000000000000000000000000000000000000000000000000008152600401610e36906145bc565b60405180910390fd5b60006040518060a001604052808773ffffffffffffffffffffffffffffffffffffffff1681526020018681526020018581526020018460ff16815260200160016002811115610e9157610e90614201565b5b81525090506001600460008873ffffffffffffffffffffffffffffffffffffffff1673ffffffffffffffffffffffffffffffffffffffff16815260200190815260200160002060006101000a81548160ff02191690831515021790555080600360008873ffffffffffffffffffffffffffffffffffffffff1673ffffffffffffffffffffffffffffffffffffffff16815260200190815260200160002060008201518160000160006101000a81548173ffffffffffffffffffffffffffffffffffffffff021916908373ffffffffffffffffffffffffffffffffffffffff1602179055506020820151816001019081610f8a91906147de565b506040820151816002019081610fa091906147de565b5060608201518160030160006101000a81548160ff021916908360ff16021790555060808201518160030160016101000a81548160ff02191690836002811115610fed57610fec614201565b5b02179055509050506002600081819054906101000a900467ffffffffffffffff168092919061101b906148b0565b91906101000a81548167ffffffffffffffff021916908367ffffffffffffffff16021790555050505050505050565b600b60009054906101000a900473ffffffffffffffffffffffffffffffffffffffff1681565b8161107a816130b9565b6000611085846124ee565b90506000600154848361109891906148e0565b6110a2919061493a565b9050348111156110e7576040517f08c379a00000000000000000000000000000000000000000000000000000000081526004016110de906149e0565b60405180910390fd5b83600560008773ffffffffffffffffffffffffffffffffffffffff1673ffffffffffffffffffffffffffffffffffffffff1681526020019081526020016000206004016000828254611139919061493a565b9250508190555083600960008773ffffffffffffffffffffffffffffffffffffffff1673ffffffffffffffffffffffffffffffffffffffff16815260200190815260200160002060003373ffffffffffffffffffffffffffffffffffffffff1673ffffffffffffffffffffffffffffffffffffffff16815260200190815260200160002060008282546111cc919061493a565b92505081905550600c60009054906101000a900473ffffffffffffffffffffffffffffffffffffffff1673ffffffffffffffffffffffffffffffffffffffff1663d0e30db06001546040518263ffffffff1660e01b81526004016000604051808303818588803b15801561123f57600080fd5b505af1158015611253573d6000803e3d6000fd5b50505050506112628585613153565b5050505050565b60015481565b611277612f57565b600660003373ffffffffffffffffffffffffffffffffffffffff1673ffffffffffffffffffffffffffffffffffffffff16815260200190815260200160002060008373ffffffffffffffffffffffffffffffffffffffff1673ffffffffffffffffffffffffffffffffffffffff16815260200190815260200160002060009054906101000a900460ff16611340576040517f08c379a000000000000000000000000000000000000000000000000000000000815260040161133790614a72565b60405180910390fd5b6000600560003373ffffffffffffffffffffffffffffffffffffffff1673ffffffffffffffffffffffffffffffffffffffff1681526020019081526020016000206004015490506000600860003373ffffffffffffffffffffffffffffffffffffffff1673ffffffffffffffffffffffffffffffffffffffff16815260200190815260200160002060008573ffffffffffffffffffffffffffffffffffffffff1673ffffffffffffffffffffffffffffffffffffffff168152602001908152602001600020600101549050600061141782856136df565b905083600860003373ffffffffffffffffffffffffffffffffffffffff1673ffffffffffffffffffffffffffffffffffffffff16815260200190815260200160002060008773ffffffffffffffffffffffffffffffffffffffff1673ffffffffffffffffffffffffffffffffffffffff1681526020019081526020016000206001018190555060008311156115f6578382111561154f57600b60009054906101000a900473ffffffffffffffffffffffffffffffffffffffff1673ffffffffffffffffffffffffffffffffffffffff1663b5556b87338786856114fa91906148e0565b6040518463ffffffff1660e01b815260040161151893929190614a92565b600060405180830381600087803b15801561153257600080fd5b505af1158015611546573d6000803e3d6000fd5b505050506115f5565b838210156115f457600b60009054906101000a900473ffffffffffffffffffffffffffffffffffffffff1673ffffffffffffffffffffffffffffffffffffffff166372c2d554338786856115a391906148e0565b6040518463ffffffff1660e01b81526004016115c193929190614a92565b600060405180830381600087803b1580156115db57600080fd5b505af11580156115ef573d6000803e3d6000fd5b505050505b5b5b5050505050565b611605612e38565b8361160f81613029565b60128260ff161115611656576040517f08c379a000000000000000000000000000000000000000000000000000000000815260040161164d906145bc565b60405180910390fd5b60006040518060a001604052808773ffffffffffffffffffffffffffffffffffffffff1681526020018681526020018581526020018460ff1681526020016002808111156116a7576116a6614201565b5b81525090506001600460008873ffffffffffffffffffffffffffffffffffffffff1673ffffffffffffffffffffffffffffffffffffffff16815260200190815260200160002060006101000a81548160ff02191690831515021790555080600360008873ffffffffffffffffffffffffffffffffffffffff1673ffffffffffffffffffffffffffffffffffffffff16815260200190815260200160002060008201518160000160006101000a81548173ffffffffffffffffffffffffffffffffffffffff021916908373ffffffffffffffffffffffffffffffffffffffff16021790555060208201518160010190816117a091906147de565b5060408201518160020190816117b691906147de565b5060608201518160030160006101000a81548160ff021916908360ff16021790555060808201518160030160016101000a81548160ff0219169083600281111561180357611802614201565b5b02179055509050506002600081819054906101000a900467ffffffffffffffff1680929190611831906148b0565b91906101000a81548167ffffffffffffffff021916908367ffffffffffffffff16021790555050505050505050565b60056020528060005260406000206000915090508060000160009054906101000a900473ffffffffffffffffffffffffffffffffffffffff16908060010180546118a99061460b565b80601f01602080910402602001604051908101604052809291908181526020018280546118d59061460b565b80156119225780601f106118f757610100808354040283529160200191611922565b820191906000526020600020905b81548152906001019060200180831161190557829003601f168201915b5050505050908060020180546119379061460b565b80601f01602080910402602001604051908101604052809291908181526020018280546119639061460b565b80156119b05780601f10611985576101008083540402835291602001916119b0565b820191906000526020600020905b81548152906001019060200180831161199357829003601f168201915b5050505050908060030160009054906101000a900461ffff16908060040154908060050160009054906101000a900467ffffffffffffffff16908060050160089054906101000a900467ffffffffffffffff16908060060154905088565b600d60009054906101000a900473ffffffffffffffffffffffffffffffffffffffff1681565b600260009054906101000a900467ffffffffffffffff1681565b600080600560008473ffffffffffffffffffffffffffffffffffffffff1673ffffffffffffffffffffffffffffffffffffffff1681526020019081526020016000206004015490506000611aa1846124ee565b90508181611aaf91906148e0565b92505050919050565b60008054906101000a900473ffffffffffffffffffffffffffffffffffffffff1681565b60036020528060005260406000206000915090508060000160009054906101000a900473ffffffffffffffffffffffffffffffffffffffff1690806001018054611b259061460b565b80601f0160208091040260200160405190810160405280929190818152602001828054611b519061460b565b8015611b9e5780601f10611b7357610100808354040283529160200191611b9e565b820191906000526020600020905b815481529060010190602001808311611b8157829003601f168201915b505050505090806002018054611bb39061460b565b80601f0160208091040260200160405190810160405280929190818152602001828054611bdf9061460b565b8015611c2c5780601f10611c0157610100808354040283529160200191611c2c565b820191906000526020600020905b815481529060010190602001808311611c0f57829003601f168201915b5050505050908060030160009054906101000a900460ff16908060030160019054906101000a900460ff16905085565b6009602052816000526040600020602052806000526040600020600091509150505481565b6000600a60008373ffffffffffffffffffffffffffffffffffffffff1673ffffffffffffffffffffffffffffffffffffffff16815260200190815260200160002060003373ffffffffffffffffffffffffffffffffffffffff1673ffffffffffffffffffffffffffffffffffffffff16815260200190815260200160002060009054906101000a900460ff16905060006002811115611d2357611d22614201565b5b816002811115611d3657611d35614201565b5b1480611d655750600280811115611d5057611d4f614201565b5b816002811115611d6357611d62614201565b5b145b611da4576040517f08c379a0000000000000000000000000000000000000000000000000000000008152600401611d9b9061443c565b60405180910390fd5b600560008373ffffffffffffffffffffffffffffffffffffffff1673ffffffffffffffffffffffffffffffffffffffff168152602001908152602001600020600501600081819054906101000a900467ffffffffffffffff1680929190611e0a906148b0565b91906101000a81548167ffffffffffffffff021916908367ffffffffffffffff16021790555050600280811115611e4457611e43614201565b5b816002811115611e5757611e56614201565b5b03611eea57600560008373ffffffffffffffffffffffffffffffffffffffff1673ffffffffffffffffffffffffffffffffffffffff168152602001908152602001600020600501600881819054906101000a900467ffffffffffffffff1680929190611ec29061448b565b91906101000a81548167ffffffffffffffff021916908367ffffffffffffffff160217905550505b6001600a60008473ffffffffffffffffffffffffffffffffffffffff1673ffffffffffffffffffffffffffffffffffffffff16815260200190815260200160002060003373ffffffffffffffffffffffffffffffffffffffff1673ffffffffffffffffffffffffffffffffffffffff16815260200190815260200160002060006101000a81548160ff02191690836002811115611f8a57611f89614201565b5b02179055505050565b6000600a60008373ffffffffffffffffffffffffffffffffffffffff1673ffffffffffffffffffffffffffffffffffffffff16815260200190815260200160002060003373ffffffffffffffffffffffffffffffffffffffff1673ffffffffffffffffffffffffffffffffffffffff16815260200190815260200160002060009054906101000a900460ff1690506000600281111561203557612034614201565b5b81600281111561204857612047614201565b5b148061207857506001600281111561206357612062614201565b5b81600281111561207657612075614201565b5b145b6120b7576040517f08c379a00000000000000000000000000000000000000000000000000000000081526004016120ae9061443c565b60405180910390fd5b600560008373ffffffffffffffffffffffffffffffffffffffff1673ffffffffffffffffffffffffffffffffffffffff168152602001908152602001600020600501600881819054906101000a900467ffffffffffffffff168092919061211d906148b0565b91906101000a81548167ffffffffffffffff021916908367ffffffffffffffff160217905550506001600281111561215857612157614201565b5b81600281111561216b5761216a614201565b5b036121fe57600560008373ffffffffffffffffffffffffffffffffffffffff1673ffffffffffffffffffffffffffffffffffffffff168152602001908152602001600020600501600081819054906101000a900467ffffffffffffffff16809291906121d69061448b565b91906101000a81548167ffffffffffffffff021916908367ffffffffffffffff160217905550505b6002600a60008473ffffffffffffffffffffffffffffffffffffffff1673ffffffffffffffffffffffffffffffffffffffff16815260200190815260200160002060003373ffffffffffffffffffffffffffffffffffffffff1673ffffffffffffffffffffffffffffffffffffffff16815260200190815260200160002060006101000a81548160ff0219169083600281111561229e5761229d614201565b5b02179055505050565b60006122b161370f565b826122bb816130b9565b60006122c6856124ee565b9050600084826122d691906148e0565b905084600560008873ffffffffffffffffffffffffffffffffffffffff1673ffffffffffffffffffffffffffffffffffffffff168152602001908152602001600020600401600082825461232a9190614ac9565b9250508190555084600960008873ffffffffffffffffffffffffffffffffffffffff1673ffffffffffffffffffffffffffffffffffffffff16815260200190815260200160002060003373ffffffffffffffffffffffffffffffffffffffff1673ffffffffffffffffffffffffffffffffffffffff16815260200190815260200160002060008282546123bd9190614ac9565b92505081905550600c60009054906101000a900473ffffffffffffffffffffffffffffffffffffffff1673ffffffffffffffffffffffffffffffffffffffff1663d0e30db06001546040518263ffffffff1660e01b81526004016000604051808303818588803b15801561243057600080fd5b505af1158015612444573d6000803e3d6000fd5b50505050506124538686613756565b600b60009054906101000a900473ffffffffffffffffffffffffffffffffffffffff1673ffffffffffffffffffffffffffffffffffffffff1663f3fef3a333836040518363ffffffff1660e01b81526004016124b0929190614afd565b600060405180830381600087803b1580156124ca57600080fd5b505af11580156124de573d6000803e3d6000fd5b5050505080935050505092915050565b600080600560008473ffffffffffffffffffffffffffffffffffffffff1673ffffffffffffffffffffffffffffffffffffffff16815260200190815260200160002060030160009054906101000a900461ffff1690506000600760008573ffffffffffffffffffffffffffffffffffffffff1673ffffffffffffffffffffffffffffffffffffffff16815260200190815260200160002080548060200260200160405190810160405280929190818152602001828054801561260557602002820191906000526020600020905b8160009054906101000a900473ffffffffffffffffffffffffffffffffffffffff1673ffffffffffffffffffffffffffffffffffffffff16815260200190600101908083116125bb575b505050505090506000805b8361ffff168110156129d25760006003600085848151811061263557612634614b26565b5b602002602001015173ffffffffffffffffffffffffffffffffffffffff1673ffffffffffffffffffffffffffffffffffffffff1681526020019081526020016000206040518060a00160405290816000820160009054906101000a900473ffffffffffffffffffffffffffffffffffffffff1673ffffffffffffffffffffffffffffffffffffffff1673ffffffffffffffffffffffffffffffffffffffff1681526020016001820180546126e89061460b565b80601f01602080910402602001604051908101604052809291908181526020018280546127149061460b565b80156127615780601f1061273657610100808354040283529160200191612761565b820191906000526020600020905b81548152906001019060200180831161274457829003601f168201915b5050505050815260200160028201805461277a9061460b565b80601f01602080910402602001604051908101604052809291908181526020018280546127a69061460b565b80156127f35780601f106127c8576101008083540402835291602001916127f3565b820191906000526020600020905b8154815290600101906020018083116127d657829003601f168201915b505050505081526020016003820160009054906101000a900460ff1660ff1660ff1681526020016003820160019054906101000a900460ff16600281111561283e5761283d614201565b5b60028111156128505761284f614201565b5b8152505090506000600d60009054906101000a900473ffffffffffffffffffffffffffffffffffffffff1673ffffffffffffffffffffffffffffffffffffffff166341976e0983600001516040518263ffffffff1660e01b81526004016128b791906141d7565b6040805180830381865afa1580156128d3573d6000803e3d6000fd5b505050506040513d601f19601f820116820180604052508101906128f79190614b6a565b5090506000600860008a73ffffffffffffffffffffffffffffffffffffffff1673ffffffffffffffffffffffffffffffffffffffff1681526020019081526020016000206000846000015173ffffffffffffffffffffffffffffffffffffffff1673ffffffffffffffffffffffffffffffffffffffff16815260200190815260200160002060010154905060008360600151600a6129959190614cdd565b83836129a191906148e0565b6129ab9190614d57565b905080866129b9919061493a565b95505050505080806129ca90614d88565b915050612610565b50809350505050919050565b6129e661370f565b6000600560003373ffffffffffffffffffffffffffffffffffffffff1673ffffffffffffffffffffffffffffffffffffffff16815260200190815260200160002060030160009054906101000a900461ffff1661ffff1614612a7d576040517f08c379a0000000000000000000000000000000000000000000000000000000008152600401612a7490614e1c565b60405180910390fd5b60006040518061010001604052803373ffffffffffffffffffffffffffffffffffffffff168152602001858152602001848152602001600161ffff16815260200160008152602001600067ffffffffffffffff168152602001600067ffffffffffffffff16815260200183815250905080600560003373ffffffffffffffffffffffffffffffffffffffff1673ffffffffffffffffffffffffffffffffffffffff16815260200190815260200160002060008201518160000160006101000a81548173ffffffffffffffffffffffffffffffffffffffff021916908373ffffffffffffffffffffffffffffffffffffffff1602179055506020820151816001019081612b8991906147de565b506040820151816002019081612b9f91906147de565b5060608201518160030160006101000a81548161ffff021916908361ffff1602179055506080820151816004015560a08201518160050160006101000a81548167ffffffffffffffff021916908367ffffffffffffffff16021790555060c08201518160050160086101000a81548167ffffffffffffffff021916908367ffffffffffffffff16021790555060e082015181600601559050506001600660003373ffffffffffffffffffffffffffffffffffffffff1673ffffffffffffffffffffffffffffffffffffffff1681526020019081526020016000206000600173ffffffffffffffffffffffffffffffffffffffff1673ffffffffffffffffffffffffffffffffffffffff16815260200190815260200160002060006101000a81548160ff021916908315150217905550600760003373ffffffffffffffffffffffffffffffffffffffff1673ffffffffffffffffffffffffffffffffffffffff16815260200190815260200160002060019080600181540180825580915050600190039060005260206000200160009091909190916101000a81548173ffffffffffffffffffffffffffffffffffffffff021916908373ffffffffffffffffffffffffffffffffffffffff16021790555050505050565b60066020528160005260406000206020528060005260406000206000915091509054906101000a900460ff1681565b60046020528060005260406000206000915054906101000a900460ff1681565b600c60009054906101000a900473ffffffffffffffffffffffffffffffffffffffff1681565b60076020528160005260406000208181548110612e0657600080fd5b906000526020600020016000915091509054906101000a900473ffffffffffffffffffffffffffffffffffffffff1681565b60008054906101000a900473ffffffffffffffffffffffffffffffffffffffff1673ffffffffffffffffffffffffffffffffffffffff163373ffffffffffffffffffffffffffffffffffffffff1614612ec6576040517f08c379a0000000000000000000000000000000000000000000000000000000008152600401612ebd90614eae565b60405180910390fd5b565b600460008273ffffffffffffffffffffffffffffffffffffffff1673ffffffffffffffffffffffffffffffffffffffff16815260200190815260200160002060009054906101000a900460ff16612f54576040517f08c379a0000000000000000000000000000000000000000000000000000000008152600401612f4b90614f1a565b60405180910390fd5b50565b3373ffffffffffffffffffffffffffffffffffffffff16600560003373ffffffffffffffffffffffffffffffffffffffff1673ffffffffffffffffffffffffffffffffffffffff16815260200190815260200160002060000160009054906101000a900473ffffffffffffffffffffffffffffffffffffffff1673ffffffffffffffffffffffffffffffffffffffff1614613027576040517f08c379a000000000000000000000000000000000000000000000000000000000815260040161301e90614fac565b60405180910390fd5b565b600460008273ffffffffffffffffffffffffffffffffffffffff1673ffffffffffffffffffffffffffffffffffffffff16815260200190815260200160002060009054906101000a900460ff16156130b6576040517f08c379a00000000000000000000000000000000000000000000000000000000081526004016130ad90615018565b60405180910390fd5b50565b6000600560008373ffffffffffffffffffffffffffffffffffffffff1673ffffffffffffffffffffffffffffffffffffffff16815260200190815260200160002060030160009054906101000a900461ffff1661ffff1611613150576040517f08c379a000000000000000000000000000000000000000000000000000000000815260040161314790615084565b60405180910390fd5b50565b6000600560008473ffffffffffffffffffffffffffffffffffffffff1673ffffffffffffffffffffffffffffffffffffffff16815260200190815260200160002060030160009054906101000a900461ffff1690506000600760008573ffffffffffffffffffffffffffffffffffffffff1673ffffffffffffffffffffffffffffffffffffffff16815260200190815260200160002080548060200260200160405190810160405280929190818152602001828054801561326957602002820191906000526020600020905b8160009054906101000a900473ffffffffffffffffffffffffffffffffffffffff1673ffffffffffffffffffffffffffffffffffffffff168152602001906001019080831161321f575b5050505050905060005b8261ffff168110156136d85760006003600084848151811061329857613297614b26565b5b602002602001015173ffffffffffffffffffffffffffffffffffffffff1673ffffffffffffffffffffffffffffffffffffffff1681526020019081526020016000206040518060a00160405290816000820160009054906101000a900473ffffffffffffffffffffffffffffffffffffffff1673ffffffffffffffffffffffffffffffffffffffff1673ffffffffffffffffffffffffffffffffffffffff16815260200160018201805461334b9061460b565b80601f01602080910402602001604051908101604052809291908181526020018280546133779061460b565b80156133c45780601f10613399576101008083540402835291602001916133c4565b820191906000526020600020905b8154815290600101906020018083116133a757829003601f168201915b505050505081526020016002820180546133dd9061460b565b80601f01602080910402602001604051908101604052809291908181526020018280546134099061460b565b80156134565780601f1061342b57610100808354040283529160200191613456565b820191906000526020600020905b81548152906001019060200180831161343957829003601f168201915b505050505081526020016003820160009054906101000a900460ff1660ff1660ff1681526020016003820160019054906101000a900460ff1660028111156134a1576134a0614201565b5b60028111156134b3576134b2614201565b5b8152505090506000600860008873ffffffffffffffffffffffffffffffffffffffff1673ffffffffffffffffffffffffffffffffffffffff1681526020019081526020016000206000836000015173ffffffffffffffffffffffffffffffffffffffff1673ffffffffffffffffffffffffffffffffffffffff16815260200190815260200160002060010154905060008111156136c3576000600d60009054906101000a900473ffffffffffffffffffffffffffffffffffffffff1673ffffffffffffffffffffffffffffffffffffffff166341976e0984600001516040518263ffffffff1660e01b81526004016135ab91906141d7565b6040805180830381865afa1580156135c7573d6000803e3d6000fd5b505050506040513d601f19601f820116820180604052508101906135eb9190614b6a565b509050600087836135fc91906148e0565b905060008460600151600a6136119190614cdd565b838361361d91906148e0565b6136279190614d57565b9050600b60009054906101000a900473ffffffffffffffffffffffffffffffffffffffff1673ffffffffffffffffffffffffffffffffffffffff166372c2d554828c8860000151866040518563ffffffff1660e01b815260040161368d93929190614a92565b6000604051808303818588803b1580156136a657600080fd5b505af11580156136ba573d6000803e3d6000fd5b50505050505050505b505080806136d090614d88565b915050613273565b5050505050565b6000818310156136fa5782826136f59190614ac9565b613707565b81836137069190614ac9565b5b905092915050565b600154341015613754576040517f08c379a000000000000000000000000000000000000000000000000000000000815260040161374b90615116565b60405180910390fd5b565b6000600560008473ffffffffffffffffffffffffffffffffffffffff1673ffffffffffffffffffffffffffffffffffffffff16815260200190815260200160002060030160009054906101000a900461ffff1690506000600760008573ffffffffffffffffffffffffffffffffffffffff1673ffffffffffffffffffffffffffffffffffffffff16815260200190815260200160002080548060200260200160405190810160405280929190818152602001828054801561386c57602002820191906000526020600020905b8160009054906101000a900473ffffffffffffffffffffffffffffffffffffffff1673ffffffffffffffffffffffffffffffffffffffff1681526020019060010190808311613822575b5050505050905060005b8261ffff16811015613c095760006003600084848151811061389b5761389a614b26565b5b602002602001015173ffffffffffffffffffffffffffffffffffffffff1673ffffffffffffffffffffffffffffffffffffffff1681526020019081526020016000206040518060a00160405290816000820160009054906101000a900473ffffffffffffffffffffffffffffffffffffffff1673ffffffffffffffffffffffffffffffffffffffff1673ffffffffffffffffffffffffffffffffffffffff16815260200160018201805461394e9061460b565b80601f016020809104026020016040519081016040528092919081815260200182805461397a9061460b565b80156139c75780601f1061399c576101008083540402835291602001916139c7565b820191906000526020600020905b8154815290600101906020018083116139aa57829003601f168201915b505050505081526020016002820180546139e09061460b565b80601f0160208091040260200160405190810160405280929190818152602001828054613a0c9061460b565b8015613a595780601f10613a2e57610100808354040283529160200191613a59565b820191906000526020600020905b815481529060010190602001808311613a3c57829003601f168201915b505050505081526020016003820160009054906101000a900460ff1660ff1660ff1681526020016003820160019054906101000a900460ff166002811115613aa457613aa3614201565b5b6002811115613ab657613ab5614201565b5b8152505090506000600860008873ffffffffffffffffffffffffffffffffffffffff1673ffffffffffffffffffffffffffffffffffffffff1681526020019081526020016000206000836000015173ffffffffffffffffffffffffffffffffffffffff1673ffffffffffffffffffffffffffffffffffffffff16815260200190815260200160002060010154905060008187613b5291906148e0565b90506000811115613bf357600b60009054906101000a900473ffffffffffffffffffffffffffffffffffffffff1673ffffffffffffffffffffffffffffffffffffffff1663b5556b87898560000151846040518463ffffffff1660e01b8152600401613bc093929190614a92565b600060405180830381600087803b158015613bda57600080fd5b505af1158015613bee573d6000803e3d6000fd5b505050505b5050508080613c0190614d88565b915050613876565b5050505050565b6000604051905090565b600080fd5b600080fd5b6000819050919050565b613c3781613c24565b8114613c4257600080fd5b50565b600081359050613c5481613c2e565b92915050565b600060208284031215613c7057613c6f613c1a565b5b6000613c7e84828501613c45565b91505092915050565b600073ffffffffffffffffffffffffffffffffffffffff82169050919050565b6000613cb282613c87565b9050919050565b613cc281613ca7565b8114613ccd57600080fd5b50565b600081359050613cdf81613cb9565b92915050565b600060208284031215613cfb57613cfa613c1a565b5b6000613d0984828501613cd0565b91505092915050565b600080fd5b600080fd5b6000601f19601f8301169050919050565b7f4e487b7100000000000000000000000000000000000000000000000000000000600052604160045260246000fd5b613d6582613d1c565b810181811067ffffffffffffffff82111715613d8457613d83613d2d565b5b80604052505050565b6000613d97613c10565b9050613da38282613d5c565b919050565b600067ffffffffffffffff821115613dc357613dc2613d2d565b5b613dcc82613d1c565b9050602081019050919050565b82818337600083830152505050565b6000613dfb613df684613da8565b613d8d565b905082815260208101848484011115613e1757613e16613d17565b5b613e22848285613dd9565b509392505050565b600082601f830112613e3f57613e3e613d12565b5b8135613e4f848260208601613de8565b91505092915050565b600060ff82169050919050565b613e6e81613e58565b8114613e7957600080fd5b50565b600081359050613e8b81613e65565b92915050565b60008060008060808587031215613eab57613eaa613c1a565b5b6000613eb987828801613cd0565b945050602085013567ffffffffffffffff811115613eda57613ed9613c1f565b5b613ee687828801613e2a565b935050604085013567ffffffffffffffff811115613f0757613f06613c1f565b5b613f1387828801613e2a565b9250506060613f2487828801613e7c565b91505092959194509250565b6000819050919050565b6000613f55613f50613f4b84613c87565b613f30565b613c87565b9050919050565b6000613f6782613f3a565b9050919050565b6000613f7982613f5c565b9050919050565b613f8981613f6e565b82525050565b6000602082019050613fa46000830184613f80565b92915050565b60008060408385031215613fc157613fc0613c1a565b5b6000613fcf85828601613cd0565b9250506020613fe085828601613c45565b9150509250929050565b613ff381613c24565b82525050565b600060208201905061400e6000830184613fea565b92915050565b61401d81613ca7565b82525050565b600081519050919050565b600082825260208201905092915050565b60005b8381101561405d578082015181840152602081019050614042565b60008484015250505050565b600061407482614023565b61407e818561402e565b935061408e81856020860161403f565b61409781613d1c565b840191505092915050565b600061ffff82169050919050565b6140b9816140a2565b82525050565b600067ffffffffffffffff82169050919050565b6140dc816140bf565b82525050565b6000610100820190506140f8600083018b614014565b818103602083015261410a818a614069565b9050818103604083015261411e8189614069565b905061412d60608301886140b0565b61413a6080830187613fea565b61414760a08301866140d3565b61415460c08301856140d3565b61416160e0830184613fea565b9998505050505050505050565b600061417982613f3a565b9050919050565b600061418b8261416e565b9050919050565b61419b81614180565b82525050565b60006020820190506141b66000830184614192565b92915050565b60006020820190506141d160008301846140d3565b92915050565b60006020820190506141ec6000830184614014565b92915050565b6141fb81613e58565b82525050565b7f4e487b7100000000000000000000000000000000000000000000000000000000600052602160045260246000fd5b6003811061424157614240614201565b5b50565b600081905061425282614230565b919050565b600061426282614244565b9050919050565b61427281614257565b82525050565b600060a08201905061428d6000830188614014565b818103602083015261429f8187614069565b905081810360408301526142b38186614069565b90506142c260608301856141f2565b6142cf6080830184614269565b9695505050505050565b600080604083850312156142f0576142ef613c1a565b5b60006142fe85828601613cd0565b925050602061430f85828601613cd0565b9150509250929050565b60008060006060848603121561433257614331613c1a565b5b600084013567ffffffffffffffff8111156143505761434f613c1f565b5b61435c86828701613e2a565b935050602084013567ffffffffffffffff81111561437d5761437c613c1f565b5b61438986828701613e2a565b925050604061439a86828701613c45565b9150509250925092565b60008115159050919050565b6143b9816143a4565b82525050565b60006020820190506143d460008301846143b0565b92915050565b60006143e58261416e565b9050919050565b6143f5816143da565b82525050565b600060208201905061441060008301846143ec565b92915050565b50565b600061442660008361402e565b915061443182614416565b600082019050919050565b6000602082019050818103600083015261445581614419565b9050919050565b7f4e487b7100000000000000000000000000000000000000000000000000000000600052601160045260246000fd5b6000614496826140bf565b9150600082036144a9576144a861445c565b5b600182039050919050565b7f417373657420616c726561647920616464656420746f207468697320706f727460008201527f666f6c696f210000000000000000000000000000000000000000000000000000602082015250565b600061451060268361402e565b915061451b826144b4565b604082019050919050565b6000602082019050818103600083015261453f81614503565b9050919050565b6000614551826140a2565b915061ffff82036145655761456461445c565b5b600182019050919050565b7f4d6178206e756d626572206f6620646563696d616c7320697320313821000000600082015250565b60006145a6601d8361402e565b91506145b182614570565b602082019050919050565b600060208201905081810360008301526145d581614599565b9050919050565b7f4e487b7100000000000000000000000000000000000000000000000000000000600052602260045260246000fd5b6000600282049050600182168061462357607f821691505b602082108103614636576146356145dc565b5b50919050565b60008190508160005260206000209050919050565b60006020601f8301049050919050565b600082821b905092915050565b60006008830261469e7fffffffffffffffffffffffffffffffffffffffffffffffffffffffffffffffff82614661565b6146a88683614661565b95508019841693508086168417925050509392505050565b60006146db6146d66146d184613c24565b613f30565b613c24565b9050919050565b6000819050919050565b6146f5836146c0565b614709614701826146e2565b84845461466e565b825550505050565b600090565b61471e614711565b6147298184846146ec565b505050565b5b8181101561474d57614742600082614716565b60018101905061472f565b5050565b601f821115614792576147638161463c565b61476c84614651565b8101602085101561477b578190505b61478f61478785614651565b83018261472e565b50505b505050565b600082821c905092915050565b60006147b560001984600802614797565b1980831691505092915050565b60006147ce83836147a4565b9150826002028217905092915050565b6147e782614023565b67ffffffffffffffff811115614800576147ff613d2d565b5b61480a825461460b565b614815828285614751565b600060209050601f8311600181146148485760008415614836578287015190505b61484085826147c2565b8655506148a8565b601f1984166148568661463c565b60005b8281101561487e57848901518255600182019150602085019450602081019050614859565b8683101561489b5784890151614897601f8916826147a4565b8355505b6001600288020188555050505b505050505050565b60006148bb826140bf565b915067ffffffffffffffff82036148d5576148d461445c565b5b600182019050919050565b60006148eb82613c24565b91506148f683613c24565b9250817fffffffffffffffffffffffffffffffffffffffffffffffffffffffffffffffff048311821515161561492f5761492e61445c565b5b828202905092915050565b600061494582613c24565b915061495083613c24565b92508282019050808211156149685761496761445c565b5b92915050565b7f436f7374206f66207368617265732069732065786365656473207472616e736660008201527f657272656420616d6f756e742100000000000000000000000000000000000000602082015250565b60006149ca602d8361402e565b91506149d58261496e565b604082019050919050565b600060208201905081810360008301526149f9816149bd565b9050919050565b7f4173736574206d75737420626520616464656420746f20706f7274666f6c696f60008201527f2100000000000000000000000000000000000000000000000000000000000000602082015250565b6000614a5c60218361402e565b9150614a6782614a00565b604082019050919050565b60006020820190508181036000830152614a8b81614a4f565b9050919050565b6000606082019050614aa76000830186614014565b614ab46020830185614014565b614ac16040830184613fea565b949350505050565b6000614ad482613c24565b9150614adf83613c24565b9250828203905081811115614af757614af661445c565b5b92915050565b6000604082019050614b126000830185614014565b614b1f6020830184613fea565b9392505050565b7f4e487b7100000000000000000000000000000000000000000000000000000000600052603260045260246000fd5b600081519050614b6481613c2e565b92915050565b60008060408385031215614b8157614b80613c1a565b5b6000614b8f85828601614b55565b9250506020614ba085828601614b55565b9150509250929050565b60008160011c9050919050565b6000808291508390505b6001851115614c0157808604811115614bdd57614bdc61445c565b5b6001851615614bec5780820291505b8081029050614bfa85614baa565b9450614bc1565b94509492505050565b600082614c1a5760019050614cd6565b81614c285760009050614cd6565b8160018114614c3e5760028114614c4857614c77565b6001915050614cd6565b60ff841115614c5a57614c5961445c565b5b8360020a915084821115614c7157614c7061445c565b5b50614cd6565b5060208310610133831016604e8410600b8410161715614cac5782820a905083811115614ca757614ca661445c565b5b614cd6565b614cb98484846001614bb7565b92509050818404811115614cd057614ccf61445c565b5b81810290505b9392505050565b6000614ce882613c24565b9150614cf383613e58565b9250614d207fffffffffffffffffffffffffffffffffffffffffffffffffffffffffffffffff8484614c0a565b905092915050565b7f4e487b7100000000000000000000000000000000000000000000000000000000600052601260045260246000fd5b6000614d6282613c24565b9150614d6d83613c24565b925082614d7d57614d7c614d28565b5b828204905092915050565b6000614d9382613c24565b91507fffffffffffffffffffffffffffffffffffffffffffffffffffffffffffffffff8203614dc557614dc461445c565b5b600182019050919050565b7f506f7274666f6c696f20616c7265616479206578697374730000000000000000600082015250565b6000614e0660188361402e565b9150614e1182614dd0565b602082019050919050565b60006020820190508181036000830152614e3581614df9565b9050919050565b7f43616c6c6572206d7573742062652074686520636f6e7472616374206f776e6560008201527f7221000000000000000000000000000000000000000000000000000000000000602082015250565b6000614e9860228361402e565b9150614ea382614e3c565b604082019050919050565b60006020820190508181036000830152614ec781614e8b565b9050919050565b7f4173736574206973206e6f7420617661696c61626c6521000000000000000000600082015250565b6000614f0460178361402e565b9150614f0f82614ece565b602082019050919050565b60006020820190508181036000830152614f3381614ef7565b9050919050565b7f43616c6c206d7573742062652074686520706f7274666f6c696f206f776e657260008201527f2100000000000000000000000000000000000000000000000000000000000000602082015250565b6000614f9660218361402e565b9150614fa182614f3a565b604082019050919050565b60006020820190508181036000830152614fc581614f89565b9050919050565b7f417373657420616c726561647920657869737473210000000000000000000000600082015250565b600061500260158361402e565b915061500d82614fcc565b602082019050919050565b6000602082019050818103600083015261503181614ff5565b9050919050565b7f506f7274666f6c696f20646f65736e2774206578697374732100000000000000600082015250565b600061506e60198361402e565b915061507982615038565b602082019050919050565b6000602082019050818103600083015261509d81615061565b9050919050565b7f4d696e2e20706c6174666f726d436f6d6d697373696f6e2068617320746f206260008201527f6520706169642100000000000000000000000000000000000000000000000000602082015250565b600061510060278361402e565b915061510b826150a4565b604082019050919050565b6000602082019050818103600083015261512f816150f3565b905091905056fea2646970667358221220e6769d1fd01f492e3342b4a23f2d52c9c0b1eb5f9f67f3350f9b7f56a2afa6a064736f6c63430008100033",
  "immutableReferences": {},
  "source": "pragma solidity ^0.8.16;\n\nimport \"./Oracle.sol\";\nimport \"./Treasury.sol\";\nimport \"./Reserve.sol\";\n\ncontract Portfolium {\n    enum AssetTypes {\n        Native,\n        ERC20,\n        Mirrored\n    }\n\n    enum PortfolioInteractions {\n        None,\n        Like,\n        Dislike\n    }\n\n    struct AssetAllocation {\n        address assetAddress;\n        uint256 perShareAmount;\n    }\n\n    struct Asset {\n        address assetAddress;\n        string name;\n        string symbol;\n        uint8 decimals;\n        AssetTypes assetType;\n    }\n\n    struct Portfolio {\n        address owner;\n        string name;\n        string symbol;\n        uint16 assetCount;\n        uint256 totalSupply;\n        uint64 likes;\n        uint64 dislikes;\n        uint256 commission;\n    }\n\n    address public ownerAddress;\n    uint256 public platformCommission;\n\n    uint64 public availableAssetCount;\n    mapping(address => Asset) public availableAssets;\n    mapping(address => bool) public availableAssetAddresses;\n\n    mapping(address => Portfolio) public portfolios;\n    mapping(address => mapping(address => bool)) public portfolioAssets;\n    mapping(address => address[]) public portfolioAssetAddresses;\n    mapping(address => mapping(address => AssetAllocation)) portfolioAssetAllocations;\n    mapping(address => mapping(address => uint256)) public portfolioBalanceOf;\n    mapping(address => mapping(address => PortfolioInteractions)) portfolioInteractions;\n\n    Treasury public treasury;\n    Reserve public reserve;\n    Oracle public oracle;\n\n    constructor(\n        Oracle _oracle,\n        Treasury _treasury,\n        Reserve _reserve,\n        uint256 _platformCommission,\n        string memory _nativeName,\n        string memory _nativeSymbol,\n        uint8 _nativeDecimals\n    ) {\n        ownerAddress = msg.sender;\n        oracle = _oracle;\n        treasury = _treasury;\n        reserve = _reserve;\n        platformCommission = _platformCommission;\n        availableAssetAddresses[address(1)] = true;\n        availableAssets[address(1)] = Asset(\n            address(1),\n            _nativeName,\n            _nativeSymbol,\n            _nativeDecimals,\n            AssetTypes.Native\n        );\n        availableAssetCount = 1;\n    }\n\n    // ---------- EVENTS ----------\n\n    // ---------- MODIFIERS ----------\n\n    function _mustPayPlatformCommission() private view {\n        require(\n            msg.value >= platformCommission,\n            \"Min. platformCommission has to be paid!\"\n        );\n    }\n\n    modifier mustPayPlatformCommission() {\n        _mustPayPlatformCommission();\n        _;\n    }\n\n    function _mustBeNewAsset(address _assetAddress) private view {\n        require(\n            !availableAssetAddresses[_assetAddress],\n            \"Asset already exists!\"\n        );\n    }\n\n    modifier mustBeNewAsset(address _assetAddress) {\n        _mustBeNewAsset(_assetAddress);\n        _;\n    }\n\n    function _mustBeAvailableAsset(address _assetAddress) private view {\n        require(\n            availableAssetAddresses[_assetAddress],\n            \"Asset is not available!\"\n        );\n    }\n\n    modifier mustBeAvailableAsset(address _assetAddress) {\n        _mustBeAvailableAsset(_assetAddress);\n        _;\n    }\n\n    function _mustBeExistingPortfolio(address _portfolioAddress) private view {\n        require(\n            portfolios[_portfolioAddress].assetCount > 0,\n            \"Portfolio doesn't exists!\"\n        );\n    }\n\n    modifier mustBeExistingPortfolio(address _portfolioAddress) {\n        _mustBeExistingPortfolio(_portfolioAddress);\n        _;\n    }\n\n    function _onlyOwner() private view {\n        require(\n            msg.sender == ownerAddress,\n            \"Caller must be the contract owner!\"\n        );\n    }\n\n    modifier onlyOwner() {\n        _onlyOwner();\n        _;\n    }\n\n    function _onlyPortfolioOwner() private view {\n        require(\n            portfolios[msg.sender].owner == msg.sender,\n            \"Call must be the portfolio owner!\"\n        );\n    }\n\n    modifier onlyPortfolioOwner() {\n        _onlyPortfolioOwner();\n        _;\n    }\n\n    // ---------- CONTRACT MANAGEMENT ----------\n\n    function updatePlatformCommission(uint256 _platformCommission)\n        external\n        onlyOwner\n    {\n        platformCommission = _platformCommission;\n    }\n\n    function addSupportedERC20Asset(\n        address _assetAddress,\n        string memory _name,\n        string memory _symbol,\n        uint8 _decimals\n    ) external onlyOwner mustBeNewAsset(_assetAddress) {\n        require(_decimals <= 18, \"Max number of decimals is 18!\");\n\n        Asset memory asset = Asset(\n            _assetAddress,\n            _name,\n            _symbol,\n            _decimals,\n            AssetTypes.ERC20\n        );\n        availableAssetAddresses[_assetAddress] = true;\n        availableAssets[_assetAddress] = asset;\n        availableAssetCount++;\n    }\n\n    function addSupportedMirroredAsset(\n        address _assetAddress,\n        string memory _name,\n        string memory _symbol,\n        uint8 _decimals\n    ) external onlyOwner mustBeNewAsset(_assetAddress) {\n        require(_decimals <= 18, \"Max number of decimals is 18!\");\n\n        Asset memory asset = Asset(\n            _assetAddress,\n            _name,\n            _symbol,\n            _decimals,\n            AssetTypes.Mirrored\n        );\n        availableAssetAddresses[_assetAddress] = true;\n        availableAssets[_assetAddress] = asset;\n        availableAssetCount++;\n    }\n\n    function removeSupportedAsset(address _assetAddress) external onlyOwner {\n        availableAssetAddresses[_assetAddress] = false;\n        availableAssetCount--;\n    }\n\n    // ---------- PORTFOLIO MANAGEMENT ----------\n\n    function createPortfolio(\n        string memory _name,\n        string memory _symbol,\n        uint256 _initCommission\n    ) external payable mustPayPlatformCommission {\n        require(\n            portfolios[msg.sender].assetCount == 0,\n            \"Portfolio already exists\"\n        );\n\n        Portfolio memory portfolio = Portfolio({\n            name: _name,\n            symbol: _symbol,\n            assetCount: 1,\n            totalSupply: 0,\n            likes: 0,\n            dislikes: 0,\n            commission: _initCommission,\n            owner: msg.sender\n        });\n        portfolios[msg.sender] = portfolio;\n        portfolioAssets[msg.sender][address(1)] = true;\n        portfolioAssetAddresses[msg.sender].push(address(1));\n    }\n\n    function addAsset(address _assetAddress)\n        external\n        mustBeAvailableAsset(_assetAddress)\n        onlyPortfolioOwner\n    {\n        {\n            require(\n                !portfolioAssets[msg.sender][_assetAddress],\n                \"Asset already added to this portfolio!\"\n            );\n        }\n        portfolioAssets[msg.sender][_assetAddress] = true;\n        portfolios[msg.sender].assetCount++;\n        portfolioAssetAddresses[msg.sender].push(_assetAddress);\n        portfolioAssetAllocations[msg.sender][_assetAddress] = AssetAllocation(\n            _assetAddress,\n            0\n        );\n    }\n\n    function updateAllocation(address _assetAddress, uint256 _perShareAmount)\n        external\n        onlyPortfolioOwner\n    {\n        {\n            require(\n                portfolioAssets[msg.sender][_assetAddress],\n                \"Asset must be added to portfolio!\"\n            );\n        }\n        uint256 totalSupply = portfolios[msg.sender].totalSupply;\n        uint256 prevAmount = portfolioAssetAllocations[msg.sender][\n            _assetAddress\n        ].perShareAmount;\n        uint256 diff = _absDiff(prevAmount, _perShareAmount);\n        portfolioAssetAllocations[msg.sender][_assetAddress]\n            .perShareAmount = _perShareAmount;\n\n        if (totalSupply > 0) {\n            if (prevAmount > _perShareAmount) {\n                treasury.sellAsset(\n                    msg.sender,\n                    _assetAddress,\n                    diff * totalSupply\n                );\n            } else if (prevAmount < _perShareAmount) {\n                treasury.buyAsset(\n                    msg.sender,\n                    _assetAddress,\n                    diff * totalSupply\n                );\n            }\n        }\n    }\n\n    // ---------- PORTFOLIO INTERACTIONS ----------\n\n    function likePortfolio(address _portfolioAddress) external {\n        PortfolioInteractions currentPortfolioInteraction = portfolioInteractions[\n                _portfolioAddress\n            ][msg.sender];\n\n        require(\n            currentPortfolioInteraction == PortfolioInteractions.None ||\n                currentPortfolioInteraction == PortfolioInteractions.Dislike,\n            \"\"\n        );\n\n        portfolios[_portfolioAddress].likes++;\n        if (currentPortfolioInteraction == PortfolioInteractions.Dislike) {\n            portfolios[_portfolioAddress].dislikes--;\n        }\n        portfolioInteractions[_portfolioAddress][\n            msg.sender\n        ] = PortfolioInteractions.Like;\n    }\n\n    function dislikePortfolio(address _portfolioAddress) external {\n        PortfolioInteractions currentPortfolioInteraction = portfolioInteractions[\n                _portfolioAddress\n            ][msg.sender];\n\n        require(\n            currentPortfolioInteraction == PortfolioInteractions.None ||\n                currentPortfolioInteraction == PortfolioInteractions.Like,\n            \"\"\n        );\n\n        portfolios[_portfolioAddress].dislikes++;\n        if (currentPortfolioInteraction == PortfolioInteractions.Like) {\n            portfolios[_portfolioAddress].likes--;\n        }\n        portfolioInteractions[_portfolioAddress][\n            msg.sender\n        ] = PortfolioInteractions.Dislike;\n    }\n\n    function resetPortfolioInteraction(address _portfolioAddress) external {\n        PortfolioInteractions currentPortfolioInteraction = portfolioInteractions[\n                _portfolioAddress\n            ][msg.sender];\n        require(\n            currentPortfolioInteraction == PortfolioInteractions.Dislike ||\n                currentPortfolioInteraction == PortfolioInteractions.Like,\n            \"\"\n        );\n        if (currentPortfolioInteraction == PortfolioInteractions.Like) {\n            portfolios[_portfolioAddress].likes--;\n        } else if (\n            currentPortfolioInteraction == PortfolioInteractions.Dislike\n        ) {\n            portfolios[_portfolioAddress].dislikes--;\n        }\n\n        portfolioInteractions[_portfolioAddress][\n            msg.sender\n        ] = PortfolioInteractions.None;\n    }\n\n    // ---------- TRADING ----------\n\n    function buyShares(address _portfolioAddress, uint256 _amount)\n        external\n        payable\n        mustBeExistingPortfolio(_portfolioAddress)\n    {\n        uint256 price = getSharePrice(_portfolioAddress);\n        uint256 cost = (price * _amount) + platformCommission;\n        {\n            require(\n                cost <= msg.value,\n                \"Cost of shares is exceeds transferred amount!\"\n            );\n        }\n        portfolios[_portfolioAddress].totalSupply += _amount;\n        portfolioBalanceOf[_portfolioAddress][msg.sender] += _amount;\n        reserve.deposit{value: platformCommission}();\n        _buyAssets(_portfolioAddress, _amount);\n    }\n\n    function sellShares(address _portfolioAddress, uint256 _amount)\n        external\n        payable\n        mustPayPlatformCommission\n        mustBeExistingPortfolio(_portfolioAddress)\n        returns (uint256)\n    {\n        uint256 price = getSharePrice(_portfolioAddress);\n        uint256 received = (price * _amount);\n        portfolios[_portfolioAddress].totalSupply -= _amount;\n        portfolioBalanceOf[_portfolioAddress][msg.sender] -= _amount;\n\n        reserve.deposit{value: platformCommission}();\n        _sellAssets(_portfolioAddress, _amount);\n        treasury.withdraw(msg.sender, received);\n\n        return received;\n    }\n\n    // ---------- GETTERS ----------\n\n    function getPortfolioValue(address _portfolioAddress)\n        public\n        view\n        returns (uint256)\n    {\n        uint256 totalSupply = portfolios[_portfolioAddress].totalSupply;\n        uint256 price = getSharePrice(_portfolioAddress);\n        return price * totalSupply;\n    }\n\n    function getSharePrice(address _portfolioAddress)\n        public\n        view\n        returns (uint256)\n    {\n        uint16 selectedPortfolioAssetCount = portfolios[_portfolioAddress]\n            .assetCount;\n        address[]\n            memory selectedPortfolioAssetAddresses = portfolioAssetAddresses[\n                _portfolioAddress\n            ];\n        uint256 sharePrice = 0;\n\n        for (uint256 i = 0; i < selectedPortfolioAssetCount; i++) {\n            Asset memory asset = availableAssets[\n                selectedPortfolioAssetAddresses[i]\n            ];\n            (uint256 assetPrice, ) = oracle.getPrice(asset.assetAddress);\n            uint256 perShareAmount = portfolioAssetAllocations[\n                _portfolioAddress\n            ][asset.assetAddress].perShareAmount;\n            // TODO: Test scaling with 10+ decimal assets\n            uint256 price = (perShareAmount * assetPrice) /\n                (10**asset.decimals);\n            sharePrice += price;\n        }\n        return sharePrice;\n    }\n\n    // ---------- HELPERS ----------\n\n    function _buyAssets(address _portfolioAddress, uint256 _amount) internal {\n        uint16 selectedPortfolioAssetCount = portfolios[_portfolioAddress]\n            .assetCount;\n        address[]\n            memory selectedPortfolioAssetAddresses = portfolioAssetAddresses[\n                _portfolioAddress\n            ];\n        for (uint256 i = 0; i < selectedPortfolioAssetCount; i++) {\n            Asset memory asset = availableAssets[\n                selectedPortfolioAssetAddresses[i]\n            ];\n            uint256 perShareAmount = portfolioAssetAllocations[\n                _portfolioAddress\n            ][asset.assetAddress].perShareAmount;\n            if (perShareAmount > 0) {\n                (uint256 price, ) = oracle.getPrice(asset.assetAddress);\n                uint256 amountToBuy = perShareAmount * _amount;\n                // TODO: Test scaling with 10+ decimal assets\n                uint256 cost = (amountToBuy * price) / (10**asset.decimals);\n                treasury.buyAsset{value: cost}(\n                    _portfolioAddress,\n                    asset.assetAddress,\n                    amountToBuy\n                );\n            }\n        }\n    }\n\n    function _sellAssets(address _portfolioAddress, uint256 _amount) internal {\n        uint16 selectedPortfolioAssetCount = portfolios[_portfolioAddress]\n            .assetCount;\n        address[]\n            memory selectedPortfolioAssetAddresses = portfolioAssetAddresses[\n                _portfolioAddress\n            ];\n        for (uint256 i = 0; i < selectedPortfolioAssetCount; i++) {\n            Asset memory asset = availableAssets[\n                selectedPortfolioAssetAddresses[i]\n            ];\n            uint256 perShareAmount = portfolioAssetAllocations[\n                _portfolioAddress\n            ][asset.assetAddress].perShareAmount;\n            uint256 amountToSell = (_amount * perShareAmount);\n            if (amountToSell > 0) {\n                treasury.sellAsset(\n                    _portfolioAddress,\n                    asset.assetAddress,\n                    amountToSell\n                );\n            }\n        }\n    }\n\n    function _absDiff(uint256 a, uint256 b) internal pure returns (uint256) {\n        return a >= b ? a - b : b - a;\n    }\n}\n",
  "sourcePath": "/home/d4fttasiii/git/portfolium/src/fund-contract/contracts/Portfolium.sol",
  "compiler": {
    "name": "solc",
    "version": "0.8.16+commit.07a7930e.Emscripten.clang"
  },
  "schemaVersion": "3.4.9",
  "updatedAt": "2022-12-07T14:58:14.026Z",
  "devdoc": {
    "kind": "dev",
    "methods": {},
    "version": 1
  },
  "userdoc": {
    "kind": "user",
    "methods": {},
    "version": 1
  }
}