{
  "contractName": "PriceLimitedCron",
  "abi": [
    {
      "inputs": [
        {
          "internalType": "contract Fund",
          "name": "_fund",
          "type": "address"
        },
        {
          "internalType": "contract Reserve",
          "name": "_reserve",
          "type": "address"
        },
        {
          "internalType": "contract Oracle",
          "name": "_oracle",
          "type": "address"
        },
        {
          "internalType": "address",
          "name": "_uniswapRouterAddress",
          "type": "address"
        },
        {
          "internalType": "uint256",
          "name": "_commission",
          "type": "uint256"
        }
      ],
      "stateMutability": "nonpayable",
      "type": "constructor"
    },
    {
      "inputs": [],
      "name": "applicationAddress",
      "outputs": [
        {
          "internalType": "address",
          "name": "",
          "type": "address"
        }
      ],
      "stateMutability": "view",
      "type": "function"
    },
    {
      "inputs": [],
      "name": "commission",
      "outputs": [
        {
          "internalType": "uint256",
          "name": "",
          "type": "uint256"
        }
      ],
      "stateMutability": "view",
      "type": "function"
    },
    {
      "inputs": [],
      "name": "fund",
      "outputs": [
        {
          "internalType": "contract Fund",
          "name": "",
          "type": "address"
        }
      ],
      "stateMutability": "view",
      "type": "function"
    },
    {
      "inputs": [
        {
          "internalType": "address",
          "name": "",
          "type": "address"
        }
      ],
      "name": "jobNativeBalances",
      "outputs": [
        {
          "internalType": "uint256",
          "name": "",
          "type": "uint256"
        }
      ],
      "stateMutability": "view",
      "type": "function"
    },
    {
      "inputs": [
        {
          "internalType": "address",
          "name": "",
          "type": "address"
        },
        {
          "internalType": "address",
          "name": "",
          "type": "address"
        }
      ],
      "name": "jobTokenBalances",
      "outputs": [
        {
          "internalType": "uint256",
          "name": "",
          "type": "uint256"
        }
      ],
      "stateMutability": "view",
      "type": "function"
    },
    {
      "inputs": [
        {
          "internalType": "address",
          "name": "",
          "type": "address"
        }
      ],
      "name": "jobUserCount",
      "outputs": [
        {
          "internalType": "uint32",
          "name": "",
          "type": "uint32"
        }
      ],
      "stateMutability": "view",
      "type": "function"
    },
    {
      "inputs": [
        {
          "internalType": "address",
          "name": "",
          "type": "address"
        },
        {
          "internalType": "uint256",
          "name": "",
          "type": "uint256"
        }
      ],
      "name": "jobs",
      "outputs": [
        {
          "internalType": "address",
          "name": "ownerAddress",
          "type": "address"
        },
        {
          "internalType": "bool",
          "name": "isActive",
          "type": "bool"
        },
        {
          "internalType": "enum PriceLimitedCron.Mode",
          "name": "mode",
          "type": "uint8"
        },
        {
          "internalType": "enum PriceLimitedCron.ContractTypes",
          "name": "contractType",
          "type": "uint8"
        },
        {
          "internalType": "address",
          "name": "contractAddress",
          "type": "address"
        },
        {
          "internalType": "uint64",
          "name": "recurringInterval",
          "type": "uint64"
        },
        {
          "internalType": "uint256",
          "name": "amount",
          "type": "uint256"
        },
        {
          "internalType": "enum PriceLimitedCron.Operations",
          "name": "operation",
          "type": "uint8"
        },
        {
          "internalType": "uint256",
          "name": "createdAt",
          "type": "uint256"
        },
        {
          "internalType": "uint256",
          "name": "lastExecution",
          "type": "uint256"
        }
      ],
      "stateMutability": "view",
      "type": "function"
    },
    {
      "inputs": [],
      "name": "oracle",
      "outputs": [
        {
          "internalType": "contract Oracle",
          "name": "",
          "type": "address"
        }
      ],
      "stateMutability": "view",
      "type": "function"
    },
    {
      "inputs": [],
      "name": "ownerAddress",
      "outputs": [
        {
          "internalType": "address",
          "name": "",
          "type": "address"
        }
      ],
      "stateMutability": "view",
      "type": "function"
    },
    {
      "inputs": [],
      "name": "reserve",
      "outputs": [
        {
          "internalType": "contract Reserve",
          "name": "",
          "type": "address"
        }
      ],
      "stateMutability": "view",
      "type": "function"
    },
    {
      "inputs": [],
      "name": "uniswapRouter",
      "outputs": [
        {
          "internalType": "contract IUniswapV2Router02",
          "name": "",
          "type": "address"
        }
      ],
      "stateMutability": "view",
      "type": "function"
    },
    {
      "stateMutability": "payable",
      "type": "receive"
    },
    {
      "inputs": [
        {
          "internalType": "address",
          "name": "newApplicationAddress",
          "type": "address"
        }
      ],
      "name": "updateApplicationAddress",
      "outputs": [],
      "stateMutability": "nonpayable",
      "type": "function"
    },
    {
      "inputs": [
        {
          "internalType": "uint256",
          "name": "newCommission",
          "type": "uint256"
        }
      ],
      "name": "updateCommission",
      "outputs": [],
      "stateMutability": "nonpayable",
      "type": "function"
    },
    {
      "inputs": [],
      "name": "deposit",
      "outputs": [],
      "stateMutability": "payable",
      "type": "function"
    },
    {
      "inputs": [
        {
          "internalType": "address",
          "name": "_token",
          "type": "address"
        },
        {
          "internalType": "uint256",
          "name": "_amount",
          "type": "uint256"
        }
      ],
      "name": "depositToken",
      "outputs": [],
      "stateMutability": "payable",
      "type": "function"
    },
    {
      "inputs": [
        {
          "internalType": "uint256",
          "name": "_amount",
          "type": "uint256"
        }
      ],
      "name": "withdraw",
      "outputs": [],
      "stateMutability": "payable",
      "type": "function"
    },
    {
      "inputs": [
        {
          "internalType": "address",
          "name": "_token",
          "type": "address"
        },
        {
          "internalType": "uint256",
          "name": "_amount",
          "type": "uint256"
        }
      ],
      "name": "withdrawToken",
      "outputs": [],
      "stateMutability": "payable",
      "type": "function"
    },
    {
      "inputs": [
        {
          "internalType": "uint64",
          "name": "_recurringInterval",
          "type": "uint64"
        },
        {
          "internalType": "address",
          "name": "_contractAddress",
          "type": "address"
        },
        {
          "internalType": "uint256",
          "name": "_amount",
          "type": "uint256"
        }
      ],
      "name": "createRecurringMirroredBuyJob",
      "outputs": [],
      "stateMutability": "payable",
      "type": "function"
    },
    {
      "inputs": [
        {
          "internalType": "uint64",
          "name": "_recurringInterval",
          "type": "uint64"
        },
        {
          "internalType": "address",
          "name": "_contractAddress",
          "type": "address"
        },
        {
          "internalType": "uint256",
          "name": "_amount",
          "type": "uint256"
        }
      ],
      "name": "createRecurringMirroredSellJob",
      "outputs": [],
      "stateMutability": "payable",
      "type": "function"
    },
    {
      "inputs": [
        {
          "internalType": "uint64",
          "name": "_recurringInterval",
          "type": "uint64"
        },
        {
          "internalType": "address",
          "name": "_contractAddress",
          "type": "address"
        },
        {
          "internalType": "uint256",
          "name": "_amount",
          "type": "uint256"
        }
      ],
      "name": "createRecurringErc20BuyJob",
      "outputs": [],
      "stateMutability": "payable",
      "type": "function"
    },
    {
      "inputs": [
        {
          "internalType": "uint64",
          "name": "_recurringInterval",
          "type": "uint64"
        },
        {
          "internalType": "address",
          "name": "_contractAddress",
          "type": "address"
        },
        {
          "internalType": "uint256",
          "name": "_amount",
          "type": "uint256"
        }
      ],
      "name": "createRecurringErc20SellJob",
      "outputs": [],
      "stateMutability": "payable",
      "type": "function"
    },
    {
      "inputs": [
        {
          "internalType": "uint64",
          "name": "_recurringInterval",
          "type": "uint64"
        },
        {
          "internalType": "address",
          "name": "_contractAddress",
          "type": "address"
        },
        {
          "internalType": "uint256",
          "name": "_amount",
          "type": "uint256"
        }
      ],
      "name": "createRecurringPortfolioBuyJob",
      "outputs": [],
      "stateMutability": "payable",
      "type": "function"
    },
    {
      "inputs": [
        {
          "internalType": "uint64",
          "name": "_recurringInterval",
          "type": "uint64"
        },
        {
          "internalType": "address",
          "name": "_contractAddress",
          "type": "address"
        },
        {
          "internalType": "uint256",
          "name": "_amount",
          "type": "uint256"
        }
      ],
      "name": "createRecurringPortfolioSellJob",
      "outputs": [],
      "stateMutability": "payable",
      "type": "function"
    },
    {
      "inputs": [
        {
          "internalType": "uint64",
          "name": "_recurringInterval",
          "type": "uint64"
        },
        {
          "internalType": "address",
          "name": "_contractAddress",
          "type": "address"
        },
        {
          "internalType": "uint256",
          "name": "_priceLimit",
          "type": "uint256"
        }
      ],
      "name": "createRecurringMirroredPriceLimitedBuyJob",
      "outputs": [],
      "stateMutability": "payable",
      "type": "function"
    },
    {
      "inputs": [
        {
          "internalType": "uint64",
          "name": "_recurringInterval",
          "type": "uint64"
        },
        {
          "internalType": "address",
          "name": "_contractAddress",
          "type": "address"
        },
        {
          "internalType": "uint256",
          "name": "_priceLimit",
          "type": "uint256"
        }
      ],
      "name": "createRecurringMirroredPriceLimitedSellJob",
      "outputs": [],
      "stateMutability": "payable",
      "type": "function"
    },
    {
      "inputs": [
        {
          "internalType": "uint64",
          "name": "_recurringInterval",
          "type": "uint64"
        },
        {
          "internalType": "address",
          "name": "_contractAddress",
          "type": "address"
        },
        {
          "internalType": "uint256",
          "name": "_priceLimit",
          "type": "uint256"
        }
      ],
      "name": "createRecurringErc20PriceLimitedBuyJob",
      "outputs": [],
      "stateMutability": "payable",
      "type": "function"
    },
    {
      "inputs": [
        {
          "internalType": "uint64",
          "name": "_recurringInterval",
          "type": "uint64"
        },
        {
          "internalType": "address",
          "name": "_contractAddress",
          "type": "address"
        },
        {
          "internalType": "uint256",
          "name": "_priceLimit",
          "type": "uint256"
        }
      ],
      "name": "createRecurringErc20PriceLimitedSellJob",
      "outputs": [],
      "stateMutability": "payable",
      "type": "function"
    },
    {
      "inputs": [
        {
          "internalType": "uint64",
          "name": "_recurringInterval",
          "type": "uint64"
        },
        {
          "internalType": "address",
          "name": "_contractAddress",
          "type": "address"
        },
        {
          "internalType": "uint256",
          "name": "_priceLimit",
          "type": "uint256"
        }
      ],
      "name": "createRecurringPortfolioPriceLimitedBuyJob",
      "outputs": [],
      "stateMutability": "payable",
      "type": "function"
    },
    {
      "inputs": [
        {
          "internalType": "uint64",
          "name": "_recurringInterval",
          "type": "uint64"
        },
        {
          "internalType": "address",
          "name": "_contractAddress",
          "type": "address"
        },
        {
          "internalType": "uint256",
          "name": "_priceLimit",
          "type": "uint256"
        }
      ],
      "name": "createRecurringPortfolioPriceLimitedSellJob",
      "outputs": [],
      "stateMutability": "payable",
      "type": "function"
    },
    {
      "inputs": [
        {
          "internalType": "uint32",
          "name": "jobIndex",
          "type": "uint32"
        }
      ],
      "name": "toggleJobActiveState",
      "outputs": [],
      "stateMutability": "nonpayable",
      "type": "function"
    },
    {
      "inputs": [
        {
          "internalType": "address",
          "name": "_jobUserAddress",
          "type": "address"
        },
        {
          "internalType": "uint32",
          "name": "_jobIndex",
          "type": "uint32"
        }
      ],
      "name": "executeJob",
      "outputs": [],
      "stateMutability": "nonpayable",
      "type": "function"
    }
  ],
  "bytecode": "0x60806040523480156200001157600080fd5b5060405162004e8038038062004e80833981810160405281019062000037919062000315565b336000806101000a81548173ffffffffffffffffffffffffffffffffffffffff021916908373ffffffffffffffffffffffffffffffffffffffff16021790555084600360006101000a81548173ffffffffffffffffffffffffffffffffffffffff021916908373ffffffffffffffffffffffffffffffffffffffff16021790555083600460006101000a81548173ffffffffffffffffffffffffffffffffffffffff021916908373ffffffffffffffffffffffffffffffffffffffff16021790555082600560006101000a81548173ffffffffffffffffffffffffffffffffffffffff021916908373ffffffffffffffffffffffffffffffffffffffff16021790555081600660006101000a81548173ffffffffffffffffffffffffffffffffffffffff021916908373ffffffffffffffffffffffffffffffffffffffff1602179055508060028190555050505050506200039d565b600080fd5b600073ffffffffffffffffffffffffffffffffffffffff82169050919050565b6000620001bf8262000192565b9050919050565b6000620001d382620001b2565b9050919050565b620001e581620001c6565b8114620001f157600080fd5b50565b6000815190506200020581620001da565b92915050565b6000620002188262000192565b9050919050565b60006200022c826200020b565b9050919050565b6200023e816200021f565b81146200024a57600080fd5b50565b6000815190506200025e8162000233565b92915050565b600062000271826200020b565b9050919050565b620002838162000264565b81146200028f57600080fd5b50565b600081519050620002a38162000278565b92915050565b620002b4816200020b565b8114620002c057600080fd5b50565b600081519050620002d481620002a9565b92915050565b6000819050919050565b620002ef81620002da565b8114620002fb57600080fd5b50565b6000815190506200030f81620002e4565b92915050565b600080600080600060a086880312156200033457620003336200018d565b5b60006200034488828901620001f4565b955050602062000357888289016200024d565b94505060406200036a8882890162000292565b93505060606200037d88828901620002c3565b92505060806200039088828901620002fe565b9150509295509295909350565b614ad380620003ad6000396000f3fe6080604052600436106101dc5760003560e01c80638f84aa0911610102578063cd3293de11610095578063e6c4fb9e11610064578063e6c4fb9e146105f4578063fbe109b314610610578063fc14baf41461062c578063ff019d9314610648576101e3565b8063cd3293de14610578578063d0e30db0146105a3578063d9230dda146105ad578063e1489191146105c9576101e3565b8063a3ca0037116100d1578063a3ca0037146104ec578063b60d428814610515578063b970781e14610540578063c704b3e81461055c576101e3565b80638f84aa091461046057806392aac9df1461048b5780639d55fba7146104a75780639e281a98146104d0576101e3565b80636f82f8fd1161017a57806381055c9d1161014957806381055c9d1461039f5780638bed9d18146103bb5780638c9ecbf8146103e65780638f0cbe4514610423576101e3565b80636f82f8fd146102e7578063735de9f71461032d5780637c547652146103585780637dc0d1d014610374576101e3565b80632e1a7d4d116101b65780632e1a7d4d146102775780632fc727d014610293578063338b5dea146102af5780634a6c5ebb146102cb576101e3565b80630757249f146101e85780630bc5b896146102115780632786e4021461024e576101e3565b366101e357005b600080fd5b3480156101f457600080fd5b5061020f600480360381019061020a9190613660565b610664565b005b34801561021d57600080fd5b50610238600480360381019061023391906136a0565b610b94565b60405161024591906136f9565b60405180910390f35b34801561025a57600080fd5b5061027560048036038101906102709190613714565b610bb9565b005b610291600480360381019061028c919061376d565b610c05565b005b6102ad60048036038101906102a891906137da565b610d2d565b005b6102c960048036038101906102c4919061382d565b610d56565b005b6102e560048036038101906102e091906137da565b610eb2565b005b3480156102f357600080fd5b5061030e6004803603810190610309919061382d565b610eda565b6040516103249a999897969594939291906139ad565b60405180910390f35b34801561033957600080fd5b50610342610fd3565b60405161034f9190613aa8565b60405180910390f35b610372600480360381019061036d91906137da565b610ff9565b005b34801561038057600080fd5b50610389611022565b6040516103969190613ae4565b60405180910390f35b6103b960048036038101906103b491906137da565b611048565b005b3480156103c757600080fd5b506103d0611071565b6040516103dd9190613aff565b60405180910390f35b3480156103f257600080fd5b5061040d60048036038101906104089190613714565b611097565b60405161041a9190613b29565b60405180910390f35b34801561042f57600080fd5b5061044a60048036038101906104459190613714565b6110ba565b60405161045791906136f9565b60405180910390f35b34801561046c57600080fd5b506104756110d2565b6040516104829190613aff565b60405180910390f35b6104a560048036038101906104a091906137da565b6110f6565b005b3480156104b357600080fd5b506104ce60048036038101906104c9919061376d565b61111e565b005b6104ea60048036038101906104e5919061382d565b611130565b005b3480156104f857600080fd5b50610513600480360381019061050e9190613b44565b61130b565b005b34801561052157600080fd5b5061052a611619565b6040516105379190613ba4565b60405180910390f35b61055a600480360381019061055591906137da565b61163f565b005b610576600480360381019061057191906137da565b611667565b005b34801561058457600080fd5b5061058d61168f565b60405161059a9190613be0565b60405180910390f35b6105ab6116b5565b005b6105c760048036038101906105c291906137da565b61170d565b005b3480156105d557600080fd5b506105de611735565b6040516105eb91906136f9565b60405180910390f35b61060e600480360381019061060991906137da565b61173b565b005b61062a600480360381019061062591906137da565b611763565b005b610646600480360381019061064191906137da565b61178b565b005b610662600480360381019061065d91906137da565b6117b3565b005b61066c6117dc565b6000600a60008473ffffffffffffffffffffffffffffffffffffffff1673ffffffffffffffffffffffffffffffffffffffff1681526020019081526020016000208263ffffffff16815481106106c5576106c4613bfb565b5b9060005260206000209060060201604051806101400160405290816000820160009054906101000a900473ffffffffffffffffffffffffffffffffffffffff1673ffffffffffffffffffffffffffffffffffffffff1673ffffffffffffffffffffffffffffffffffffffff1681526020016000820160149054906101000a900460ff161515151581526020016000820160159054906101000a900460ff16600181111561077557610774613897565b5b600181111561078757610786613897565b5b81526020016000820160169054906101000a900460ff1660028111156107b0576107af613897565b5b60028111156107c2576107c1613897565b5b81526020016001820160009054906101000a900473ffffffffffffffffffffffffffffffffffffffff1673ffffffffffffffffffffffffffffffffffffffff1673ffffffffffffffffffffffffffffffffffffffff1681526020016001820160149054906101000a900467ffffffffffffffff1667ffffffffffffffff1667ffffffffffffffff168152602001600282015481526020016003820160009054906101000a900460ff16600181111561087d5761087c613897565b5b600181111561088f5761088e613897565b5b815260200160048201548152602001600582015481525050905080602001516108ed576040517f08c379a00000000000000000000000000000000000000000000000000000000081526004016108e490613c87565b60405180910390fd5b428160a0015167ffffffffffffffff1682610120015161090d9190613cd6565b111561094e576040517f08c379a000000000000000000000000000000000000000000000000000000000815260040161094590613d56565b60405180910390fd5b6000600181111561096257610961613897565b5b8160400151600181111561097957610978613897565b5b03610a3a576001600281111561099257610991613897565b5b816060015160028111156109a9576109a8613897565b5b036109bc576109b78161186e565b610a35565b6002808111156109cf576109ce613897565b5b816060015160028111156109e6576109e5613897565b5b036109f9576109f481611bad565b610a34565b60006002811115610a0d57610a0c613897565b5b81606001516002811115610a2457610a23613897565b5b03610a3357610a3281611fad565b5b5b5b610b22565b600180811115610a4d57610a4c613897565b5b81604001516001811115610a6457610a63613897565b5b03610b215760016002811115610a7d57610a7c613897565b5b81606001516002811115610a9457610a93613897565b5b03610aa757610aa281612399565b610b20565b600280811115610aba57610ab9613897565b5b81606001516002811115610ad157610ad0613897565b5b03610ae457610adf8161268a565b610b1f565b60006002811115610af857610af7613897565b5b81606001516002811115610b0f57610b0e613897565b5b03610b1e57610b1d81612777565b5b5b5b5b5b42600a60008573ffffffffffffffffffffffffffffffffffffffff1673ffffffffffffffffffffffffffffffffffffffff1681526020019081526020016000208363ffffffff1681548110610b7a57610b79613bfb565b5b906000526020600020906006020160050181905550505050565b6008602052816000526040600020602052806000526040600020600091509150505481565b610bc16128ee565b80600160006101000a81548173ffffffffffffffffffffffffffffffffffffffff021916908373ffffffffffffffffffffffffffffffffffffffff16021790555050565b6000600760003373ffffffffffffffffffffffffffffffffffffffff1673ffffffffffffffffffffffffffffffffffffffff16815260200190815260200160002054905081811015610c8c576040517f08c379a0000000000000000000000000000000000000000000000000000000008152600401610c8390613dc2565b60405180910390fd5b81600760003373ffffffffffffffffffffffffffffffffffffffff1673ffffffffffffffffffffffffffffffffffffffff1681526020019081526020016000206000828254610cdb9190613de2565b925050819055503373ffffffffffffffffffffffffffffffffffffffff166108fc839081150290604051600060405180830381858888f19350505050158015610d28573d6000803e3d6000fd5b505050565b610d3561297e565b82610d3f816129c5565b610d50846002600160008787612a2f565b50505050565b60008273ffffffffffffffffffffffffffffffffffffffff166323b872dd3330856040518463ffffffff1660e01b8152600401610d9593929190613e16565b6020604051808303816000875af1158015610db4573d6000803e3d6000fd5b505050506040513d601f19601f82011682018060405250810190610dd89190613e79565b905080610e1a576040517f08c379a0000000000000000000000000000000000000000000000000000000008152600401610e1190613ef2565b60405180910390fd5b81600860003373ffffffffffffffffffffffffffffffffffffffff1673ffffffffffffffffffffffffffffffffffffffff16815260200190815260200160002060008573ffffffffffffffffffffffffffffffffffffffff1673ffffffffffffffffffffffffffffffffffffffff1681526020019081526020016000206000828254610ea69190613cd6565b92505081905550505050565b610eba61297e565b82610ec4816129c5565b610ed48460008060018787612a2f565b50505050565b600a6020528160005260406000208181548110610ef657600080fd5b9060005260206000209060060201600091509150508060000160009054906101000a900473ffffffffffffffffffffffffffffffffffffffff16908060000160149054906101000a900460ff16908060000160159054906101000a900460ff16908060000160169054906101000a900460ff16908060010160009054906101000a900473ffffffffffffffffffffffffffffffffffffffff16908060010160149054906101000a900467ffffffffffffffff16908060020154908060030160009054906101000a900460ff1690806004015490806005015490508a565b600660009054906101000a900473ffffffffffffffffffffffffffffffffffffffff1681565b61100161297e565b8261100b816129c5565b61101c846002600060018787612a2f565b50505050565b600560009054906101000a900473ffffffffffffffffffffffffffffffffffffffff1681565b61105061297e565b8261105a816129c5565b61106b846001600060018787612a2f565b50505050565b600160009054906101000a900473ffffffffffffffffffffffffffffffffffffffff1681565b60096020528060005260406000206000915054906101000a900463ffffffff1681565b60076020528060005260406000206000915090505481565b60008054906101000a900473ffffffffffffffffffffffffffffffffffffffff1681565b6110fe61297e565b82611108816129c5565b6111188460026000808787612a2f565b50505050565b6111266128ee565b8060028190555050565b6000600860003373ffffffffffffffffffffffffffffffffffffffff1673ffffffffffffffffffffffffffffffffffffffff16815260200190815260200160002060008473ffffffffffffffffffffffffffffffffffffffff1673ffffffffffffffffffffffffffffffffffffffff168152602001908152602001600020549050818110156111f4576040517f08c379a00000000000000000000000000000000000000000000000000000000081526004016111eb90613f5e565b60405180910390fd5b81600860003373ffffffffffffffffffffffffffffffffffffffff1673ffffffffffffffffffffffffffffffffffffffff16815260200190815260200160002060008573ffffffffffffffffffffffffffffffffffffffff1673ffffffffffffffffffffffffffffffffffffffff16815260200190815260200160002060008282546112809190613de2565b925050819055508273ffffffffffffffffffffffffffffffffffffffff1663a9059cbb33846040518363ffffffff1660e01b81526004016112c2929190613f7e565b6020604051808303816000875af11580156112e1573d6000803e3d6000fd5b505050506040513d601f19601f820116820180604052508101906113059190613e79565b50505050565b6000600a60003373ffffffffffffffffffffffffffffffffffffffff1673ffffffffffffffffffffffffffffffffffffffff1681526020019081526020016000208263ffffffff168154811061136457611363613bfb565b5b9060005260206000209060060201604051806101400160405290816000820160009054906101000a900473ffffffffffffffffffffffffffffffffffffffff1673ffffffffffffffffffffffffffffffffffffffff1673ffffffffffffffffffffffffffffffffffffffff1681526020016000820160149054906101000a900460ff161515151581526020016000820160159054906101000a900460ff16600181111561141457611413613897565b5b600181111561142657611425613897565b5b81526020016000820160169054906101000a900460ff16600281111561144f5761144e613897565b5b600281111561146157611460613897565b5b81526020016001820160009054906101000a900473ffffffffffffffffffffffffffffffffffffffff1673ffffffffffffffffffffffffffffffffffffffff1673ffffffffffffffffffffffffffffffffffffffff1681526020016001820160149054906101000a900467ffffffffffffffff1667ffffffffffffffff1667ffffffffffffffff168152602001600282015481526020016003820160009054906101000a900460ff16600181111561151c5761151b613897565b5b600181111561152e5761152d613897565b5b8152602001600482015481526020016005820154815250509050600081610100015111611590576040517f08c379a000000000000000000000000000000000000000000000000000000000815260040161158790613ff3565b60405180910390fd5b806020015115600a60003373ffffffffffffffffffffffffffffffffffffffff1673ffffffffffffffffffffffffffffffffffffffff1681526020019081526020016000208363ffffffff16815481106115ed576115ec613bfb565b5b906000526020600020906006020160000160146101000a81548160ff0219169083151502179055505050565b600360009054906101000a900473ffffffffffffffffffffffffffffffffffffffff1681565b61164761297e565b82611651816129c5565b6116618460018060008787612a2f565b50505050565b61166f61297e565b82611679816129c5565b6116898460016000808787612a2f565b50505050565b600460009054906101000a900473ffffffffffffffffffffffffffffffffffffffff1681565b34600760003373ffffffffffffffffffffffffffffffffffffffff1673ffffffffffffffffffffffffffffffffffffffff16815260200190815260200160002060008282546117049190613cd6565b92505081905550565b61171561297e565b8261171f816129c5565b61172f8460006001808787612a2f565b50505050565b60025481565b61174361297e565b8261174d816129c5565b61175d8460018060018787612a2f565b50505050565b61176b61297e565b82611775816129c5565b6117858460008060008787612a2f565b50505050565b61179361297e565b8261179d816129c5565b6117ad8460026001808787612a2f565b50505050565b6117bb61297e565b826117c5816129c5565b6117d6846000600160008787612a2f565b50505050565b600160009054906101000a900473ffffffffffffffffffffffffffffffffffffffff1673ffffffffffffffffffffffffffffffffffffffff163373ffffffffffffffffffffffffffffffffffffffff161461186c576040517f08c379a00000000000000000000000000000000000000000000000000000000081526004016118639061405f565b60405180910390fd5b565b600060076000836000015173ffffffffffffffffffffffffffffffffffffffff1673ffffffffffffffffffffffffffffffffffffffff16815260200190815260200160002054905060006002549050600060018111156118d1576118d0613897565b5b8360e0015160018111156118e8576118e7613897565b5b03611a3d576000600560009054906101000a900473ffffffffffffffffffffffffffffffffffffffff1673ffffffffffffffffffffffffffffffffffffffff166341976e0985608001516040518263ffffffff1660e01b815260040161194e9190613aff565b6040805180830381865afa15801561196a573d6000803e3d6000fd5b505050506040513d601f19601f8201168201806040525081019061198e9190614094565b5090506000670de0b6b3a7640000838660c00151846119ad91906140d4565b6119b79190613cd6565b6119c19190613cd6565b905083811115611a06576040517f08c379a00000000000000000000000000000000000000000000000000000000081526004016119fd9061417a565b60405180910390fd5b6000611a1a86608001518760c00151612d68565b9050611a35866080015187600001518860c001518488612f0e565b505050611ba8565b600180811115611a5057611a4f613897565b5b8360e001516001811115611a6757611a66613897565b5b03611ba75781811115611aaf576040517f08c379a0000000000000000000000000000000000000000000000000000000008152600401611aa69061417a565b60405180910390fd5b600060086000856000015173ffffffffffffffffffffffffffffffffffffffff1673ffffffffffffffffffffffffffffffffffffffff1681526020019081526020016000206000856080015173ffffffffffffffffffffffffffffffffffffffff1673ffffffffffffffffffffffffffffffffffffffff1681526020019081526020016000205490508360c00151811015611b7f576040517f08c379a0000000000000000000000000000000000000000000000000000000008152600401611b7690613f5e565b60405180910390fd5b6000611b9385608001518660c00151613078565b9050611ba485600001518285613174565b50505b5b505050565b600060076000836000015173ffffffffffffffffffffffffffffffffffffffff1673ffffffffffffffffffffffffffffffffffffffff168152602001908152602001600020549050600060025490506000600360009054906101000a900473ffffffffffffffffffffffffffffffffffffffff1673ffffffffffffffffffffffffffffffffffffffff1663fcd802b16040518163ffffffff1660e01b8152600401608060405180830381865afa158015611c6b573d6000803e3d6000fd5b505050506040513d601f19601f82011682018060405250810190611c8f91906141d4565b509250505060006001811115611ca857611ca7613897565b5b8460e001516001811115611cbf57611cbe613897565b5b03611e72576000818560c00151600360009054906101000a900473ffffffffffffffffffffffffffffffffffffffff1673ffffffffffffffffffffffffffffffffffffffff16635b1dac606040518163ffffffff1660e01b8152600401602060405180830381865afa158015611d39573d6000803e3d6000fd5b505050506040513d601f19601f82011682018060405250810190611d5d919061423b565b611d6791906140d4565b611d719190613cd6565b9050838382611d809190613cd6565b1115611dc1576040517f08c379a0000000000000000000000000000000000000000000000000000000008152600401611db89061417a565b60405180910390fd5b600360009054906101000a900473ffffffffffffffffffffffffffffffffffffffff1673ffffffffffffffffffffffffffffffffffffffff1663d1a93d18828760c001516040518363ffffffff1660e01b8152600401611e2191906136f9565b6000604051808303818588803b158015611e3a57600080fd5b505af1158015611e4e573d6000803e3d6000fd5b5050505050611e6c856080015186600001518760c001518487612f0e565b50611fa7565b600180811115611e8557611e84613897565b5b8460e001516001811115611e9c57611e9b613897565b5b03611fa657828183611eae9190613cd6565b1115611eef576040517f08c379a0000000000000000000000000000000000000000000000000000000008152600401611ee69061417a565b60405180910390fd5b6000600360009054906101000a900473ffffffffffffffffffffffffffffffffffffffff1673ffffffffffffffffffffffffffffffffffffffff16634ba8ae818660c001516040518263ffffffff1660e01b8152600401611f5091906136f9565b6020604051808303816000875af1158015611f6f573d6000803e3d6000fd5b505050506040513d601f19601f82011682018060405250810190611f93919061423b565b9050611fa485600001518285613174565b505b5b50505050565b600081608001519050600060076000846000015173ffffffffffffffffffffffffffffffffffffffff1673ffffffffffffffffffffffffffffffffffffffff1681526020019081526020016000205490506000600254905060008373ffffffffffffffffffffffffffffffffffffffff1663e14891916040518163ffffffff1660e01b8152600401602060405180830381865afa158015612052573d6000803e3d6000fd5b505050506040513d601f19601f82011682018060405250810190612076919061423b565b90506000600560009054906101000a900473ffffffffffffffffffffffffffffffffffffffff1673ffffffffffffffffffffffffffffffffffffffff166341976e0987608001516040518263ffffffff1660e01b81526004016120d99190613aff565b6040805180830381865afa1580156120f5573d6000803e3d6000fd5b505050506040513d601f19601f820116820180604052508101906121199190614094565b509050600060018111156121305761212f613897565b5b8660e00151600181111561214757612146613897565b5b036122895760008660c001518261215e91906140d4565b90506000670de0b6b3a76400008486846121789190613cd6565b6121829190613cd6565b61218c9190613cd6565b9050858111156121d1576040517f08c379a00000000000000000000000000000000000000000000000000000000081526004016121c89061417a565b60405180910390fd5b8673ffffffffffffffffffffffffffffffffffffffff1663a0712d6885846121f99190613cd6565b8a60c001516040518363ffffffff1660e01b815260040161221a91906136f9565b60206040518083038185885af1158015612238573d6000803e3d6000fd5b50505050506040513d601f19601f8201168201806040525081019061225d919061423b565b50612282886080015189600001518a60c00151878661227c9190613cd6565b89612f0e565b5050612391565b60018081111561229c5761229b613897565b5b8660e0015160018111156122b3576122b2613897565b5b0361239057838311156122fb576040517f08c379a00000000000000000000000000000000000000000000000000000000081526004016122f29061417a565b60405180910390fd5b60008573ffffffffffffffffffffffffffffffffffffffff166342966c688860c001516040518263ffffffff1660e01b815260040161233a91906136f9565b6020604051808303816000875af1158015612359573d6000803e3d6000fd5b505050506040513d601f19601f8201168201806040525081019061237d919061423b565b905061238e87600001518286613174565b505b5b505050505050565b600060076000836000015173ffffffffffffffffffffffffffffffffffffffff1673ffffffffffffffffffffffffffffffffffffffff16815260200190815260200160002054905060006002549050600060018111156123fc576123fb613897565b5b8360e00151600181111561241357612412613897565b5b03612611576000600560009054906101000a900473ffffffffffffffffffffffffffffffffffffffff1673ffffffffffffffffffffffffffffffffffffffff166341976e0985608001516040518263ffffffff1660e01b81526004016124799190613aff565b6040805180830381865afa158015612495573d6000803e3d6000fd5b505050506040513d601f19601f820116820180604052508101906124b99190614094565b5090506000846080015173ffffffffffffffffffffffffffffffffffffffff1663313ce5676040518163ffffffff1660e01b8152600401602060405180830381865afa15801561250d573d6000803e3d6000fd5b505050506040513d601f19601f8201168201806040525081019061253191906142a1565b9050600081600a6125429190614401565b905060008182858960c00151612558919061447b565b612562919061447b565b61256c91906140d4565b90506000670de0b6b3a764000086838761258691906140d4565b6125909190613cd6565b61259a9190613cd6565b9050868111156125df576040517f08c379a00000000000000000000000000000000000000000000000000000000081526004016125d69061417a565b60405180910390fd5b60006125ef896080015184612d68565b905061260689608001518a6000015185848b612f0e565b505050505050612685565b60018081111561262457612623613897565b5b8360e00151600181111561263b5761263a613897565b5b036126845781811115612683576040517f08c379a000000000000000000000000000000000000000000000000000000000815260040161267a9061417a565b60405180910390fd5b5b5b505050565b600060076000836000015173ffffffffffffffffffffffffffffffffffffffff1673ffffffffffffffffffffffffffffffffffffffff168152602001908152602001600020549050600060025490506000600360009054906101000a900473ffffffffffffffffffffffffffffffffffffffff1673ffffffffffffffffffffffffffffffffffffffff1663fcd802b16040518163ffffffff1660e01b8152600401608060405180830381865afa158015612748573d6000803e3d6000fd5b505050506040513d601f19601f8201168201806040525081019061276c91906141d4565b509250505050505050565b600081608001519050600060076000846000015173ffffffffffffffffffffffffffffffffffffffff1673ffffffffffffffffffffffffffffffffffffffff1681526020019081526020016000205490506000600254905060008373ffffffffffffffffffffffffffffffffffffffff1663e14891916040518163ffffffff1660e01b8152600401602060405180830381865afa15801561281c573d6000803e3d6000fd5b505050506040513d601f19601f82011682018060405250810190612840919061423b565b90506000600560009054906101000a900473ffffffffffffffffffffffffffffffffffffffff1673ffffffffffffffffffffffffffffffffffffffff166341976e0987608001516040518263ffffffff1660e01b81526004016128a39190613aff565b6040805180830381865afa1580156128bf573d6000803e3d6000fd5b505050506040513d601f19601f820116820180604052508101906128e39190614094565b509050505050505050565b60008054906101000a900473ffffffffffffffffffffffffffffffffffffffff1673ffffffffffffffffffffffffffffffffffffffff163373ffffffffffffffffffffffffffffffffffffffff161461297c576040517f08c379a00000000000000000000000000000000000000000000000000000000081526004016129739061451e565b60405180910390fd5b565b6002543410156129c3576040517f08c379a00000000000000000000000000000000000000000000000000000000081526004016129ba9061458a565b60405180910390fd5b565b60058167ffffffffffffffff16101580156129ed5750620806888167ffffffffffffffff1611155b612a2c576040517f08c379a0000000000000000000000000000000000000000000000000000000008152600401612a239061461c565b60405180910390fd5b50565b60006040518061014001604052803373ffffffffffffffffffffffffffffffffffffffff168152602001600115158152602001856001811115612a7557612a74613897565b5b8152602001876002811115612a8d57612a8c613897565b5b81526020018473ffffffffffffffffffffffffffffffffffffffff1681526020018867ffffffffffffffff168152602001838152602001866001811115612ad757612ad6613897565b5b815260200142815260200160008152509050600960003373ffffffffffffffffffffffffffffffffffffffff1673ffffffffffffffffffffffffffffffffffffffff168152602001908152602001600020600081819054906101000a900463ffffffff1680929190612b489061463c565b91906101000a81548163ffffffff021916908363ffffffff16021790555050600a60003373ffffffffffffffffffffffffffffffffffffffff1673ffffffffffffffffffffffffffffffffffffffff16815260200190815260200160002081908060018154018082558091505060019003906000526020600020906006020160009091909190915060008201518160000160006101000a81548173ffffffffffffffffffffffffffffffffffffffff021916908373ffffffffffffffffffffffffffffffffffffffff16021790555060208201518160000160146101000a81548160ff02191690831515021790555060408201518160000160156101000a81548160ff02191690836001811115612c6257612c61613897565b5b021790555060608201518160000160166101000a81548160ff02191690836002811115612c9257612c91613897565b5b021790555060808201518160010160006101000a81548173ffffffffffffffffffffffffffffffffffffffff021916908373ffffffffffffffffffffffffffffffffffffffff16021790555060a08201518160010160146101000a81548167ffffffffffffffff021916908367ffffffffffffffff16021790555060c0820151816002015560e08201518160030160006101000a81548160ff02191690836001811115612d4257612d41613897565b5b021790555061010082015181600401556101208201518160050155505050505050505050565b600080601e42612d789190613cd6565b90506000600660009054906101000a900473ffffffffffffffffffffffffffffffffffffffff1673ffffffffffffffffffffffffffffffffffffffff1663fb3bdb4185612dc4886132a4565b30866040518563ffffffff1660e01b8152600401612de59493929190614726565b6000604051808303816000875af1158015612e04573d6000803e3d6000fd5b505050506040513d6000823e3d601f19601f82011682018060405250810190612e2d91906148cb565b905060003373ffffffffffffffffffffffffffffffffffffffff1647604051612e5590614945565b60006040518083038185875af1925050503d8060008114612e92576040519150601f19603f3d011682016040523d82523d6000602084013e612e97565b606091505b5050905080612edb576040517f08c379a0000000000000000000000000000000000000000000000000000000008152600401612ed2906149a6565b60405180910390fd5b8160018351612eea9190613de2565b81518110612efb57612efa613bfb565b5b6020026020010151935050505092915050565b600460009054906101000a900473ffffffffffffffffffffffffffffffffffffffff1673ffffffffffffffffffffffffffffffffffffffff1663d0e30db0826040518263ffffffff1660e01b81526004016000604051808303818588803b158015612f7857600080fd5b505af1158015612f8c573d6000803e3d6000fd5b50505050508181612f9d9190613cd6565b600760008673ffffffffffffffffffffffffffffffffffffffff1673ffffffffffffffffffffffffffffffffffffffff1681526020019081526020016000206000828254612feb9190613de2565b925050819055508473ffffffffffffffffffffffffffffffffffffffff1663a9059cbb85856040518363ffffffff1660e01b815260040161302d929190613f7e565b6020604051808303816000875af115801561304c573d6000803e3d6000fd5b505050506040513d601f19601f820116820180604052508101906130709190613e79565b505050505050565b600080601e426130889190613cd6565b90506000600660009054906101000a900473ffffffffffffffffffffffffffffffffffffffff1673ffffffffffffffffffffffffffffffffffffffff166318cbafe58560016130d68961342b565b30876040518663ffffffff1660e01b81526004016130f8959493929190614a01565b6000604051808303816000875af1158015613117573d6000803e3d6000fd5b505050506040513d6000823e3d601f19601f8201168201806040525081019061314091906148cb565b905080600182516131519190613de2565b8151811061316257613161613bfb565b5b60200260200101519250505092915050565b600460009054906101000a900473ffffffffffffffffffffffffffffffffffffffff1673ffffffffffffffffffffffffffffffffffffffff1663d0e30db0826040518263ffffffff1660e01b81526004016000604051808303818588803b1580156131de57600080fd5b505af11580156131f2573d6000803e3d6000fd5b505050505080600760008573ffffffffffffffffffffffffffffffffffffffff1673ffffffffffffffffffffffffffffffffffffffff16815260200190815260200160002060008282546132469190613de2565b925050819055508273ffffffffffffffffffffffffffffffffffffffff166108fc82846132739190613de2565b9081150290604051600060405180830381858888f1935050505015801561329e573d6000803e3d6000fd5b50505050565b60606000600267ffffffffffffffff8111156132c3576132c2614788565b5b6040519080825280602002602001820160405280156132f15781602001602082028036833780820191505090505b509050600660009054906101000a900473ffffffffffffffffffffffffffffffffffffffff1673ffffffffffffffffffffffffffffffffffffffff1663ad5c46486040518163ffffffff1660e01b8152600401602060405180830381865afa158015613361573d6000803e3d6000fd5b505050506040513d601f19601f820116820180604052508101906133859190614a70565b8160008151811061339957613398613bfb565b5b602002602001019073ffffffffffffffffffffffffffffffffffffffff16908173ffffffffffffffffffffffffffffffffffffffff168152505082816001815181106133e8576133e7613bfb565b5b602002602001019073ffffffffffffffffffffffffffffffffffffffff16908173ffffffffffffffffffffffffffffffffffffffff168152505080915050919050565b60606000600267ffffffffffffffff81111561344a57613449614788565b5b6040519080825280602002602001820160405280156134785781602001602082028036833780820191505090505b50905082816000815181106134905761348f613bfb565b5b602002602001019073ffffffffffffffffffffffffffffffffffffffff16908173ffffffffffffffffffffffffffffffffffffffff1681525050600660009054906101000a900473ffffffffffffffffffffffffffffffffffffffff1673ffffffffffffffffffffffffffffffffffffffff1663ad5c46486040518163ffffffff1660e01b8152600401602060405180830381865afa158015613537573d6000803e3d6000fd5b505050506040513d601f19601f8201168201806040525081019061355b9190614a70565b8160018151811061356f5761356e613bfb565b5b602002602001019073ffffffffffffffffffffffffffffffffffffffff16908173ffffffffffffffffffffffffffffffffffffffff168152505080915050919050565b6000604051905090565b600080fd5b600080fd5b600073ffffffffffffffffffffffffffffffffffffffff82169050919050565b60006135f1826135c6565b9050919050565b613601816135e6565b811461360c57600080fd5b50565b60008135905061361e816135f8565b92915050565b600063ffffffff82169050919050565b61363d81613624565b811461364857600080fd5b50565b60008135905061365a81613634565b92915050565b60008060408385031215613677576136766135bc565b5b60006136858582860161360f565b92505060206136968582860161364b565b9150509250929050565b600080604083850312156136b7576136b66135bc565b5b60006136c58582860161360f565b92505060206136d68582860161360f565b9150509250929050565b6000819050919050565b6136f3816136e0565b82525050565b600060208201905061370e60008301846136ea565b92915050565b60006020828403121561372a576137296135bc565b5b60006137388482850161360f565b91505092915050565b61374a816136e0565b811461375557600080fd5b50565b60008135905061376781613741565b92915050565b600060208284031215613783576137826135bc565b5b600061379184828501613758565b91505092915050565b600067ffffffffffffffff82169050919050565b6137b78161379a565b81146137c257600080fd5b50565b6000813590506137d4816137ae565b92915050565b6000806000606084860312156137f3576137f26135bc565b5b6000613801868287016137c5565b93505060206138128682870161360f565b925050604061382386828701613758565b9150509250925092565b60008060408385031215613844576138436135bc565b5b60006138528582860161360f565b925050602061386385828601613758565b9150509250929050565b613876816135e6565b82525050565b60008115159050919050565b6138918161387c565b82525050565b7f4e487b7100000000000000000000000000000000000000000000000000000000600052602160045260246000fd5b600281106138d7576138d6613897565b5b50565b60008190506138e8826138c6565b919050565b60006138f8826138da565b9050919050565b613908816138ed565b82525050565b6003811061391f5761391e613897565b5b50565b60008190506139308261390e565b919050565b600061394082613922565b9050919050565b61395081613935565b82525050565b61395f8161379a565b82525050565b6002811061397657613975613897565b5b50565b600081905061398782613965565b919050565b600061399782613979565b9050919050565b6139a78161398c565b82525050565b6000610140820190506139c3600083018d61386d565b6139d0602083018c613888565b6139dd604083018b6138ff565b6139ea606083018a613947565b6139f7608083018961386d565b613a0460a0830188613956565b613a1160c08301876136ea565b613a1e60e083018661399e565b613a2c6101008301856136ea565b613a3a6101208301846136ea565b9b9a5050505050505050505050565b6000819050919050565b6000613a6e613a69613a64846135c6565b613a49565b6135c6565b9050919050565b6000613a8082613a53565b9050919050565b6000613a9282613a75565b9050919050565b613aa281613a87565b82525050565b6000602082019050613abd6000830184613a99565b92915050565b6000613ace82613a75565b9050919050565b613ade81613ac3565b82525050565b6000602082019050613af96000830184613ad5565b92915050565b6000602082019050613b14600083018461386d565b92915050565b613b2381613624565b82525050565b6000602082019050613b3e6000830184613b1a565b92915050565b600060208284031215613b5a57613b596135bc565b5b6000613b688482850161364b565b91505092915050565b6000613b7c82613a53565b9050919050565b6000613b8e82613b71565b9050919050565b613b9e81613b83565b82525050565b6000602082019050613bb96000830184613b95565b92915050565b6000613bca82613a75565b9050919050565b613bda81613bbf565b82525050565b6000602082019050613bf56000830184613bd1565b92915050565b7f4e487b7100000000000000000000000000000000000000000000000000000000600052603260045260246000fd5b600082825260208201905092915050565b7f4a6f62206d757374206265206163746976650000000000000000000000000000600082015250565b6000613c71601283613c2a565b9150613c7c82613c3b565b602082019050919050565b60006020820190508181036000830152613ca081613c64565b9050919050565b7f4e487b7100000000000000000000000000000000000000000000000000000000600052601160045260246000fd5b6000613ce1826136e0565b9150613cec836136e0565b9250828201905080821115613d0457613d03613ca7565b5b92915050565b7f4a6f62206e6f7420726561647920666f7220657865637574696f6e2079657400600082015250565b6000613d40601f83613c2a565b9150613d4b82613d0a565b602082019050919050565b60006020820190508181036000830152613d6f81613d33565b9050919050565b7f496e73756666696369656e742062616c616e6365210000000000000000000000600082015250565b6000613dac601583613c2a565b9150613db782613d76565b602082019050919050565b60006020820190508181036000830152613ddb81613d9f565b9050919050565b6000613ded826136e0565b9150613df8836136e0565b9250828203905081811115613e1057613e0f613ca7565b5b92915050565b6000606082019050613e2b600083018661386d565b613e38602083018561386d565b613e4560408301846136ea565b949350505050565b613e568161387c565b8114613e6157600080fd5b50565b600081519050613e7381613e4d565b92915050565b600060208284031215613e8f57613e8e6135bc565b5b6000613e9d84828501613e64565b91505092915050565b7f556e61626c6520746f206465706f73697420746f6b656e732100000000000000600082015250565b6000613edc601983613c2a565b9150613ee782613ea6565b602082019050919050565b60006020820190508181036000830152613f0b81613ecf565b9050919050565b7f496e73756666696369656e7420746f6b656e2062616c616e6365210000000000600082015250565b6000613f48601b83613c2a565b9150613f5382613f12565b602082019050919050565b60006020820190508181036000830152613f7781613f3b565b9050919050565b6000604082019050613f93600083018561386d565b613fa060208301846136ea565b9392505050565b7f4a6f6220646f65736e2774206578697374000000000000000000000000000000600082015250565b6000613fdd601183613c2a565b9150613fe882613fa7565b602082019050919050565b6000602082019050818103600083015261400c81613fd0565b9050919050565b7f43616c6c6572206d75737420626520746865206170706c69636174696f6e2100600082015250565b6000614049601f83613c2a565b915061405482614013565b602082019050919050565b600060208201905081810360008301526140788161403c565b9050919050565b60008151905061408e81613741565b92915050565b600080604083850312156140ab576140aa6135bc565b5b60006140b98582860161407f565b92505060206140ca8582860161407f565b9150509250929050565b60006140df826136e0565b91506140ea836136e0565b9250817fffffffffffffffffffffffffffffffffffffffffffffffffffffffffffffffff048311821515161561412357614122613ca7565b5b828202905092915050565b7f496e73756666696369656e7420757365722062616c616e636521000000000000600082015250565b6000614164601a83613c2a565b915061416f8261412e565b602082019050919050565b6000602082019050818103600083015261419381614157565b9050919050565b600061ffff82169050919050565b6141b18161419a565b81146141bc57600080fd5b50565b6000815190506141ce816141a8565b92915050565b600080600080608085870312156141ee576141ed6135bc565b5b60006141fc87828801613e64565b945050602061420d878288016141bf565b935050604061421e8782880161407f565b925050606061422f87828801613e64565b91505092959194509250565b600060208284031215614251576142506135bc565b5b600061425f8482850161407f565b91505092915050565b600060ff82169050919050565b61427e81614268565b811461428957600080fd5b50565b60008151905061429b81614275565b92915050565b6000602082840312156142b7576142b66135bc565b5b60006142c58482850161428c565b91505092915050565b60008160011c9050919050565b6000808291508390505b60018511156143255780860481111561430157614300613ca7565b5b60018516156143105780820291505b808102905061431e856142ce565b94506142e5565b94509492505050565b60008261433e57600190506143fa565b8161434c57600090506143fa565b8160018114614362576002811461436c5761439b565b60019150506143fa565b60ff84111561437e5761437d613ca7565b5b8360020a91508482111561439557614394613ca7565b5b506143fa565b5060208310610133831016604e8410600b84101617156143d05782820a9050838111156143cb576143ca613ca7565b5b6143fa565b6143dd84848460016142db565b925090508184048111156143f4576143f3613ca7565b5b81810290505b9392505050565b600061440c826136e0565b915061441783614268565b92506144447fffffffffffffffffffffffffffffffffffffffffffffffffffffffffffffffff848461432e565b905092915050565b7f4e487b7100000000000000000000000000000000000000000000000000000000600052601260045260246000fd5b6000614486826136e0565b9150614491836136e0565b9250826144a1576144a061444c565b5b828204905092915050565b7f43616c6c6572206d7573742062652074686520636f6e7472616374206f776e6560008201527f7221000000000000000000000000000000000000000000000000000000000000602082015250565b6000614508602283613c2a565b9150614513826144ac565b604082019050919050565b60006020820190508181036000830152614537816144fb565b9050919050565b7f4d696e2e20636f6d6d697373696f6e2068617320746f20626520706169642100600082015250565b6000614574601f83613c2a565b915061457f8261453e565b602082019050919050565b600060208201905081810360008301526145a381614567565b9050919050565b7f496e74657276616c2073686f756c64206265206265747765656e203520616e6460008201527f20353235393630206d696e757465730000000000000000000000000000000000602082015250565b6000614606602f83613c2a565b9150614611826145aa565b604082019050919050565b60006020820190508181036000830152614635816145f9565b9050919050565b600061464782613624565b915063ffffffff820361465d5761465c613ca7565b5b600182019050919050565b600081519050919050565b600082825260208201905092915050565b6000819050602082019050919050565b61469d816135e6565b82525050565b60006146af8383614694565b60208301905092915050565b6000602082019050919050565b60006146d382614668565b6146dd8185614673565b93506146e883614684565b8060005b8381101561471957815161470088826146a3565b975061470b836146bb565b9250506001810190506146ec565b5085935050505092915050565b600060808201905061473b60008301876136ea565b818103602083015261474d81866146c8565b905061475c604083018561386d565b61476960608301846136ea565b95945050505050565b600080fd5b6000601f19601f8301169050919050565b7f4e487b7100000000000000000000000000000000000000000000000000000000600052604160045260246000fd5b6147c082614777565b810181811067ffffffffffffffff821117156147df576147de614788565b5b80604052505050565b60006147f26135b2565b90506147fe82826147b7565b919050565b600067ffffffffffffffff82111561481e5761481d614788565b5b602082029050602081019050919050565b600080fd5b600061484761484284614803565b6147e8565b9050808382526020820190506020840283018581111561486a5761486961482f565b5b835b81811015614893578061487f888261407f565b84526020840193505060208101905061486c565b5050509392505050565b600082601f8301126148b2576148b1614772565b5b81516148c2848260208601614834565b91505092915050565b6000602082840312156148e1576148e06135bc565b5b600082015167ffffffffffffffff8111156148ff576148fe6135c1565b5b61490b8482850161489d565b91505092915050565b600081905092915050565b50565b600061492f600083614914565b915061493a8261491f565b600082019050919050565b600061495082614922565b9150819050919050565b7f726566756e64206661696c656400000000000000000000000000000000000000600082015250565b6000614990600d83613c2a565b915061499b8261495a565b602082019050919050565b600060208201905081810360008301526149bf81614983565b9050919050565b6000819050919050565b60006149eb6149e66149e1846149c6565b613a49565b6136e0565b9050919050565b6149fb816149d0565b82525050565b600060a082019050614a1660008301886136ea565b614a2360208301876149f2565b8181036040830152614a3581866146c8565b9050614a44606083018561386d565b614a5160808301846136ea565b9695505050505050565b600081519050614a6a816135f8565b92915050565b600060208284031215614a8657614a856135bc565b5b6000614a9484828501614a5b565b9150509291505056fea2646970667358221220b632b588d4865499b49029cb509685bdfeeba00b52eff00ceabdbd3fd22fb5fd64736f6c63430008100033",
  "immutableReferences": {},
  "source": "pragma solidity ^0.8.16;\n\nimport \"./interfaces/IERC20.sol\";\nimport \"./interfaces/IUniswapV2Router02.sol\";\nimport \"./Fund.sol\";\nimport \"./Reserve.sol\";\nimport \"./Oracle.sol\";\nimport \"./Mirrored.sol\";\nimport \"./TokenERC20.sol\";\n\ncontract PriceLimitedCron {\n    enum Mode {\n        Amount,\n        Price\n    }\n\n    enum Operations {\n        Buy,\n        Sell\n    }\n\n    enum ContractTypes {\n        Mirrored,\n        ERC20,\n        Portfolio\n    }\n\n    struct Job {\n        address ownerAddress;\n        bool isActive;\n        Mode mode;\n        ContractTypes contractType;\n        address contractAddress;\n        uint64 recurringInterval;\n        uint256 amount;\n        Operations operation;\n        uint256 createdAt;\n        uint256 lastExecution;\n    }\n\n    address public ownerAddress;\n    address public applicationAddress;\n    uint256 public commission;\n\n    Fund public fund;\n    Reserve public reserve;\n    Oracle public oracle;\n    IUniswapV2Router02 public uniswapRouter;\n\n    mapping(address => uint256) public jobNativeBalances;\n    mapping(address => mapping(address => uint256)) public jobTokenBalances;\n    mapping(address => uint32) public jobUserCount;\n    mapping(address => Job[]) public jobs;\n\n    constructor(\n        Fund _fund,\n        Reserve _reserve,\n        Oracle _oracle,\n        address _uniswapRouterAddress,\n        uint256 _commission\n    ) {\n        ownerAddress = msg.sender;\n        fund = _fund;\n        reserve = _reserve;\n        oracle = _oracle;\n        uniswapRouter = IUniswapV2Router02(_uniswapRouterAddress);\n        commission = _commission;\n    }\n\n    function _onlyOwner() private view {\n        require(\n            msg.sender == ownerAddress,\n            \"Caller must be the contract owner!\"\n        );\n    }\n\n    modifier onlyOwner() {\n        _onlyOwner();\n        _;\n    }\n\n    function _onlyApplication() private view {\n        require(\n            msg.sender == applicationAddress,\n            \"Caller must be the application!\"\n        );\n    }\n\n    modifier onlyApplication() {\n        _onlyApplication();\n        _;\n    }\n\n    function _mustHaveCorrectInputs(uint64 _interval) private pure {\n        require(\n            _interval >= 5 && _interval <= 525960,\n            \"Interval should be between 5 and 525960 minutes\"\n        );\n    }\n\n    modifier mustHaveCorrectInputs(uint64 _interval) {\n        _mustHaveCorrectInputs(_interval);\n        _;\n    }\n\n    function _mustPayCommission() private view {\n        require(msg.value >= commission, \"Min. commission has to be paid!\");\n    }\n\n    modifier mustPayCommission() {\n        _mustPayCommission();\n        _;\n    }\n\n    function updateApplicationAddress(address newApplicationAddress)\n        public\n        onlyOwner\n    {\n        applicationAddress = newApplicationAddress;\n    }\n\n    function updateCommission(uint256 newCommission) public onlyOwner {\n        commission = newCommission;\n    }\n\n    function deposit() public payable {\n        jobNativeBalances[msg.sender] += msg.value;\n    }\n\n    function depositToken(address _token, uint256 _amount) public payable {\n        bool success = IERC20(_token).transferFrom(\n            msg.sender,\n            address(this),\n            _amount\n        );\n        require(success, \"Unable to deposit tokens!\");\n        jobTokenBalances[msg.sender][_token] += _amount;\n    }\n\n    function withdraw(uint256 _amount) public payable {\n        uint256 balance = jobNativeBalances[msg.sender];\n        {\n            require(balance >= _amount, \"Insufficient balance!\");\n        }\n        jobNativeBalances[msg.sender] -= _amount;\n        payable(msg.sender).transfer(_amount);\n    }\n\n    function withdrawToken(address _token, uint256 _amount) public payable {\n        uint256 balance = jobTokenBalances[msg.sender][_token];\n        {\n            require(balance >= _amount, \"Insufficient token balance!\");\n        }\n        jobTokenBalances[msg.sender][_token] -= _amount;\n        IERC20(_token).transfer(msg.sender, _amount);\n    }\n\n    function createRecurringMirroredBuyJob(\n        uint64 _recurringInterval,\n        address _contractAddress,\n        uint256 _amount\n    )\n        external\n        payable\n        mustPayCommission\n        mustHaveCorrectInputs(_recurringInterval)\n    {\n        _createRecurringJob(\n            _recurringInterval,\n            ContractTypes.Mirrored,\n            Operations.Buy,\n            Mode.Amount,\n            _contractAddress,\n            _amount\n        );\n    }\n\n    function createRecurringMirroredSellJob(\n        uint64 _recurringInterval,\n        address _contractAddress,\n        uint256 _amount\n    )\n        external\n        payable\n        mustPayCommission\n        mustHaveCorrectInputs(_recurringInterval)\n    {\n        _createRecurringJob(\n            _recurringInterval,\n            ContractTypes.Mirrored,\n            Operations.Sell,\n            Mode.Amount,\n            _contractAddress,\n            _amount\n        );\n    }\n\n    function createRecurringErc20BuyJob(\n        uint64 _recurringInterval,\n        address _contractAddress,\n        uint256 _amount\n    )\n        external\n        payable\n        mustPayCommission\n        mustHaveCorrectInputs(_recurringInterval)\n    {\n        _createRecurringJob(\n            _recurringInterval,\n            ContractTypes.ERC20,\n            Operations.Buy,\n            Mode.Amount,\n            _contractAddress,\n            _amount\n        );\n    }\n\n    function createRecurringErc20SellJob(\n        uint64 _recurringInterval,\n        address _contractAddress,\n        uint256 _amount\n    )\n        external\n        payable\n        mustPayCommission\n        mustHaveCorrectInputs(_recurringInterval)\n    {\n        _createRecurringJob(\n            _recurringInterval,\n            ContractTypes.ERC20,\n            Operations.Sell,\n            Mode.Amount,\n            _contractAddress,\n            _amount\n        );\n    }\n\n    function createRecurringPortfolioBuyJob(\n        uint64 _recurringInterval,\n        address _contractAddress,\n        uint256 _amount\n    )\n        external\n        payable\n        mustPayCommission\n        mustHaveCorrectInputs(_recurringInterval)\n    {\n        _createRecurringJob(\n            _recurringInterval,\n            ContractTypes.Portfolio,\n            Operations.Buy,\n            Mode.Amount,\n            _contractAddress,\n            _amount\n        );\n    }\n\n    function createRecurringPortfolioSellJob(\n        uint64 _recurringInterval,\n        address _contractAddress,\n        uint256 _amount\n    )\n        external\n        payable\n        mustPayCommission\n        mustHaveCorrectInputs(_recurringInterval)\n    {\n        _createRecurringJob(\n            _recurringInterval,\n            ContractTypes.Portfolio,\n            Operations.Sell,\n            Mode.Amount,\n            _contractAddress,\n            _amount\n        );\n    }\n\n    function createRecurringMirroredPriceLimitedBuyJob(\n        uint64 _recurringInterval,\n        address _contractAddress,\n        uint256 _priceLimit\n    )\n        external\n        payable\n        mustPayCommission\n        mustHaveCorrectInputs(_recurringInterval)\n    {\n        _createRecurringJob(\n            _recurringInterval,\n            ContractTypes.Mirrored,\n            Operations.Buy,\n            Mode.Price,\n            _contractAddress,\n            _priceLimit\n        );\n    }\n\n    function createRecurringMirroredPriceLimitedSellJob(\n        uint64 _recurringInterval,\n        address _contractAddress,\n        uint256 _priceLimit\n    )\n        external\n        payable\n        mustPayCommission\n        mustHaveCorrectInputs(_recurringInterval)\n    {\n        _createRecurringJob(\n            _recurringInterval,\n            ContractTypes.Mirrored,\n            Operations.Sell,\n            Mode.Price,\n            _contractAddress,\n            _priceLimit\n        );\n    }\n\n    function createRecurringErc20PriceLimitedBuyJob(\n        uint64 _recurringInterval,\n        address _contractAddress,\n        uint256 _priceLimit\n    )\n        external\n        payable\n        mustPayCommission\n        mustHaveCorrectInputs(_recurringInterval)\n    {\n        _createRecurringJob(\n            _recurringInterval,\n            ContractTypes.ERC20,\n            Operations.Buy,\n            Mode.Price,\n            _contractAddress,\n            _priceLimit\n        );\n    }\n\n    function createRecurringErc20PriceLimitedSellJob(\n        uint64 _recurringInterval,\n        address _contractAddress,\n        uint256 _priceLimit\n    )\n        external\n        payable\n        mustPayCommission\n        mustHaveCorrectInputs(_recurringInterval)\n    {\n        _createRecurringJob(\n            _recurringInterval,\n            ContractTypes.ERC20,\n            Operations.Sell,\n            Mode.Price,\n            _contractAddress,\n            _priceLimit\n        );\n    }\n\n    function createRecurringPortfolioPriceLimitedBuyJob(\n        uint64 _recurringInterval,\n        address _contractAddress,\n        uint256 _priceLimit\n    )\n        external\n        payable\n        mustPayCommission\n        mustHaveCorrectInputs(_recurringInterval)\n    {\n        _createRecurringJob(\n            _recurringInterval,\n            ContractTypes.Portfolio,\n            Operations.Buy,\n            Mode.Price,\n            _contractAddress,\n            _priceLimit\n        );\n    }\n\n    function createRecurringPortfolioPriceLimitedSellJob(\n        uint64 _recurringInterval,\n        address _contractAddress,\n        uint256 _priceLimit\n    )\n        external\n        payable\n        mustPayCommission\n        mustHaveCorrectInputs(_recurringInterval)\n    {\n        _createRecurringJob(\n            _recurringInterval,\n            ContractTypes.Portfolio,\n            Operations.Sell,\n            Mode.Price,\n            _contractAddress,\n            _priceLimit\n        );\n    }\n\n    function toggleJobActiveState(uint32 jobIndex) external {\n        Job memory job = jobs[msg.sender][jobIndex];\n        require(job.createdAt > 0, \"Job doesn't exist\");\n        jobs[msg.sender][jobIndex].isActive = !job.isActive;\n    }\n\n    function executeJob(address _jobUserAddress, uint32 _jobIndex)\n        external\n        onlyApplication\n    {\n        Job memory job = jobs[_jobUserAddress][_jobIndex];\n\n        require(job.isActive, \"Job must be active\");\n        require(\n            job.lastExecution + job.recurringInterval <= block.timestamp,\n            \"Job not ready for execution yet\"\n        );\n\n        if (job.mode == Mode.Amount) {\n            if (job.contractType == ContractTypes.ERC20) {\n                _executeErc20Job(job);\n            } else if (job.contractType == ContractTypes.Portfolio) {\n                _executePortfolioJob(job);\n            } else if (job.contractType == ContractTypes.Mirrored) {\n                _executeMirroredJob(job);\n            }\n        } else if (job.mode == Mode.Price) {\n            if (job.contractType == ContractTypes.ERC20) {\n                _executeErc20PriceLimitedJob(job);\n            } else if (job.contractType == ContractTypes.Portfolio) {\n                _executePortfolioPriceLimitedJob(job);\n            } else if (job.contractType == ContractTypes.Mirrored) {\n                _executeMirroredPriceLimitedJob(job);\n            }\n        }\n        jobs[_jobUserAddress][_jobIndex].lastExecution = block.timestamp;\n    }\n\n    receive() external payable {}\n\n    //** INTERNAL **/\n\n    function _executeErc20Job(Job memory _job) internal {\n        uint256 balance = jobNativeBalances[_job.ownerAddress];\n        uint256 cronCommission = commission;\n\n        if (_job.operation == Operations.Buy) {\n            (uint256 price, ) = oracle.getPrice(_job.contractAddress);\n            uint256 estimatedCost = (price * _job.amount) +\n                cronCommission +\n                1 ether;\n\n            require(estimatedCost <= balance, \"Insufficient user balance!\");\n\n            uint256 actualCost = _convertToErc20(\n                _job.contractAddress,\n                _job.amount\n            );\n            _deductCommissionAndTransferTokenToOwner(\n                _job.contractAddress,\n                _job.ownerAddress,\n                _job.amount,\n                actualCost,\n                cronCommission\n            );\n        } else if (_job.operation == Operations.Sell) {\n            require(cronCommission <= balance, \"Insufficient user balance!\");\n\n            uint256 tokenBalance = jobTokenBalances[_job.ownerAddress][\n                _job.contractAddress\n            ];\n\n            require(tokenBalance >= _job.amount, \"Insufficient token balance!\");\n\n            uint256 received = _convertFromErc20(\n                _job.contractAddress,\n                _job.amount\n            );\n            _deductCommissionAndTransferNativeToOwner(\n                _job.ownerAddress,\n                received,\n                cronCommission\n            );\n        }\n    }\n\n    function _executeMirroredJob(Job memory _job) internal {\n        Mirrored mirroredAsset = Mirrored(_job.contractAddress);\n        uint256 balance = jobNativeBalances[_job.ownerAddress];\n        uint256 cronCommission = commission;\n        uint256 mirroredCommission = mirroredAsset.commission();\n        (uint256 price, ) = oracle.getPrice(_job.contractAddress);\n\n        if (_job.operation == Operations.Buy) {\n            uint256 cost = price * _job.amount;\n            uint256 estimatedCost = cost +\n                cronCommission +\n                mirroredCommission +\n                1 ether;\n\n            require(estimatedCost <= balance, \"Insufficient user balance!\");\n\n            mirroredAsset.mint{value: cost + mirroredCommission}(_job.amount);\n            _deductCommissionAndTransferTokenToOwner(\n                _job.contractAddress,\n                _job.ownerAddress,\n                _job.amount,\n                cost + mirroredCommission,\n                cronCommission\n            );\n        } else if (_job.operation == Operations.Sell) {\n            require(cronCommission <= balance, \"Insufficient user balance!\");\n            uint256 received = mirroredAsset.burn(_job.amount);\n            _deductCommissionAndTransferNativeToOwner(\n                _job.ownerAddress,\n                received,\n                cronCommission\n            );\n        }\n    }\n\n    function _executePortfolioJob(Job memory _job) internal {\n        uint256 balance = jobNativeBalances[_job.ownerAddress];\n        uint256 cronCommission = commission;\n        (, , uint256 fundCommission, ) = fund.properties();\n\n        if (_job.operation == Operations.Buy) {\n            uint256 cost = (fund.getSharePrice() * _job.amount) +\n                fundCommission;\n            require(\n                cost + cronCommission <= balance,\n                \"Insufficient user balance!\"\n            );\n\n            fund.buyShares{value: cost}(_job.amount);\n            _deductCommissionAndTransferTokenToOwner(\n                _job.contractAddress,\n                _job.ownerAddress,\n                _job.amount,\n                cost,\n                cronCommission\n            );\n        } else if (_job.operation == Operations.Sell) {\n            require(\n                cronCommission + fundCommission <= balance,\n                \"Insufficient user balance!\"\n            );\n            uint256 received = fund.sellShares(_job.amount);\n            _deductCommissionAndTransferNativeToOwner(\n                _job.ownerAddress,\n                received,\n                cronCommission\n            );\n        }\n    }\n\n    function _executeErc20PriceLimitedJob(Job memory _job) internal {\n        uint256 balance = jobNativeBalances[_job.ownerAddress];\n        uint256 cronCommission = commission;\n\n        if (_job.operation == Operations.Buy) {\n            (uint256 price, ) = oracle.getPrice(_job.contractAddress);\n            uint8 decimals = TokenERC20(_job.contractAddress).decimals();\n            uint256 decimalScale = (10**decimals);\n            uint256 amountToBuy = ((_job.amount / price) / decimalScale) *\n                decimalScale;\n            uint256 estimatedCost = (price * amountToBuy) +\n                cronCommission +\n                1 ether;\n\n            require(estimatedCost <= balance, \"Insufficient user balance!\");\n\n            uint256 actualCost = _convertToErc20(\n                _job.contractAddress,\n                amountToBuy\n            );\n            _deductCommissionAndTransferTokenToOwner(\n                _job.contractAddress,\n                _job.ownerAddress,\n                amountToBuy,\n                actualCost,\n                cronCommission\n            );\n        } else if (_job.operation == Operations.Sell) {\n            require(cronCommission <= balance, \"Insufficient user balance!\");\n            // uint256 received = _convertFromErc20(\n            //     _job.contractAddress,\n            //     _job.amount\n            // );\n            // _deductCommissionAndTransferNativeToOwner(\n            //     _job.ownerAddress,\n            //     received,\n            //     cronCommission\n            // );\n            // TODO\n        }\n    }\n\n    function _executeMirroredPriceLimitedJob(Job memory _job) internal {\n        Mirrored mirroredAsset = Mirrored(_job.contractAddress);\n        uint256 balance = jobNativeBalances[_job.ownerAddress];\n        uint256 cronCommission = commission;\n        uint256 mirroredCommission = mirroredAsset.commission();\n        (uint256 price, ) = oracle.getPrice(_job.contractAddress);\n\n        // TODO\n        // if (_job.operation == Operations.Buy) {\n        // uint256 cost = price * _job.amount;\n        // uint256 estimatedCost = cost +\n        //     cronCommission +\n        //     mirroredCommission +\n        //     1 ether;\n\n        // require(estimatedCost <= balance, \"Insufficient user balance!\");\n\n        // mirroredAsset.mint{value: cost + mirroredCommission}(_job.amount);\n        //     _deductCommissionAndTransferTokenToOwner(\n        //         _job.contractAddress,\n        //         _job.ownerAddress,\n        //         _job.amount,\n        //         cost + mirroredCommission,\n        //         cronCommission\n        //     );\n        // } else if (_job.operation == Operations.Sell) {\n        //     require(cronCommission <= balance, \"Insufficient user balance!\");\n        //     uint256 received = mirroredAsset.burn(_job.amount);\n        //     _deductCommissionAndTransferNativeToOwner(\n        //         _job.ownerAddress,\n        //         received,\n        //         cronCommission\n        //     );\n        // }\n    }\n\n    function _executePortfolioPriceLimitedJob(Job memory _job) internal {\n        uint256 balance = jobNativeBalances[_job.ownerAddress];\n        uint256 cronCommission = commission;\n        (, , uint256 fundCommission, ) = fund.properties();\n        // TODO\n        // if (_job.operation == Operations.Buy) {\n        //     uint256 cost = (fund.getSharePrice() * _job.amount) +\n        //         fundCommission;\n        //     require(\n        //         cost + cronCommission <= balance,\n        //         \"Insufficient user balance!\"\n        //     );\n\n        //     fund.buyShares{value: cost}(_job.amount);\n        //     reserve.deposit{value: cronCommission}();\n        //     fund.transfer(_job.ownerAddress, _job.amount);\n        //     jobNativeBalances[_job.ownerAddress] -= cost;\n        // } else if (_job.operation == Operations.Sell) {\n        //     require(\n        //         cronCommission + fundCommission <= balance,\n        //         \"Insufficient user balance!\"\n        //     );\n        //     uint256 received = fund.sellShares(_job.amount);\n        //     _deductCommissionAndTransferNativeToOwner(\n        //         _job.ownerAddress,\n        //         received,\n        //         cronCommission\n        //     );\n        // }\n    }\n\n    function _deductCommissionAndTransferNativeToOwner(\n        address _ownerAddress,\n        uint256 _received,\n        uint256 _commission\n    ) internal {\n        reserve.deposit{value: _commission}();\n        jobNativeBalances[_ownerAddress] -= _commission;\n        payable(_ownerAddress).transfer(_received - _commission);\n    }\n\n    function _deductCommissionAndTransferTokenToOwner(\n        address _tokenAddress,\n        address _ownerAddress,\n        uint256 _received,\n        uint256 _cost,\n        uint256 _commission\n    ) internal {\n        reserve.deposit{value: _commission}();\n        jobNativeBalances[_ownerAddress] -= (_commission + _cost);\n        IERC20(_tokenAddress).transfer(_ownerAddress, _received);\n    }\n\n    function _createRecurringJob(\n        uint64 _recurringInterval,\n        ContractTypes _contractType,\n        Operations _opertaion,\n        Mode _mode,\n        address _contractAddress,\n        uint256 _amount\n    ) internal {\n        Job memory newJob = Job(\n            msg.sender,\n            true,\n            _mode,\n            _contractType,\n            _contractAddress,\n            _recurringInterval,\n            _amount,\n            _opertaion,\n            block.timestamp,\n            0\n        );\n\n        jobUserCount[msg.sender]++;\n        jobs[msg.sender].push(newJob);\n    }\n\n    function _convertToErc20(address assetAddress, uint256 amount)\n        internal\n        returns (uint256)\n    {\n        uint256 deadline = block.timestamp + 30;\n        uint256[] memory amounts = uniswapRouter.swapETHForExactTokens(\n            amount,\n            _getPathForNativeToErc20(assetAddress),\n            address(this),\n            deadline\n        );\n\n        // refund leftover ETH to user\n        (bool success, ) = msg.sender.call{value: address(this).balance}(\"\");\n        require(success, \"refund failed\");\n\n        return amounts[amounts.length - 1];\n    }\n\n    function _convertFromErc20(address assetAddress, uint256 amount)\n        internal\n        returns (uint256)\n    {\n        uint256 deadline = block.timestamp + 30;\n        uint256[] memory amounts = uniswapRouter.swapExactTokensForETH(\n            amount,\n            1,\n            _getPathForErc20ToNative(assetAddress),\n            address(this),\n            deadline\n        );\n\n        return amounts[amounts.length - 1];\n    }\n\n    function _getPathForNativeToErc20(address assetAddress)\n        private\n        view\n        returns (address[] memory)\n    {\n        address[] memory path = new address[](2);\n        path[0] = uniswapRouter.WETH();\n        path[1] = assetAddress;\n\n        return path;\n    }\n\n    function _getPathForErc20ToNative(address assetAddress)\n        private\n        view\n        returns (address[] memory)\n    {\n        address[] memory path = new address[](2);\n        path[0] = assetAddress;\n        path[1] = uniswapRouter.WETH();\n\n        return path;\n    }\n}\n",
  "sourcePath": "/home/d4fttasiii/git/portfolium/src/fund-contract/contracts/PriceLimitedCron.sol",
  "compiler": {
    "name": "solc",
    "version": "0.8.16+commit.07a7930e.Emscripten.clang"
  },
  "schemaVersion": "3.4.9",
  "updatedAt": "2022-11-29T17:14:35.920Z",
  "devdoc": {
    "kind": "dev",
    "methods": {},
    "version": 1
  },
  "userdoc": {
    "kind": "user",
    "methods": {},
    "version": 1
  }
}