{
  "contractName": "Reserve",
  "abi": [
    {
      "inputs": [],
      "stateMutability": "nonpayable",
      "type": "constructor"
    },
    {
      "inputs": [
        {
          "internalType": "uint256",
          "name": "",
          "type": "uint256"
        }
      ],
      "name": "accessingAccountAddresses",
      "outputs": [
        {
          "internalType": "address",
          "name": "",
          "type": "address"
        }
      ],
      "stateMutability": "view",
      "type": "function",
      "constant": true
    },
    {
      "inputs": [],
      "name": "accessingAccountCount",
      "outputs": [
        {
          "internalType": "uint16",
          "name": "",
          "type": "uint16"
        }
      ],
      "stateMutability": "view",
      "type": "function",
      "constant": true
    },
    {
      "inputs": [
        {
          "internalType": "address",
          "name": "",
          "type": "address"
        }
      ],
      "name": "accessingAccounts",
      "outputs": [
        {
          "internalType": "bool",
          "name": "",
          "type": "bool"
        }
      ],
      "stateMutability": "view",
      "type": "function",
      "constant": true
    },
    {
      "inputs": [],
      "name": "ownerAddress",
      "outputs": [
        {
          "internalType": "address",
          "name": "",
          "type": "address"
        }
      ],
      "stateMutability": "view",
      "type": "function",
      "constant": true
    },
    {
      "inputs": [
        {
          "internalType": "address",
          "name": "accountAddress",
          "type": "address"
        }
      ],
      "name": "addAcount",
      "outputs": [],
      "stateMutability": "nonpayable",
      "type": "function"
    },
    {
      "inputs": [
        {
          "internalType": "address",
          "name": "accountAddress",
          "type": "address"
        }
      ],
      "name": "removeAccount",
      "outputs": [],
      "stateMutability": "nonpayable",
      "type": "function"
    },
    {
      "inputs": [],
      "name": "deposit",
      "outputs": [],
      "stateMutability": "payable",
      "type": "function",
      "payable": true
    },
    {
      "inputs": [
        {
          "internalType": "address",
          "name": "recipient",
          "type": "address"
        },
        {
          "internalType": "uint256",
          "name": "amount",
          "type": "uint256"
        }
      ],
      "name": "withdraw",
      "outputs": [],
      "stateMutability": "payable",
      "type": "function",
      "payable": true
    }
  ],
  "bytecode": "0x608060405234801561001057600080fd5b50336000806101000a81548173ffffffffffffffffffffffffffffffffffffffff021916908373ffffffffffffffffffffffffffffffffffffffff1602179055506100603361006560201b60201c565b610305565b61007361016b60201b60201c565b60018060008373ffffffffffffffffffffffffffffffffffffffff1673ffffffffffffffffffffffffffffffffffffffff16815260200190815260200160002060006101000a81548160ff0219169083151502179055506002819080600181540180825580915050600190039060005260206000200160009091909190916101000a81548173ffffffffffffffffffffffffffffffffffffffff021916908373ffffffffffffffffffffffffffffffffffffffff1602179055506003600081819054906101000a900461ffff168092919061014d90610238565b91906101000a81548161ffff021916908361ffff1602179055505050565b60008054906101000a900473ffffffffffffffffffffffffffffffffffffffff1673ffffffffffffffffffffffffffffffffffffffff163373ffffffffffffffffffffffffffffffffffffffff16146101f9576040517f08c379a00000000000000000000000000000000000000000000000000000000081526004016101f0906102e5565b60405180910390fd5b565b7f4e487b7100000000000000000000000000000000000000000000000000000000600052601160045260246000fd5b600061ffff82169050919050565b60006102438261022a565b915061ffff8203610257576102566101fb565b5b600182019050919050565b600082825260208201905092915050565b7f43616c6c6572206d7573742062652074686520636f6e7472616374206f776e6560008201527f7221000000000000000000000000000000000000000000000000000000000000602082015250565b60006102cf602283610262565b91506102da82610273565b604082019050919050565b600060208201905081810360008301526102fe816102c2565b9050919050565b61089e806103146000396000f3fe60806040526004361061007b5760003560e01c8063c4740a951161004e578063c4740a9514610150578063d0da84d114610179578063d0e30db0146101a2578063f3fef3a3146101ac5761007b565b80636e252428146100805780638f84aa09146100ab5780639f241884146100d6578063bf1a44e614610113575b600080fd5b34801561008c57600080fd5b506100956101c8565b6040516100a29190610552565b60405180910390f35b3480156100b757600080fd5b506100c06101dc565b6040516100cd91906105ae565b60405180910390f35b3480156100e257600080fd5b506100fd60048036038101906100f891906105fa565b610200565b60405161010a9190610642565b60405180910390f35b34801561011f57600080fd5b5061013a60048036038101906101359190610693565b610220565b60405161014791906105ae565b60405180910390f35b34801561015c57600080fd5b50610177600480360381019061017291906105fa565b61025f565b005b34801561018557600080fd5b506101a0600480360381019061019b91906105fa565b6102c2565b005b6101aa6103c2565b005b6101c660048036038101906101c191906106c0565b6103c4565b005b600360009054906101000a900461ffff1681565b60008054906101000a900473ffffffffffffffffffffffffffffffffffffffff1681565b60016020528060005260406000206000915054906101000a900460ff1681565b6002818154811061023057600080fd5b906000526020600020016000915054906101000a900473ffffffffffffffffffffffffffffffffffffffff1681565b610267610417565b6000600160008373ffffffffffffffffffffffffffffffffffffffff1673ffffffffffffffffffffffffffffffffffffffff16815260200190815260200160002060006101000a81548160ff02191690831515021790555050565b6102ca610417565b60018060008373ffffffffffffffffffffffffffffffffffffffff1673ffffffffffffffffffffffffffffffffffffffff16815260200190815260200160002060006101000a81548160ff0219169083151502179055506002819080600181540180825580915050600190039060005260206000200160009091909190916101000a81548173ffffffffffffffffffffffffffffffffffffffff021916908373ffffffffffffffffffffffffffffffffffffffff1602179055506003600081819054906101000a900461ffff16809291906103a49061072f565b91906101000a81548161ffff021916908361ffff1602179055505050565b565b6103cc6104a7565b8173ffffffffffffffffffffffffffffffffffffffff166108fc829081150290604051600060405180830381858888f19350505050158015610412573d6000803e3d6000fd5b505050565b60008054906101000a900473ffffffffffffffffffffffffffffffffffffffff1673ffffffffffffffffffffffffffffffffffffffff163373ffffffffffffffffffffffffffffffffffffffff16146104a5576040517f08c379a000000000000000000000000000000000000000000000000000000000815260040161049c906107dc565b60405180910390fd5b565b600160003373ffffffffffffffffffffffffffffffffffffffff1673ffffffffffffffffffffffffffffffffffffffff16815260200190815260200160002060009054906101000a900460ff16610533576040517f08c379a000000000000000000000000000000000000000000000000000000000815260040161052a90610848565b60405180910390fd5b565b600061ffff82169050919050565b61054c81610535565b82525050565b60006020820190506105676000830184610543565b92915050565b600073ffffffffffffffffffffffffffffffffffffffff82169050919050565b60006105988261056d565b9050919050565b6105a88161058d565b82525050565b60006020820190506105c3600083018461059f565b92915050565b600080fd5b6105d78161058d565b81146105e257600080fd5b50565b6000813590506105f4816105ce565b92915050565b6000602082840312156106105761060f6105c9565b5b600061061e848285016105e5565b91505092915050565b60008115159050919050565b61063c81610627565b82525050565b60006020820190506106576000830184610633565b92915050565b6000819050919050565b6106708161065d565b811461067b57600080fd5b50565b60008135905061068d81610667565b92915050565b6000602082840312156106a9576106a86105c9565b5b60006106b78482850161067e565b91505092915050565b600080604083850312156106d7576106d66105c9565b5b60006106e5858286016105e5565b92505060206106f68582860161067e565b9150509250929050565b7f4e487b7100000000000000000000000000000000000000000000000000000000600052601160045260246000fd5b600061073a82610535565b915061ffff820361074e5761074d610700565b5b600182019050919050565b600082825260208201905092915050565b7f43616c6c6572206d7573742062652074686520636f6e7472616374206f776e6560008201527f7221000000000000000000000000000000000000000000000000000000000000602082015250565b60006107c6602283610759565b91506107d18261076a565b604082019050919050565b600060208201905081810360008301526107f5816107b9565b9050919050565b7f43616c6c6572206d757374206861766520616363657373210000000000000000600082015250565b6000610832601883610759565b915061083d826107fc565b602082019050919050565b6000602082019050818103600083015261086181610825565b905091905056fea26469706673582212209c1d81141fa7e6abe9fad66e7809eb75248aaf74d32953fddc04379d5e75c3f764736f6c63430008100033",
  "immutableReferences": {},
  "source": "pragma solidity ^0.8.16;\n\ncontract Reserve {\n    address public ownerAddress;\n    mapping(address => bool) public accessingAccounts;\n    address[] public accessingAccountAddresses;\n    uint16 public accessingAccountCount; \n\n    constructor() {\n        ownerAddress = msg.sender;\n        addAcount(msg.sender);\n    }\n\n    function _onlyOwner() private view {\n        require(\n            msg.sender == ownerAddress,\n            \"Caller must be the contract owner!\"\n        );\n    }\n\n    modifier onlyOwner() {\n        _onlyOwner();\n        _;\n    }\n\n    function _mustHaveAccess() private view {\n        require(accessingAccounts[msg.sender], \"Caller must have access!\");\n    }\n\n    modifier mustHaveAccess() {\n        _mustHaveAccess();\n        _;\n    }\n\n    function addAcount(address accountAddress) public onlyOwner {\n        accessingAccounts[accountAddress] = true;\n        accessingAccountAddresses.push(accountAddress);\n        accessingAccountCount++;\n    }\n\n    function removeAccount(address accountAddress) external onlyOwner {\n        accessingAccounts[accountAddress] = false;\n    }\n\n    function deposit() external payable {}\n\n    function withdraw(address recipient, uint256 amount)\n        external\n        payable\n        mustHaveAccess\n    {\n        payable(recipient).transfer(amount);\n    }\n}\n",
  "sourcePath": "/home/d4fttasiii/git/al_fundy/src/fund-contract/contracts/Reserve.sol",
  "compiler": {
    "name": "solc",
    "version": "0.8.16+commit.07a7930e.Emscripten.clang"
  },
  "schemaVersion": "3.4.9",
  "updatedAt": "2022-11-12T16:44:38.016Z",
  "networkType": "ethereum",
  "devdoc": {
    "kind": "dev",
    "methods": {},
    "version": 1
  },
  "userdoc": {
    "kind": "user",
    "methods": {},
    "version": 1
  }
}