{
  "contractName": "Synthetic",
  "abi": [
    {
      "inputs": [
        {
          "internalType": "contract Oracle",
          "name": "_oracle",
          "type": "address"
        },
        {
          "internalType": "address",
          "name": "_treasuryAddress",
          "type": "address"
        },
        {
          "internalType": "address",
          "name": "_applicationAddress",
          "type": "address"
        },
        {
          "internalType": "string",
          "name": "_companyName",
          "type": "string"
        },
        {
          "internalType": "string",
          "name": "_companyId",
          "type": "string"
        },
        {
          "internalType": "string",
          "name": "_depotId",
          "type": "string"
        },
        {
          "internalType": "string",
          "name": "_name",
          "type": "string"
        },
        {
          "internalType": "string",
          "name": "_symbol",
          "type": "string"
        },
        {
          "internalType": "uint8",
          "name": "_decimals",
          "type": "uint8"
        }
      ],
      "stateMutability": "nonpayable",
      "type": "constructor"
    },
    {
      "anonymous": false,
      "inputs": [
        {
          "indexed": true,
          "internalType": "address",
          "name": "owner",
          "type": "address"
        },
        {
          "indexed": true,
          "internalType": "address",
          "name": "spender",
          "type": "address"
        },
        {
          "indexed": false,
          "internalType": "uint256",
          "name": "value",
          "type": "uint256"
        }
      ],
      "name": "Approval",
      "type": "event"
    },
    {
      "anonymous": false,
      "inputs": [
        {
          "indexed": false,
          "internalType": "uint256",
          "name": "index",
          "type": "uint256"
        }
      ],
      "name": "NewBuyOrder",
      "type": "event"
    },
    {
      "anonymous": false,
      "inputs": [
        {
          "indexed": false,
          "internalType": "uint256",
          "name": "index",
          "type": "uint256"
        }
      ],
      "name": "NewSellOrder",
      "type": "event"
    },
    {
      "anonymous": false,
      "inputs": [
        {
          "indexed": true,
          "internalType": "address",
          "name": "from",
          "type": "address"
        },
        {
          "indexed": true,
          "internalType": "address",
          "name": "to",
          "type": "address"
        },
        {
          "indexed": false,
          "internalType": "uint256",
          "name": "value",
          "type": "uint256"
        }
      ],
      "name": "Transfer",
      "type": "event"
    },
    {
      "inputs": [
        {
          "internalType": "address",
          "name": "",
          "type": "address"
        },
        {
          "internalType": "address",
          "name": "",
          "type": "address"
        }
      ],
      "name": "allowance",
      "outputs": [
        {
          "internalType": "uint256",
          "name": "",
          "type": "uint256"
        }
      ],
      "stateMutability": "view",
      "type": "function",
      "constant": true
    },
    {
      "inputs": [],
      "name": "applicationAddress",
      "outputs": [
        {
          "internalType": "address",
          "name": "",
          "type": "address"
        }
      ],
      "stateMutability": "view",
      "type": "function",
      "constant": true
    },
    {
      "inputs": [
        {
          "internalType": "address",
          "name": "delegate",
          "type": "address"
        },
        {
          "internalType": "uint256",
          "name": "numTokens",
          "type": "uint256"
        }
      ],
      "name": "approve",
      "outputs": [
        {
          "internalType": "bool",
          "name": "",
          "type": "bool"
        }
      ],
      "stateMutability": "nonpayable",
      "type": "function"
    },
    {
      "inputs": [],
      "name": "assetDetails",
      "outputs": [
        {
          "internalType": "string",
          "name": "companyName",
          "type": "string"
        },
        {
          "internalType": "string",
          "name": "companyId",
          "type": "string"
        },
        {
          "internalType": "string",
          "name": "depotId",
          "type": "string"
        },
        {
          "internalType": "string",
          "name": "assetName",
          "type": "string"
        },
        {
          "internalType": "string",
          "name": "assetSymbol",
          "type": "string"
        },
        {
          "internalType": "uint8",
          "name": "decimals",
          "type": "uint8"
        }
      ],
      "stateMutability": "view",
      "type": "function",
      "constant": true
    },
    {
      "inputs": [
        {
          "internalType": "address",
          "name": "",
          "type": "address"
        }
      ],
      "name": "balanceOf",
      "outputs": [
        {
          "internalType": "uint256",
          "name": "",
          "type": "uint256"
        }
      ],
      "stateMutability": "view",
      "type": "function",
      "constant": true
    },
    {
      "inputs": [],
      "name": "buyOrderCount",
      "outputs": [
        {
          "internalType": "uint256",
          "name": "",
          "type": "uint256"
        }
      ],
      "stateMutability": "view",
      "type": "function",
      "constant": true
    },
    {
      "inputs": [
        {
          "internalType": "uint256",
          "name": "",
          "type": "uint256"
        }
      ],
      "name": "buyOrders",
      "outputs": [
        {
          "internalType": "uint256",
          "name": "amount",
          "type": "uint256"
        },
        {
          "internalType": "enum Synthetic.OrderStates",
          "name": "state",
          "type": "uint8"
        },
        {
          "internalType": "uint256",
          "name": "createdAt",
          "type": "uint256"
        },
        {
          "internalType": "uint256",
          "name": "completedAt",
          "type": "uint256"
        }
      ],
      "stateMutability": "view",
      "type": "function",
      "constant": true
    },
    {
      "inputs": [],
      "name": "decimals",
      "outputs": [
        {
          "internalType": "uint8",
          "name": "",
          "type": "uint8"
        }
      ],
      "stateMutability": "view",
      "type": "function",
      "constant": true
    },
    {
      "inputs": [],
      "name": "name",
      "outputs": [
        {
          "internalType": "string",
          "name": "",
          "type": "string"
        }
      ],
      "stateMutability": "view",
      "type": "function",
      "constant": true
    },
    {
      "inputs": [],
      "name": "openOrderCount",
      "outputs": [
        {
          "internalType": "uint256",
          "name": "",
          "type": "uint256"
        }
      ],
      "stateMutability": "view",
      "type": "function",
      "constant": true
    },
    {
      "inputs": [],
      "name": "oracle",
      "outputs": [
        {
          "internalType": "contract Oracle",
          "name": "",
          "type": "address"
        }
      ],
      "stateMutability": "view",
      "type": "function",
      "constant": true
    },
    {
      "inputs": [],
      "name": "ownerAddress",
      "outputs": [
        {
          "internalType": "address",
          "name": "",
          "type": "address"
        }
      ],
      "stateMutability": "view",
      "type": "function",
      "constant": true
    },
    {
      "inputs": [],
      "name": "rebalancingRequired",
      "outputs": [
        {
          "internalType": "bool",
          "name": "",
          "type": "bool"
        }
      ],
      "stateMutability": "view",
      "type": "function",
      "constant": true
    },
    {
      "inputs": [],
      "name": "sellOrderCount",
      "outputs": [
        {
          "internalType": "uint256",
          "name": "",
          "type": "uint256"
        }
      ],
      "stateMutability": "view",
      "type": "function",
      "constant": true
    },
    {
      "inputs": [
        {
          "internalType": "uint256",
          "name": "",
          "type": "uint256"
        }
      ],
      "name": "sellOrders",
      "outputs": [
        {
          "internalType": "uint256",
          "name": "amount",
          "type": "uint256"
        },
        {
          "internalType": "enum Synthetic.OrderStates",
          "name": "state",
          "type": "uint8"
        },
        {
          "internalType": "uint256",
          "name": "createdAt",
          "type": "uint256"
        },
        {
          "internalType": "uint256",
          "name": "completedAt",
          "type": "uint256"
        }
      ],
      "stateMutability": "view",
      "type": "function",
      "constant": true
    },
    {
      "inputs": [],
      "name": "symbol",
      "outputs": [
        {
          "internalType": "string",
          "name": "",
          "type": "string"
        }
      ],
      "stateMutability": "view",
      "type": "function",
      "constant": true
    },
    {
      "inputs": [],
      "name": "totalSupply",
      "outputs": [
        {
          "internalType": "uint256",
          "name": "",
          "type": "uint256"
        }
      ],
      "stateMutability": "view",
      "type": "function",
      "constant": true
    },
    {
      "inputs": [
        {
          "internalType": "address",
          "name": "recipient",
          "type": "address"
        },
        {
          "internalType": "uint256",
          "name": "amount",
          "type": "uint256"
        }
      ],
      "name": "transfer",
      "outputs": [
        {
          "internalType": "bool",
          "name": "",
          "type": "bool"
        }
      ],
      "stateMutability": "nonpayable",
      "type": "function"
    },
    {
      "inputs": [
        {
          "internalType": "address",
          "name": "sender",
          "type": "address"
        },
        {
          "internalType": "address",
          "name": "recipient",
          "type": "address"
        },
        {
          "internalType": "uint256",
          "name": "amount",
          "type": "uint256"
        }
      ],
      "name": "transferFrom",
      "outputs": [
        {
          "internalType": "bool",
          "name": "success",
          "type": "bool"
        }
      ],
      "stateMutability": "nonpayable",
      "type": "function"
    },
    {
      "inputs": [],
      "name": "treasuryAddress",
      "outputs": [
        {
          "internalType": "address",
          "name": "",
          "type": "address"
        }
      ],
      "stateMutability": "view",
      "type": "function",
      "constant": true
    },
    {
      "inputs": [
        {
          "internalType": "address",
          "name": "newApplicationAddress",
          "type": "address"
        }
      ],
      "name": "setApplicationAddress",
      "outputs": [],
      "stateMutability": "nonpayable",
      "type": "function"
    },
    {
      "inputs": [
        {
          "internalType": "address",
          "name": "newTreasuryAddress",
          "type": "address"
        }
      ],
      "name": "setTreasuryAddress",
      "outputs": [],
      "stateMutability": "nonpayable",
      "type": "function"
    },
    {
      "inputs": [
        {
          "internalType": "uint256",
          "name": "amount",
          "type": "uint256"
        }
      ],
      "name": "mint",
      "outputs": [],
      "stateMutability": "payable",
      "type": "function",
      "payable": true
    },
    {
      "inputs": [
        {
          "internalType": "uint256",
          "name": "amount",
          "type": "uint256"
        }
      ],
      "name": "burn",
      "outputs": [
        {
          "internalType": "uint256",
          "name": "",
          "type": "uint256"
        }
      ],
      "stateMutability": "payable",
      "type": "function",
      "payable": true
    },
    {
      "inputs": [
        {
          "internalType": "uint256",
          "name": "index",
          "type": "uint256"
        }
      ],
      "name": "buyOrderCompleted",
      "outputs": [],
      "stateMutability": "nonpayable",
      "type": "function"
    },
    {
      "inputs": [
        {
          "internalType": "uint256",
          "name": "index",
          "type": "uint256"
        }
      ],
      "name": "sellOrderCompleted",
      "outputs": [],
      "stateMutability": "nonpayable",
      "type": "function"
    },
    {
      "inputs": [
        {
          "internalType": "uint256",
          "name": "amount",
          "type": "uint256"
        }
      ],
      "name": "withdraw",
      "outputs": [],
      "stateMutability": "payable",
      "type": "function",
      "payable": true
    }
  ],
  "bytecode": "0x60806040523480156200001157600080fd5b506040516200307e3803806200307e8339818101604052810190620000379190620004d2565b33600660006101000a81548173ffffffffffffffffffffffffffffffffffffffff021916908373ffffffffffffffffffffffffffffffffffffffff16021790555088601160006101000a81548173ffffffffffffffffffffffffffffffffffffffff021916908373ffffffffffffffffffffffffffffffffffffffff16021790555087600860006101000a81548173ffffffffffffffffffffffffffffffffffffffff021916908373ffffffffffffffffffffffffffffffffffffffff16021790555086600760006101000a81548173ffffffffffffffffffffffffffffffffffffffff021916908373ffffffffffffffffffffffffffffffffffffffff1602179055506040518060c001604052808781526020018681526020018581526020018481526020018381526020018260ff16815250600b600082015181600001908162000184919062000897565b5060208201518160010190816200019c919062000897565b506040820151816002019081620001b4919062000897565b506060820151816003019081620001cc919062000897565b506080820151816004019081620001e4919062000897565b5060a08201518160050160006101000a81548160ff021916908360ff16021790555090505082600090816200021a919062000897565b5081600190816200022c919062000897565b5080600260006101000a81548160ff021916908360ff1602179055505050505050505050506200097e565b6000604051905090565b600080fd5b600080fd5b600073ffffffffffffffffffffffffffffffffffffffff82169050919050565b600062000298826200026b565b9050919050565b6000620002ac826200028b565b9050919050565b620002be816200029f565b8114620002ca57600080fd5b50565b600081519050620002de81620002b3565b92915050565b620002ef816200028b565b8114620002fb57600080fd5b50565b6000815190506200030f81620002e4565b92915050565b600080fd5b600080fd5b6000601f19601f8301169050919050565b7f4e487b7100000000000000000000000000000000000000000000000000000000600052604160045260246000fd5b6200036a826200031f565b810181811067ffffffffffffffff821117156200038c576200038b62000330565b5b80604052505050565b6000620003a162000257565b9050620003af82826200035f565b919050565b600067ffffffffffffffff821115620003d257620003d162000330565b5b620003dd826200031f565b9050602081019050919050565b60005b838110156200040a578082015181840152602081019050620003ed565b60008484015250505050565b60006200042d6200042784620003b4565b62000395565b9050828152602081018484840111156200044c576200044b6200031a565b5b62000459848285620003ea565b509392505050565b600082601f83011262000479576200047862000315565b5b81516200048b84826020860162000416565b91505092915050565b600060ff82169050919050565b620004ac8162000494565b8114620004b857600080fd5b50565b600081519050620004cc81620004a1565b92915050565b60008060008060008060008060006101208a8c031215620004f857620004f762000261565b5b6000620005088c828d01620002cd565b99505060206200051b8c828d01620002fe565b98505060406200052e8c828d01620002fe565b97505060608a015167ffffffffffffffff81111562000552576200055162000266565b5b620005608c828d0162000461565b96505060808a015167ffffffffffffffff81111562000584576200058362000266565b5b620005928c828d0162000461565b95505060a08a015167ffffffffffffffff811115620005b657620005b562000266565b5b620005c48c828d0162000461565b94505060c08a015167ffffffffffffffff811115620005e857620005e762000266565b5b620005f68c828d0162000461565b93505060e08a015167ffffffffffffffff8111156200061a576200061962000266565b5b620006288c828d0162000461565b9250506101006200063c8c828d01620004bb565b9150509295985092959850929598565b600081519050919050565b7f4e487b7100000000000000000000000000000000000000000000000000000000600052602260045260246000fd5b600060028204905060018216806200069f57607f821691505b602082108103620006b557620006b462000657565b5b50919050565b60008190508160005260206000209050919050565b60006020601f8301049050919050565b600082821b905092915050565b6000600883026200071f7fffffffffffffffffffffffffffffffffffffffffffffffffffffffffffffffff82620006e0565b6200072b8683620006e0565b95508019841693508086168417925050509392505050565b6000819050919050565b6000819050919050565b600062000778620007726200076c8462000743565b6200074d565b62000743565b9050919050565b6000819050919050565b620007948362000757565b620007ac620007a3826200077f565b848454620006ed565b825550505050565b600090565b620007c3620007b4565b620007d081848462000789565b505050565b5b81811015620007f857620007ec600082620007b9565b600181019050620007d6565b5050565b601f82111562000847576200081181620006bb565b6200081c84620006d0565b810160208510156200082c578190505b620008446200083b85620006d0565b830182620007d5565b50505b505050565b600082821c905092915050565b60006200086c600019846008026200084c565b1980831691505092915050565b600062000887838362000859565b9150826002028217905092915050565b620008a2826200064c565b67ffffffffffffffff811115620008be57620008bd62000330565b5b620008ca825462000686565b620008d7828285620007fc565b600060209050601f8311600181146200090f5760008415620008fa578287015190505b62000906858262000879565b86555062000976565b601f1984166200091f86620006bb565b60005b82811015620009495784890151825560018201915060208501945060208101905062000922565b8683101562000969578489015162000965601f89168262000859565b8355505b6001600288020188555050505b505050505050565b6126f0806200098e6000396000f3fe60806040526004361061019c5760003560e01c80636605bfda116100ec57806395d89b411161008a578063c5f956af11610064578063c5f956af146105d4578063d1e3175a146105ff578063dd62ed3e1461062a578063f58c7acf146106675761019c565b806395d89b4114610550578063a0712d681461057b578063a9059cbb146105975761019c565b80638bed9d18116100c65780638bed9d18146104a15780638c405071146104cc5780638f63ed90146104fc5780638f84aa09146105255761019c565b80636605bfda1461041057806370a08231146104395780637dc0d1d0146104765761019c565b8063313ce5671161015957806342966c681161013357806342966c681461034c5780634a8393f31461037c5780635b0a0988146103bc5780635c14641a146103e75761019c565b8063313ce567146102b857806335cea288146102e35780633c78adc5146103235761019c565b80630344589f146101a157806306fdde03146101cc578063095ea7b3146101f757806318160ddd1461023457806323b872dd1461025f5780632e1a7d4d1461029c575b600080fd5b3480156101ad57600080fd5b506101b6610692565b6040516101c39190611c02565b60405180910390f35b3480156101d857600080fd5b506101e16106a5565b6040516101ee9190611cad565b60405180910390f35b34801561020357600080fd5b5061021e60048036038101906102199190611d68565b610733565b60405161022b9190611c02565b60405180910390f35b34801561024057600080fd5b50610249610825565b6040516102569190611db7565b60405180910390f35b34801561026b57600080fd5b5061028660048036038101906102819190611dd2565b61082b565b6040516102939190611c02565b60405180910390f35b6102b660048036038101906102b19190611e25565b61095f565b005b3480156102c457600080fd5b506102cd6109d3565b6040516102da9190611e6e565b60405180910390f35b3480156102ef57600080fd5b5061030a60048036038101906103059190611e25565b6109e6565b60405161031a9493929190611f00565b60405180910390f35b34801561032f57600080fd5b5061034a60048036038101906103459190611e25565b610a33565b005b61036660048036038101906103619190611e25565b610ad0565b6040516103739190611db7565b60405180910390f35b34801561038857600080fd5b506103a3600480360381019061039e9190611e25565b610e82565b6040516103b39493929190611f00565b60405180910390f35b3480156103c857600080fd5b506103d1610ecf565b6040516103de9190611db7565b60405180910390f35b3480156103f357600080fd5b5061040e60048036038101906104099190611e25565b610ed5565b005b34801561041c57600080fd5b5061043760048036038101906104329190611f45565b610f72565b005b34801561044557600080fd5b50610460600480360381019061045b9190611f45565b610fbe565b60405161046d9190611db7565b60405180910390f35b34801561048257600080fd5b5061048b610fd6565b6040516104989190611fd1565b60405180910390f35b3480156104ad57600080fd5b506104b6610ffc565b6040516104c39190611ffb565b60405180910390f35b3480156104d857600080fd5b506104e1611022565b6040516104f396959493929190612016565b60405180910390f35b34801561050857600080fd5b50610523600480360381019061051e9190611f45565b611301565b005b34801561053157600080fd5b5061053a61134d565b6040516105479190611ffb565b60405180910390f35b34801561055c57600080fd5b50610565611373565b6040516105729190611cad565b60405180910390f35b61059560048036038101906105909190611e25565b611401565b005b3480156105a357600080fd5b506105be60048036038101906105b99190611d68565b61166b565b6040516105cb9190611c02565b60405180910390f35b3480156105e057600080fd5b506105e9611682565b6040516105f69190611ffb565b60405180910390f35b34801561060b57600080fd5b506106146116a8565b6040516106219190611db7565b60405180910390f35b34801561063657600080fd5b50610651600480360381019061064c919061209a565b6116ae565b60405161065e9190611db7565b60405180910390f35b34801561067357600080fd5b5061067c6116d3565b6040516106899190611db7565b60405180910390f35b601560009054906101000a900460ff1681565b600080546106b290612109565b80601f01602080910402602001604051908101604052809291908181526020018280546106de90612109565b801561072b5780601f106107005761010080835404028352916020019161072b565b820191906000526020600020905b81548152906001019060200180831161070e57829003601f168201915b505050505081565b600081600560003373ffffffffffffffffffffffffffffffffffffffff1673ffffffffffffffffffffffffffffffffffffffff16815260200190815260200160002060008573ffffffffffffffffffffffffffffffffffffffff1673ffffffffffffffffffffffffffffffffffffffff168152602001908152602001600020819055508273ffffffffffffffffffffffffffffffffffffffff163373ffffffffffffffffffffffffffffffffffffffff167f8c5be1e5ebec7d5bd14f71427d1e84f3dd0314c0f7b2291e5b200ac8c7c3b925846040516108139190611db7565b60405180910390a36001905092915050565b60035481565b6000600560008573ffffffffffffffffffffffffffffffffffffffff1673ffffffffffffffffffffffffffffffffffffffff16815260200190815260200160002060003373ffffffffffffffffffffffffffffffffffffffff1673ffffffffffffffffffffffffffffffffffffffff168152602001908152602001600020548211156108b657600080fd5b81600560008673ffffffffffffffffffffffffffffffffffffffff1673ffffffffffffffffffffffffffffffffffffffff16815260200190815260200160002060003373ffffffffffffffffffffffffffffffffffffffff1673ffffffffffffffffffffffffffffffffffffffff16815260200190815260200160002060008282546109429190612169565b925050819055506109548484846116d9565b600190509392505050565b610967611a31565b600760009054906101000a900473ffffffffffffffffffffffffffffffffffffffff1673ffffffffffffffffffffffffffffffffffffffff166108fc829081150290604051600060405180830381858888f193505050501580156109cf573d6000803e3d6000fd5b5050565b600260009054906101000a900460ff1681565b600981815481106109f657600080fd5b90600052602060002090600402016000915090508060000154908060010160009054906101000a900460ff16908060020154908060030154905084565b610a3b611a31565b6001600a8281548110610a5157610a5061219d565b5b906000526020600020906004020160010160006101000a81548160ff02191690836001811115610a8457610a83611e89565b5b021790555042600a8281548110610a9e57610a9d61219d565b5b906000526020600020906004020160030181905550600160146000828254610ac69190612169565b9250508190555050565b6000610ada611ac3565b8160036000828254610aec9190612169565b9250508190555081600460003373ffffffffffffffffffffffffffffffffffffffff1673ffffffffffffffffffffffffffffffffffffffff1681526020019081526020016000206000828254610b429190612169565b92505081905550600a604051806080016040528084815260200160006001811115610b7057610b6f611e89565b5b8152602001428152602001600081525090806001815401808255809150506001900390600052602060002090600402016000909190919091506000820151816000015560208201518160010160006101000a81548160ff02191690836001811115610bde57610bdd611e89565b5b02179055506040820151816002015560608201518160030155505060126000815480929190610c0c906121cc565b919050555060146000815480929190610c24906121cc565b91905055506000601160009054906101000a900473ffffffffffffffffffffffffffffffffffffffff1673ffffffffffffffffffffffffffffffffffffffff166341976e09306040518263ffffffff1660e01b8152600401610c869190611ffb565b6040805180830381865afa158015610ca2573d6000803e3d6000fd5b505050506040513d601f19601f82011682018060405250810190610cc69190612229565b5090506000600260009054906101000a900460ff16600a610ce7919061239c565b8483610cf391906123e7565b610cfd9190612470565b9050600860009054906101000a900473ffffffffffffffffffffffffffffffffffffffff1673ffffffffffffffffffffffffffffffffffffffff166108fc829081150290604051600060405180830381858888f19350505050158015610d67573d6000803e3d6000fd5b507fe0232d77d171772b880cdfeeb8a2fe04815bf5df09b992fff14acc018907db0f6001601254610d989190612169565b604051610da59190611db7565b60405180910390a13073ffffffffffffffffffffffffffffffffffffffff163373ffffffffffffffffffffffffffffffffffffffff167fddf252ad1be2c89b69c2b068fc378daa952ba7f163c4a11628f55a4df523b3ef86604051610e0a9190611db7565b60405180910390a3600073ffffffffffffffffffffffffffffffffffffffff163073ffffffffffffffffffffffffffffffffffffffff167fddf252ad1be2c89b69c2b068fc378daa952ba7f163c4a11628f55a4df523b3ef86604051610e709190611db7565b60405180910390a38092505050919050565b600a8181548110610e9257600080fd5b90600052602060002090600402016000915090508060000154908060010160009054906101000a900460ff16908060020154908060030154905084565b60145481565b610edd611a31565b600160098281548110610ef357610ef261219d565b5b906000526020600020906004020160010160006101000a81548160ff02191690836001811115610f2657610f25611e89565b5b02179055504260098281548110610f4057610f3f61219d565b5b906000526020600020906004020160030181905550600160146000828254610f689190612169565b9250508190555050565b610f7a611b55565b80600860006101000a81548173ffffffffffffffffffffffffffffffffffffffff021916908373ffffffffffffffffffffffffffffffffffffffff16021790555050565b60046020528060005260406000206000915090505481565b601160009054906101000a900473ffffffffffffffffffffffffffffffffffffffff1681565b600760009054906101000a900473ffffffffffffffffffffffffffffffffffffffff1681565b600b80600001805461103390612109565b80601f016020809104026020016040519081016040528092919081815260200182805461105f90612109565b80156110ac5780601f10611081576101008083540402835291602001916110ac565b820191906000526020600020905b81548152906001019060200180831161108f57829003601f168201915b5050505050908060010180546110c190612109565b80601f01602080910402602001604051908101604052809291908181526020018280546110ed90612109565b801561113a5780601f1061110f5761010080835404028352916020019161113a565b820191906000526020600020905b81548152906001019060200180831161111d57829003601f168201915b50505050509080600201805461114f90612109565b80601f016020809104026020016040519081016040528092919081815260200182805461117b90612109565b80156111c85780601f1061119d576101008083540402835291602001916111c8565b820191906000526020600020905b8154815290600101906020018083116111ab57829003601f168201915b5050505050908060030180546111dd90612109565b80601f016020809104026020016040519081016040528092919081815260200182805461120990612109565b80156112565780601f1061122b57610100808354040283529160200191611256565b820191906000526020600020905b81548152906001019060200180831161123957829003601f168201915b50505050509080600401805461126b90612109565b80601f016020809104026020016040519081016040528092919081815260200182805461129790612109565b80156112e45780601f106112b9576101008083540402835291602001916112e4565b820191906000526020600020905b8154815290600101906020018083116112c757829003601f168201915b5050505050908060050160009054906101000a900460ff16905086565b611309611b55565b80600760006101000a81548173ffffffffffffffffffffffffffffffffffffffff021916908373ffffffffffffffffffffffffffffffffffffffff16021790555050565b600660009054906101000a900473ffffffffffffffffffffffffffffffffffffffff1681565b6001805461138090612109565b80601f01602080910402602001604051908101604052809291908181526020018280546113ac90612109565b80156113f95780601f106113ce576101008083540402835291602001916113f9565b820191906000526020600020905b8154815290600101906020018083116113dc57829003601f168201915b505050505081565b611409611ac3565b806003600082825461141b91906124a1565b9250508190555080600460003373ffffffffffffffffffffffffffffffffffffffff1673ffffffffffffffffffffffffffffffffffffffff168152602001908152602001600020600082825461147191906124a1565b92505081905550600960405180608001604052808381526020016000600181111561149f5761149e611e89565b5b8152602001428152602001600081525090806001815401808255809150506001900390600052602060002090600402016000909190919091506000820151816000015560208201518160010160006101000a81548160ff0219169083600181111561150d5761150c611e89565b5b0217905550604082015181600201556060820151816003015550506013600081548092919061153b906121cc565b919050555060146000815480929190611553906121cc565b91905055507f0ca43a2adc94ce34b28e04ec56958bd76d55f40948069bde3c1b2d9d28eac1a760016013546115889190612169565b6040516115959190611db7565b60405180910390a13073ffffffffffffffffffffffffffffffffffffffff16600073ffffffffffffffffffffffffffffffffffffffff167fddf252ad1be2c89b69c2b068fc378daa952ba7f163c4a11628f55a4df523b3ef836040516115fb9190611db7565b60405180910390a33373ffffffffffffffffffffffffffffffffffffffff163073ffffffffffffffffffffffffffffffffffffffff167fddf252ad1be2c89b69c2b068fc378daa952ba7f163c4a11628f55a4df523b3ef836040516116609190611db7565b60405180910390a350565b60006116783384846116d9565b6001905092915050565b600860009054906101000a900473ffffffffffffffffffffffffffffffffffffffff1681565b60135481565b6005602052816000526040600020602052806000526040600020600091509150505481565b60125481565b600073ffffffffffffffffffffffffffffffffffffffff168273ffffffffffffffffffffffffffffffffffffffff160361171257600080fd5b80600460008573ffffffffffffffffffffffffffffffffffffffff1673ffffffffffffffffffffffffffffffffffffffff16815260200190815260200160002054101561175e57600080fd5b600460008373ffffffffffffffffffffffffffffffffffffffff1673ffffffffffffffffffffffffffffffffffffffff1681526020019081526020016000205481600460008573ffffffffffffffffffffffffffffffffffffffff1673ffffffffffffffffffffffffffffffffffffffff168152602001908152602001600020546117e991906124a1565b116117f357600080fd5b6000600460008473ffffffffffffffffffffffffffffffffffffffff1673ffffffffffffffffffffffffffffffffffffffff16815260200190815260200160002054600460008673ffffffffffffffffffffffffffffffffffffffff1673ffffffffffffffffffffffffffffffffffffffff1681526020019081526020016000205461187f91906124a1565b905081600460008673ffffffffffffffffffffffffffffffffffffffff1673ffffffffffffffffffffffffffffffffffffffff16815260200190815260200160002060008282546118d09190612169565b9250508190555081600460008573ffffffffffffffffffffffffffffffffffffffff1673ffffffffffffffffffffffffffffffffffffffff168152602001908152602001600020600082825461192691906124a1565b925050819055508273ffffffffffffffffffffffffffffffffffffffff168473ffffffffffffffffffffffffffffffffffffffff167fddf252ad1be2c89b69c2b068fc378daa952ba7f163c4a11628f55a4df523b3ef8460405161198a9190611db7565b60405180910390a380600460008573ffffffffffffffffffffffffffffffffffffffff1673ffffffffffffffffffffffffffffffffffffffff16815260200190815260200160002054600460008773ffffffffffffffffffffffffffffffffffffffff1673ffffffffffffffffffffffffffffffffffffffff16815260200190815260200160002054611a1d91906124a1565b14611a2b57611a2a6124d5565b5b50505050565b3373ffffffffffffffffffffffffffffffffffffffff16600760009054906101000a900473ffffffffffffffffffffffffffffffffffffffff1673ffffffffffffffffffffffffffffffffffffffff1614611ac1576040517f08c379a0000000000000000000000000000000000000000000000000000000008152600401611ab890612576565b60405180910390fd5b565b600860009054906101000a900473ffffffffffffffffffffffffffffffffffffffff1673ffffffffffffffffffffffffffffffffffffffff163373ffffffffffffffffffffffffffffffffffffffff1614611b53576040517f08c379a0000000000000000000000000000000000000000000000000000000008152600401611b4a90612608565b60405180910390fd5b565b600660009054906101000a900473ffffffffffffffffffffffffffffffffffffffff1673ffffffffffffffffffffffffffffffffffffffff163373ffffffffffffffffffffffffffffffffffffffff1614611be5576040517f08c379a0000000000000000000000000000000000000000000000000000000008152600401611bdc9061269a565b60405180910390fd5b565b60008115159050919050565b611bfc81611be7565b82525050565b6000602082019050611c176000830184611bf3565b92915050565b600081519050919050565b600082825260208201905092915050565b60005b83811015611c57578082015181840152602081019050611c3c565b60008484015250505050565b6000601f19601f8301169050919050565b6000611c7f82611c1d565b611c898185611c28565b9350611c99818560208601611c39565b611ca281611c63565b840191505092915050565b60006020820190508181036000830152611cc78184611c74565b905092915050565b600080fd5b600073ffffffffffffffffffffffffffffffffffffffff82169050919050565b6000611cff82611cd4565b9050919050565b611d0f81611cf4565b8114611d1a57600080fd5b50565b600081359050611d2c81611d06565b92915050565b6000819050919050565b611d4581611d32565b8114611d5057600080fd5b50565b600081359050611d6281611d3c565b92915050565b60008060408385031215611d7f57611d7e611ccf565b5b6000611d8d85828601611d1d565b9250506020611d9e85828601611d53565b9150509250929050565b611db181611d32565b82525050565b6000602082019050611dcc6000830184611da8565b92915050565b600080600060608486031215611deb57611dea611ccf565b5b6000611df986828701611d1d565b9350506020611e0a86828701611d1d565b9250506040611e1b86828701611d53565b9150509250925092565b600060208284031215611e3b57611e3a611ccf565b5b6000611e4984828501611d53565b91505092915050565b600060ff82169050919050565b611e6881611e52565b82525050565b6000602082019050611e836000830184611e5f565b92915050565b7f4e487b7100000000000000000000000000000000000000000000000000000000600052602160045260246000fd5b60028110611ec957611ec8611e89565b5b50565b6000819050611eda82611eb8565b919050565b6000611eea82611ecc565b9050919050565b611efa81611edf565b82525050565b6000608082019050611f156000830187611da8565b611f226020830186611ef1565b611f2f6040830185611da8565b611f3c6060830184611da8565b95945050505050565b600060208284031215611f5b57611f5a611ccf565b5b6000611f6984828501611d1d565b91505092915050565b6000819050919050565b6000611f97611f92611f8d84611cd4565b611f72565b611cd4565b9050919050565b6000611fa982611f7c565b9050919050565b6000611fbb82611f9e565b9050919050565b611fcb81611fb0565b82525050565b6000602082019050611fe66000830184611fc2565b92915050565b611ff581611cf4565b82525050565b60006020820190506120106000830184611fec565b92915050565b600060c08201905081810360008301526120308189611c74565b905081810360208301526120448188611c74565b905081810360408301526120588187611c74565b9050818103606083015261206c8186611c74565b905081810360808301526120808185611c74565b905061208f60a0830184611e5f565b979650505050505050565b600080604083850312156120b1576120b0611ccf565b5b60006120bf85828601611d1d565b92505060206120d085828601611d1d565b9150509250929050565b7f4e487b7100000000000000000000000000000000000000000000000000000000600052602260045260246000fd5b6000600282049050600182168061212157607f821691505b602082108103612134576121336120da565b5b50919050565b7f4e487b7100000000000000000000000000000000000000000000000000000000600052601160045260246000fd5b600061217482611d32565b915061217f83611d32565b92508282039050818111156121975761219661213a565b5b92915050565b7f4e487b7100000000000000000000000000000000000000000000000000000000600052603260045260246000fd5b60006121d782611d32565b91507fffffffffffffffffffffffffffffffffffffffffffffffffffffffffffffffff82036122095761220861213a565b5b600182019050919050565b60008151905061222381611d3c565b92915050565b600080604083850312156122405761223f611ccf565b5b600061224e85828601612214565b925050602061225f85828601612214565b9150509250929050565b60008160011c9050919050565b6000808291508390505b60018511156122c05780860481111561229c5761229b61213a565b5b60018516156122ab5780820291505b80810290506122b985612269565b9450612280565b94509492505050565b6000826122d95760019050612395565b816122e75760009050612395565b81600181146122fd576002811461230757612336565b6001915050612395565b60ff8411156123195761231861213a565b5b8360020a9150848211156123305761232f61213a565b5b50612395565b5060208310610133831016604e8410600b841016171561236b5782820a9050838111156123665761236561213a565b5b612395565b6123788484846001612276565b9250905081840481111561238f5761238e61213a565b5b81810290505b9392505050565b60006123a782611d32565b91506123b283611e52565b92506123df7fffffffffffffffffffffffffffffffffffffffffffffffffffffffffffffffff84846122c9565b905092915050565b60006123f282611d32565b91506123fd83611d32565b9250817fffffffffffffffffffffffffffffffffffffffffffffffffffffffffffffffff04831182151516156124365761243561213a565b5b828202905092915050565b7f4e487b7100000000000000000000000000000000000000000000000000000000600052601260045260246000fd5b600061247b82611d32565b915061248683611d32565b92508261249657612495612441565b5b828204905092915050565b60006124ac82611d32565b91506124b783611d32565b92508282019050808211156124cf576124ce61213a565b5b92915050565b7f4e487b7100000000000000000000000000000000000000000000000000000000600052600160045260246000fd5b7f43616c6c6572206d75737420626520746865206170706c69636174696f6e206160008201527f63636f756e742100000000000000000000000000000000000000000000000000602082015250565b6000612560602783611c28565b915061256b82612504565b604082019050919050565b6000602082019050818103600083015261258f81612553565b9050919050565b7f43616c6c6572206d7573742062652074686520747265617375727920636f6e7460008201527f7261637421000000000000000000000000000000000000000000000000000000602082015250565b60006125f2602583611c28565b91506125fd82612596565b604082019050919050565b60006020820190508181036000830152612621816125e5565b9050919050565b7f43616c6c6572206d7573742062652074686520636f6e7472616374206f776e6560008201527f7221000000000000000000000000000000000000000000000000000000000000602082015250565b6000612684602283611c28565b915061268f82612628565b604082019050919050565b600060208201905081810360008301526126b381612677565b905091905056fea2646970667358221220bd9f6c257113a62be2a7ba7aa03ed794adde89a7d3eec369c46c8f3b89d983e864736f6c63430008100033",
  "immutableReferences": {},
  "source": "pragma solidity ^0.8.16;\n\nimport \"./TokenERC20.sol\";\nimport \"./Oracle.sol\";\n\ncontract Synthetic is TokenERC20 {\n    enum OrderStates {\n        Open,\n        Completed\n    }\n\n    struct Order {\n        uint256 amount;\n        OrderStates state;\n        uint256 createdAt;\n        uint256 completedAt;\n    }\n\n    struct AssetDetails {\n        string companyName;\n        string companyId;\n        string depotId;\n        string assetName;\n        string assetSymbol;\n        uint8 decimals;\n    }\n\n    address public ownerAddress;\n    address public applicationAddress;\n    address public treasuryAddress;\n\n    Order[] public buyOrders;\n    Order[] public sellOrders;\n    AssetDetails public assetDetails;\n    Oracle public oracle;\n\n    uint256 public sellOrderCount;\n    uint256 public buyOrderCount;\n    uint256 public openOrderCount;\n    bool public rebalancingRequired;\n\n    constructor(\n        Oracle _oracle,\n        address _treasuryAddress,\n        address _applicationAddress,\n        string memory _companyName,\n        string memory _companyId,\n        string memory _depotId,\n        string memory _name,\n        string memory _symbol,\n        uint8 _decimals\n    ) {\n        ownerAddress = msg.sender;\n        oracle = _oracle;\n        treasuryAddress = _treasuryAddress;\n        applicationAddress = _applicationAddress; \n        assetDetails = AssetDetails(\n            _companyName,\n            _companyId,\n            _depotId,\n            _name,\n            _symbol,\n            _decimals\n        );\n        name = _name;\n        symbol = _symbol;\n        decimals = _decimals;\n    }\n\n    function _onlyOwner() private view {\n        require(\n            msg.sender == ownerAddress,\n            \"Caller must be the contract owner!\"\n        );\n    }\n\n    modifier onlyOwner() {\n        _onlyOwner();\n        _;\n    }\n\n    function _onlyApplication() private view {\n        require(\n            applicationAddress == msg.sender,\n            \"Caller must be the application account!\"\n        );\n    }\n\n    modifier onlyApplication() {\n        _onlyApplication();\n        _;\n    }\n\n    function _onlyTreasury() private view {\n        require(\n            msg.sender == treasuryAddress,\n            \"Caller must be the treasury contract!\"\n        );\n    }\n\n    modifier onlyTreasury() {\n        _onlyTreasury();\n        _;\n    }\n\n    event NewBuyOrder(uint256 index);\n    event NewSellOrder(uint256 index);\n\n    function setApplicationAddress(address newApplicationAddress)\n        public\n        onlyOwner\n    {\n        applicationAddress = newApplicationAddress;\n    }\n\n    function setTreasuryAddress(address newTreasuryAddress) public onlyOwner {\n        treasuryAddress = newTreasuryAddress;\n    }\n\n    function mint(uint256 amount) public payable onlyTreasury {\n        totalSupply += amount;\n        balanceOf[msg.sender] += amount;\n        buyOrders.push(Order(amount, OrderStates.Open, block.timestamp, 0));\n        buyOrderCount++;\n        openOrderCount++;\n        emit NewBuyOrder(buyOrderCount - 1);\n        emit Transfer(address(0), address(this), amount);\n        emit Transfer(address(this), msg.sender, amount);\n    }\n\n    function burn(uint256 amount)\n        public\n        payable\n        onlyTreasury\n        returns (uint256)\n    {\n        totalSupply -= amount;\n        balanceOf[msg.sender] -= amount;\n        sellOrders.push(Order(amount, OrderStates.Open, block.timestamp, 0));\n        sellOrderCount++;\n        openOrderCount++;\n        (uint256 price, ) = oracle.getPrice(address(this));\n        uint256 cost = price * amount / (10**decimals);\n        payable(treasuryAddress).transfer(cost);\n        emit NewSellOrder(sellOrderCount - 1);\n        emit Transfer(msg.sender, address(this), amount);\n        emit Transfer(address(this), address(0), amount);\n        return cost;\n    }\n\n    function buyOrderCompleted(uint256 index) public onlyApplication {\n        buyOrders[index].state = OrderStates.Completed;\n        buyOrders[index].completedAt = block.timestamp;\n        openOrderCount -= 1;\n    }\n\n    function sellOrderCompleted(uint256 index) public onlyApplication {\n        sellOrders[index].state = OrderStates.Completed;\n        sellOrders[index].completedAt = block.timestamp;\n        openOrderCount -= 1;\n    }\n\n    function withdraw(uint256 amount) public payable onlyApplication {\n        payable(applicationAddress).transfer(amount);\n    }\n}\n",
  "sourcePath": "/home/d4fttasiii/git/al_fundy/src/fund-contract/contracts/Synthetic.sol",
  "compiler": {
    "name": "solc",
    "version": "0.8.16+commit.07a7930e.Emscripten.clang"
  },
  "schemaVersion": "3.4.9",
  "updatedAt": "2022-11-12T16:44:37.989Z",
  "networkType": "ethereum",
  "devdoc": {
    "kind": "dev",
    "methods": {
      "approve(address,uint256)": {
        "params": {
          "delegate": "The address authorized to spend",
          "numTokens": "the max amount they can spend"
        }
      },
      "transfer(address,uint256)": {
        "params": {
          "amount": "the amount to send",
          "recipient": "The address of the recipient"
        }
      },
      "transferFrom(address,address,uint256)": {
        "params": {
          "amount": "the amount to send",
          "recipient": "The address of the recipient",
          "sender": "The address of the sender"
        }
      }
    },
    "version": 1
  },
  "userdoc": {
    "kind": "user",
    "methods": {
      "approve(address,uint256)": {
        "notice": "Set allowance for other address Allows `_spender` to spend no more than `_value` tokens in your behalf"
      },
      "transfer(address,uint256)": {
        "notice": "Transfer tokens Send `_value` tokens to `_to` from your account"
      },
      "transferFrom(address,address,uint256)": {
        "notice": "Transfer tokens from other address Send `_value` tokens to `_to` in behalf of `_from`"
      }
    },
    "version": 1
  }
}