{
  "contractName": "Treasury",
  "abi": [
    {
      "inputs": [
        {
          "internalType": "address",
          "name": "_uniswapRouterAddress",
          "type": "address"
        }
      ],
      "stateMutability": "nonpayable",
      "type": "constructor"
    },
    {
      "inputs": [],
      "name": "fundAddress",
      "outputs": [
        {
          "internalType": "address",
          "name": "",
          "type": "address"
        }
      ],
      "stateMutability": "view",
      "type": "function"
    },
    {
      "inputs": [],
      "name": "ownerAddress",
      "outputs": [
        {
          "internalType": "address",
          "name": "",
          "type": "address"
        }
      ],
      "stateMutability": "view",
      "type": "function"
    },
    {
      "inputs": [],
      "name": "uniswapRouter",
      "outputs": [
        {
          "internalType": "contract IUniswapV2Router02",
          "name": "",
          "type": "address"
        }
      ],
      "stateMutability": "view",
      "type": "function"
    },
    {
      "stateMutability": "payable",
      "type": "receive"
    },
    {
      "inputs": [
        {
          "internalType": "address",
          "name": "newfundAddress",
          "type": "address"
        }
      ],
      "name": "setFundAddress",
      "outputs": [],
      "stateMutability": "nonpayable",
      "type": "function"
    },
    {
      "inputs": [
        {
          "internalType": "address",
          "name": "assetAddress",
          "type": "address"
        },
        {
          "internalType": "uint8",
          "name": "assetType",
          "type": "uint8"
        }
      ],
      "name": "addAsset",
      "outputs": [],
      "stateMutability": "nonpayable",
      "type": "function"
    },
    {
      "inputs": [
        {
          "internalType": "address",
          "name": "assetAddress",
          "type": "address"
        },
        {
          "internalType": "uint256",
          "name": "amount",
          "type": "uint256"
        }
      ],
      "name": "buyAsset",
      "outputs": [],
      "stateMutability": "payable",
      "type": "function"
    },
    {
      "inputs": [
        {
          "internalType": "address",
          "name": "assetAddress",
          "type": "address"
        },
        {
          "internalType": "uint256",
          "name": "amount",
          "type": "uint256"
        }
      ],
      "name": "sellAsset",
      "outputs": [],
      "stateMutability": "payable",
      "type": "function"
    },
    {
      "inputs": [
        {
          "internalType": "address",
          "name": "recipient",
          "type": "address"
        },
        {
          "internalType": "uint256",
          "name": "amount",
          "type": "uint256"
        }
      ],
      "name": "withdraw",
      "outputs": [],
      "stateMutability": "payable",
      "type": "function"
    },
    {
      "inputs": [
        {
          "internalType": "address",
          "name": "assetAddress",
          "type": "address"
        }
      ],
      "name": "getBalanceOf",
      "outputs": [
        {
          "internalType": "uint256",
          "name": "",
          "type": "uint256"
        }
      ],
      "stateMutability": "view",
      "type": "function"
    }
  ],
  "bytecode": "0x60806040523480156200001157600080fd5b5060405162001ff038038062001ff0833981810160405281019062000037919062000228565b33600160006101000a81548173ffffffffffffffffffffffffffffffffffffffff021916908373ffffffffffffffffffffffffffffffffffffffff160217905550806000806101000a81548173ffffffffffffffffffffffffffffffffffffffff021916908373ffffffffffffffffffffffffffffffffffffffff1602179055506040518060400160405280600173ffffffffffffffffffffffffffffffffffffffff16815260200160006003811115620000f757620000f66200025a565b5b81525060036000600173ffffffffffffffffffffffffffffffffffffffff1673ffffffffffffffffffffffffffffffffffffffff16815260200190815260200160002060008201518160000160006101000a81548173ffffffffffffffffffffffffffffffffffffffff021916908373ffffffffffffffffffffffffffffffffffffffff16021790555060208201518160000160146101000a81548160ff02191690836003811115620001af57620001ae6200025a565b5b02179055509050505062000289565b600080fd5b600073ffffffffffffffffffffffffffffffffffffffff82169050919050565b6000620001f082620001c3565b9050919050565b6200020281620001e3565b81146200020e57600080fd5b50565b6000815190506200022281620001f7565b92915050565b600060208284031215620002415762000240620001be565b5b6000620002518482850162000211565b91505092915050565b7f4e487b7100000000000000000000000000000000000000000000000000000000600052602160045260246000fd5b611d5780620002996000396000f3fe60806040526004361061008a5760003560e01c8063938c7c3a11610059578063938c7c3a1461013e5780639b96eece1461015a578063d3e38dae14610197578063e82bef29146101b3578063f3fef3a3146101de57610091565b80636127548a14610096578063735de9f7146100bf57806385dc3004146100ea5780638f84aa091461011357610091565b3661009157005b600080fd5b3480156100a257600080fd5b506100bd60048036038101906100b89190611471565b6101fa565b005b3480156100cb57600080fd5b506100d461056f565b6040516100e19190611510565b60405180910390f35b3480156100f657600080fd5b50610111600480360381019061010c919061152b565b610593565b005b34801561011f57600080fd5b506101286105df565b6040516101359190611567565b60405180910390f35b610158600480360381019061015391906115b8565b610605565b005b34801561016657600080fd5b50610181600480360381019061017c919061152b565b61080d565b60405161018e9190611607565b60405180910390f35b6101b160048036038101906101ac91906115b8565b610adc565b005b3480156101bf57600080fd5b506101c8610ce3565b6040516101d59190611567565b60405180910390f35b6101f860048036038101906101f391906115b8565b610d09565b005b610202610d5c565b60018160ff161015801561021a575060048160ff1611155b610259576040517f08c379a0000000000000000000000000000000000000000000000000000000008152600401610250906116a5565b60405180910390fd5b60018160ff16036103605760405180604001604052808373ffffffffffffffffffffffffffffffffffffffff1681526020016001600381111561029f5761029e6116c5565b5b815250600360008473ffffffffffffffffffffffffffffffffffffffff1673ffffffffffffffffffffffffffffffffffffffff16815260200190815260200160002060008201518160000160006101000a81548173ffffffffffffffffffffffffffffffffffffffff021916908373ffffffffffffffffffffffffffffffffffffffff16021790555060208201518160000160146101000a81548160ff02191690836003811115610353576103526116c5565b5b021790555090505061056b565b60028160ff16036104675760405180604001604052808373ffffffffffffffffffffffffffffffffffffffff168152602001600260038111156103a6576103a56116c5565b5b815250600360008473ffffffffffffffffffffffffffffffffffffffff1673ffffffffffffffffffffffffffffffffffffffff16815260200190815260200160002060008201518160000160006101000a81548173ffffffffffffffffffffffffffffffffffffffff021916908373ffffffffffffffffffffffffffffffffffffffff16021790555060208201518160000160146101000a81548160ff0219169083600381111561045a576104596116c5565b5b021790555090505061056a565b60038160ff16036105695760405180604001604052808373ffffffffffffffffffffffffffffffffffffffff1681526020016003808111156104ac576104ab6116c5565b5b815250600360008473ffffffffffffffffffffffffffffffffffffffff1673ffffffffffffffffffffffffffffffffffffffff16815260200190815260200160002060008201518160000160006101000a81548173ffffffffffffffffffffffffffffffffffffffff021916908373ffffffffffffffffffffffffffffffffffffffff16021790555060208201518160000160146101000a81548160ff021916908360038111156105605761055f6116c5565b5b02179055509050505b5b5b5050565b60008054906101000a900473ffffffffffffffffffffffffffffffffffffffff1681565b61059b610dee565b80600260006101000a81548173ffffffffffffffffffffffffffffffffffffffff021916908373ffffffffffffffffffffffffffffffffffffffff16021790555050565b600160009054906101000a900473ffffffffffffffffffffffffffffffffffffffff1681565b61060d610d5c565b6000600360008473ffffffffffffffffffffffffffffffffffffffff1673ffffffffffffffffffffffffffffffffffffffff1681526020019081526020016000206040518060400160405290816000820160009054906101000a900473ffffffffffffffffffffffffffffffffffffffff1673ffffffffffffffffffffffffffffffffffffffff1673ffffffffffffffffffffffffffffffffffffffff1681526020016000820160149054906101000a900460ff1660038111156106d4576106d36116c5565b5b60038111156106e6576106e56116c5565b5b8152505090506003808111156106ff576106fe6116c5565b5b81602001516003811115610716576107156116c5565b5b036107a05760008390508073ffffffffffffffffffffffffffffffffffffffff1663a0712d6834856040518363ffffffff1660e01b815260040161075a9190611607565b60206040518083038185885af1158015610778573d6000803e3d6000fd5b50505050506040513d601f19601f8201168201806040525081019061079d9190611709565b50505b600160038111156107b4576107b36116c5565b5b816020015160038111156107cb576107ca6116c5565b5b036107db576107da8383610e80565b5b600060038111156107ef576107ee6116c5565b5b81602001516003811115610806576108056116c5565b5b5050505050565b600080600360008473ffffffffffffffffffffffffffffffffffffffff1673ffffffffffffffffffffffffffffffffffffffff1681526020019081526020016000206040518060400160405290816000820160009054906101000a900473ffffffffffffffffffffffffffffffffffffffff1673ffffffffffffffffffffffffffffffffffffffff1673ffffffffffffffffffffffffffffffffffffffff1681526020016000820160149054906101000a900460ff1660038111156108d5576108d46116c5565b5b60038111156108e7576108e66116c5565b5b815250509050600073ffffffffffffffffffffffffffffffffffffffff16816000015173ffffffffffffffffffffffffffffffffffffffff160361092f576000915050610ad7565b60016003811115610943576109426116c5565b5b8160200151600381111561095a576109596116c5565b5b148061098d5750600380811115610974576109736116c5565b5b8160200151600381111561098b5761098a6116c5565b5b145b15610a1a5760008390508073ffffffffffffffffffffffffffffffffffffffff166370a08231306040518263ffffffff1660e01b81526004016109d09190611567565b602060405180830381865afa1580156109ed573d6000803e3d6000fd5b505050506040513d601f19601f82011682018060405250810190610a119190611709565b92505050610ad7565b60026003811115610a2e57610a2d6116c5565b5b81602001516003811115610a4557610a446116c5565b5b03610ad25760008390508073ffffffffffffffffffffffffffffffffffffffff166370a08231306040518263ffffffff1660e01b8152600401610a889190611567565b602060405180830381865afa158015610aa5573d6000803e3d6000fd5b505050506040513d601f19601f82011682018060405250810190610ac99190611709565b92505050610ad7565b479150505b919050565b610ae4610d5c565b6000600360008473ffffffffffffffffffffffffffffffffffffffff1673ffffffffffffffffffffffffffffffffffffffff1681526020019081526020016000206040518060400160405290816000820160009054906101000a900473ffffffffffffffffffffffffffffffffffffffff1673ffffffffffffffffffffffffffffffffffffffff1673ffffffffffffffffffffffffffffffffffffffff1681526020016000820160149054906101000a900460ff166003811115610bab57610baa6116c5565b5b6003811115610bbd57610bbc6116c5565b5b815250509050600380811115610bd657610bd56116c5565b5b81602001516003811115610bed57610bec6116c5565b5b03610c765760008390508073ffffffffffffffffffffffffffffffffffffffff166342966c68846040518263ffffffff1660e01b8152600401610c309190611607565b6020604051808303816000875af1158015610c4f573d6000803e3d6000fd5b505050506040513d601f19601f82011682018060405250810190610c739190611709565b50505b60016003811115610c8a57610c896116c5565b5b81602001516003811115610ca157610ca06116c5565b5b03610cb157610cb08383610ff3565b5b60006003811115610cc557610cc46116c5565b5b81602001516003811115610cdc57610cdb6116c5565b5b5050505050565b600260009054906101000a900473ffffffffffffffffffffffffffffffffffffffff1681565b610d11610d5c565b8173ffffffffffffffffffffffffffffffffffffffff166108fc829081150290604051600060405180830381858888f19350505050158015610d57573d6000803e3d6000fd5b505050565b600260009054906101000a900473ffffffffffffffffffffffffffffffffffffffff1673ffffffffffffffffffffffffffffffffffffffff163373ffffffffffffffffffffffffffffffffffffffff1614610dec576040517f08c379a0000000000000000000000000000000000000000000000000000000008152600401610de3906117a8565b60405180910390fd5b565b600160009054906101000a900473ffffffffffffffffffffffffffffffffffffffff1673ffffffffffffffffffffffffffffffffffffffff163373ffffffffffffffffffffffffffffffffffffffff1614610e7e576040517f08c379a0000000000000000000000000000000000000000000000000000000008152600401610e759061183a565b60405180910390fd5b565b6000601e42610e8f9190611889565b905060008054906101000a900473ffffffffffffffffffffffffffffffffffffffff1673ffffffffffffffffffffffffffffffffffffffff1663fb3bdb4183610ed7866110bc565b30856040518563ffffffff1660e01b8152600401610ef8949392919061197b565b6000604051808303816000875af1158015610f17573d6000803e3d6000fd5b505050506040513d6000823e3d601f19601f82011682018060405250810190610f409190611b20565b5060003373ffffffffffffffffffffffffffffffffffffffff1647604051610f6790611b9a565b60006040518083038185875af1925050503d8060008114610fa4576040519150601f19603f3d011682016040523d82523d6000602084013e610fa9565b606091505b5050905080610fed576040517f08c379a0000000000000000000000000000000000000000000000000000000008152600401610fe490611bfb565b60405180910390fd5b50505050565b6000601e426110029190611889565b905060008054906101000a900473ffffffffffffffffffffffffffffffffffffffff1673ffffffffffffffffffffffffffffffffffffffff166318cbafe583600161104c87611241565b30866040518663ffffffff1660e01b815260040161106e959493929190611c56565b6000604051808303816000875af115801561108d573d6000803e3d6000fd5b505050506040513d6000823e3d601f19601f820116820180604052508101906110b69190611b20565b50505050565b60606000600267ffffffffffffffff8111156110db576110da6119dd565b5b6040519080825280602002602001820160405280156111095781602001602082028036833780820191505090505b50905060008054906101000a900473ffffffffffffffffffffffffffffffffffffffff1673ffffffffffffffffffffffffffffffffffffffff1663ad5c46486040518163ffffffff1660e01b8152600401602060405180830381865afa158015611177573d6000803e3d6000fd5b505050506040513d601f19601f8201168201806040525081019061119b9190611cc5565b816000815181106111af576111ae611cf2565b5b602002602001019073ffffffffffffffffffffffffffffffffffffffff16908173ffffffffffffffffffffffffffffffffffffffff168152505082816001815181106111fe576111fd611cf2565b5b602002602001019073ffffffffffffffffffffffffffffffffffffffff16908173ffffffffffffffffffffffffffffffffffffffff168152505080915050919050565b60606000600267ffffffffffffffff8111156112605761125f6119dd565b5b60405190808252806020026020018201604052801561128e5781602001602082028036833780820191505090505b50905082816000815181106112a6576112a5611cf2565b5b602002602001019073ffffffffffffffffffffffffffffffffffffffff16908173ffffffffffffffffffffffffffffffffffffffff168152505060008054906101000a900473ffffffffffffffffffffffffffffffffffffffff1673ffffffffffffffffffffffffffffffffffffffff1663ad5c46486040518163ffffffff1660e01b8152600401602060405180830381865afa15801561134b573d6000803e3d6000fd5b505050506040513d601f19601f8201168201806040525081019061136f9190611cc5565b8160018151811061138357611382611cf2565b5b602002602001019073ffffffffffffffffffffffffffffffffffffffff16908173ffffffffffffffffffffffffffffffffffffffff168152505080915050919050565b6000604051905090565b600080fd5b600080fd5b600073ffffffffffffffffffffffffffffffffffffffff82169050919050565b6000611405826113da565b9050919050565b611415816113fa565b811461142057600080fd5b50565b6000813590506114328161140c565b92915050565b600060ff82169050919050565b61144e81611438565b811461145957600080fd5b50565b60008135905061146b81611445565b92915050565b60008060408385031215611488576114876113d0565b5b600061149685828601611423565b92505060206114a78582860161145c565b9150509250929050565b6000819050919050565b60006114d66114d16114cc846113da565b6114b1565b6113da565b9050919050565b60006114e8826114bb565b9050919050565b60006114fa826114dd565b9050919050565b61150a816114ef565b82525050565b60006020820190506115256000830184611501565b92915050565b600060208284031215611541576115406113d0565b5b600061154f84828501611423565b91505092915050565b611561816113fa565b82525050565b600060208201905061157c6000830184611558565b92915050565b6000819050919050565b61159581611582565b81146115a057600080fd5b50565b6000813590506115b28161158c565b92915050565b600080604083850312156115cf576115ce6113d0565b5b60006115dd85828601611423565b92505060206115ee858286016115a3565b9150509250929050565b61160181611582565b82525050565b600060208201905061161c60008301846115f8565b92915050565b600082825260208201905092915050565b7f6173736574547970652069642073686f756c64206265206265747765656e203160008201527f20616e6420340000000000000000000000000000000000000000000000000000602082015250565b600061168f602683611622565b915061169a82611633565b604082019050919050565b600060208201905081810360008301526116be81611682565b9050919050565b7f4e487b7100000000000000000000000000000000000000000000000000000000600052602160045260246000fd5b6000815190506117038161158c565b92915050565b60006020828403121561171f5761171e6113d0565b5b600061172d848285016116f4565b91505092915050565b7f43616c6c6572206d757374206265207468652066756e6420636f6e747261637460008201527f2100000000000000000000000000000000000000000000000000000000000000602082015250565b6000611792602183611622565b915061179d82611736565b604082019050919050565b600060208201905081810360008301526117c181611785565b9050919050565b7f43616c6c6572206d7573742062652074686520636f6e7472616374206f776e6560008201527f7221000000000000000000000000000000000000000000000000000000000000602082015250565b6000611824602283611622565b915061182f826117c8565b604082019050919050565b6000602082019050818103600083015261185381611817565b9050919050565b7f4e487b7100000000000000000000000000000000000000000000000000000000600052601160045260246000fd5b600061189482611582565b915061189f83611582565b92508282019050808211156118b7576118b661185a565b5b92915050565b600081519050919050565b600082825260208201905092915050565b6000819050602082019050919050565b6118f2816113fa565b82525050565b600061190483836118e9565b60208301905092915050565b6000602082019050919050565b6000611928826118bd565b61193281856118c8565b935061193d836118d9565b8060005b8381101561196e57815161195588826118f8565b975061196083611910565b925050600181019050611941565b5085935050505092915050565b600060808201905061199060008301876115f8565b81810360208301526119a2818661191d565b90506119b16040830185611558565b6119be60608301846115f8565b95945050505050565b600080fd5b6000601f19601f8301169050919050565b7f4e487b7100000000000000000000000000000000000000000000000000000000600052604160045260246000fd5b611a15826119cc565b810181811067ffffffffffffffff82111715611a3457611a336119dd565b5b80604052505050565b6000611a476113c6565b9050611a538282611a0c565b919050565b600067ffffffffffffffff821115611a7357611a726119dd565b5b602082029050602081019050919050565b600080fd5b6000611a9c611a9784611a58565b611a3d565b90508083825260208201905060208402830185811115611abf57611abe611a84565b5b835b81811015611ae85780611ad488826116f4565b845260208401935050602081019050611ac1565b5050509392505050565b600082601f830112611b0757611b066119c7565b5b8151611b17848260208601611a89565b91505092915050565b600060208284031215611b3657611b356113d0565b5b600082015167ffffffffffffffff811115611b5457611b536113d5565b5b611b6084828501611af2565b91505092915050565b600081905092915050565b50565b6000611b84600083611b69565b9150611b8f82611b74565b600082019050919050565b6000611ba582611b77565b9150819050919050565b7f726566756e64206661696c656400000000000000000000000000000000000000600082015250565b6000611be5600d83611622565b9150611bf082611baf565b602082019050919050565b60006020820190508181036000830152611c1481611bd8565b9050919050565b6000819050919050565b6000611c40611c3b611c3684611c1b565b6114b1565b611582565b9050919050565b611c5081611c25565b82525050565b600060a082019050611c6b60008301886115f8565b611c786020830187611c47565b8181036040830152611c8a818661191d565b9050611c996060830185611558565b611ca660808301846115f8565b9695505050505050565b600081519050611cbf8161140c565b92915050565b600060208284031215611cdb57611cda6113d0565b5b6000611ce984828501611cb0565b91505092915050565b7f4e487b7100000000000000000000000000000000000000000000000000000000600052603260045260246000fdfea26469706673582212200b84444c4173bc838cd9e3cac34e006628924a57ea30c97a031bad6c5d05fdac64736f6c63430008100033",
  "immutableReferences": {},
  "source": "pragma solidity ^0.8.16;\n\nimport \"./interfaces/IUniswapV2Router02.sol\";\nimport \"./interfaces/IERC20.sol\";\nimport \"./interfaces/IERC721.sol\";\nimport \"./Mirrored.sol\";\n\ncontract Treasury {\n    enum AssetTypes {\n        Native,\n        ERC20,\n        ERC721,\n        Mirrored\n    }\n\n    struct Asset {\n        address assetAddress;\n        AssetTypes assetType;\n    }\n\n    IUniswapV2Router02 public uniswapRouter;\n\n    address public ownerAddress;\n    address public fundAddress;\n\n    mapping(address => Asset) assets;\n\n    constructor(address _uniswapRouterAddress) {\n        ownerAddress = msg.sender;\n        uniswapRouter = IUniswapV2Router02(_uniswapRouterAddress);\n        assets[address(1)] = Asset(address(1), AssetTypes.Native);\n    }\n\n    function _onlyOwner() private view {\n        require(\n            msg.sender == ownerAddress,\n            \"Caller must be the contract owner!\"\n        );\n    }\n\n    modifier onlyOwner() {\n        _onlyOwner();\n        _;\n    }\n\n    function _onlyFund() private view {\n        require(msg.sender == fundAddress, \"Caller must be the fund contract!\");\n    }\n\n    modifier onlyFund() {\n        _onlyFund();\n        _;\n    }\n\n    function setFundAddress(address newfundAddress) public onlyOwner {\n        fundAddress = newfundAddress;\n    }\n\n    function addAsset(address assetAddress, uint8 assetType) public onlyFund {\n        require(\n            assetType >= 1 && assetType <= 4,\n            \"assetType id should be between 1 and 4\"\n        );\n\n        if (assetType == 1) {\n            assets[assetAddress] = Asset(assetAddress, AssetTypes.ERC20);\n        } else if (assetType == 2) {\n            assets[assetAddress] = Asset(assetAddress, AssetTypes.ERC721);\n        } else if (assetType == 3) {\n            assets[assetAddress] = Asset(assetAddress, AssetTypes.Mirrored);\n        }\n    }\n\n    function buyAsset(address assetAddress, uint256 amount)\n        public\n        payable\n        onlyFund\n    {\n        Asset memory asset = assets[assetAddress];\n        if (asset.assetType == AssetTypes.Mirrored) {\n            Mirrored mirrored = Mirrored(assetAddress);\n            mirrored.mint{value: msg.value}(amount);\n        }\n        if (asset.assetType == AssetTypes.ERC20) {\n            convertToErc20(assetAddress, amount);\n        }\n        // if (asset.assetType == AssetTypes.ERC721) {\n        //     // ignore for now\n        // }\n        if (asset.assetType == AssetTypes.Native) {\n            // just hodl nothing TODO\n        }\n    }\n\n    function sellAsset(address assetAddress, uint256 amount)\n        public\n        payable\n        onlyFund\n    {\n        Asset memory asset = assets[assetAddress];\n        if (asset.assetType == AssetTypes.Mirrored) {\n            Mirrored mirrored = Mirrored(assetAddress);\n            mirrored.burn(amount);\n        }\n        if (asset.assetType == AssetTypes.ERC20) {\n            convertFromErc20(assetAddress, amount);\n        }\n        // if (asset.assetType == AssetTypes.ERC721) {\n        //     // ignore for now\n        // }\n        if (asset.assetType == AssetTypes.Native) {\n            // just hodl nothing TODO\n        }\n    }\n\n    function withdraw(address recipient, uint256 amount)\n        public\n        payable\n        onlyFund\n    {\n        payable(recipient).transfer(amount);\n    }\n\n    function getBalanceOf(address assetAddress) public view returns (uint256) {\n        Asset memory asset = assets[assetAddress];\n        if (asset.assetAddress == address(0)) {\n            return 0;\n        }\n        if (\n            asset.assetType == AssetTypes.ERC20 ||\n            asset.assetType == AssetTypes.Mirrored\n        ) {\n            IERC20 token = IERC20(assetAddress);\n            return token.balanceOf(address(this));\n        }\n        if (asset.assetType == AssetTypes.ERC721) {\n            IERC721 token = IERC721(assetAddress);\n            return token.balanceOf(address(this));\n        }\n\n        return address(this).balance;\n    }\n\n    function convertToErc20(address assetAddress, uint256 amount) internal {\n        uint256 deadline = block.timestamp + 30;\n        uniswapRouter.swapETHForExactTokens(\n            amount,\n            getPathForNativeToErc20(assetAddress),\n            address(this),\n            deadline\n        );\n\n        // refund leftover ETH to user\n        (bool success, ) = msg.sender.call{value: address(this).balance}(\"\");\n        require(success, \"refund failed\");\n    }\n\n    function convertFromErc20(address assetAddress, uint256 amount) internal {\n        uint256 deadline = block.timestamp + 30;\n        uniswapRouter.swapExactTokensForETH(\n            amount,\n            1,\n            getPathForErc20ToNative(assetAddress),\n            address(this),\n            deadline\n        );\n    }\n\n    receive() external payable {}\n\n    function getPathForNativeToErc20(address assetAddress)\n        private\n        view\n        returns (address[] memory)\n    {\n        address[] memory path = new address[](2);\n        path[0] = uniswapRouter.WETH();\n        path[1] = assetAddress;\n\n        return path;\n    }\n\n    function getPathForErc20ToNative(address assetAddress)\n        private\n        view\n        returns (address[] memory)\n    {\n        address[] memory path = new address[](2);\n        path[0] = assetAddress;\n        path[1] = uniswapRouter.WETH();\n\n        return path;\n    }\n}\n",
  "sourcePath": "/home/d4fttasiii/git/portfolium/src/fund-contract/contracts/Treasury.sol",
  "compiler": {
    "name": "solc",
    "version": "0.8.16+commit.07a7930e.Emscripten.clang"
  },
  "schemaVersion": "3.4.9",
  "updatedAt": "2022-11-29T17:14:35.934Z",
  "devdoc": {
    "kind": "dev",
    "methods": {},
    "version": 1
  },
  "userdoc": {
    "kind": "user",
    "methods": {},
    "version": 1
  }
}