{
  "contractName": "Treasury",
  "abi": [
    {
      "inputs": [
        {
          "internalType": "address",
          "name": "_uniswapRouterAddress",
          "type": "address"
        }
      ],
      "stateMutability": "nonpayable",
      "type": "constructor"
    },
    {
      "inputs": [],
      "name": "fundAddress",
      "outputs": [
        {
          "internalType": "address",
          "name": "",
          "type": "address"
        }
      ],
      "stateMutability": "view",
      "type": "function"
    },
    {
      "inputs": [],
      "name": "ownerAddress",
      "outputs": [
        {
          "internalType": "address",
          "name": "",
          "type": "address"
        }
      ],
      "stateMutability": "view",
      "type": "function"
    },
    {
      "inputs": [],
      "name": "uniswapRouter",
      "outputs": [
        {
          "internalType": "contract IUniswapV2Router02",
          "name": "",
          "type": "address"
        }
      ],
      "stateMutability": "view",
      "type": "function"
    },
    {
      "stateMutability": "payable",
      "type": "receive"
    },
    {
      "inputs": [
        {
          "internalType": "address",
          "name": "newfundAddress",
          "type": "address"
        }
      ],
      "name": "setFundAddress",
      "outputs": [],
      "stateMutability": "nonpayable",
      "type": "function"
    },
    {
      "inputs": [
        {
          "internalType": "address",
          "name": "assetAddress",
          "type": "address"
        },
        {
          "internalType": "uint8",
          "name": "assetType",
          "type": "uint8"
        }
      ],
      "name": "addAsset",
      "outputs": [],
      "stateMutability": "nonpayable",
      "type": "function"
    },
    {
      "inputs": [
        {
          "internalType": "address",
          "name": "assetAddress",
          "type": "address"
        },
        {
          "internalType": "uint256",
          "name": "amount",
          "type": "uint256"
        }
      ],
      "name": "buyAsset",
      "outputs": [],
      "stateMutability": "payable",
      "type": "function"
    },
    {
      "inputs": [
        {
          "internalType": "address",
          "name": "assetAddress",
          "type": "address"
        },
        {
          "internalType": "uint256",
          "name": "amount",
          "type": "uint256"
        }
      ],
      "name": "sellAsset",
      "outputs": [],
      "stateMutability": "payable",
      "type": "function"
    },
    {
      "inputs": [
        {
          "internalType": "address",
          "name": "recipient",
          "type": "address"
        },
        {
          "internalType": "uint256",
          "name": "amount",
          "type": "uint256"
        }
      ],
      "name": "withdraw",
      "outputs": [],
      "stateMutability": "payable",
      "type": "function"
    },
    {
      "inputs": [
        {
          "internalType": "address",
          "name": "assetAddress",
          "type": "address"
        }
      ],
      "name": "getBalanceOf",
      "outputs": [
        {
          "internalType": "uint256",
          "name": "",
          "type": "uint256"
        }
      ],
      "stateMutability": "view",
      "type": "function"
    }
  ],
  "bytecode": "0x60806040523480156200001157600080fd5b506040516200223e3803806200223e833981810160405281019062000037919062000228565b33600160006101000a81548173ffffffffffffffffffffffffffffffffffffffff021916908373ffffffffffffffffffffffffffffffffffffffff160217905550806000806101000a81548173ffffffffffffffffffffffffffffffffffffffff021916908373ffffffffffffffffffffffffffffffffffffffff1602179055506040518060400160405280600173ffffffffffffffffffffffffffffffffffffffff16815260200160006004811115620000f757620000f66200025a565b5b81525060036000600173ffffffffffffffffffffffffffffffffffffffff1673ffffffffffffffffffffffffffffffffffffffff16815260200190815260200160002060008201518160000160006101000a81548173ffffffffffffffffffffffffffffffffffffffff021916908373ffffffffffffffffffffffffffffffffffffffff16021790555060208201518160000160146101000a81548160ff02191690836004811115620001af57620001ae6200025a565b5b02179055509050505062000289565b600080fd5b600073ffffffffffffffffffffffffffffffffffffffff82169050919050565b6000620001f082620001c3565b9050919050565b6200020281620001e3565b81146200020e57600080fd5b50565b6000815190506200022281620001f7565b92915050565b600060208284031215620002415762000240620001be565b5b6000620002518482850162000211565b91505092915050565b7f4e487b7100000000000000000000000000000000000000000000000000000000600052602160045260246000fd5b611fa580620002996000396000f3fe60806040526004361061008a5760003560e01c8063938c7c3a11610059578063938c7c3a1461013e5780639b96eece1461015a578063d3e38dae14610197578063e82bef29146101b3578063f3fef3a3146101de57610091565b80636127548a14610096578063735de9f7146100bf57806385dc3004146100ea5780638f84aa091461011357610091565b3661009157005b600080fd5b3480156100a257600080fd5b506100bd60048036038101906100b891906116bf565b6101fa565b005b3480156100cb57600080fd5b506100d4610677565b6040516100e1919061175e565b60405180910390f35b3480156100f657600080fd5b50610111600480360381019061010c9190611779565b61069b565b005b34801561011f57600080fd5b506101286106e7565b60405161013591906117b5565b60405180910390f35b61015860048036038101906101539190611806565b61070d565b005b34801561016657600080fd5b50610181600480360381019061017c9190611779565b6109a6565b60405161018e9190611855565b60405180910390f35b6101b160048036038101906101ac9190611806565b610c76565b005b3480156101bf57600080fd5b506101c8610f31565b6040516101d591906117b5565b60405180910390f35b6101f860048036038101906101f39190611806565b610f57565b005b610202610faa565b60018160ff161015801561021a575060048160ff1611155b610259576040517f08c379a0000000000000000000000000000000000000000000000000000000008152600401610250906118f3565b60405180910390fd5b60018160ff16036103605760405180604001604052808373ffffffffffffffffffffffffffffffffffffffff1681526020016001600481111561029f5761029e611913565b5b815250600360008473ffffffffffffffffffffffffffffffffffffffff1673ffffffffffffffffffffffffffffffffffffffff16815260200190815260200160002060008201518160000160006101000a81548173ffffffffffffffffffffffffffffffffffffffff021916908373ffffffffffffffffffffffffffffffffffffffff16021790555060208201518160000160146101000a81548160ff0219169083600481111561035357610352611913565b5b0217905550905050610673565b60028160ff16036104675760405180604001604052808373ffffffffffffffffffffffffffffffffffffffff168152602001600260048111156103a6576103a5611913565b5b815250600360008473ffffffffffffffffffffffffffffffffffffffff1673ffffffffffffffffffffffffffffffffffffffff16815260200190815260200160002060008201518160000160006101000a81548173ffffffffffffffffffffffffffffffffffffffff021916908373ffffffffffffffffffffffffffffffffffffffff16021790555060208201518160000160146101000a81548160ff0219169083600481111561045a57610459611913565b5b0217905550905050610672565b60038160ff160361056e5760405180604001604052808373ffffffffffffffffffffffffffffffffffffffff168152602001600360048111156104ad576104ac611913565b5b815250600360008473ffffffffffffffffffffffffffffffffffffffff1673ffffffffffffffffffffffffffffffffffffffff16815260200190815260200160002060008201518160000160006101000a81548173ffffffffffffffffffffffffffffffffffffffff021916908373ffffffffffffffffffffffffffffffffffffffff16021790555060208201518160000160146101000a81548160ff0219169083600481111561056157610560611913565b5b0217905550905050610671565b60048160ff16036106705760405180604001604052808373ffffffffffffffffffffffffffffffffffffffff1681526020016004808111156105b3576105b2611913565b5b815250600360008473ffffffffffffffffffffffffffffffffffffffff1673ffffffffffffffffffffffffffffffffffffffff16815260200190815260200160002060008201518160000160006101000a81548173ffffffffffffffffffffffffffffffffffffffff021916908373ffffffffffffffffffffffffffffffffffffffff16021790555060208201518160000160146101000a81548160ff0219169083600481111561066757610666611913565b5b02179055509050505b5b5b5b5050565b60008054906101000a900473ffffffffffffffffffffffffffffffffffffffff1681565b6106a361103c565b80600260006101000a81548173ffffffffffffffffffffffffffffffffffffffff021916908373ffffffffffffffffffffffffffffffffffffffff16021790555050565b600160009054906101000a900473ffffffffffffffffffffffffffffffffffffffff1681565b610715610faa565b6000600360008473ffffffffffffffffffffffffffffffffffffffff1673ffffffffffffffffffffffffffffffffffffffff1681526020019081526020016000206040518060400160405290816000820160009054906101000a900473ffffffffffffffffffffffffffffffffffffffff1673ffffffffffffffffffffffffffffffffffffffff1673ffffffffffffffffffffffffffffffffffffffff1681526020016000820160149054906101000a900460ff1660048111156107dc576107db611913565b5b60048111156107ee576107ed611913565b5b8152505090506003600481111561080857610807611913565b5b8160200151600481111561081f5761081e611913565b5b036108975760008390508073ffffffffffffffffffffffffffffffffffffffff1663a0712d6834856040518363ffffffff1660e01b81526004016108639190611855565b6000604051808303818588803b15801561087c57600080fd5b505af1158015610890573d6000803e3d6000fd5b5050505050505b6004808111156108aa576108a9611913565b5b816020015160048111156108c1576108c0611913565b5b036109395760008390508073ffffffffffffffffffffffffffffffffffffffff1663a0712d6834856040518363ffffffff1660e01b81526004016109059190611855565b6000604051808303818588803b15801561091e57600080fd5b505af1158015610932573d6000803e3d6000fd5b5050505050505b6001600481111561094d5761094c611913565b5b8160200151600481111561096457610963611913565b5b036109745761097383836110ce565b5b6000600481111561098857610987611913565b5b8160200151600481111561099f5761099e611913565b5b5050505050565b600080600360008473ffffffffffffffffffffffffffffffffffffffff1673ffffffffffffffffffffffffffffffffffffffff1681526020019081526020016000206040518060400160405290816000820160009054906101000a900473ffffffffffffffffffffffffffffffffffffffff1673ffffffffffffffffffffffffffffffffffffffff1673ffffffffffffffffffffffffffffffffffffffff1681526020016000820160149054906101000a900460ff166004811115610a6e57610a6d611913565b5b6004811115610a8057610a7f611913565b5b815250509050600073ffffffffffffffffffffffffffffffffffffffff16816000015173ffffffffffffffffffffffffffffffffffffffff1603610ac8576000915050610c71565b60016004811115610adc57610adb611913565b5b81602001516004811115610af357610af2611913565b5b1480610b27575060036004811115610b0e57610b0d611913565b5b81602001516004811115610b2557610b24611913565b5b145b15610bb45760008390508073ffffffffffffffffffffffffffffffffffffffff166370a08231306040518263ffffffff1660e01b8152600401610b6a91906117b5565b602060405180830381865afa158015610b87573d6000803e3d6000fd5b505050506040513d601f19601f82011682018060405250810190610bab9190611957565b92505050610c71565b60026004811115610bc857610bc7611913565b5b81602001516004811115610bdf57610bde611913565b5b03610c6c5760008390508073ffffffffffffffffffffffffffffffffffffffff166370a08231306040518263ffffffff1660e01b8152600401610c2291906117b5565b602060405180830381865afa158015610c3f573d6000803e3d6000fd5b505050506040513d601f19601f82011682018060405250810190610c639190611957565b92505050610c71565b479150505b919050565b610c7e610faa565b6000600360008473ffffffffffffffffffffffffffffffffffffffff1673ffffffffffffffffffffffffffffffffffffffff1681526020019081526020016000206040518060400160405290816000820160009054906101000a900473ffffffffffffffffffffffffffffffffffffffff1673ffffffffffffffffffffffffffffffffffffffff1673ffffffffffffffffffffffffffffffffffffffff1681526020016000820160149054906101000a900460ff166004811115610d4557610d44611913565b5b6004811115610d5757610d56611913565b5b81525050905060036004811115610d7157610d70611913565b5b81602001516004811115610d8857610d87611913565b5b03610e115760008390508073ffffffffffffffffffffffffffffffffffffffff166342966c68846040518263ffffffff1660e01b8152600401610dcb9190611855565b6020604051808303816000875af1158015610dea573d6000803e3d6000fd5b505050506040513d601f19601f82011682018060405250810190610e0e9190611957565b50505b600480811115610e2457610e23611913565b5b81602001516004811115610e3b57610e3a611913565b5b03610ec45760008390508073ffffffffffffffffffffffffffffffffffffffff166342966c68846040518263ffffffff1660e01b8152600401610e7e9190611855565b6020604051808303816000875af1158015610e9d573d6000803e3d6000fd5b505050506040513d601f19601f82011682018060405250810190610ec19190611957565b50505b60016004811115610ed857610ed7611913565b5b81602001516004811115610eef57610eee611913565b5b03610eff57610efe8383611241565b5b60006004811115610f1357610f12611913565b5b81602001516004811115610f2a57610f29611913565b5b5050505050565b600260009054906101000a900473ffffffffffffffffffffffffffffffffffffffff1681565b610f5f610faa565b8173ffffffffffffffffffffffffffffffffffffffff166108fc829081150290604051600060405180830381858888f19350505050158015610fa5573d6000803e3d6000fd5b505050565b600260009054906101000a900473ffffffffffffffffffffffffffffffffffffffff1673ffffffffffffffffffffffffffffffffffffffff163373ffffffffffffffffffffffffffffffffffffffff161461103a576040517f08c379a0000000000000000000000000000000000000000000000000000000008152600401611031906119f6565b60405180910390fd5b565b600160009054906101000a900473ffffffffffffffffffffffffffffffffffffffff1673ffffffffffffffffffffffffffffffffffffffff163373ffffffffffffffffffffffffffffffffffffffff16146110cc576040517f08c379a00000000000000000000000000000000000000000000000000000000081526004016110c390611a88565b60405180910390fd5b565b6000601e426110dd9190611ad7565b905060008054906101000a900473ffffffffffffffffffffffffffffffffffffffff1673ffffffffffffffffffffffffffffffffffffffff1663fb3bdb41836111258661130a565b30856040518563ffffffff1660e01b81526004016111469493929190611bc9565b6000604051808303816000875af1158015611165573d6000803e3d6000fd5b505050506040513d6000823e3d601f19601f8201168201806040525081019061118e9190611d6e565b5060003373ffffffffffffffffffffffffffffffffffffffff16476040516111b590611de8565b60006040518083038185875af1925050503d80600081146111f2576040519150601f19603f3d011682016040523d82523d6000602084013e6111f7565b606091505b505090508061123b576040517f08c379a000000000000000000000000000000000000000000000000000000000815260040161123290611e49565b60405180910390fd5b50505050565b6000601e426112509190611ad7565b905060008054906101000a900473ffffffffffffffffffffffffffffffffffffffff1673ffffffffffffffffffffffffffffffffffffffff166318cbafe583600161129a8761148f565b30866040518663ffffffff1660e01b81526004016112bc959493929190611ea4565b6000604051808303816000875af11580156112db573d6000803e3d6000fd5b505050506040513d6000823e3d601f19601f820116820180604052508101906113049190611d6e565b50505050565b60606000600267ffffffffffffffff81111561132957611328611c2b565b5b6040519080825280602002602001820160405280156113575781602001602082028036833780820191505090505b50905060008054906101000a900473ffffffffffffffffffffffffffffffffffffffff1673ffffffffffffffffffffffffffffffffffffffff1663ad5c46486040518163ffffffff1660e01b8152600401602060405180830381865afa1580156113c5573d6000803e3d6000fd5b505050506040513d601f19601f820116820180604052508101906113e99190611f13565b816000815181106113fd576113fc611f40565b5b602002602001019073ffffffffffffffffffffffffffffffffffffffff16908173ffffffffffffffffffffffffffffffffffffffff1681525050828160018151811061144c5761144b611f40565b5b602002602001019073ffffffffffffffffffffffffffffffffffffffff16908173ffffffffffffffffffffffffffffffffffffffff168152505080915050919050565b60606000600267ffffffffffffffff8111156114ae576114ad611c2b565b5b6040519080825280602002602001820160405280156114dc5781602001602082028036833780820191505090505b50905082816000815181106114f4576114f3611f40565b5b602002602001019073ffffffffffffffffffffffffffffffffffffffff16908173ffffffffffffffffffffffffffffffffffffffff168152505060008054906101000a900473ffffffffffffffffffffffffffffffffffffffff1673ffffffffffffffffffffffffffffffffffffffff1663ad5c46486040518163ffffffff1660e01b8152600401602060405180830381865afa158015611599573d6000803e3d6000fd5b505050506040513d601f19601f820116820180604052508101906115bd9190611f13565b816001815181106115d1576115d0611f40565b5b602002602001019073ffffffffffffffffffffffffffffffffffffffff16908173ffffffffffffffffffffffffffffffffffffffff168152505080915050919050565b6000604051905090565b600080fd5b600080fd5b600073ffffffffffffffffffffffffffffffffffffffff82169050919050565b600061165382611628565b9050919050565b61166381611648565b811461166e57600080fd5b50565b6000813590506116808161165a565b92915050565b600060ff82169050919050565b61169c81611686565b81146116a757600080fd5b50565b6000813590506116b981611693565b92915050565b600080604083850312156116d6576116d561161e565b5b60006116e485828601611671565b92505060206116f5858286016116aa565b9150509250929050565b6000819050919050565b600061172461171f61171a84611628565b6116ff565b611628565b9050919050565b600061173682611709565b9050919050565b60006117488261172b565b9050919050565b6117588161173d565b82525050565b6000602082019050611773600083018461174f565b92915050565b60006020828403121561178f5761178e61161e565b5b600061179d84828501611671565b91505092915050565b6117af81611648565b82525050565b60006020820190506117ca60008301846117a6565b92915050565b6000819050919050565b6117e3816117d0565b81146117ee57600080fd5b50565b600081359050611800816117da565b92915050565b6000806040838503121561181d5761181c61161e565b5b600061182b85828601611671565b925050602061183c858286016117f1565b9150509250929050565b61184f816117d0565b82525050565b600060208201905061186a6000830184611846565b92915050565b600082825260208201905092915050565b7f6173736574547970652069642073686f756c64206265206265747765656e203160008201527f20616e6420340000000000000000000000000000000000000000000000000000602082015250565b60006118dd602683611870565b91506118e882611881565b604082019050919050565b6000602082019050818103600083015261190c816118d0565b9050919050565b7f4e487b7100000000000000000000000000000000000000000000000000000000600052602160045260246000fd5b600081519050611951816117da565b92915050565b60006020828403121561196d5761196c61161e565b5b600061197b84828501611942565b91505092915050565b7f43616c6c6572206d757374206265207468652066756e6420636f6e747261637460008201527f2100000000000000000000000000000000000000000000000000000000000000602082015250565b60006119e0602183611870565b91506119eb82611984565b604082019050919050565b60006020820190508181036000830152611a0f816119d3565b9050919050565b7f43616c6c6572206d7573742062652074686520636f6e7472616374206f776e6560008201527f7221000000000000000000000000000000000000000000000000000000000000602082015250565b6000611a72602283611870565b9150611a7d82611a16565b604082019050919050565b60006020820190508181036000830152611aa181611a65565b9050919050565b7f4e487b7100000000000000000000000000000000000000000000000000000000600052601160045260246000fd5b6000611ae2826117d0565b9150611aed836117d0565b9250828201905080821115611b0557611b04611aa8565b5b92915050565b600081519050919050565b600082825260208201905092915050565b6000819050602082019050919050565b611b4081611648565b82525050565b6000611b528383611b37565b60208301905092915050565b6000602082019050919050565b6000611b7682611b0b565b611b808185611b16565b9350611b8b83611b27565b8060005b83811015611bbc578151611ba38882611b46565b9750611bae83611b5e565b925050600181019050611b8f565b5085935050505092915050565b6000608082019050611bde6000830187611846565b8181036020830152611bf08186611b6b565b9050611bff60408301856117a6565b611c0c6060830184611846565b95945050505050565b600080fd5b6000601f19601f8301169050919050565b7f4e487b7100000000000000000000000000000000000000000000000000000000600052604160045260246000fd5b611c6382611c1a565b810181811067ffffffffffffffff82111715611c8257611c81611c2b565b5b80604052505050565b6000611c95611614565b9050611ca18282611c5a565b919050565b600067ffffffffffffffff821115611cc157611cc0611c2b565b5b602082029050602081019050919050565b600080fd5b6000611cea611ce584611ca6565b611c8b565b90508083825260208201905060208402830185811115611d0d57611d0c611cd2565b5b835b81811015611d365780611d228882611942565b845260208401935050602081019050611d0f565b5050509392505050565b600082601f830112611d5557611d54611c15565b5b8151611d65848260208601611cd7565b91505092915050565b600060208284031215611d8457611d8361161e565b5b600082015167ffffffffffffffff811115611da257611da1611623565b5b611dae84828501611d40565b91505092915050565b600081905092915050565b50565b6000611dd2600083611db7565b9150611ddd82611dc2565b600082019050919050565b6000611df382611dc5565b9150819050919050565b7f726566756e64206661696c656400000000000000000000000000000000000000600082015250565b6000611e33600d83611870565b9150611e3e82611dfd565b602082019050919050565b60006020820190508181036000830152611e6281611e26565b9050919050565b6000819050919050565b6000611e8e611e89611e8484611e69565b6116ff565b6117d0565b9050919050565b611e9e81611e73565b82525050565b600060a082019050611eb96000830188611846565b611ec66020830187611e95565b8181036040830152611ed88186611b6b565b9050611ee760608301856117a6565b611ef46080830184611846565b9695505050505050565b600081519050611f0d8161165a565b92915050565b600060208284031215611f2957611f2861161e565b5b6000611f3784828501611efe565b91505092915050565b7f4e487b7100000000000000000000000000000000000000000000000000000000600052603260045260246000fdfea2646970667358221220375ed6b8ef753ad21804cb7f36e173bc9dfcbd049bbf787f7930b559a00d239664736f6c63430008100033",
  "immutableReferences": {},
  "source": "pragma solidity ^0.8.16;\n\nimport \"./interfaces/IUniswapV2Router02.sol\";\nimport \"./interfaces/IERC20.sol\";\nimport \"./interfaces/IERC721.sol\";\nimport \"./Synthetic.sol\";\nimport \"./Mirrored.sol\";\n\ncontract Treasury {\n    enum AssetTypes {\n        Native,\n        ERC20,\n        ERC721,\n        Synthetic,\n        Mirrored\n    }\n\n    struct Asset {\n        address assetAddress;\n        AssetTypes assetType;\n    }\n\n    IUniswapV2Router02 public uniswapRouter;\n\n    address public ownerAddress;\n    address public fundAddress;\n\n    mapping(address => Asset) assets;\n\n    constructor(address _uniswapRouterAddress) {\n        ownerAddress = msg.sender;\n        uniswapRouter = IUniswapV2Router02(_uniswapRouterAddress);\n        assets[address(1)] = Asset(address(1), AssetTypes.Native);\n    }\n\n    function _onlyOwner() private view {\n        require(\n            msg.sender == ownerAddress,\n            \"Caller must be the contract owner!\"\n        );\n    }\n\n    modifier onlyOwner() {\n        _onlyOwner();\n        _;\n    }\n\n    function _onlyFund() private view {\n        require(msg.sender == fundAddress, \"Caller must be the fund contract!\");\n    }\n\n    modifier onlyFund() {\n        _onlyFund();\n        _;\n    }\n\n    function setFundAddress(address newfundAddress) public onlyOwner {\n        fundAddress = newfundAddress;\n    }\n\n    function addAsset(address assetAddress, uint8 assetType) public onlyFund {\n        require(\n            assetType >= 1 && assetType <= 4,\n            \"assetType id should be between 1 and 4\"\n        );\n\n        if (assetType == 1) {\n            assets[assetAddress] = Asset(assetAddress, AssetTypes.ERC20);\n        } else if (assetType == 2) {\n            assets[assetAddress] = Asset(assetAddress, AssetTypes.ERC721);\n        } else if (assetType == 3) {\n            assets[assetAddress] = Asset(assetAddress, AssetTypes.Synthetic);\n        } else if (assetType == 4) {\n            assets[assetAddress] = Asset(assetAddress, AssetTypes.Mirrored);\n        }\n    }\n\n    function buyAsset(address assetAddress, uint256 amount)\n        public\n        payable\n        onlyFund\n    {\n        Asset memory asset = assets[assetAddress];\n        if (asset.assetType == AssetTypes.Synthetic) {\n            Synthetic synthetic = Synthetic(assetAddress);\n            synthetic.mint{value: msg.value}(amount);\n        }\n        if (asset.assetType == AssetTypes.Mirrored) {\n            Mirrored mirrored = Mirrored(assetAddress);\n            mirrored.mint{value: msg.value}(amount);\n        }\n        if (asset.assetType == AssetTypes.ERC20) {\n            convertToErc20(assetAddress, amount);\n        }\n        // if (asset.assetType == AssetTypes.ERC721) {\n        //     // ignore for now\n        // }\n        if (asset.assetType == AssetTypes.Native) {\n            // just hodl nothing TODO\n        }\n    }\n\n    function sellAsset(address assetAddress, uint256 amount)\n        public\n        payable\n        onlyFund\n    {\n        Asset memory asset = assets[assetAddress];\n        if (asset.assetType == AssetTypes.Synthetic) {\n            Synthetic synthetic = Synthetic(assetAddress);\n            synthetic.burn(amount);\n        }\n        if (asset.assetType == AssetTypes.Mirrored) {\n            Mirrored mirrored = Mirrored(assetAddress);\n            mirrored.burn(amount);\n        }\n        if (asset.assetType == AssetTypes.ERC20) {\n            convertFromErc20(assetAddress, amount);\n        }\n        // if (asset.assetType == AssetTypes.ERC721) {\n        //     // ignore for now\n        // }\n        if (asset.assetType == AssetTypes.Native) {\n            // just hodl nothing TODO\n        }\n    }\n\n    function withdraw(address recipient, uint256 amount)\n        public\n        payable\n        onlyFund\n    {\n        payable(recipient).transfer(amount);\n    }\n\n    function getBalanceOf(address assetAddress) public view returns (uint256) {\n        Asset memory asset = assets[assetAddress];\n        if (asset.assetAddress == address(0)) {\n            return 0;\n        }\n        if (\n            asset.assetType == AssetTypes.ERC20 ||\n            asset.assetType == AssetTypes.Synthetic\n        ) {\n            IERC20 token = IERC20(assetAddress);\n            return token.balanceOf(address(this));\n        }\n        if (asset.assetType == AssetTypes.ERC721) {\n            IERC721 token = IERC721(assetAddress);\n            return token.balanceOf(address(this));\n        }\n\n        return address(this).balance;\n    }\n\n    function convertToErc20(address assetAddress, uint256 amount) internal {\n        uint256 deadline = block.timestamp + 30;\n        uniswapRouter.swapETHForExactTokens(\n            amount,\n            getPathForNativeToErc20(assetAddress),\n            address(this),\n            deadline\n        );\n\n        // refund leftover ETH to user\n        (bool success, ) = msg.sender.call{value: address(this).balance}(\"\");\n        require(success, \"refund failed\");\n    }\n\n    function convertFromErc20(address assetAddress, uint256 amount) internal {\n        uint256 deadline = block.timestamp + 30;\n        uniswapRouter.swapExactTokensForETH(\n            amount,\n            1,\n            getPathForErc20ToNative(assetAddress),\n            address(this),\n            deadline\n        );\n    }\n\n    receive() external payable {}\n\n    function getPathForNativeToErc20(address assetAddress)\n        private\n        view\n        returns (address[] memory)\n    {\n        address[] memory path = new address[](2);\n        path[0] = uniswapRouter.WETH();\n        path[1] = assetAddress;\n\n        return path;\n    }\n\n    function getPathForErc20ToNative(address assetAddress)\n        private\n        view\n        returns (address[] memory)\n    {\n        address[] memory path = new address[](2);\n        path[0] = assetAddress;\n        path[1] = uniswapRouter.WETH();\n\n        return path;\n    }\n}\n",
  "sourcePath": "/home/d4fttasiii/git/al_fundy/src/fund-contract/contracts/Treasury.sol",
  "compiler": {
    "name": "solc",
    "version": "0.8.16+commit.07a7930e.Emscripten.clang"
  },
  "schemaVersion": "3.4.9",
  "updatedAt": "2022-11-26T15:20:05.146Z",
  "devdoc": {
    "kind": "dev",
    "methods": {},
    "version": 1
  },
  "userdoc": {
    "kind": "user",
    "methods": {},
    "version": 1
  }
}