{
  "contractName": "Treasury",
  "abi": [
    {
      "inputs": [
        {
          "internalType": "address",
          "name": "_uniswapRouterAddress",
          "type": "address"
        }
      ],
      "stateMutability": "nonpayable",
      "type": "constructor"
    },
    {
      "inputs": [
        {
          "internalType": "address",
          "name": "",
          "type": "address"
        }
      ],
      "name": "assets",
      "outputs": [
        {
          "internalType": "address",
          "name": "assetAddress",
          "type": "address"
        },
        {
          "internalType": "enum Treasury.AssetTypes",
          "name": "assetType",
          "type": "uint8"
        }
      ],
      "stateMutability": "view",
      "type": "function"
    },
    {
      "inputs": [
        {
          "internalType": "address",
          "name": "",
          "type": "address"
        },
        {
          "internalType": "address",
          "name": "",
          "type": "address"
        }
      ],
      "name": "balances",
      "outputs": [
        {
          "internalType": "uint256",
          "name": "",
          "type": "uint256"
        }
      ],
      "stateMutability": "view",
      "type": "function"
    },
    {
      "inputs": [],
      "name": "ownerAddress",
      "outputs": [
        {
          "internalType": "address",
          "name": "",
          "type": "address"
        }
      ],
      "stateMutability": "view",
      "type": "function"
    },
    {
      "inputs": [],
      "name": "portfoliumAddress",
      "outputs": [
        {
          "internalType": "address",
          "name": "",
          "type": "address"
        }
      ],
      "stateMutability": "view",
      "type": "function"
    },
    {
      "inputs": [],
      "name": "uniswapRouter",
      "outputs": [
        {
          "internalType": "contract IUniswapV2Router02",
          "name": "",
          "type": "address"
        }
      ],
      "stateMutability": "view",
      "type": "function"
    },
    {
      "stateMutability": "payable",
      "type": "receive"
    },
    {
      "inputs": [
        {
          "internalType": "address",
          "name": "_portfoliumAddresss",
          "type": "address"
        }
      ],
      "name": "setPortfoliumAddress",
      "outputs": [],
      "stateMutability": "nonpayable",
      "type": "function"
    },
    {
      "inputs": [
        {
          "internalType": "address",
          "name": "assetAddress",
          "type": "address"
        }
      ],
      "name": "addERC20Asset",
      "outputs": [],
      "stateMutability": "nonpayable",
      "type": "function"
    },
    {
      "inputs": [
        {
          "internalType": "address",
          "name": "assetAddress",
          "type": "address"
        }
      ],
      "name": "addMirroredAsset",
      "outputs": [],
      "stateMutability": "nonpayable",
      "type": "function"
    },
    {
      "inputs": [
        {
          "internalType": "address",
          "name": "_ownerAddress",
          "type": "address"
        },
        {
          "internalType": "address",
          "name": "_assetAddress",
          "type": "address"
        },
        {
          "internalType": "uint256",
          "name": "_amount",
          "type": "uint256"
        },
        {
          "internalType": "uint256",
          "name": "_cost",
          "type": "uint256"
        }
      ],
      "name": "buyAsset",
      "outputs": [],
      "stateMutability": "nonpayable",
      "type": "function"
    },
    {
      "inputs": [
        {
          "internalType": "address",
          "name": "_ownerAddress",
          "type": "address"
        },
        {
          "internalType": "address",
          "name": "_assetAddress",
          "type": "address"
        },
        {
          "internalType": "uint256",
          "name": "_amount",
          "type": "uint256"
        }
      ],
      "name": "sellAsset",
      "outputs": [],
      "stateMutability": "payable",
      "type": "function"
    },
    {
      "inputs": [
        {
          "internalType": "address",
          "name": "_ownerAddress",
          "type": "address"
        },
        {
          "internalType": "address",
          "name": "_recipient",
          "type": "address"
        },
        {
          "internalType": "uint256",
          "name": "_amount",
          "type": "uint256"
        }
      ],
      "name": "withdraw",
      "outputs": [],
      "stateMutability": "payable",
      "type": "function"
    },
    {
      "inputs": [
        {
          "internalType": "address",
          "name": "_ownerAddress",
          "type": "address"
        }
      ],
      "name": "deposit",
      "outputs": [],
      "stateMutability": "payable",
      "type": "function"
    },
    {
      "inputs": [
        {
          "internalType": "address",
          "name": "assetAddress",
          "type": "address"
        }
      ],
      "name": "getBalanceOf",
      "outputs": [
        {
          "internalType": "uint256",
          "name": "",
          "type": "uint256"
        }
      ],
      "stateMutability": "view",
      "type": "function"
    }
  ],
  "bytecode": "0x60806040523480156200001157600080fd5b506040516200259038038062002590833981810160405281019062000037919062000228565b33600160006101000a81548173ffffffffffffffffffffffffffffffffffffffff021916908373ffffffffffffffffffffffffffffffffffffffff160217905550806000806101000a81548173ffffffffffffffffffffffffffffffffffffffff021916908373ffffffffffffffffffffffffffffffffffffffff1602179055506040518060400160405280600173ffffffffffffffffffffffffffffffffffffffff16815260200160006002811115620000f757620000f66200025a565b5b81525060046000600173ffffffffffffffffffffffffffffffffffffffff1673ffffffffffffffffffffffffffffffffffffffff16815260200190815260200160002060008201518160000160006101000a81548173ffffffffffffffffffffffffffffffffffffffff021916908373ffffffffffffffffffffffffffffffffffffffff16021790555060208201518160000160146101000a81548160ff02191690836002811115620001af57620001ae6200025a565b5b02179055509050505062000289565b600080fd5b600073ffffffffffffffffffffffffffffffffffffffff82169050919050565b6000620001f082620001c3565b9050919050565b6200020281620001e3565b81146200020e57600080fd5b50565b6000815190506200022281620001f7565b92915050565b600060208284031215620002415762000240620001be565b5b6000620002518482850162000211565b91505092915050565b7f4e487b7100000000000000000000000000000000000000000000000000000000600052602160045260246000fd5b6122f780620002996000396000f3fe6080604052600436106100c65760003560e01c8063c23f001f1161007f578063d9caed1211610059578063d9caed1214610264578063e3a0b80014610280578063f11b8188146102a9578063f340fa01146102e7576100cd565b8063c23f001f146101d5578063ca5c0de714610212578063d2b3832b1461023b576100cd565b806334dc8087146100d25780634dc02638146100fd578063735de9f7146101265780638f84aa09146101515780639b96eece1461017c578063b5556b87146101b9576100cd565b366100cd57005b600080fd5b3480156100de57600080fd5b506100e7610303565b6040516100f49190611953565b60405180910390f35b34801561010957600080fd5b50610124600480360381019061011f91906119e4565b610329565b005b34801561013257600080fd5b5061013b610765565b6040516101489190611aaa565b60405180910390f35b34801561015d57600080fd5b50610166610789565b6040516101739190611953565b60405180910390f35b34801561018857600080fd5b506101a3600480360381019061019e9190611ac5565b6107af565b6040516101b09190611b01565b60405180910390f35b6101d360048036038101906101ce9190611b1c565b6109c6565b005b3480156101e157600080fd5b506101fc60048036038101906101f79190611b6f565b610e00565b6040516102099190611b01565b60405180910390f35b34801561021e57600080fd5b5061023960048036038101906102349190611ac5565b610e25565b005b34801561024757600080fd5b50610262600480360381019061025d9190611ac5565b610e71565b005b61027e60048036038101906102799190611b1c565b610f72565b005b34801561028c57600080fd5b506102a760048036038101906102a29190611ac5565b61105a565b005b3480156102b557600080fd5b506102d060048036038101906102cb9190611ac5565b61115c565b6040516102de929190611c26565b60405180910390f35b61030160048036038101906102fc9190611ac5565b6111ad565b005b600260009054906101000a900473ffffffffffffffffffffffffffffffffffffffff1681565b610331611244565b6000600460008573ffffffffffffffffffffffffffffffffffffffff1673ffffffffffffffffffffffffffffffffffffffff1681526020019081526020016000206040518060400160405290816000820160009054906101000a900473ffffffffffffffffffffffffffffffffffffffff1673ffffffffffffffffffffffffffffffffffffffff1673ffffffffffffffffffffffffffffffffffffffff1681526020016000820160149054906101000a900460ff1660028111156103f8576103f7611baf565b5b600281111561040a57610409611baf565b5b81525050905060028081111561042357610422611baf565b5b8160200151600281111561043a57610439611baf565b5b036105f357600084905060008173ffffffffffffffffffffffffffffffffffffffff1663a0712d6885876040518363ffffffff1660e01b81526004016104809190611b01565b60206040518083038185885af115801561049e573d6000803e3d6000fd5b50505050506040513d601f19601f820116820180604052508101906104c39190611c64565b905084600360008973ffffffffffffffffffffffffffffffffffffffff1673ffffffffffffffffffffffffffffffffffffffff1681526020019081526020016000206000856000015173ffffffffffffffffffffffffffffffffffffffff1673ffffffffffffffffffffffffffffffffffffffff16815260200190815260200160002060008282546105559190611cc0565b9250508190555080600360008973ffffffffffffffffffffffffffffffffffffffff1673ffffffffffffffffffffffffffffffffffffffff1681526020019081526020016000206000600173ffffffffffffffffffffffffffffffffffffffff1673ffffffffffffffffffffffffffffffffffffffff16815260200190815260200160002060008282546105e99190611cf4565b9250508190555050505b6001600281111561060757610606611baf565b5b8160200151600281111561061e5761061d611baf565b5b0361075e57600061062f85856112d6565b905083600360008873ffffffffffffffffffffffffffffffffffffffff1673ffffffffffffffffffffffffffffffffffffffff1681526020019081526020016000206000846000015173ffffffffffffffffffffffffffffffffffffffff1673ffffffffffffffffffffffffffffffffffffffff16815260200190815260200160002060008282546106c19190611cc0565b9250508190555080600360008873ffffffffffffffffffffffffffffffffffffffff1673ffffffffffffffffffffffffffffffffffffffff1681526020019081526020016000206000600173ffffffffffffffffffffffffffffffffffffffff1673ffffffffffffffffffffffffffffffffffffffff16815260200190815260200160002060008282546107559190611cf4565b92505081905550505b5050505050565b60008054906101000a900473ffffffffffffffffffffffffffffffffffffffff1681565b600160009054906101000a900473ffffffffffffffffffffffffffffffffffffffff1681565b600080600460008473ffffffffffffffffffffffffffffffffffffffff1673ffffffffffffffffffffffffffffffffffffffff1681526020019081526020016000206040518060400160405290816000820160009054906101000a900473ffffffffffffffffffffffffffffffffffffffff1673ffffffffffffffffffffffffffffffffffffffff1673ffffffffffffffffffffffffffffffffffffffff1681526020016000820160149054906101000a900460ff16600281111561087757610876611baf565b5b600281111561088957610888611baf565b5b815250509050600073ffffffffffffffffffffffffffffffffffffffff16816000015173ffffffffffffffffffffffffffffffffffffffff16036108d15760009150506109c1565b600160028111156108e5576108e4611baf565b5b816020015160028111156108fc576108fb611baf565b5b148061092f575060028081111561091657610915611baf565b5b8160200151600281111561092d5761092c611baf565b5b145b156109bc5760008390508073ffffffffffffffffffffffffffffffffffffffff166370a08231306040518263ffffffff1660e01b81526004016109729190611953565b602060405180830381865afa15801561098f573d6000803e3d6000fd5b505050506040513d601f19601f820116820180604052508101906109b39190611c64565b925050506109c1565b479150505b919050565b6109ce611244565b6000600460008473ffffffffffffffffffffffffffffffffffffffff1673ffffffffffffffffffffffffffffffffffffffff1681526020019081526020016000206040518060400160405290816000820160009054906101000a900473ffffffffffffffffffffffffffffffffffffffff1673ffffffffffffffffffffffffffffffffffffffff1673ffffffffffffffffffffffffffffffffffffffff1681526020016000820160149054906101000a900460ff166002811115610a9557610a94611baf565b5b6002811115610aa757610aa6611baf565b5b815250509050600280811115610ac057610abf611baf565b5b81602001516002811115610ad757610ad6611baf565b5b03610c8f57600083905060008173ffffffffffffffffffffffffffffffffffffffff166342966c68856040518263ffffffff1660e01b8152600401610b1c9190611b01565b6020604051808303816000875af1158015610b3b573d6000803e3d6000fd5b505050506040513d601f19601f82011682018060405250810190610b5f9190611c64565b905083600360008873ffffffffffffffffffffffffffffffffffffffff1673ffffffffffffffffffffffffffffffffffffffff1681526020019081526020016000206000856000015173ffffffffffffffffffffffffffffffffffffffff1673ffffffffffffffffffffffffffffffffffffffff1681526020019081526020016000206000828254610bf19190611cf4565b9250508190555080600360008873ffffffffffffffffffffffffffffffffffffffff1673ffffffffffffffffffffffffffffffffffffffff1681526020019081526020016000206000600173ffffffffffffffffffffffffffffffffffffffff1673ffffffffffffffffffffffffffffffffffffffff1681526020019081526020016000206000828254610c859190611cc0565b9250508190555050505b60016002811115610ca357610ca2611baf565b5b81602001516002811115610cba57610cb9611baf565b5b03610dfa576000610ccb848461147b565b905082600360008773ffffffffffffffffffffffffffffffffffffffff1673ffffffffffffffffffffffffffffffffffffffff1681526020019081526020016000206000846000015173ffffffffffffffffffffffffffffffffffffffff1673ffffffffffffffffffffffffffffffffffffffff1681526020019081526020016000206000828254610d5d9190611cf4565b9250508190555080600360008773ffffffffffffffffffffffffffffffffffffffff1673ffffffffffffffffffffffffffffffffffffffff1681526020019081526020016000206000600173ffffffffffffffffffffffffffffffffffffffff1673ffffffffffffffffffffffffffffffffffffffff1681526020019081526020016000206000828254610df19190611cc0565b92505081905550505b50505050565b6003602052816000526040600020602052806000526040600020600091509150505481565b610e2d611576565b80600260006101000a81548173ffffffffffffffffffffffffffffffffffffffff021916908373ffffffffffffffffffffffffffffffffffffffff16021790555050565b610e79611244565b60405180604001604052808273ffffffffffffffffffffffffffffffffffffffff168152602001600280811115610eb357610eb2611baf565b5b815250600460008373ffffffffffffffffffffffffffffffffffffffff1673ffffffffffffffffffffffffffffffffffffffff16815260200190815260200160002060008201518160000160006101000a81548173ffffffffffffffffffffffffffffffffffffffff021916908373ffffffffffffffffffffffffffffffffffffffff16021790555060208201518160000160146101000a81548160ff02191690836002811115610f6757610f66611baf565b5b021790555090505050565b610f7a611244565b80600360008573ffffffffffffffffffffffffffffffffffffffff1673ffffffffffffffffffffffffffffffffffffffff1681526020019081526020016000206000600173ffffffffffffffffffffffffffffffffffffffff1673ffffffffffffffffffffffffffffffffffffffff16815260200190815260200160002060008282546110079190611cf4565b925050819055508173ffffffffffffffffffffffffffffffffffffffff166108fc829081150290604051600060405180830381858888f19350505050158015611054573d6000803e3d6000fd5b50505050565b611062611244565b60405180604001604052808273ffffffffffffffffffffffffffffffffffffffff1681526020016001600281111561109d5761109c611baf565b5b815250600460008373ffffffffffffffffffffffffffffffffffffffff1673ffffffffffffffffffffffffffffffffffffffff16815260200190815260200160002060008201518160000160006101000a81548173ffffffffffffffffffffffffffffffffffffffff021916908373ffffffffffffffffffffffffffffffffffffffff16021790555060208201518160000160146101000a81548160ff0219169083600281111561115157611150611baf565b5b021790555090505050565b60046020528060005260406000206000915090508060000160009054906101000a900473ffffffffffffffffffffffffffffffffffffffff16908060000160149054906101000a900460ff16905082565b34600360008373ffffffffffffffffffffffffffffffffffffffff1673ffffffffffffffffffffffffffffffffffffffff1681526020019081526020016000206000600173ffffffffffffffffffffffffffffffffffffffff1673ffffffffffffffffffffffffffffffffffffffff168152602001908152602001600020600082825461123a9190611cc0565b9250508190555050565b600260009054906101000a900473ffffffffffffffffffffffffffffffffffffffff1673ffffffffffffffffffffffffffffffffffffffff163373ffffffffffffffffffffffffffffffffffffffff16146112d4576040517f08c379a00000000000000000000000000000000000000000000000000000000081526004016112cb90611dab565b60405180910390fd5b565b600080601e426112e69190611cc0565b905060008060009054906101000a900473ffffffffffffffffffffffffffffffffffffffff1673ffffffffffffffffffffffffffffffffffffffff1663fb3bdb418561133188611608565b30866040518563ffffffff1660e01b81526004016113529493929190611e89565b6000604051808303816000875af1158015611371573d6000803e3d6000fd5b505050506040513d6000823e3d601f19601f8201168201806040525081019061139a919061202e565b905060003373ffffffffffffffffffffffffffffffffffffffff16476040516113c2906120a8565b60006040518083038185875af1925050503d80600081146113ff576040519150601f19603f3d011682016040523d82523d6000602084013e611404565b606091505b5050905080611448576040517f08c379a000000000000000000000000000000000000000000000000000000000815260040161143f90612109565b60405180910390fd5b81600183516114579190611cf4565b8151811061146857611467612129565b5b6020026020010151935050505092915050565b600080601e4261148b9190611cc0565b905060008060009054906101000a900473ffffffffffffffffffffffffffffffffffffffff1673ffffffffffffffffffffffffffffffffffffffff166318cbafe58560016114d88961178d565b30876040518663ffffffff1660e01b81526004016114fa959493929190612193565b6000604051808303816000875af1158015611519573d6000803e3d6000fd5b505050506040513d6000823e3d601f19601f82011682018060405250810190611542919061202e565b905080600182516115539190611cf4565b8151811061156457611563612129565b5b60200260200101519250505092915050565b600160009054906101000a900473ffffffffffffffffffffffffffffffffffffffff1673ffffffffffffffffffffffffffffffffffffffff163373ffffffffffffffffffffffffffffffffffffffff1614611606576040517f08c379a00000000000000000000000000000000000000000000000000000000081526004016115fd9061225f565b60405180910390fd5b565b60606000600267ffffffffffffffff81111561162757611626611eeb565b5b6040519080825280602002602001820160405280156116555781602001602082028036833780820191505090505b50905060008054906101000a900473ffffffffffffffffffffffffffffffffffffffff1673ffffffffffffffffffffffffffffffffffffffff1663ad5c46486040518163ffffffff1660e01b8152600401602060405180830381865afa1580156116c3573d6000803e3d6000fd5b505050506040513d601f19601f820116820180604052508101906116e79190612294565b816000815181106116fb576116fa612129565b5b602002602001019073ffffffffffffffffffffffffffffffffffffffff16908173ffffffffffffffffffffffffffffffffffffffff1681525050828160018151811061174a57611749612129565b5b602002602001019073ffffffffffffffffffffffffffffffffffffffff16908173ffffffffffffffffffffffffffffffffffffffff168152505080915050919050565b60606000600267ffffffffffffffff8111156117ac576117ab611eeb565b5b6040519080825280602002602001820160405280156117da5781602001602082028036833780820191505090505b50905082816000815181106117f2576117f1612129565b5b602002602001019073ffffffffffffffffffffffffffffffffffffffff16908173ffffffffffffffffffffffffffffffffffffffff168152505060008054906101000a900473ffffffffffffffffffffffffffffffffffffffff1673ffffffffffffffffffffffffffffffffffffffff1663ad5c46486040518163ffffffff1660e01b8152600401602060405180830381865afa158015611897573d6000803e3d6000fd5b505050506040513d601f19601f820116820180604052508101906118bb9190612294565b816001815181106118cf576118ce612129565b5b602002602001019073ffffffffffffffffffffffffffffffffffffffff16908173ffffffffffffffffffffffffffffffffffffffff168152505080915050919050565b600073ffffffffffffffffffffffffffffffffffffffff82169050919050565b600061193d82611912565b9050919050565b61194d81611932565b82525050565b60006020820190506119686000830184611944565b92915050565b6000604051905090565b600080fd5b600080fd5b61198b81611932565b811461199657600080fd5b50565b6000813590506119a881611982565b92915050565b6000819050919050565b6119c1816119ae565b81146119cc57600080fd5b50565b6000813590506119de816119b8565b92915050565b600080600080608085870312156119fe576119fd611978565b5b6000611a0c87828801611999565b9450506020611a1d87828801611999565b9350506040611a2e878288016119cf565b9250506060611a3f878288016119cf565b91505092959194509250565b6000819050919050565b6000611a70611a6b611a6684611912565b611a4b565b611912565b9050919050565b6000611a8282611a55565b9050919050565b6000611a9482611a77565b9050919050565b611aa481611a89565b82525050565b6000602082019050611abf6000830184611a9b565b92915050565b600060208284031215611adb57611ada611978565b5b6000611ae984828501611999565b91505092915050565b611afb816119ae565b82525050565b6000602082019050611b166000830184611af2565b92915050565b600080600060608486031215611b3557611b34611978565b5b6000611b4386828701611999565b9350506020611b5486828701611999565b9250506040611b65868287016119cf565b9150509250925092565b60008060408385031215611b8657611b85611978565b5b6000611b9485828601611999565b9250506020611ba585828601611999565b9150509250929050565b7f4e487b7100000000000000000000000000000000000000000000000000000000600052602160045260246000fd5b60038110611bef57611bee611baf565b5b50565b6000819050611c0082611bde565b919050565b6000611c1082611bf2565b9050919050565b611c2081611c05565b82525050565b6000604082019050611c3b6000830185611944565b611c486020830184611c17565b9392505050565b600081519050611c5e816119b8565b92915050565b600060208284031215611c7a57611c79611978565b5b6000611c8884828501611c4f565b91505092915050565b7f4e487b7100000000000000000000000000000000000000000000000000000000600052601160045260246000fd5b6000611ccb826119ae565b9150611cd6836119ae565b9250828201905080821115611cee57611ced611c91565b5b92915050565b6000611cff826119ae565b9150611d0a836119ae565b9250828203905081811115611d2257611d21611c91565b5b92915050565b600082825260208201905092915050565b7f43616c6c6572206d7573742062652074686520506f7274666f6c69756d20636f60008201527f6e74726163742100000000000000000000000000000000000000000000000000602082015250565b6000611d95602783611d28565b9150611da082611d39565b604082019050919050565b60006020820190508181036000830152611dc481611d88565b9050919050565b600081519050919050565b600082825260208201905092915050565b6000819050602082019050919050565b611e0081611932565b82525050565b6000611e128383611df7565b60208301905092915050565b6000602082019050919050565b6000611e3682611dcb565b611e408185611dd6565b9350611e4b83611de7565b8060005b83811015611e7c578151611e638882611e06565b9750611e6e83611e1e565b925050600181019050611e4f565b5085935050505092915050565b6000608082019050611e9e6000830187611af2565b8181036020830152611eb08186611e2b565b9050611ebf6040830185611944565b611ecc6060830184611af2565b95945050505050565b600080fd5b6000601f19601f8301169050919050565b7f4e487b7100000000000000000000000000000000000000000000000000000000600052604160045260246000fd5b611f2382611eda565b810181811067ffffffffffffffff82111715611f4257611f41611eeb565b5b80604052505050565b6000611f5561196e565b9050611f618282611f1a565b919050565b600067ffffffffffffffff821115611f8157611f80611eeb565b5b602082029050602081019050919050565b600080fd5b6000611faa611fa584611f66565b611f4b565b90508083825260208201905060208402830185811115611fcd57611fcc611f92565b5b835b81811015611ff65780611fe28882611c4f565b845260208401935050602081019050611fcf565b5050509392505050565b600082601f83011261201557612014611ed5565b5b8151612025848260208601611f97565b91505092915050565b60006020828403121561204457612043611978565b5b600082015167ffffffffffffffff8111156120625761206161197d565b5b61206e84828501612000565b91505092915050565b600081905092915050565b50565b6000612092600083612077565b915061209d82612082565b600082019050919050565b60006120b382612085565b9150819050919050565b7f726566756e64206661696c656400000000000000000000000000000000000000600082015250565b60006120f3600d83611d28565b91506120fe826120bd565b602082019050919050565b60006020820190508181036000830152612122816120e6565b9050919050565b7f4e487b7100000000000000000000000000000000000000000000000000000000600052603260045260246000fd5b6000819050919050565b600061217d61217861217384612158565b611a4b565b6119ae565b9050919050565b61218d81612162565b82525050565b600060a0820190506121a86000830188611af2565b6121b56020830187612184565b81810360408301526121c78186611e2b565b90506121d66060830185611944565b6121e36080830184611af2565b9695505050505050565b7f43616c6c6572206d7573742062652074686520636f6e7472616374206f776e6560008201527f7221000000000000000000000000000000000000000000000000000000000000602082015250565b6000612249602283611d28565b9150612254826121ed565b604082019050919050565b600060208201905081810360008301526122788161223c565b9050919050565b60008151905061228e81611982565b92915050565b6000602082840312156122aa576122a9611978565b5b60006122b88482850161227f565b9150509291505056fea2646970667358221220dd92fe904d2ab9db4d99bbe2397b2d6fd77ce1878ee172cb73bd54ca8ea69f8a64736f6c63430008100033",
  "immutableReferences": {},
  "source": "pragma solidity ^0.8.16;\n\nimport \"./interfaces/IUniswapV2Router02.sol\";\nimport \"./interfaces/IERC20.sol\";\nimport \"./interfaces/IERC721.sol\";\nimport \"./Mirrored.sol\";\n\ncontract Treasury {\n    enum AssetTypes {\n        Native,\n        ERC20,\n        Mirrored\n    }\n\n    struct Asset {\n        address assetAddress;\n        AssetTypes assetType;\n    }\n\n    IUniswapV2Router02 public uniswapRouter;\n\n    address public ownerAddress;\n    address public portfoliumAddress;\n\n    mapping(address => mapping(address => uint256)) public balances;\n    mapping(address => Asset) public assets;\n\n    constructor(address _uniswapRouterAddress) {\n        ownerAddress = msg.sender;\n        uniswapRouter = IUniswapV2Router02(_uniswapRouterAddress);\n        assets[address(1)] = Asset(address(1), AssetTypes.Native);\n    }\n\n    function _onlyOwner() private view {\n        require(\n            msg.sender == ownerAddress,\n            \"Caller must be the contract owner!\"\n        );\n    }\n\n    modifier onlyOwner() {\n        _onlyOwner();\n        _;\n    }\n\n    function _onlyPortfolium() private view {\n        require(\n            msg.sender == portfoliumAddress,\n            \"Caller must be the Portfolium contract!\"\n        );\n    }\n\n    modifier onlyPortfolium() {\n        _onlyPortfolium();\n        _;\n    }\n\n    function setPortfoliumAddress(address _portfoliumAddresss)\n        public\n        onlyOwner\n    {\n        portfoliumAddress = _portfoliumAddresss;\n    }\n\n    function addERC20Asset(address assetAddress) public onlyPortfolium {\n        assets[assetAddress] = Asset(assetAddress, AssetTypes.ERC20);\n    }\n\n    function addMirroredAsset(address assetAddress) public onlyPortfolium {\n        assets[assetAddress] = Asset(assetAddress, AssetTypes.Mirrored);\n    }\n\n    function buyAsset(\n        address _ownerAddress,\n        address _assetAddress,\n        uint256 _amount,\n        uint256 _cost\n    ) external onlyPortfolium {\n        Asset memory asset = assets[_assetAddress];\n        if (asset.assetType == AssetTypes.Mirrored) {\n            Mirrored mirrored = Mirrored(_assetAddress);\n            uint256 cost = mirrored.mint{value: _cost}(_amount);\n            balances[_ownerAddress][asset.assetAddress] += _amount;\n            balances[_ownerAddress][address(1)] -= cost;\n        }\n        if (asset.assetType == AssetTypes.ERC20) {\n            uint256 cost = _convertToErc20(_assetAddress, _amount);\n            balances[_ownerAddress][asset.assetAddress] += _amount;\n            balances[_ownerAddress][address(1)] -= cost;\n        }\n    }\n\n    function sellAsset(\n        address _ownerAddress,\n        address _assetAddress,\n        uint256 _amount\n    ) external payable onlyPortfolium {\n        // TODO: Check if balance available\n        Asset memory asset = assets[_assetAddress];\n        if (asset.assetType == AssetTypes.Mirrored) {\n            Mirrored mirrored = Mirrored(_assetAddress);\n            uint256 cost = mirrored.burn(_amount);\n            balances[_ownerAddress][asset.assetAddress] -= _amount;\n            balances[_ownerAddress][address(1)] += cost;\n        }\n        if (asset.assetType == AssetTypes.ERC20) {\n            uint256 cost = _convertFromErc20(_assetAddress, _amount);\n            balances[_ownerAddress][asset.assetAddress] -= _amount;\n            balances[_ownerAddress][address(1)] += cost;\n        }\n    }\n\n    function withdraw(\n        address _ownerAddress,\n        address _recipient,\n        uint256 _amount\n    ) public payable onlyPortfolium {\n        balances[_ownerAddress][address(1)] -= _amount;\n        payable(_recipient).transfer(_amount);\n    }\n\n    function deposit(address _ownerAddress) external payable {\n        balances[_ownerAddress][address(1)] += msg.value;\n    }\n\n    receive() external payable {}\n\n    function getBalanceOf(address assetAddress) public view returns (uint256) {\n        Asset memory asset = assets[assetAddress];\n        if (asset.assetAddress == address(0)) {\n            return 0;\n        }\n        if (\n            asset.assetType == AssetTypes.ERC20 ||\n            asset.assetType == AssetTypes.Mirrored\n        ) {\n            IERC20 token = IERC20(assetAddress);\n            return token.balanceOf(address(this));\n        }\n\n        return address(this).balance;\n    }\n\n    // ---------- HELPERS ----------\n\n    function _convertToErc20(address assetAddress, uint256 amount)\n        internal\n        returns (uint256)\n    {\n        uint256 deadline = block.timestamp + 30;\n        uint256[] memory amounts = uniswapRouter.swapETHForExactTokens(\n            amount,\n            _getPathForNativeToErc20(assetAddress),\n            address(this),\n            deadline\n        );\n\n        // refund leftover ETH to user\n        (bool success, ) = msg.sender.call{value: address(this).balance}(\"\");\n        require(success, \"refund failed\");\n\n        return amounts[amounts.length - 1];\n    }\n\n    function _convertFromErc20(address assetAddress, uint256 amount)\n        internal\n        returns (uint256)\n    {\n        uint256 deadline = block.timestamp + 30;\n        uint256[] memory amounts = uniswapRouter.swapExactTokensForETH(\n            amount,\n            1,\n            _getPathForErc20ToNative(assetAddress),\n            address(this),\n            deadline\n        );\n\n        return amounts[amounts.length - 1];\n    }\n\n    function _getPathForNativeToErc20(address assetAddress)\n        private\n        view\n        returns (address[] memory)\n    {\n        address[] memory path = new address[](2);\n        path[0] = uniswapRouter.WETH();\n        path[1] = assetAddress;\n\n        return path;\n    }\n\n    function _getPathForErc20ToNative(address assetAddress)\n        private\n        view\n        returns (address[] memory)\n    {\n        address[] memory path = new address[](2);\n        path[0] = assetAddress;\n        path[1] = uniswapRouter.WETH();\n\n        return path;\n    }\n}\n",
  "sourcePath": "/home/d4fttasiii/git/portfolium/src/fund-contract/contracts/Treasury.sol",
  "compiler": {
    "name": "solc",
    "version": "0.8.16+commit.07a7930e.Emscripten.clang"
  },
  "schemaVersion": "3.4.9",
  "updatedAt": "2022-12-09T15:19:25.055Z",
  "devdoc": {
    "kind": "dev",
    "methods": {},
    "version": 1
  },
  "userdoc": {
    "kind": "user",
    "methods": {},
    "version": 1
  }
}