{
  "contractName": "Treasury",
  "abi": [
    {
      "inputs": [
        {
          "internalType": "address",
          "name": "_uniswapRouterAddress",
          "type": "address"
        }
      ],
      "stateMutability": "nonpayable",
      "type": "constructor"
    },
    {
      "inputs": [
        {
          "internalType": "address",
          "name": "",
          "type": "address"
        },
        {
          "internalType": "address",
          "name": "",
          "type": "address"
        }
      ],
      "name": "balances",
      "outputs": [
        {
          "internalType": "uint256",
          "name": "",
          "type": "uint256"
        }
      ],
      "stateMutability": "view",
      "type": "function"
    },
    {
      "inputs": [],
      "name": "ownerAddress",
      "outputs": [
        {
          "internalType": "address",
          "name": "",
          "type": "address"
        }
      ],
      "stateMutability": "view",
      "type": "function"
    },
    {
      "inputs": [],
      "name": "portfoliumAddress",
      "outputs": [
        {
          "internalType": "address",
          "name": "",
          "type": "address"
        }
      ],
      "stateMutability": "view",
      "type": "function"
    },
    {
      "inputs": [],
      "name": "uniswapRouter",
      "outputs": [
        {
          "internalType": "contract IUniswapV2Router02",
          "name": "",
          "type": "address"
        }
      ],
      "stateMutability": "view",
      "type": "function"
    },
    {
      "stateMutability": "payable",
      "type": "receive"
    },
    {
      "inputs": [
        {
          "internalType": "address",
          "name": "_portfoliumAddresss",
          "type": "address"
        }
      ],
      "name": "setPortoliumAddress",
      "outputs": [],
      "stateMutability": "nonpayable",
      "type": "function"
    },
    {
      "inputs": [
        {
          "internalType": "address",
          "name": "assetAddress",
          "type": "address"
        }
      ],
      "name": "addERC20Asset",
      "outputs": [],
      "stateMutability": "nonpayable",
      "type": "function"
    },
    {
      "inputs": [
        {
          "internalType": "address",
          "name": "assetAddress",
          "type": "address"
        }
      ],
      "name": "addMirroredAsset",
      "outputs": [],
      "stateMutability": "nonpayable",
      "type": "function"
    },
    {
      "inputs": [
        {
          "internalType": "address",
          "name": "_ownerAddress",
          "type": "address"
        },
        {
          "internalType": "address",
          "name": "_assetAddress",
          "type": "address"
        },
        {
          "internalType": "uint256",
          "name": "_amount",
          "type": "uint256"
        }
      ],
      "name": "buyAsset",
      "outputs": [],
      "stateMutability": "payable",
      "type": "function"
    },
    {
      "inputs": [
        {
          "internalType": "address",
          "name": "_ownerAddress",
          "type": "address"
        },
        {
          "internalType": "address",
          "name": "_assetAddress",
          "type": "address"
        },
        {
          "internalType": "uint256",
          "name": "_amount",
          "type": "uint256"
        }
      ],
      "name": "sellAsset",
      "outputs": [],
      "stateMutability": "payable",
      "type": "function"
    },
    {
      "inputs": [
        {
          "internalType": "address",
          "name": "recipient",
          "type": "address"
        },
        {
          "internalType": "uint256",
          "name": "amount",
          "type": "uint256"
        }
      ],
      "name": "withdraw",
      "outputs": [],
      "stateMutability": "payable",
      "type": "function"
    },
    {
      "inputs": [
        {
          "internalType": "address",
          "name": "assetAddress",
          "type": "address"
        }
      ],
      "name": "getBalanceOf",
      "outputs": [
        {
          "internalType": "uint256",
          "name": "",
          "type": "uint256"
        }
      ],
      "stateMutability": "view",
      "type": "function"
    }
  ],
  "bytecode": "0x60806040523480156200001157600080fd5b506040516200222d3803806200222d833981810160405281019062000037919062000228565b33600160006101000a81548173ffffffffffffffffffffffffffffffffffffffff021916908373ffffffffffffffffffffffffffffffffffffffff160217905550806000806101000a81548173ffffffffffffffffffffffffffffffffffffffff021916908373ffffffffffffffffffffffffffffffffffffffff1602179055506040518060400160405280600173ffffffffffffffffffffffffffffffffffffffff16815260200160006002811115620000f757620000f66200025a565b5b81525060046000600173ffffffffffffffffffffffffffffffffffffffff1673ffffffffffffffffffffffffffffffffffffffff16815260200190815260200160002060008201518160000160006101000a81548173ffffffffffffffffffffffffffffffffffffffff021916908373ffffffffffffffffffffffffffffffffffffffff16021790555060208201518160000160146101000a81548160ff02191690836002811115620001af57620001ae6200025a565b5b02179055509050505062000289565b600080fd5b600073ffffffffffffffffffffffffffffffffffffffff82169050919050565b6000620001f082620001c3565b9050919050565b6200020281620001e3565b81146200020e57600080fd5b50565b6000815190506200022281620001f7565b92915050565b600060208284031215620002415762000240620001be565b5b6000620002518482850162000211565b91505092915050565b7f4e487b7100000000000000000000000000000000000000000000000000000000600052602160045260246000fd5b611f9480620002996000396000f3fe6080604052600436106100a05760003560e01c80639b96eece116100645780639b96eece14610172578063b5556b87146101af578063c23f001f146101cb578063d2b3832b14610208578063e3a0b80014610231578063f3fef3a31461025a576100a7565b806334dc8087146100ac5780636b19acf1146100d757806372c2d55414610100578063735de9f71461011c5780638f84aa0914610147576100a7565b366100a757005b600080fd5b3480156100b857600080fd5b506100c1610276565b6040516100ce9190611688565b60405180910390f35b3480156100e357600080fd5b506100fe60048036038101906100f991906116e3565b61029c565b005b61011a60048036038101906101159190611746565b6102e8565b005b34801561012857600080fd5b506101316106c3565b60405161013e91906117f8565b60405180910390f35b34801561015357600080fd5b5061015c6106e7565b6040516101699190611688565b60405180910390f35b34801561017e57600080fd5b50610199600480360381019061019491906116e3565b61070d565b6040516101a69190611822565b60405180910390f35b6101c960048036038101906101c49190611746565b610924565b005b3480156101d757600080fd5b506101f260048036038101906101ed919061183d565b610cfe565b6040516101ff9190611822565b60405180910390f35b34801561021457600080fd5b5061022f600480360381019061022a91906116e3565b610d23565b005b34801561023d57600080fd5b50610258600480360381019061025391906116e3565b610e24565b005b610274600480360381019061026f919061187d565b610f26565b005b600260009054906101000a900473ffffffffffffffffffffffffffffffffffffffff1681565b6102a4610f79565b80600260006101000a81548173ffffffffffffffffffffffffffffffffffffffff021916908373ffffffffffffffffffffffffffffffffffffffff16021790555050565b6102f061100b565b6000600460008473ffffffffffffffffffffffffffffffffffffffff1673ffffffffffffffffffffffffffffffffffffffff1681526020019081526020016000206040518060400160405290816000820160009054906101000a900473ffffffffffffffffffffffffffffffffffffffff1673ffffffffffffffffffffffffffffffffffffffff1673ffffffffffffffffffffffffffffffffffffffff1681526020016000820160149054906101000a900460ff1660028111156103b7576103b66118bd565b5b60028111156103c9576103c86118bd565b5b8152505090506002808111156103e2576103e16118bd565b5b816020015160028111156103f9576103f86118bd565b5b0361051e57600083905060008173ffffffffffffffffffffffffffffffffffffffff1663a0712d6834866040518363ffffffff1660e01b815260040161043f9190611822565b60206040518083038185885af115801561045d573d6000803e3d6000fd5b50505050506040513d601f19601f820116820180604052508101906104829190611901565b905080600360008873ffffffffffffffffffffffffffffffffffffffff1673ffffffffffffffffffffffffffffffffffffffff1681526020019081526020016000206000856000015173ffffffffffffffffffffffffffffffffffffffff1673ffffffffffffffffffffffffffffffffffffffff1681526020019081526020016000206000828254610514919061195d565b9250508190555050505b60016002811115610532576105316118bd565b5b81602001516002811115610549576105486118bd565b5b036105f557600061055a848461109d565b905080600360008773ffffffffffffffffffffffffffffffffffffffff1673ffffffffffffffffffffffffffffffffffffffff1681526020019081526020016000206000846000015173ffffffffffffffffffffffffffffffffffffffff1673ffffffffffffffffffffffffffffffffffffffff16815260200190815260200160002060008282546105ec919061195d565b92505081905550505b60006002811115610609576106086118bd565b5b816020015160028111156106205761061f6118bd565b5b036106bd5781600360008673ffffffffffffffffffffffffffffffffffffffff1673ffffffffffffffffffffffffffffffffffffffff1681526020019081526020016000206000836000015173ffffffffffffffffffffffffffffffffffffffff1673ffffffffffffffffffffffffffffffffffffffff16815260200190815260200160002060008282546106b5919061195d565b925050819055505b50505050565b60008054906101000a900473ffffffffffffffffffffffffffffffffffffffff1681565b600160009054906101000a900473ffffffffffffffffffffffffffffffffffffffff1681565b600080600460008473ffffffffffffffffffffffffffffffffffffffff1673ffffffffffffffffffffffffffffffffffffffff1681526020019081526020016000206040518060400160405290816000820160009054906101000a900473ffffffffffffffffffffffffffffffffffffffff1673ffffffffffffffffffffffffffffffffffffffff1673ffffffffffffffffffffffffffffffffffffffff1681526020016000820160149054906101000a900460ff1660028111156107d5576107d46118bd565b5b60028111156107e7576107e66118bd565b5b815250509050600073ffffffffffffffffffffffffffffffffffffffff16816000015173ffffffffffffffffffffffffffffffffffffffff160361082f57600091505061091f565b60016002811115610843576108426118bd565b5b8160200151600281111561085a576108596118bd565b5b148061088d5750600280811115610874576108736118bd565b5b8160200151600281111561088b5761088a6118bd565b5b145b1561091a5760008390508073ffffffffffffffffffffffffffffffffffffffff166370a08231306040518263ffffffff1660e01b81526004016108d09190611688565b602060405180830381865afa1580156108ed573d6000803e3d6000fd5b505050506040513d601f19601f820116820180604052508101906109119190611901565b9250505061091f565b479150505b919050565b61092c61100b565b6000600460008473ffffffffffffffffffffffffffffffffffffffff1673ffffffffffffffffffffffffffffffffffffffff1681526020019081526020016000206040518060400160405290816000820160009054906101000a900473ffffffffffffffffffffffffffffffffffffffff1673ffffffffffffffffffffffffffffffffffffffff1673ffffffffffffffffffffffffffffffffffffffff1681526020016000820160149054906101000a900460ff1660028111156109f3576109f26118bd565b5b6002811115610a0557610a046118bd565b5b815250509050600280811115610a1e57610a1d6118bd565b5b81602001516002811115610a3557610a346118bd565b5b03610b5957600083905060008173ffffffffffffffffffffffffffffffffffffffff166342966c68856040518263ffffffff1660e01b8152600401610a7a9190611822565b6020604051808303816000875af1158015610a99573d6000803e3d6000fd5b505050506040513d601f19601f82011682018060405250810190610abd9190611901565b905080600360008873ffffffffffffffffffffffffffffffffffffffff1673ffffffffffffffffffffffffffffffffffffffff1681526020019081526020016000206000856000015173ffffffffffffffffffffffffffffffffffffffff1673ffffffffffffffffffffffffffffffffffffffff1681526020019081526020016000206000828254610b4f9190611991565b9250508190555050505b60016002811115610b6d57610b6c6118bd565b5b81602001516002811115610b8457610b836118bd565b5b03610c30576000610b958484611242565b905080600360008773ffffffffffffffffffffffffffffffffffffffff1673ffffffffffffffffffffffffffffffffffffffff1681526020019081526020016000206000846000015173ffffffffffffffffffffffffffffffffffffffff1673ffffffffffffffffffffffffffffffffffffffff1681526020019081526020016000206000828254610c279190611991565b92505081905550505b60006002811115610c4457610c436118bd565b5b81602001516002811115610c5b57610c5a6118bd565b5b03610cf85781600360008673ffffffffffffffffffffffffffffffffffffffff1673ffffffffffffffffffffffffffffffffffffffff1681526020019081526020016000206000836000015173ffffffffffffffffffffffffffffffffffffffff1673ffffffffffffffffffffffffffffffffffffffff1681526020019081526020016000206000828254610cf09190611991565b925050819055505b50505050565b6003602052816000526040600020602052806000526040600020600091509150505481565b610d2b61100b565b60405180604001604052808273ffffffffffffffffffffffffffffffffffffffff168152602001600280811115610d6557610d646118bd565b5b815250600460008373ffffffffffffffffffffffffffffffffffffffff1673ffffffffffffffffffffffffffffffffffffffff16815260200190815260200160002060008201518160000160006101000a81548173ffffffffffffffffffffffffffffffffffffffff021916908373ffffffffffffffffffffffffffffffffffffffff16021790555060208201518160000160146101000a81548160ff02191690836002811115610e1957610e186118bd565b5b021790555090505050565b610e2c61100b565b60405180604001604052808273ffffffffffffffffffffffffffffffffffffffff16815260200160016002811115610e6757610e666118bd565b5b815250600460008373ffffffffffffffffffffffffffffffffffffffff1673ffffffffffffffffffffffffffffffffffffffff16815260200190815260200160002060008201518160000160006101000a81548173ffffffffffffffffffffffffffffffffffffffff021916908373ffffffffffffffffffffffffffffffffffffffff16021790555060208201518160000160146101000a81548160ff02191690836002811115610f1b57610f1a6118bd565b5b021790555090505050565b610f2e61100b565b8173ffffffffffffffffffffffffffffffffffffffff166108fc829081150290604051600060405180830381858888f19350505050158015610f74573d6000803e3d6000fd5b505050565b600160009054906101000a900473ffffffffffffffffffffffffffffffffffffffff1673ffffffffffffffffffffffffffffffffffffffff163373ffffffffffffffffffffffffffffffffffffffff1614611009576040517f08c379a000000000000000000000000000000000000000000000000000000000815260040161100090611a48565b60405180910390fd5b565b600260009054906101000a900473ffffffffffffffffffffffffffffffffffffffff1673ffffffffffffffffffffffffffffffffffffffff163373ffffffffffffffffffffffffffffffffffffffff161461109b576040517f08c379a000000000000000000000000000000000000000000000000000000000815260040161109290611ada565b60405180910390fd5b565b600080601e426110ad919061195d565b905060008060009054906101000a900473ffffffffffffffffffffffffffffffffffffffff1673ffffffffffffffffffffffffffffffffffffffff1663fb3bdb41856110f88861133d565b30866040518563ffffffff1660e01b81526004016111199493929190611bb8565b6000604051808303816000875af1158015611138573d6000803e3d6000fd5b505050506040513d6000823e3d601f19601f820116820180604052508101906111619190611d5d565b905060003373ffffffffffffffffffffffffffffffffffffffff164760405161118990611dd7565b60006040518083038185875af1925050503d80600081146111c6576040519150601f19603f3d011682016040523d82523d6000602084013e6111cb565b606091505b505090508061120f576040517f08c379a000000000000000000000000000000000000000000000000000000000815260040161120690611e38565b60405180910390fd5b816001835161121e9190611991565b8151811061122f5761122e611e58565b5b6020026020010151935050505092915050565b600080601e42611252919061195d565b905060008060009054906101000a900473ffffffffffffffffffffffffffffffffffffffff1673ffffffffffffffffffffffffffffffffffffffff166318cbafe585600161129f896114c2565b30876040518663ffffffff1660e01b81526004016112c1959493929190611ec2565b6000604051808303816000875af11580156112e0573d6000803e3d6000fd5b505050506040513d6000823e3d601f19601f820116820180604052508101906113099190611d5d565b9050806001825161131a9190611991565b8151811061132b5761132a611e58565b5b60200260200101519250505092915050565b60606000600267ffffffffffffffff81111561135c5761135b611c1a565b5b60405190808252806020026020018201604052801561138a5781602001602082028036833780820191505090505b50905060008054906101000a900473ffffffffffffffffffffffffffffffffffffffff1673ffffffffffffffffffffffffffffffffffffffff1663ad5c46486040518163ffffffff1660e01b8152600401602060405180830381865afa1580156113f8573d6000803e3d6000fd5b505050506040513d601f19601f8201168201806040525081019061141c9190611f31565b816000815181106114305761142f611e58565b5b602002602001019073ffffffffffffffffffffffffffffffffffffffff16908173ffffffffffffffffffffffffffffffffffffffff1681525050828160018151811061147f5761147e611e58565b5b602002602001019073ffffffffffffffffffffffffffffffffffffffff16908173ffffffffffffffffffffffffffffffffffffffff168152505080915050919050565b60606000600267ffffffffffffffff8111156114e1576114e0611c1a565b5b60405190808252806020026020018201604052801561150f5781602001602082028036833780820191505090505b509050828160008151811061152757611526611e58565b5b602002602001019073ffffffffffffffffffffffffffffffffffffffff16908173ffffffffffffffffffffffffffffffffffffffff168152505060008054906101000a900473ffffffffffffffffffffffffffffffffffffffff1673ffffffffffffffffffffffffffffffffffffffff1663ad5c46486040518163ffffffff1660e01b8152600401602060405180830381865afa1580156115cc573d6000803e3d6000fd5b505050506040513d601f19601f820116820180604052508101906115f09190611f31565b8160018151811061160457611603611e58565b5b602002602001019073ffffffffffffffffffffffffffffffffffffffff16908173ffffffffffffffffffffffffffffffffffffffff168152505080915050919050565b600073ffffffffffffffffffffffffffffffffffffffff82169050919050565b600061167282611647565b9050919050565b61168281611667565b82525050565b600060208201905061169d6000830184611679565b92915050565b6000604051905090565b600080fd5b600080fd5b6116c081611667565b81146116cb57600080fd5b50565b6000813590506116dd816116b7565b92915050565b6000602082840312156116f9576116f86116ad565b5b6000611707848285016116ce565b91505092915050565b6000819050919050565b61172381611710565b811461172e57600080fd5b50565b6000813590506117408161171a565b92915050565b60008060006060848603121561175f5761175e6116ad565b5b600061176d868287016116ce565b935050602061177e868287016116ce565b925050604061178f86828701611731565b9150509250925092565b6000819050919050565b60006117be6117b96117b484611647565b611799565b611647565b9050919050565b60006117d0826117a3565b9050919050565b60006117e2826117c5565b9050919050565b6117f2816117d7565b82525050565b600060208201905061180d60008301846117e9565b92915050565b61181c81611710565b82525050565b60006020820190506118376000830184611813565b92915050565b60008060408385031215611854576118536116ad565b5b6000611862858286016116ce565b9250506020611873858286016116ce565b9150509250929050565b60008060408385031215611894576118936116ad565b5b60006118a2858286016116ce565b92505060206118b385828601611731565b9150509250929050565b7f4e487b7100000000000000000000000000000000000000000000000000000000600052602160045260246000fd5b6000815190506118fb8161171a565b92915050565b600060208284031215611917576119166116ad565b5b6000611925848285016118ec565b91505092915050565b7f4e487b7100000000000000000000000000000000000000000000000000000000600052601160045260246000fd5b600061196882611710565b915061197383611710565b925082820190508082111561198b5761198a61192e565b5b92915050565b600061199c82611710565b91506119a783611710565b92508282039050818111156119bf576119be61192e565b5b92915050565b600082825260208201905092915050565b7f43616c6c6572206d7573742062652074686520636f6e7472616374206f776e6560008201527f7221000000000000000000000000000000000000000000000000000000000000602082015250565b6000611a326022836119c5565b9150611a3d826119d6565b604082019050919050565b60006020820190508181036000830152611a6181611a25565b9050919050565b7f43616c6c6572206d7573742062652074686520506f7274666f6c69756d20636f60008201527f6e74726163742100000000000000000000000000000000000000000000000000602082015250565b6000611ac46027836119c5565b9150611acf82611a68565b604082019050919050565b60006020820190508181036000830152611af381611ab7565b9050919050565b600081519050919050565b600082825260208201905092915050565b6000819050602082019050919050565b611b2f81611667565b82525050565b6000611b418383611b26565b60208301905092915050565b6000602082019050919050565b6000611b6582611afa565b611b6f8185611b05565b9350611b7a83611b16565b8060005b83811015611bab578151611b928882611b35565b9750611b9d83611b4d565b925050600181019050611b7e565b5085935050505092915050565b6000608082019050611bcd6000830187611813565b8181036020830152611bdf8186611b5a565b9050611bee6040830185611679565b611bfb6060830184611813565b95945050505050565b600080fd5b6000601f19601f8301169050919050565b7f4e487b7100000000000000000000000000000000000000000000000000000000600052604160045260246000fd5b611c5282611c09565b810181811067ffffffffffffffff82111715611c7157611c70611c1a565b5b80604052505050565b6000611c846116a3565b9050611c908282611c49565b919050565b600067ffffffffffffffff821115611cb057611caf611c1a565b5b602082029050602081019050919050565b600080fd5b6000611cd9611cd484611c95565b611c7a565b90508083825260208201905060208402830185811115611cfc57611cfb611cc1565b5b835b81811015611d255780611d1188826118ec565b845260208401935050602081019050611cfe565b5050509392505050565b600082601f830112611d4457611d43611c04565b5b8151611d54848260208601611cc6565b91505092915050565b600060208284031215611d7357611d726116ad565b5b600082015167ffffffffffffffff811115611d9157611d906116b2565b5b611d9d84828501611d2f565b91505092915050565b600081905092915050565b50565b6000611dc1600083611da6565b9150611dcc82611db1565b600082019050919050565b6000611de282611db4565b9150819050919050565b7f726566756e64206661696c656400000000000000000000000000000000000000600082015250565b6000611e22600d836119c5565b9150611e2d82611dec565b602082019050919050565b60006020820190508181036000830152611e5181611e15565b9050919050565b7f4e487b7100000000000000000000000000000000000000000000000000000000600052603260045260246000fd5b6000819050919050565b6000611eac611ea7611ea284611e87565b611799565b611710565b9050919050565b611ebc81611e91565b82525050565b600060a082019050611ed76000830188611813565b611ee46020830187611eb3565b8181036040830152611ef68186611b5a565b9050611f056060830185611679565b611f126080830184611813565b9695505050505050565b600081519050611f2b816116b7565b92915050565b600060208284031215611f4757611f466116ad565b5b6000611f5584828501611f1c565b9150509291505056fea2646970667358221220b54a7b9dd0d7c9a1904b2ee00c62a18108cdfe1a3528c2a0c7068b417180867864736f6c63430008100033",
  "immutableReferences": {},
  "source": "pragma solidity ^0.8.16;\n\nimport \"./interfaces/IUniswapV2Router02.sol\";\nimport \"./interfaces/IERC20.sol\";\nimport \"./interfaces/IERC721.sol\";\nimport \"./Mirrored.sol\";\n\ncontract Treasury {\n    enum AssetTypes {\n        Native,\n        ERC20,\n        Mirrored\n    }\n\n    struct Asset {\n        address assetAddress;\n        AssetTypes assetType;\n    }\n\n    IUniswapV2Router02 public uniswapRouter;\n\n    address public ownerAddress;\n    address public portfoliumAddress;\n\n    mapping(address => mapping(address => uint256)) public balances;\n    mapping(address => Asset) assets;\n\n    constructor(address _uniswapRouterAddress) {\n        ownerAddress = msg.sender;\n        uniswapRouter = IUniswapV2Router02(_uniswapRouterAddress);\n        assets[address(1)] = Asset(address(1), AssetTypes.Native);\n    }\n\n    function _onlyOwner() private view {\n        require(\n            msg.sender == ownerAddress,\n            \"Caller must be the contract owner!\"\n        );\n    }\n\n    modifier onlyOwner() {\n        _onlyOwner();\n        _;\n    }\n\n    function _onlyPortfolium() private view {\n        require(\n            msg.sender == portfoliumAddress,\n            \"Caller must be the Portfolium contract!\"\n        );\n    }\n\n    modifier onlyPortfolium() {\n        _onlyPortfolium();\n        _;\n    }\n\n    function setPortoliumAddress(address _portfoliumAddresss) public onlyOwner {\n        portfoliumAddress = _portfoliumAddresss;\n    }\n\n    function addERC20Asset(address assetAddress) public onlyPortfolium {\n        assets[assetAddress] = Asset(assetAddress, AssetTypes.ERC20);\n    }\n\n    function addMirroredAsset(address assetAddress) public onlyPortfolium {\n        assets[assetAddress] = Asset(assetAddress, AssetTypes.Mirrored);\n    }\n\n    function buyAsset(\n        address _ownerAddress,\n        address _assetAddress,\n        uint256 _amount\n    ) public payable onlyPortfolium {\n        Asset memory asset = assets[_assetAddress];\n        if (asset.assetType == AssetTypes.Mirrored) {\n            Mirrored mirrored = Mirrored(_assetAddress);\n            uint256 minted = mirrored.mint{value: msg.value}(_amount);\n            balances[_ownerAddress][asset.assetAddress] += minted;\n        }\n        if (asset.assetType == AssetTypes.ERC20) {\n            uint256 received = _convertToErc20(_assetAddress, _amount);\n            balances[_ownerAddress][asset.assetAddress] += received;\n        }\n        if (asset.assetType == AssetTypes.Native) {\n            balances[_ownerAddress][asset.assetAddress] += _amount;\n        }\n    }\n\n    function sellAsset(\n        address _ownerAddress,\n        address _assetAddress,\n        uint256 _amount\n    ) public payable onlyPortfolium {\n        // TODO: Check if balance available\n        Asset memory asset = assets[_assetAddress];\n        if (asset.assetType == AssetTypes.Mirrored) {\n            Mirrored mirrored = Mirrored(_assetAddress);\n            uint256 burned = mirrored.burn(_amount);\n            balances[_ownerAddress][asset.assetAddress] -= burned;\n        }\n        if (asset.assetType == AssetTypes.ERC20) {\n            uint256 sold = _convertFromErc20(_assetAddress, _amount);\n            balances[_ownerAddress][asset.assetAddress] -= sold;\n        }\n        if (asset.assetType == AssetTypes.Native) {\n            balances[_ownerAddress][asset.assetAddress] -= _amount;\n        }\n    }\n\n    function withdraw(address recipient, uint256 amount)\n        public\n        payable\n        onlyPortfolium\n    {\n        payable(recipient).transfer(amount);\n    }\n\n    function getBalanceOf(address assetAddress) public view returns (uint256) {\n        Asset memory asset = assets[assetAddress];\n        if (asset.assetAddress == address(0)) {\n            return 0;\n        }\n        if (\n            asset.assetType == AssetTypes.ERC20 ||\n            asset.assetType == AssetTypes.Mirrored\n        ) {\n            IERC20 token = IERC20(assetAddress);\n            return token.balanceOf(address(this));\n        }\n\n        return address(this).balance;\n    }\n\n    receive() external payable {}\n\n    // ---------- HELPERS ----------\n\n    function _convertToErc20(address assetAddress, uint256 amount)\n        internal\n        returns (uint256)\n    {\n        uint256 deadline = block.timestamp + 30;\n        uint256[] memory amounts = uniswapRouter.swapETHForExactTokens(\n            amount,\n            _getPathForNativeToErc20(assetAddress),\n            address(this),\n            deadline\n        );\n\n        // refund leftover ETH to user\n        (bool success, ) = msg.sender.call{value: address(this).balance}(\"\");\n        require(success, \"refund failed\");\n\n        return amounts[amounts.length - 1];\n    }\n\n    function _convertFromErc20(address assetAddress, uint256 amount)\n        internal\n        returns (uint256)\n    {\n        uint256 deadline = block.timestamp + 30;\n        uint256[] memory amounts = uniswapRouter.swapExactTokensForETH(\n            amount,\n            1,\n            _getPathForErc20ToNative(assetAddress),\n            address(this),\n            deadline\n        );\n\n        return amounts[amounts.length - 1];\n    }\n\n    function _getPathForNativeToErc20(address assetAddress)\n        private\n        view\n        returns (address[] memory)\n    {\n        address[] memory path = new address[](2);\n        path[0] = uniswapRouter.WETH();\n        path[1] = assetAddress;\n\n        return path;\n    }\n\n    function _getPathForErc20ToNative(address assetAddress)\n        private\n        view\n        returns (address[] memory)\n    {\n        address[] memory path = new address[](2);\n        path[0] = assetAddress;\n        path[1] = uniswapRouter.WETH();\n\n        return path;\n    }\n}\n",
  "sourcePath": "/home/d4fttasiii/git/portfolium/src/fund-contract/contracts/Treasury.sol",
  "compiler": {
    "name": "solc",
    "version": "0.8.16+commit.07a7930e.Emscripten.clang"
  },
  "schemaVersion": "3.4.9",
  "updatedAt": "2022-12-07T14:58:14.035Z",
  "devdoc": {
    "kind": "dev",
    "methods": {},
    "version": 1
  },
  "userdoc": {
    "kind": "user",
    "methods": {},
    "version": 1
  }
}