{
  "contractName": "Treasury",
  "abi": [
    {
      "inputs": [
        {
          "internalType": "address",
          "name": "_uniswapRouterAddress",
          "type": "address"
        }
      ],
      "stateMutability": "nonpayable",
      "type": "constructor"
    },
    {
      "anonymous": false,
      "inputs": [
        {
          "indexed": true,
          "internalType": "address",
          "name": "assetAddress",
          "type": "address"
        },
        {
          "indexed": false,
          "internalType": "uint256",
          "name": "amount",
          "type": "uint256"
        },
        {
          "indexed": false,
          "internalType": "uint256",
          "name": "cost",
          "type": "uint256"
        }
      ],
      "name": "AssetBought",
      "type": "event"
    },
    {
      "anonymous": false,
      "inputs": [
        {
          "indexed": true,
          "internalType": "address",
          "name": "assetAddress",
          "type": "address"
        },
        {
          "indexed": false,
          "internalType": "uint256",
          "name": "amount",
          "type": "uint256"
        },
        {
          "indexed": false,
          "internalType": "uint256",
          "name": "received",
          "type": "uint256"
        }
      ],
      "name": "AssetSold",
      "type": "event"
    },
    {
      "inputs": [
        {
          "internalType": "address",
          "name": "",
          "type": "address"
        }
      ],
      "name": "assets",
      "outputs": [
        {
          "internalType": "address",
          "name": "assetAddress",
          "type": "address"
        },
        {
          "internalType": "enum Treasury.AssetTypes",
          "name": "assetType",
          "type": "uint8"
        }
      ],
      "stateMutability": "view",
      "type": "function"
    },
    {
      "inputs": [
        {
          "internalType": "address",
          "name": "",
          "type": "address"
        },
        {
          "internalType": "address",
          "name": "",
          "type": "address"
        }
      ],
      "name": "balances",
      "outputs": [
        {
          "internalType": "uint256",
          "name": "",
          "type": "uint256"
        }
      ],
      "stateMutability": "view",
      "type": "function"
    },
    {
      "inputs": [],
      "name": "ownerAddress",
      "outputs": [
        {
          "internalType": "address",
          "name": "",
          "type": "address"
        }
      ],
      "stateMutability": "view",
      "type": "function"
    },
    {
      "inputs": [],
      "name": "portfoliumAddress",
      "outputs": [
        {
          "internalType": "address",
          "name": "",
          "type": "address"
        }
      ],
      "stateMutability": "view",
      "type": "function"
    },
    {
      "inputs": [],
      "name": "uniswapRouter",
      "outputs": [
        {
          "internalType": "contract IUniswapV2Router02",
          "name": "",
          "type": "address"
        }
      ],
      "stateMutability": "view",
      "type": "function"
    },
    {
      "stateMutability": "payable",
      "type": "receive"
    },
    {
      "inputs": [
        {
          "internalType": "address",
          "name": "_portfoliumAddresss",
          "type": "address"
        }
      ],
      "name": "setPortfoliumAddress",
      "outputs": [],
      "stateMutability": "nonpayable",
      "type": "function"
    },
    {
      "inputs": [
        {
          "internalType": "address",
          "name": "assetAddress",
          "type": "address"
        }
      ],
      "name": "addERC20Asset",
      "outputs": [],
      "stateMutability": "nonpayable",
      "type": "function"
    },
    {
      "inputs": [
        {
          "internalType": "address",
          "name": "assetAddress",
          "type": "address"
        }
      ],
      "name": "addMirroredAsset",
      "outputs": [],
      "stateMutability": "nonpayable",
      "type": "function"
    },
    {
      "inputs": [
        {
          "internalType": "address",
          "name": "_ownerAddress",
          "type": "address"
        },
        {
          "internalType": "address",
          "name": "_assetAddress",
          "type": "address"
        },
        {
          "internalType": "uint256",
          "name": "_amount",
          "type": "uint256"
        },
        {
          "internalType": "uint256",
          "name": "_cost",
          "type": "uint256"
        }
      ],
      "name": "buyAsset",
      "outputs": [],
      "stateMutability": "nonpayable",
      "type": "function"
    },
    {
      "inputs": [
        {
          "internalType": "address",
          "name": "_ownerAddress",
          "type": "address"
        },
        {
          "internalType": "address",
          "name": "_assetAddress",
          "type": "address"
        },
        {
          "internalType": "uint256",
          "name": "_amount",
          "type": "uint256"
        }
      ],
      "name": "sellAsset",
      "outputs": [],
      "stateMutability": "payable",
      "type": "function"
    },
    {
      "inputs": [
        {
          "internalType": "address",
          "name": "_ownerAddress",
          "type": "address"
        },
        {
          "internalType": "address",
          "name": "_recipient",
          "type": "address"
        },
        {
          "internalType": "uint256",
          "name": "_amount",
          "type": "uint256"
        }
      ],
      "name": "withdraw",
      "outputs": [],
      "stateMutability": "payable",
      "type": "function"
    },
    {
      "inputs": [],
      "name": "deposit",
      "outputs": [],
      "stateMutability": "payable",
      "type": "function"
    },
    {
      "inputs": [
        {
          "internalType": "address",
          "name": "_ownerAddress",
          "type": "address"
        }
      ],
      "name": "depositFor",
      "outputs": [],
      "stateMutability": "payable",
      "type": "function"
    },
    {
      "inputs": [
        {
          "internalType": "address",
          "name": "_ownerAddress",
          "type": "address"
        },
        {
          "internalType": "address",
          "name": "_assetAddress",
          "type": "address"
        }
      ],
      "name": "getBalanceOf",
      "outputs": [
        {
          "internalType": "uint256",
          "name": "",
          "type": "uint256"
        }
      ],
      "stateMutability": "view",
      "type": "function"
    }
  ],
  "bytecode": "0x60806040523480156200001157600080fd5b50604051620028d9380380620028d9833981810160405281019062000037919062000228565b33600160006101000a81548173ffffffffffffffffffffffffffffffffffffffff021916908373ffffffffffffffffffffffffffffffffffffffff160217905550806000806101000a81548173ffffffffffffffffffffffffffffffffffffffff021916908373ffffffffffffffffffffffffffffffffffffffff1602179055506040518060400160405280600173ffffffffffffffffffffffffffffffffffffffff16815260200160006002811115620000f757620000f66200025a565b5b81525060046000600173ffffffffffffffffffffffffffffffffffffffff1673ffffffffffffffffffffffffffffffffffffffff16815260200190815260200160002060008201518160000160006101000a81548173ffffffffffffffffffffffffffffffffffffffff021916908373ffffffffffffffffffffffffffffffffffffffff16021790555060208201518160000160146101000a81548160ff02191690836002811115620001af57620001ae6200025a565b5b02179055509050505062000289565b600080fd5b600073ffffffffffffffffffffffffffffffffffffffff82169050919050565b6000620001f082620001c3565b9050919050565b6200020281620001e3565b81146200020e57600080fd5b50565b6000815190506200022281620001f7565b92915050565b600060208284031215620002415762000240620001be565b5b6000620002518482850162000211565b91505092915050565b7f4e487b7100000000000000000000000000000000000000000000000000000000600052602160045260246000fd5b61264080620002996000396000f3fe6080604052600436106100e15760003560e01c8063c23f001f1161007f578063d2b3832b11610059578063d2b3832b1461027c578063d9caed12146102a5578063e3a0b800146102c1578063f11b8188146102ea576100e8565b8063c23f001f1461020c578063ca5c0de714610249578063d0e30db014610272576100e8565b8063735de9f7116100bb578063735de9f71461017e5780638f84aa09146101a9578063aa67c919146101d4578063b5556b87146101f0576100e8565b806334dc8087146100ed5780634dc026381461011857806353290b4414610141576100e8565b366100e857005b600080fd5b3480156100f957600080fd5b50610102610328565b60405161010f9190611b4f565b60405180910390f35b34801561012457600080fd5b5061013f600480360381019061013a9190611be0565b61034e565b005b34801561014d57600080fd5b5061016860048036038101906101639190611c47565b6108ef565b6040516101759190611c96565b60405180910390f35b34801561018a57600080fd5b50610193610976565b6040516101a09190611d10565b60405180910390f35b3480156101b557600080fd5b506101be61099a565b6040516101cb9190611b4f565b60405180910390f35b6101ee60048036038101906101e99190611d2b565b6109c0565b005b61020a60048036038101906102059190611d58565b610a5f565b005b34801561021857600080fd5b50610233600480360381019061022e9190611c47565b610ffd565b6040516102409190611c96565b60405180910390f35b34801561025557600080fd5b50610270600480360381019061026b9190611d2b565b611022565b005b61027a61106e565b005b34801561028857600080fd5b506102a3600480360381019061029e9190611d2b565b611104565b005b6102bf60048036038101906102ba9190611d58565b611205565b005b3480156102cd57600080fd5b506102e860048036038101906102e39190611d2b565b6112ed565b005b3480156102f657600080fd5b50610311600480360381019061030c9190611d2b565b6113ef565b60405161031f929190611e22565b60405180910390f35b600260009054906101000a900473ffffffffffffffffffffffffffffffffffffffff1681565b610356611440565b80600360008673ffffffffffffffffffffffffffffffffffffffff1673ffffffffffffffffffffffffffffffffffffffff1681526020019081526020016000206000600173ffffffffffffffffffffffffffffffffffffffff1673ffffffffffffffffffffffffffffffffffffffff168152602001908152602001600020541015610416576040517f08c379a000000000000000000000000000000000000000000000000000000000815260040161040d90611ece565b60405180910390fd5b6000600460008573ffffffffffffffffffffffffffffffffffffffff1673ffffffffffffffffffffffffffffffffffffffff1681526020019081526020016000206040518060400160405290816000820160009054906101000a900473ffffffffffffffffffffffffffffffffffffffff1673ffffffffffffffffffffffffffffffffffffffff1673ffffffffffffffffffffffffffffffffffffffff1681526020016000820160149054906101000a900460ff1660028111156104dd576104dc611dab565b5b60028111156104ef576104ee611dab565b5b81525050905060028081111561050857610507611dab565b5b8160200151600281111561051f5761051e611dab565b5b0361072c57600084905060008173ffffffffffffffffffffffffffffffffffffffff1663a0712d6885876040518363ffffffff1660e01b81526004016105659190611c96565b60206040518083038185885af1158015610583573d6000803e3d6000fd5b50505050506040513d601f19601f820116820180604052508101906105a89190611f03565b905084600360008973ffffffffffffffffffffffffffffffffffffffff1673ffffffffffffffffffffffffffffffffffffffff1681526020019081526020016000206000856000015173ffffffffffffffffffffffffffffffffffffffff1673ffffffffffffffffffffffffffffffffffffffff168152602001908152602001600020600082825461063a9190611f5f565b9250508190555080600360008973ffffffffffffffffffffffffffffffffffffffff1673ffffffffffffffffffffffffffffffffffffffff1681526020019081526020016000206000600173ffffffffffffffffffffffffffffffffffffffff1673ffffffffffffffffffffffffffffffffffffffff16815260200190815260200160002060008282546106ce9190611f93565b925050819055508573ffffffffffffffffffffffffffffffffffffffff167f2bbd93f7078d4e4fbcc4de614c008df7da3f41c7ad899d3bc4913533a2aaed88868360405161071d929190611fc7565b60405180910390a250506108e8565b600160028111156107405761073f611dab565b5b8160200151600281111561075757610756611dab565b5b036108e757600061076885856114d2565b905083600360008873ffffffffffffffffffffffffffffffffffffffff1673ffffffffffffffffffffffffffffffffffffffff1681526020019081526020016000206000846000015173ffffffffffffffffffffffffffffffffffffffff1673ffffffffffffffffffffffffffffffffffffffff16815260200190815260200160002060008282546107fa9190611f5f565b9250508190555080600360008873ffffffffffffffffffffffffffffffffffffffff1673ffffffffffffffffffffffffffffffffffffffff1681526020019081526020016000206000600173ffffffffffffffffffffffffffffffffffffffff1673ffffffffffffffffffffffffffffffffffffffff168152602001908152602001600020600082825461088e9190611f93565b925050819055508473ffffffffffffffffffffffffffffffffffffffff167f2bbd93f7078d4e4fbcc4de614c008df7da3f41c7ad899d3bc4913533a2aaed8885836040516108dd929190611fc7565b60405180910390a2505b5b5050505050565b6000600360008473ffffffffffffffffffffffffffffffffffffffff1673ffffffffffffffffffffffffffffffffffffffff16815260200190815260200160002060008373ffffffffffffffffffffffffffffffffffffffff1673ffffffffffffffffffffffffffffffffffffffff16815260200190815260200160002054905092915050565b60008054906101000a900473ffffffffffffffffffffffffffffffffffffffff1681565b600160009054906101000a900473ffffffffffffffffffffffffffffffffffffffff1681565b6109c8611440565b34600360008373ffffffffffffffffffffffffffffffffffffffff1673ffffffffffffffffffffffffffffffffffffffff1681526020019081526020016000206000600173ffffffffffffffffffffffffffffffffffffffff1673ffffffffffffffffffffffffffffffffffffffff1681526020019081526020016000206000828254610a559190611f5f565b9250508190555050565b610a67611440565b80600360008573ffffffffffffffffffffffffffffffffffffffff1673ffffffffffffffffffffffffffffffffffffffff16815260200190815260200160002060008473ffffffffffffffffffffffffffffffffffffffff1673ffffffffffffffffffffffffffffffffffffffff168152602001908152602001600020541015610b26576040517f08c379a0000000000000000000000000000000000000000000000000000000008152600401610b1d90612062565b60405180910390fd5b6000600460008473ffffffffffffffffffffffffffffffffffffffff1673ffffffffffffffffffffffffffffffffffffffff1681526020019081526020016000206040518060400160405290816000820160009054906101000a900473ffffffffffffffffffffffffffffffffffffffff1673ffffffffffffffffffffffffffffffffffffffff1673ffffffffffffffffffffffffffffffffffffffff1681526020016000820160149054906101000a900460ff166002811115610bed57610bec611dab565b5b6002811115610bff57610bfe611dab565b5b815250509050600280811115610c1857610c17611dab565b5b81602001516002811115610c2f57610c2e611dab565b5b03610e3b57600083905060008173ffffffffffffffffffffffffffffffffffffffff166342966c68856040518263ffffffff1660e01b8152600401610c749190611c96565b6020604051808303816000875af1158015610c93573d6000803e3d6000fd5b505050506040513d601f19601f82011682018060405250810190610cb79190611f03565b905083600360008873ffffffffffffffffffffffffffffffffffffffff1673ffffffffffffffffffffffffffffffffffffffff1681526020019081526020016000206000856000015173ffffffffffffffffffffffffffffffffffffffff1673ffffffffffffffffffffffffffffffffffffffff1681526020019081526020016000206000828254610d499190611f93565b9250508190555080600360008873ffffffffffffffffffffffffffffffffffffffff1673ffffffffffffffffffffffffffffffffffffffff1681526020019081526020016000206000600173ffffffffffffffffffffffffffffffffffffffff1673ffffffffffffffffffffffffffffffffffffffff1681526020019081526020016000206000828254610ddd9190611f5f565b925050819055508473ffffffffffffffffffffffffffffffffffffffff167f247dc2e589ef4622e21f97439ad5d61b6fe14885a30102fa2dcde37f197db0458583604051610e2c929190611fc7565b60405180910390a25050610ff7565b60016002811115610e4f57610e4e611dab565b5b81602001516002811115610e6657610e65611dab565b5b03610ff6576000610e778484611677565b905082600360008773ffffffffffffffffffffffffffffffffffffffff1673ffffffffffffffffffffffffffffffffffffffff1681526020019081526020016000206000846000015173ffffffffffffffffffffffffffffffffffffffff1673ffffffffffffffffffffffffffffffffffffffff1681526020019081526020016000206000828254610f099190611f93565b9250508190555080600360008773ffffffffffffffffffffffffffffffffffffffff1673ffffffffffffffffffffffffffffffffffffffff1681526020019081526020016000206000600173ffffffffffffffffffffffffffffffffffffffff1673ffffffffffffffffffffffffffffffffffffffff1681526020019081526020016000206000828254610f9d9190611f5f565b925050819055508373ffffffffffffffffffffffffffffffffffffffff167f247dc2e589ef4622e21f97439ad5d61b6fe14885a30102fa2dcde37f197db0458483604051610fec929190611fc7565b60405180910390a2505b5b50505050565b6003602052816000526040600020602052806000526040600020600091509150505481565b61102a611772565b80600260006101000a81548173ffffffffffffffffffffffffffffffffffffffff021916908373ffffffffffffffffffffffffffffffffffffffff16021790555050565b34600360003373ffffffffffffffffffffffffffffffffffffffff1673ffffffffffffffffffffffffffffffffffffffff1681526020019081526020016000206000600173ffffffffffffffffffffffffffffffffffffffff1673ffffffffffffffffffffffffffffffffffffffff16815260200190815260200160002060008282546110fb9190611f5f565b92505081905550565b61110c611440565b60405180604001604052808273ffffffffffffffffffffffffffffffffffffffff16815260200160028081111561114657611145611dab565b5b815250600460008373ffffffffffffffffffffffffffffffffffffffff1673ffffffffffffffffffffffffffffffffffffffff16815260200190815260200160002060008201518160000160006101000a81548173ffffffffffffffffffffffffffffffffffffffff021916908373ffffffffffffffffffffffffffffffffffffffff16021790555060208201518160000160146101000a81548160ff021916908360028111156111fa576111f9611dab565b5b021790555090505050565b61120d611440565b80600360008573ffffffffffffffffffffffffffffffffffffffff1673ffffffffffffffffffffffffffffffffffffffff1681526020019081526020016000206000600173ffffffffffffffffffffffffffffffffffffffff1673ffffffffffffffffffffffffffffffffffffffff168152602001908152602001600020600082825461129a9190611f93565b925050819055508173ffffffffffffffffffffffffffffffffffffffff166108fc829081150290604051600060405180830381858888f193505050501580156112e7573d6000803e3d6000fd5b50505050565b6112f5611440565b60405180604001604052808273ffffffffffffffffffffffffffffffffffffffff168152602001600160028111156113305761132f611dab565b5b815250600460008373ffffffffffffffffffffffffffffffffffffffff1673ffffffffffffffffffffffffffffffffffffffff16815260200190815260200160002060008201518160000160006101000a81548173ffffffffffffffffffffffffffffffffffffffff021916908373ffffffffffffffffffffffffffffffffffffffff16021790555060208201518160000160146101000a81548160ff021916908360028111156113e4576113e3611dab565b5b021790555090505050565b60046020528060005260406000206000915090508060000160009054906101000a900473ffffffffffffffffffffffffffffffffffffffff16908060000160149054906101000a900460ff16905082565b600260009054906101000a900473ffffffffffffffffffffffffffffffffffffffff1673ffffffffffffffffffffffffffffffffffffffff163373ffffffffffffffffffffffffffffffffffffffff16146114d0576040517f08c379a00000000000000000000000000000000000000000000000000000000081526004016114c7906120f4565b60405180910390fd5b565b600080601e426114e29190611f5f565b905060008060009054906101000a900473ffffffffffffffffffffffffffffffffffffffff1673ffffffffffffffffffffffffffffffffffffffff1663fb3bdb418561152d88611804565b30866040518563ffffffff1660e01b815260040161154e94939291906121d2565b6000604051808303816000875af115801561156d573d6000803e3d6000fd5b505050506040513d6000823e3d601f19601f820116820180604052508101906115969190612377565b905060003373ffffffffffffffffffffffffffffffffffffffff16476040516115be906123f1565b60006040518083038185875af1925050503d80600081146115fb576040519150601f19603f3d011682016040523d82523d6000602084013e611600565b606091505b5050905080611644576040517f08c379a000000000000000000000000000000000000000000000000000000000815260040161163b90612452565b60405180910390fd5b81600183516116539190611f93565b8151811061166457611663612472565b5b6020026020010151935050505092915050565b600080601e426116879190611f5f565b905060008060009054906101000a900473ffffffffffffffffffffffffffffffffffffffff1673ffffffffffffffffffffffffffffffffffffffff166318cbafe58560016116d489611989565b30876040518663ffffffff1660e01b81526004016116f69594939291906124dc565b6000604051808303816000875af1158015611715573d6000803e3d6000fd5b505050506040513d6000823e3d601f19601f8201168201806040525081019061173e9190612377565b9050806001825161174f9190611f93565b815181106117605761175f612472565b5b60200260200101519250505092915050565b600160009054906101000a900473ffffffffffffffffffffffffffffffffffffffff1673ffffffffffffffffffffffffffffffffffffffff163373ffffffffffffffffffffffffffffffffffffffff1614611802576040517f08c379a00000000000000000000000000000000000000000000000000000000081526004016117f9906125a8565b60405180910390fd5b565b60606000600267ffffffffffffffff81111561182357611822612234565b5b6040519080825280602002602001820160405280156118515781602001602082028036833780820191505090505b50905060008054906101000a900473ffffffffffffffffffffffffffffffffffffffff1673ffffffffffffffffffffffffffffffffffffffff1663ad5c46486040518163ffffffff1660e01b8152600401602060405180830381865afa1580156118bf573d6000803e3d6000fd5b505050506040513d601f19601f820116820180604052508101906118e391906125dd565b816000815181106118f7576118f6612472565b5b602002602001019073ffffffffffffffffffffffffffffffffffffffff16908173ffffffffffffffffffffffffffffffffffffffff1681525050828160018151811061194657611945612472565b5b602002602001019073ffffffffffffffffffffffffffffffffffffffff16908173ffffffffffffffffffffffffffffffffffffffff168152505080915050919050565b60606000600267ffffffffffffffff8111156119a8576119a7612234565b5b6040519080825280602002602001820160405280156119d65781602001602082028036833780820191505090505b50905082816000815181106119ee576119ed612472565b5b602002602001019073ffffffffffffffffffffffffffffffffffffffff16908173ffffffffffffffffffffffffffffffffffffffff168152505060008054906101000a900473ffffffffffffffffffffffffffffffffffffffff1673ffffffffffffffffffffffffffffffffffffffff1663ad5c46486040518163ffffffff1660e01b8152600401602060405180830381865afa158015611a93573d6000803e3d6000fd5b505050506040513d601f19601f82011682018060405250810190611ab791906125dd565b81600181518110611acb57611aca612472565b5b602002602001019073ffffffffffffffffffffffffffffffffffffffff16908173ffffffffffffffffffffffffffffffffffffffff168152505080915050919050565b600073ffffffffffffffffffffffffffffffffffffffff82169050919050565b6000611b3982611b0e565b9050919050565b611b4981611b2e565b82525050565b6000602082019050611b646000830184611b40565b92915050565b6000604051905090565b600080fd5b600080fd5b611b8781611b2e565b8114611b9257600080fd5b50565b600081359050611ba481611b7e565b92915050565b6000819050919050565b611bbd81611baa565b8114611bc857600080fd5b50565b600081359050611bda81611bb4565b92915050565b60008060008060808587031215611bfa57611bf9611b74565b5b6000611c0887828801611b95565b9450506020611c1987828801611b95565b9350506040611c2a87828801611bcb565b9250506060611c3b87828801611bcb565b91505092959194509250565b60008060408385031215611c5e57611c5d611b74565b5b6000611c6c85828601611b95565b9250506020611c7d85828601611b95565b9150509250929050565b611c9081611baa565b82525050565b6000602082019050611cab6000830184611c87565b92915050565b6000819050919050565b6000611cd6611cd1611ccc84611b0e565b611cb1565b611b0e565b9050919050565b6000611ce882611cbb565b9050919050565b6000611cfa82611cdd565b9050919050565b611d0a81611cef565b82525050565b6000602082019050611d256000830184611d01565b92915050565b600060208284031215611d4157611d40611b74565b5b6000611d4f84828501611b95565b91505092915050565b600080600060608486031215611d7157611d70611b74565b5b6000611d7f86828701611b95565b9350506020611d9086828701611b95565b9250506040611da186828701611bcb565b9150509250925092565b7f4e487b7100000000000000000000000000000000000000000000000000000000600052602160045260246000fd5b60038110611deb57611dea611dab565b5b50565b6000819050611dfc82611dda565b919050565b6000611e0c82611dee565b9050919050565b611e1c81611e01565b82525050565b6000604082019050611e376000830185611b40565b611e446020830184611e13565b9392505050565b600082825260208201905092915050565b7f556e61626c6520746f206275792c206f776e6572206e61746976652062616c6160008201527f6e636520746f6f206c6f77000000000000000000000000000000000000000000602082015250565b6000611eb8602b83611e4b565b9150611ec382611e5c565b604082019050919050565b60006020820190508181036000830152611ee781611eab565b9050919050565b600081519050611efd81611bb4565b92915050565b600060208284031215611f1957611f18611b74565b5b6000611f2784828501611eee565b91505092915050565b7f4e487b7100000000000000000000000000000000000000000000000000000000600052601160045260246000fd5b6000611f6a82611baa565b9150611f7583611baa565b9250828201905080821115611f8d57611f8c611f30565b5b92915050565b6000611f9e82611baa565b9150611fa983611baa565b9250828203905081811115611fc157611fc0611f30565b5b92915050565b6000604082019050611fdc6000830185611c87565b611fe96020830184611c87565b9392505050565b7f556e61626c6520746f2073656c6c2c206f776e65722061737365742062616c6160008201527f6e636520746f6f206c6f77000000000000000000000000000000000000000000602082015250565b600061204c602b83611e4b565b915061205782611ff0565b604082019050919050565b6000602082019050818103600083015261207b8161203f565b9050919050565b7f43616c6c6572206d7573742062652074686520506f7274666f6c69756d20636f60008201527f6e74726163742100000000000000000000000000000000000000000000000000602082015250565b60006120de602783611e4b565b91506120e982612082565b604082019050919050565b6000602082019050818103600083015261210d816120d1565b9050919050565b600081519050919050565b600082825260208201905092915050565b6000819050602082019050919050565b61214981611b2e565b82525050565b600061215b8383612140565b60208301905092915050565b6000602082019050919050565b600061217f82612114565b612189818561211f565b935061219483612130565b8060005b838110156121c55781516121ac888261214f565b97506121b783612167565b925050600181019050612198565b5085935050505092915050565b60006080820190506121e76000830187611c87565b81810360208301526121f98186612174565b90506122086040830185611b40565b6122156060830184611c87565b95945050505050565b600080fd5b6000601f19601f8301169050919050565b7f4e487b7100000000000000000000000000000000000000000000000000000000600052604160045260246000fd5b61226c82612223565b810181811067ffffffffffffffff8211171561228b5761228a612234565b5b80604052505050565b600061229e611b6a565b90506122aa8282612263565b919050565b600067ffffffffffffffff8211156122ca576122c9612234565b5b602082029050602081019050919050565b600080fd5b60006122f36122ee846122af565b612294565b90508083825260208201905060208402830185811115612316576123156122db565b5b835b8181101561233f578061232b8882611eee565b845260208401935050602081019050612318565b5050509392505050565b600082601f83011261235e5761235d61221e565b5b815161236e8482602086016122e0565b91505092915050565b60006020828403121561238d5761238c611b74565b5b600082015167ffffffffffffffff8111156123ab576123aa611b79565b5b6123b784828501612349565b91505092915050565b600081905092915050565b50565b60006123db6000836123c0565b91506123e6826123cb565b600082019050919050565b60006123fc826123ce565b9150819050919050565b7f726566756e64206661696c656400000000000000000000000000000000000000600082015250565b600061243c600d83611e4b565b915061244782612406565b602082019050919050565b6000602082019050818103600083015261246b8161242f565b9050919050565b7f4e487b7100000000000000000000000000000000000000000000000000000000600052603260045260246000fd5b6000819050919050565b60006124c66124c16124bc846124a1565b611cb1565b611baa565b9050919050565b6124d6816124ab565b82525050565b600060a0820190506124f16000830188611c87565b6124fe60208301876124cd565b81810360408301526125108186612174565b905061251f6060830185611b40565b61252c6080830184611c87565b9695505050505050565b7f43616c6c6572206d7573742062652074686520636f6e7472616374206f776e6560008201527f7221000000000000000000000000000000000000000000000000000000000000602082015250565b6000612592602283611e4b565b915061259d82612536565b604082019050919050565b600060208201905081810360008301526125c181612585565b9050919050565b6000815190506125d781611b7e565b92915050565b6000602082840312156125f3576125f2611b74565b5b6000612601848285016125c8565b9150509291505056fea264697066735822122079a56ae163e5781ed6871c584b01ed028ee86cc99f6b3284030a99aac71d499864736f6c63430008100033",
  "immutableReferences": {},
  "source": "pragma solidity ^0.8.16;\n\nimport \"./interfaces/IUniswapV2Router02.sol\";\nimport \"./interfaces/IERC20.sol\";\nimport \"./Mirrored.sol\";\n\ncontract Treasury {\n    enum AssetTypes {\n        Native,\n        ERC20,\n        Mirrored\n    }\n\n    struct Asset {\n        address assetAddress;\n        AssetTypes assetType;\n    }\n\n    IUniswapV2Router02 public uniswapRouter;\n\n    address public ownerAddress;\n    address public portfoliumAddress;\n\n    mapping(address => mapping(address => uint256)) public balances;\n    mapping(address => Asset) public assets;\n\n    event AssetBought(\n        address indexed assetAddress,\n        uint256 amount,\n        uint256 cost\n    );\n    event AssetSold(\n        address indexed assetAddress,\n        uint256 amount,\n        uint256 received\n    );\n\n    constructor(address _uniswapRouterAddress) {\n        ownerAddress = msg.sender;\n        uniswapRouter = IUniswapV2Router02(_uniswapRouterAddress);\n        assets[address(1)] = Asset(address(1), AssetTypes.Native);\n    }\n\n    function _onlyOwner() private view {\n        require(\n            msg.sender == ownerAddress,\n            \"Caller must be the contract owner!\"\n        );\n    }\n\n    modifier onlyOwner() {\n        _onlyOwner();\n        _;\n    }\n\n    function _onlyPortfolium() private view {\n        require(\n            msg.sender == portfoliumAddress,\n            \"Caller must be the Portfolium contract!\"\n        );\n    }\n\n    modifier onlyPortfolium() {\n        _onlyPortfolium();\n        _;\n    }\n\n    function setPortfoliumAddress(address _portfoliumAddresss)\n        public\n        onlyOwner\n    {\n        portfoliumAddress = _portfoliumAddresss;\n    }\n\n    function addERC20Asset(address assetAddress) public onlyPortfolium {\n        assets[assetAddress] = Asset(assetAddress, AssetTypes.ERC20);\n    }\n\n    function addMirroredAsset(address assetAddress) public onlyPortfolium {\n        assets[assetAddress] = Asset(assetAddress, AssetTypes.Mirrored);\n    }\n\n    function buyAsset(\n        address _ownerAddress,\n        address _assetAddress,\n        uint256 _amount,\n        uint256 _cost\n    ) external onlyPortfolium {\n        require(\n            balances[_ownerAddress][address(1)] >= _cost,\n            \"Unable to buy, owner native balance too low\"\n        );\n        Asset memory asset = assets[_assetAddress];\n        if (asset.assetType == AssetTypes.Mirrored) {\n            Mirrored mirrored = Mirrored(_assetAddress);\n            uint256 amountPaid = mirrored.mint{value: _cost}(_amount);\n            balances[_ownerAddress][asset.assetAddress] += _amount;\n            balances[_ownerAddress][address(1)] -= amountPaid;\n            emit AssetBought(_assetAddress, _amount, amountPaid);\n        } else if (asset.assetType == AssetTypes.ERC20) {\n            uint256 amountPaid = _convertToErc20(_assetAddress, _amount);\n            balances[_ownerAddress][asset.assetAddress] += _amount;\n            balances[_ownerAddress][address(1)] -= amountPaid;\n            emit AssetBought(_assetAddress, _amount, amountPaid);\n        }\n    }\n\n    function sellAsset(\n        address _ownerAddress,\n        address _assetAddress,\n        uint256 _amount\n    ) external payable onlyPortfolium {\n        require(\n            balances[_ownerAddress][_assetAddress] >= _amount,\n            \"Unable to sell, owner asset balance too low\"\n        );\n        Asset memory asset = assets[_assetAddress];\n        if (asset.assetType == AssetTypes.Mirrored) {\n            Mirrored mirrored = Mirrored(_assetAddress);\n            uint256 amountReceived = mirrored.burn(_amount);\n            balances[_ownerAddress][asset.assetAddress] -= _amount;\n            balances[_ownerAddress][address(1)] += amountReceived;\n            emit AssetSold(_assetAddress, _amount, amountReceived);\n        } else if (asset.assetType == AssetTypes.ERC20) {\n            uint256 amountReceived = _convertFromErc20(_assetAddress, _amount);\n            balances[_ownerAddress][asset.assetAddress] -= _amount;\n            balances[_ownerAddress][address(1)] += amountReceived;\n            emit AssetSold(_assetAddress, _amount, amountReceived);\n        }\n    }\n\n    function withdraw(\n        address _ownerAddress,\n        address _recipient,\n        uint256 _amount\n    ) public payable onlyPortfolium {\n        balances[_ownerAddress][address(1)] -= _amount;\n        payable(_recipient).transfer(_amount);\n    }\n\n    function deposit() external payable {\n        balances[msg.sender][address(1)] += msg.value;\n    }\n\n    function depositFor(address _ownerAddress) external payable onlyPortfolium {\n        balances[_ownerAddress][address(1)] += msg.value;\n    }\n\n    receive() external payable {}\n\n    function getBalanceOf(address _ownerAddress, address _assetAddress)\n        public\n        view\n        returns (uint256)\n    {\n        return balances[_ownerAddress][_assetAddress];\n    }\n\n    // ---------- HELPERS ----------\n\n    function _convertToErc20(address assetAddress, uint256 amount)\n        internal\n        returns (uint256)\n    {\n        uint256 deadline = block.timestamp + 30;\n        uint256[] memory amounts = uniswapRouter.swapETHForExactTokens(\n            amount,\n            _getPathForNativeToErc20(assetAddress),\n            address(this),\n            deadline\n        );\n\n        // refund leftover ETH to user\n        (bool success, ) = msg.sender.call{value: address(this).balance}(\"\");\n        require(success, \"refund failed\");\n\n        return amounts[amounts.length - 1];\n    }\n\n    function _convertFromErc20(address assetAddress, uint256 amount)\n        internal\n        returns (uint256)\n    {\n        uint256 deadline = block.timestamp + 30;\n        uint256[] memory amounts = uniswapRouter.swapExactTokensForETH(\n            amount,\n            1,\n            _getPathForErc20ToNative(assetAddress),\n            address(this),\n            deadline\n        );\n\n        return amounts[amounts.length - 1];\n    }\n\n    function _getPathForNativeToErc20(address assetAddress)\n        private\n        view\n        returns (address[] memory)\n    {\n        address[] memory path = new address[](2);\n        path[0] = uniswapRouter.WETH();\n        path[1] = assetAddress;\n\n        return path;\n    }\n\n    function _getPathForErc20ToNative(address assetAddress)\n        private\n        view\n        returns (address[] memory)\n    {\n        address[] memory path = new address[](2);\n        path[0] = assetAddress;\n        path[1] = uniswapRouter.WETH();\n\n        return path;\n    }\n}\n",
  "sourcePath": "/home/d4fttasiii/git/portfolium/src/fund-contract/contracts/Treasury.sol",
  "compiler": {
    "name": "solc",
    "version": "0.8.16+commit.07a7930e.Emscripten.clang"
  },
  "schemaVersion": "3.4.9",
  "updatedAt": "2022-12-12T19:27:59.218Z",
  "devdoc": {
    "kind": "dev",
    "methods": {},
    "version": 1
  },
  "userdoc": {
    "kind": "user",
    "methods": {},
    "version": 1
  }
}