{
  "contractName": "Treasury",
  "abi": [
    {
      "inputs": [
        {
          "internalType": "address",
          "name": "_uniswapRouterAddress",
          "type": "address"
        }
      ],
      "stateMutability": "nonpayable",
      "type": "constructor"
    },
    {
      "inputs": [
        {
          "internalType": "address",
          "name": "",
          "type": "address"
        },
        {
          "internalType": "address",
          "name": "",
          "type": "address"
        }
      ],
      "name": "balances",
      "outputs": [
        {
          "internalType": "uint256",
          "name": "",
          "type": "uint256"
        }
      ],
      "stateMutability": "view",
      "type": "function"
    },
    {
      "inputs": [],
      "name": "ownerAddress",
      "outputs": [
        {
          "internalType": "address",
          "name": "",
          "type": "address"
        }
      ],
      "stateMutability": "view",
      "type": "function"
    },
    {
      "inputs": [],
      "name": "portfoliumAddress",
      "outputs": [
        {
          "internalType": "address",
          "name": "",
          "type": "address"
        }
      ],
      "stateMutability": "view",
      "type": "function"
    },
    {
      "inputs": [],
      "name": "uniswapRouter",
      "outputs": [
        {
          "internalType": "contract IUniswapV2Router02",
          "name": "",
          "type": "address"
        }
      ],
      "stateMutability": "view",
      "type": "function"
    },
    {
      "stateMutability": "payable",
      "type": "receive"
    },
    {
      "inputs": [
        {
          "internalType": "address",
          "name": "_portfoliumAddresss",
          "type": "address"
        }
      ],
      "name": "setPortoliumAddress",
      "outputs": [],
      "stateMutability": "nonpayable",
      "type": "function"
    },
    {
      "inputs": [
        {
          "internalType": "address",
          "name": "assetAddress",
          "type": "address"
        },
        {
          "internalType": "uint8",
          "name": "assetType",
          "type": "uint8"
        }
      ],
      "name": "addAsset",
      "outputs": [],
      "stateMutability": "nonpayable",
      "type": "function"
    },
    {
      "inputs": [
        {
          "internalType": "address",
          "name": "_ownerAddress",
          "type": "address"
        },
        {
          "internalType": "address",
          "name": "_assetAddress",
          "type": "address"
        },
        {
          "internalType": "uint256",
          "name": "_amount",
          "type": "uint256"
        }
      ],
      "name": "buyAsset",
      "outputs": [],
      "stateMutability": "payable",
      "type": "function"
    },
    {
      "inputs": [
        {
          "internalType": "address",
          "name": "_ownerAddress",
          "type": "address"
        },
        {
          "internalType": "address",
          "name": "_assetAddress",
          "type": "address"
        },
        {
          "internalType": "uint256",
          "name": "_amount",
          "type": "uint256"
        }
      ],
      "name": "sellAsset",
      "outputs": [],
      "stateMutability": "payable",
      "type": "function"
    },
    {
      "inputs": [
        {
          "internalType": "address",
          "name": "recipient",
          "type": "address"
        },
        {
          "internalType": "uint256",
          "name": "amount",
          "type": "uint256"
        }
      ],
      "name": "withdraw",
      "outputs": [],
      "stateMutability": "payable",
      "type": "function"
    },
    {
      "inputs": [
        {
          "internalType": "address",
          "name": "assetAddress",
          "type": "address"
        }
      ],
      "name": "getBalanceOf",
      "outputs": [
        {
          "internalType": "uint256",
          "name": "",
          "type": "uint256"
        }
      ],
      "stateMutability": "view",
      "type": "function"
    }
  ],
  "bytecode": "0x60806040523480156200001157600080fd5b506040516200236e3803806200236e833981810160405281019062000037919062000228565b33600160006101000a81548173ffffffffffffffffffffffffffffffffffffffff021916908373ffffffffffffffffffffffffffffffffffffffff160217905550806000806101000a81548173ffffffffffffffffffffffffffffffffffffffff021916908373ffffffffffffffffffffffffffffffffffffffff1602179055506040518060400160405280600173ffffffffffffffffffffffffffffffffffffffff16815260200160006002811115620000f757620000f66200025a565b5b81525060046000600173ffffffffffffffffffffffffffffffffffffffff1673ffffffffffffffffffffffffffffffffffffffff16815260200190815260200160002060008201518160000160006101000a81548173ffffffffffffffffffffffffffffffffffffffff021916908373ffffffffffffffffffffffffffffffffffffffff16021790555060208201518160000160146101000a81548160ff02191690836002811115620001af57620001ae6200025a565b5b02179055509050505062000289565b600080fd5b600073ffffffffffffffffffffffffffffffffffffffff82169050919050565b6000620001f082620001c3565b9050919050565b6200020281620001e3565b81146200020e57600080fd5b50565b6000815190506200022281620001f7565b92915050565b600060208284031215620002415762000240620001be565b5b6000620002518482850162000211565b91505092915050565b7f4e487b7100000000000000000000000000000000000000000000000000000000600052602160045260246000fd5b6120d580620002996000396000f3fe6080604052600436106100955760003560e01c80638f84aa09116100595780638f84aa09146101655780639b96eece14610190578063b5556b87146101cd578063c23f001f146101e9578063f3fef3a3146102265761009c565b806334dc8087146100a15780636127548a146100cc5780636b19acf1146100f557806372c2d5541461011e578063735de9f71461013a5761009c565b3661009c57005b600080fd5b3480156100ad57600080fd5b506100b6610242565b6040516100c391906116be565b60405180910390f35b3480156100d857600080fd5b506100f360048036038101906100ee9190611752565b610268565b005b34801561010157600080fd5b5061011c60048036038101906101179190611792565b6104d5565b005b610138600480360381019061013391906117f5565b610521565b005b34801561014657600080fd5b5061014f6108fc565b60405161015c91906118a7565b60405180910390f35b34801561017157600080fd5b5061017a610920565b60405161018791906116be565b60405180910390f35b34801561019c57600080fd5b506101b760048036038101906101b29190611792565b610946565b6040516101c491906118d1565b60405180910390f35b6101e760048036038101906101e291906117f5565b610b5d565b005b3480156101f557600080fd5b50610210600480360381019061020b91906118ec565b610f37565b60405161021d91906118d1565b60405180910390f35b610240600480360381019061023b919061192c565b610f5c565b005b600260009054906101000a900473ffffffffffffffffffffffffffffffffffffffff1681565b610270610faf565b60018160ff1610158015610288575060048160ff1611155b6102c7576040517f08c379a00000000000000000000000000000000000000000000000000000000081526004016102be906119ef565b60405180910390fd5b60018160ff16036103ce5760405180604001604052808373ffffffffffffffffffffffffffffffffffffffff1681526020016001600281111561030d5761030c611a0f565b5b815250600460008473ffffffffffffffffffffffffffffffffffffffff1673ffffffffffffffffffffffffffffffffffffffff16815260200190815260200160002060008201518160000160006101000a81548173ffffffffffffffffffffffffffffffffffffffff021916908373ffffffffffffffffffffffffffffffffffffffff16021790555060208201518160000160146101000a81548160ff021916908360028111156103c1576103c0611a0f565b5b02179055509050506104d1565b60028160ff16036104d05760405180604001604052808373ffffffffffffffffffffffffffffffffffffffff16815260200160028081111561041357610412611a0f565b5b815250600460008473ffffffffffffffffffffffffffffffffffffffff1673ffffffffffffffffffffffffffffffffffffffff16815260200190815260200160002060008201518160000160006101000a81548173ffffffffffffffffffffffffffffffffffffffff021916908373ffffffffffffffffffffffffffffffffffffffff16021790555060208201518160000160146101000a81548160ff021916908360028111156104c7576104c6611a0f565b5b02179055509050505b5b5050565b6104dd611041565b80600260006101000a81548173ffffffffffffffffffffffffffffffffffffffff021916908373ffffffffffffffffffffffffffffffffffffffff16021790555050565b610529610faf565b6000600460008473ffffffffffffffffffffffffffffffffffffffff1673ffffffffffffffffffffffffffffffffffffffff1681526020019081526020016000206040518060400160405290816000820160009054906101000a900473ffffffffffffffffffffffffffffffffffffffff1673ffffffffffffffffffffffffffffffffffffffff1673ffffffffffffffffffffffffffffffffffffffff1681526020016000820160149054906101000a900460ff1660028111156105f0576105ef611a0f565b5b600281111561060257610601611a0f565b5b81525050905060028081111561061b5761061a611a0f565b5b8160200151600281111561063257610631611a0f565b5b0361075757600083905060008173ffffffffffffffffffffffffffffffffffffffff1663a0712d6834866040518363ffffffff1660e01b815260040161067891906118d1565b60206040518083038185885af1158015610696573d6000803e3d6000fd5b50505050506040513d601f19601f820116820180604052508101906106bb9190611a53565b905080600360008873ffffffffffffffffffffffffffffffffffffffff1673ffffffffffffffffffffffffffffffffffffffff1681526020019081526020016000206000856000015173ffffffffffffffffffffffffffffffffffffffff1673ffffffffffffffffffffffffffffffffffffffff168152602001908152602001600020600082825461074d9190611aaf565b9250508190555050505b6001600281111561076b5761076a611a0f565b5b8160200151600281111561078257610781611a0f565b5b0361082e57600061079384846110d3565b905080600360008773ffffffffffffffffffffffffffffffffffffffff1673ffffffffffffffffffffffffffffffffffffffff1681526020019081526020016000206000846000015173ffffffffffffffffffffffffffffffffffffffff1673ffffffffffffffffffffffffffffffffffffffff16815260200190815260200160002060008282546108259190611aaf565b92505081905550505b6000600281111561084257610841611a0f565b5b8160200151600281111561085957610858611a0f565b5b036108f65781600360008673ffffffffffffffffffffffffffffffffffffffff1673ffffffffffffffffffffffffffffffffffffffff1681526020019081526020016000206000836000015173ffffffffffffffffffffffffffffffffffffffff1673ffffffffffffffffffffffffffffffffffffffff16815260200190815260200160002060008282546108ee9190611aaf565b925050819055505b50505050565b60008054906101000a900473ffffffffffffffffffffffffffffffffffffffff1681565b600160009054906101000a900473ffffffffffffffffffffffffffffffffffffffff1681565b600080600460008473ffffffffffffffffffffffffffffffffffffffff1673ffffffffffffffffffffffffffffffffffffffff1681526020019081526020016000206040518060400160405290816000820160009054906101000a900473ffffffffffffffffffffffffffffffffffffffff1673ffffffffffffffffffffffffffffffffffffffff1673ffffffffffffffffffffffffffffffffffffffff1681526020016000820160149054906101000a900460ff166002811115610a0e57610a0d611a0f565b5b6002811115610a2057610a1f611a0f565b5b815250509050600073ffffffffffffffffffffffffffffffffffffffff16816000015173ffffffffffffffffffffffffffffffffffffffff1603610a68576000915050610b58565b60016002811115610a7c57610a7b611a0f565b5b81602001516002811115610a9357610a92611a0f565b5b1480610ac65750600280811115610aad57610aac611a0f565b5b81602001516002811115610ac457610ac3611a0f565b5b145b15610b535760008390508073ffffffffffffffffffffffffffffffffffffffff166370a08231306040518263ffffffff1660e01b8152600401610b0991906116be565b602060405180830381865afa158015610b26573d6000803e3d6000fd5b505050506040513d601f19601f82011682018060405250810190610b4a9190611a53565b92505050610b58565b479150505b919050565b610b65610faf565b6000600460008473ffffffffffffffffffffffffffffffffffffffff1673ffffffffffffffffffffffffffffffffffffffff1681526020019081526020016000206040518060400160405290816000820160009054906101000a900473ffffffffffffffffffffffffffffffffffffffff1673ffffffffffffffffffffffffffffffffffffffff1673ffffffffffffffffffffffffffffffffffffffff1681526020016000820160149054906101000a900460ff166002811115610c2c57610c2b611a0f565b5b6002811115610c3e57610c3d611a0f565b5b815250509050600280811115610c5757610c56611a0f565b5b81602001516002811115610c6e57610c6d611a0f565b5b03610d9257600083905060008173ffffffffffffffffffffffffffffffffffffffff166342966c68856040518263ffffffff1660e01b8152600401610cb391906118d1565b6020604051808303816000875af1158015610cd2573d6000803e3d6000fd5b505050506040513d601f19601f82011682018060405250810190610cf69190611a53565b905080600360008873ffffffffffffffffffffffffffffffffffffffff1673ffffffffffffffffffffffffffffffffffffffff1681526020019081526020016000206000856000015173ffffffffffffffffffffffffffffffffffffffff1673ffffffffffffffffffffffffffffffffffffffff1681526020019081526020016000206000828254610d889190611ae3565b9250508190555050505b60016002811115610da657610da5611a0f565b5b81602001516002811115610dbd57610dbc611a0f565b5b03610e69576000610dce8484611278565b905080600360008773ffffffffffffffffffffffffffffffffffffffff1673ffffffffffffffffffffffffffffffffffffffff1681526020019081526020016000206000846000015173ffffffffffffffffffffffffffffffffffffffff1673ffffffffffffffffffffffffffffffffffffffff1681526020019081526020016000206000828254610e609190611ae3565b92505081905550505b60006002811115610e7d57610e7c611a0f565b5b81602001516002811115610e9457610e93611a0f565b5b03610f315781600360008673ffffffffffffffffffffffffffffffffffffffff1673ffffffffffffffffffffffffffffffffffffffff1681526020019081526020016000206000836000015173ffffffffffffffffffffffffffffffffffffffff1673ffffffffffffffffffffffffffffffffffffffff1681526020019081526020016000206000828254610f299190611ae3565b925050819055505b50505050565b6003602052816000526040600020602052806000526040600020600091509150505481565b610f64610faf565b8173ffffffffffffffffffffffffffffffffffffffff166108fc829081150290604051600060405180830381858888f19350505050158015610faa573d6000803e3d6000fd5b505050565b600260009054906101000a900473ffffffffffffffffffffffffffffffffffffffff1673ffffffffffffffffffffffffffffffffffffffff163373ffffffffffffffffffffffffffffffffffffffff161461103f576040517f08c379a000000000000000000000000000000000000000000000000000000000815260040161103690611b89565b60405180910390fd5b565b600160009054906101000a900473ffffffffffffffffffffffffffffffffffffffff1673ffffffffffffffffffffffffffffffffffffffff163373ffffffffffffffffffffffffffffffffffffffff16146110d1576040517f08c379a00000000000000000000000000000000000000000000000000000000081526004016110c890611c1b565b60405180910390fd5b565b600080601e426110e39190611aaf565b905060008060009054906101000a900473ffffffffffffffffffffffffffffffffffffffff1673ffffffffffffffffffffffffffffffffffffffff1663fb3bdb418561112e88611373565b30866040518563ffffffff1660e01b815260040161114f9493929190611cf9565b6000604051808303816000875af115801561116e573d6000803e3d6000fd5b505050506040513d6000823e3d601f19601f820116820180604052508101906111979190611e9e565b905060003373ffffffffffffffffffffffffffffffffffffffff16476040516111bf90611f18565b60006040518083038185875af1925050503d80600081146111fc576040519150601f19603f3d011682016040523d82523d6000602084013e611201565b606091505b5050905080611245576040517f08c379a000000000000000000000000000000000000000000000000000000000815260040161123c90611f79565b60405180910390fd5b81600183516112549190611ae3565b8151811061126557611264611f99565b5b6020026020010151935050505092915050565b600080601e426112889190611aaf565b905060008060009054906101000a900473ffffffffffffffffffffffffffffffffffffffff1673ffffffffffffffffffffffffffffffffffffffff166318cbafe58560016112d5896114f8565b30876040518663ffffffff1660e01b81526004016112f7959493929190612003565b6000604051808303816000875af1158015611316573d6000803e3d6000fd5b505050506040513d6000823e3d601f19601f8201168201806040525081019061133f9190611e9e565b905080600182516113509190611ae3565b8151811061136157611360611f99565b5b60200260200101519250505092915050565b60606000600267ffffffffffffffff81111561139257611391611d5b565b5b6040519080825280602002602001820160405280156113c05781602001602082028036833780820191505090505b50905060008054906101000a900473ffffffffffffffffffffffffffffffffffffffff1673ffffffffffffffffffffffffffffffffffffffff1663ad5c46486040518163ffffffff1660e01b8152600401602060405180830381865afa15801561142e573d6000803e3d6000fd5b505050506040513d601f19601f820116820180604052508101906114529190612072565b8160008151811061146657611465611f99565b5b602002602001019073ffffffffffffffffffffffffffffffffffffffff16908173ffffffffffffffffffffffffffffffffffffffff168152505082816001815181106114b5576114b4611f99565b5b602002602001019073ffffffffffffffffffffffffffffffffffffffff16908173ffffffffffffffffffffffffffffffffffffffff168152505080915050919050565b60606000600267ffffffffffffffff81111561151757611516611d5b565b5b6040519080825280602002602001820160405280156115455781602001602082028036833780820191505090505b509050828160008151811061155d5761155c611f99565b5b602002602001019073ffffffffffffffffffffffffffffffffffffffff16908173ffffffffffffffffffffffffffffffffffffffff168152505060008054906101000a900473ffffffffffffffffffffffffffffffffffffffff1673ffffffffffffffffffffffffffffffffffffffff1663ad5c46486040518163ffffffff1660e01b8152600401602060405180830381865afa158015611602573d6000803e3d6000fd5b505050506040513d601f19601f820116820180604052508101906116269190612072565b8160018151811061163a57611639611f99565b5b602002602001019073ffffffffffffffffffffffffffffffffffffffff16908173ffffffffffffffffffffffffffffffffffffffff168152505080915050919050565b600073ffffffffffffffffffffffffffffffffffffffff82169050919050565b60006116a88261167d565b9050919050565b6116b88161169d565b82525050565b60006020820190506116d360008301846116af565b92915050565b6000604051905090565b600080fd5b600080fd5b6116f68161169d565b811461170157600080fd5b50565b600081359050611713816116ed565b92915050565b600060ff82169050919050565b61172f81611719565b811461173a57600080fd5b50565b60008135905061174c81611726565b92915050565b60008060408385031215611769576117686116e3565b5b600061177785828601611704565b92505060206117888582860161173d565b9150509250929050565b6000602082840312156117a8576117a76116e3565b5b60006117b684828501611704565b91505092915050565b6000819050919050565b6117d2816117bf565b81146117dd57600080fd5b50565b6000813590506117ef816117c9565b92915050565b60008060006060848603121561180e5761180d6116e3565b5b600061181c86828701611704565b935050602061182d86828701611704565b925050604061183e868287016117e0565b9150509250925092565b6000819050919050565b600061186d6118686118638461167d565b611848565b61167d565b9050919050565b600061187f82611852565b9050919050565b600061189182611874565b9050919050565b6118a181611886565b82525050565b60006020820190506118bc6000830184611898565b92915050565b6118cb816117bf565b82525050565b60006020820190506118e660008301846118c2565b92915050565b60008060408385031215611903576119026116e3565b5b600061191185828601611704565b925050602061192285828601611704565b9150509250929050565b60008060408385031215611943576119426116e3565b5b600061195185828601611704565b9250506020611962858286016117e0565b9150509250929050565b600082825260208201905092915050565b7f6173736574547970652069642073686f756c64206265206265747765656e203160008201527f20616e6420340000000000000000000000000000000000000000000000000000602082015250565b60006119d960268361196c565b91506119e48261197d565b604082019050919050565b60006020820190508181036000830152611a08816119cc565b9050919050565b7f4e487b7100000000000000000000000000000000000000000000000000000000600052602160045260246000fd5b600081519050611a4d816117c9565b92915050565b600060208284031215611a6957611a686116e3565b5b6000611a7784828501611a3e565b91505092915050565b7f4e487b7100000000000000000000000000000000000000000000000000000000600052601160045260246000fd5b6000611aba826117bf565b9150611ac5836117bf565b9250828201905080821115611add57611adc611a80565b5b92915050565b6000611aee826117bf565b9150611af9836117bf565b9250828203905081811115611b1157611b10611a80565b5b92915050565b7f43616c6c6572206d7573742062652074686520506f7274666f6c69756d20636f60008201527f6e74726163742100000000000000000000000000000000000000000000000000602082015250565b6000611b7360278361196c565b9150611b7e82611b17565b604082019050919050565b60006020820190508181036000830152611ba281611b66565b9050919050565b7f43616c6c6572206d7573742062652074686520636f6e7472616374206f776e6560008201527f7221000000000000000000000000000000000000000000000000000000000000602082015250565b6000611c0560228361196c565b9150611c1082611ba9565b604082019050919050565b60006020820190508181036000830152611c3481611bf8565b9050919050565b600081519050919050565b600082825260208201905092915050565b6000819050602082019050919050565b611c708161169d565b82525050565b6000611c828383611c67565b60208301905092915050565b6000602082019050919050565b6000611ca682611c3b565b611cb08185611c46565b9350611cbb83611c57565b8060005b83811015611cec578151611cd38882611c76565b9750611cde83611c8e565b925050600181019050611cbf565b5085935050505092915050565b6000608082019050611d0e60008301876118c2565b8181036020830152611d208186611c9b565b9050611d2f60408301856116af565b611d3c60608301846118c2565b95945050505050565b600080fd5b6000601f19601f8301169050919050565b7f4e487b7100000000000000000000000000000000000000000000000000000000600052604160045260246000fd5b611d9382611d4a565b810181811067ffffffffffffffff82111715611db257611db1611d5b565b5b80604052505050565b6000611dc56116d9565b9050611dd18282611d8a565b919050565b600067ffffffffffffffff821115611df157611df0611d5b565b5b602082029050602081019050919050565b600080fd5b6000611e1a611e1584611dd6565b611dbb565b90508083825260208201905060208402830185811115611e3d57611e3c611e02565b5b835b81811015611e665780611e528882611a3e565b845260208401935050602081019050611e3f565b5050509392505050565b600082601f830112611e8557611e84611d45565b5b8151611e95848260208601611e07565b91505092915050565b600060208284031215611eb457611eb36116e3565b5b600082015167ffffffffffffffff811115611ed257611ed16116e8565b5b611ede84828501611e70565b91505092915050565b600081905092915050565b50565b6000611f02600083611ee7565b9150611f0d82611ef2565b600082019050919050565b6000611f2382611ef5565b9150819050919050565b7f726566756e64206661696c656400000000000000000000000000000000000000600082015250565b6000611f63600d8361196c565b9150611f6e82611f2d565b602082019050919050565b60006020820190508181036000830152611f9281611f56565b9050919050565b7f4e487b7100000000000000000000000000000000000000000000000000000000600052603260045260246000fd5b6000819050919050565b6000611fed611fe8611fe384611fc8565b611848565b6117bf565b9050919050565b611ffd81611fd2565b82525050565b600060a08201905061201860008301886118c2565b6120256020830187611ff4565b81810360408301526120378186611c9b565b905061204660608301856116af565b61205360808301846118c2565b9695505050505050565b60008151905061206c816116ed565b92915050565b600060208284031215612088576120876116e3565b5b60006120968482850161205d565b9150509291505056fea264697066735822122016d096061875d64cc6718d8a6768c57b73dd17a1ec1da9e422a26c0202298a6f64736f6c63430008100033",
  "immutableReferences": {},
  "source": "pragma solidity ^0.8.16;\n\nimport \"./interfaces/IUniswapV2Router02.sol\";\nimport \"./interfaces/IERC20.sol\";\nimport \"./interfaces/IERC721.sol\";\nimport \"./Mirrored.sol\";\n\ncontract Treasury {\n    enum AssetTypes {\n        Native,\n        ERC20,\n        Mirrored\n    }\n\n    struct Asset {\n        address assetAddress;\n        AssetTypes assetType;\n    }\n\n    IUniswapV2Router02 public uniswapRouter;\n\n    address public ownerAddress;\n    address public portfoliumAddress;\n\n    mapping(address => mapping(address => uint256)) public balances;\n    mapping(address => Asset) assets;\n\n    constructor(address _uniswapRouterAddress) {\n        ownerAddress = msg.sender;\n        uniswapRouter = IUniswapV2Router02(_uniswapRouterAddress);\n        assets[address(1)] = Asset(address(1), AssetTypes.Native);\n    }\n\n    function _onlyOwner() private view {\n        require(\n            msg.sender == ownerAddress,\n            \"Caller must be the contract owner!\"\n        );\n    }\n\n    modifier onlyOwner() {\n        _onlyOwner();\n        _;\n    }\n\n    function _onlyPortfolium() private view {\n        require(msg.sender == portfoliumAddress, \"Caller must be the Portfolium contract!\");\n    }\n\n    modifier onlyPortfolium() {\n        _onlyPortfolium();\n        _;\n    }\n\n    function setPortoliumAddress(address _portfoliumAddresss) public onlyOwner {\n        portfoliumAddress = _portfoliumAddresss;\n    }\n\n    function addAsset(address assetAddress, uint8 assetType) public onlyPortfolium {\n        require(\n            assetType >= 1 && assetType <= 4,\n            \"assetType id should be between 1 and 4\"\n        );\n\n        if (assetType == 1) {\n            assets[assetAddress] = Asset(assetAddress, AssetTypes.ERC20);\n        } else if (assetType == 2) {\n            assets[assetAddress] = Asset(assetAddress, AssetTypes.Mirrored);\n        }\n    }\n\n    function buyAsset(\n        address _ownerAddress,\n        address _assetAddress,\n        uint256 _amount\n    ) public payable onlyPortfolium {\n        Asset memory asset = assets[_assetAddress];\n        if (asset.assetType == AssetTypes.Mirrored) {\n            Mirrored mirrored = Mirrored(_assetAddress);\n            uint256 minted = mirrored.mint{value: msg.value}(_amount);\n            balances[_ownerAddress][asset.assetAddress] += minted;\n        }\n        if (asset.assetType == AssetTypes.ERC20) {\n            uint256 received = _convertToErc20(_assetAddress, _amount);\n            balances[_ownerAddress][asset.assetAddress] += received;\n        }\n        if (asset.assetType == AssetTypes.Native) {\n            balances[_ownerAddress][asset.assetAddress] += _amount;\n        }\n    }\n\n    function sellAsset(\n        address _ownerAddress,\n        address _assetAddress,\n        uint256 _amount\n    ) public payable onlyPortfolium {\n        // TODO: Check if balance available\n        Asset memory asset = assets[_assetAddress];\n        if (asset.assetType == AssetTypes.Mirrored) {\n            Mirrored mirrored = Mirrored(_assetAddress);\n            uint256 burned = mirrored.burn(_amount);\n            balances[_ownerAddress][asset.assetAddress] -= burned;\n        }\n        if (asset.assetType == AssetTypes.ERC20) {\n            uint256 sold = _convertFromErc20(_assetAddress, _amount);\n            balances[_ownerAddress][asset.assetAddress] -= sold;\n        }\n        if (asset.assetType == AssetTypes.Native) {\n            balances[_ownerAddress][asset.assetAddress] -= _amount;\n        }\n    }\n\n    function withdraw(address recipient, uint256 amount)\n        public\n        payable\n        onlyPortfolium\n    {\n        payable(recipient).transfer(amount);\n    }\n\n    function getBalanceOf(address assetAddress) public view returns (uint256) {\n        Asset memory asset = assets[assetAddress];\n        if (asset.assetAddress == address(0)) {\n            return 0;\n        }\n        if (\n            asset.assetType == AssetTypes.ERC20 ||\n            asset.assetType == AssetTypes.Mirrored\n        ) {\n            IERC20 token = IERC20(assetAddress);\n            return token.balanceOf(address(this));\n        }\n\n        return address(this).balance;\n    }\n\n    receive() external payable {}\n\n    // ---------- HELPERS ----------\n\n    function _convertToErc20(address assetAddress, uint256 amount)\n        internal\n        returns (uint256)\n    {\n        uint256 deadline = block.timestamp + 30;\n        uint256[] memory amounts = uniswapRouter.swapETHForExactTokens(\n            amount,\n            _getPathForNativeToErc20(assetAddress),\n            address(this),\n            deadline\n        );\n\n        // refund leftover ETH to user\n        (bool success, ) = msg.sender.call{value: address(this).balance}(\"\");\n        require(success, \"refund failed\");\n\n        return amounts[amounts.length - 1];\n    }\n\n    function _convertFromErc20(address assetAddress, uint256 amount)\n        internal\n        returns (uint256)\n    {\n        uint256 deadline = block.timestamp + 30;\n        uint256[] memory amounts = uniswapRouter.swapExactTokensForETH(\n            amount,\n            1,\n            _getPathForErc20ToNative(assetAddress),\n            address(this),\n            deadline\n        );\n\n        return amounts[amounts.length - 1];\n    }\n\n    function _getPathForNativeToErc20(address assetAddress)\n        private\n        view\n        returns (address[] memory)\n    {\n        address[] memory path = new address[](2);\n        path[0] = uniswapRouter.WETH();\n        path[1] = assetAddress;\n\n        return path;\n    }\n\n    function _getPathForErc20ToNative(address assetAddress)\n        private\n        view\n        returns (address[] memory)\n    {\n        address[] memory path = new address[](2);\n        path[0] = assetAddress;\n        path[1] = uniswapRouter.WETH();\n\n        return path;\n    }\n}\n",
  "sourcePath": "/home/d4fttasiii/git/portfolium/src/fund-contract/contracts/Treasury.sol",
  "compiler": {
    "name": "solc",
    "version": "0.8.16+commit.07a7930e.Emscripten.clang"
  },
  "schemaVersion": "3.4.9",
  "updatedAt": "2022-12-06T13:02:11.064Z",
  "devdoc": {
    "kind": "dev",
    "methods": {},
    "version": 1
  },
  "userdoc": {
    "kind": "user",
    "methods": {},
    "version": 1
  }
}