{
  "contractName": "Treasury",
  "abi": [
    {
      "inputs": [
        {
          "internalType": "address",
          "name": "_uniswapRouterAddress",
          "type": "address"
        }
      ],
      "stateMutability": "nonpayable",
      "type": "constructor"
    },
    {
      "inputs": [
        {
          "internalType": "address",
          "name": "",
          "type": "address"
        }
      ],
      "name": "assets",
      "outputs": [
        {
          "internalType": "address",
          "name": "assetAddress",
          "type": "address"
        },
        {
          "internalType": "enum Treasury.AssetTypes",
          "name": "assetType",
          "type": "uint8"
        }
      ],
      "stateMutability": "view",
      "type": "function"
    },
    {
      "inputs": [
        {
          "internalType": "address",
          "name": "",
          "type": "address"
        },
        {
          "internalType": "address",
          "name": "",
          "type": "address"
        }
      ],
      "name": "balances",
      "outputs": [
        {
          "internalType": "uint256",
          "name": "",
          "type": "uint256"
        }
      ],
      "stateMutability": "view",
      "type": "function"
    },
    {
      "inputs": [],
      "name": "ownerAddress",
      "outputs": [
        {
          "internalType": "address",
          "name": "",
          "type": "address"
        }
      ],
      "stateMutability": "view",
      "type": "function"
    },
    {
      "inputs": [],
      "name": "portfoliumAddress",
      "outputs": [
        {
          "internalType": "address",
          "name": "",
          "type": "address"
        }
      ],
      "stateMutability": "view",
      "type": "function"
    },
    {
      "inputs": [],
      "name": "uniswapRouter",
      "outputs": [
        {
          "internalType": "contract IUniswapV2Router02",
          "name": "",
          "type": "address"
        }
      ],
      "stateMutability": "view",
      "type": "function"
    },
    {
      "stateMutability": "payable",
      "type": "receive"
    },
    {
      "inputs": [
        {
          "internalType": "address",
          "name": "_portfoliumAddresss",
          "type": "address"
        }
      ],
      "name": "setPortfoliumAddress",
      "outputs": [],
      "stateMutability": "nonpayable",
      "type": "function"
    },
    {
      "inputs": [
        {
          "internalType": "address",
          "name": "assetAddress",
          "type": "address"
        }
      ],
      "name": "addERC20Asset",
      "outputs": [],
      "stateMutability": "nonpayable",
      "type": "function"
    },
    {
      "inputs": [
        {
          "internalType": "address",
          "name": "assetAddress",
          "type": "address"
        }
      ],
      "name": "addMirroredAsset",
      "outputs": [],
      "stateMutability": "nonpayable",
      "type": "function"
    },
    {
      "inputs": [
        {
          "internalType": "address",
          "name": "_ownerAddress",
          "type": "address"
        },
        {
          "internalType": "address",
          "name": "_assetAddress",
          "type": "address"
        },
        {
          "internalType": "uint256",
          "name": "_amount",
          "type": "uint256"
        }
      ],
      "name": "buyAsset",
      "outputs": [],
      "stateMutability": "payable",
      "type": "function"
    },
    {
      "inputs": [
        {
          "internalType": "address",
          "name": "_ownerAddress",
          "type": "address"
        },
        {
          "internalType": "address",
          "name": "_assetAddress",
          "type": "address"
        },
        {
          "internalType": "uint256",
          "name": "_amount",
          "type": "uint256"
        }
      ],
      "name": "sellAsset",
      "outputs": [],
      "stateMutability": "payable",
      "type": "function"
    },
    {
      "inputs": [
        {
          "internalType": "address",
          "name": "recipient",
          "type": "address"
        },
        {
          "internalType": "uint256",
          "name": "amount",
          "type": "uint256"
        }
      ],
      "name": "withdraw",
      "outputs": [],
      "stateMutability": "payable",
      "type": "function"
    },
    {
      "inputs": [
        {
          "internalType": "address",
          "name": "assetAddress",
          "type": "address"
        }
      ],
      "name": "getBalanceOf",
      "outputs": [
        {
          "internalType": "uint256",
          "name": "",
          "type": "uint256"
        }
      ],
      "stateMutability": "view",
      "type": "function"
    }
  ],
  "bytecode": "0x60806040523480156200001157600080fd5b506040516200233838038062002338833981810160405281019062000037919062000228565b33600160006101000a81548173ffffffffffffffffffffffffffffffffffffffff021916908373ffffffffffffffffffffffffffffffffffffffff160217905550806000806101000a81548173ffffffffffffffffffffffffffffffffffffffff021916908373ffffffffffffffffffffffffffffffffffffffff1602179055506040518060400160405280600173ffffffffffffffffffffffffffffffffffffffff16815260200160006002811115620000f757620000f66200025a565b5b81525060046000600173ffffffffffffffffffffffffffffffffffffffff1673ffffffffffffffffffffffffffffffffffffffff16815260200190815260200160002060008201518160000160006101000a81548173ffffffffffffffffffffffffffffffffffffffff021916908373ffffffffffffffffffffffffffffffffffffffff16021790555060208201518160000160146101000a81548160ff02191690836002811115620001af57620001ae6200025a565b5b02179055509050505062000289565b600080fd5b600073ffffffffffffffffffffffffffffffffffffffff82169050919050565b6000620001f082620001c3565b9050919050565b6200020281620001e3565b81146200020e57600080fd5b50565b6000815190506200022281620001f7565b92915050565b600060208284031215620002415762000240620001be565b5b6000620002518482850162000211565b91505092915050565b7f4e487b7100000000000000000000000000000000000000000000000000000000600052602160045260246000fd5b61209f80620002996000396000f3fe6080604052600436106100ab5760003560e01c8063c23f001f11610064578063c23f001f146101ad578063ca5c0de7146101ea578063d2b3832b14610213578063e3a0b8001461023c578063f11b818814610265578063f3fef3a3146102a3576100b2565b806334dc8087146100b757806372c2d554146100e2578063735de9f7146100fe5780638f84aa09146101295780639b96eece14610154578063b5556b8714610191576100b2565b366100b257005b600080fd5b3480156100c357600080fd5b506100cc6102bf565b6040516100d99190611722565b60405180910390f35b6100fc60048036038101906100f791906117b3565b6102e5565b005b34801561010a57600080fd5b506101136106c0565b6040516101209190611865565b60405180910390f35b34801561013557600080fd5b5061013e6106e4565b60405161014b9190611722565b60405180910390f35b34801561016057600080fd5b5061017b60048036038101906101769190611880565b61070a565b60405161018891906118bc565b60405180910390f35b6101ab60048036038101906101a691906117b3565b610921565b005b3480156101b957600080fd5b506101d460048036038101906101cf91906118d7565b610cfb565b6040516101e191906118bc565b60405180910390f35b3480156101f657600080fd5b50610211600480360381019061020c9190611880565b610d20565b005b34801561021f57600080fd5b5061023a60048036038101906102359190611880565b610d6c565b005b34801561024857600080fd5b50610263600480360381019061025e9190611880565b610e6d565b005b34801561027157600080fd5b5061028c60048036038101906102879190611880565b610f6f565b60405161029a92919061198e565b60405180910390f35b6102bd60048036038101906102b891906119b7565b610fc0565b005b600260009054906101000a900473ffffffffffffffffffffffffffffffffffffffff1681565b6102ed611013565b6000600460008473ffffffffffffffffffffffffffffffffffffffff1673ffffffffffffffffffffffffffffffffffffffff1681526020019081526020016000206040518060400160405290816000820160009054906101000a900473ffffffffffffffffffffffffffffffffffffffff1673ffffffffffffffffffffffffffffffffffffffff1673ffffffffffffffffffffffffffffffffffffffff1681526020016000820160149054906101000a900460ff1660028111156103b4576103b3611917565b5b60028111156103c6576103c5611917565b5b8152505090506002808111156103df576103de611917565b5b816020015160028111156103f6576103f5611917565b5b0361051b57600083905060008173ffffffffffffffffffffffffffffffffffffffff1663a0712d6834866040518363ffffffff1660e01b815260040161043c91906118bc565b60206040518083038185885af115801561045a573d6000803e3d6000fd5b50505050506040513d601f19601f8201168201806040525081019061047f9190611a0c565b905080600360008873ffffffffffffffffffffffffffffffffffffffff1673ffffffffffffffffffffffffffffffffffffffff1681526020019081526020016000206000856000015173ffffffffffffffffffffffffffffffffffffffff1673ffffffffffffffffffffffffffffffffffffffff16815260200190815260200160002060008282546105119190611a68565b9250508190555050505b6001600281111561052f5761052e611917565b5b8160200151600281111561054657610545611917565b5b036105f257600061055784846110a5565b905080600360008773ffffffffffffffffffffffffffffffffffffffff1673ffffffffffffffffffffffffffffffffffffffff1681526020019081526020016000206000846000015173ffffffffffffffffffffffffffffffffffffffff1673ffffffffffffffffffffffffffffffffffffffff16815260200190815260200160002060008282546105e99190611a68565b92505081905550505b6000600281111561060657610605611917565b5b8160200151600281111561061d5761061c611917565b5b036106ba5781600360008673ffffffffffffffffffffffffffffffffffffffff1673ffffffffffffffffffffffffffffffffffffffff1681526020019081526020016000206000836000015173ffffffffffffffffffffffffffffffffffffffff1673ffffffffffffffffffffffffffffffffffffffff16815260200190815260200160002060008282546106b29190611a68565b925050819055505b50505050565b60008054906101000a900473ffffffffffffffffffffffffffffffffffffffff1681565b600160009054906101000a900473ffffffffffffffffffffffffffffffffffffffff1681565b600080600460008473ffffffffffffffffffffffffffffffffffffffff1673ffffffffffffffffffffffffffffffffffffffff1681526020019081526020016000206040518060400160405290816000820160009054906101000a900473ffffffffffffffffffffffffffffffffffffffff1673ffffffffffffffffffffffffffffffffffffffff1673ffffffffffffffffffffffffffffffffffffffff1681526020016000820160149054906101000a900460ff1660028111156107d2576107d1611917565b5b60028111156107e4576107e3611917565b5b815250509050600073ffffffffffffffffffffffffffffffffffffffff16816000015173ffffffffffffffffffffffffffffffffffffffff160361082c57600091505061091c565b600160028111156108405761083f611917565b5b8160200151600281111561085757610856611917565b5b148061088a575060028081111561087157610870611917565b5b8160200151600281111561088857610887611917565b5b145b156109175760008390508073ffffffffffffffffffffffffffffffffffffffff166370a08231306040518263ffffffff1660e01b81526004016108cd9190611722565b602060405180830381865afa1580156108ea573d6000803e3d6000fd5b505050506040513d601f19601f8201168201806040525081019061090e9190611a0c565b9250505061091c565b479150505b919050565b610929611013565b6000600460008473ffffffffffffffffffffffffffffffffffffffff1673ffffffffffffffffffffffffffffffffffffffff1681526020019081526020016000206040518060400160405290816000820160009054906101000a900473ffffffffffffffffffffffffffffffffffffffff1673ffffffffffffffffffffffffffffffffffffffff1673ffffffffffffffffffffffffffffffffffffffff1681526020016000820160149054906101000a900460ff1660028111156109f0576109ef611917565b5b6002811115610a0257610a01611917565b5b815250509050600280811115610a1b57610a1a611917565b5b81602001516002811115610a3257610a31611917565b5b03610b5657600083905060008173ffffffffffffffffffffffffffffffffffffffff166342966c68856040518263ffffffff1660e01b8152600401610a7791906118bc565b6020604051808303816000875af1158015610a96573d6000803e3d6000fd5b505050506040513d601f19601f82011682018060405250810190610aba9190611a0c565b905080600360008873ffffffffffffffffffffffffffffffffffffffff1673ffffffffffffffffffffffffffffffffffffffff1681526020019081526020016000206000856000015173ffffffffffffffffffffffffffffffffffffffff1673ffffffffffffffffffffffffffffffffffffffff1681526020019081526020016000206000828254610b4c9190611a9c565b9250508190555050505b60016002811115610b6a57610b69611917565b5b81602001516002811115610b8157610b80611917565b5b03610c2d576000610b92848461124a565b905080600360008773ffffffffffffffffffffffffffffffffffffffff1673ffffffffffffffffffffffffffffffffffffffff1681526020019081526020016000206000846000015173ffffffffffffffffffffffffffffffffffffffff1673ffffffffffffffffffffffffffffffffffffffff1681526020019081526020016000206000828254610c249190611a9c565b92505081905550505b60006002811115610c4157610c40611917565b5b81602001516002811115610c5857610c57611917565b5b03610cf55781600360008673ffffffffffffffffffffffffffffffffffffffff1673ffffffffffffffffffffffffffffffffffffffff1681526020019081526020016000206000836000015173ffffffffffffffffffffffffffffffffffffffff1673ffffffffffffffffffffffffffffffffffffffff1681526020019081526020016000206000828254610ced9190611a9c565b925050819055505b50505050565b6003602052816000526040600020602052806000526040600020600091509150505481565b610d28611345565b80600260006101000a81548173ffffffffffffffffffffffffffffffffffffffff021916908373ffffffffffffffffffffffffffffffffffffffff16021790555050565b610d74611013565b60405180604001604052808273ffffffffffffffffffffffffffffffffffffffff168152602001600280811115610dae57610dad611917565b5b815250600460008373ffffffffffffffffffffffffffffffffffffffff1673ffffffffffffffffffffffffffffffffffffffff16815260200190815260200160002060008201518160000160006101000a81548173ffffffffffffffffffffffffffffffffffffffff021916908373ffffffffffffffffffffffffffffffffffffffff16021790555060208201518160000160146101000a81548160ff02191690836002811115610e6257610e61611917565b5b021790555090505050565b610e75611013565b60405180604001604052808273ffffffffffffffffffffffffffffffffffffffff16815260200160016002811115610eb057610eaf611917565b5b815250600460008373ffffffffffffffffffffffffffffffffffffffff1673ffffffffffffffffffffffffffffffffffffffff16815260200190815260200160002060008201518160000160006101000a81548173ffffffffffffffffffffffffffffffffffffffff021916908373ffffffffffffffffffffffffffffffffffffffff16021790555060208201518160000160146101000a81548160ff02191690836002811115610f6457610f63611917565b5b021790555090505050565b60046020528060005260406000206000915090508060000160009054906101000a900473ffffffffffffffffffffffffffffffffffffffff16908060000160149054906101000a900460ff16905082565b610fc8611013565b8173ffffffffffffffffffffffffffffffffffffffff166108fc829081150290604051600060405180830381858888f1935050505015801561100e573d6000803e3d6000fd5b505050565b600260009054906101000a900473ffffffffffffffffffffffffffffffffffffffff1673ffffffffffffffffffffffffffffffffffffffff163373ffffffffffffffffffffffffffffffffffffffff16146110a3576040517f08c379a000000000000000000000000000000000000000000000000000000000815260040161109a90611b53565b60405180910390fd5b565b600080601e426110b59190611a68565b905060008060009054906101000a900473ffffffffffffffffffffffffffffffffffffffff1673ffffffffffffffffffffffffffffffffffffffff1663fb3bdb4185611100886113d7565b30866040518563ffffffff1660e01b81526004016111219493929190611c31565b6000604051808303816000875af1158015611140573d6000803e3d6000fd5b505050506040513d6000823e3d601f19601f820116820180604052508101906111699190611dd6565b905060003373ffffffffffffffffffffffffffffffffffffffff164760405161119190611e50565b60006040518083038185875af1925050503d80600081146111ce576040519150601f19603f3d011682016040523d82523d6000602084013e6111d3565b606091505b5050905080611217576040517f08c379a000000000000000000000000000000000000000000000000000000000815260040161120e90611eb1565b60405180910390fd5b81600183516112269190611a9c565b8151811061123757611236611ed1565b5b6020026020010151935050505092915050565b600080601e4261125a9190611a68565b905060008060009054906101000a900473ffffffffffffffffffffffffffffffffffffffff1673ffffffffffffffffffffffffffffffffffffffff166318cbafe58560016112a78961155c565b30876040518663ffffffff1660e01b81526004016112c9959493929190611f3b565b6000604051808303816000875af11580156112e8573d6000803e3d6000fd5b505050506040513d6000823e3d601f19601f820116820180604052508101906113119190611dd6565b905080600182516113229190611a9c565b8151811061133357611332611ed1565b5b60200260200101519250505092915050565b600160009054906101000a900473ffffffffffffffffffffffffffffffffffffffff1673ffffffffffffffffffffffffffffffffffffffff163373ffffffffffffffffffffffffffffffffffffffff16146113d5576040517f08c379a00000000000000000000000000000000000000000000000000000000081526004016113cc90612007565b60405180910390fd5b565b60606000600267ffffffffffffffff8111156113f6576113f5611c93565b5b6040519080825280602002602001820160405280156114245781602001602082028036833780820191505090505b50905060008054906101000a900473ffffffffffffffffffffffffffffffffffffffff1673ffffffffffffffffffffffffffffffffffffffff1663ad5c46486040518163ffffffff1660e01b8152600401602060405180830381865afa158015611492573d6000803e3d6000fd5b505050506040513d601f19601f820116820180604052508101906114b6919061203c565b816000815181106114ca576114c9611ed1565b5b602002602001019073ffffffffffffffffffffffffffffffffffffffff16908173ffffffffffffffffffffffffffffffffffffffff1681525050828160018151811061151957611518611ed1565b5b602002602001019073ffffffffffffffffffffffffffffffffffffffff16908173ffffffffffffffffffffffffffffffffffffffff168152505080915050919050565b60606000600267ffffffffffffffff81111561157b5761157a611c93565b5b6040519080825280602002602001820160405280156115a95781602001602082028036833780820191505090505b50905082816000815181106115c1576115c0611ed1565b5b602002602001019073ffffffffffffffffffffffffffffffffffffffff16908173ffffffffffffffffffffffffffffffffffffffff168152505060008054906101000a900473ffffffffffffffffffffffffffffffffffffffff1673ffffffffffffffffffffffffffffffffffffffff1663ad5c46486040518163ffffffff1660e01b8152600401602060405180830381865afa158015611666573d6000803e3d6000fd5b505050506040513d601f19601f8201168201806040525081019061168a919061203c565b8160018151811061169e5761169d611ed1565b5b602002602001019073ffffffffffffffffffffffffffffffffffffffff16908173ffffffffffffffffffffffffffffffffffffffff168152505080915050919050565b600073ffffffffffffffffffffffffffffffffffffffff82169050919050565b600061170c826116e1565b9050919050565b61171c81611701565b82525050565b60006020820190506117376000830184611713565b92915050565b6000604051905090565b600080fd5b600080fd5b61175a81611701565b811461176557600080fd5b50565b60008135905061177781611751565b92915050565b6000819050919050565b6117908161177d565b811461179b57600080fd5b50565b6000813590506117ad81611787565b92915050565b6000806000606084860312156117cc576117cb611747565b5b60006117da86828701611768565b93505060206117eb86828701611768565b92505060406117fc8682870161179e565b9150509250925092565b6000819050919050565b600061182b611826611821846116e1565b611806565b6116e1565b9050919050565b600061183d82611810565b9050919050565b600061184f82611832565b9050919050565b61185f81611844565b82525050565b600060208201905061187a6000830184611856565b92915050565b60006020828403121561189657611895611747565b5b60006118a484828501611768565b91505092915050565b6118b68161177d565b82525050565b60006020820190506118d160008301846118ad565b92915050565b600080604083850312156118ee576118ed611747565b5b60006118fc85828601611768565b925050602061190d85828601611768565b9150509250929050565b7f4e487b7100000000000000000000000000000000000000000000000000000000600052602160045260246000fd5b6003811061195757611956611917565b5b50565b600081905061196882611946565b919050565b60006119788261195a565b9050919050565b6119888161196d565b82525050565b60006040820190506119a36000830185611713565b6119b0602083018461197f565b9392505050565b600080604083850312156119ce576119cd611747565b5b60006119dc85828601611768565b92505060206119ed8582860161179e565b9150509250929050565b600081519050611a0681611787565b92915050565b600060208284031215611a2257611a21611747565b5b6000611a30848285016119f7565b91505092915050565b7f4e487b7100000000000000000000000000000000000000000000000000000000600052601160045260246000fd5b6000611a738261177d565b9150611a7e8361177d565b9250828201905080821115611a9657611a95611a39565b5b92915050565b6000611aa78261177d565b9150611ab28361177d565b9250828203905081811115611aca57611ac9611a39565b5b92915050565b600082825260208201905092915050565b7f43616c6c6572206d7573742062652074686520506f7274666f6c69756d20636f60008201527f6e74726163742100000000000000000000000000000000000000000000000000602082015250565b6000611b3d602783611ad0565b9150611b4882611ae1565b604082019050919050565b60006020820190508181036000830152611b6c81611b30565b9050919050565b600081519050919050565b600082825260208201905092915050565b6000819050602082019050919050565b611ba881611701565b82525050565b6000611bba8383611b9f565b60208301905092915050565b6000602082019050919050565b6000611bde82611b73565b611be88185611b7e565b9350611bf383611b8f565b8060005b83811015611c24578151611c0b8882611bae565b9750611c1683611bc6565b925050600181019050611bf7565b5085935050505092915050565b6000608082019050611c4660008301876118ad565b8181036020830152611c588186611bd3565b9050611c676040830185611713565b611c7460608301846118ad565b95945050505050565b600080fd5b6000601f19601f8301169050919050565b7f4e487b7100000000000000000000000000000000000000000000000000000000600052604160045260246000fd5b611ccb82611c82565b810181811067ffffffffffffffff82111715611cea57611ce9611c93565b5b80604052505050565b6000611cfd61173d565b9050611d098282611cc2565b919050565b600067ffffffffffffffff821115611d2957611d28611c93565b5b602082029050602081019050919050565b600080fd5b6000611d52611d4d84611d0e565b611cf3565b90508083825260208201905060208402830185811115611d7557611d74611d3a565b5b835b81811015611d9e5780611d8a88826119f7565b845260208401935050602081019050611d77565b5050509392505050565b600082601f830112611dbd57611dbc611c7d565b5b8151611dcd848260208601611d3f565b91505092915050565b600060208284031215611dec57611deb611747565b5b600082015167ffffffffffffffff811115611e0a57611e0961174c565b5b611e1684828501611da8565b91505092915050565b600081905092915050565b50565b6000611e3a600083611e1f565b9150611e4582611e2a565b600082019050919050565b6000611e5b82611e2d565b9150819050919050565b7f726566756e64206661696c656400000000000000000000000000000000000000600082015250565b6000611e9b600d83611ad0565b9150611ea682611e65565b602082019050919050565b60006020820190508181036000830152611eca81611e8e565b9050919050565b7f4e487b7100000000000000000000000000000000000000000000000000000000600052603260045260246000fd5b6000819050919050565b6000611f25611f20611f1b84611f00565b611806565b61177d565b9050919050565b611f3581611f0a565b82525050565b600060a082019050611f5060008301886118ad565b611f5d6020830187611f2c565b8181036040830152611f6f8186611bd3565b9050611f7e6060830185611713565b611f8b60808301846118ad565b9695505050505050565b7f43616c6c6572206d7573742062652074686520636f6e7472616374206f776e6560008201527f7221000000000000000000000000000000000000000000000000000000000000602082015250565b6000611ff1602283611ad0565b9150611ffc82611f95565b604082019050919050565b6000602082019050818103600083015261202081611fe4565b9050919050565b60008151905061203681611751565b92915050565b60006020828403121561205257612051611747565b5b600061206084828501612027565b9150509291505056fea264697066735822122034f27db713ba4b3c127fa2511dc5177280a3b908e2875b39a6b86c736c2d651c64736f6c63430008100033",
  "immutableReferences": {},
  "source": "pragma solidity ^0.8.16;\n\nimport \"./interfaces/IUniswapV2Router02.sol\";\nimport \"./interfaces/IERC20.sol\";\nimport \"./interfaces/IERC721.sol\";\nimport \"./Mirrored.sol\";\n\ncontract Treasury {\n    enum AssetTypes {\n        Native,\n        ERC20,\n        Mirrored\n    }\n\n    struct Asset {\n        address assetAddress;\n        AssetTypes assetType;\n    }\n\n    IUniswapV2Router02 public uniswapRouter;\n\n    address public ownerAddress;\n    address public portfoliumAddress;\n\n    mapping(address => mapping(address => uint256)) public balances;\n    mapping(address => Asset) public assets;\n\n    constructor(address _uniswapRouterAddress) {\n        ownerAddress = msg.sender;\n        uniswapRouter = IUniswapV2Router02(_uniswapRouterAddress);\n        assets[address(1)] = Asset(address(1), AssetTypes.Native);\n    }\n\n    function _onlyOwner() private view {\n        require(\n            msg.sender == ownerAddress,\n            \"Caller must be the contract owner!\"\n        );\n    }\n\n    modifier onlyOwner() {\n        _onlyOwner();\n        _;\n    }\n\n    function _onlyPortfolium() private view {\n        require(\n            msg.sender == portfoliumAddress,\n            \"Caller must be the Portfolium contract!\"\n        );\n    }\n\n    modifier onlyPortfolium() {\n        _onlyPortfolium();\n        _;\n    }\n\n    function setPortfoliumAddress(address _portfoliumAddresss) public onlyOwner {\n        portfoliumAddress = _portfoliumAddresss;\n    }\n\n    function addERC20Asset(address assetAddress) public onlyPortfolium {\n        assets[assetAddress] = Asset(assetAddress, AssetTypes.ERC20);\n    }\n\n    function addMirroredAsset(address assetAddress) public onlyPortfolium {\n        assets[assetAddress] = Asset(assetAddress, AssetTypes.Mirrored);\n    }\n\n    function buyAsset(\n        address _ownerAddress,\n        address _assetAddress,\n        uint256 _amount\n    ) public payable onlyPortfolium {\n        Asset memory asset = assets[_assetAddress];\n        if (asset.assetType == AssetTypes.Mirrored) {\n            Mirrored mirrored = Mirrored(_assetAddress);\n            uint256 minted = mirrored.mint{value: msg.value}(_amount);\n            balances[_ownerAddress][asset.assetAddress] += minted;\n        }\n        if (asset.assetType == AssetTypes.ERC20) {\n            uint256 received = _convertToErc20(_assetAddress, _amount);\n            balances[_ownerAddress][asset.assetAddress] += received;\n        }\n        if (asset.assetType == AssetTypes.Native) {\n            balances[_ownerAddress][asset.assetAddress] += _amount;\n        }\n    }\n\n    function sellAsset(\n        address _ownerAddress,\n        address _assetAddress,\n        uint256 _amount\n    ) public payable onlyPortfolium {\n        // TODO: Check if balance available\n        Asset memory asset = assets[_assetAddress];\n        if (asset.assetType == AssetTypes.Mirrored) {\n            Mirrored mirrored = Mirrored(_assetAddress);\n            uint256 burned = mirrored.burn(_amount);\n            balances[_ownerAddress][asset.assetAddress] -= burned;\n        }\n        if (asset.assetType == AssetTypes.ERC20) {\n            uint256 sold = _convertFromErc20(_assetAddress, _amount);\n            balances[_ownerAddress][asset.assetAddress] -= sold;\n        }\n        if (asset.assetType == AssetTypes.Native) {\n            balances[_ownerAddress][asset.assetAddress] -= _amount;\n        }\n    }\n\n    function withdraw(address recipient, uint256 amount)\n        public\n        payable\n        onlyPortfolium\n    {\n        payable(recipient).transfer(amount);\n    }\n\n    function getBalanceOf(address assetAddress) public view returns (uint256) {\n        Asset memory asset = assets[assetAddress];\n        if (asset.assetAddress == address(0)) {\n            return 0;\n        }\n        if (\n            asset.assetType == AssetTypes.ERC20 ||\n            asset.assetType == AssetTypes.Mirrored\n        ) {\n            IERC20 token = IERC20(assetAddress);\n            return token.balanceOf(address(this));\n        }\n\n        return address(this).balance;\n    }\n\n    receive() external payable {}\n\n    // ---------- HELPERS ----------\n\n    function _convertToErc20(address assetAddress, uint256 amount)\n        internal\n        returns (uint256)\n    {\n        uint256 deadline = block.timestamp + 30;\n        uint256[] memory amounts = uniswapRouter.swapETHForExactTokens(\n            amount,\n            _getPathForNativeToErc20(assetAddress),\n            address(this),\n            deadline\n        );\n\n        // refund leftover ETH to user\n        (bool success, ) = msg.sender.call{value: address(this).balance}(\"\");\n        require(success, \"refund failed\");\n\n        return amounts[amounts.length - 1];\n    }\n\n    function _convertFromErc20(address assetAddress, uint256 amount)\n        internal\n        returns (uint256)\n    {\n        uint256 deadline = block.timestamp + 30;\n        uint256[] memory amounts = uniswapRouter.swapExactTokensForETH(\n            amount,\n            1,\n            _getPathForErc20ToNative(assetAddress),\n            address(this),\n            deadline\n        );\n\n        return amounts[amounts.length - 1];\n    }\n\n    function _getPathForNativeToErc20(address assetAddress)\n        private\n        view\n        returns (address[] memory)\n    {\n        address[] memory path = new address[](2);\n        path[0] = uniswapRouter.WETH();\n        path[1] = assetAddress;\n\n        return path;\n    }\n\n    function _getPathForErc20ToNative(address assetAddress)\n        private\n        view\n        returns (address[] memory)\n    {\n        address[] memory path = new address[](2);\n        path[0] = assetAddress;\n        path[1] = uniswapRouter.WETH();\n\n        return path;\n    }\n}\n",
  "sourcePath": "/home/d4fttasiii/git/portfolium/src/fund-contract/contracts/Treasury.sol",
  "compiler": {
    "name": "solc",
    "version": "0.8.16+commit.07a7930e.Emscripten.clang"
  },
  "schemaVersion": "3.4.9",
  "updatedAt": "2022-12-09T14:36:28.729Z",
  "devdoc": {
    "kind": "dev",
    "methods": {},
    "version": 1
  },
  "userdoc": {
    "kind": "user",
    "methods": {},
    "version": 1
  }
}